:1039BA008F388D39123A6B7FCC123551AF381235A8
:0A39CA0051AF39123551123B26228D
:1038A5008F2D8C2E8D2F123A6B7FCC123551AF2D6B
:1038B500123551AF2F123551E52EFF123551123BFE
:0238C5002622B9
:1034A0008F3D8B3E8A3F8940123A6B7FCC1235515B
:1034B000AF3D123551AB3E0540E540AA3F700205D5
:1034C0003F14F9120BD1FF123551E542154270023B
:0B34D000154114454170DE123B26221E
:10380A008F34E4F535123A6B7FCC123551200C1403
:10381A00AF34123551123A6B7FCD123551D21E1286
:0A382A0035C58F35123B26AF35225D
:103428008F41E4F542F543123A6B7FCC12355120B7
:103438000C22AF41123551123A6B7FCD123551C271
:103448001E1235C57542008F43D21E1235C5EFFED8
:0C345800E4EE4242123B26AE42AF43229B
:103137008E388F398B3A8A3B893CD3E5399401E540
:103147003894004008E539153970021538C21E1247
:1031570035C5AB3A053CE53CAA3B7002053B14F983
:10316700EF120C39E53915397002153814453870E6
:10317700DCD21E1235C5AB3AAA3BA93CEF120C397B
:03318700023B26E2
:1037B4008F318B328A338934123A6B7FCC12355174
:1037C400AF31123551123A6B7FCD123551AB32AA5B
:0B37D40033A934AF36AE351231372276
:1032C3008F308B318A328933123A6B7FCC1235516E
:1032D300AF30123551123A6B7FCD123551C21E12E7
:1032E30035C57536008F37D3E5379535E5369534D3
:1032F3004006853436853537AB31AA32A933AF372B
:0A330300AE36123137AE36AF372276
:103551008F44754508C296E54430E704D295800250
:10356100C295123B81E54425E0F544D296123B8198
:10357100D545E2C296D295120006D29612000630C7
:0A3581009502D20CC2961200062239
:1035C500D295120006754508D296E54425E0F544E6
:1035D500309503434401123B81C296123B81D54588
:1035E500E7201E04C2958002D295120006D29612DB
:0735F5000006C296AF44225C
:103A6B00D295D296120006C20C209502D20CC295AA
:063A7B00120006C29622B3
:0D3B2600C295120006D296120006D295221A
:050006007F0ADFFE226D
:013B81002221
:10216B004B434D5F504F5745525F4F4E004B434DC6
:10217B005F524541445F495251204572726F720064
:10218B004B434D5F4952515F504C41595F53544142
:10219B005445202530327800526573746F72654157
:1021AB0020253032782025303278202530327800C7
:1021BB0053455420004B434D5F564F4C554D455F97
:1021CB004354524C202564004B434D5F494E5055B0
:1021DB00545F534F555243452025303278004B43C3
:1021EB004D5F4C495354454E5F4D4F444520253070
:1021FB00327800417070436F6D6D616E64202530D5
:10220B0032782025303278202530327800010508CD
:10221B000064005E01E803E40C102700101112307B
:10222B003132333420212224000203010507060436
:10223B0019181716151413121100010203040506C1
:03224B0007080978
:083B5E00E4900056F002399FCB
:10399F007D017F051239BA7F02123B7C900057746C
:0B39AF0064F07BFF7A21796B022BB2E1
:101E5F008F24309403021F6F7F0112380A8F25AD34
:101E6F00257F031239BA300C097BFF7A217978026A
:101E7F002BB2E5255401D3940040031217DEE5255C
:101E8F005402D39400404D7F1812380A90004DEF42
:101E9F00F07F1A12380A900089EFF090004CE0FFA3
:101EAF0064046004EFB4050F7FA212342890002C55
:101EBF00EEF0A3EFF0800E900057E07008201505AC
:101ECF007F07123B7C90004DE07003123AC1122D38
:101EDF0010123B87E5255408D39400400312162AAD
:101EEF00E5255404D3940040167F2F12380A900032
:101EFF002BEFF090003BE0B438057F38123B7CE5C8
:101F0F00255410D3940040031231DDE5255440D3FE
:101F1F009400401A90003BE0FF6003B401107FA3D0
:101F2F00123428900054EEF0A3EFF0121D44E52573
:101F3F005420D39400401D7FA512380A900029EF3A
:101F4F00F07BFF7A21798BF537122BB2900029E0C5
:101F5F00FF12358BE5255480D3940040031223F2F2
:011F6F00224F
:1017DE007B007A00792A7535007536047F40123702
:1017EE00B4300C05E4FF023B7CE52A54039000560E
:1017FE00F0900065E52CF0A3E52DF0852B28AD28A3
:10180E007F2012292E8F297BFF7A2179A3852837F5
:10181E00852938852B39122BB2E529C39404400F44
:10182E00E529D39408500890004CE52BF0800690E3
:10183E00004CE529F07F2012380A8F287B007A00B1
:10184E00792A7535007536027F811237B490008C77
:10185E00E52BF07F2F12380A90002BEFF0E4F527DE
:10186E00AD277F0912292E8F29E5292430FF123842
:10187E000A8F28AD287F3012292E74812529F582F2
:10188E00E43400F583EFF00527E527C3940840D034
:10189E007F3912380A8F28E528540FFD7F39122917
:1018AE002E90005FEFF0E528C4540FFD7F3912290A
:1018BE002E900060EFF07F2412380A8F28AD287F1B
:1018CE002412292E7D507F2E1239BA7D467F251285
:1018DE0039BA7D467F261239BA752A12752B1275C2
:1018EE002C30752D107B007A00792A7541007542D7
:1018FE00047F801234A012224E1223227BFF7A2202
:10190E00791875410075420E7F901234A0E4900054
:10191E004DF0900089F0900054F0A3F0900029F063
:10192E00C201C215C20690008AF0FF7E20121C254D
:10193E007F02123B7C900057740AF0123B87122DE7
:10194E00107FFF123664900029E0FF12358B900055
:09195E0056E0FDE4FF1235FC2205
:102B37007BFF7A2179BB1236C7E4F527AD277F04DF
:102B47001238E912000E7FFF123B557FFF123B55EB
:102B57000527E527C3946440E3752902E4F52A7540
:102B67002B09752C09FB7A007929F5417542047FF9
:102B7700401234A07D277F2F1239BAE4F527E527C5
:102B87002430FFE4FD1239BA0527E527C39408402E
:102B9700ED7DAB7F241239BA7D017F051239BA7FEB
:0B2BA70002123B7C900057741EF022CD
:1023F2007B007A0079277534007535087F98123290
:10240200C38F2FE52F640260030224B5E52724F869
:10241200607624E8602724F5604814605824FD6043
:10242200030224A37BFF7A2179C0852837122BB2BD
:1024320090002BE528F07F38123B7C80767BFF7A78
:102442002179D3852837122BB2AD287F2012292E6D
:1024520090004CEFF0123B76123B33E4FF123B7CD0
:1024620080517BFF7A2179E9852837122BB2AF2878
:10247200122A3A803E7BFF7A2179E9852837122B8E
:10248200B2AF281236F8802BA206E433FFE52854B7
:1024920001B5071FE52830E21A90003B7438F0803E
:1024A200127BFF7A2179FE852F37852738852839D7
:0824B200122BB27F0102366417
:102DE700EF24F7601324E5601D24F46012241070AB
:102DF70052ED90222693FF22ED90223393FF22ED8E
:102E070090223B93FF22E4F538900048E0D39400EA
:102E17004003433801900046E0D394004003433811
:102E270002900047E0FF25E025E04238900049E0A6
:102E3700FFC454F04238A3E0FFC4333354C04238D0
:062E4700AF38227F0022DB
:10292E00E4FEEF24F7602124E5604724F4602E24B2
:10293E00107072EE90222693B50503AF06220EEEAE
:10294E00C3940D40EE7F0022EE90223393B5050323
:10295E00AF06220EEEC3940840EE7F0022EE9022C8
:10296E003B93B50503AF06220EEEC3941340EE7FE4
:10297E000022ED30E1047F0180027F00900046EFDF
:10298E00F0ED13135403A3F0ED30E0047F01800249
:10299E007F00900048EFF0EDC45403A3F0EDC41394
:0829AE00135403A3F07F002283
:103696008B3F8A408941EF6027AB3F0541E541AA50
:1036A600407002054014F9120BD1FEAB420544E509
:1036B60044AA437002054314F9EE120C391F80D652
:0136C60022E1
:10257B006752656D6F766554696D657220253032D3
:10258B0078004D4B434D5F507265656D7074696299
:10259B006C653A25642025642F2564004B434D5F01
:1025AB005352435F56414C49442045202564202516
:1025BB0064004B434D5F5352435F56414C49443A81
:1025CB002530327825303278204C6173743A2530BF
:1025DB00327825303278006D494E5055545F41208A
:1025EB0025303278004B434D5F5352435F56414C7D
:1025FB004944203D204C6173743A253032782530A4
:10260B0032780D0A00000102030020004010004048
:0E261B000001000200040004050608090A0B75
:013B82002220
:103632008F2490008AE0602904F0D394C840227F4E
:103642004112380A8F257BFF7A25797B852537122F
:103652002BB2E490003BF0AF25123093E490008A45
:02366200F02254
:1038C7008F32123B33D219E532600D753330300633
:1038D7000AC2064333028003753320AD337F0802E3
:0238E70039BAEC
:10390B00AD07EDC394FF500E7F09122DE7EF441066
:0E391B00FD7F090239BAE4FD7F091239BA2294
:103030008F358D36123B76E536601674812535F571
:1030400082E43400F583E0C394125019E004F08068
:103050001474812535F582E43400F583E0D39400BF
:103060004003E014F0AD357F09122DE78F377481EE
:103070002535F582E43400F583E0FD7F30122DE73D
:0A308000AD07E5372430FF0239BA2E
:0D3B3300301509C215E4FD7F091239BA22D0
:063B7600300602C2062227
:09308A00F582E43400F583E0FF57
:103093008F27900074E0542CF0900073E054F8F004
:1030A300A3E054FBF0123B76123B3390003BE0FF6E
:1030B30060046401702590004CE527F0FDFF123891
:1030C3003490004CE0B404077FA0123729800C90A1
:1030D300004CE0B405057FA11237297F01023B7C38
:103277007BFF7A25798D900027E0FF2433F582E4E0
:103287003400F583E0F5378F3890003CE0F53912CC
:103297002BB290003CE0601B900027E024331230F3
:1032A7008A90003CE0FF900027E004F0C39F400BAA
:0C32B700E4F02290004CE0FF1230932263
:102F7A00E490003BF0900058E0FF601190003DE0C3
:102F8A00FEC39F500874332E12308A802090005856
:102F9A00E0FF90003DE0C39FFFE49400FE74102F11
:102FAA00F58274263EF583E493FF1230939000581D
:102FBA00E02404FFE433FE90003DE004F0C39FEEFA
:0B2FCA006480F87480984002E4F0225C
:103834008D2CAD077F20122DE7AD077F201239BAFA
:10384400E52CD39403500EAD2C7F20122DE7AD0749
:063854007F411239BA2287
:101C25008E2E8F2FE4F53090008CE0B45311AF3039
:101C3500053074332FF582E43400F5837407F0E53D
:101C45002F452E7003021D1AE4F531E53125E024F8
:101C550014F582E43426F583E493F532740193F5A3
:101C650033E52E5532FEE52F55334E603DE53364A1
:101C7500204532700C90002EE07002A3E0701480B5
:101C850029E53364404532700A90002EE07002A3C6
:101C9500E07017E53190262293FFAE30053074339E
:101CA5002EF582E43400F583EFF00531E531640764
:101CB5007099900058E06530600BE490003DF0901D
:101CC5000058E530F0E4F531900058E0FFE531C308
:101CD5009F501C74332531F582E43400F583E0FE12
:101CE500C394094006EED3940C4004053180D99085
:101CF500003CE06531600BE4900027F090003CE586
:101D050030F07BFF7A2579A790003CE0F5378F38D6
:101D1500122BB2801F90003CE530F0E4900058F0A3
:101D2500900027F090003DF090002EF0A3F0900079
:0F1D350050F0A3F0900091E52EF0A3E52FF022DF
:103729008F2C123428E52CB4A00A90002EEEF0A3B9
:10373900EFF08008900050EEF0A3EFF0EF4E600C30
:0F37490074FFFDFC7FA41238A57F01227F0022B0
:10162A007F1C1234288E278F28900091E0FCA3E0BB
:10163A00FD65287003EC652770030217C8C21D7B7D
:10164A00FF7A2579BDE527F538753700F5398528FC
:10165A003AECF53C753B00F53D8D3E122BB2E4F5B4
:10166A0029E52925E02414F582E43426F583E49358
:10167A00F52A740193F52BE527552AFEE528552B03
:10168A004E700302170E900091E0552AFEA3E05512
:10169A002B4E7070D21DE52A7032E52B24F9602A90
:1016AA0024C76015242070247FA0123729EF701CEC
:1016BA007F0E123B7CC21D80137FA1123729EF7067
:1016CA000B7F0F123B7CC21D8002C21D301D41E5FB
:1016DA002990262293FF90004CE0FD123834E52928
:1016EA009026229390004CF07BFF7A2579E2F53719
:1016FA00122BB2E490003BF07F01123B7CE4900095
:10170A008AF0800C0529E529C39407500302166B59
:10171A00301D030217C1E4F529E52925E02414F553
:10172A0082E43426F583E493F52A740193F52BE5D4
:10173A0027552AFEE528552B4E7070900091E055EA
:10174A002AFEA3E0552B4E6062E52B852AF0120D86
:10175A0033176F00201781004017931000179A4023
:10176A00000000179FE490002EF0A3F0FF12358BC3
:10177A007F10123B7C801EE4900050F0A3F0FF1211
:10178A00358B7F11123B7C800C7F12123B7C8005CB
:10179A007F13123B7CE52990262293FF90004CE0B0
:1017AA00B5071490008A7401F0800C0529E529C355
:1017BA0094075003021723AF28AE27021C257BFF8C
:1017CA007A2579F0E527F538753700F53985283A0D
:0417DA00122BB222FA
:103AF8002052455345540001020400011020213092
:013B8300221F
:100601008F24122ABB900057E0D39400401630018A
:1006110003020ADAE5245402D394005003020ADAF1
:10062100E014F022300125301A0BC21A7864E6B4C6
:10063100590312399F200703020ADAC207D214783C
:100641006FE664186003020ADA02399F2007030289
:1006510006F0C207D214786FE6120D0D069401065A
:10066100990206A00406A708068F110688120681C2
:1006710014067C1806C328000006F0122F7A806F3A
:100681007F0112318A8068E4FF12318A8061123859
:100691005A805C12339E80577F02123A5480507FF9
:1006A10001123A54804990003BE0FFC39438400D59
:1006B100EFD3943F5007E4FF123B7C80321239297B
:1006C100802D90003BE0FFC394384006EFD3943A6D
:1006D10040077F38123B7C801690003BE004F0D34A
:1006E100943A40037438F090003BE0FF123B7C7871
:1006F10071E6600C06E6D3943C4005E4F6786DF6AD
:10070100201A03020AB4C21A7864E6120D0D0AA86F
:10071100000AAF030A8C0408A90508CF060A93074B
:100721000A72080A770B0A5D0C08630D08570E0A56
:100731002110088011085D120A2B130A4314093B8A
:10074100160A4A1707D51807C31908AF1A09C91B92
:100751000AA1400A9A420A854408A3450A7E460A2C
:100761006B480A644A0A564C07DB4D0A514E081978
:10077100510A3A5409EB550A315607AA58078859C4
:1007810009A75A00000AB4B2013001087F08123BE0
:100791007C020AB47D017F051239BA7F02123B7CCB
:1007A100900057741EF0020AB490003BE0B40904B3
:1007B1007F0480027F008F25AD257F091210090279
:1007C1000AB47BFF7A3A79F81236C712000E122B5F
:1007D10037020AB4123880020AB490003BE0FFC32A
:1007E100942E4012EFD39435500C787176017D042C
:1007F100121009020AB490003BE0FFC39424500395
:0E080100020AB4EFD3942B4003020AB47871BC
:10080F0076017D04121009020AB490003BE0FFC389
:10081F00942E4012EFD39435500C787176017D03EE
:10082F00121009020AB490003BE0FFC39424500356
:10083F00020AB4EFD3942B4003020AB47871760105
:10084F007D03121009020AB4123A08020AB4123ACE
:10085F0022020AB47871760190003BE0B438047F2D
:10086F000480027F008F25AD257F38121009020A00
:10087F00B4300603020AB47871760190003BE0B4FD
:10088F0038047F0380027F008F25AD257F3812103B
:10089F0009020AB41239D4020AB4123929020AB46D
:1008AF0090003BE0FFC39446400EEFD394505008A6
:1008BF00E4FF123B7C020AB47F46123B7C020AB46F
:1008CF0090003BE0FFC394465003020AB4EFD39469
:1008DF00504003020AB4E004F0E0B4480C90004723
:1008EF00E0700690003BE004F090003BE0B4490C50
:1008FF00900049E0700690003BE004F090003BE070
:10090F00B44A0C90004AE0700690003BE004F0906F
:10091F00003BE0D3945040037446F090003BE0FF5F
:10092F00123B7C9000537432F0020AB490003BE00B
:10093F00FFC394465003020AB4EFD394504003020E
:10094F000AB4E014F0E0B44A0C90004AE07006904C
:10095F00003BE014F090003BE0B4490C900049E0FC
:10096F00700690003BE014F090003BE0B4480C9010
:10097F000047E0700690003BE014F090003BE0C3AE
:10098F00944650037450F090003BE0FF123B7C9074
:10099F0000537432F0020AB490003BE0FFC3944658
:1009AF005003020AB4EFD394504003020AB4787193
:1009BF0076017D03121009020AB490003BE0FFC3D9
:1009CF0094465003020AB4EFD394504003020AB482
:1009DF00787176017D04121009020AB490003BE091
:1009EF00FFC3942E4006EFD39435400B123B337F59
:1009FF002E123B7C020AB490003BE024D2FF122C53
:100A0F00A08F26E526242EFF90003BF0123B7C02A0
:100A1F000AB47D037FA51239BA020AB412339E02BB
:100A2F000AB47D047FA61239BA807A7D037FA6129D
:100A3F0039BA80717F02123A54806A7F01123A5498
:100A4F00806312385A805E7F0B123B7C80577F0C7D
:100A5F00123B7C80507F0112318A8049E4FF1231B2
:100A6F008A8042123B84803D7F0512309380367F0F
:100A7F0009123093802F7F0A12309380287F0B1238
:100A8F00309380217F07123093801A7F01123093A9
:100A9F0080137F02123093800C7F031230938005F6
:100AAF00E4FF123093301C23C21C90003BE0FFC3C5
:100ABF0094384012EFD3943A500C3012047D0480D6
:0C0ACF00027D030210097F38123B7C22DC
:10392900B2063006047F0480027F03AD077F0A12C6
:0E39390010092006057F38123B7C123B33221A
:1039D400B21530150A7F24123B7CE4FF02390BE454
:0A39E400FF123B7C7FFF12390B221B
:10339E0090004CE0FF64046005EF64057037900008
:1033AE0029E05403F527B402137D017FA51239BA23
:1033BE00900029E054FCF04401F080117D027FA5BD
:1033CE001239BA900029E054FCF04402F090002922
:0633DE00E0FF12358B2216
:013B8400221E
:102ABB007869E6FF7008C2A0D2A1D2A28012EFB44F
:102ACB000108D2A0C2A1D2A28006D2A0D2A1C2A2DA
:102ADB00E4FE2082010E208303430602208403437D
:102AEB000604208503430608EE602EEFC454F02E37
:102AFB00FE786FE6B50616900094E004F0D39408C8
:102B0B004029201402D207E4900094F022C214E46E
:102B1B00900094F0786FA60622786906E6D39402AB
:0C2B2B004002E4F6C214E4900094F02292
:102C2B0020101830871030860D786806E6D3940391
:102C3B004004E4F6D210C20AC20B22A287308601EE
:102C4B00B3503A301025A2869212A212301601B35D
:102C5B0050057866E67002D21CA212921678667640
:102C6B0003E47868F6C210C20B800F300B0A78664B
:102C7B007603E47868F6C210D20BC20A22208714BE
:102C8B00208611300A0A78667603E47868F6C2105B
:052C9B00D20AC20B2269
:10318A008F277F2B12380A8F2890003BE064037048
:10319A003D1237DF8F29E527600EE52970047F018C
:1031AA0080027F008F298018E529C3940250057593
:1031BA002902800C0529E529D394054003752902C3
:1031CA00E529903B0293F528FD7F2B1239BAAF28E7
:0331DA00022A3A8C
:10145E004B434D2D4E4F00202D4F46462D0020481C
:10146E00454C4C4F004D5554452020004D5554458C
:10147E002D2D00564F4C20202000564F4C20004E54
:10148E004F49534520004652535020004345535078
:10149E002000535753502000535253502000424BBC
:1014AE00535020004C504620004C49505300465299
:1014BE00444C20004345444C20005357444C2000DC
:1014CE00424B444C20004D50330020200020202061
:1014DE002020200050434D00322F34004E49472D1E
:1014EE004F4E004E49472D4F46004657444F4E45EE
:1014FE0000465720457272004657202D00464C5428
:10150E00744345547453575474465254745352543E
:10151E007442525474424C5474534C547400464C9E
:10152E005472434554725357547246525472535226
:10153E00547242525472424C5472534C5472004183
:10154E0055582D494E4F5054494341434F412D4418
:10155E0031434F412D4432202D53442D20202D5503
:10156E0053422D202D50432D202045384348202D09
:10157E0042542D202048444D492D3148444D492D8B
:10158E003248444D492D3348444D492D41003332A4
:10159E004B34384B35364B36344B38304B39364B63
:1015AE003131323132383136303139323232343201
:1015BE0035363332303338340020204849464920FE
:1015CE00322B3143484D4F4445202000322F3031CD
:1015DE002F30322F30332F30322F31332F31322FF5
:1015EE0032332F32332F33332F34322F33322F34D3
:1015FE000053442D494E2055442D494E2053442D21
:10160E004F555455442D4F555450432D4F5554421C
:0C161E00542D4F555448442D4F55540096
:103AE700E4FDFF1235FCE4FF123982E4900030F068
:013AF70022AC
:1024BA008F24300F05C20F12000EE5245402D39464
:1024CA0000500302257A900030E0601514F070077E
:1024DA007F01123664800A900030E05401FF123600
:1024EA0064900057E0D39400400302257A30060B2B
:1024FA00900053E070057F0A123B7C20015890003F
:10250A0053E0605214F07024201506FF123B7C80C1
:10251A004590003BE024DCFF122CA08F25E5252402
:10252A0024FF123B7CAF2512390B802A30002790FA
:10253A000053E0FF75F00584E5F0701AEF75F005B9
:10254A0084F52590003BE0FFE52530E0047D02801C
:10255A00027D0112100920011720061420151130DE
:10256A00050E90004DE0540FC394004003122FD57E
:01257A00223E
:053B7C00E4FD02100948
:093B4C009000537414F0C2002231
:083B660090003BEFF0023B4C24
:0F3B0800C205C2A51239EE900073E0540FF022EF
:101009008F308D31E5317003123B4C123B08E530CE
:10101900120D0D10BC0010DB0110ED02113106118B
:101029003D0710E10811020911600A11430B11492A
:101039000C114F0E114F0F114F10114F11114F126B
:10104900114F13114F14115A15120924120925129F
:10105900092612092712092812092912092A12092F
:101069002B12122E12122F121230121231121232A8
:1010790012123312123412123511BC38121E3912DF
:101089001E3A121E3B121E3C121E3D121E3E121E1D
:101099003F12364612364712364812364912364A38
:1010A900122A4B122A4C122A4D122A4E122A4F008A
:1010B900001240200C05121D4480097BFF7A147927
:1010C9005E1236C7E490003BF0900053F0D205025F
:1010D9001240121D440212407BFF7A1479651236C0
:1010E900C70212407BFF7A14796C1236C712000EC0
:1010F900900053740AF0021240E531B4041D9000C7
:10110900537414F0900056E004F0D394024002E4C2
:10111900F0900056E0FD7F401239BA900056E0FD8C
:101129007F011235FC0212409000537432F0123BD9
:10113900860212401226290212401234DB021240A2
:101149001233E4021240E53024F2FF123A3C021253
:10115900401230E3021240E5316003B40408900004
:10116900537450F0D200E531C394024005E531B41F
:10117900040B7BFF7A1479731236C7800EE531B4FC
:1011890002097BFF7A14797A1236C7E531B4040A69
:101199007D037F081239BA021240E5316403600306
:1011A9000212409000537414F07D027F081239BA7C
:1011B900021240E531C39403401590003BE0B43876
:0311C9000EE531FF
:1011CC00B404047F0180027F001238C7E531B402F9
:1011DC000B7BFF7A1479811236C780587BFF7A1407
:1011EC0079881236C790002BE0FD7F041238E9E5B0
:1011FC003170419000537450F0D2008037AD31AF54
:10120C0030122E4D802E123B33AD31AF3012280AE6
:10121C008022123B33AD31AF301228A28016123B24
:10122C0033AD31AF30121967800A123B33AD31AF99
:0B123C003012208190003BE530F022D2
:1033E4007F0912380A8F3230151390003BE0B40C79
:1033F4000C0532E532D394074003E4F532AD327F55
:10340400091239BA7BFF7A14798D1236C7E5322452
:1034140031FD7F05120D8F301509E4900031F0FF66
:0434240012390B222C
:102CA000EFB407005067902CADF8282873022CC2AF
:102CB000022CD7022CE3022CE6022CFB022D070289
:102CC0002D0A900047E060037F0122900048E060F9
:102CD000037F02227F0322900048E060037F0222EC
:102CE0007F03227F0322900049E060037F0422904B
:102CF000004AE060037F05227F002290004AE060E6
:102D0000037F05227F00227F06227F07227F002289
:102E4D008F328D33E533C39403401E90003BE0B5C4
:102E5D00321724DCFFE533B404047D0180027D00CC
:102E6D001230309000537450F074DC2532F5327509
:102E7D00F004A4240BF9741535F0FA7BFF1236C754
:102E8D00E533B4020E7D207F04120D8F7D207F056A
:102E9D00020D8F74812532F582E43400F583E0FF55
:062EAD00123787D200225B
:10280A008F328D33E533C39403401E90003BE0B50D
:10281A00321724D2FFE533B404047D0180027D001F
:10282A001230309000537450F074D22532F532755C
:10283A00F004A4242CF9741535F0FA7BFF1236C77C
:10284A00E533B4020E7D207F04120D8F7D207F05B3
:10285A00020D8F74812532F582E43400F583E0F5A8
:10286A0034C3940950147D2D7F04120D8FC374391B
:10287A009534FD7F05120D8F80117D207F04120D86
:10288A008FE5342427FD7F05120D8FE533700890FC
:08289A0000537450F0D200223B
:101967008F328D33900073E04450F0A3E0F0900085
:10197700537450F07D207F04120D8F7D207F051258
:101987000D8FE53224B46056147003021A1C1470CC
:1019970003021A53147003021A8A147003021AC13D
:1019A70024056003021ACA7BFF7A1479941236C79A
:1019B700E533C39403401B900046E004F0D3940141
:1019C7004002E4F0E4FD7F24122DE7AD077F2412E7
:1019D70039BAE4FF123464AD077F05020D8F7BFF30
:1019E7007A14799A1236C7E533C39403401B9000E3
:1019F70047E004F0D394024002E4F0E4FD7F2412B0
:101A07002DE7AD077F241239BA7F01123464AD0781
:101A17007F05020D8F7BFF7A1479A01236C7E53355
:101A2700C39403401B900048E004F0D394014002A4
:101A3700E4F0E4FD7F24122DE7AD077F241239BAC5
:101A47007F02123464AD077F05020D8F7BFF7A1486
:101A570079A61236C7E533C39403401B900049E0CB
:101A670004F0D394024002E4F0E4FD7F24122DE752
:101A7700AD077F241239BA7F03123464AD077F059F
:101A8700020D8F7BFF7A1479AC1236C7E533C39406
:101A970003401B90004AE004F0D394024002E4F0B4
:101AA700E4FD7F24122DE7AD077F241239BA7F04A6
:101AB700123464AD077F05020D8F7BFF7A1479B26C
:041AC7001236C722EA
:102081008F328D33E53224B9603A14605A14607A84
:1020910014700302212E2404600302214F90007367
:1020A100E04440F0A3E0F07BFF7A1479B71236C721
:1020B100E533C39403500302214FAD33E4FF122DE6
:1020C1007D02214F7BFF7A1479BC1236C7900073D1
:1020D100E04450F0A3E0F0E533C394034070AD3326
:1020E1007F01122D7D80677BFF7A1479C21236C77A
:1020F100900073E04450F0A3E0F0E533C394034053
:102101004DAD337F02122D7D80447BFF7A1479C857
:102111001236C7900073E04450F0A3E0F0E533C3FA
:102121009403402AAD337F03122D7D80217BFF7AFA
:102131001479CE1236C7900073E04450F0A3E0F05A
:10214100E533C394034007AD337F04122D7D900026
:10215100537432F074F82532F582E434FFF583E0EC
:0A21610075F005A4FD7F040238E9C3
:101D4400900073E054BFF0A3E054DFF090004CE047
:101D5400FFC394045003021E49EFD39408400302C6
:101D64001E49900074E04420F0EF64046008EF64BE
:101D7400056003021E49900054E0FEA3E0FFD394E3
:101D840000EE94005003021E49EF9403EE940050B9
:101D9400030230E3C3900055E09405900054E094AE
:101DA400005064900089E0FF131313541FF537901B
:101DB400004DE0540F640A704E9000537414F0E523
:101DC40037D394004041E5379410503B7542007579
:101DD40043007544387BFF7A1479D47F0312369616
:101DE400E53775F003A42499F9741535F0FA7BFFEF
:101DF40075420075430075443B7F031236967B00A1
:101E04007A0079380236C77BFF7A1479D81236C73C
:101E1400900054E0FEA3E0FF7C007D3C120C6DAD0D
:101E2400077F021238E9900054E0FEA3E0FF7C0033
:101E34007D3C120C6D7F041238E9900073E044403D
:101E4400F0A3E0F02290004CE075F006A4244DF9D4
:0B1E5400741535F0FA7BFF1236C72230
:1030E3007FA4123428EF2401F540E43EF53F90001D
:1030F30073E054BFF07BFF7A1479DB1236C7AD401F
:10310300AC3FE4FF1227718F3E053E7D2F120D8FDA
:1031130090004CE0B4040D90002EE0FEA3E0FFAC61
:1031230006FD800B900050E0FEA3E0FFAC06FDAF70
:043133003E022771C0
:103A54008F27E4900054F0A3F0900089F0121D44E5
:073A6400AD277FA60239BA6D
:013B8500221D
:013B8600221C
:1037DF00AE07EE543024F0601224F06011242070F4
:1037EF0017EE30E0037F01227F00227F0222EE30AE
:0B37FF00E0037F04227F03227F0522ED
:102A3A008F301237DF8F31123B08900074E0542C2C
:102A4A00F0E531C39402501CE53175F006A424C7A1
:102A5A00F9741535F0FA7BFF1236C7900074E0441A
:102A6A0001F080457BFF7A1579D31236C7E5312408
:102A7A002FFD7F05120D8FE53024FD6013146019B8
:102A8A0014601F24037022900074E04402F080193D
:102A9A00900074E04480F08010900074E04440F0AC
:102AAA008007900074E04410F0123B4C7F03023B15
:012ABA0066B5
:1026290090004DE0FF540FC3940250030226CCE4FE
:10263900F536EFC4540F75F003A4F5327BFF7A1415
:1026490079DB1236C7122D1090004DE0540F24FD8E
:10265900602414604314604024FE605E24F7601611
:1026690014601324FD24FD502F241570597BFF7A23
:102679001479E20236C774DA2532F9E43415FA7BA3
:10268900FF7542007543007544337F031236967B0C
:10269900007A0079330236C774DA2532F9E4341541
:1026A900FA7BFF7542007543007544337F03123688
:1026B900967B007A0079330236C77BFF7A1479E674
:0726C9000236C7121D442276
:10346400AE07EE700C900046E060037F4C227F5361
:1034740022BE020C900048E060037F59227F4E2256
:1034840074462EF582E43400F583E0FDB402037F34
:0C3494004C22EDB401037F53227F4E2236
:1034DB007F2312380A8F3290003BE0B40B16E53293
:1034EB00C3943250057532328003E4F532AD327F2E
:1034FB00231239BAE53260097BFF7A1479EA023676
:0B350B00C77BFF7A1479F11236C7224B
:103A3C009000537432F0EF75F006A424FFF974155E
:083A4C0035F0FA7BFF0236C7DA
:102D7D00EF70047C0180027C00EC14601114601271
:102D8D00146013146014240470127E13800E7E09D7
:102D9D00800A7E0980067E0980027E09BD042474A6
:102DAD003E2FF582E43400F583E0D39E4002EEF031
:102DBD00743E2FF582E43400F583E0C39E501AE093
:102DCD0004F022BD0313743E2FF582E43400F58325
:0A2DDD00E0D394004003E014F0225C
:1031DD007B007A0079277535007536027F811237AD
:1031ED00B4E527B4640B7BFF7A1479F81236C780E7
:1031FD0020E527B4680B7BFF7A1479FF1236C78060
:10320D00107BFF7A1579061236C7AD277F04123869
:0D321D00E97F0D123B66900053743CF022D7
:103787008F35E535C3940950127D2D7F04120D8FB7
:10379700C374399535FD7F05020D8F7D207F041297
:0D37A7000D8FE5352427FD7F05120D8F22C3
:10396500EF600C120BD1C39D50127401020C17129B
:0D3975000BD1D39400400574FF120C1722F3
:102F19004252494748000002070000243F000600CA
:102F2900DB00CF00E600ED00FD000700FF00EF0029
:102F3900F7128F0039120F00F900F100BD00F612E7
:102F490009001E0C70003805360936003F00F308E9
:102F59003F08F300ED1201003E243028362D000011
:102F6900EE240900C0240012C00010181C1C1E1EEB
:012F79001F38
:10330D00C2A5C2937F01123B557F40123A817F01C6
:10331D00123B55D2937F01123B55C2937F01123B55
:10332D00557FC0123A817F01123B55E4F524E4FF2D
:10333D00123A817F01123B550524E524C3941040B8
:09334D00ED7F0A123B55D29322D8
:1035FC008D32EFD3940040137BFF7A2F791912365A
:10360C00C7E5322431FD7F05120D8FC2937F011265
:10361C003B55E532902F1F934488FF123A817F016E
:06362C00123B55D293226F
:013B8700221B
:102D1000900073E054F8F0A3E054FBF090004DE015
:102D2000540F24FD603514603B14603824FE60406D
:102D300024F7602714602424FD24FD5027241570F7
:102D40003990008CE0FF64536030EF6456602B9044
:102D50000073E04404F0A3E0F0801F900074E044AE
:102D600004F08016900073E04401F0A3E0F0800AC4
:0D2D7000900073E04404F0A3E0F0D20F22C5
:10358B00EF5403FE900076E054F0F0BE0106E044E9
:10359B0008F0800ABF0207900076E04404F0EF5475
:1035AB00C0FE6013BEC009900076E04401F08007B6
:0A35BB00900076E04402F0D20F22E7
:103664008F30E530B4FF117F1F12380AEF30E704C2
:103674007F0180027F008F30E530600C900073E0A2
:103684004408F0A3E0F08007900073E054F7F0D210
:023694000F2203
:1036C7008B418A428943E4F545AB410543E543AA6B
:1036D700427002054214F9120BD1F5446012AD4451
:1036E700AF45120D8F0545C3E5456480948640D9E3
:0136F70022B0
:102771008F418C428D43AE42AF437C277D10120CBA
:102781006DEF4E6012120D87AE42AF437C277D1074
:10279100120C6D8C428D43AE42AF437C037DE81237
:1027A1000C6DEF4E6012120D87AE42AF437C037D7C
:1027B100E8120C6D8C428D43AE42AF437C007D64C8
:1027C100120C6DEF4E6012120D87AE42AF437C00CA
:1027D1007D64120C6D8C428D43AE42AF437C007D13
:1027E1000A120C6DEF4E6012120D87AE42AF437CA0
:1027F100007D0A120C6D8C428D43AF410541E543CA
:092801002430FD120D8FAF4122BD
:1038E9008F3E8D3FE53F75F00A842430FD120D8F20
:1038F900E53E04FFE53F75F00A84E5F02430FD025A
:023909000D8F20
:080D8700EF2430FDAF410541EE
:100D8F008F468D47E546C394034003020E5AE5474D
:100D9F00C394304012E547D39439500B74D0254794
:100DAF00F54704F548804CE547C39461400FE5478C
:100DBF00D3947A5008E54724AAF5488036E547C30F
:100DCF009441400FE547D3945A5008E54724CAF59C
:100DDF00488020E54724D5601224FC600924027066
:100DEF000F754825800D75482680087548278003A4
:100DFF00E4F548E54825E02422F582E4342FF58315
:100E0F00E493FEE54625E02467F582E43400F5839C
:100E1F00EEF0A3E4F0E54625E02467F582E4340024
:100E2F00F583C083C082E0FEA3E0FFE54825E02400
:100E3F0023F582E4342FF583E493FDEEEF4DFFD0DD
:100E4F0082D083EEF0A3EFF0021006E546C39406BE
:100E5F004003020F90E547C394304066E547D394B3
:100E6F0039505F74D02547F54704F54825E0242213
:100E7F00F582E4342FF583E493FEE54625E02467FD
:100E8F00F582E43400F583EEF0A3E4F0E54625E0C7
:100E9F002467F582E43400F583C083C082E0FEA3AB
:100EAF00E0FFE54825E02423F582E4342FF583E4C1
:100EBF0093FDEEEF4DFFD082D083EEF0A3EFF00263
:100ECF001006E547120D0D0F192D0F1E410F23426E
:100EDF000F28430F2D440F32450F37460F3C470F56
:100EEF0046480F41490F4B4C0F504E0F554F0F5A5D
:100EFF00500F5F520F64530F69540F6E550F735994
:100F0F000F5F720F697400000F787547C0805D75B1
:100F1F0047F7805875477C8053754739804E754722
:100F2F00DE80497547F980447547F1803F7547EF7B
:100F3F00803A75470680357547F68030754738809B
:100F4F002B754737802675473F80217547F3801CE7
:100F5F0075475080177547ED80127547F8800D75EE
:100F6F00473E800875476E8003E4F547E54625E068
:100F7F002467F582E43400F583E4F0A3E547F080BD
:100F8F0076E546D39406401AE546940D5014E5478E
:100F9F00C39401400DE547D394055006E547242639
:100FAF00F548E54825E02422F582E4342FF583E463
:100FBF0093FEE54625E02467F582E43400F583EEE1
:100FCF00F0A3E4F0E54625E02467F582E43400F56C
:100FDF0083C083C082E0FEA3E0FFE54825E0242321
:100FEF00F582E4342FF583E493FDEEEF4DFFD082CD
:0A0FFF00D083EEF0A3EFF0D20F2232
:1039EE00E4FFEF25E02477F582E43400F583E4F07C
:0A39FE00A3F00FEFC3940540E92287
:063B1700131313541FFFFD
:093B1D00EF5407902F7293FF2270
:102FD5007B007A0079277535007536037F911237A6
:102FE500B4300C030239EEAF27123B1D900077E495
:102FF500F0A3EFF0E527123B17900079E4F0A3EF7B
:10300500F0AF28123B1D90007BE4F0A3EFF0E5281C
:10301500123B1790007DE4F0A3EFF0AF29123B1DA2
:0B30250090007FE4F0A3EFF0D20F2238
:103AC100E4FFE4900077F0A3F00FEFC3940540F218
:033AD100D20F22EF
:10398200E4FEEFFDEE25E02467F582E43400F583E2
:0D399200E4F0A3EDF00EEEC3940D40E6222C
:10000E00E4FF74062FF582E43400F583E4F00FEF7D
:10001E00C3941040ED900067E0FEA3E0FF30E007D0
:10002E00900014E04408F0EF30E10790000DE0443A
:10003E0008F0EF30E207900006E04408F090006808
:10004E00E030E307900009E04408F0900067E0FE1E
:10005E00A3E0FF30E407900011E04408F0EF30E534
:10006E0007900015E04408F0EF30E60790000FE02F
:10007E004408F0900068E030E70790000CE0440878
:10008E00F0900067E0FEA3E0FFEE30E00790001373
:10009E00E04408F0EE30E107900012E04408F0EE84
:1000AE0030E20790000BE04408F0900067E0A330C8
:1000BE00E307900007E04408F0900067E0FEA3E03D
:1000CE00FFEE30E407900008E04408F0EE30E5075C
:1000DE0090000EE04408F0900069E0FEA3E0FF30CF
:1000EE00E007900014E04420F0EF30E10790000D9F
:1000FE00E04420F0EF30E207900006E04420F0905C
:10010E00006AE030E307900009E04420F0900069B7
:10011E00E0FEA3E0FF30E407900011E04420F0EF92
:10012E0030E507900015E04420F0EF30E607900030
:10013E000FE04420F090006AE030E70790000CE0FA
:10014E004420F0900069E0FEA3E0FFEE30E007905F
:10015E000013E04420F0EE30E107900012E044205E
:10016E00F0EE30E20790000BE04420F0900069E0E2
:10017E00A330E307900007E04420F0900069E0FE12
:10018E00A3E0FFEE30E407900008E04420F0EE30EC
:10019E00E50790000EE04420F090006BE0FEA3E037
:1001AE00FF30E007900014E04410F0EF30E10790CC
:1001BE00000DE04410F0EF30E207900006E044102E
:1001CE00F090006CE030E307900009E04410F090EE
:1001DE00006BE0FEA3E0FF30E407900011E0441056
:1001EE00F0EF30E507900015E04410F0EF30E60731
:1001FE0090000FE04410F090006CE030E7079000A4
:10020E000CE04410F090006BE0FEA3E0FFEE30E057
:10021E0007900013E04410F0EE30E107900012E07A
:10022E004410F0EE30E20790000BE04410F0900026
:10023E006BE0A330E307900007E04410F090006BF2
:10024E00E0FEA3E0FFEE30E407900008E04410F07B
:10025E00EE30E50790000EE04410F090006DE0FEE9
:10026E00A3E0FF30E007900014E04404F0EF30E12B
:10027E000790000DE04404F0EF30E207900006E036
:10028E004404F090006EE030E307900009E044046F
:10029E00F090006DE0FEA3E0FF30E407900011E067
:1002AE004404F0EF30E507900015E04404F0EF3021
:1002BE00E60790000FE04404F090006FE0FEA3E02C
:1002CE00FF30E007900014E04480F0EF30E107903B
:1002DE00000DE04480F0EF30E207900006E044802D
:1002EE00F0900070E030E307900009E04480F09059
:1002FE00006FE0FEA3E0FF30E407900011E04480C1
:10030E00F0EF30E507900015E04480F0EF30E6079F
:10031E0090000FE04480F0900071E0FEA3E0FF300B
:10032E00E007900014E04402F0EF30E10790000D7A
:10033E00E04402F0EF30E207900006E04402F09055
:10034E000072E030E307900009E04402F090007183
:10035E00E0FEA3E0FF30E407900011E04402F0EF6E
:10036E0030E507900015E04402F0EF30E60790000C
:10037E000FE04402F0900073E0FEA3E0FF30E007D0
:10038E00900014E04401F0EF30E10790000DE044DE
:10039E0001F0EF30E207900006E04401F0900074A7
:1003AE00E030E307900009E04401F0900073E0FEB6
:1003BE00A3E0FF30E407900011E04401F0EF30E5D8
:1003CE0007900015E04401F0EF30E60790000FE0D3
:1003DE004401F0900074E030E70790000CE0440117
:0403EE00F090007318
:1003F200E0FEA3E0FFEE30E007900013E04401F0DE
:10040200EE30E107900012E04401F0EE30E2079096
:10041200000BE04401F0900073E0A330E30790008A
:1004220007E04401F0900073E0FEA3E0FFEE30E449
:1004320007900010E04420F0EE30E507900010E055
:100442004410F0EE30E607900010E04404F0900013
:1004520075E0FEA3E0FF30E00790000BE04404F0FB
:10046200EF30E107900012E04404F0EF30E2079031
:100472000013E04404F0900076E030E30790000CB3
:10048200E04404F0900077E0FEA3E0FF30E0079044
:100492000007E04480F0EF30E10790000BE0448079
:1004A200F0EF30E207900012E04480F0900078E034
:1004B20030E307900013E04480F0900078E030E4ED
:1004C2000790000CE04480F0900079E0FEA3E0FF8A
:1004D20030E00790000BE04402F0EF30E1079000BB
:1004E20012E04402F0EF30E207900013E04402F021
:1004F20090007AE030E30790000CE04402F09000B4
:100502007BE0FEA3E0FF30E007900011E04440F002
:10051200EF30E107900009E04440F0EF30E207904D
:100522000006E04440F090007CE030E30790000DCC
:10053200E04440F090007CE030E407900014E04496
:1005420040F090007DE0FEA3E0FF30E00790001352
:10055200E04440F0EF30E10790000CE04440F0EF5F
:1005620030E20790000FE04440F090007EE030E37C
:1005720007900015E04440F090007FE0FEA3E0FF0A
:1005820030E00790000EE04440F0EF30E1079000C9
:1005920008E04440F0EF30E207900007E04440F00A
:1005A200900080E030E30790000BE04440F09000C0
:1005B20080E030E407900012E04440F0C2937F01F3
:1005C200123B557F40123A817F01123B55D2937FF5
:1005D20001123B55C2937F01123B557FC0123A81F3
:1005E200E4F53274062532F582E43400F583E0FF47
:0F05F200123A810532E532C3941040E7D29322CA
:103A81007E08C290EF139291EFC313FFD2901EEE06
:063A9100D3940050ED2269
:102EB3000305C2689F062431527500080582030684
:102EC300000F828C050F008C020A8588000583841D
:102ED3000B0D0020464C415420204551202020005A
:102EE3000999999F004D4943314D49433245434820
:102EF3004F5245505444454C594D4241534D545201
:102F0300450009070707050505050303060408042B
:062F130009040A030B0291
:10224E00E4F52F78317C007D007BFF7A2E79B37E0A
:10225E00007F05120BABE52F04F5307B007A007979
:10226E00307541007542067F8B1234A0752E01E445
:10227E00FFE52F75F006A424BEF582E4342EF58317
:10228E00E5822FF582E43583F583E493FEE52F7521
:10229E00F006A424BFF582E4342EF583E5822FF5F3
:1022AE0082E43583F583E493FDEF902EB893547F4B
:1022BE00FCEE54804CFC7430252EF8A604EFA3934C
:1022CE00547FFCED54804CFC7431252EF8A604EDA1
:1022DE00540FFCC454F0FCEE540F4CFC7432252EFB
:1022EE00F8A6047403252EF52E0F0FEFC3940640A7
:1022FE0080E52F04F5307B007A007930754100853A
:10230E002E427F8C1234A0052FE52FC39403500369
:04231E000222512224
:10385A007F2C12380A8F2790003BE0B40513052706
:10386A00E527D394034003E4F527AD277F2C1239CB
:06387A00BAAF270236F888
:1036F8008F30123B08E53060067E007F0680047E2E
:10370800007F0074D62FF9742E3EFA7BFF1236C75D
:10371800E53060082430FD7F04120D8F7F05023BE1
:01372800663A
:10232200900065E0D3941240037409F0900066E0D7
:10233200D3941240037409F07F3912380A8F2EE5C4
:102342002ED394004003D38001C3920EE52EC454D1
:102352000F90005FF0E52E540FA3F090005FE0D3E2
:10236200940940037402F0900060E0D394094003A2
:102372007402F01233567F3A12380A8F2EE52E5429
:102382000F900061F0D3940940037402F07F3B1276
:10239200380A8F2EE52EC4540F900063F0D39409AF
:1023A20040037402F0E52E540F900062F0D39409BA
:1023B20040037402F07BFF7A2E79E3754100754287
:1023C200057F8D1234A0752F0478307C007D007B50
:1023D200FF7A2E79B37E007F05120BAB7B007A0069
:1023E200792F7541007542067F8B1234A002322A82
:1038800090003BE0C3943950057F39023B7C9000A7
:103890003BE004F0D3943F40037439F090003BE0E8
:0538A000FF123B7C2239
:103A080090003BE0FFC39439400FEFD3943F500937
:0A3A1800787176017D041210092276
:103A220090003BE0FFC39439400FEFD3943F50091D
:0A3A3200787176017D03121009225D
:1028A2008F328D33E533C39403401D90003BE0B576
:1028B2003216E533B404047D0180027D00AF32128A
:1028C20026D09000537450F0E53224C7F53475F0E9
:1028D20004A424E8F9742E35F0FA7BFF1236C77D82
:1028E200207F04120D8FE533B402077D207F05029D
:1028F2000D8FE532C3943E5016745F2534F582E4A1
:102902003400F583E02430FD7F05120D8F801074B2
:10291200272532F582E43400F583E0FF123787E59C
:0C2922003370089000537450F0D2002273
:10375800AB07EBC394095015430580EBFFC374090D
:103768009FFFE49400EFFEE4EE4204800DEB24F7A3
:0F377800FFE434FFEFFEE4EE4204AE04AF05229F
:1026D0008F358D36123B76E535C3943E50647426B3
:1026E0002535F9E43400FA7B017D09AF36123965EE
:1026F000E53524C6600D14601F14603214602F2469
:1027000004706D90005FE0FFC454F0FFA3E04FFD44
:102710007F391239BA023356900061E0FF902F05DD
:1027200093FEC454F0FEEF4EFD7F3A0239BA90009A
:1027300063E0FFC454F0FF900062E04FFD7F3B0276
:1027400039BA74272535F9E43400FA7B017D12AFDC
:102750003612396512322AE535B43E0A900065E03A
:10276000FD7F420239BA900066E0FD7F431239BA1C
:012770002246
:10322A00900065E0FF7D237C001237588E3B8F3C6F
:10323A00A3E0FF7D677C00123758753704E53CF53B
:10324A0038AD07EDF539EEC4F854F0C868EFC45448
:10325A000F4854F0FDE53B540F4DF53A7B007A00D8
:0D326A0079377541007542047F8C0234A055
:1033560090005FE0C39405500EA3E0C394055007A8
:103366007D447F380239BA900060E0FF90005FE04C
:10337600FED39F4004AF0680008F37E53724FB2538
:10338600E0F537902F0F93FFC454F0FFE537A39372
:083396004FFD7F381239BA2205
:10394700AE0753050FEDC3940A5006ED2430FFFD73
:0E39570022EE6005ED2457FF22ED2437FF22FB
:101ACB008F5B8D5C8B5DE55C701FE55D701BAB5EAA
:101ADB00AA5FA9607430120C39AB5EAA5FA9609043
:101AEB000001E4120C4B7F0122E4F561FCE55B6421
:101AFB00646009E55B64756003021BA7E55D75F027
:101B0B006484F562601AFDE4FF123947AB5EAA5F8D
:101B1B00A960AE040C8E82758300EF120C4B8018FB
:101B2B00E55CB40313AB5EAA5FA960AF040C8F82B4
:101B3B007583007430120C4BE55D75F0648485F091
:101B4B0062E56275F00A84FD6019E4FF123947AB58
:101B5B005EAA5FA960AE040C8E82758300EF120C37
:101B6B004B8018E55CB40213AB5EAA5FA960AF04AF
:101B7B000C8F827583007430120C4BE56275F00A82
:101B8B0084ADF0E4FF123947AB5EAA5FA960AE04E7
:101B9B000C8E82758300EF120C4B806CE55D54F05C
:101BAB006028E55BB458047F0180027F00E55DC4CB
:101BBB00540FFD123947AB5EAA5FA960AE040C8EC1
:101BCB0082758300EF120C4B801CC3E55C64809420
:101BDB00824013AB5EAA5FA960AF040C8F82758342
:101BEB00007430120C4BE55BB458047F0180027F0C
:101BFB0000AD5D123947AB5EAA5FA960AE040C8ED7
:101C0B0082758300EF120C4BAB5EAA5FA9608C82CE
:0A1C1B00758300E4120C4BAF0422A5
:101247008B498A4A894BE4F552F553AB4CAA4DA911
:101257004EAF52EF3395E08F82F583120BEAFE64AF
:10126700256041D3E5536480949E4003AF5322EE3B
:101277007003AF5322AB4CAA4DA94EAF520552EFA4
:101287003395E08F82F583120BEAFFAB49AA4AA98F
:101297004BAE530553EEFD3395E08D82F583EF1288
:1012A7000C4B80A7AF52EF3395E08F82F583A3AB4A
:1012B7004CAA4DA94E120BEAF5586473706BAB4FED
:1012C700E551F92403F551E550FA3400F550120CB5
:1012D700ED8B558A56895705520552E4F554AB559F
:1012E700AA56A957AF54EF3395E08F82F583120BB7
:1012F700EA7003021252C3E5536480949E400302CE
:1013070012520554EF3395E08F82F583120BEAFFF3
:10131700AB49AA4AA94BAE530553EEFD3395E08D71
:1013270082F583EF120C4B80B5E558B4251E0552A4
:101337000552AB49AA4AA94BAF530553EF3395E082
:101347008F82F5837425120C4B021252E558B46351
:101357003205520552AB4FE551F92402F551E550DC
:10136700FA3400F550120CC2FFAB49AA4AA94BAE9A
:10137700530553EEFD3395E08D82F583EF120C4B49
:10138700021252E4F559F554AF52EF3395E0FEEFF0
:101397002401FFE43EFEAD54ED3395E0FCED2FF55F
:1013A70082EC3EF583AB4CAA4DA94E120BEAF558D9
:1013B700C3648094B0401ED3E558648094B9501537
:1013C700E55824D0FFE55975F00AA42FF5590554BF
:1013D700E554B403B3AF52EF3395E0FEEF2401FFBA
:1013E700E43EFEAD54ED3395E0FCEF2DFFEE3CFE01
:1013F700AB4CE54E2FF9E54D3EFA8B55F55689571F
:10140700E55224022554F552120BD1FF249C600F9C
:1014170024EF600B24FD600724206003021252AB07
:101427004F0551E551AA507002055014F9120BD11E
:10143700F55AE553FD3395E0FCE54B2DF9E54A3CBC
:0514470085495EF55F20
:10144C008960AB5AAD59121ACBEF2553F5530212E2
:02145C0052221A
:103AAD00E5151515700215141445146006ED120C6C
:043ABD003980ED223D
:103A9700E50F150F7002150E14450E6008120BD1B5
:063AA700120C3980EB2235
:083B6E00C2998F993099FD22E4
:102BB2008B348A3589367546007547007548378BE0
:102BC2004C8A4D894E85464F8547508548517B0139
:102BD2007A007995121247AE070EEFFD3395E0FCAD
:102BE20074952DF58274003CF583740DF0AF060EDA
:102BF200EFFD3395E0FC74952DF58274003CF5836E
:102C0200740AF0E4FDC3EE6480F8ED648098501815
:102C1200EDFB3395E0FA74952BF58274003AF58357
:092C2200E0FF123B6E0D80DD2283
:10351600123AD412330D123AE7123B83123B82124F
:103526003B5E786EE6FF5401D3940040F5121E5FB1
:10353600786EE6FF120601786EE6FF1224BA786E00
:0B354600E6FF123632E4786EF680D704
:103AD400758921758851759850758DFF4387807558
:033AE400A8832292
:093B5500EFD394034002DFFE22CD
:03000B00021F7061
:101F7000C0E0C0F0C083C082C0D075D000C000C037
:101F800001C002C003C004C005C006C007758A6056
:101F9000758CFF786B06E675F00A84E5F060030245
:101FA0002029122C2B786BE675F06484E5F0703BE9
:101FB000F6786E7601786706E675F00A84E5F070CB
:101FC0002A786EE64402F67867E6FF75F03284E51B
:101FD000F07018786EE64404F6EF75F06484E5F06E
:101FE00070097867F6786EE64408F630053B900095
:101FF0002AE004F0D394134006E4F0D2A5802A909E
:102000000056E0FF700B90002AE0B40104C2A580E6
:1020100018EFB4010B90002AE0B40404C2A58009B3
:1020200090002AE0B40802C2A5786AE6603806E6A5
:10203000D3949F4031200824786CE6B4021E787156
:10204000E66019786DE6FFC39408500EEF5403FF65
:10205000BF0302D21A786D068002D21A786C76001D
:10206000C208786A7600D007D006D005D004D00325
:10207000D002D001D000D0D0D082D083D0F0D0E038
:01208000322D
:030003000229B619
:1029B600C0E0C0D075D000C000C006C007200865C2
:1029C600786C06E6FFB4020C786AE6D3949140551B
:1029D600D20880517865E6FEC313F6786AE6D3948A
:1029E6001040067865E64480F6EF640A6004EFB4AA
:1029F6001A077865E618F6802CEFB412127865E6A9
:102A0600B4BF0418E6601E78717600D2088016EF0F
:102A1600B42212D21A786D76007865E6F4186660EC
:102A260004C21AD208786A7601D007D006D000D040
:042A3600D0D0E032EA
:03000000023B4080
:0C3B4000787FE4F6D8FD7581710235161F
:100ADB00E709F608DFFA8046E709F208DFFA803EFD
:100AEB0088828C83E709F0A3DFFA8032E309F608EA
:100AFB00DFFA8078E309F208DFFA807088828C8352
:100B0B00E309F0A3DFFA806489828A83E0A3F60805
:100B1B00DFFA805889828A83E0A3F208DFFA804CDF
:100B2B0080D280FA80C680D4806980F280338010B6
:100B3B0080A680EA809A80A880DA80E280CA80331F
:100B4B0089828A83ECFAE493A3C8C582C8CCC58397
:100B5B00CCF0A3C8C582C8CCC583CCDFE9DEE78067
:100B6B000D89828A83E493A3F608DFF9ECFAA9F0E6
:100B7B00EDFB2289828A83ECFAE0A3C8C582C8CC3C
:100B8B00C583CCF0A3C8C582C8CCC583CCDFEADE55
:100B9B00E880DB89828A83E493A3F208DFF980CCB7
:100BAB0088F0EF60010E4E60C388F0ED2402B404B0
:100BBB000050B9F582EB2402B4040050AF23234557
:060BCB008223900B2B7346
:100BD100BB010689828A83E0225002E722BBFE0222
:090BE100E32289828A83E4932255
:100BEA00BB010CE58229F582E5833AF583E02250C0
:100BFA0006E92582F8E622BBFE06E92582F8E2220A
:0D0C0A00E58229F582E5833AF583E4932223
:100C1700BB010989828A83F8E028F022500327F76D
:100C270022BBFE05F8E328F3228A838982F8E4933E
:020C3700282271
:100C3900BB010689828A83F0225002F722BBFE019A
:020C4900F32294
:100C4B00F8BB010DE58229F582E5833AF583E8F0DF
:100C5B00225006E92582C8F622BBFE05E92582C88B
:020C6B00F22273
:100C6D00BC000BBE0029EF8DF084FFADF022E4CC6B
:100C7D00F875F008EF2FFFEE33FEEC33FCEE9DEC34
:100C8D00984005FCEE9DFE0FD5F0E9E4CEFD22ED7A
:100C9D00F8F5F0EE8420D21CFEADF075F008EF2FC4
:100CAD00FFED33FD4007985006D5F0F222C398FDB5
:050CBD000FD5F0EA2252
:100CC200BB010A89828A83E0F5F0A3E022500687FD
:100CD200F009E71922BBFE07E3F5F009E3192289BF
:0B0CE200828A83E493F5F074019322F2
:100CED00BB010789828A83020D695005E9F8020D5F
:100CFD0060BBFE05E9F8020D7289828A83020D7BC5
:100D0D00D083D082F8E4937012740193700DA3A375
:100D1D0093F8740193F5828883E473740293686089
:060D2D00EFA3A3A380DF89
:100D3300D083D082F8E4937012740193700DA3A34F
:100D430093F8740193F5828883E473740293B5F086
:0D0D5300067403936860E9A3A3A3A380D8EE
:090D6000E6FB08E6FA08E6F922B8
:090D6900E0FBA3E0FAA3E0F9228B
:090D7200E2FB08E2FA08E2F922B2
:0C0D7B00E493FB740193FA740293F922D4
:00000001FF
