:103915008F408D411239497FCC12359EAF4012350B
:0A3925009EAF4112359E1239E122D7
:1037DF008F2F8C308D311239497FCC12359EAF2F00
:1037EF0012359EAF3112359EE530FF12359E1239DC
:0237FF00E122C5
:10342F008F378C388D398B3A8A3B893C1239497FDB
:10343F00CC12359EAF3712359EAB3A053CE53CAA10
:10344F003B7002053B14F9121363FF12359EE539E9
:0F345F0015397002153814453870DE1239E12224
:1037B5008F3AE4F53B1239497FCC12359E200C1423
:1037C500AF3A12359E1239497FCD12359ED21C1261
:0A37D500364A8F3B1239E1AF3B2268
:1034EB008F2FE4F530F5311239497FCC12359E2000
:1034FB000C22AF2F12359E1239497FCD12359EC249
:10350B001C12364A7530008F31D21C12364AEFFE30
:0C351B00E4EE42301239E1AE30AF312254
:102F28008F378C388D398B3A8A3B893C1239497FE7
:102F3800CC12359EAF3712359E1239497FCD1235E6
:102F48009ED3E5399401E53894004008E5391539F0
:102F580070021538C21C12364AAB3A053CE53CAA49
:102F68003B7002053B14F9EF1213A9E539153970C6
:102F780002153814453870DCD21C12364AAB3AAA0E
:0B2F88003BA93CEF1213A91239E12213
:10359E008F42754308C296E54230E704D295800209
:1035AE00C295123A2EE54225E0F542D296123A2EF7
:1035BE00D543E2C296D295120006D296120006307C
:0A35CE009502D20CC29612000622EC
:10364A00D295120006753E08D296E53D25E0F53D75
:10365A00309503433D01123A2EC296123A2ED53EB8
:10366A00E7201C04C2958002D295120006D2961257
:07367A000006C296AF3D22DD
:10394900D295D296120006C20C209502D20CC295CD
:06395900120006C29622D6
:0D39E100C295120006D296120006D2952261
:050006007F0ADFFE226D
:013A2E002275
:101E9E004B434D5F504F5745525F4F4E0D0A004B0F
:101EAE00434D5F524541445F495251204572726F16
:101EBE00720D0A004B434D5F524541445F495251EA
:101ECE0020253032780D0A004B434D5F4952515F49
:101EDE00504C41595F53544154555320253032785C
:101EEE000D0A0053455420004D4B434D5F48646D21
:101EFE006952656D6F76653A25640D0A004B434D48
:101F0E005F5352435F56414C49443A253034782052
:101F1E004C6173743A253034780D0A004B434D5F93
:101F2E005352435F56414C4944203D204C617374DB
:101F3E003A253034780D0A0003C500080006230048
:101F4E0031520075000000802F80005C00000F8071
:101F5E00002C00805A8000080000588000320000DB
:101F6E00060080258000B400000D01050800640005
:101F7E005E01E803E40C10270010111230313233E9
:101F8E002021222400011011121300020301050763
:101F9E000604191817161514131211000102030462
:101FAE00050607080903040506080A0F193264001E
:091FBE00020406080A0C0D0E0FC6
:083A1A00E4900052F00238A113
:1038A1007D017F05123915E4FD7F02120E42900061
:0D38B100537464F07BFF7A1E799E02334F42
:101BD6008F24309403021D397F011237B58F25AD4E
:101BE600257F03123915300C097BFF7A1E79AD0269
:101BF600334FE525644060137BFF7A1E79C2E48586
:101C06002545F544F543F54212334FE5255401D3F6
:101C160094004003121824E5255402D39400404C46
:101C26007F061237B5900049EFF07F071237B5905F
:101C36000060EFF0900053E07009201406FD7F0766
:101C4600120E42900049E0700312399D122EBB120B
:101C56003139900048E0FF64046004EFB4050D7F5D
:101C6600991234EB900030EEF0A3EFF0E52554081E
:101C7600D3940040031221E8E5255404D394004090
:101C8600187F2F1237B590002FEFF0900037E0B491
:101C96003807E4FD7F38120E42E5255410D3940030
:101CA6004007E4FD7F0D120E42E5255440D3940013
:101CB60040287F121234EB900050EEF0A3EFF04E66
:101CC6006011900037E064016010E4FD7F17120E8A
:101CD600428007E4FD7F16120E42E5255420D39478
:101CE6000040247F0E1237B590002BEFF07BFF7A71
:101CF6001E79D6E48F45F544F543F54212334F90ED
:101D0600002BE0FF1235D8E4D39400E4940040158C
:101D16007FA01234EB8E278F28E527FD1233EA9039
:101D260000347407F0E4D39400E4940040057FFF88
:041D3600123721221D
:101824007F201237B58F2B300C06E4FDFF020E42E9
:101834007F811237B5900085EFF0AD2B7F20122306
:10184400DC900048EFF07F2F1237B590002FEFF0B7
:101854007F2C1237B5900028EFF0E4F529AD297FED
:10186400091223DC8F2CE52C2430FF1237B58F2B83
:10187400AD2B7F301223DC747C252CF582E43400FC
:10188400F583EFF00529E529C3940840D07F391288
:1018940037B58F2BE52B540FFD7F391223DC9000D5
:1018A4005AEFF0E52BC4540FFD7F391223DC90006E
:1018B4005BEFF07F3A1237B51223D390005CEFF060
:1018C4007F3B1237B51223D390005DEFF07F3812BF
:1018D40037B58F2BAD2B7F381223DC90005EEFF0F1
:1018E4007F3C1237B51223D390005FEFF07F2412B0
:1018F40037B58F2CAD2C7F241223DC7B007A007942
:101904002D7D047C007F40122F2890002DE52DF0C2
:10191400A3E52EF0900087E52FF0900052E530F01B
:10192400FDE4FF1237847D507F2E1239157D467FEA
:10193400251239157D467F26123915752D44752ECD
:1019440044752F30E4F530FB7A00792D7D04FC7F5B
:101954008012342FE4F52AE4F529E529901F4693F3
:10196400FF742E2529F8A6070529E529B405EBE51A
:101974002A04F52D7B007A00792D7D067C007F8B6F
:1019840012342FE4F529E529901F4B93FF742E257B
:1019940029F8A6070529E529B409EBE4F529742EED
:1019A4002529F8E6FFE52A75F009A42454F582E414
:1019B400341FF583E5822529F582E43583F583E434
:1019C400934FF60529E529B409D4E52A04F52D7BBE
:1019D400007A00792D7D0A7C007F8C12342F052A31
:1019E400E52AC39404500302195B7BFF7A1F7978BC
:1019F4007D0E7C007F8E12342FE4900049F090001D
:101A040060F090002BF0900006F0A3F090008C742E
:101A14000AF0E4900006F0A3F0C201C214C206FD6D
:0E1A24007F02120E42900053740AF012313904
:101A3200122EBB7FFF12372190002BE0FF1235D808
:011A42002281
:102C7A007BFF7A1E79F1123686E4F527AD277F04A9
:102C8A0012382312000E7FFF123A117FFF123A11F7
:102C9A000527E527C3946440E3E4F529F52AF52BD3
:102CAA00752C02FB7A0079297D04FC7F4012342FAF
:102CBA007D277F2F123915E4F527E5272430FFE415
:102CCA00FD1239150527E527C3940840ED7DAB7F32
:102CDA00241239157D017F05123915E4FD7F021290
:092CEA000E42900053741EF0220A
:102F9300EC5EFCED5F4C6060900006E05EFCA3E03D
:102FA3005F4C7054900048E0FDC394065014ED94B8
:102FB30009400FED6404600AED6405600590008C20
:102FC300EDF0E4B5070CEEB401089000487406F088
:102FD3008016E4B5070CEEB402089000487407F0BD
:102FE30080069000487408F0E4900037F0900048A1
:0B2FF300E0FF1229327F01227F002244
:1034AD00EC5EFCED5F4C7033900006E05EFEA3E039
:1034BD005F4E602790008CE0FD640A601B7F201238
:1034CD002A6BAD077F201239157BFF7A1E79F69096
:0E34DD00008CE0F54212334F7F01227F002267
:1027DE008E2B8F2CE52B5CFEE52C5D4E70030228B4
:1027EE0088900006E0552BFEA3E0552C4E600302A8
:1027FE002888E52C6420452B70047F9680027F97F5
:10280E001234EB8E2D8F2EE52E452D6057900048FD
:10281E00E0FF6404600AEF6405600590008CEFF041
:10282E00E52C6420452B70129000487404F0900043
:10283E0032E52DF0A3E52EF080109000487405F0DF
:10284E0090004CE52DF0A3E52EF0122A64AD077F23
:10285E0020123915E490003DF0A3F0FDFC7F10121C
:10286E0037DF8013E52C6420452B70047F0E800229
:0D287E007F10E4FD120E427F01227F002238
:1030D1008E2B8F2CE52B5CFEE52C5D4E70579000FE
:1030E10006E0552BFEA3E0552C4E6049E52C6420EB
:1030F100452B7008900032F0A3F08007E490004C5B
:10310100F0A3F0E4FF1235D890008CE0FD640A6072
:103111000E7F20122A6BAD077F201239158013E52F
:103121002C6420452B70047F1180027F11E4FD1275
:083131000E427F01227F002203
:102D68008E2B8F2CE52B5CFEE52C5D4E606290006F
:102D780006E0552BFEA3E0552C4E7054900048E019
:102D8800FF6406600AEF6407600590008CEFF0E4CA
:102D9800B52C0DE52BB410089000487406F0800F90
:102DA800E4B52C0BE52BB440069000487407F012EC
:102DB8002A64AD077F20123915E4B52C09E52BB438
:102DC80010047F1280027F14E4FD120E427F01225C
:032DD8007F002257
:10339F008E2B8F2CE52B5CFEE52C5D4E703A90004A
:1033AF0006E0552BFEA3E0552C4E602C90008CE0D0
:1033BF00FD640A600C7F20122A6BAD077F20123943
:1033CF0015E4B52C09E52BB410047F1380027F158B
:0B33DF00E4FD120E427F01227F00225D
:1021E8007F1C1234EB8E298F2A900006E065297037
:1021F80004A3E0652A70030222D47BFF7A1F790BBF
:10220800E4852A45852944F543F542900006E0FE19
:10221800A3E0FFE48F498E48F547F54612334FADEA
:102228002AAC297F007E01122F93EF7017AD2AACDC
:1022380029FF7E02122F93EF700AAD2AAC29FF7E88
:1022480004122F93AD2AAC297F007E011234ADAD64
:102258002AAC297F007E021234ADAD2AAC297F005A
:102268007E041234ADAD2AAC297F407E001227DEF1
:10227800EF700AAD2AAC297F20FE1227DEAD2AAC0A
:10228800297F207E001230D1AD2AAC297F407E0004
:102298001230D1AD2AAC297F007E10122D68EF7064
:1022A8000AAD2AAC29FF7E40122D68AD2AAC297FE1
:1022B800007E1012339FAD2AAC297F007E40123376
:1022C8009F900006E529F0A3E52AF0227BFF7A1FFC
:1022D800792AE4852A45852944F543F54212334F86
:0122E80022D3
:1033EA008D29EF24E0602524187039A206E433FF02
:1033FA00E52954016F6003023845E52930E225903A
:10340A0000377438F0AD297F08023915AD297F20BD
:10341A001223DC900048EFF0123A221239EEE4FD52
:05342A00FF120E42221A
:072A6400900048E0FD7F2017
:102A6B00EF24F7602524E5602F24F9601624FB6022
:102A7B002024F8606714605D24197067ED901F8641
:102A8B0093FF22ED901F9293FF22ED901F9893FFDF
:102A9B0022ED901FA093FF22E4F540900044E0D379
:102AAB0094004003434001900042E0D39400400364
:102ABB00434002900043E0FF25E025E042409000B8
:102ACB0045E0FFC454F04240A3E0FFC4333354C08D
:102ADB004240AF4022ED901FBD93FF22ED901FB3FC
:062AEB0093FF227F002290
:0923D3008F2BE52B540FFD7F3820
:1023DC00E4FEEF24F7604A24E5607024F9602D24B4
:1023EC00FB605324F870030224A114700302248CA4
:1023FC00241960030224B6EE901F8693B50503AF33
:10240C0006220EEEC3940C40EE7F0022EE901F923B
:10241C0093B50503AF06220EEEC3940640EE7F0182
:10242C0022EE901F9893B50503AF06220EEEC394CF
:10243C000840EE7F0022EE901FA093B50503AF0677
:10244C00220EEEC3941340EE7F0022ED30E1047FA8
:10245C000180027F00900042EFF0ED13135403A3B0
:10246C00F0ED30E0047F0180027F00900044EFF03B
:10247C00EDC45403A3F0EDC413135403A3F0802A4A
:10248C00EE901FBD93B50503AF06220EEEC3940A62
:10249C0040EE7F0022EE901FB393B50503AF0622EA
:0D24AC000EEEC3940A40EE7F00227F002256
:103753008B418A428943EF6027AB410543E543AA86
:10376300427002054214F9121363FEAB440546E5A9
:1037730046AA457002054514F9EE1213A91F80D617
:013783002223
:1036B7004D6978496E707574536F757263653A25F5
:1036C7006420523A253032780D0A004D6978496EE8
:1036D700707574536F75726365423A256420523A68
:0536E70025640D0A003E
:013A2F002274
:033A28008F2422C6
:102932008F2B90006FE0542CF090006EE054F8F072
:10294200A3E054FBF0123A221239EE900037E0FF76
:10295200600464017053E52BB40A0F900048E00450
:10296200F0D394094010E4F0800C90008C740AF0CB
:10297200900048E52BF0900048E0FD7F20122A6B82
:10298200AD077F201239157F201237B5E48F49F544
:1029920048F547F5467BFF7A3679B7852B45F544EE
:1029A200F543F54212334F801F7BFF7A3679D2907E
:1029B2000037E0FFE48F45F544F543F542F549F56C
:0F29C20048F547F54612334FE4FD7F01020E4200
:103801008F391239EED218E539600D753A3030062C
:103811000AC206433A028003753A20AD3A7F080294
:02382100391557
:10386500AD07EDC394FF500E7F09122A6BEF44108C
:0E387500FD7F09023915E4FD7F091239152285
:1038BE00123A221239EE900028E004F0D39404401C
:0D38CE0002E4F0900028E0FD7F2C02391587
:103196008F3C8D3D123A22E53D6016747C253CF548
:1031A60082E43400F583E0C394125019E004F08001
:1031B60014747C253CF582E43400F583E0D3940056
:1031C6004003E014F0AD3C7F09122A6B8F3E747CFD
:1031D600253CF582E43400F583E0FD7F30122A6B4E
:0A31E600AD07E53E2430FF02391565
:1024B9008F3C8D3D123A22E53C24C7F53FE53D604E
:1024C90016745A253FF582E43400F583E0C3940974
:1024D9005019E004F08014745A253FF582E4340061
:1024E900F583E0D394004003E014F0E53C24C66092
:1024F900161460381460511470030225891460643D
:102509002405600302259C90005AE0FD7F39122AB8
:102519006B8F3E90005BE0FD7F39122A6B8F3FE5A0
:102529003FC454F0453EFD7F3902391590005CE007
:10253900FD7F39122A6B8F3EE4F53FE53FC454F025
:10254900453EFD7F3A02391590005DE0FD7F391265
:102559002A6B8F3E753F08E53FC454F0453EFD7F29
:102569003B02391590005FE0FD7F39122A6B8F3EDF
:10257900753F01E53FC454F0453EFD7F3C023915E6
:1025890090005EE0FD7F38122A6B8F3EAD3E7F38AA
:0425990012391522BC
:0D39EE00301409C214E4FD7F0912391522BE
:063A2200300602C206227C
:0A3A0700205245534554000102040B
:013A30002273
:100601008F24122BFE900053E0D39400401630014A
:1006110003020B42E5245402D394005003020B421F
:10062100E014F02230012530190BC2197809E6B423
:1006310059031238A1200703020B42C207D21378D3
:1006410014E664186003020B420238A1200703027A
:1006510006E1C207D2137814E624F8603524F76066
:100661002814601C24FE600F24EC60432410707079
:100671007F0A1229328069E4FD7F03120E428060F5
:10068100E4FD7F04120E428057E4FD7F05120E4205
:10069100804E900037E0FFC39438400EEFD3943E74
:1006A1005008E4FDFF120E42803612384580319029
:1006B1000037E0FFC394384006EFD3943A4009E491
:1006C100FD7F38120E428018900037E004F0D39479
:1006D1003A40037438F0900037E0FFE4FD120E4217
:1006E1007816E6600C06E6D3943C4005E4F67812F1
:1006F100F6201903020B1AC2197809E61215820BAA
:100701000E000B15030AF20408AD0508D6060AF916
:10071100070AD8080ADD0B0ABD0C08670D08610E2F
:100721000A30100884110864120A3A130A9914094C
:1007310044160AA21707E21807B81908B31A09D410
:100741001B0B07400B00420AEB4408A7450AE4468D
:100751000ACF480AC64A0AB44C07E54D0AAB4E080F
:1007610023510A8F5409F6550A8556079F58077970
:100771005909B25A00000B1AB20130010AE4FD7F97
:1007810008120E42020B1A7D017F05123915E4FD94
:100791007F02120E42900053741EF0020B1A900059
:1007A10037E0B409047F0480027F008F25AD257FE7
:1007B10009120E42020B1A7BFF7A3A79071236862A
:1007C10012000E122C7A020B1A900037E004F0D3BB
:1007D100943E40037439F0900037E0FFE4FD120EBF
:1007E10042020B1A900037E0FFC3942E4012EFD360
:1007F1009435500C781676017D04120E42020B1AC4
:10080100900037E0FFC394245003020B1AEFD394F6
:100811002B4003020B1A781676017D04120E420258
:100821000B1A900037E0FFC3942E4012EFD394359A
:10083100500C781676017D03120E42020B1A9000BD
:1008410037E0FFC394245003020B1AEFD3942B40DB
:1008510003020B1A781676017D03120E42020B1A5F
:10086100020B1A020B1A78167601900037E0B438A1
:10087100047F0480027F008F25AD257F38120E4250
:10088100020B1A300603020B1A7816760190003714
:10089100E0B438047F0380027F008F25AD257F38C7
:1008A100120E42020B1A1238DB020B1A12384502E1
:1008B1000B1A900037E0FFC39446400FEFD39450DA
:1008C1005009E4FDFF120E42020B1AE4FD7F4612AD
:1008D1000E42020B1A900037E0FFC3944650030208
:1008E1000B1AEFD394504003020B1AE004F0E0B46A
:1008F100480C900043E07006900037E004F090004F
:1009010037E0B4490C900045E07006900037E004F0
:10091100F0900037E0B44A0C900046E07006900079
:1009210037E004F0900037E0D3945040037446F070
:10093100900037E0FFE4FD120E4290004F7432F058
:10094100020B1A900037E0FFC394465003020B1AC2
:10095100EFD394504003020B1AE014F0E0B44A0CB8
:10096100900046E07006900037E014F0900037E008
:10097100B4490C900045E07006900037E014F09007
:100981000037E0B4480C900043E07006900037E077
:1009910014F0900037E0C3944650037450F0900077
:1009A10037E0FFE4FD120E4290004F7432F0020B6B
:1009B1001A900037E0FFC394465003020B1AEFD39D
:1009C10094504003020B1A781676017D03120E42F1
:1009D100020B1A900037E0FFC394465003020B1A32
:1009E100EFD394504003020B1A781676017D04125E
:1009F1000E42020B1A900037E0FFC3942E4006EF1F
:100A0100D39435400D1239EEE4FD7F2E120E4202D1
:100A11000B1A900037E024D2FF122DDB8F26E5263A
:100A2100242EFF900037F0E4FD120E42020B1A7DD6
:100A3100037F0E123915020B1A900048E0FF64047F
:100A41006008EF64056003020B1A90002BE0540369
:100A5100F526B402137D017F0E12391590002BE0AB
:100A610054FCF04401F080117D027F0E1239159083
:100A7100002BE054FCF04402F090002BE0FF123513
:100A8100D8020B1A7D047F0F123915020B1A7D0350
:100A91007F0F123915020B1A7D027F0F1239158053
:100AA100787D017F0F123915806FE4FD7F05120EED
:100AB100428066E4FD7F0B120E42805DE4FD7F0CF7
:100AC100120E428054E4FD7F03120E42804BE4FD7E
:100AD1007F04120E4280421232A2803D7F0512290C
:100AE1003280367F06122932802F7F071229328009
:100AF100287F0812293280217F09122932801A7F2A
:100B01000112293280137F02122932800C7F0312D5
:100B110029328005E4FF122932301B25C21B9000C7
:100B210037E0FFC394384012EFD3943A500C3011A0
:100B3100047D0480027D03020E42E4FD7F38120E23
:020B410042224E
:10384500B2063006047F0480027F03AD077F0A12AB
:103855000E42200607E4FD7F38120E421239EE2291
:1038DB00B21430140CE4FD7F24120E42E4FF0238C4
:0D38EB0065E4FDFF120E427FFF12386522DA
:1032A200900048E0C39406504790008EE0FFC4139C
:1032B2005407F527EF5407F528E4F5290527E527F4
:1032C200D394024003E4F527E527903A0E9355285C
:1032D200600EE527C43354E04528FD7F21023915ED
:1032E2000529E529C3940340D3E4FD7F06020E427B
:0732F200E4FDFF120E422271
:102BFE00780EE6FF7008C2A0D2A1D2A28012EFB466
:102C0E000108D2A0C2A1D2A28006D2A0D2A1C2A295
:102C1E00E4FE2082010E2083034306022084034338
:102C2E000604208503430608EE602EEFC454F02EF2
:102C3E00FE7814E6B5061690008DE004F0D39408E5
:102C4E004029201302D207E490008DF022C213E433
:102C5E0090008DF07814A60622780E06E6D3940224
:0C2C6E004002E4F6C213E490008DF02256
:102CF300200F1830871030860D780D06E6D3940325
:102D03004004E4F6D20FC20AC20B22A28730860126
:102D1300B3503A300F25A2869211A211301501B398
:102D23005005780BE67002D21BA2119215780B7630
:102D330003E4780DF6C20FC20B800F300B0A780B39
:102D43007603E4780DF6C20FD20BC20A2220871451
:102D5300208611300A0A780B7603E4780DF6C20F49
:052D6300D20AC20B22A0
:1015CF004B434D2D4E4F00202D4F46462D002048AA
:1015DF00454C4C4F004D5554452020004D5554451A
:1015EF002D2D00564F4C20202000564F4C20004EE2
:1015FF004F49534520004652535020004345535006
:10160F002000535753502000535253502000424B49
:10161F00535020004C504620004C49505300465226
:10162F00444C20004345444C20005357444C200069
:10163F00424B444C2000496E536F757263653A25D7
:10164F00642025642025640D0A0056494445302046
:10165F00002020202020200050434D00322F340046
:10166F0020464C41542000534F554E44004E49479D
:10167F002D4F4E004E49472D4F46004657444F4E73
:10168F0045004D5033002020004252494748004644
:10169F004C547443455474535754744652547453B2
:1016AF0052547442525474424C5474534C547400F8
:1016BF00464C5472434554725357547246525472A7
:1016CF005352547242525472424C5472534C54728D
:1016DF00004D4943314D4943324543484F524550E0
:1016EF005444454C5952455642004155582D494E88
:1016FF004F5054494341434F412D4431434F412DA6
:10170F004432202D53442D20202D5553422D484433
:10171F004D492D3148444D492D3248444D492D33C3
:10172F0048444D492D410020204849464920322B3D
:10173F00314348004D4F444500322F30312F303266
:10174F002F30332F30322F31332F31322F32332F7F
:10175F0032332F33332F34322F33322F340053445D
:10176F002D494E2053442D4F555455442D494E204D
:10177F0055442D4F555450432D494E2050432D4F16
:10178F00555442542D494E2042542D4F5554003339
:10179F00324B34384B35364B36344B38304B393679
:1017AF004B313132313238313630313932323234E5
:1017BF00323536333230333834000002070000241C
:1017CF003F000600DB00CF00E600ED00FD00070044
:1017DF00FF00EF00F7128F0039120F00F900F10030
:1017EF00BD00F61209001E0C7000380536093600D0
:1017FF003F00F3083F08F300ED1201003E243028AC
:10180F00362D0000EE240900C0240012C00010186D
:05181F001C1C1E1E1F31
:1031F000C2A5C2937F01123A117F4012395F7F014D
:10320000123A11D2937F01123A11C2937F01123AFE
:10321000117FC012395F7F01123A11E4F524E4FFF7
:1032200012395F7F01123A110524E524C39410403E
:10323000ED7F0A123A11D293E4FDFF123784E4FFC6
:093240001238F8E4900034F02289
:10259D008F24300E05C20E12000EE5245402D39482
:1025AD00005003022661900034E0601514F07007AE
:1025BD007F01123721800A900034E05401FF123759
:1025CD0021900053E0D39400400302266130060CA5
:1025DD0090004FE07006FD7F0A120E4220015B90C5
:1025ED00004FE0605514F07027201407FDFF120E08
:1025FD00428047900037E024DCFF122DDB8F25E56C
:10260D00252424FFE4FD120E42AF25123865802AE1
:10261D0030002790004FE0FF75F00584E5F0701A4B
:10262D00EF75F00584F525900037E0FFE52530E0E6
:10263D00047D0280027D01120E4220011720061436
:10264D0020141130050E900049E0540FC394004042
:05265D000312324922C6
:100E42008F378D38E538700890004F7414F0C20067
:100E5200C205C2A512392F90006EE0540FF0E5379B
:100E62001215820F14000F45010F57020F9B030F3B
:100E7200A8040FB5050FC0060FCC070F4B080F6C67
:100E8200090FFD0A0FD20B0FD80C0FDE0D0FE40E67
:100E92000FE40F0FE4100FE4110FE4120FE4130F2D
:100EA200E4140FE4150FEF160FF51710A62410A681
:100EB2002510A62610A62710A62810A62910A62AB5
:100EC20010A62B10AF2E10AF2F10AF3010AF311075
:100ED200AF3210AF3310AF3410AF3510593810BBEA
:100EE2003910BB3A10BB3B10BB3C10BB3D10BB3EA4
:100EF20010D34610D34710D34810D34910D34A1009
:100F0200C74B10C74C10C74D10C74E10C74F00003B
:100F120010DD200C17900048E0FF64046004EFB479
:100F22000505122662800E12306880097BFF7A1551
:100F320079CF123686E4900037F090004FF0D20558
:100F42000210DD1230680210DD7BFF7A1579D612AD
:100F520036860210DD7BFF7A1579DD1236861200A5
:100F62000E90004F740AF00210DDE538B4041D90B3
:100F7200004F7414F0900052E004F0D39402400247
:100F8200E4F0900052E0FD7F43123915900052E0E8
:100F9200FD7F011237840210DD1239EEAD387F0376
:100FA2001220DA0210DD1239EEAD387F041220DA97
:100FB2000210DD1239EE7F041236EC0210DD9000D1
:100FC2004F7432F01239750210DD12288B0210DDD7
:100FD2001235630210DD12346E0210DD1239C302C3
:100FE20010DDE53724F2FF12398A0210DD1232F9E0
:030FF2000210DD0D
:100FF500122662D2050210DDE5386003B4040890BC
:10100500004F7450F0D200E538C394024005E5382E
:10101500B4040B7BFF7A1579E4123686800EE53829
:10102500B402097BFF7A1579EB123686E538B404EC
:101035000A7D037F081239150210DDE53864036067
:10104500030210DD90004F7414F07D027F08123901
:10105500150210DDE538C394034015900037E0B460
:10106500380EE538B404047F0180027F0012380190
:10107500E538B4020B7BFF7A1579F2123686805873
:101085007BFF7A1579F912368690002FE0FD7F04F3
:10109500123823E538704190004F7450F0D200802B
:1010A50037AD38AF37122AF1802E1239EEAD38AF91
:1010B500371229D180221239EEAD38AF37122E4BB7
:1010C50080161239EEAD38AF37121D3A800A123943
:0F10D500EEAD38AF371222E9900037E537F02241
:10346E007F091237B58F39301413900037E0B40C42
:10347E000C0539E539D394074003E4F539AD397FAE
:10348E00091239157BFF7A1579FE123686E5391247
:0F349E0010E4301409E4900035F0FF1238652275
:102DDB00EFB407005067902DE8F8282873022DFDFB
:102DEB00022E12022E1E022E21022E36022E42021D
:102DFB002E45900043E060037F0122900044E06089
:102E0B00037F02227F0322900044E060037F0222B3
:102E1B007F03227F0322900045E060037F04229012
:102E2B000046E060037F05227F0022900046E060B1
:102E3B00037F05227F00227F06227F07227F00224D
:102AF1008F398D3AE53AC39403401E900037E0B513
:102B0100391724DCFFE53AB404047D0180027D001D
:102B110012319690004F7450F074DC2539F53975F7
:102B2100F004A4249EF97416123681E53AB4020E1B
:102B31007D207F041210E97D207F050210E9747C5D
:102B41002539F582E43400F583E0F53BC39409505F
:102B5100147D2D7F041210E9C37439953BFD7F0567
:102B61001210E980117D207F041210E9E53B242732
:092B7100FD7F051210E9D20022DB
:1029D1008F398D3AE53AC39403401E900037E0B534
:1029E100391724D2FFE53AB404047D0180027D0049
:1029F10012319690004F7450F074D22539F5397523
:102A0100F004A424BFF97416123681E53AB4020E1B
:102A11007D207F041210E97D207F050210E9747C7E
:102A21002539F582E43400F583E0F53BC394095080
:102A3100147D2D7F041210E9C37439953BFD7F0588
:102A41001210E980117D207F041210E9E53B242753
:102A5100FD7F051210E9E53A700890004F7450F0BF
:032A6100D200227E
:102E4B008F398D3AE53AC39403401D900037E0B5B6
:102E5B003916E53AB404047D0180027D00AF3912C6
:102E6B0024B990004F7450F074C72539F53975F0BB
:102E7B0004A424E0F974161236817D207F0412100D
:102E8B00E9E53AB402077D207F050210E9745A2563
:102E9B0039F582E43400F583E0F53B2430FD7F0502
:102EAB001210E9E53A700890004F7450F0D20022EE
:101D3A008F398D3A90006EE04450F0A3E0F09000A5
:101D4A004F7450F07D207F041210E97D207F051228
:101D5A0010E9E53924B46056147003021DEF1470BB
:101D6A0003021E26147003021E5D147003021E94E1
:101D7A0024056003021E9D7BFF7A167905123686BA
:101D8A00E53AC39403401B900042E004F0D3940167
:101D9A004002E4F0E4FD7F24122A6BAD077F24128F
:101DAA003915E4FF123527AD077F050210E97BFFDD
:101DBA007A16790B123686E53AC39403401B9000D3
:101DCA0043E004F0D394024002E4F0E4FD7F2412DD
:101DDA002A6BAD077F241239157F01123527AD070B
:101DEA007F050210E97BFF7A167911123686E53AE9
:101DFA00C39403401B900044E004F0D394014002D2
:101E0A00E4F0E4FD7F24122A6BAD077F2412391512
:101E1A007F02123527AD077F050210E97BFF7A168C
:101E2A007917123686E53AC39403401B900045E0C1
:101E3A0004F0D394024002E4F0E4FD7F24122A6BFA
:101E4A00AD077F241239157F03123527AD077F05A9
:101E5A000210E97BFF7A16791D123686E53AC39499
:101E6A0003401B900046E004F0D394024002E4F0E1
:101E7A00E4FD7F24122A6BAD077F241239157F04F3
:101E8A00123527AD077F050210E97BFF7A16792301
:041E9A001236862254
:1022E9008F398D3AE53924B9603A14605A14607A05
:1022F900147003022396240460030223B790006E2E
:10230900E04440F0A3E0F07BFF7A16792812368684
:10231900E53AC3940350030223B7AD3AE4FF122F01
:10232900FE0223B77BFF7A16792D12368690006E4E
:10233900E04450F0A3E0F0E53AC394034070AD3AAD
:102349007F01122FFE80677BFF7A1679331236865A
:1023590090006EE04450F0A3E0F0E53AC3940340E6
:102369004DAD3A7F02122FFE80447BFF7A167939F0
:1023790012368690006EE04450F0A3E0F0E53AC3CF
:102389009403402AAD3A7F03122FFE80217BFF7A06
:1023990016793F12368690006EE04450F0A3E0F0C3
:1023A900E53AC394034007AD3A7F04122FFE90002B
:1023B9004F7432F074F22539F582E434FFF583E085
:0A23C90075F005A4FD7F040238231F
:1030680090008CE0FFB40A08900048E0FEFF800062
:103078008F3E7BFF7A167945E48F45F544F543F595
:103088004290008CE0FFE48F49F548F547F54690FB
:103098000048E0FFE48F4DF54CF54BF54A12334FED
:1030A800E53E64046005E53EB4050990006FE04420
:1030B80020F0800790006FE054DFF0E53E75F006E1
:0930C800A424F9F9741602368102
:103975007BFF7A16795912368690008EE0FFC413C4
:0539850054070210E4EC
:1020DA008F398D3A900037E065397078E5396403B5
:1020EA00702F90002DE06401FFF0FD7F2B1239154F
:1020FA0090002DE0FD7F40123915900087E06401C1
:10210A0070030221B77401F0FD7F421239150221D2
:10211A00B790002EE004F0C394044002E4F090006B
:10212A002EE0FFC39403500BEF4410FD7F2B1239AE
:10213A001580077D307F2B12391590002EE0FD7F28
:10214A0041123915900087E06063E4F0FD7F421286
:10215A0039158059900037E0B4041DE539B40318E5
:10216A0090002DE0FD7F2B1239159000877401F045
:10217A00FD7F421239158035900037E06403702DD7
:10218A00E5396404702790002EE0FFC39403500BD6
:10219A00EF4410FD7F2B12391580077D307F2B12FB
:1021AA003915E4900087F0FD7F42123915E539B4FC
:1021BA00031290002DE075F006A42436F974171264
:1021CA00368180177BFF7A1779431236867D207F06
:0E21DA00041210E990002EE01210E4023139D8
:10288B00900049E0FF540FC39402500302292EE439
:10289B00F53DEFC4540F75F003A4F5397BFF7A16A1
:1028AB007960123686122EBB900049E0540F24FD3E
:1028BB00602414604314604024FE605E24F76016AD
:1028CB0014601324FD24FD502F241570597BFF7ABF
:1028DB0016796702368674482539F9E43417FA7B82
:1028EB00FF75440075450075463A7F031237537BDD
:1028FB00007A00793A02368674482539F9E43417A0
:10290B00FA7BFF75440075450075463A7F03123715
:10291B00537B007A00793A0236867BFF7A16796B05
:07292B00023686123068221B
:10352700AE07EE700C900042E060037F4C227F53A1
:1035370022BE020C900044E060037F59227F4E2296
:1035470074422EF582E43400F583E0FDB402037F74
:0C3557004C22EDB401037F53227F4E2272
:1036EC00EFC39403400A900037E0B405031238BED0
:1036FC00900028E070097BFF7A16796F0236867B82
:10370C00FF7A167976123686900028E02430FD7FF9
:05371C00051210E92276
:103563007F231237B58F39900037E0B40B16E53956
:10357300C3943250057539328003E4F539AD397F90
:1035830023123915E53960097BFF7A16797C0236F7
:0B359300867BFF7A16798312368622B1
:0F39C30090004F7432F07BFF7A16798A023686B5
:10398A0090004F7432F0EF75F006A4246DF97417A5
:03399A0002368171
:1032F90090004F7414F090006EE054BFF07BFF7A99
:1033090016796012368690003EE02401FD90003D5A
:10331900E03400FCE4FF1227258F4005407D2F1281
:1033290010E9900048E0B4040D900032E0FEA3E0FB
:10333900FFAC06FD800B90004CE0FEA3E0FFAC065D
:06334900FDAF4002272544
:10266200C3900051E09403900050E09400500302A4
:1026720032F9C3900051E09405900050E09400506C
:1026820064900060E0FF131313541FF53990004962
:10269200E0540F640A704E90004F7414F0E539D381
:1026A20094004041E5399410503B75440075450053
:1026B20075463A7BFF7A1679917F03123753E539D3
:1026C20075F003A4249BF9741735F0FA7BFF754467
:1026D2000075450075463D7F031237537B007A0033
:1026E200793A0236867BFF7A167995123686900001
:1026F20050E0FEA3E0FF7C007D3C1213DDAD077FBE
:1027020002123823900050E0FEA3E0FF7C007D3CE3
:102712001213DD7F0412382390006EE04440F0A3D0
:03272200E0F022C2
:103784008D39EFD39400400E7BFF7A167998123668
:1037940086E5391210E4C2937F01123A11E539909B
:1037A40017C9934488FF12395F7F01123A11D293EB
:0137B40022F2
:102FFE00EF70047C0180027C00EC146011146012EE
:10300E00146013146014240470127E13800E7E0953
:10301E00800A7E0980067E0980027E09BD04247422
:10302E00382FF582E43400F583E0D39E4002EEF0B3
:10303E0074382FF582E43400F583E0C39E501AE015
:10304E0004F022BD031374382FF582E43400F583A7
:0A305E00E0D394004003E014F022D8
:10313900900087E0600790002DE0FF800790002E47
:10314900E02402FF90006FE0542CF0EF146010149B
:10315900601614601C1460221460282405702B90DA
:10316900006FE04401F0802290006FE04402F0809B
:103179001990006FE04480F0801090006FE04440A7
:0D318900F0800790006FE04410F0D20E229D
:102EBB0090006EE054F8F0A3E054FBF0900049E072
:102ECB00540F24FD603514603B14603824FE6040C1
:102EDB0024F7602714602424FD24FD50272415704B
:102EEB0039900085E0FF64536030EF6456602B909F
:102EFB00006EE04404F0A3E0F0801F90006FE0440C
:102F0B0004F0801690006EE04401F0A3E0F0800A1C
:0D2F1B0090006EE04404F0A3E0F0D20E221E
:1035D800EF5403FE900071E054F0F0BE0106E044A1
:1035E80008F0800ABF0207900071E04404F0EF542D
:1035F800C0FE6013BEC009900071E04401F080076E
:0A360800900071E04402F0D20E229F
:103721008F37E537B4FF117F0D1237B5EF30E7045E
:103731007F0180027F008F37E537600C90006EE0DB
:103741004408F0A3E0F0800790006EE054F7F0D257
:023751000E2246
:0536810035F0FA7BFFAB
:103686008B418A428943E4F545AB410543E543AAAC
:10369600427002054214F9121363F5446012AD44F8
:1036A600AF451210E90545C3E5456480948640D9C7
:0136B60022F1
:102725008F418C428D43AE42AF437C277D101213FF
:10273500DDEF4E601AEF2430FDAF4105411210E97F
:10274500AE42AF437C277D101213DD8C428D43AE24
:1027550042AF437C037DE81213DDEF4E601AEF2490
:1027650030FDAF4105411210E9AE42AF437C037D18
:10277500E81213DD8C428D43AE42AF437C007D648D
:102785001213DDEF4E601AEF2430FDAF4105411203
:1027950010E9AE42AF437C007D641213DD8C428D9F
:1027A50043AE42AF437C007D0A1213DDEF4E601A43
:1027B500EF2430FDAF4105411210E9AE42AF437C35
:1027C500007D0A1213DD8C428D43AF410541E5437F
:0927D5002430FD1210E9AF41228D
:103823008F408D41E54175F00A842430FD1210E983
:10383300E54004FFE54175F00A84E5F02430FD021C
:0238430010E98A
:0510E4002431FD7F0531
:1010E9008F468D47E546C3940340030211B4E54793
:1010F900C394304012E547D39439500B74D0254737
:10110900F54704F548804CE547C39461400FE5472E
:10111900D3947A5008E54724AAF5488036E547C3B1
:101129009441400FE547D3945A5008E54724CAF53E
:10113900488020E54724D5601224FC600924027008
:101149000F754825800D7548268008754827800346
:10115900E4F548E54825E024CCF582E43417F58325
:10116900E493FEE54625E02462F582E43400F58344
:10117900EEF0A3E4F0E54625E02462F582E43400CC
:10118900F583C083C082E0FEA3E0FFE54825E024A3
:10119900CDF582E43417F583E493FDEEEF4DFFD0EE
:1011A90082D083EEF0A3EFF0021360E546C3940604
:1011B90040030212EAE547C394304066E547D394F9
:1011C90039505F74D02547F54704F54825E024CC0C
:1011D900F582E43417F583E493FEE54625E02462BD
:1011E900F582E43400F583EEF0A3E4F0E54625E06A
:1011F9002462F582E43400F583C083C082E0FEA353
:10120900E0FFE54825E024CDF582E43417F583E4D1
:1012190093FDEEEF4DFFD082D083EEF0A3EFF00205
:101229001360E54712158212732D127841127D421F
:10123900128243128744128C451291461296471224
:10124900A048129B4912A54C12AA4E12AF4F12B4D4
:101259005012B95212BE5312C35412C85512CD5965
:1012690012B97212C374000012D27547C0805D753D
:1012790047F7805875477C8053754739804E7547C5
:10128900DE80497547F980447547F1803F7547EF1E
:10129900803A75470680357547F68030754738803E
:1012A9002B754737802675473F80217547F3801C8A
:1012B90075475080177547ED80127547F8800D7591
:1012C900473E800875476E8003E4F547E54625E00B
:1012D9002462F582E43400F583E4F0A3E547F08065
:1012E90076E546D39406401AE546940D5014E54731
:1012F900C39401400DE547D394055006E5472426DC
:10130900F548E54825E024CCF582E43417F583E473
:1013190093FEE54625E02462F582E43400F583EE88
:10132900F0A3E4F0E54625E02462F582E43400F513
:1013390083C083C082E0FEA3E0FFE54825E024CD19
:10134900F582E43417F583E493FDEEEF4DFFD08287
:0A135900D083EEF0A3EFF0D20E22D5
:10392F00E4FFEF25E02472F582E43400F583E4F040
:0A393F00A3F00FEFC3940540E92246
:0639D200131313541FFF44
:0939D800EF540790181C93FF2224
:103249007B007A0079277D037C007F8F122F28303D
:103259000C0302392FAF271239D8900072E4F0A37A
:10326900EFF0E5271239D2900074E4F0A3EFF0AF44
:10327900281239D8900076E4F0A3EFF0E528123946
:10328900D2900078E4F0A3EFF0AF291239D890007A
:093299007AE4F0A3EFF0D20E225A
:10399D00E4FFE4900072F0A3F00FEFC3940540F242
:0339AD00D20E2215
:1038F800E4FEEFFDEE25E02462F582E43400F58372
:0D390800E4F0A3EDF00EEEC3940D40E622B6
:10000E00E4FF74082FF582E43400F583E4F00FEF7B
:10001E00C3941040ED900062E0FEA3E0FF30E007D5
:10002E00900016E04408F0EF30E10790000FE04436
:10003E0008F0EF30E207900008E04408F09000630B
:10004E00E030E30790000BE04408F0900062E0FE21
:10005E00A3E0FF30E407900013E04408F0EF30E532
:10006E0007900017E04408F0EF30E607900011E02B
:10007E004408F0900063E030E70790000EE044087B
:10008E00F0900062E0FEA3E0FFEE30E00790001576
:10009E00E04408F0EE30E107900014E04408F0EE82
:1000AE0030E20790000DE04408F0900062E0A330CB
:1000BE00E307900009E04408F0900062E0FEA3E040
:1000CE00FFEE30E40790000AE04408F0EE30E5075A
:1000DE00900010E04408F0900064E0FEA3E0FF30D2
:1000EE00E007900016E04420F0EF30E10790000F9B
:1000FE00E04420F0EF30E207900008E04420F0905A
:10010E000065E030E30790000BE04420F0900064BF
:10011E00E0FEA3E0FF30E407900013E04420F0EF90
:10012E0030E507900017E04420F0EF30E60790002E
:10013E0011E04420F0900065E030E70790000EE0FB
:10014E004420F0900064E0FEA3E0FFEE30E0079064
:10015E000015E04420F0EE30E107900014E044205A
:10016E00F0EE30E20790000DE04420F0900064E0E5
:10017E00A330E307900009E04420F0900064E0FE15
:10018E00A3E0FFEE30E40790000AE04420F0EE30EA
:10019E00E507900010E04420F0900066E0FEA3E03A
:1001AE00FF30E007900016E04410F0EF30E10790CA
:1001BE00000FE04410F0EF30E207900008E044102A
:1001CE00F0900067E030E30790000BE04410F090F1
:1001DE000066E0FEA3E0FF30E407900013E0441059
:1001EE00F0EF30E507900017E04410F0EF30E6072F
:1001FE00900011E04410F0900067E030E7079000A7
:10020E000EE04410F0900066E0FEA3E0FFEE30E05A
:10021E0007900015E04410F0EE30E107900014E076
:10022E004410F0EE30E20790000DE04410F0900024
:10023E0066E0A330E307900009E04410F0900066FA
:10024E00E0FEA3E0FFEE30E40790000AE04410F079
:10025E00EE30E507900010E04410F0900068E0FEEC
:10026E00A3E0FF30E007900016E04404F0EF30E129
:10027E000790000FE04404F0EF30E207900008E032
:10028E004404F0900069E030E30790000BE0440472
:10029E00F0900068E0FEA3E0FF30E407900013E06A
:1002AE004404F0EF30E507900017E04404F0EF301F
:1002BE00E607900011E04404F090006AE0FEA3E02F
:1002CE00FF30E007900016E04480F0EF30E1079039
:1002DE00000FE04480F0EF30E207900008E0448029
:1002EE00F090006BE030E30790000BE04480F0905C
:1002FE00006AE0FEA3E0FF30E407900013E04480C4
:10030E00F0EF30E507900017E04480F0EF30E6079D
:10031E00900011E04480F090006CE0FEA3E0FF300E
:10032E00E007900016E04402F0EF30E10790000F76
:10033E00E04402F0EF30E207900008E04402F09053
:10034E00006DE030E30790000BE04402F090006C8B
:10035E00E0FEA3E0FF30E407900013E04402F0EF6C
:10036E0030E507900017E04402F0EF30E60790000A
:10037E0011E04402F090006EE0FEA3E0FF30E007D3
:10038E00900016E04401F0EF30E10790000FE044DA
:10039E0001F0EF30E207900008E04401F090006FAA
:1003AE00E030E30790000BE04401F090006EE0FEB9
:1003BE00A3E0FF30E407900013E04401F0EF30E5D6
:1003CE0007900017E04401F0EF30E607900011E0CF
:1003DE004401F090006FE030E70790000EE044011A
:0403EE00F090006E1D
:1003F200E0FEA3E0FFEE30E007900015E04401F0DC
:10040200EE30E107900014E04401F0EE30E2079094
:10041200000DE04401F090006EE0A330E30790008D
:1004220009E04401F090006EE0FEA3E0FFEE30E44C
:1004320007900012E04420F0EE30E507900012E051
:100442004410F0EE30E607900012E04404F0900011
:1004520070E0FEA3E0FF30E00790000DE04404F0FE
:10046200EF30E107900014E04404F0EF30E207902F
:100472000015E04404F0900071E030E30790000EB4
:10048200E04404F0900072E0FEA3E0FF30E0079049
:100492000009E04480F0EF30E10790000DE0448075
:1004A200F0EF30E207900014E04480F0900073E037
:1004B20030E307900015E04480F0900073E030E4F0
:1004C2000790000EE04480F0900074E0FEA3E0FF8D
:1004D20030E00790000DE04402F0EF30E1079000B9
:1004E20014E04402F0EF30E207900015E04402F01D
:1004F200900075E030E30790000EE04402F09000B7
:1005020076E0FEA3E0FF30E007900013E04440F005
:10051200EF30E10790000BE04440F0EF30E207904B
:100522000008E04440F0900077E030E30790000FCD
:10053200E04440F0900077E030E407900016E04499
:1005420040F0900078E0FEA3E0FF30E00790001555
:10055200E04440F0EF30E10790000EE04440F0EF5D
:1005620030E207900011E04440F0900079E030E37F
:1005720007900017E04440F090007AE0FEA3E0FF0D
:1005820030E007900010E04440F0EF30E1079000C7
:100592000AE04440F0EF30E207900009E04440F006
:1005A20090007BE030E30790000DE04440F09000C3
:1005B2007BE030E407900014E04440F0C2937F01F6
:1005C200123A117F4012395F7F01123A11D2937FA2
:1005D20001123A11C2937F01123A117FC012395FA0
:1005E200E4F53974082539F582E43400F583E0FF37
:0F05F20012395F0539E539C3941040E7D29322DF
:10395F007E08C290EF139291EFC313FFD2901EEE29
:06396F00D3940050ED228C
:10388300AE0753050FEDC3940A5006ED2430FFFD38
:0E38930022EE6005ED2457FF22ED2437FF22C0
:101A43008F698D6AE56A7029AF6EAE6DAD6CAC6B54
:101A5300EC4D4E4F701BAB6FAA70A971743012130B
:101A6300A9AB6FAA70A971900001E41213BB7F01A7
:101A730022E4F572F573E56964646009E5696475E8
:101A83006003021B717579007578CA75779A75764C
:101A93003BE569B4643FE4FFFEFDE56B5480FC6005
:101AA30034AB6FAA70A971AF7305738F827583000E
:101AB300742D1213BBE56EFBE56DFAE56CF9E56B6E
:101AC300547FF8C3E49BF56EE49AF56DE499F56CE5
:101AD300748098F56B75740BAB79AA78A977A8769F
:101AE300AF6EAE6DAD6CAC6B1214998F751574E55A
:101AF30074656A6004E5756003757201E572601AC6
:101B0300AD75E4FF123883AB6FAA70A971AE73058C
:101B1300738E82758300EF1213BBAF6EAE6DAD6C27
:101B2300AC6BAB79AA78A977A876121499AC00ADFF
:101B330001AE02AF038F6E8E6D8D6C8C6BAF79AE81
:101B430078AD77AC76E47B0AFAF9F81214998F79B9
:101B53008E788D778C76E4FFFEFDFCAB79AA78A9AD
:101B630077A876C312152B6003021ADB80527574B3
:101B73002075750974FC2574F574AF6EAE6DAD6C8C
:101B8300AC6BF9F812153CAD071575E575656A6020
:101B930003ED6003757201E5726021E569B45804D1
:101BA3007F0180027F00123883AB6FAA70A971AEE8
:101BB3007305738E82758300EF1213BBE57470B4E3
:101BC300AB6FAA70A971857382758300E41213BB8E
:031BD300AF7322CB
:100B43008B548A558956E4F55DF55EAB57AA58A9CF
:100B530059AF5DEF3395E08F82F58312137C6425E3
:100B63006051D3E55E6480949E4003AF5E22AB5731
:100B7300AA58A959AF5D055DEF3395E08F82F583E0
:100B830012137CFFAB54AA55A956AE5E055EEEFD6B
:100B93003395E08D82F583EF1213BBAB57AA58A9A7
:100BA30059AF5DEF3395E08F82F58312137C709B11
:100BB300AF5E22AF5DEF3395E08F82F583A3AB5732
:100BC300AA58A95912137CF5636473706BAB5AE589
:100BD3005CF92403F55CE55BFA3400F55B121562FE
:100BE3008B608A618962055D055DE4F55FAB60AA90
:100BF30061A962AF5FEF3395E08F82F58312137CB7
:100C03007003020B4EC3E55E6480949E4003020BA7
:100C13004E055FEF3395E08F82F58312137CFFABB4
:100C230054AA55A956AE5E055EEEFD3395E08D825E
:100C3300F583EF1213BB80B5E563B4251E055D058F
:100C43005DAB54AA55A956AF5E055EEF3395E08FB1
:100C530082F58374251213BB020B4EE563B4633232
:100C6300055D055DAB5AE55CF92402F55CE55BFACD
:100C73003400F55B121432FFAB54AA55A956AE5E8D
:100C8300055EEEFD3395E08D82F583EF1213BB0213
:100C93000B4EE4F564F55FAF5DEF3395E0FEEF24B3
:100CA30001FFE43EFEAD5FED3395E0FCED2FF582F1
:100CB300EC3EF583AB57AA58A95912137CF563C3CD
:100CC300648094B0401ED3E563648094B95015E505
:100CD3006324D0FFE56475F00AA42FF564055FE58E
:100CE3005FB403B3AF5DEF3395E0FEEF2401FFE4A0
:100CF3003EFEAD5FED3395E0FCEF2DFFEE3CFEAB2A
:100D030057E5592FF9E5583EFA8B60F5618962E59D
:100D13005D2402255FF55D121363249C600F24EFAD
:100D2300600B24FD600724206003020B4EAB5A05C1
:100D33005CE55CAA5B7002055B14F9121363FF3375
:060D430095E08F68F567E2
:100D4900F566F565FEAD66AC65780812154F8F68D6
:100D59008E678D668C65055CE55CAA5B7002055B38
:100D690014F9121363FF3395E0FEFDFCE5684FF5B6
:100D790068E5674EF567E5664DF566E5654CF56529
:100D8900AF68AE67AD66FC780812154F8F688E673D
:100D99008D668C65055CE55CAA5B7002055B14F9E0
:100DA900121363FF3395E0FEFDFCE5684FF568E536
:100DB900674EF567E5664DF566E5654CF565AF681F
:100DC900AE67AD66FC780812154F8F688E678D6621
:100DD9008C65055CE55CAA5B7002055B14F912136E
:100DE90063FF3395E0FEFDFCE5684FF568E5674E66
:100DF900F567E5664DF566E5654CF565AB60AA6195
:100E0900A962121363FFC00785686E85676D8566E1
:100E19006C85656BAF5EEF3395E0FEE5562FF9E51E
:100E2900553E85546FF5708971D007AD64121A4328
:090E3900EF255EF55E020B4E226E
:10334F008B3F8A4089417551007552007553428BEE
:10335F00578A58895985515A85525B85535C7B0131
:10336F007A00798F120B43E4FEC3EF6480F8EE64AA
:10337F008098501BC299EEFD3395E0FC748F2DF5AC
:10338F008274003CF583E0F5993099FD0E80DA22C6
:103612001239B01231F0123A30123A2F123A1A78A5
:1036220013E6FF5401D3940040F5121BD67813E63B
:10363200FF1206017813E6FF12259D7813E6FF12AA
:083642003A28E47813F680D762
:1039B000758921758851759850758DFF438780757D
:0339C000A88322B7
:033A2B008F0822DF
:093A1100EFD394034002DFFE2212
:03000B00021FC70A
:101FC700C0E0C0F0C083C082C0D075D000C000C0E0
:101FD70001C002C003C004C005C006C007758A60FF
:101FE700758CFF781006E675F00A84E5F060030249
:101FF7002082122CF37810E675F06484E5F0703BCC
:10200700F678137601780C06E675F00A84E5F07029
:102017002A7813E64402F6780CE6FF75F03284E579
:10202700F070187813E64404F6EF75F06484E5F071
:102037007009780CF67813E64408F630053D9000F1
:102047002CE004F0D394134006E4F0D2A5802C9042
:102057000052E0FF700B90002CE0B40104C2A58091
:102067000DEFB4010990002CE0B40402C2A5EFB44F
:10207700020990002CE0B40802C2A5780FE6603888
:1020870006E6D3949F40312008247811E6B4021E57
:102097007816E660197812E6FFC39408500EEF54DD
:1020A70003FFBF0302D2197812068002D2197811F2
:1020B7007600C208780F7600D007D006D005D00486
:1020C700D003D002D001D000D0D0D082D083D0F0BE
:0320D700D0E03224
:03000300022B7A53
:102B7A00C0E0C0D075D000C000C006C007200865FC
:102B8A00781106E6FFB4020C780FE6D3949140550B
:102B9A00D2088051780AE6FEC313F6780FE6D3947A
:102BAA00104006780AE64480F6EF640A6004EFB43F
:102BBA001A07780AE618F6802CEFB41212780AE699
:102BCA00B4BF0418E6601E78167600D2088016EFA5
:102BDA00B42212D21978127600780AE6F4186660DE
:102BEA0004C219D208780F7601D007D006D000D0D7
:042BFA00D0D0E03225
:030000000239FBC7
:0C39FB00787FE4F6D8FD75817902361261
:10136300BB010689828A83E0225002E722BBFE0288
:09137300E32289828A83E49322BB
:10137C00BB010CE58229F582E5833AF583E0225026
:10138C0006E92582F8E622BBFE06E92582F8E22270
:0D139C00E58229F582E5833AF583E493228A
:1013A900BB010689828A83F0225002F722BBFE0123
:0213B900F3221D
:1013BB00F8BB010DE58229F582E5833AF583E8F068
:1013CB00225006E92582C8F622BBFE05E92582C814
:0213DB00F222FC
:1013DD00BC000BBE0029EF8DF084FFADF022E4CCF4
:1013ED00F875F008EF2FFFEE33FEEC33FCEE9DECBD
:1013FD00984005FCEE9DFE0FD5F0E9E4CEFD22ED03
:10140D00F8F5F0EE8420D21CFEADF075F008EF2F4C
:10141D00FFED33FD4007985006D5F0F222C398FD3D
:05142D000FD5F0EA22DA
:10143200BB010A89828A83E0F5F0A3E02250068785
:10144200F009E71922BBFE07E3F5F009E319228947
:0B145200828A83E493F5F0740193227A
:10145D0075F008758200EF2FFFEE33FECD33CDCC46
:10146D0033CCC58233C5829BED9AEC99E5829840C9
:10147D000CF582EE9BFEED9AFDEC99FC0FD5F0D6A6
:10148D00E4CEFBE4CDFAE4CCF9A88222B800C1B9D0
:10149D000059BA002DEC8BF084CFCECDFCE5F0CB0E
:1014AD00F97818EF2FFFEE33FEED33FDEC33FCEB47
:1014BD0033FB10D703994004EB99FB0FD8E5E4F902
:1014CD00FA227818EF2FFFEE33FEED33FDEC33FCEF
:1014DD00C933C910D7059BE99A4007EC9BFCE99AE3
:1014ED00F90FD8E0E4C9FAE4CCFB2275F010EF2F28
:1014FD00FFEE33FEED33FDCC33CCC833C810D70728
:10150D009BEC9AE899400AED9BFDEC9AFCE899F862
:0E151D000FD5F0DAE4CDFBE4CCFAE4C8F922F5
:10152B00EB9FF5F0EA9E42F0E99D42F0E89C45F016
:01153B00228D
:10153C00E8600FECC313FCED13FDEE13FEEF13FF8D
:03154C00D8F122B1
:10154F00E8600FEFC333FFEE33FEED33FDEC33FCFA
:03155F00D8F1229E
:10156200BB010789828A830215B15005E9F8021589
:10157200A8BBFE05E9F80215BA89828A830215C35F
:10158200D083D082F8E4937012740193700DA3A3F8
:1015920093F8740193F5828883E47374029368600C
:0615A200EFA3A3A380DF0C
:0915A800E6FB08E6FA08E6F92268
:0915B100E0FBA3E0FAA3E0F9223B
:0915BA00E2FB08E2FA08E2F92262
:0C15C300E493FB740193FA740293F92284
:00000001FF
