:1037DC008F408D411238747FCC123411AF401234AB
:0A37EC0011AF411234111238A1226E
:1036C3008F2F8C308D311238747FCC123411AF2F81
:1036D300123411AF31123411E530FF1234111238A4
:0236E300A12222
:103319008F378C388D398B3A8A3B893C1238747FC8
:10332900CC123411AF37123411AB3A053CE53CAA43
:103339003B7002053B14F91210B8FF123411E5393C
:0F33490015397002153814453870DE1238A1227C
:103699008F3AE4F53B1238747FCC123411200C14A4
:1036A900AF3A1234111238747FCD123411D21C1270
:0A36B90034FC8F3B1238A1AF3B2216
:1033D5008F2FE4F530F5311238747FCC123411207B
:1033E5000C22AF2F1234111238747FCD123411C252
:1033F5001C1234FC7530008F31D21C1234FCEFFEE8
:0C340500E4EE42301238A1AE30AF3122AC
:102E62008F378C388D398B3A8A3B893C1238747F84
:102E7200CC123411AF371234111238747FCD1234A0
:102E820011D3E5399401E53894004008E539153944
:102E920070021538C21C1234FCAB3A053CE53CAA60
:102EA2003B7002053B14F9EF1210FEE5391539703B
:102EB20002153814453870DCD21C1234FCAB3AAA25
:0B2EC2003BA93CEF1210FE1238A122C9
:103411008F42754308C296E54230E704D295800297
:10342100C2951238EEE54225E0F542D2961238EE09
:10343100D543E2C296D295120006D296120006C278
:0C3441000C309502D20CC296120006223C
:1034FC00D295120006753E08D296E53D25E0F53DC5
:10350C00309503433D011238EEC2961238EED53E8B
:10351C00E7201C04C2958002D295120006D29612A6
:07352C000006C296AF3D222C
:0F387400D295D296120006C295120006C2962275
:0D38A100C295120006D296120006D29522A2
:050006007F0ADFFE226D
:0138EE0022B7
:101E80004B434D5F504F5745525F4F4E0D0A004B2D
:101E9000434D5F524541445F495251204572726F34
:101EA000720D0A004B434D5F434C4541525F49520E
:101EB0005120253032780D0A004B434D5F504C4184
:101EC000595F53544154555320253032780D0A0040
:101ED00053455420004D4B434D5F48646D69526536
:101EE0006D6F76653A25640D0A004B434D5F535282
:101EF000435F56414C49443A25303478204C617355
:101F0000743A253034780D0A004B434D5F535243E9
:101F10005F56414C4944203D204C6173743A253052
:101F200034780D0A0003C500080006230031520072
:101F300075000000802F80005C00000F80002C00E6
:101F4000805A80000800005880003200000600809F
:101F5000258000B400000D0105080064005E01E862
:101F600003E40C102700101112303120212224002C
:101F700001101112130002030105070604191817B6
:101F800016151413121100010203040506070809AF
:101F900003040506080A0F19326400020406080A41
:041FA0000C0D0E0F07
:0838DA00E4900052F00235D326
:1035D3007D017F051237DCE4FD7F02120E3090007F
:1035E300537464F0E4900049F0900060F09000069A
:1035F300F0A3F090008C740AF07BFF7A1E798002AE
:0236030032840F
:1019F4008F24309403021B887F011236998F25AD02
:101A0400257F031237DC300C097BFF7A1E798F02A5
:101A140032847BFF7A1E79A4E4852545F544F54399
:101A2400F542123284E5255401D394004003121781
:101A3400F6E5255402D39400404C7F061236999063
:101A44000049EFF07F07123699900060EFF09000A4
:101A540053E07009201406FD7F07120E30900049F0
:101A6400E0700312384E122DF512306E900048E0EB
:101A7400FF64046004EFB4050D7F991233D5900020
:101A840030EEF0A3EFF0E5255408D39400400312A0
:101A94002479E5255404D3940040187F2F123699F5
:101AA40090002FEFF0900037E0B43807E4FD7F3862
:101AB400120E30E5255410D394004007E4FD7F0D49
:101AC400120E30E5255440D3940040667F12123341
:101AD400D5900050EEF0A3EFF04E6009E4FD7F13C3
:101AE400120E30804D900048E0B4040A900032E0B9
:101AF400FEA3E0FF800890004CE0FEA3E0FF8E27E9
:101B04008F2890003DE475F001121187FEC3E5F0C3
:101B14009528EE95274007E490003DF0A3F090004F
:101B24003DE0FCA3E0FD7F101236C3E4FD7F1212FA
:101B34000E30E5255420D39400401D7F0E123699B3
:101B440090002BEFF07BFF7A1E79B9E4852545F5EB
:101B540044F543F542123284E4D39400E494004003
:101B6400157FA01233D58E278F28E527FD1232D496
:101B74009000347407F0E4D39400E4940040057FAB
:051B8400FF12360522EE
:1017F6007F201236998F2B300C06E4FDFF020E3047
:101806007F81123699900085EFF0AD2B7F20122252
:10181600B8900048EFF07F2F12369990002FEFF026
:101826007F2C123699900028EFF0E4F529AD297F38
:10183600091222B88F2CE52C2430FF1236998F2BF3
:10184600AD2B7F301222B8747C252CF582E434004F
:10185600F583EFF00529E529C3940840D07F3912B6
:1018660036998F2BE52B540FFD7F391222B8900045
:101876005AEFF0E52BC4540FFD7F391222B89000C1
:101886005BEFF07F3A1236991222AF90005CEFF0D0
:101896007F3B1236991222AF90005DEFF07F38122F
:1018A60036998F2BAD2B7F381222B890005EEFF061
:1018B6007F3C1236991222AF90005FEFF07F241220
:1018C60036998F2CAD2C7F241222B87B007A0079B2
:1018D6002D7D047C007F40122E6290002DE52DF0B8
:1018E600A3E52EF0900087E52FF0900052E530F04A
:1018F600FDE4FF1236687D507F2E1237DC7D467F71
:10190600251237DC7D467F261237DC752D44752E71
:1019160044752F30E4F530FB7A00792D7D04FC7F89
:1019260080123319E4F52AE4F529E529901F259359
:10193600FF742E2529F8A6070529E529B405EBE548
:101946002A04F52D7B007A00792D7D067C007F8B9D
:10195600123319E4F529E529901F2A93FF742E25E1
:1019660029F8A6070529E529B409EBE4F529742E1B
:101976002529F8E6FFE52A75F009A42433F582E463
:10198600341FF583E5822529F582E43583F583E462
:10199600934FF60529E529B409D4E52A04F52D7BEC
:1019A600007A00792D7D0A7C007F8C123319052A76
:1019B600E52AC39404500302192D7BFF7A1F795739
:1019C6007D0E7C007F8E123319E4900006F0A3F0A2
:1019D600C201C214C206FD7F02120E30900053747B
:0E19E6000AF012306E122DF57FFF1236052228
:102C27007BFF7A1E79D0123538E4F527AD277F046C
:102C370012370712000E7FFF1238D17FFF1238D1EB
:102C47000527E527C3946440E3E4F529F52AF52B26
:102C5700752C02FB7A0079297D04FC7F4012331919
:102C67007D277F2F1237DCE4F527E5272430FFE4A3
:102C7700FD1237DC0527E527C3940840ED7DAB7FC0
:102C8700241237DC7D017F051237DCE4FD7F021259
:092C97000E30900053741EF0226F
:102ECD00EC5EFCED5F4C6060900006E05EFCA3E004
:102EDD005F4C7054900048E0FDC394065014ED947F
:102EED0009400FED6404600AED6405600590008CE7
:102EFD00EDF0E4B5070CEEB401089000487406F04F
:102F0D008016E4B5070CEEB402089000487407F083
:102F1D0080069000487408F0E4900037F090004867
:0B2F2D00E0FF1228EC7F01227F002251
:10339700EC5EFCED5F4C7033900006E05EFEA3E050
:1033A7005F4E602790008CE0FD640A601B7F20124F
:1033B7002AA1AD077F201237DC7BFF7A1E79D590D3
:0E33C700008CE0F5421232847F01227F00224A
:102791008E2B8F2CE52B5CFEE52C5D4E7003022801
:1027A10042900006E0552BFEA3E0552C4E6003023B
:1027B1002842E52C6420452B70047F9680027F9788
:1027C1001233D58E2D8F2EE52E452D605E9000485B
:1027D100E0FF6404600AEF6405600590008CEFF08F
:1027E100E52C6420452B70129000487404F0900091
:1027F10032E52DF0A3E52EF080109000487405F02D
:1028010090004CE52DF0A3E52EF0900048E0FD7F0F
:1028110020122AA1AD077F201237DCE490003DF0A1
:10282100A3F0FDFC7F101236C38013E52C64204514
:102831002B70047F0E80027F10E4FD120E307F01A9
:04284100227F0022D0
:10300B008E2B8F2CE52B5CFEE52C5D4E70529000C9
:10301B0006E0552BFEA3E0552C4E6044E52C6420B6
:10302B00452B7008900032F0A3F08007E490004C21
:10303B00F0A3F090008CE0FD640A600E7F20122A52
:10304B00A1AD077F201237DC8013E52C6420452BC4
:10305B0070047F1180027F11E4FD120E307F01227C
:03306B007F0022C1
:102479007F1C1233D58E298F2A900006E0652970BA
:1024890004A3E0652A70030225377BFF7A1E79EAE7
:10249900E4852A45852944F543F542900006E0FE86
:1024A900A3E0FFE48F498E48F547F546123284AD23
:1024B9002AAC297F007E01122ECDEF7017AD2AAC10
:1024C90029FF7E02122ECDEF700AAD2AAC29FF7EBC
:1024D90004122ECDAD2AAC297F007E01123397ADAF
:1024E9002AAC297F007E02123397AD2AAC297F00DE
:1024F9007E04123397AD2AAC297F407E00122791C2
:10250900EF700AAD2AAC297F20FE122791AD2AACC3
:10251900297F207E0012300BAD2AAC297F407E0036
:1025290012300B900006E529F0A3E52AF0227BFF83
:102539007A1F7909E4852A45852944F543F542122C
:03254900328422B7
:1032D4008D29EF24E0602524187039A206E433FF19
:1032E400E52954016F6003023729E52930E225906E
:1032F40000377438F0AD297F080237DCAD297F2010
:103304001222B8900048EFF01238E21238AEE4FD11
:05331400FF120E302243
:102AA100EF24F7602524E5602F24F9601624FB60EC
:102AB1002024F8606714605D24197067ED901F652C
:102AC10093FF22ED901F6F93FF22ED901F7593FFEF
:102AD10022ED901F7D93FF22E4F540900044E0D366
:102AE10094004003434001900042E0D3940040032E
:102AF100434002900043E0FF25E025E04240900082
:102B010045E0FFC454F04240A3E0FFC4333354C056
:102B11004240AF4022ED901F9A93FF22ED901F900B
:062B210093FF227F002259
:0922AF008F2BE52B540FFD7F3845
:1022B800E4FEEF24F7604A24E5607024F9602D24D9
:1022C800FB605324F8700302237D14700302236813
:1022D80024196003022392EE901F6593B50503AF9E
:1022E80006220EEEC3940A40EE7F0022EE901F6F86
:1022F80093B50503AF06220EEEC3940640EE7F01A8
:1023080022EE901F7593B50503AF06220EEEC39417
:102318000840EE7F0022EE901F7D93B50503AF06BF
:10232800220EEEC3941340EE7F0022ED30E1047FCD
:102338000180027F00900042EFF0ED13135403A3D5
:10234800F0ED30E0047F0180027F00900044EFF060
:10235800EDC45403A3F0EDC413135403A3F0802A6F
:10236800EE901F9A93B50503AF06220EEEC3940AAA
:1023780040EE7F0022EE901F9093B50503AF062232
:0D2388000EEEC3940A40EE7F00227F00227B
:103637008B418A428943EF6027AB410543E543AAA3
:10364700427002054214F91210B8FEAB440546E574
:1036570046AA457002054514F9EE1210FE1F80D6E2
:013667002240
:103569004D6978496E707574536F757263653A2544
:103579006420523A253032780D0A004D6978496E37
:10358900707574536F75726365423A256420523AB7
:0535990025640D0A008D
:0138EF0022B6
:0338E8008F242208
:1028EC008F2B90006FE0542CF090006EE054F8F0B9
:1028FC00A3E054FBF01238E21238AE900037E070CF
:10290C0053E52BB40A0F900048E004F0D39409402F
:10291C0010E4F0800C90008C740AF0900048E52BC9
:10292C00F0900048E0FD7F20122AA1AD077F201215
:10293C0037DC7F20123699E48F49F548F547F54688
:10294C007BFF7A357969852B45F544F543F54212C1
:10295C003284801F7BFF7A357984900037E0FFE466
:10296C008F45F544F543F542F549F548F547F546ED
:09297C00123284E4FDFF020E306A
:1036E5008F391238AED218E539600D753A3030068B
:1036F5000AC206433A028003753A20AD3A7F0802B2
:0237050037DCAF
:10374900AD07EDC394FF500E7F09122AA1EF441073
:0E375900FD7F090237DCE4FD7F091237DC2218
:103785001238E21238AE900028E004F0D3940440D9
:0D37950002E4F0900028E0FD7F2C0237DCFC
:1030CB008F3C8D3D1238E2E53D6016747C253CF556
:1030DB0082E43400F583E0C394125019E004F080CD
:1030EB0014747C253CF582E43400F583E0D3940022
:1030FB004003E014F0AD3C7F09122AA18F3E747C93
:10310B00253CF582E43400F583E0FD7F30122AA1E3
:0A311B00AD07E53E2430FF0237DC6B
:102395008F3C8D3D1238E2E53C24C7F53FE53D60B5
:1023A50016745A253FF582E43400F583E0C3940999
:1023B5005019E004F08014745A253FF582E4340086
:1023C500F583E0D394004003E014F0E53C24C660B7
:1023D5001614603814605114700302246514606487
:1023E5002405600302247890005AE0FD7F39122A03
:1023F500A18F3E90005BE0FD7F39122AA18F3FE55A
:102405003FC454F0453EFD7F390237DC90005CE067
:10241500FD7F39122AA18F3EE4F53FE53FC454F014
:10242500453EFD7F3A0237DC90005DE0FD7F3912C5
:102435002AA18F3E753F08E53FC454F0453EFD7F18
:102445003B0237DC90005FE0FD7F39122AA18F3E09
:10245500753F01E53FC454F0453EFD7F3C0237DC46
:1024650090005EE0FD7F38122AA18F3EAD3E7F3899
:042475001237DC221C
:0D38AE00301409C214E4FD7F091237DC223A
:0638E200300602C20622BE
:0A38C700205245534554000102044D
:0138F00022B5
:100601008F24122BAB900053E0D39400401630019D
:1006110003020B30E5245402D394005003020B3043
:10062100E014F02230012530190BC2197809E6B423
:1006310059031235D3200703020B30C207D21378B6
:1006410014E664186003020B300235D3200703025D
:1006510006E1C207D2137814E624F8603524F76066
:100661002814601C24FE600F24EC60432410707079
:100671007F0A1228EC8069E4FD7F03120E3080604E
:10068100E4FD7F04120E308057E4FD7F05120E3029
:10069100804E900037E0FFC39438400EEFD3943E74
:1006A1005008E4FDFF120E30803612372980319058
:1006B1000037E0FFC394384006EFD3943A4009E491
:1006C100FD7F38120E308018900037E004F0D3948B
:1006D1003A40037438F0900037E0FFE4FD120E3029
:1006E1007816E6600C06E6D3943C4005E4F67812F1
:1006F100F6201903020B08C2197809E61212ED0A55
:10070100FC000B03030AE00408B30508DC060AE752
:10071100070AC6080ACB0B0AAB0C086D0D08670E59
:100721000A6910088A11086A120A73130A87140ADF
:100731003615094A160A901707E81807BE1908B9AD
:100741001A09DA1B0AF5400AEE420AD94408AD45F6
:100751000AD2460ABD480AB44A0AA24C07EB4D0A1E
:10076100994E0A5F500829510A55520A7D5409FCD5
:100771005507A558077F5909B85A00000B08B2015F
:1007810030010AE4FD7F08120E30020B087D017F63
:10079100051237DCE4FD7F02120E30900053741E07
:1007A100F0020B08900037E0B409047F0480027F57
:1007B100008F25AD257F09120E30020B087BFF7AD1
:1007C1003879C712353812000E122C27020B089007
:1007D1000037E004F0D3943E40037439F0900037C1
:1007E100E0FFE4FD120E30020B08900037E0FFC37A
:1007F100942E4012EFD39435500C781676017D0477
:10080100120E30020B08900037E0FFC3942450030E
:10081100020B08EFD3942B4003020B0878167601E4
:100821007D04120E30020B08900037E0FFC3942EB6
:100831004012EFD39435500C781676017D03120ED9
:1008410030020B08900037E0FFC394245003020BE1
:0C08510008EFD3942B4003020B0878162C
:10085D0076017D03120E30020B08020B08020B0805
:10086D0078167601900037E0B438047F0480027F5B
:10087D00008F25AD257F38120E30020B0830060390
:10088D00020B0878167601900037E0B438047F0328
:10089D0080027F008F25AD257F38120E30020B08A8
:1008AD001237A2020B08123729020B08900037E00D
:1008BD00FFC39446400FEFD394505009E4FDFF124F
:1008CD000E30020B08E4FD7F46120E30020B08902D
:1008DD000037E0FFC394465003020B08EFD394504A
:1008ED004003020B08E004F0E0B4480C900043E034
:1008FD007006900037E004F0900037E0B4490C909A
:10090D000045E07006900037E004F0900037E0B449
:10091D004A0C900046E07006900037E004F090001D
:10092D0037E0D3945040037446F0900037E0FFE475
:10093D00FD120E3090004F7432F0020B089000370C
:10094D00E0FFC394465003020B08EFD394504003CD
:10095D00020B08E014F0E0B44A0C900046E070067B
:10096D00900037E014F0900037E0B4490C9000454A
:10097D00E07006900037E014F0900037E0B4480CBA
:10098D00900043E07006900037E014F0900037E0DF
:10099D00C3944650037450F0900037E0FFE4FD120D
:1009AD000E3090004F7432F0020B08900037E0FFCC
:1009BD00C394465003020B08EFD394504003020B2F
:1009CD0008781676017D03120E30020B0890003761
:1009DD00E0FFC394465003020B08EFD3945040033D
:1009ED00020B08781676017D04120E30020B08906A
:1009FD000037E0FFC3942E4006EFD39435400D121F
:100A0D0038AEE4FD7F2E120E30020B08900037E059
:100A1D0024D2FF122D158F26E526242EFF900037A8
:100A2D00F0E4FD120E30020B08B21A301A0B7FFFE4
:100A3D001237BF12000E020B0812306E122DF5E4A4
:100A4D00FDFF120E30020B087DA07F0F1237DC0266
:100A5D000B087DB47F0F1237DC020B087D107F0F62
:100A6D001237DC020B087D207F0F1237DC020B08DA
:100A7D007D807F0F1237DC020B087D607F0F1237F0
:100A8D00DC80787D507F0F1237DC806FE4FD7F05B1
:100A9D00120E308066E4FD7F0B120E30805DE4FD9A
:100AAD007F0C120E308054E4FD7F03120E30804B0C
:100ABD00E4FD7F04120E3080421231D7803D7F0558
:100ACD001228EC80367F061228EC802F7F07122823
:100ADD00EC80287F081228EC80217F091228EC80F9
:100AED001A7F011228EC80137F021228EC800C7FF4
:100AFD00031228EC8005E4FF1228EC301B25C21BE5
:100B0D00900037E0FFC394384012EFD3943A500C65
:100B1D003011047D0480027D03020E30E4FD7F3828
:040B2D00120E302252
:10372900B2063006047F0480027F03AD077F0A12C8
:103739000E30200607E4FD7F38120E301238AE2213
:1037A200B21430140CE4FD7F24120E30E4FF023711
:0D37B20049E4FDFF120E307FFF123749225F
:1031D700900048E0C39406504790008EE0FFC41368
:1031E7005407F527EF5407F528E4F5290527E527C0
:1031F700D394024003E4F527E5279038CE9355286A
:10320700600EE527C43354E04528FD7F210237DCF3
:103217000529E529C3940340D3E4FD7F06020E3058
:07322700E4FDFF120E30224E
:102BAB00780EE6FF7008C2A0D2A1D2A28012EFB4B9
:102BBB000108D2A0C2A1D2A28006D2A0D2A1C2A2E9
:102BCB00E4FE2082010E208303430602208403438C
:102BDB000604208503430608EE602EEFC454F02E46
:102BEB00FE7814E6B5061690008DE004F0D3940839
:102BFB004029201302D207E490008DF022C213E487
:102C0B0090008DF07814A60622780E06E6D3940277
:0C2C1B004002E4F6C213E490008DF022A9
:102CA000200F1830871030860D780D06E6D3940378
:102CB0004004E4F6D20FC20AC20B22A2873086017A
:102CC000B3503A300F25A2869211A211301501B3EC
:102CD0005005780BE67002D21BA2119215780B7684
:102CE00003E4780DF6C20FC20B800F300B0A780B8D
:102CF0007603E4780DF6C20FD20BC20A22208714A5
:102D0000208611300A0A780B7603E4780DF6C20F9C
:052D1000D20AC20B22F3
:1015B9004B434D2D4E4F00202D4F46462D002048C0
:1015C900454C4C4F004D5554452020004D55544530
:1015D9002D2D00564F4C20202000564F4C20004EF8
:1015E9004F4953452000465253502000434553501C
:1015F9002000535753502000535253502000424B60
:10160900535020004C504620004C4950530046523C
:10161900444C20004345444C20005357444C20007F
:10162900424B444C2000496E536F757263653A25ED
:10163900642025642025640D0A005649444530205C
:10164900002020202020200050434D00322F34005C
:1016590020464C41542000534F554E44004E4947B3
:101669002D4F4E004E49472D4F46004657444F4E89
:1016790045004D503300202000425249474800465A
:101689004C547443455474535754744652547453C8
:1016990052547442525474424C5474534C5474000E
:1016A900464C5472434554725357547246525472BD
:1016B9005352547242525472424C5472534C5472A3
:1016C900004D4943314D4943324543484F524550F6
:1016D9005444454C5952455642004155582D494E9E
:1016E9004F5054494341434F412D4431434F412DBC
:1016F9004432202D53442D20202D5553422D48444A
:101709004D492D3148444D492D3248444D492D33D9
:1017190048444D492D410020204849464920322B53
:10172900314348004D4F444500322F30312F30327C
:101739002F30332F30322F31332F31322F32332F95
:1017490032332F33332F34322F33322F3400534473
:101759002D494E2053442D4F555455442D494E2063
:1017690055442D4F55540033324B34384B35364B95
:1017790036344B38304B39364B31313231323831DE
:101789003630313932323234323536333230333819
:1017990034000002070000243F000600DB00CF00F0
:1017A900E600ED00FD000700FF00EF00F7128F00D3
:1017B90039120F00F900F100BD00F61209001E0CE4
:1017C90070003805360936003F00F3083F08F3007A
:1017D900ED1201003E243028362D0000EE240900C8
:0D17E900C0240012C00010181C1C1E1E1F82
:10312500C2A5C2937F011238D17F401238107F01AA
:103135001238D1D2937F011238D1C2937F01123850
:10314500D17FC01238107F011238D1E4F524E4FF95
:103155001238107F011238D10524E524C39410409C
:10316500ED7F0A1238D1D293E4FDFF123668E4FFF1
:093175001237BFE4900034F0228F
:102615008F24300E05C20E12000EE5245402D39409
:102625000050030226D7900034E0601514F07007BF
:102635007F01123605800A900034E05401FF1236FE
:1026450005900053E0D3940040030226D730060CD2
:1026550090004FE07006FD7F0A120E3020015B905E
:10266500004FE0605514F07027201407FDFF120E8F
:10267500308047900037E024DCFF122D158F25E5CB
:10268500252424FFE4FD120E30AF25123749802A98
:1026950030002790004FE0FF75F00584E5F0701AD3
:1026A500EF75F00584F525900037E0FFE52530E06E
:1026B500047D0280027D01120E30200115200612D4
:1026C50020140F30050C900049E0D394004003120C
:0326D500317E2231
:100E30008F378D38E538700890004F7414F0C20079
:100E4000C205C2A51237F690006EE0540FF0E537E8
:100E50001212ED0EF6000F15010F27020F6B030F94
:100E600078040F85050F90060F9C070F1B080F3C99
:100E7000090FD10A0FA20B0FA80C0FAE0D0FB40E65
:100E80000FB40F0FB4100FB4110FBF120FC5131012
:100E90007A24107A25107A26107A27107A28107A68
:100EA00029107A2A107A2B10832E10832F1083306A
:100EB0001083311083321083331083341083351044
:100EC0002D38108F39108F3A108F3B108F3C108FB8
:100ED0003D108F3E10A74610A74710A74810A749FE
:100EE00010A74A109B4B109B4C109B4D109B4E1013
:100EF0009B4F000010B1200C05122FA280097BFF30
:100F00007A1579B9123538E4900037F090004FF037
:100F1000D2050210B1122FA20210B17BFF7A15790F
:100F2000C01235380210B17BFF7A1579C7123538F7
:100F300012000E90004F740AF00210B1E538B404AC
:100F40001D90004F7414F0900052E004F0D394020E
:100F50004002E4F0900052E0FD7F431237DC900045
:100F600052E0FD7F011236680210B11238AEAD3882
:100F70007F031220B70210B11238AEAD387F0412D1
:100F800020B70210B11238AE7F0412359E0210B1A4
:100F900090004F7432F01238260210B11228450228
:100FA00010B11234890210B11233580210B1123844
:100FB000830210B1E53724F2FF12383B0210B11260
:100FC000322E0210B190004F7414F012254C021012
:100FD000B1E5386003B4040890004F7450F0D200BB
:100FE000E538C394024005E538B4040B7BFF7A155D
:100FF00079CE123538800EE538B402097BFF7A15B8
:1010000079D5123538E538B4040A7D037F081237E4
:10101000DC0210B1E538640360030210B190004FA8
:101020007414F07D027F081237DC0210B1E538C37A
:1010300094034015900037E0B4380EE538B404044A
:101040007F0180027F001236E5E538B4020B7BFF9A
:101050007A1579DC12353880587BFF7A1579E312DE
:10106000353890002FE0FD7F04123707E5387041D6
:1010700090004F7450F0D2008037AD38AF37122A4D
:1010800018802E1238AEAD38AF3712298580221263
:1010900038AEAD38AF37122D8580161238AEAD3868
:1010A000AF37121D1C800A1238AEAD38AF3712218F
:0810B000C5900037E537F0227E
:103358007F091236998F39301413900037E0B40C76
:103368000C0539E539D394074003E4F539AD397FC5
:10337800091237DC7BFF7A1579E8123538E53912FE
:0F338800133A301409E4900035F0FF1237492250
:102D1500EFB407005067902D22F8282873022D374D
:102D2500022D4C022D58022D5B022D70022D7C02C6
:102D35002D7F900043E060037F0122900044E06016
:102D4500037F02227F0322900044E060037F02227A
:102D55007F03227F0322900045E060037F042290D9
:102D65000046E060037F05227F0022900046E06078
:102D7500037F05227F00227F06227F07227F002214
:102A18008F398D3AE53AC39403401E900037E0B5EC
:102A2800391724DCFFE53AB404047D0180027D00F7
:102A38001230CB90004F7450F074DC2539F539759D
:102A4800F004A42488F97416123533E53AB4020E5A
:102A58007D207F0412133F7D207F0502133F747C85
:102A68002539F582E43400F583E0F53BC394095039
:102A7800147D2D7F0412133FC37439953BFD7F05E8
:102A880012133F80117D207F0412133FE53B24275A
:092A9800FD7F0512133FD200225C
:102985008F398D3AE53AC39403401E900037E0B580
:10299500391724D2FFE53AB404047D0180027D0095
:1029A5001230CB90004F7450F074D22539F539753B
:1029B500F004A424A9F97416123533E53AB4020ECD
:1029C5007D207F0412133F7D207F0502133F747C19
:1029D5002539F582E43400F583E0F53BC3940950CD
:1029E500147D2D7F0412133FC37439953BFD7F057C
:1029F50012133F80117D207F0412133FE53B2427EE
:102A0500FD7F0512133FE53A700890004F7450F0B2
:032A1500D20022CA
:102D85008F398D3AE53AC39403401D900037E0B57D
:102D95003916E53AB404047D0180027D00AF39128D
:102DA500239590004F7450F074C72539F53975F0A7
:102DB50004A424CAF974161235337D207F04121336
:102DC5003FE53AB402077D207F0502133F745A257B
:102DD50039F582E43400F583E0F53B2430FD7F05C9
:102DE50012133FE53A700890004F7450F0D200225C
:101D1C008F398D3A90006EE04450F0A3E0F09000C3
:101D2C004F7450F07D207F0412133F7D207F0512ED
:101D3C00133FE53924B46056147003021DD114709E
:101D4C0003021E08147003021E3F147003021E7659
:101D5C0024056003021E7F7BFF7A1579EF1235385C
:101D6C00E53AC39403401B900042E004F0D3940185
:101D7C004002E4F0E4FD7F24122AA1AD077F241277
:101D8C0037DCE4FF12344DAD077F0502133F7BFFB8
:101D9C007A1579F5123538E53AC39403401B900057
:101DAC0043E004F0D394024002E4F0E4FD7F2412FB
:101DBC002AA1AD077F241237DC7F0112344DAD0709
:101DCC007F0502133F7BFF7A1579FB123538E53A14
:101DDC00C39403401B900044E004F0D394014002F0
:101DEC00E4F0E4FD7F24122AA1AD077F241237DC36
:101DFC007F0212344DAD077F0502133F7BFF7A162D
:101E0C007901123538E53AC39403401B900045E044
:101E1C0004F0D394024002E4F0E4FD7F24122AA1E2
:101E2C00AD077F241237DC7F0312344DAD077F05DD
:101E3C0002133F7BFF7A167907123538E53AC394C3
:101E4C0003401B900046E004F0D394024002E4F0FF
:101E5C00E4FD7F24122AA1AD077F241237DC7F0416
:101E6C0012344DAD077F0502133F7BFF7A16790DB7
:041E7C0012353822C1
:1021C5008F398D3AE53924B9603A14605A14607A2A
:1021D5001470030222722404600302229390006E9D
:1021E500E04440F0A3E0F07BFF7A1679121235380F
:1021F500E53AC394035003022293AD3AE4FF122F4C
:10220500380222937BFF7A16791712353890006EC3
:10221500E04450F0A3E0F0E53AC394034070AD3AD2
:102225007F01122F3880677BFF7A16791D123538AA
:1022350090006EE04450F0A3E0F0E53AC39403400B
:102245004DAD3A7F02122F3880447BFF7A167923F1
:1022550012353890006EE04450F0A3E0F0E53AC343
:102265009403402AAD3A7F03122F3880217BFF7AF1
:1022750016792912353890006EE04450F0A3E0F04D
:10228500E53AC394034007AD3A7F04122F38900016
:102295004F7432F074F22539F582E434FFF583E0AA
:0A22A50075F005A4FD7F0402370761
:102FA20090008CE0FFB40A08900048E0FEFF800029
:102FB2008F3E7BFF7A16792FE48F45F544F543F572
:102FC2004290008CE0FFE48F49F548F547F54690C2
:102FD2000048E0FFE48F4DF54CF54BF54A12328480
:102FE200E53E64046005E53EB4050990006FE044E7
:102FF20020F0800790006FE054DFF0E53E75F006A8
:09300200A424E3F974160235332D
:103826007BFF7A16794312353890008EE0FFC41379
:05383600540702133AE3
:1020B7008F398D3A900037E065397078E5396403D8
:1020C700702F90002DE06401FFF0FD7F2B1237DCAD
:1020D70090002DE0FD7F401237DC900087E064011F
:1020E70070030221947401F0FD7F421237DC022154
:1020F7009490002EE004F0C394044002E4F09000B2
:102107002EE0FFC39403500BEF4410FD7F2B1237D3
:10211700DC80077D307F2B1237DC90002EE0FD7FBF
:10212700411237DC900087E06063E4F0FD7F4212E4
:1021370037DC8059900037E0B4041DE539B4031843
:1021470090002DE0FD7F2B1237DC9000877401F0A3
:10215700FD7F421237DC8035900037E06403702D35
:10216700E5396404702790002EE0FFC39403500BF9
:10217700EF4410FD7F2B1237DC80077D307F2B1259
:1021870037DCE4900087F0FD7F421237DCE539B495
:10219700031290002DE075F006A42420F97417129D
:1021A700353380177BFF7A17792D1235387D207FDD
:0E21B7000412133F90002EE012133A02306E15
:10284500900049E0FF540FC3940250030228E8E4C6
:10285500F53DEFC4540F75F003A4F5397BFF7A16E7
:10286500794A123538122DF5900049E0540F24FDB0
:10287500602414604314604024FE605E24F76016F3
:1028850014601324FD24FD502F241570597BFF7A05
:1028950016795102353874322539F9E43417FA7B43
:1028A500FF75440075450075463A7F031236377B40
:1028B500007A00793A02353874322539F9E434174B
:1028C500FA7BFF75440075450075463A7F0312365D
:1028D500377B007A00793A0235387BFF7A167955CD
:0728E500023538122FA22278
:10344D00AE07EE700C900042E060037F4C227F537C
:10345D0022BE020C900044E060037F59227F4E2271
:10346D0074422EF582E43400F583E0FDB402037F4F
:0C347D004C22EDB401037F53227F4E224D
:10359E00EFC39403400A900037E0B4050312378559
:1035AE00900028E070097BFF7A1679590235387B36
:1035BE00FF7A167960123538900028E02430FD7FAE
:0535CE000512133F226D
:103489007F231236998F39900037E0B40B16E5394E
:10349900C3943250057539328003E4F539AD397F6B
:1034A900231237DCE53960097BFF7A167966023524
:0B34B900387BFF7A16796D123538223F
:0F38830090004F7432F07BFF7A1679740235385B
:10383B0090004F7432F0EF75F006A42457F974170B
:03384B0002353310
:10322E0090004F7414F090006EE054BFF07BFF7A64
:10323E0016794A12353890003EE02401FD90003D8B
:10324E00E03400FCE4FF1226D88F4005407D2F129B
:10325E00133F900048E0B4040D900032E0FEA3E06E
:10326E00FFAC06FD800B90004CE0FEA3E0FFAC0629
:06327E00FDAF400226D85E
:10254C00C3900051E09403900050E09400500302BB
:10255C00322EC3900051E09405900050E09400504E
:10256C0064900060E0FF131313541FF53990004979
:10257C00E0540F640A704E90004F7414F0E539D398
:10258C0094004041E5399410503B7544007545006A
:10259C0075463A7BFF7A16797B7F03123637E5391D
:1025AC0075F003A4246DF9741735F0FA7BFF7544AC
:1025BC000075450075463D7F031236377B007A0067
:1025CC00793A02353890004F740AF07BFF7A16790D
:1025DC007F123538900050E0FEA3E0FF7C007D3C7C
:1025EC00121132AD077F02123707900050E0FEA3A4
:1025FC00E0FF7C007D3C1211327F04123707900003
:09260C006EE04440F0A3E0F0226E
:103668008D39EFD39400400E7BFF7A16798212359C
:1036780038E53912133AC2937F011238D1E53990EF
:10368800179B934488FF1238107F011238D1D293C8
:01369800220F
:102F3800EF70047C0180027C00EC146011146012B4
:102F4800146013146014240470127E13800E7E091A
:102F5800800A7E0980067E0980027E09BD042474E9
:102F6800382FF582E43400F583E0D39E4002EEF07A
:102F780074382FF582E43400F583E0C39E501AE0DC
:102F880004F022BD031374382FF582E43400F5836E
:0A2F9800E0D394004003E014F0229F
:10306E00900087E0600790002DE0FF800790002E13
:10307E00E02402FF90006FE0542CF0EF1460101467
:10308E00601614601C1460221460282405702B90A6
:10309E00006FE04401F0802290006FE04402F08067
:1030AE001990006FE04480F0801090006FE0444073
:0D30BE00F0800790006FE04410F0D20E2269
:102DF50090006EE054F8F0A3E054FBF0900049E039
:102E0500540F24FD603514603B14603824FE604087
:102E150024F7602714602424FD24FD502724157011
:102E250039900085E0FF64536030EF6456602B9065
:102E3500006EE04404F0A3E0F0801F90006FE044D2
:102E450004F0801690006EE04401F0A3E0F0800AE3
:0D2E550090006EE04404F0A3E0F0D20E22E5
:103605008F37E537B4FF117F0D123699EF30E70498
:103615007F0180027F008F37E537600C90006EE0F8
:103625004408F0A3E0F0800790006EE054F7F0D274
:023635000E2263
:0535330035F0FA7BFFFA
:103538008B418A428943E4F545AB410543E543AAFB
:10354800427002054214F91210B8F5446012AD44F5
:10355800AF4512133F0545C3E5456480948640D9BD
:013568002240
:1026D8008F418C428D43AE42AF437C277D1012114F
:1026E80032EF4E601AEF2430FDAF41054112133F1F
:1026F800AE42AF437C277D101211328C428D43AE1F
:1027080042AF437C037DE8121132EF4E601AEF248A
:1027180030FDAF41054112133FAE42AF437C037D0C
:10272800E81211328C428D43AE42AF437C007D6487
:10273800121132EF4E601AEF2430FDAF41054112FD
:10274800133FAE42AF437C007D641211328C428D40
:1027580043AE42AF437C007D0A121132EF4E601A3D
:10276800EF2430FDAF41054112133FAE42AF437C29
:10277800007D0A1211328C428D43AF410541E54379
:092788002430FD12133FAF412281
:103707008F408D41E54175F00A842430FD12133F47
:10371700E54004FFE54175F00A84E5F02430FD0239
:02372700133F4E
:05133A002431FD7F05D8
:10133F008F468D47E546C39403400302140AE547E1
:10134F00C394304012E547D39439500B74D02547DE
:10135F00F54704F548804CE547C39461400FE547D6
:10136F00D3947A5008E54724AAF5488036E547C359
:10137F009441400FE547D3945A5008E54724CAF5E6
:10138F00488020E54724D5601224FC6009240270B0
:10139F000F754825800D75482680087548278003EE
:1013AF00E4F548E54825E0249EF582E43417F583FB
:1013BF00E493FEE54625E02462F582E43400F583EC
:1013CF00EEF0A3E4F0E54625E02462F582E4340074
:1013DF00F583C083C082E0FEA3E0FFE54825E0244B
:1013EF009FF582E43417F583E493FDEEEF4DFFD0C4
:1013FF0082D083EEF0A3EFF00215B6E546C3940654
:10140F004003021540E547C394304066E547D39447
:10141F0039505F74D02547F54704F54825E0249EE1
:10142F00F582E43417F583E493FEE54625E0246264
:10143F00F582E43400F583EEF0A3E4F0E54625E011
:10144F002462F582E43400F583C083C082E0FEA3FA
:10145F00E0FFE54825E0249FF582E43417F583E4A7
:10146F0093FDEEEF4DFFD082D083EEF0A3EFF002AD
:10147F0015B6E5471212ED14C92D14CE4114D342FF
:10148F0014D84314DD4414E24514E74614EC471412
:10149F00F64814F14914FB4C15004E15054F150A6B
:1014AF0050150F52151453151954151E5515235950
:1014BF00150F72151974000015287547C0805D75DA
:1014CF0047F7805875477C8053754739804E75476D
:1014DF00DE80497547F980447547F1803F7547EFC6
:1014EF00803A75470680357547F6803075473880E6
:1014FF002B754737802675473F80217547F3801C32
:10150F0075475080177547ED80127547F8800D7538
:10151F00473E800875476E8003E4F547E54625E0B2
:10152F002462F582E43400F583E4F0A3E547F0800C
:10153F0076E546D39406401AE546940D5014E547D8
:10154F00C39401400DE547D394055006E547242683
:10155F00F548E54825E0249EF582E43417F583E449
:10156F0093FEE54625E02462F582E43400F583EE30
:10157F00F0A3E4F0E54625E02462F582E43400F5BB
:10158F0083C083C082E0FEA3E0FFE54825E0249FEF
:10159F00F582E43417F583E493FDEEEF4DFFD0822F
:0A15AF00D083EEF0A3EFF0D20E227D
:1037F600E4FFEF25E02472F582E43400F583E4F07B
:0A380600A3F00FEFC3940540E92280
:06389200131313541FFF85
:09389800EF54079017EE93FF2294
:10317E007B007A0079277D037C007F8F122E6230D0
:10318E000C030237F6AF27123898900072E4F0A3C2
:10319E00EFF0E527123892900074E4F0A3EFF0AF51
:1031AE0028123898900076E4F0A3EFF0E528123854
:1031BE0092900078E4F0A3EFF0AF291238989000C7
:0931CE007AE4F0A3EFF0D20E2226
:10384E00E4FFE4900072F0A3F00FEFC3940540F292
:03385E00D20E2265
:1037BF00E4FEEFFDEE25E02462F582E43400F583AC
:0D37CF00E4F0A3EDF00EEEC3940D40E622F1
:10000E00E4FF74082FF582E43400F583E4F00FEF7B
:10001E00C3941040ED900062E0FEA3E0FF30E007D5
:10002E00900016E04408F0EF30E10790000FE04436
:10003E0008F0EF30E207900008E04408F09000630B
:10004E00E030E30790000BE04408F0900062E0FE21
:10005E00A3E0FF30E407900013E04408F0EF30E532
:10006E0007900017E04408F0EF30E607900011E02B
:10007E004408F0900063E030E70790000EE044087B
:10008E00F0900062E0FEA3E0FFEE30E00790001576
:10009E00E04408F0EE30E107900014E04408F0EE82
:1000AE0030E20790000DE04408F0900062E0A330CB
:1000BE00E307900009E04408F0900062E0FEA3E040
:1000CE00FFEE30E40790000AE04408F0EE30E5075A
:1000DE00900010E04408F0900064E0FEA3E0FF30D2
:1000EE00E007900016E04420F0EF30E10790000F9B
:1000FE00E04420F0EF30E207900008E04420F0905A
:10010E000065E030E30790000BE04420F0900064BF
:10011E00E0FEA3E0FF30E407900013E04420F0EF90
:10012E0030E507900017E04420F0EF30E60790002E
:10013E0011E04420F0900065E030E70790000EE0FB
:10014E004420F0900064E0FEA3E0FFEE30E0079064
:10015E000015E04420F0EE30E107900014E044205A
:10016E00F0EE30E20790000DE04420F0900064E0E5
:10017E00A330E307900009E04420F0900064E0FE15
:10018E00A3E0FFEE30E40790000AE04420F0EE30EA
:10019E00E507900010E04420F0900066E0FEA3E03A
:1001AE00FF30E007900016E04410F0EF30E10790CA
:1001BE00000FE04410F0EF30E207900008E044102A
:1001CE00F0900067E030E30790000BE04410F090F1
:1001DE000066E0FEA3E0FF30E407900013E0441059
:1001EE00F0EF30E507900017E04410F0EF30E6072F
:1001FE00900011E04410F0900067E030E7079000A7
:10020E000EE04410F0900066E0FEA3E0FFEE30E05A
:10021E0007900015E04410F0EE30E107900014E076
:10022E004410F0EE30E20790000DE04410F0900024
:10023E0066E0A330E307900009E04410F0900066FA
:10024E00E0FEA3E0FFEE30E40790000AE04410F079
:10025E00EE30E507900010E04410F0900068E0FEEC
:10026E00A3E0FF30E007900016E04404F0EF30E129
:10027E000790000FE04404F0EF30E207900008E032
:10028E004404F0900069E030E30790000BE0440472
:10029E00F0900068E0FEA3E0FF30E407900013E06A
:1002AE004404F0EF30E507900017E04404F0EF301F
:1002BE00E607900011E04404F090006AE0FEA3E02F
:1002CE00FF30E007900016E04480F0EF30E1079039
:1002DE00000FE04480F0EF30E207900008E0448029
:1002EE00F090006BE030E30790000BE04480F0905C
:1002FE00006AE0FEA3E0FF30E407900013E04480C4
:10030E00F0EF30E507900017E04480F0EF30E6079D
:10031E00900011E04480F090006CE0FEA3E0FF300E
:10032E00E007900016E04402F0EF30E10790000F76
:10033E00E04402F0EF30E207900008E04402F09053
:10034E00006DE030E30790000BE04402F090006C8B
:10035E00E0FEA3E0FF30E407900013E04402F0EF6C
:10036E0030E507900017E04402F0EF30E60790000A
:10037E0011E04402F090006EE0FEA3E0FF30E007D3
:10038E00900016E04401F0EF30E10790000FE044DA
:10039E0001F0EF30E207900008E04401F090006FAA
:1003AE00E030E30790000BE04401F090006EE0FEB9
:1003BE00A3E0FF30E407900013E04401F0EF30E5D6
:1003CE0007900017E04401F0EF30E607900011E0CF
:1003DE004401F090006FE030E70790000EE044011A
:0403EE00F090006E1D
:1003F200E0FEA3E0FFEE30E007900015E04401F0DC
:10040200EE30E107900014E04401F0EE30E2079094
:10041200000DE04401F090006EE0A330E30790008D
:1004220009E04401F090006EE0FEA3E0FFEE30E44C
:1004320007900012E04420F0EE30E507900012E051
:100442004410F0EE30E607900012E04404F0900011
:1004520070E0FEA3E0FF30E00790000DE04404F0FE
:10046200EF30E107900014E04404F0EF30E207902F
:100472000015E04404F0900071E030E30790000EB4
:10048200E04404F0900072E0FEA3E0FF30E0079049
:100492000009E04480F0EF30E10790000DE0448075
:1004A200F0EF30E207900014E04480F0900073E037
:1004B20030E307900015E04480F0900073E030E4F0
:1004C2000790000EE04480F0900074E0FEA3E0FF8D
:1004D20030E00790000DE04402F0EF30E1079000B9
:1004E20014E04402F0EF30E207900015E04402F01D
:1004F200900075E030E30790000EE04402F09000B7
:1005020076E0FEA3E0FF30E007900013E04440F005
:10051200EF30E10790000BE04440F0EF30E207904B
:100522000008E04440F0900077E030E30790000FCD
:10053200E04440F0900077E030E407900016E04499
:1005420040F0900078E0FEA3E0FF30E00790001555
:10055200E04440F0EF30E10790000EE04440F0EF5D
:1005620030E207900011E04440F0900079E030E37F
:1005720007900017E04440F090007AE0FEA3E0FF0D
:1005820030E007900010E04440F0EF30E1079000C7
:100592000AE04440F0EF30E207900009E04440F006
:1005A20090007BE030E30790000DE04440F09000C3
:1005B2007BE030E407900014E04440F0C2937F01F6
:1005C2001238D17F401238107F011238D1D2937F76
:1005D200011238D1C2937F011238D17FC012381074
:1005E200E4F53974082539F582E43400F583E0FF37
:0F05F2001238100539E539C3941040E7D293222F
:103810007E08C290EF139291EFC313FFD2901EEE79
:06382000D3940050ED22DC
:10376700AE0753050FEDC3940A5006ED2430FFFD55
:0E37770022EE6005ED2457FF22ED2437FF22DD
:101B89008F698D6AE56A7029AF6EAE6DAD6CAC6B0D
:101B9900EC4D4E4F701BAB6FAA70A97174301210C7
:101BA900FEAB6FAA70A971900001E41211107F01B8
:101BB90022E4F572F573E56964646009E5696475A1
:101BC9006003021CB77579007578CA75779A7576BE
:101BD9003BE569B4643FE4FFFEFDE56B5480FC60BE
:101BE90034AB6FAA70A971AF7305738F82758300C7
:101BF900742D121110E56EFBE56DFAE56CF9E56BD4
:101C0900547FF8C3E49BF56EE49AF56DE499F56C9D
:101C1900748098F56B75740BAB79AA78A977A87657
:101C2900AF6EAE6DAD6CAC6B1212048F751574E5A9
:101C390074656A6004E5756003757201E572601A7E
:101C4900AD75E4FF123767AB6FAA70A971AE730562
:101C5900738E82758300EF121110AF6EAE6DAD6C8D
:101C6900AC6BAB79AA78A977A876121204AC00AD4F
:101C790001AE02AF038F6E8E6D8D6C8C6BAF79AE3A
:101C890078AD77AC76E47B0AFAF9F81212048F7909
:101C99008E788D778C76E4FFFEFDFCAB79AA78A966
:101CA90077A876C31212966003021C2180527574BC
:101CB9002075750974FC2574F574AF6EAE6DAD6C45
:101CC900AC6BF9F81212A7AD071575E575656A6071
:101CD90003ED6003757201E5726021E569B458048A
:101CE9007F0180027F00123767AB6FAA70A971AEBE
:101CF9007305738E82758300EF121110E57470B449
:101D0900AB6FAA70A971857382758300E4121110F3
:031D1900AF732283
:100B31008B548A558956E4F55DF55EAB57AA58A9E1
:100B410059AF5DEF3395E08F82F5831210D16425A3
:100B51006051D3E55E6480949E4003AF5E22AB5743
:100B6100AA58A959AF5D055DEF3395E08F82F583F2
:100B71001210D1FFAB54AA55A956AE5E055EEEFD2B
:100B81003395E08D82F583EF121110AB57AA58A966
:100B910059AF5DEF3395E08F82F5831210D1709BD1
:100BA100AF5E22AF5DEF3395E08F82F583A3AB5744
:100BB100AA58A9591210D1F5636473706BAB5AE549
:100BC1005CF92403F55CE55BFA3400F55B1212CDA8
:100BD1008B608A618962055D055DE4F55FAB60AAA2
:100BE10061A962AF5FEF3395E08F82F5831210D177
:100BF1007003020B3CC3E55E6480949E4003020BCC
:100C01003C055FEF3395E08F82F5831210D1FFAB86
:100C110054AA55A956AE5E055EEEFD3395E08D8270
:100C2100F583EF12111080B5E563B4251E055D054E
:100C31005DAB54AA55A956AF5E055EEF3395E08FC3
:100C410082F5837425121110020B3CE563B4633203
:100C5100055D055DAB5AE55CF92402F55CE55BFADF
:100C61003400F55B12119DFFAB54AA55A956AE5E37
:100C7100055EEEFD3395E08D82F583EF12111002D2
:100C81000B3CE4F564F55FAF5DEF3395E0FEEF24D7
:100C910001FFE43EFEAD5FED3395E0FCED2FF58203
:100CA100EC3EF583AB57AA58A9591210D1F563C38D
:100CB100648094B0401ED3E563648094B95015E517
:100CC1006324D0FFE56475F00AA42FF564055FE5A0
:100CD1005FB403B3AF5DEF3395E0FEEF2401FFE4B2
:100CE1003EFEAD5FED3395E0FCEF2DFFEE3CFEAB3C
:100CF10057E5592FF9E5583EFA8B60F5618962E5B0
:100D01005D2402255FF55D1210B8249C600F24EF6D
:100D1100600B24FD600724206003020B3CAB5A05E5
:100D21005CE55CAA5B7002055B14F91210B8FF3335
:060D310095E08F68F567F4
:100D3700F566F565FEAD66AC6578081212BA8F6880
:100D47008E678D668C65055CE55CAA5B7002055B4A
:100D570014F91210B8FF3395E0FEFDFCE5684FF576
:100D670068E5674EF567E5664DF566E5654CF5653B
:100D7700AF68AE67AD66FC78081212BA8F688E67E7
:100D87008D668C65055CE55CAA5B7002055B14F9F2
:100D97001210B8FF3395E0FEFDFCE5684FF568E5F6
:100DA700674EF567E5664DF566E5654CF565AF6831
:100DB700AE67AD66FC78081212BA8F688E678D66CB
:100DC7008C65055CE55CAA5B7002055B14F9121083
:100DD700B8FF3395E0FEFDFCE5684FF568E5674E23
:100DE700F567E5664DF566E5654CF565AB60AA61A7
:100DF700A9621210B8FFC00785686E85676D8566A2
:100E07006C85656BAF5EEF3395E0FEE5562FF9E530
:100E1700553E85546FF5708971D007AD64121B89F3
:090E2700EF255EF55E020B3C2292
:103284008B3F8A4089417551007552007553428BBA
:10329400578A58895985515A85525B85535C7B01FD
:1032A4007A00798F120B31E4FEC3EF6480F8EE6488
:1032B4008098501BC299EEFD3395E0FC748F2DF578
:1032C4008274003CF583E0F5993099FD0E80DA2292
:1034C4001238611231251238F01238EF1238DA78D6
:1034D40013E6FF5401D3940040F51219F47813E66F
:1034E400FF1206017813E6FF1226157813E6FF1281
:0834F40038E8E47813F680D7F4
:10386100758921758851759850758DFF43878075CD
:03387100A8832207
:0338EB008F082221
:0938D100EFD394034002DFFE2254
:03000B00021FA42D
:101FA400C0E0C0F0C083C082C0D075D000C000C003
:101FB40001C002C003C004C005C006C007758A6022
:101FC400758CFF781006E675F00A84E5F06003026C
:101FD400205F122CA07810E675F06484E5F0703B65
:101FE400F678137601780C06E675F00A84E5F0704D
:101FF4002A7813E64402F6780CE6FF75F03284E59D
:10200400F070187813E64404F6EF75F06484E5F094
:102014007009780CF67813E64408F630053D900014
:102024002CE004F0D394134006E4F0D2A5802C9065
:102034000052E0FF700B90002CE0B40104C2A580B4
:102044000DEFB4010990002CE0B40402C2A5EFB472
:10205400020990002CE0B40802C2A5780FE66038AB
:1020640006E6D3949F40312008247811E6B4021E7A
:102074007816E660197812E6FFC39408500EEF5400
:1020840003FFBF0302D2197812068002D219781115
:102094007600C208780F7600D007D006D005D004A9
:1020A400D003D002D001D000D0D0D082D083D0F0E1
:0320B400D0E03247
:03000300022B27A6
:102B2700C0E0C0D075D000C000C006C0072008654F
:102B3700781106E6FFB4020C780FE6D3949140555E
:102B4700D2088051780AE6FEC313F6780FE6D394CD
:102B5700104006780AE64480F6EF640A6004EFB492
:102B67001A07780AE618F6802CEFB41212780AE6EC
:102B7700B4BF0418E6601E78167600D2088016EFF8
:102B8700B42212D21978127600780AE6F418666031
:102B970004C219D208780F7601D007D006D000D02A
:042BA700D0D0E03278
:030000000238BB08
:0C38BB00787FE4F6D8FD7581790234C4F2
:1010B800BB010689828A83E0225002E722BBFE0236
:0910C800E32289828A83E4932269
:1010D100BB010CE58229F582E5833AF583E02250D4
:1010E10006E92582F8E622BBFE06E92582F8E2221E
:0D10F100E58229F582E5833AF583E4932238
:1010FE00BB010689828A83F0225002F722BBFE01D1
:02110E00F322CA
:10111000F8BB010DE58229F582E5833AF583E8F015
:10112000225006E92582C8F622BBFE05E92582C8C1
:02113000F222A9
:10113200BC000BBE0029EF8DF084FFADF022E4CCA1
:10114200F875F008EF2FFFEE33FEEC33FCEE9DEC6A
:10115200984005FCEE9DFE0FD5F0E9E4CEFD22EDB0
:10116200F8F5F0EE8420D21CFEADF075F008EF2FFA
:10117200FFED33FD4007985006D5F0F222C398FDEB
:051182000FD5F0EA2288
:10118700C5F0F8A3E028F0C5F0F8E58215827002F3
:061197001583E038F02290
:10119D00BB010A89828A83E0F5F0A3E0225006871D
:1011AD00F009E71922BBFE07E3F5F009E3192289DF
:0B11BD00828A83E493F5F07401932212
:1011C80075F008758200EF2FFFEE33FECD33CDCCDE
:1011D80033CCC58233C5829BED9AEC99E582984061
:1011E8000CF582EE9BFEED9AFDEC99FC0FD5F0D63E
:1011F800E4CEFBE4CDFAE4CCF9A88222B800C1B968
:101208000059BA002DEC8BF084CFCECDFCE5F0CBA5
:10121800F97818EF2FFFEE33FEED33FDEC33FCEBDE
:1012280033FB10D703994004EB99FB0FD8E5E4F999
:10123800FA227818EF2FFFEE33FEED33FDEC33FC86
:10124800C933C910D7059BE99A4007EC9BFCE99A7A
:10125800F90FD8E0E4C9FAE4CCFB2275F010EF2FBF
:10126800FFEE33FEED33FDCC33CCC833C810D707BF
:101278009BEC9AE899400AED9BFDEC9AFCE899F8FA
:0E1288000FD5F0DAE4CDFBE4CCFAE4C8F9228D
:10129600EB9FF5F0EA9E42F0E99D42F0E89C45F0AE
:0112A6002225
:1012A700E8600FECC313FCED13FDEE13FEEF13FF25
:0312B700D8F12249
:1012BA00E8600FEFC333FFEE33FEED33FDEC33FC92
:0312CA00D8F12236
:1012CD00BB010789828A8302131C5005E9F80213BA
:1012DD0013BBFE05E9F802132589828A8302132EBA
:1012ED00D083D082F8E4937012740193700DA3A390
:1012FD0093F8740193F5828883E4737402936860A4
:06130D00EFA3A3A380DFA3
:09131300E6FB08E6FA08E6F922FF
:09131C00E0FBA3E0FAA3E0F922D2
:09132500E2FB08E2FA08E2F922F9
:0C132E00E493FB740193FA740293F9221B
:00000001FF
