:1037EB008F398D3A12386D7FCC123416AF391234B3
:0A37FB0016AF3A12341612390522F7
:1036F3008F2C8C2D8D2E12386D7FCC123416AF2C5F
:10370300123416AF2E123416E52DFF123416123969
:0237130005228D
:1033A0008F3B8B3C8A3D893E12386D7FCC123416A0
:1033B000AF3B123416AB3C053EE53EAA3D7002051C
:1033C0003D14F9121635FF123416E540154070020F
:0B33D000153F14453F70DE1239052246
:10367E008F3BE4F53C12386D7FCC123416200C14BF
:10368E00AF3B12341612386D7FCD123416D21D1286
:0A369E0034C28F3C123905AF3C2204
:103328008F2CE4F52DF52E12386D7FCC1234162033
:103338000C22AF2C12341612386D7FCD123416C2FF
:103348001D1234C2752D008F2ED21D1234C2EFFE0D
:0C335800E4EE422D123905AE2DAF2E22FE
:1030CC008E388F398B3A8A3B893CD3E5399401E5AC
:1030DC003894004008E539153970021538C21D12B4
:1030EC0034C2AB3A053CE53CAA3B7002053B14F9F3
:1030FC00EF12167BE5391539700215381445387006
:10310C00DCD21D1234C2AB3AAA3BA93CEF12167B9F
:03311C0002390570
:103628008F318B328A33893412386D7FCC1234163D
:10363800AF3112341612386D7FCD123416AB32AA60
:0B36480033A934AF36AE351230CC226F
:10320B008F308B318A32893312386D7FCC12341662
:10321B00AF3012341612386D7FCD123416C21D1218
:10322B0034C27536008F37D3E5379535E53695348F
:10323B004006853436853537AB31AA32A933AF37E3
:0A324B00AE361230CCAE36AF37229B
:103416008F41754208C296E54130E704D295800295
:10342600C295123960E54125E0F541D29612396020
:10343600D542E2C296D295120006D2961200063006
:0A3446009502D20CC2961200062275
:1034C200D295120006753E08D296E53D25E0F53DFF
:1034D200309503433D01123960C296123960D53EE0
:1034E200E7201D04C2958002D295120006D29612E0
:0734F2000006C296AF3D2267
:10386D00D295D296120006C20C209502D20CC295AA
:06387D00120006C29622B3
:0D390500C295120006D296120006D295223D
:050006007F0ADFFE226D
:013960002244
:10225C004B434D5F504F5745525F4F4E004B434DD4
:10226C005F524541445F495251204572726F720072
:10227C004B434D5F4952515F504C41595F53544150
:10228C005445202530327800526573746F72654165
:10229C0020253032782025303278202530327800D5
:1022AC0053455420004B434D5F564F4C554D455FA5
:1022BC004354524C202564004B434D5F494E5055BE
:1022CC00545F534F555243452025303278004B43D1
:1022DC004D5F4C495354454E5F4D4F44452025307E
:1022EC00327800417070436F6D6D616E64202530E3
:1022FC0032782025303278202530327800010508DC
:10230C000064005E01E803E40C1027001011123089
:10231C003132333420212224000110111213000217
:10232C0003010507060419181716151413121100CA
:09233C000102030405060708096B
:08393D00E4900058F00237D0BD
:1037D0007D017F051237EB7F0212395B900059742F
:0B37E00064F07BFF7A22795C022A442F
:101E55008F24309403021F6D7F0112367E8F25ADCE
:101E6500257F031237EB300C097BFF7A2279690253
:101E75002A44E5255401D3940040031217C9E525EA
:101E85005402D39400404B7F1812367E90004FEFDA
:101E9500F07F1A12367E900067EFF0900059E070DF
:101EA500082014057F0712395B90004FE07003127C
:101EB50038C0122D7712396590004EE0FF6404603A
:101EC50004EFB4050D7FA212332890002CEEF0A389
:101ED500EFF0E5255408D39400400312144CE52592
:101EE5005404D3940040167F2F12367E90002BEFBA
:101EF500F090003BE0B438057F3812395BE5255496
:101F050010D394004003123172E5255440D3940058
:101F150040247FA3123328900056EEF0A3EFF04E35
:101F2500600F90003BE06401600C7F1612395B8006
:101F3500057F1512395BE5255420D39400401D7F9C
:101F4500A512367E900029EFF07BFF7A22797CF589
:101F55003C122A44900029E0FF123450E5255480B4
:091F6500D394004003122345222D
:1017C9007B007A00792A7535007536047F40123618
:1017D90028300C05E4FF02395BE52A5403900058D0
:1017E900F0852B28AD287F201226EB8F297BFF7AE5
:1017F90022799485283C85293D852B3E122A44E58A
:1018090029C39404400FE529D39408500890004E49
:10181900E52BF0800690004EE529F07F2012367EF8
:101829008F287B007A00792A7535007536027F8109
:1018390012362890008DE52BF07F2F12367E90000E
:101849002BEFF0E4F527AD277F091226EB8F29E569
:10185900292430FF12367E8F28AD287F301226EBDF
:1018690074832529F582E43400F583EFF00527E533
:1018790027C3940840D07F3912367E8F28E5285433
:101889000FFD7F391226EB900061EFF0E528C45473
:101899000FFD7F391226EB900062EFF07F2412369C
:1018A9007E8F28AD287F241226EB7D507F2E12379C
:1018B900EB7D467F251237EB7D467F261237EB7588
:1018C9002A44752B44752C30E4F52DFB7A00792ACE
:1018D900F53F7540047F801233A0121BFB7BFF7A12
:1018E900237909753F0075400E7F901233A0E4906B
:1018F900004FF0900067F0900029F0C201C214C2B5
:101909000690008BF0FF7E20121D367F0212395B94
:10191900900059740AF0123965122D777FFF12353C
:1019290097900029E0FF123450900058E0FDE4FF41
:041939001234F92249
:102B35007BFF7A2279AC123534E4F527AD277F0483
:102B450012373712000E7FFF1239347FFF123934E6
:102B55000527E527C3946440E3E4F52AF52B752999
:102B650002FB7A007929F53F7540047F401233A0B6
:102B75007D277F2F1237EBE4F527E5272430FFE487
:102B8500FD1237EB0527E527C3940840ED7DAB7FA4
:102B9500241237EB7D017F051237EB7F0212395B7B
:072BA500900059741EF0229C
:102345007B007A0079277534007535087F9812323D
:102355000B8F2FE52F64026003022408E52724F87C
:10236500607624E8602724F5604814605824FD60F1
:10237500030223F67BFF7A2279B185283C122A4491
:1023850090002BE528F07F3812395B80767BFF7A49
:102395002279C485283C122A44AD287F201226EBD9
:1023A50090004EEFF0123955123912E4FF12395BE5
:1023B50080517BFF7A2279DA85283C122A44AF289E
:1023C500122ABD803E7BFF7A2279DA85283C122AC3
:1023D50044AF281235FA802BA206E433FFE52854D2
:1023E50001B5071FE52830E21A90003B7438F080EC
:1023F500127BFF7A2279EF852F3C85273D85283E84
:08240500122A447F0102359701
:102C9600EF24F7601E24E5602824F9600F24FB600A
:102CA6001924107059ED90231793FF22ED902324D9
:102CB60093FF22ED90232A93FF22ED90233293FF78
:102CC60022E4F53890004AE0D394004003433801EB
:102CD600900048E0D394004003433802900049E056
:102CE600FF25E025E0423890004BE0FFC454F04257
:102CF60038A3E0FFC4333354C04238AF38227F00D4
:012D060022AA
:1026EB00E4FEEF24F7603D24E5606324F9602024C9
:1026FB00FB60462410600302278CEE90231793B5E2
:10270B000503AF06220EEEC3940D40EE7F0022EEC2
:10271B0090232493B50503AF06220EEEC394064017
:10272B00EE7F0122EE90232A93B50503AF06220E0E
:10273B00EEC3940840EE7F0022EE90233293B50552
:10274B0003AF06220EEEC3941340EE7F0022ED3052
:10275B00E1047F0180027F00900048EFF0ED13133E
:10276B005403A3F0ED30E0047F0180027F00900062
:10277B004AEFF0EDC45403A3F0EDC413135403A3B9
:04278B00F07F0022B9
:1035C9008B3A8A3B893CEF6027AB3A053CE53CAA3C
:1035D9003B7002053B14F9121635FEAB3D053FE57C
:1035E9003FAA3E7002053E14F9EE12167B1F80D6E3
:0135F90022AF
:10207F006752656D6F766554696D657220253032D4
:10208F0078004D656E7553656C656374412025301E
:10209F003278004D4B434D5F507265656D707469BA
:1020AF00626C653A25642025642F256400536F7593
:1020BF00726365573A2530327828253032782925D2
:1020CF0030327828253032782900536F7572636566
:1020DF004A3A25303278206C6173743A2530327861
:1020EF00004B434D5F5352435F56414C494420458B
:1020FF00202564202564004B434D5F5352435F56A8
:10210F00414C49443A2530327825303278204C61A1
:10211F0073743A2530327825303278006D494E503D
:10212F0055545F412025303278004B434D5F535259
:10213F00435F56414C4944203D204C6173743A250E
:10214F00303278253032780D0A000001020300206A
:10215F0000401000400001000200040004050608C2
:03216F00090A0B4F
:013961002243
:103565008F2490008BE0602904F0D394C840227F1B
:103575004112367E8F257BFF7A20797F85253C1287
:103585002A44E490003BF0AF2512325EE490008BB4
:02359500F02222
:103715008F32123912D218E532600D75333030060A
:103725000AC2064333028003753320AD337F080296
:0237350037EB70
:10375900AD07EDC394FF500E7F09122C96EF44106C
:0E376900FD7F090237EBE4FD7F091237EB22EA
:102FC3008F358D36123955E536601674832535F500
:102FD30082E43400F583E0C394125019E004F080D6
:102FE3001474832535F582E43400F583E0D394002B
:102FF3004003E014F0AD357F09122C968F377483AC
:103003002535F582E43400F583E0FD7F30122C96FC
:0A301300AD07E5372430FF0237EB6C
:0D391200301409C214E4FD7F091237EB22C6
:06395500300602C206224A
:09325500F582E43400F583E0FF8A
:10325E008F27900076E0542CF0900075E054F8F033
:10326E00A3E054FBF012395512391290003BE0FFE7
:10327E006003B401177BFF7A20799185273C122ACF
:10328E004490004EE527F0FDFF122EAF7F0102396C
:01329E005BD4
:1031BF007BFF7A2079A2900027E0FF2433F582E489
:1031CF003400F583E0F53C8F3D90003CE0F53E1276
:1031DF002A4490003CE0601B900027E02433123219
:1031EF005590003CE0FF900027E004F0C39F400B98
:0C31FF00E4F02290004EE0FF12325E224D
:102F0D00E490003BF090005AE0FF601190003DE02E
:102F1D00FEC39F500874332E123255802090005AF4
:102F2D00E0FF90003DE0C39FFFE49400FE74592F35
:102F3D00F58274213EF583E493FF12325E90005AC0
:102F4D00E02404FFE433FE90003DE004F0C39FEE67
:0B2F5D006480F87480984002E4F022C9
:102EAF008F2C8D2DAD2C7F20122C96AD077F2012ED
:102EBF0037EBAD2C7F20122C96C007AD2D7F201243
:102ECF002C968F3FD03D7BFF7A2079BC852C3C859B
:102EDF002D3E122A44E52DD394035021AD2D7F2092
:102EEF00122C96AD077F411237EB7F2012367E8F63
:0E2EFF003D7BFF7A2079D9852C3C122A442293
:101D36008E2E8F2FE4F53090008DE0B45311AF3026
:101D4600053074332FF582E43400F5837407F0E52B
:101D56002F452E7003021E2BE4F531E53125E024D4
:101D66005DF582E43421F583E493F532740193F54D
:101D760033E52E5532FEE52F55334E603DE533648F
:101D8600204532700C90002EE07002A3E0701480A3
:101D960029E53364404532700A90002EE07002A3B4
:101DA600E07017E53190216B93FFAE300530743348
:101DB6002EF582E43400F583EFF00531E531640752
:101DC600709990005AE06530600BE490003DF09009
:101DD600005AE530F0E4F53190005AE0FFE531C3F2
:101DE6009F501C74332531F582E43400F583E0FE00
:101DF600C394094006EED3940C4004053180D99073
:101E0600003CE06531600BE4900027F090003CE573
:101E160030F07BFF7A2079F090003CE0F53C8F3D76
:101E2600122A44801F90003CE530F0E490005AF0FE
:101E3600900027F090003DF090002EF0A3F0900067
:0F1E460052F0A3F0900092E52EF0A3E52FF022CA
:10144C007F1C1233288E278F28900092E0FCA3E09B
:10145C00FD65287003EC6527700302161FC21C7B08
:10146C00FF7A217906E527F53D753C00F53E852888
:10147C003FECF541754000F5428D43122A44E4F5EA
:10148C0029E52925E0245DF582E43421F583E493F4
:10149C00F52A740193F52BE527552AFEE528552BE3
:1014AC004E7003021565900092E0552AFEA3E0559C
:1014BC002B4E6003021565D21CE52A7064E52B24C3
:1014CC00F9605C24C7602E242070567FA01233284C
:1014DC0090002EEEF0A3EFF04E601174FF900043DD
:1014EC00F0A3F0FDFC7FA41236F380357F0E123989
:1014FC005BC21C802C7FA1123328900052EEF0A30B
:10150C00EFF04E601174FF900043F0A3F0FDFC7FF0
:10151C00A41236F3800B7F0F12395BC21C8002C2FF
:10152C001C301C41E52990216B93FF90004EE0FD8F
:10153C00122EAFE52990216B9390004EF07BFF7A31
:10154C0021792BF53C122A44E490003BF07F0112E8
:10155C00395BE490008BF0800C0529E529C39407D6
:10156C00500302148D301C03021618E4F529E529EA
:10157C0025E0245DF582E43421F583E493F52A74A7
:10158C000193F52BE527552AFEE528552B4E707057
:10159C00900092E0552AFEA3E0552B4E6062E52B9D
:1015AC00852AF012177515C6002015D8004015EACB
:1015BC00100015F14000000015F6E490002EF0A389
:1015CC00F0FF1234507F1012395B801EE4900052F1
:1015DC00F0A3F0FF1234507F1112395B800C7F1294
:1015EC0012395B80057F1312395BE52990216B93CF
:1015FC00FF90004EE0B5071490008B7401F0800C46
:10160C000529E529C39407500302157AAF28AE27A4
:10161C00021D367BFF7A217939E527F53D753C00B3
:09162C00F53E85283F122A4422F4
:1038E60020524553455400010204000110202130A6
:013962002242
:100601008F241229C8900059E0D39400401630017C
:1006110003020B03E5245402D394005003020B039D
:10062100E014F02230012530190BC219780FE6B41D
:1006310059031237D0200703020B03C207D21378E4
:100641001AE664186003020B030237D02007030285
:1006510006D2C207D213781AE624F8602B24F76079
:100661002214601824FE600D24EC6038241070619F
:10067100122F0D805C7F0112311F8055E4FF123172
:100681001F804E1236A8804990003BE0FFC394388A
:10069100400DEFD3943E5007E4FF12395B803212D4
:1006A1003777802D90003BE0FFC394384006EFD3AD
:1006B100943A40077F3812395B801690003BE00482
:1006C100F0D3943A40037438F090003BE0FF1239C4
:1006D1005B781CE6600C06E6D3943C4005E4F678B2
:1006E10018F6201903020ADDC219780FE612174F16
:1006F1000AD1000AD8030AB504088B0508B1060A15
:10070100BC070A9D080AA20B0A880C08450D083986
:100711000E0A0310086211083F120A0D130A6A1427
:10072100091D160A731707B71807A51908911A09A1
:10073100AB1B0ACA400AC3420AAE440885450AA750
:10074100460A96480A8F4A0A814C07BD4D0A7C4EDB
:1007510007FB510A615409CD550A5856078C5807B1
:100761006A5909895A00000ADDB2013001087F087F
:1007710012395B020ADD7D017F051237EB7F021220
:10078100395B900059741EF0020ADD90003BE0B421
:1007910009047F0480027F008F25AD257F09120D9A
:1007A10086020ADD7BFF7A3879E612353412000EB3
:1007B100122B35020ADD1236CE020ADD90003BE033
:1007C100FFC3942E4012EFD39435500C781C760160
:1007D1007D04120D86020ADD90003BE0FFC39424E4
:1007E1005003020ADDEFD3942B4003020ADD781C8B
:1007F10076017D04120D86020ADD90003BE0FFC305
:10080100942E4012EFD39435500C781C76017D0361
:10081100120D86020ADD90003BE0FFC394245003D1
:10082100020ADDEFD3942B4003020ADD781C760126
:0E0831007D03120D86020ADD123839020ADD3F
:10083F00123853020ADD781C760190003BE0B43881
:10084F00047F0480027F008F25AD257F38120D862F
:10085F00020ADD300603020ADD781C760190003BA8
:10086F00E0B438047F0380027F008F25AD257F38E9
:10087F00120D86020ADD123805020ADD12377702E1
:10088F000ADD90003BE0FFC39446400EEFD3945037
:10089F005008E4FF12395B020ADD7F4612395B0212
:1008AF000ADD90003BE0FFC394465003020ADDEFE0
:1008BF00D394504003020ADDE004F0E0B4480C90FA
:1008CF000049E0700690003BE004F090003BE0B47C
:1008DF00490C90004BE0700690003BE004F0900054
:1008EF003BE0B44A0C90004CE0700690003BE004F3
:1008FF00F090003BE0D3945040037446F090003BDF
:10090F00E0FF12395B9000557432F0020ADD90005F
:10091F003BE0FFC394465003020ADDEFD3945040EF
:10092F0003020ADDE014F0E0B44A0C90004CE070D2
:10093F000690003BE014F090003BE0B4490C9000AF
:10094F004BE0700690003BE014F090003BE0B448A1
:10095F000C900049E0700690003BE014F090003BD3
:10096F00E0C3944650037450F090003BE0FF1239FF
:10097F005B9000557432F0020ADD90003BE0FFC33C
:10098F0094465003020ADDEFD394504003020ADD70
:10099F00781C76017D03120D86020ADD90003BE084
:1009AF00FFC394465003020ADDEFD3945040030275
:1009BF000ADD781C76017D04120D86020ADD900097
:1009CF003BE0FFC3942E4006EFD39435400B123912
:1009DF00127F2E12395B020ADD90003BE024D2FF1A
:1009EF00122D078F26E526242EFF90003BF012399B
:1009FF005B020ADD7D037FA51237EB020ADD900053
:100A0F004EE0FF64046008EF64056003020ADD90A6
:100A1F000029E05403F526B402137D017FA5123798
:100A2F00EB900029E054FCF04401F080117D027F2F
:100A3F00A51237EB900029E054FCF04402F090002F
:100A4F0029E0FF123450020ADD7D047FA61237EB36
:100A5F00807C7D037FA61237EB80737D027FA61209
:100A6F0037EB806A7D017FA61237EB80611236A8C3
:100A7F00805C7F0B12395B80557F0C12395B804E87
:100A8F007F0112311F8047E4FF12311F804012395E
:100A9F0063803B1231BF80367F0912325E802F7F19
:100AAF000A12325E80287F0B12325E80217F0C1279
:100ABF00325E801A7F0112325E80137F0212325E25
:100ACF00800C7F0312325E8005E4FF12325E301B12
:100ADF0023C21B90003BE0FFC394384012EFD39426
:100AEF003A500C3011047D0480027D03020D867F85
:050AFF003812395B22F2
:10377700B2063006047F0480027F03AD077F0A127A
:0E3787000D862006057F3812395B123912229A
:10380500B21430140A7F2412395BE4FF023759E4FD
:0A381500FF12395B7FFF12375922C2
:013963002241
:1029C8007814E6FF7008C2A0D2A1D2A28012EFB498
:1029D8000108D2A0C2A1D2A28006D2A0D2A1C2A2CE
:1029E800E4FE2082010E2083034306022084034371
:1029F8000604208503430608EE602EEFC454F02E2B
:102A0800FE781AE6B50616900095E004F0D394080F
:102A18004029201302D207E4900095F022C213E463
:102A2800900095F0781AA60622781406E6D3940248
:0C2A38004002E4F6C213E4900095F02286
:102BAC00200F1830871030860D781306E6D3940367
:102BBC004004E4F6D20FC20AC20B22A2873086016F
:102BCC00B3503A300F25A2869211A211301501B3E1
:102BDC0050057811E67002D21BA21192157811766D
:102BEC0003E47813F6C20FC20B800F300B0A781176
:102BFC007603E47813F6C20FD20BC20A2220871494
:102C0C00208611300A0A78117603E47813F6C20F85
:052C1C00D20AC20B22E8
:10311F008F277F2B12367E8F2890003BE064037041
:10312F003D1236538F29E527600EE52970047F0184
:10313F0080027F008F298018E529C39402500575FE
:10314F002902800C0529E529D3940540037529022E
:10315F00E5299038F093F528FD7F2B1237EBAF2838
:03316F00022ABD74
:100FE9004B434D2D4E4F00202D4F46462D00204896
:100FF900454C4C4F004D5554452020004D55544506
:101009002D2D00564F4C20202000564F4C20004ECD
:101019004F495345200046525350200043455350F1
:101029002000535753502000535253502000424B35
:10103900535020004C504620004C49505300465212
:10104900444C20004345444C20005357444C200055
:10105900424B444C2000536F757263653A2025302A
:10106900327820253032780020202020202000509E
:10107900434D00322F34004E49472D4F4E004E4903
:10108900472D4F46004D503300202000425249471A
:1010990048004657444F4E45004657204572720056
:1010A9004657202D00464C547443455474535754A5
:1010B90074465254745352547442525474424C54A8
:1010C90074534C547400464C5472434554725357EC
:1010D9005472465254725352547242525472424C90
:1010E9005472534C5472004155582D494E4F505427
:1010F900494341434F412D4431434F412D4432200F
:101109002D53442D20202D5553422D202D50432D54
:10111900202045384348202D42542D202048444D55
:10112900492D3148444D492D3248444D492D3348C4
:10113900444D492D410020204849464920322B3150
:1011490043484D4F444520200020464C41542053EC
:101159004F554E442000322F30312F30322F30334B
:101169002F30322F31332F31322F32332F32332F69
:1011790033332F34322F33322F340053442D494E19
:101189002055442D494E2053442D4F555455442D37
:101199004F555450432D4F555442542D4F55544893
:1011A900442D4F55540033324B34384B35364B367A
:1011B900344B38304B39364B3131323132383136A4
:1011C90030313932323234323536333230333834E1
:1011D900000002070000243F000600DB00CF00E604
:1011E90000ED00FD000700FF00EF00F7128F003946
:1011F900120F00F900F100BD00F61209001E0C7073
:10120900003805360936003F00F3083F08F300EDC2
:101219001201003E243028362D0000EE240900C0BA
:0C122900240012C00010181C1C1E1E1F08
:10301D00C2A5C2937F011239347F401238837F01DC
:10302D00123934D2937F01123934C2937F01123990
:10303D00347FC01238837F01123934E4F524E4FF64
:10304D001238837F011239340524E524C3941040CE
:10305D00ED7F0A123934D293E4FDFF1234F9E4FF07
:09306D001237B3E4900030F022A8
:1024D0008F24300E05C20E12000EE5245402D39450
:1024E000005003022590900030E0601514F0700752
:1024F0007F01123597800A900030E05401FF1235B9
:1025000097900059E0D39400400302259030060BC9
:10251000900055E070057F0A12395B200158900049
:1025200055E0605214F07024201406FF12395B80CD
:102530004590003BE024DCFF122D078F25E5252484
:1025400024FF12395BAF25123759802A30002790BB
:102550000055E0FF75F00584E5F0701AEF75F005A1
:1025600084F52590003BE0FFE52530E0047D028006
:10257000027D01120D86200117200614201411304F
:10258000050E90004FE0540FC394004003122F68D3
:012590002228
:05395B00E4FD020D86F1
:09392B009000557414F0C2002252
:0839450090003BEFF002392B6A
:100D86008F308D31E531700312392BC205C2A512A1
:100D9600381F900075E0540FF0E53012174F0E44DF
:100DA600000E75010E87020ECB060ED7070E7B08C6
:100DB6000E9C090F020A0EDD0B0EE30C0EE90E0E59
:100DC600E90F0EE9100EE9110EE9120EE9130EE90C
:100DD600140EF4150EFA160FAB240FAB250FAB2627
:100DE6000FAB270FAB280FAB290FAB2A0FAB2B0F7F
:100DF600B42E0FB42F0FB4300FB4310FB4320FB47A
:100E0600330FB4340FB4350F5E380FC0390FC03A04
:100E16000FC03B0FC03C0FC03D0FC03E0FD8460F62
:100E2600D8470FD8480FD8490FD84A0FCC4B0FCC0C
:100E36004C0FCC4D0FCC4E0FCC4F00000FE2200CC8
:100E46001790004EE0FF64046004EFB40505122419
:100E56000D800E12329F80097BFF7A0F79E91235D9
:100E660034E490003BF0900055F0D205020FE212F8
:100E7600329F020FE27BFF7A0F79F0123534020FB0
:100E8600E27BFF7A0F79F712353412000E90005587
:100E9600740AF0020FE2E531B4041D900055741493
:100EA600F0900058E004F0D394024002E4F0900081
:100EB60058E0FD7F401237EB900058E0FD7F0112AD
:100EC60034F9020FE29000557432F0123964020FC1
:100ED600E2122644020FE21233DB020FE21232E480
:100EE600020FE2E53024F2FF1238AD020FE21230B3
:100EF60076020FE212240DD205020FE2E5316003FD
:100F0600B404089000557450F0D200E531C3940241
:100F16004005E531B4040B7BFF7A0F79FE123534B8
:100F2600800EE531B402097BFF7A1079051235345B
:100F3600E531B4040A7D037F081237EB020FE2E5C0
:010F46003179
:100F470064036003020FE29000557414F07D027F82
:100F5700081237EB020FE2E531C394034015900006
:100F67003BE0B4380EE531B404047F0180027F0012
:100F7700123715E531B4020B7BFF7A10790C123565
:100F87003480587BFF7A10791312353490002BE0A8
:100F9700FD7F04123737E53170419000557450F0EA
:100FA700D2008037AD31AF301228BB802E123912F4
:100FB700AD31AF301228288022123912AD31AF304F
:100FC700122C218016123912AD31AF3012193D8023
:100FD7000A123912AD31AF3012217290003BE53061
:020FE700F022F6
:1032E4007F0912367E8F3230141390003BE0B40C09
:1032F4000C0532E532D394074003E4F532AD327F56
:10330400091237EB7BFF7A107918123534E5322431
:1033140031FD7F05120B0C301409E4900031F0FFED
:0433240012375922E1
:102D0700EFB407005067902D14F8282873022D2977
:102D1700022D3E022D4A022D4D022D62022D6E021A
:102D27002D71900049E060037F012290004AE06026
:102D3700037F02227F032290004AE060037F022282
:102D47007F03227F032290004BE060037F042290E1
:102D5700004CE060037F05227F002290004CE0607A
:102D6700037F05227F00227F06227F07227F002222
:1028BB008F328D33E533C39403401E90003BE0B55C
:1028CB00321724DCFFE533B404047D0180027D0064
:1028DB00122FC39000557450F074DC2532F532750D
:1028EB00F004A424AEF9741012352FE533B4020EA4
:1028FB007D207F04120B0C7D207F05020B0C748353
:10290B002532F582E43400F583E0F534C3940950A5
:10291B00147D2D7F04120B0CC374399534FD7F0588
:10292B00120B0C80117D207F04120B0CE534242735
:09293B00FD7F05120B0CD20022F5
:102828008F328D33E533C39403401E90003BE0B5EF
:10283800321724D2FFE533B404047D0180027D0001
:10284800122FC39000557450F074D22532F53275AA
:10285800F004A424CFF9741012352FE533B4020E16
:102868007D207F04120B0C7D207F05020B0C7483E6
:102878002532F582E43400F583E0F534C394095039
:10288800147D2D7F04120B0CC374399534FD7F051C
:10289800120B0C80117D207F04120B0CE5342427C9
:1028A800FD7F05120B0CE53370089000557450F04D
:0328B800D2002229
:10193D008F328D33900075E04450F0A3E0F09000AD
:10194D00557450F07D207F04120B0C7D207F051205
:10195D000B0CE53224B460561470030219F21470A6
:10196D0003021A29147003021A60147003021A97E5
:10197D0024056003021AA07BFF7A10791F123534FB
:10198D00E533C39403401B900048E004F0D3940169
:10199D004002E4F0E4FD7F24122C96AD077F241263
:1019AD0037EBE4FF123364AD077F05020B0C7BFFB1
:1019BD007A107925123534E533C39403401B90001A
:1019CD0049E004F0D394024002E4F0E4FD7F2412D8
:1019DD002C96AD077F241237EB7F01123364AD07D0
:1019ED007F05020B0C7BFF7A10792B123534E53312
:1019FD00C39403401B90004AE004F0D394014002CD
:101A0D00E4F0E4FD7F24122C96AD077F241237EB12
:101A1D007F02123364AD077F05020B0C7BFF7A103A
:101A2D007931123534E533C39403401B90004BE0FC
:101A3D0004F0D394024002E4F0E4FD7F24122C96CE
:101A4D00AD077F241237EB7F03123364AD077F059B
:101A5D00020B0C7BFF7A107937123534E533C394C2
:101A6D0003401B90004CE004F0D394024002E4F0DC
:101A7D00E4FD7F24122C96AD077F241237EB7F04F3
:101A8D00123364AD077F05020B0C7BFF7A10793D95
:041A9D0012353422A8
:102172008F328D33E53224B9603A14605A14607A92
:1021820014700302221F240460030222409000758F
:10219200E04440F0A3E0F07BFF7A1079421235343C
:1021A200E533C394035003022240AD33E4FF122D02
:1021B200E40222407BFF7A10794712353490007591
:1021C200E04450F0A3E0F0E533C394034070AD3334
:1021D2007F01122DE480677BFF7A10794D1235342E
:1021E200900075E04450F0A3E0F0E533C39403405F
:1021F2004DAD337F02122DE480447BFF7A10795378
:10220200123534900075E04450F0A3E0F0E533C39A
:102212009403402AAD337F03122DE480217BFF7AA1
:10222200107959123534900075E04450F0A3E0F073
:10223200E533C394034007AD337F04122DE49000CD
:10224200557432F074F82532F582E434FFF583E0F8
:0A22520075F005A4FD7F0402373784
:10329F0090004EE0FFC39404400FEFD39408500901
:1032AF00900076E04420F08007900076E054DFF045
:1032BF007BFF7A10795F8F3C900075E0F53DA3E0BE
:1032CF00F53E122A4490004EE075F006A424F0F962
:0532DF00741002352F00
:013964002240
:10365300AE07EE543024F0601224F0601124207081
:1036630017EE30E0037F01227F00227F0222EE303B
:0B367300E0037F04227F03227F05227A
:102ABD008F301236538F31900076E0542CF0E53183
:102ACD00C394025016EF75F006A4243FF974111249
:102ADD00352F900076E04401F080457BFF7A117927
:102AED004B123534E531242FFD7F05120B0CE530EB
:102AFD0024FD601314601914601F240370229000CC
:102B0D0076E04402F08019900076E04480F0801069
:102B1D00900076E04440F08007900076E04410F09D
:082B2D0012392B7F0302394528
:1035FA008F30E53060067E007F0680047E007F0003
:10360A0074522FF974113EFA7BFF123534E530609B
:0E361A00082430FD7F05120B0C7F0502394598
:1026440090004FE0FF540FC3940250030226E7E4C6
:10265400F536EFC4540F75F003A4F5327BFF7A10FE
:102664007971123534122D7790004FE0540F24FD08
:10267400602414604314604024FE605E24F76016F6
:1026840014601324FD24FD502F241570597BFF7A08
:10269400107978023534745F2532F9E43411FA7B09
:1026A400FF753D00753E00753F337F031235C97BCE
:1026B400007A007933023534745F2532F9E4341139
:1026C400FA7BFF753D00753E00753F337F0312357D
:1026D400C97B007A0079330235347BFF7A10797C28
:0726E40002353412329F227F
:10336400AE07EE700C900048E060037F4C227F5360
:1033740022BE020C90004AE060037F59227F4E2255
:1033840074482EF582E43400F583E0FDB402037F33
:0C3394004C22EDB401037F53227F4E2237
:1033DB007F2312367E8F3290003BE0B40B16E53222
:1033EB00C3943250057532328003E4F532AD327F2F
:1033FB00231237EBE53260097BFF7A1079800235B7
:0B340B00347BFF7A10798712353422E1
:1038AD009000557432F0EF75F006A42484F974116C
:0338BD0002352FA2
:103076009000557414F0900075E054BFF07BFF7A11
:10308600107971123534900044E02401FD9000431C
:10309600E03400FCE4FF12278F8F3905397D2F12AB
:1030A6000B0C90004EE0B4040D90002EE0FEA3E061
:1030B600FFAC06FD800B900052E0FEA3E0FFAC06DD
:0630C600FDAF3902278F67
:10240D00C3900057E09403900056E09400500302EF
:10241D003076C3900057E09405900056E09400503C
:10242D0064900067E0FF131313541FF53290004FB3
:10243D00E0540F640A704E9000557414F0E532D3D9
:10244D0094004041E5329410503B753D00753E00BF
:10245D00753F337BFF7A10798E7F031235C9E532D4
:10246D0075F003A424ACF9741135F0FA7BFF753DBA
:10247D0000753E00753F367F031235C97B007A002B
:10248D0079330235347BFF7A10799212353490000E
:10249D0056E0FEA3E0FF7C007D3C1216AFAD077F3A
:1024AD0002123737900056E0FEA3E0FF7C007D3C22
:1024BD001216AF7F04123737900075E04440F0A339
:0324CD00E0F0221A
:1034F9008D32EFD3940040137BFF7A107995123502
:1035090034E5322431FD7F05120B0CC2937F011281
:103519003934E5329011DA934488FF1238837F01F8
:06352900123934D2932296
:102DE400EF70047C0180027C00EC1460111460120A
:102DF400146013146014240470127E13800E7E0970
:102E0400800A7E0980067E0980027E09BD0424743E
:102E14003E2FF582E43400F583E0D39E4002EEF0C9
:102E2400743E2FF582E43400F583E0C39E501AE02B
:102E340004F022BD0313743E2FF582E43400F583BD
:0A2E4400E0D394004003E014F022F4
:103172007B007A0079277535007536027F81123619
:1031820028E527B4640B7BFF7A10799B12353480D3
:1031920020E527B4680B7BFF7A1079A212353480C0
:1031A200107BFF7A1079A9123534AD277F041237CC
:0D31B200377F0D123945900055743CF02216
:01396500223F
:102D7700900075E054F8F0A3E054FBF090004FE0AA
:102D8700540F24FD603514603B14603824FE604006
:102D970024F7602714602424FD24FD502724157090
:102DA7003990008DE0FF64536030EF6456602B90DC
:102DB7000075E04404F0A3E0F0801F900076E04443
:102DC70004F08016900075E04401F0A3E0F0800A5B
:0D2DD700900075E04404F0A3E0F0D20E225D
:10345000EF5403FE900078E054F0F0BE0106E04423
:1034600008F0800ABF0207900078E04404F0EF54AF
:10347000C0FE6013BEC009900078E04401F08007F0
:0A348000900078E04402F0D20E2222
:103597008F30E530B4FF117F1F12367EEF30E7041E
:1035A7007F0180027F008F30E530600C900075E06E
:1035B7004408F0A3E0F08007900075E054F7F0D2DC
:0235C7000E22D2
:05352F0035F0FA7BFFFE
:103534008B3A8A3B893CE4F53EAB3A053CE53CAA30
:103544003B7002053B14F9121635F53D6012AD3D92
:10355400AF3E120B0C053EC3E53E6480948640D911
:013564002244
:10278F008F3A8C3B8D3CAE3BAF3C7C277D101216B5
:10279F00AFEF4E6012120B04AE3BAF3C7C277D10A7
:1027AF001216AF8C3B8D3CAE3BAF3C7C037DE812E9
:1027BF0016AFEF4E6012120B04AE3BAF3C7C037DA5
:1027CF00E81216AF8C3B8D3CAE3BAF3C7C007D647A
:1027DF001216AFEF4E6012120B04AE3BAF3C7C00F3
:1027EF007D641216AF8C3B8D3CAE3BAF3C7C007DC5
:1027FF000A1216AFEF4E6012120B04AE3BAF3C7CC9
:10280F00007D0A1216AF8C3B8D3CAF3A053AE53C82
:09281F002430FD120B0CAF3A222B
:103737008F398D3AE53A75F00A842430FD120B0C67
:10374700E53904FFE53A75F00A84E5F02430FD0217
:023757000B0C59
:080B0400EF2430FDAF3A053A81
:100B0C008F3F8D40E53FC394034003020BD7E54074
:100B1C00C394304012E540D39439500B74D0254027
:100B2C00F54004F541804CE540C39461400FE5402D
:100B3C00D3947A5008E54024AAF5418036E540C3A9
:100B4C009441400FE540D3945A5008E54024CAF52F
:100B5C00418020E54024D5601224FC6009240270F9
:100B6C000F754125800D754126800875412780033E
:100B7C00E4F541E54125E024DDF582E43411F5830B
:100B8C00E493FEE53F25E02469F582E43400F58327
:100B9C00EEF0A3E4F0E53F25E02469F582E43400AF
:100BAC00F583C083C082E0FEA3E0FFE54125E0248D
:100BBC00DEF582E43411F583E493FDEEEF4DFFD0C6
:100BCC0082D083EEF0A3EFF0020D83E53FC39406D1
:100BDC004003020D0DE540C394304066E540D394CC
:100BEC0039505F74D02540F54004F54125E024DDF3
:100BFC00F582E43411F583E493FEE53F25E02469A6
:100C0C00F582E43400F583EEF0A3E4F0E53F25E053
:100C1C002469F582E43400F583C083C082E0FEA32E
:100C2C00E0FFE54125E024DEF582E43411F583E4B0
:100C3C0093FDEEEF4DFFD082D083EEF0A3EFF002E8
:100C4C000D83E54012174F0C962D0C9B410CA042C6
:100C5C000CA5430CAA440CAF450CB4460CB9470C7C
:100C6C00C3480CBE490CC84C0CCD4E0CD24F0CD703
:100C7C00500CDC520CE1530CE6540CEB550CF059B7
:100C8C000CDC720CE67400000CF57540C0805D75D0
:100C9C0040F7805875407C8053754039804E7540C4
:100CAC00DE80497540F980447540F1803F7540EF16
:100CBC00803A75400680357540F680307540388036
:100CCC002B754037802675403F80217540F3801C82
:100CDC0075405080177540ED80127540F8800D7589
:100CEC00403E800875406E8003E4F540E53F25E00A
:100CFC002469F582E43400F583E4F0A3E540F08048
:100D0C0076E53FD39406401AE53F940D5014E54028
:100D1C00C39401400DE540D394055006E5402426CC
:100D2C00F541E54125E024DDF582E43411F583E459
:100D3C0093FEE53F25E02469F582E43400F583EE6B
:100D4C00F0A3E4F0E53F25E02469F582E43400F5F6
:100D5C0083C083C082E0FEA3E0FFE54125E024DEF2
:100D6C00F582E43411F583E493FDEEEF4DFFD08270
:0A0D7C00D083EEF0A3EFF0D20E22B8
:10381F00E4FFEF25E02479F582E43400F583E4F04A
:0A382F00A3F00FEFC3940540E92257
:0638F600131313541FFF21
:0938FC00EF540790122D93FF22F6
:102F68007B007A0079277535007536037F91123614
:102F780028300C0302381FAF271238FC900079E480
:102F8800F0A3EFF0E5271238F690007BE4F0A3EF0A
:102F9800F0AF281238FC90007DE4F0A3EFF0E528AC
:102FA8001238F690007FE4F0A3EFF0AF291238FC56
:0B2FB800900081E4F0A3EFF0D20E22A5
:1038C000E4FFE4900079F0A3F00FEFC3940540F219
:0338D000D20E22F3
:1037B300E4FEEFFDEE25E02469F582E43400F583B1
:0D37C300E4F0A3EDF00EEEC3940D40E622FD
:10000E00E4FF74062FF582E43400F583E4F00FEF7D
:10001E00C3941040ED900069E0FEA3E0FF30E007CE
:10002E00900014E04408F0EF30E10790000DE0443A
:10003E0008F0EF30E207900006E04408F090006A06
:10004E00E030E307900009E04408F0900069E0FE1C
:10005E00A3E0FF30E407900011E04408F0EF30E534
:10006E0007900015E04408F0EF30E60790000FE02F
:10007E004408F090006AE030E70790000CE0440876
:10008E00F0900069E0FEA3E0FFEE30E00790001371
:10009E00E04408F0EE30E107900012E04408F0EE84
:1000AE0030E20790000BE04408F0900069E0A330C6
:1000BE00E307900007E04408F0900069E0FEA3E03B
:1000CE00FFEE30E407900008E04408F0EE30E5075C
:1000DE0090000EE04408F090006BE0FEA3E0FF30CD
:1000EE00E007900014E04420F0EF30E10790000D9F
:1000FE00E04420F0EF30E207900006E04420F0905C
:10010E00006CE030E307900009E04420F090006BB3
:10011E00E0FEA3E0FF30E407900011E04420F0EF92
:10012E0030E507900015E04420F0EF30E607900030
:10013E000FE04420F090006CE030E70790000CE0F8
:10014E004420F090006BE0FEA3E0FFEE30E007905D
:10015E000013E04420F0EE30E107900012E044205E
:10016E00F0EE30E20790000BE04420F090006BE0E0
:10017E00A330E307900007E04420F090006BE0FE10
:10018E00A3E0FFEE30E407900008E04420F0EE30EC
:10019E00E50790000EE04420F090006DE0FEA3E035
:1001AE00FF30E007900014E04410F0EF30E10790CC
:1001BE00000DE04410F0EF30E207900006E044102E
:1001CE00F090006EE030E307900009E04410F090EC
:1001DE00006DE0FEA3E0FF30E407900011E0441054
:1001EE00F0EF30E507900015E04410F0EF30E60731
:1001FE0090000FE04410F090006EE030E7079000A2
:10020E000CE04410F090006DE0FEA3E0FFEE30E055
:10021E0007900013E04410F0EE30E107900012E07A
:10022E004410F0EE30E20790000BE04410F0900026
:10023E006DE0A330E307900007E04410F090006DEE
:10024E00E0FEA3E0FFEE30E407900008E04410F07B
:10025E00EE30E50790000EE04410F090006FE0FEE7
:10026E00A3E0FF30E007900014E04404F0EF30E12B
:10027E000790000DE04404F0EF30E207900006E036
:10028E004404F0900070E030E307900009E044046D
:10029E00F090006FE0FEA3E0FF30E407900011E065
:1002AE004404F0EF30E507900015E04404F0EF3021
:1002BE00E60790000FE04404F0900071E0FEA3E02A
:1002CE00FF30E007900014E04480F0EF30E107903B
:1002DE00000DE04480F0EF30E207900006E044802D
:1002EE00F0900072E030E307900009E04480F09057
:1002FE000071E0FEA3E0FF30E407900011E04480BF
:10030E00F0EF30E507900015E04480F0EF30E6079F
:10031E0090000FE04480F0900073E0FEA3E0FF3009
:10032E00E007900014E04402F0EF30E10790000D7A
:10033E00E04402F0EF30E207900006E04402F09055
:10034E000074E030E307900009E04402F09000737F
:10035E00E0FEA3E0FF30E407900011E04402F0EF6E
:10036E0030E507900015E04402F0EF30E60790000C
:10037E000FE04402F0900075E0FEA3E0FF30E007CE
:10038E00900014E04401F0EF30E10790000DE044DE
:10039E0001F0EF30E207900006E04401F0900076A5
:1003AE00E030E307900009E04401F0900075E0FEB4
:1003BE00A3E0FF30E407900011E04401F0EF30E5D8
:1003CE0007900015E04401F0EF30E60790000FE0D3
:1003DE004401F0900076E030E70790000CE0440115
:0403EE00F090007516
:1003F200E0FEA3E0FFEE30E007900013E04401F0DE
:10040200EE30E107900012E04401F0EE30E2079096
:10041200000BE04401F0900075E0A330E307900088
:1004220007E04401F0900075E0FEA3E0FFEE30E447
:1004320007900010E04420F0EE30E507900010E055
:100442004410F0EE30E607900010E04404F0900013
:1004520077E0FEA3E0FF30E00790000BE04404F0F9
:10046200EF30E107900012E04404F0EF30E2079031
:100472000013E04404F0900078E030E30790000CB1
:10048200E04404F0900079E0FEA3E0FF30E0079042
:100492000007E04480F0EF30E10790000BE0448079
:1004A200F0EF30E207900012E04480F090007AE032
:1004B20030E307900013E04480F090007AE030E4EB
:1004C2000790000CE04480F090007BE0FEA3E0FF88
:1004D20030E00790000BE04402F0EF30E1079000BB
:1004E20012E04402F0EF30E207900013E04402F021
:1004F20090007CE030E30790000CE04402F09000B2
:100502007DE0FEA3E0FF30E007900011E04440F000
:10051200EF30E107900009E04440F0EF30E207904D
:100522000006E04440F090007EE030E30790000DCA
:10053200E04440F090007EE030E407900014E04494
:1005420040F090007FE0FEA3E0FF30E00790001350
:10055200E04440F0EF30E10790000CE04440F0EF5F
:1005620030E20790000FE04440F0900080E030E37A
:1005720007900015E04440F0900081E0FEA3E0FF08
:1005820030E00790000EE04440F0EF30E1079000C9
:1005920008E04440F0EF30E207900007E04440F00A
:1005A200900082E030E30790000BE04440F09000BE
:1005B20082E030E407900012E04440F0C2937F01F1
:1005C2001239347F401238837F01123934D2937F3B
:1005D20001123934C2937F011239347FC012388339
:1005E200E4F53274062532F582E43400F583E0FF47
:0F05F2001238830532E532C3941040E7D29322CA
:103883007E08C290EF139291EFC313FFD2901EEE06
:06389300D3940050ED2269
:102E4E004B434D5F4D49435F564F4C554D452041C9
:102E5E000003C50008000623003152007500000073
:102E6E00802F80005C00000F80002C00805A8000B4
:102E7E00080000588000320000060080258000B453
:102E8E0000000D09990999994D4943314D49433235
:102E9E004543484F5245505444454C59524556426D
:012EAE000023
:101BFB007BFF7A2E7991753F007540057F8E1233EE
:101C0B00A07F3912367E8F2EE52E540F900061F097
:101C1B00E52EC4540FA3F0900061E0D39409400368
:101C2B007402F0900062E0D3940940037402F07FD9
:101C3B003A12367E8F2EE52E540F900063F0D3941C
:101C4B000940037402F07F3B12367E8F2EE52E5433
:101C5B000F900064F0D3940940037402F07F3812A4
:101C6B00367E8F2E900065E52EF0D39409400374D9
:101C7B0002F07F3C12367E8F2EE52E540FFD7F38FF
:101C8B001226EB900066EFF0D3940940037402F038
:101C9B00E4F530E4F52FE52F902E5F93FF7432259A
:101CAB002FF8A607052FE52FB405EBE53004F5312A
:101CBB007B007A007931753F007540067F8B1233BC
:101CCB00A0E4F52FE52F902E6493FF7432252FF8A7
:101CDB00A607052FE52FB409EBE4F52F7432252F5A
:101CEB00F8E6FFE53075F009A4246DF582E4342E97
:101CFB00F583E582252FF582E43583F583E4934F55
:101D0B00F6052FE52FB409D4E53004F5317B007AC5
:101D1B00007931753F0075400A7F8C1233A0053076
:0B1D2B00E530C394045003021C9E220C
:1036A8007F2C12367E8F2790003BE0B40513052748
:1036B800E527D394044003E4F527AD277F2C123780
:0636C800EBAF270235FA0A
:1036CE0090003BE0C3943950057F3902395B90007E
:1036DE003BE004F0D3943E40037439F090003BE09D
:0536EE00FF12395B2210
:1038390090003BE0FFC39439400FEFD3943E500909
:0A384900781C76017D04120D862222
:1038530090003BE0FFC39439400FEFD3943E5009EF
:0A386300781C76017D03120D862209
:102C21008F328D33E533C39403401D90003BE0B5F3
:102C31003216E533B404047D0180027D00AF321207
:102C410025919000557450F074C72532F53275F016
:102C510004A42496F9742E35F0FA7BFF1235347DE5
:102C6100207F04120B0CE533B402077D207F05029F
:102C71000B0C74612532F582E43400F583E0F53400
:102C81002430FD7F05120B0CE5337008900055745C
:052C910050F0D200220A
:102591008F358D36123955E53524C7F538E5366066
:1025A1001674612538F582E43400F583E0C394099B
:1025B1005019E004F0801474612538F582E4340088
:1025C100F583E0D394004003E014F0E53524C660C0
:1025D1001014602814603914605E1460472405707B
:1025E10061900061E0FFC454F0FFA3E04FFD7F392B
:1025F1001237EB7BFF7A2E794E022A44E4F538E557
:1026010038C454F0FF900063E04FFD7F3A0237EB8E
:10261100753808E538C454F0FF900064E04FFD7F41
:102621003B0237EB753801E538C454F0FF90006682
:10263100E04FFD7F3C0237EB900065E0FD7F3812F3
:0326410037EB2252
:10379500AE0753050FEDC3940A5006ED2430FFFD27
:0E37A50022EE6005ED2457FF22ED2437FF22AF
:101AA1008F608D618B62E561701FE562701BAB63B6
:101AB100AA64A965743012167BAB63AA64A9659008
:101AC1000001E412168D7F0122E4F566FCE56064F5
:101AD100646009E56064756003021B7DE56275F071
:101AE1006484F567601AFDE4FF123795AB63AA645D
:101AF100A965AE040C8E82758300EF12168D8018D5
:101B0100E561B40313AB63AA64A965AF040C8F82CA
:101B1100758300743012168DE56275F0648485F06A
:101B210067E56775F00A84FD6019E4FF123795AB2C
:101B310063AA64A965AE040C8E82758300EF121648
:101B41008D8018E561B40213AB63AA64A965AF0483
:101B51000C8F82758300743012168DE56775F00A5B
:101B610084ADF0E4FF123795AB63AA64A965AE04B6
:101B71000C8E82758300EF12168D806CE56254F035
:101B81006028E560B458047F0180027F00E562C4EB
:101B9100540FFD123795AB63AA64A965AE040C8E90
:101BA10082758300EF12168D801CC3E561648094F9
:101BB100824013AB63AA64A965AF040C8F8275835D
:101BC10000743012168DE560B458047F0180027FE5
:101BD10000AD62123795AB63AA64A965AE040C8EA1
:101BE10082758300EF12168DAB63AA64A9658C829E
:0A1BF100758300E412168DAF042284
:101235008B4E8A4F8950E4F557F558AB51AA52A900
:1012450053AF57EF3395E08F82F58312164EFE6448
:10125500256041D3E5586480949E4003AF5822EE43
:101265007003AF5822AB51AA52A953AF570557EF98
:101275003395E08F82F58312164EFFAB4EAA4FA928
:1012850050AE580558EEFD3395E08D82F583EF128B
:10129500168D80A7AF57EF3395E08F82F583A3AB0B
:1012A50051AA52A95312164EF55D6473706BAB5477
:1012B500E556F92403F556E555FA3400F5551217A8
:1012C5002F8B5A8A5B895C05570557E4F559AB5A4C
:1012D500AA5BA95CAF59EF3395E08F82F5831216AF
:1012E5004E7003021240C3E5586480949E40030289
:1012F50012400559EF3395E08F82F58312164EFFA4
:10130500AB4EAA4FA950AE580558EEFD3395E08D6A
:1013150082F583EF12168D80B5E55DB4251E055760
:101325000557AB4EAA4FA950AF580558EF3395E076
:101335008F82F583742512168D021240E55DB46324
:101345003205570557AB54E556F92402F556E555D0
:10135500FA3400F555121704FFAB4EAA4FA950AE4B
:10136500580558EEFD3395E08D82F583EF12168D05
:10137500021240E4F55EF559AF57EF3395E0FEEF05
:101385002401FFE43EFEAD59ED3395E0FCED2FF56C
:1013950082EC3EF583AB51AA52A95312164EF55D68
:1013A500C3648094B0401ED3E55D648094B9501544
:1013B500E55D24D0FFE55E75F00AA42FF55E0559BD
:1013C500E559B403B3AF57EF3395E0FEEF2401FFC2
:1013D500E43EFEAD59ED3395E0FCEF2DFFEE3CFE0E
:1013E500AB51E5532FF9E5523EFA8B5AF55B895C13
:1013F500E55724022559F557121635FF249C600F31
:1014050024EF600B24FD600724206003021240AB2B
:10141500540556E556AA557002055514F9121635A8
:10142500F55FE558FD3395E0FCE5502DF9E54F3CBA
:05143500854E63F56423
:10143A008965AB5FAD5E121AA1EF2558F558021205
:02144A0040223E
:10389900E50D150D7002150C14450C6006ED121698
:0438A9007B80ED2211
:08394D00C2998F993099FD2207
:102A44008B398A3A893B754B00754C00754D3C8B2C
:102A5400518A528953854B54854C55854D567B017B
:102A64007A007996121235AE070EEFFD3395E0FC2D
:102A740074962DF58274003CF583740DF0AF060E48
:102A8400EFFD3395E0FC74962DF58274003CF583DC
:102A9400740AF0E4FDC3EE6480F8ED648098501885
:102AA400EDFB3395E0FA74962BF58274003AF583C6
:092AB400E0FF12394D0D80DD2216
:10348A001238D312301D12396212396112393D785D
:10349A0019E6FF5401D3940040F5121E557819E637
:1034AA00FF1206017819E6FF1224D07819E6FF12F6
:0834BA003565E47819F680D7AE
:1038D300758921758851759850758DFF438780755B
:0338E300A8832295
:09393400EFD394034002DFFE22F0
:03000B00021F6E63
:101F6E00C0E0C0F0C083C082C0D075D000C000C039
:101F7E0001C002C003C004C005C006C007758A6058
:101F8E00758CFF781606E675F00A84E5F06003029C
:101F9E002027122BAC7816E675F06484E5F0703BC2
:101FAE00F678197601781206E675F00A84E5F07077
:101FBE002A7819E64402F67812E6FF75F03284E5C7
:101FCE00F070187819E64404F6EF75F06484E5F0C5
:101FDE0070097812F67819E64408F630053B900041
:101FEE002AE004F0D394134006E4F0D2A5802A90A0
:101FFE000058E0FF700B90002AE0B40104C2A580E7
:10200E0018EFB4010B90002AE0B40404C2A58009B5
:10201E0090002AE0B40802C2A57815E6603806E6FC
:10202E00D3949F40312008247817E6B4021E781C02
:10203E00E660197818E6FFC39408500EEF5403FFBC
:10204E00BF0302D2197818068002D21978177600CB
:10205E00C20878157600D007D006D005D004D0037C
:10206E00D002D001D000D0D0D082D083D0F0D0E03A
:01207E00322F
:030003000229448B
:10294400C0E0C0D075D000C000C006C00720086534
:10295400781706E6FFB4020C7815E6D39491405537
:10296400D20880517810E6FEC313F67815E6D394A6
:102974001040067810E64480F6EF640A6004EFB471
:102984001A077810E618F6802CEFB412127810E6C5
:10299400B4BF0418E6601E781C7600D2088016EFD7
:1029A400B42212D219781876007810E6F41866600A
:1029B40004C219D20878157601D007D006D000D009
:0429C400D0D0E0325D
:0300000002391FA3
:0C391F00787FE4F6D8FD75816802348AD8
:10163500BB010689828A83E0225002E722BBFE02B3
:09164500E32289828A83E49322E6
:10164E00BB010CE58229F582E5833AF583E0225051
:10165E0006E92582F8E622BBFE06E92582F8E2229B
:0D166E00E58229F582E5833AF583E49322B5
:10167B00BB010689828A83F0225002F722BBFE014E
:02168B00F32248
:10168D00F8BB010DE58229F582E5833AF583E8F093
:10169D00225006E92582C8F622BBFE05E92582C83F
:0216AD00F22227
:1016AF00BC000BBE0029EF8DF084FFADF022E4CC1F
:1016BF00F875F008EF2FFFEE33FEEC33FCEE9DECE8
:1016CF00984005FCEE9DFE0FD5F0E9E4CEFD22ED2E
:1016DF00F8F5F0EE8420D21CFEADF075F008EF2F78
:1016EF00FFED33FD4007985006D5F0F222C398FD69
:0516FF000FD5F0EA2206
:10170400BB010A89828A83E0F5F0A3E022500687B0
:10171400F009E71922BBFE07E3F5F009E319228972
:0B172400828A83E493F5F074019322A5
:10172F00BB010789828A830217AB5005E9F80217BC
:10173F00A2BBFE05E9F80217B489828A830217BD9E
:10174F00D083D082F8E4937012740193700DA3A329
:10175F0093F8740193F5828883E47374029368603D
:06176F00EFA3A3A380DF3D
:10177500D083D082F8E4937012740193700DA3A303
:1017850093F8740193F5828883E473740293B5F03A
:0D179500067403936860E9A3A3A3A380D8A2
:0917A200E6FB08E6FA08E6F9226C
:0917AB00E0FBA3E0FAA3E0F9223F
:0917B400E2FB08E2FA08E2F92266
:0C17BD00E493FB740193FA740293F92288
:00000001FF
