:1039C1008F3E8D3F123A0F7FCC1235DFAF3E12355D
:0A39D100DFAF3F1235DF123AA222E9
:1038C9008F2C8C2D8D2E123A0F7FCC1235DFAF2C19
:1038D9001235DFAF2E1235DFE52DFF1235DF123A33
:0238E900A22219
:103470008F358C368D378B388A39893A123A0F7FDF
:10348000CC1235DFAF351235DFAB38053AE53AAA55
:10349000397002053914F9120E10FF1235DFE537C5
:0F34A00015377002153614453670DE123AA22227
:103879008F38E4F539123A0F7FCC1235DF200C145A
:10388900AF381235DF123A0F7FCD1235DFD21D1254
:0A38990036C38F39123AA2AF39226C
:10352C008F2CE4F52DF52E123A0F7FCC1235DF20BF
:10353C000C22AF2C1235DF123A0F7FCD1235DFC2C1
:10354C001D1236C3752D008F2ED21D1236C3EFFE01
:0C355C00E4EE422D123AA2AE2DAF2E225A
:10332C008E3B8F3C8B3D8A3E893FD3E53C9401E537
:10333C003B94004008E53C153C7002153BC21D1245
:10334C0036C3AB3D053FE53FAA3E7002053E14F97E
:10335C00EF120E56E53C153C7002153B14453B70C4
:10336C00DCD21D1236C3AB3DAA3EA93FEF120E565E
:03337C00023AA270
:1037C4008F358C368D378B388A39893A123A0F7F88
:1037D400CC1235DFAF351235DF123A0F7FCD1235FB
:0F37E400DFAB38AA39A93AAF37AE3612332C22F1
:103422008F308C318D328B338A348935123A0F7F4B
:10343200CC1235DFAF301235DF123A0F7FCD1235A5
:10344200DFC21D1236C37536008F37D3E53795328A
:10345200E53695314006853136853237AB33AA34AD
:0E346200A935AF37AE3612332CAE36AF372257
:1035DF008F40754108C296E54030E704D2958002CE
:1035EF00C295123AF8E54025E0F540D296123AF826
:1035FF00D541E2C296D295120006D296120006303D
:0A360F009502D20CC29612000622AA
:1036C300D295120006754108D296E54025E0F540F3
:1036D300309503434001123AF8C296123AF8D541A5
:1036E300E7201D04C2958002D295120006D29612DD
:0736F3000006C296AF402261
:103A0F00D295D296120006C20C209502D20CC29506
:063A1F00120006C296220F
:0D3AA200C295120006D296120006D295229F
:050006007F0ADFFE226D
:013AF80022AB
:101EDE004B434D5F504F5745525F4F4E0D0A004BCF
:101EEE00434D5F524541445F495251204572726FD6
:101EFE00720D0A004B434D5F4952515F504C415990
:101F0E005F53544154555320253032780D0A004901
:101F1E004E5055545F53574954434820253032781C
:101F2E002025640D0A0053455420004B434D5F5647
:101F3E004F4C554D455F4354524C2025640D0A00BD
:101F4E004B434D5F494E5055545F534F5552434589
:101F5E0020253032780D0A004B434D5F4C495354C7
:101F6E00454E5F4D4F444520253032780D0A0041D5
:101F7E007070436F6D6D616E642025303278202550
:101F8E0030327820253032780D0A0003C500080063
:101F9E0006230031520075000000802F80005C0087
:101FAE00000F80002C00805A80000800005880002E
:101FBE00320000060080258000B400000D010508E7
:101FCE000064005E01E803E40C10270010111230CB
:101FDE00313233202122240001101112130002038A
:101FEE00010507060419181716151413121100010E
:101FFE00020304050607080903040506080A0F195B
:0C200E00326400020406080A0C0D0E0FDC
:083ADA00E4900058F00239A647
:1039A6007D017F051239C17F02123AF090005974E9
:0B39B60064F07BFF7A1E79DE0233D242
:10201A008F2430940302213B7F011238798F25AD3A
:10202A00257F031239C1300C097BFF7A1E79ED0234
:10203A0033D2E5255401D3940040031217D5E52580
:10204A005402D39400404B7F0612387990004FEF28
:10205A00F07F07123879900067EFF0900059E0702E
:10206A00082014057F07123AF090004FE07003121F
:10207A003A4E122FC7123AFD90004EE0FF640460F8
:10208A0004EFB4050D7F9912352C90002CEEF0A3C5
:10209A00EFF0E5255408D394004003121A11E52500
:1020AA005404D3940040167F2F12387990002BEFF6
:1020BA00F090003BE0B438057F38123AF0E5255439
:1020CA0010D3940040057F0D123AF0E5255440D311
:1020DA00940040247F1212352C900056EEF0A3EFA4
:1020EA00F04E600F90003BE06401600C7F16123ADC
:1020FA00F080057F15123AF0E5255420D39400406C
:10210A00247F0E123879900029EFF07BFF7A1F792D
:10211A0002E48F41F540F53FF53E1233D290002993
:10212A00E0FF123619E5255480D3940040031223A8
:02213A0065221C
:1017D5007B007A00792B7D047C007F401237C43072
:1017E5000C05E4FF023AF0E52F5403900058F07F12
:1017F500201238798F297F8112387990008DEFF08A
:10180500AD297F201225648F2A7BFF7A1F791DE47D
:10181500852941F540F53FF53E8F45F544F543F5FE
:1018250042852B49F548F547F5461233D2E52AC3DB
:101835009404400FE52AD39407500890004EE52BF9
:10184500F0800690004EE52AF07F2F12387990003F
:101855002BEFF0E4F527AD277F091225648F2AE5E4
:101865002A2430FF1238798F29AD297F301225645B
:101875007483252AF582E43400F583EFF00527E526
:1018850027C3940840D07F391238798F29E5295428
:101895000FFD7F39122564900061EFF0E529C454EE
:1018A5000FFD7F39122564900062EFF07F3A123800
:1018B5007912255B900063EFF07F3B123879122592
:1018C5005B900064EFF07F381238798F29AD297F5E
:1018D50038122564900065EFF07F3C1238791225A7
:1018E5005B900066EFF07F241238798F2AAD2A7F4E
:1018F500241225647D507F2E1239C17D467F251225
:1019050039C17D467F261239C1752B44752C447526
:101915002D30E4F52EFB7A00792B7D04FC7F8012B7
:101925003470E4F528E4F527E527901F9993FF74B3
:101935002C2527F8A6070527E527B405EBE5280498
:10194500F52B7B007A00792B7D067C007F8B12348A
:1019550070E4F527E527901F9E93FF742C2527F843
:10196500A6070527E527B409EBE4F527742C2527F9
:10197500F8E6FFE52875F009A424A7F582E4341FED
:10198500F583E5822527F582E43583F583E4934FD6
:10199500F60527E527B409D4E52804F52B7B007A5D
:1019A50000792B7D0A7C007F8C1234700528E52890
:0819B500C39404500302192A37
:1019BD007BFF7A1F79CB7D0E7C007F8E123470E415
:1019CD0090004FF0900067F0900029F0C201C21412
:1019DD00C20690008BF0FFFE12213C7F02123AF0FE
:1019ED00900059740AF0123AFD122FC77FFF12377B
:1019FD0030900029E0FF123619900058E0FDE4FF09
:041A0D0012379322D7
:102D81007BFF7A1F79341236FFE4F527AD277F04E4
:102D910012390D12000E7FFF123AD17FFF123AD184
:102DA1000527E527C3946440E3E4F529F52AF52BCB
:102DB100F52C752D02FB7A0079297D05FC7F4012E7
:102DC10034707D277F2F1239C1E4F527E5272430A0
:102DD100FFE4FD1239C10527E527C3940840ED7DC5
:102DE100AB7F241239C17D017F051239C17F0212E7
:092DF1003AF0900059741EF02222
:102365007B007A0079277D087C007FA01234228FBC
:102375002FE52F6402600302246CAD28AF271239C4
:10238500C1E52724F8700302242224E8602F24F5F0
:10239500605714606E24FD60030224477BFF7A1F9B
:1023A5007939E4852841F540F53FF53E1233D29061
:1023B500002BE528F07F38123AF002246C7BFF7A77
:1023C5001F794EE4852841F540F53FF53E1233D29D
:1023D500AD287F2012256490004EEFF0123AEA12E4
:1023E5003AAFE4FF123AF0807E7BFF7A1F7966E40C
:1023F500852841F540F53FF53E1233D2AF28122D21
:10240500FA80647BFF7A1F7966E4852841F540F5FB
:102415003FF53E1233D2AF281237F3804AA206E4C5
:1024250033FFE52854016F600512394D8039E528E1
:1024350030E23490003B7438F0AD287F081239C182
:1024450080257BFF7A1F797DE4852F41F540F53F97
:10245500F53E852745F544F543F542852849F54878
:0C246500F547F5461233D27F01023730F4
:102BFB00EF24F7602524E5602F24F9601624FB6091
:102C0B002024F8606714605D24197067ED901FD95C
:102C1B0093FF22ED901FE593FF22ED901FEB93FFA7
:102C2B0022ED901FF393FF22E4F53E90004AE0D390
:102C3B0094004003433E01900048E0D394004003CE
:102C4B00433E02900049E0FF25E025E0423E900024
:102C5B004BE0FFC454F0423EA3E0FFC4333354C0F7
:102C6B00423EAF3E22ED90201093FF22ED902006C6
:062C7B0093FF227F0022FE
:09255B008F29E529540FFD7F389A
:10256400E4FEEF24F7604A24E5607024F9602D242A
:10257400FB605324F8700302262914700302261406
:102584002419600302263EEE901FD993B50503AFCC
:1025940006220EEEC3940C40EE7F0022EE901FE55F
:1025A40093B50503AF06220EEEC3940640EE7F01F9
:1025B40022EE901FEB93B50503AF06220EEEC394F3
:1025C4000840EE7F0022EE901FF393B50503AF069B
:1025D400220EEEC3941340EE7F0022ED30E1047F1F
:1025E4000180027F00900048EFF0ED13135403A321
:1025F400F0ED30E0047F0180027F0090004AEFF0AC
:10260400EDC45403A3F0EDC413135403A3F0802AC0
:10261400EE90201093B50503AF06220EEEC3940A84
:1026240040EE7F0022EE90200693B50503AF06220C
:0D2634000EEEC3940A40EE7F00227F0022CC
:103762008B3F8A408941EF6027AB3F0541E541AA83
:10377200407002054014F9120E10FEAB420544E5FA
:1037820044AA437002054314F9EE120E561F80D666
:013792002214
:102725006752656D6F766554696D65722025640D18
:102735000A004D4B434D5F507265656D707469625B
:102745006C653A25642025642F25640D0A00496EC1
:10275500707574536F757263653A2564206C617387
:10276500743A2530327820253032780D0A00496ECA
:10277500707574536F75726365423A2564206C6198
:1027850073743A253032780D0A004B434D5F53522E
:10279500435F56414C494420452025642025640D5E
:1027A5000A004B434D5F5352435F56414C49443AEF
:1027B50025303478204C6173743A253034780D0A0D
:1027C500004B434D5F5352435F56414C4944203DB6
:1027D500204C6173743A253034780D0A00000102EB
:1027E5000300200040100040000100020004000426
:0627F50005060708090AB1
:013AF90022AA
:103653008F2490008BE0602F04F0D394C840287F20
:10366300401238798F257BFF7A277925E48F41F53E
:1036730040F53FF53E1233D2E490003BF0AF251204
:0836830034F7E490008BF02203
:1038EB008F37123AAFD218E537600D753830300686
:1038FB000AC2064338028003753820AD387F0802B0
:02390B0039C1C0
:10392F00AD07EDC394FF500E7F09122BFBEF441030
:0E393F00FD7F090239C1E4FD7F091239C12262
:1031CA008F3A8D3B123AEAE53B60167483253AF54D
:1031DA0082E43400F583E0C394125019E004F080CD
:1031EA00147483253AF582E43400F583E0D394001D
:1031FA004003E014F0AD3A7F09122BFB8F3C748335
:10320A00253AF582E43400F583E0FD7F30122BFB8A
:0A321A00AD07E53C2430FF0239C186
:102641008F3A8D3B123AEAE53A24C7F53DE53B6006
:10265100167461253DF582E43400F583E0C39409E5
:102661005019E004F080147461253DF582E43400D2
:10267100F583E0D394004003E014F0E53A24C6600A
:102681001614603814605114700302271114606429
:1026910024056003022724900061E0FD7F39122B9D
:1026A100FB8F3C900062E0FD7F39122BFB8F3DE5F3
:1026B1003DC454F0453CFD7F390239C1900063E0CF
:1026C100FD7F39122BFB8F3CE4F53DE53DC454F011
:1026D100453CFD7F3A0239C1900064E0FD7F39122B
:1026E1002BFB8F3C753D08E53DC454F0453CFD7F17
:1026F1003B0239C1900066E0FD7F39122BFB8F3C14
:10270100753D01E53DC454F0453CFD7F3C0239C1B6
:10271100900065E0FD7F38122BFB8F3CAD3C7F388C
:042721001239C12286
:0D3AAF00301409C214E4FD7F091239C12250
:063AEA00300602C20622B4
:0934EE00F582E43400F583E0FFEF
:1034F7008F27900076E0542CF0900075E054F8F098
:10350700A3E054FBF0123AEA123AAF90003BE0FF17
:103517006003B4010B90004EE527F0FDFF12303435
:053527007F01023AF0F3
:103108007BFF7A277937900027E02433F582E4346F
:1031180000F583E0FFE48F41F540F53FF53E900070
:1031280027E0FFE48F45F544F543F54290003CE085
:10313800FFE48F49F548F547F5461233D290003C35
:10314800E0601B900027E024331234EE90003CE04E
:10315800FF900027E004F0C39F400BE4F0229000AA
:073168004EE0FF1234F722D4
:10316F00E490003BF090005AE0FF601190003DE0CA
:10317F00FEC39F500874332E1234EE802090005AF5
:10318F00E0FF90003DE0C39FFFE49400FE74E22F48
:10319F00F58274273EF583E493FF1234F790005ABB
:1031AF00E02404FFE433FE90003DE004F0C39FEE03
:0B31BF006480F87480984002E4F02265
:103034008F2C8D2DAD2C7F20122BFBAD077F201202
:1030440039C17F20123879E48F49F548F547F546B0
:103054007BFF7A277953852C41F540F53FF53E8572
:103064002D45F544F543F5421233D2E52DD39403AF
:103074005027AD2D7F401239C17F20123879E48F5B
:1030840045F544F543F5427BFF7A277973852C4156
:0A309400F540F53FF53E1233D2225D
:10213C008E358F36E5364535700302222CE4F537A3
:10214C00F538E53825E024E6F582E43427F583E418
:10215C0093F539740193F53AE5355539FEE5365565
:10216C003A4E603DE53A64204539700C90002EE003
:10217C007002A3E070148029E53A64404539700A76
:10218C0090002EE07002A3E07017E5389027F493CE
:10219C00FFAE37053774332EF582E43400F583EF48
:1021AC00F00538E5386407709990005AE06537609F
:1021BC000BE490003DF090005AE537F0E4F53890D0
:1021CC00005AE0FFE538C39F501C74332538F58264
:1021DC00E43400F583E0FFC394084006EFD3940B7E
:1021EC004004053880D990003CE06538600BE490E1
:1021FC000027F090003CE537F07BFF7A27798F9031
:10220C00003CE0FFE48F41F540F53FF53E90005A6D
:10221C00E0FFE48F45F544F543F5421233D2801DBF
:10222C00E490003CF090005AF0900027F090003DB4
:10223C00F090002EF0A3F0900052F0A3F0900092DA
:08224C00E535F0A3E536F022B0
:101A11007F1C12352C8E278F28900092E06527704D
:101A210004A3E065287003021BD2C21C7BFF7A2746
:101A310079A7E4852841852740F53FF53E9000923E
:101A4100E0FEA3E0FFE48F458E44F543F5421233F7
:101A5100D2E4F529E52925E024E6F582E43427F5E9
:101A610083E493F52A740193F52BE527552AFEE5C6
:101A710028552B4E7003021B18900092E0552AFE48
:101A8100A3E0552B4E6003021B18D21CE52A705AA5
:101A9100E52B24C0602D242070507F9612352C90A8
:101AA100002EEEF0A3EFF04E6010E4900043F0A39F
:101AB100F0FDFC7F101238C980307F0E123AF0C25F
:101AC1001C80277F9712352C900052EEF0A3EFF087
:101AD1004E6010E4900043F0A3F0FDFC7F1012383B
:101AE100C980077F0F123AF0C21C301C36E52990DD
:101AF10027F493FF90004EE0FD123034E529902742
:101B0100F49390004EF0E490003BF07F01123AF024
:101B1100E490008BF0800C0529E529C3940750035C
:101B2100021A55301C03021BCBE4F529E52925E0F7
:101B310024E6F582E43427F583E493F52A740193CE
:101B4100F52BE527552AFEE528552B4E70709000A0
:101B510092E0552AFEA3E0552B4E6062E52B852AC3
:101B6100F01210551B7900201B8B00401B9D1000AB
:101B71001BA4400000001BA9E490002EF0A3F0FF7D
:101B81001236197F10123AF0801EE4900052F0A331
:101B9100F0FF1236197F11123AF0800C7F12123ABF
:101BA100F080057F13123AF0E5299027F493FF9016
:101BB100004EE0B5071490008B7401F0800C0529EC
:101BC100E529C394075003021B2DAF28AE2702213C
:101BD1003C7BFF7A2779C6E4852841852740F53F7C
:061BE100F53E1233D22292
:103A74002052455345540001020400011020213016
:013AFA0022A9
:100601008F24122D05900059E0D39400401630013B
:1006110003020B10E5245402D394005003020B1083
:10062100E014F02230012530190BC219780AE6B422
:1006310059031239A6200703020B10C207D21378FF
:1006410015E664186003020B100239A620070302A5
:1006510006D2C207D2137815E624F8602B24F7607E
:100661002214601824FE600D24EC6038241070619F
:1006710012316F805C7F0112337F8055E4FF1233AA
:100681007F804E1238A3804990003BE0FFC394382D
:10069100400DEFD3943E5007E4FF123AF08032123E
:1006A100394D802D90003BE0FFC394384006EFD3D5
:1006B100943A40077F38123AF0801690003BE004EC
:1006C100F0D3943A40037438F090003BE0FF123AC3
:1006D100F07817E6600C06E6D3943C4005E4F67822
:1006E10013F6201903020AEAC219780AE612102F3A
:1006F1000ADE000AE5030AC20408980508BE060AD4
:10070100C9070AAA080AAF0B0A950C08520D084C32
:100711000E0A1010086F11084F120A1A130A7714E3
:10072100092A160A801707CD1807A519089E1A0964
:10073100B81B0AD7400AD0420ABB440892450AB402
:10074100460AA3480A9C4A0A8E4C07D04D0A894E94
:10075100080E510A6E5409DA550A6556078C580776
:100761006A5909965A00000AEAB2013001087F0865
:10077100123AF0020AEA7D017F051239C17F0212A5
:100781003AF0900059741EF0020AEA90003BE0B47E
:1007910009047F0480027F008F25AD257F09121394
:1007A10028020AEA7BFF7A3A79741236FF12000EA8
:1007B100122D81020AEA90003BE004F0D3943E40FE
:1007C100037439F090003BE0FF123AF0020AEA901C
:1007D100003BE0FFC3942E4012EFD39435500C78C8
:1007E1001776017D04121328020AEA90003BE0FF0C
:1007F100C394245003020AEAEFD3942B4003020A64
:10080100EA781776017D04121328020AEA90003B68
:10081100E0FFC3942E4012EFD39435500C78177635
:10082100017D03121328020AEA90003BE0FFC39402
:10083100245003020AEAEFD3942B4003020AEA7818
:0B0841001776017D03121328020AEA5B
:10084C00020AEA020AEA7817760190003BE0B43813
:10085C00047F0480027F008F25AD257F381213287A
:10086C00020AEA300603020AEA7817760190003B86
:10087C00E0B438047F0380027F008F25AD257F38DC
:10088C00121328020AEA1239DB020AEA12394D0263
:10089C000AEA90003BE0FFC39446400EEFD394501D
:1008AC005008E4FF123AF0020AEA7F46123AF002CC
:1008BC000AEA90003BE0FFC394465003020AEAEFB9
:1008CC00D394504003020AEAE004F0E0B4480C90E0
:1008DC000049E0700690003BE004F090003BE0B46F
:1008EC00490C90004BE0700690003BE004F0900047
:1008FC003BE0B44A0C90004CE0700690003BE004E6
:10090C00F090003BE0D3945040037446F090003BD1
:10091C00E0FF123AF09000557432F0020AEA9000AF
:10092C003BE0FFC394465003020AEAEFD3945040D5
:10093C0003020AEAE014F0E0B44A0C90004CE070B8
:10094C000690003BE014F090003BE0B4490C9000A2
:10095C004BE0700690003BE014F090003BE0B44894
:10096C000C900049E0700690003BE014F090003BC6
:10097C00E0C3944650037450F090003BE0FF123AF1
:10098C00F09000557432F0020AEA90003BE0FFC38D
:10099C0094465003020AEAEFD394504003020AEA49
:1009AC00781776017D03121328020AEA90003BE0C7
:1009BC00FFC394465003020AEAEFD394504003025B
:1009CC000AEA781776017D04121328020AEA9000CD
:1009DC003BE0FFC3942E4006EFD39435400B123A04
:1009EC00AF7F2E123AF0020AEA90003BE024D2FFCD
:1009FC00122EE78F26E526242EFF90003BF0123AAC
:100A0C00F0020AEA7D037F0E1239C1020AEA900055
:100A1C004EE0FF64046008EF64056003020AEA908C
:100A2C000029E05403F526B402137D017F0E123920
:100A3C00C1900029E054FCF04401F080117D027F4C
:100A4C000E1239C1900029E054FCF04402F09000E1
:100A5C0029E0FF123619020AEA7D047F0F1239C110
:100A6C00807C7D037F0F1239C180737D027F0F1252
:100A7C0039C1806A7D017F0F1239C180611238A3A0
:100A8C00805C7F0B123AF080557F0C123AF0804E4E
:100A9C007F0112337F8047E4FF12337F8040123A8C
:100AAC00FB803B12310880367F081234F7802F7F91
:100ABC00091234F780287F0A1234F780217F0B1239
:100ACC0034F7801A7F011234F780137F021234F747
:100ADC00800C7F031234F78005E4FF1234F7301BCF
:100AEC0023C21B90003BE0FFC394384012EFD39419
:100AFC003A500C3011047D0480027D030213287FD0
:050B0C0038123AF0224E
:10394D00B2063006047F0480027F03AD077F0A12A2
:0E395D0013282006057F38123AF0123AAF22E6
:1039DB00B21430140A7F24123AF0E4FF02392FE4B8
:0A39EB00FF123AF07FFF12392F227D
:013AFB0022A8
:102D0500780FE6FF7008C2A0D2A1D2A28012EFB45C
:102D15000108D2A0C2A1D2A28006D2A0D2A1C2A28D
:102D2500E4FE2082010E2083034306022084034330
:102D35000604208503430608EE602EEFC454F02EEA
:102D4500FE7815E6B50616900095E004F0D39408D4
:102D55004029201302D207E4900095F022C213E423
:102D6500900095F07815A60622780F06E6D3940212
:0C2D75004002E4F6C213E4900095F02246
:102E7200200F1830871030860D780E06E6D39403A3
:102E82004004E4F6D20FC20AC20B22A287308601A6
:102E9200B3503A300F25A2869211A211301501B318
:102EA2005005780CE67002D21BA2119215780C76AE
:102EB20003E4780EF6C20FC20B800F300B0A780CB7
:102EC2007603E4780EF6C20FD20BC20A22208714D0
:102ED200208611300A0A780C7603E4780EF6C20FC7
:052EE200D20AC20B2220
:10337F008F277F2B1238798F2890003BE0640370E2
:10338F003D12384E8F29E527600EE52970047F0125
:10339F0080027F008F298018E529C394025005759C
:1033AF002902800C0529E529D394054003752902CC
:1033BF00E529903A7E93F528FD7F2B1239C1AF286E
:0333CF00022DFAD2
:1038A3007F2C1238798F2790003BE0B4051305274E
:1038B300E527D394044003E4F527AD277F2C123981
:0638C300C1AF270237F33C
:101594004B434D2D4E4F00202D4F46462D002048E5
:1015A400454C4C4F004D5554452020004D55544555
:1015B4002D2D00564F4C20202000564F4C20004E1D
:1015C4004F49534520004652535020004345535041
:1015D4002000535753502000535253502000424B85
:1015E400535020004C504620004C49505300465262
:1015F400444C20004345444C20005357444C2000A5
:10160400424B444C20002020202020200050434DF9
:1016140000322F34004E49472D4F4E004E49472D7E
:101624004F46004657444F4E45004D50330020204E
:1016340000425249474800464C547443455474533D
:10164400575474465254745352547442525474420C
:101654004C5474534C547400464C54724345547265
:1016640053575472465254725352547242525472E3
:10167400424C5472534C5472004D4943314D4943CA
:10168400324543484F5245505444454C59524556AF
:1016940042004155582D494E4F5054494341434F00
:1016A400412D4431434F412D4432202D53442D20AC
:1016B400202D5553422D202D50432D202D42542DA5
:1016C400202048444D492D3148444D492D32484449
:1016D4004D492D3348444D492D4100202048494669
:1016E4004920322B3143484D4F44452020002046A9
:1016F4004C415420534F554E442000322F30312F4B
:1017040030322F30332F30322F31332F31322F32CA
:10171400332F32332F33332F34322F33322F3400DD
:1017240053442D494E2055442D494E2053442D4FAA
:10173400555455442D4F555450432D4F55544254F0
:101744002D4F555448442D4F55540033324B3438A3
:101754004B35364B36344B38304B39364B313132CE
:10176400313238313630313932323234323536333F
:101774003230333834000002070000243F000600F2
:10178400DB00CF00E600ED00FD000700FF00EF00E6
:10179400F7128F0039120F00F900F100BD00F612A4
:1017A40009001E0C70003805360936003F00F308A6
:1017B4003F08F300ED1201003E243028362D0000CE
:1017C400EE240900C0240012C00010181C1C1E1EA8
:0117D4001FF5
:10322400C2A5C2937F01123AD17F40123A257F0191
:10323400123AD1D2937F01123AD1C2937F01123A4A
:10324400D17FC0123A257F01123AD1E4F524E4FF7C
:10325400123A257F01123AD10524E524C394104083
:10326400ED7F0A123AD1D293E4FDFF123793E4FFC3
:09327400123989E4900030F022C7
:1028BE008F24300E05C20E12000EE5245402D3945E
:1028CE0000500302297E900030E0601514F070076E
:1028DE007F01123730800A900030E05401FF12372A
:1028EE0030900059E0D39400400302297E30060B4D
:1028FE00900055E070057F0A123AF02001589000C2
:10290E0055E0605214F07024201406FF123AF08045
:10291E004590003BE024DCFF122EE78F25E52524B1
:10292E0024FF123AF0AF2512392F802A300027905B
:10293E000055E0FF75F00584E5F0701AEF75F005AF
:10294E0084F52590003BE0FFE52530E0047D028014
:10295E00027D0112132820011720061420141130B5
:10296E00050E90004FE0540FC39400400312327DC9
:01297E002236
:053AF000E4FD021328B3
:093AC8009000557414F0C20022B4
:083AE20090003BEFF0023AC82E
:101328008F358D36E5367003123AC8C205C2A5124C
:1013380039F5900075E0540FF0E53512102F13E9D8
:1013480000141A01142C02147006147C07142008C7
:1013580014410914AD0A14820B14880C148E0D1450
:10136800940E14940F149410149411149412149449
:1013780013149414149F1514A516155624155625E0
:1013880015562615562715562815562915562A1561
:10139800562B155F2E155F2F155F30155F31155FC2
:1013A80032155F33155F34155F35150938156B39FC
:1013B800156B3A156B3B156B3C156B3D156B3E1564
:1013C800834615834715834815834915834A15773E
:1013D8004B15774C15774D15774E15774F0000153F
:1013E8008D200C1790004EE0FF64046004EFB405F4
:1013F800051227FB800E12382180097BFF7A1579A8
:10140800941236FFE490003BF0900055F0D20502AC
:10141800158D12382102158D7BFF7A15799B1236AE
:10142800FF02158D7BFF7A1579A21236FF12000E86
:10143800900055740AF002158DE536B4041D90002D
:10144800557414F0900058E004F0D394024002E47C
:10145800F0900058E0FD7F441239C1900058E0FD3B
:101468007F0112379302158D9000557432F0123AAD
:10147800FC02158D122A3802158D1235A402158D1D
:101488001234AF02158D123A8402158DE53524F217
:10149800FF123A3B02158D1232D602158D1227FB28
:1014A800D20502158DE5366003B404089000557422
:1014B80050F0D200E536C394024005E536B4040B7B
:1014C8007BFF7A1579A91236FF800EE536B402093A
:0B14D8007BFF7A1579B01236FFE53675
:1014E300B4040A7D037F081239C102158DE5366401
:1014F30003600302158D9000557414F07D027F087C
:101503001239C102158DE536C39403401590003B93
:10151300E0B4380EE536B404047F0180027F001284
:1015230038EBE536B4020B7BFF7A1579B71236FF39
:1015330080587BFF7A1579BE1236FF90002BE0FDB1
:101543007F0412390DE53670419000557450F0D286
:10155300008037AD36AF35122B72802E123AAFAD05
:1015630036AF35122ADF8022123AAFAD36AF3512CD
:101573002F578016123AAFAD36AF35121D7A800A57
:10158300123AAFAD36AF3512247190003BE535F01A
:011593002235
:1034AF007F091238798F3730141390003BE0B40C3A
:1034BF000C0537E537D394074003E4F537AD377F75
:1034CF00091239C17BFF7A1579C31236FFE537121E
:0F34DF0010A9301409E4900031F0FF12392F22A8
:102EE700EFB407005067902EF4F8282873022F09D3
:102EF700022F1E022F2A022F2D022F42022F4E02CF
:102F07002F51900049E060037F012290004AE06062
:102F1700037F02227F032290004AE060037F0222A0
:102F27007F03227F032290004BE060037F042290FF
:102F3700004CE060037F05227F002290004CE06098
:102F4700037F05227F00227F06227F07227F002240
:102B72008F378D38E538C39403401E90003BE0B593
:102B8200371724DCFFE538B404047D0180027D00A0
:102B92001231CA9000557450F074DC2537F5377540
:102BA200F004A4243BF974161236FAE538B4020E86
:102BB2007D207F041210AE7D207F050210AE74834B
:102BC2002537F582E43400F583E0F539C3940950E2
:102BD200147D2D7F041210AEC374399539FD7F0523
:102BE2001210AE80117D207F041210AEE539242729
:092BF200FD7F051210AED2002295
:102ADF008F378D38E538C39403401E90003BE0B527
:102AEF00371724D2FFE538B404047D0180027D003E
:102AFF001231CA9000557450F074D22537F53775DE
:102B0F00F004A4245CF974161236FAE538B4020EF8
:102B1F007D207F041210AE7D207F050210AE7483DE
:102B2F002537F582E43400F583E0F539C394095075
:102B3F00147D2D7F041210AEC374399539FD7F05B6
:102B4F001210AE80117D207F041210AEE5392427BC
:102B5F00FD7F051210AEE53870089000557450F0E7
:032B6F00D200226F
:102F57008F378D38E538C39403401D90003BE0B5AB
:102F67003716E538B404047D0180027D00AF3712BF
:102F770026419000557450F074C72537F53775F022
:102F870004A4247DF974161236FA7D207F041210EA
:102F9700AEE538B402077D207F050210AE746125C7
:102FA70037F582E43400F583E0F5392430FD7F05F9
:102FB7001210AEE53870089000557450F0D2002218
:101D7A008F378D38900075E04450F0A3E0F0900062
:101D8A00557450F07D207F041210AE7D207F05121D
:101D9A0010AEE53724B46056147003021E2F147077
:101DAA0003021E66147003021E9D147003021ED4E1
:101DBA0024056003021EDD7BFF7A1579CA1236FFFD
:101DCA00E538C39403401B900048E004F0D3940123
:101DDA004002E4F0E4FD7F24122BFBAD077F2412BE
:101DEA0039C1E4FF123568AD077F050210AE7BFFEB
:101DFA007A1579D01236FFE538C39403401B900058
:101E0A0049E004F0D394024002E4F0E4FD7F241296
:101E1A002BFBAD077F241239C17F01123568AD074C
:101E2A007F050210AE7BFF7A1579D61236FFE538A8
:101E3A00C39403401B90004AE004F0D3940140028B
:101E4A00E4F0E4FD7F24122BFBAD077F241239C195
:101E5A007F02123568AD077F050210AE7BFF7A1547
:101E6A0079DC1236FFE538C39403401B90004BE03F
:101E7A0004F0D394024002E4F0E4FD7F24122BFB29
:101E8A00AD077F241239C17F03123568AD077F057C
:101E9A000210AE7BFF7A1579E21236FFE538C39459
:101EAA0003401B90004CE004F0D394024002E4F09B
:101EBA00E4FD7F24122BFBAD077F241239C17F0476
:101ECA00123568AD077F050210AE7BFF7A1579E8F7
:041EDA001236FF229B
:102471008F378D38E53724B9603A14605A14607A81
:1024810014700302251E2404600302253F90007589
:10249100E04440F0A3E0F07BFF7A1579ED1236FFBE
:1024A100E538C39403500302253FAD38E4FF1230F1
:1024B1009E02253F7BFF7A1579F21236FF90007557
:1024C100E04450F0A3E0F0E538C394034070AD3828
:1024D1007F0112309E80677BFF7A1579F81236FFF3
:1024E100900075E04450F0A3E0F0E538C394034058
:1024F1004DAD387F0212309E80447BFF7A1579FE04
:102501001236FF900075E04450F0A3E0F0E538C3C7
:102511009403402AAD387F0312309E80217BFF7ADD
:102521001679041236FF900075E04450F0A3E0F0F4
:10253100E538C394034007AD387F0412309E900004
:10254100557432F074F82537F582E434FFF583E0F1
:0A25510075F005A4FD7F0402390DAA
:1038210090004EE0FFC39404400FEFD3940750097A
:10383100900076E04420F08007900076E054DFF0BD
:0D384100EF75F006A42496F974160236FA0D
:013AFC0022A7
:10384E00AE07EE543024F0601224F0601124207084
:10385E0017EE30E0037F01227F00227F0222EE303E
:0B386E00E0037F04227F03227F05227D
:102DFA008F3012384E8F31900076E0542CF0E53146
:102E0A00C394025016EF75F006A424DFF974161263
:102E1A0036FA900076E04401F080457BFF7A167915
:102E2A00EB1236FFE531242FFD7F051210AEE53097
:102E3A0024FD601314601914601F2403702290008B
:102E4A0076E04402F08019900076E04480F0801029
:102E5A00900076E04440F08007900076E04410F05D
:082E6A00123AC87F03023AE2AC
:1037F3008F30E53060067E007F0680047E007F0008
:1038030074F22FF974163EFA7BFF1236FFE530602F
:0E381300082430FD7F051210AE7F05023AE258
:102A380090004FE0FF540FC394025003022ADBE4D6
:102A4800F53BEFC4540F75F003A4F5377BFF7A16F6
:102A5800790A1236FF122FC790004FE0540F24FD59
:102A6800602414604314604024FE605E24F76016FE
:102A780014601324FD24FD502F241570597BFF7A10
:102A88001679110236FF74FF2537F9E43416FA7BFC
:102A9800FF7542007543007544387F031237627B27
:102AA800007A0079380236FF74FF2537F9E43416C6
:102AB800FA7BFF7542007543007544387F0312376F
:102AC800627B007A0079380236FF7BFF7A16791527
:072AD8000236FF1238212233
:10356800AE07EE700C900048E060037F4C227F535A
:1035780022BE020C90004AE060037F59227F4E224F
:1035880074482EF582E43400F583E0FDB402037F2D
:0C3598004C22EDB401037F53227F4E2231
:1035A4007F231238798F3790003BE0B40B16E53750
:1035B400C3943250057537328003E4F537AD377F55
:1035C400231239C1E53760097BFF7A16791902366F
:0B35D400FF7BFF7A1679201236FF22E1
:0F3A84009000557432F07BFF7A1679270236FFD7
:103A3B009000557432F0EF75F006A42424F9741736
:033A4B000236FA46
:1032D6009000557414F0900075E054BFF07BFF7AAF
:1032E60016790A1236FF900044E02401FD9000434F
:1032F600E03400FCE4FF12297F8F3E053E7D2F124D
:1033060010AE90004EE0B4040D90002EE0FEA3E057
:10331600FFAC06FD800B900052E0FEA3E0FFAC067A
:06332600FDAF3E02297F0D
:1027FB00C3900057E09403900056E09400500302FE
:10280B0032D6C3900057E09405900056E0940050E8
:10281B0064900067E0FF131313541FF53790004FBC
:10282B00E0540F640A704E9000557414F0E537D3E2
:10283B0094004041E5379410503B754200754300BE
:10284B007544387BFF7A16792E7F03123762E53792
:10285B0075F003A4244CF9741735F0FA7BFF75421D
:10286B000075430075443B7F031237627B007A008F
:10287B0079380236FF7BFF7A1679321236FF9000D9
:10288B0056E0FEA3E0FF7C007D3C120E8AAD077F75
:10289B000212390D900056E0FEA3E0FF7C007D3C58
:1028AB00120E8A7F0412390D900075E04440F0A39C
:0328BB00E0F02228
:103793008D37EFD39400400E7BFF7A1679351236BE
:1037A300FFE5371210A9C2937F01123AD1E5379092
:1037B300177A934488FF123A257F01123AD1D293A4
:0137C30022E3
:10309E00EF70047C0180027C00EC1460111460124D
:1030AE00146013146014240470127E13800E7E09B3
:1030BE00800A7E0980067E0980027E09BD04247482
:1030CE003E2FF582E43400F583E0D39E4002EEF00D
:1030DE00743E2FF582E43400F583E0C39E501AE06F
:1030EE0004F022BD0313743E2FF582E43400F58301
:0A30FE00E0D394004003E014F02238
:013AFD0022A6
:102FC700900075E054F8F0A3E054FBF090004FE058
:102FD700540F24FD603514603B14603824FE6040B4
:102FE70024F7602714602424FD24FD50272415703E
:102FF7003990008DE0FF64536030EF6456602B908A
:103007000075E04404F0A3E0F0801F900076E044F0
:1030170004F08016900075E04401F0A3E0F0800A08
:0D302700900075E04404F0A3E0F0D20E220A
:10361900EF5403FE900078E054F0F0BE0106E04458
:1036290008F0800ABF0207900078E04404F0EF54E4
:10363900C0FE6013BEC009900078E04401F0800725
:0A364900900078E04402F0D20E2257
:103730008F35E535B4FF117F0D123879EF30E7048E
:103740007F0180027F008F35E535600C900075E0C9
:103750004408F0A3E0F08007900075E054F7F0D241
:023760000E2237
:0536FA0035F0FA7BFF32
:1036FF008B3F8A408941E4F543AB3F0541E541AA41
:10370F00407002054014F9120E10F5426012AD42DE
:10371F00AF431210AE0543C3E5436480948640D98E
:01372F002277
:10297F008F3F8C408D41AE40AF417C277D10120EB2
:10298F008AEF4E601AEF2430FDAF3F053F1210AEB5
:10299F00AE40AF417C277D10120E8A8C408D41AE28
:1029AF0040AF417C037DE8120E8AEF4E601AEF2490
:1029BF0030FDAF3F053F1210AEAE40AF417C037DFF
:1029CF00E8120E8A8C408D41AE40AF417C007D6491
:1029DF00120E8AEF4E601AEF2430FDAF3F053F1203
:1029EF0010AEAE40AF417C007D64120E8A8C408DDC
:1029FF0041AE40AF417C007D0A120E8AEF4E601A45
:102A0F00EF2430FDAF3F053F1210AEAE40AF417C1B
:102A1F00007D0A120E8A8C408D41AF3F053FE54184
:092A2F002430FD1210AEAF3F226D
:10390D008F3E8D3FE53F75F00A842430FD1210AED9
:10391D00E53E04FFE53F75F00A84E5F02430FD0235
:02392D0010AEDA
:0510A9002431FD7F056C
:1010AE008F448D45E544C394034003021179E54511
:1010BE00C394304012E545D39439500B74D0254576
:1010CE00F54504F546804CE545C39461400FE54572
:1010DE00D3947A5008E54524AAF5468036E545C3F3
:1010EE009441400FE545D3945A5008E54524CAF57E
:1010FE00468020E54524D5601224FC600924027048
:10110E000F754625800D7546268008754627800387
:10111E00E4F546E54625E0247DF582E43417F583B3
:10112E00E493FEE54425E02469F582E43400F5837A
:10113E00EEF0A3E4F0E54425E02469F582E4340002
:10114E00F583C083C082E0FEA3E0FFE54625E024E0
:10115E007EF582E43417F583E493FDEEEF4DFFD078
:10116E0082D083EEF0A3EFF0021325E544C394067C
:10117E0040030212AFE545C394304066E545D39473
:10118E0039505F74D02545F54504F54625E0247D9C
:10119E00F582E43417F583E493FEE54425E02469F3
:1011AE00F582E43400F583EEF0A3E4F0E54425E0A7
:1011BE002469F582E43400F583C083C082E0FEA387
:1011CE00E0FFE54625E0247EF582E43417F583E45E
:1011DE0093FDEEEF4DFFD082D083EEF0A3EFF00241
:1011EE001325E54512102F12382D123D41124242A1
:1011FE00124743124C44125145125646125B471287
:10120E006548126049126A4C126F4E12744F127971
:10121E0050127E52128353128854128D55129259C7
:10122E00127E72128874000012977545C0805D752B
:10123E0045F7805875457C8053754539804E754508
:10124E00DE80497545F980447545F1803F7545EF5F
:10125E00803A75450680357545F68030754538807F
:10126E002B754537802675453F80217545F3801CCB
:10127E0075455080177545ED80127545F8800D75D2
:10128E00453E800875456E8003E4F545E54425E04E
:10129E002469F582E43400F583E4F0A3E545F0809B
:1012AE0076E544D39406401AE544940D5014E54572
:1012BE00C39401400DE545D394055006E54524261B
:1012CE00F546E54625E0247DF582E43417F583E402
:1012DE0093FEE54425E02469F582E43400F583EEBF
:1012EE00F0A3E4F0E54425E02469F582E43400F54A
:1012FE0083C083C082E0FEA3E0FFE54625E0247EA6
:10130E00F582E43417F583E493FDEEEF4DFFD082C2
:0A131E00D083EEF0A3EFF0D20E2210
:1039F500E4FFEF25E02479F582E43400F583E4F073
:0A3A0500A3F00FEFC3940540E9227F
:063A9300131313541FFF82
:093A9900EF54079017CD93FF22B2
:10327D007B007A0079277D037C007F8F1237C43065
:10328D000C030239F5AF27123A99900079E4F0A3B7
:10329D00EFF0E527123A9390007BE4F0A3EFF0AF47
:1032AD0028123A9990007DE4F0A3EFF0E528123A48
:1032BD009390007FE4F0A3EFF0AF29123A999000BC
:0932CD0081E4F0A3EFF0D20E221F
:103A4E00E4FFE4900079F0A3F00FEFC3940540F289
:033A5E00D20E2263
:10398900E4FEEFFDEE25E02469F582E43400F583D9
:0D399900E4F0A3EDF00EEEC3940D40E62225
:10000E00E4FF74062FF582E43400F583E4F00FEF7D
:10001E00C3941040ED900069E0FEA3E0FF30E007CE
:10002E00900014E04408F0EF30E10790000DE0443A
:10003E0008F0EF30E207900006E04408F090006A06
:10004E00E030E307900009E04408F0900069E0FE1C
:10005E00A3E0FF30E407900011E04408F0EF30E534
:10006E0007900015E04408F0EF30E60790000FE02F
:10007E004408F090006AE030E70790000CE0440876
:10008E00F0900069E0FEA3E0FFEE30E00790001371
:10009E00E04408F0EE30E107900012E04408F0EE84
:1000AE0030E20790000BE04408F0900069E0A330C6
:1000BE00E307900007E04408F0900069E0FEA3E03B
:1000CE00FFEE30E407900008E04408F0EE30E5075C
:1000DE0090000EE04408F090006BE0FEA3E0FF30CD
:1000EE00E007900014E04420F0EF30E10790000D9F
:1000FE00E04420F0EF30E207900006E04420F0905C
:10010E00006CE030E307900009E04420F090006BB3
:10011E00E0FEA3E0FF30E407900011E04420F0EF92
:10012E0030E507900015E04420F0EF30E607900030
:10013E000FE04420F090006CE030E70790000CE0F8
:10014E004420F090006BE0FEA3E0FFEE30E007905D
:10015E000013E04420F0EE30E107900012E044205E
:10016E00F0EE30E20790000BE04420F090006BE0E0
:10017E00A330E307900007E04420F090006BE0FE10
:10018E00A3E0FFEE30E407900008E04420F0EE30EC
:10019E00E50790000EE04420F090006DE0FEA3E035
:1001AE00FF30E007900014E04410F0EF30E10790CC
:1001BE00000DE04410F0EF30E207900006E044102E
:1001CE00F090006EE030E307900009E04410F090EC
:1001DE00006DE0FEA3E0FF30E407900011E0441054
:1001EE00F0EF30E507900015E04410F0EF30E60731
:1001FE0090000FE04410F090006EE030E7079000A2
:10020E000CE04410F090006DE0FEA3E0FFEE30E055
:10021E0007900013E04410F0EE30E107900012E07A
:10022E004410F0EE30E20790000BE04410F0900026
:10023E006DE0A330E307900007E04410F090006DEE
:10024E00E0FEA3E0FFEE30E407900008E04410F07B
:10025E00EE30E50790000EE04410F090006FE0FEE7
:10026E00A3E0FF30E007900014E04404F0EF30E12B
:10027E000790000DE04404F0EF30E207900006E036
:10028E004404F0900070E030E307900009E044046D
:10029E00F090006FE0FEA3E0FF30E407900011E065
:1002AE004404F0EF30E507900015E04404F0EF3021
:1002BE00E60790000FE04404F0900071E0FEA3E02A
:1002CE00FF30E007900014E04480F0EF30E107903B
:1002DE00000DE04480F0EF30E207900006E044802D
:1002EE00F0900072E030E307900009E04480F09057
:1002FE000071E0FEA3E0FF30E407900011E04480BF
:10030E00F0EF30E507900015E04480F0EF30E6079F
:10031E0090000FE04480F0900073E0FEA3E0FF3009
:10032E00E007900014E04402F0EF30E10790000D7A
:10033E00E04402F0EF30E207900006E04402F09055
:10034E000074E030E307900009E04402F09000737F
:10035E00E0FEA3E0FF30E407900011E04402F0EF6E
:10036E0030E507900015E04402F0EF30E60790000C
:10037E000FE04402F0900075E0FEA3E0FF30E007CE
:10038E00900014E04401F0EF30E10790000DE044DE
:10039E0001F0EF30E207900006E04401F0900076A5
:1003AE00E030E307900009E04401F0900075E0FEB4
:1003BE00A3E0FF30E407900011E04401F0EF30E5D8
:1003CE0007900015E04401F0EF30E60790000FE0D3
:1003DE004401F0900076E030E70790000CE0440115
:0403EE00F090007516
:1003F200E0FEA3E0FFEE30E007900013E04401F0DE
:10040200EE30E107900012E04401F0EE30E2079096
:10041200000BE04401F0900075E0A330E307900088
:1004220007E04401F0900075E0FEA3E0FFEE30E447
:1004320007900010E04420F0EE30E507900010E055
:100442004410F0EE30E607900010E04404F0900013
:1004520077E0FEA3E0FF30E00790000BE04404F0F9
:10046200EF30E107900012E04404F0EF30E2079031
:100472000013E04404F0900078E030E30790000CB1
:10048200E04404F0900079E0FEA3E0FF30E0079042
:100492000007E04480F0EF30E10790000BE0448079
:1004A200F0EF30E207900012E04480F090007AE032
:1004B20030E307900013E04480F090007AE030E4EB
:1004C2000790000CE04480F090007BE0FEA3E0FF88
:1004D20030E00790000BE04402F0EF30E1079000BB
:1004E20012E04402F0EF30E207900013E04402F021
:1004F20090007CE030E30790000CE04402F09000B2
:100502007DE0FEA3E0FF30E007900011E04440F000
:10051200EF30E107900009E04440F0EF30E207904D
:100522000006E04440F090007EE030E30790000DCA
:10053200E04440F090007EE030E407900014E04494
:1005420040F090007FE0FEA3E0FF30E00790001350
:10055200E04440F0EF30E10790000CE04440F0EF5F
:1005620030E20790000FE04440F0900080E030E37A
:1005720007900015E04440F0900081E0FEA3E0FF08
:1005820030E00790000EE04440F0EF30E1079000C9
:1005920008E04440F0EF30E207900007E04440F00A
:1005A200900082E030E30790000BE04440F09000BE
:1005B20082E030E407900012E04440F0C2937F01F1
:1005C200123AD17F40123A257F01123AD1D2937F5B
:1005D20001123AD1C2937F01123AD17FC0123A2559
:1005E200E4F53774062537F582E43400F583E0FF3D
:0F05F200123A250537E537C3941040E7D293221C
:103A25007E08C290EF139291EFC313FFD2901EEE62
:063A3500D3940050ED22C5
:10396B00AE0753050FEDC3940A5006ED2430FFFD4F
:0E397B0022EE6005ED2457FF22ED2437FF22D7
:101BE7008F658D66E5667029AF6AAE69AD68AC67CB
:101BF700EC4D4E4F701BAB6BAA6CA96D7430120E77
:101C070056AB6BAA6CA96D900001E4120E687F01B8
:101C170022E4F56EF56FE56564646009E565647552
:101C27006003021D157575007574CA75739A757210
:101C37003BE565B4643FE4FFFEFDE5675480FC6067
:101C470034AB6BAA6CA96DAF6F056F8F827583007C
:101C5700742D120E68E56AFBE569FAE568F9E56730
:101C6700547FF8C3E49BF56AE49AF569E499F5684B
:101C7700748098F56775700BAB75AA74A973A87211
:101C8700AF6AAE69AD68AC67120F468F711570E524
:101C97007065666004E5716003756E01E56E601A34
:101CA700AD71E4FF12396BAB6BAA6CA96DAE6F0512
:101CB7006F8E82758300EF120E68AF6AAE69AD68EA
:101CC700AC67AB75AA74A973A872120F46AC00ADC6
:101CD70001AE02AF038F6A8E698D688C67AF75AEF0
:101CE70074AD73AC72E47B0AFAF9F8120F468F757C
:101CF7008E748D738C72E4FFFEFDFCAB75AA74A91C
:101D070073A872C3120FD86003021C7F80527570CC
:101D17002075710974FC2570F570AF6AAE69AD68FE
:101D2700AC67F9F8120FE9AD071571E571656660E3
:101D370003ED6003756E01E56E6021E565B4580437
:101D47007F0180027F0012396BAB6BAA6CA96DAE65
:101D57006F056F8E82758300EF120E68E57070B4A1
:101D6700AB6BAA6CA96D856F82758300E4120E6850
:031D7700AF6F2229
:100B11008B508A518952E4F559F55AAB53AA54A91D
:100B210055AF59EF3395E08F82F583120E29642575
:100B31006051D3E55A6480949E4003AF5A22AB536F
:100B4100AA54A955AF590559EF3395E08F82F58322
:100B5100120E29FFAB50AA51A952AE5A055AEEFD09
:100B61003395E08D82F583EF120E68AB53AA54A939
:100B710055AF59EF3395E08F82F583120E29709BA3
:100B8100AF5A22AF59EF3395E08F82F583A3AB5370
:100B9100AA54A955120E29F55F6473706BAB56E523
:100BA10058F92403F558E557FA3400F55712100F98
:100BB1008B5C8A5D895E05590559E4F55BAB5CAADE
:100BC1005DA95EAF5BEF3395E08F82F583120E294D
:100BD1007003020B1CC3E55A6480949E4003020B10
:100BE1001C055BEF3395E08F82F583120E29FFAB75
:100BF10050AA51A952AE5A055AEEFD3395E08D82A5
:100C0100F583EF120E6880B5E55FB4251E05590521
:100C110059AB50AA51A952AF5A055AEF3395E08FFB
:100C210082F5837425120E68020B1CE55FB46332F2
:100C310005590559AB56E558F92402F558E557FA17
:100C41003400F557120EDFFFAB50AA51A952AE5A2C
:100C5100055AEEFD3395E08D82F583EF120E6802A1
:100C61000B1CE4F560F55BAF59EF3395E0FEEF2423
:100C710001FFE43EFEAD5BED3395E0FCED2FF58227
:100C8100EC3EF583AB53AA54A955120E29F55FC367
:100C9100648094B0401ED3E55F648094B95015E53B
:100CA1005F24D0FFE56075F00AA42FF560055BE5D0
:100CB1005BB403B3AF59EF3395E0FEEF2401FFE4DA
:100CC1003EFEAD5BED3395E0FCEF2DFFEE3CFEAB60
:100CD10053E5552FF9E5543EFA8B5CF55D895EE5E8
:100CE100592402255BF559120E10249C600F24EF44
:100CF100600B24FD600724206003020B1CAB56052A
:100D010058E558AA577002055714F9120E10FF330F
:060D110095E08F64F5631C
:100D1700F562F561FEAD62AC617808120FFC8F6475
:100D27008E638D628C610558E558AA577002055786
:100D370014F9120E10FF3395E0FEFDFCE5644FF544
:100D470064E5634EF563E5624DF562E5614CF56177
:100D5700AF64AE63AD62FC7808120FFC8F648E63DC
:100D67008D628C610558E558AA577002055714F92A
:100D7700120E10FF3395E0FEFDFCE5644FF564E5C8
:100D8700634EF563E5624DF562E5614CF561AF646D
:100D9700AE63AD62FC7808120FFC8F648E638D62C0
:100DA7008C610558E558AA577002055714F9120EB9
:100DB70010FF3395E0FEFDFCE5644FF564E5634EF7
:100DC700F563E5624DF562E5614CF561AB5CAA5DE3
:100DD700A95E120E10FFC00785646A856369856284
:100DE70068856167AF5AEF3395E0FEE5522FF9E565
:100DF700513E85506BF56C896DD007AD60121BE7CE
:090E0700EF255AF55A020B1C22DA
:1033D2008B3B8A3C893D754D00754E00754F3E8B87
:1033E200538A548955854D56854E57854F587B01D2
:1033F2007A007996120B11E4FEC3EF6480F8EE6452
:103402008098501BC299EEFD3395E0FC74962DF521
:103412008274003CF583E0F5993099FD0E80DA2242
:10368B00123A61123224123AFA123AF9123ADA78F1
:10369B0014E6FF5401D3940040F512201A7814E677
:1036AB00FF1206017814E6FF1228BE7814E6FF120B
:0836BB003653E47814F680D7C1
:103A6100758921758851759850758DFF43878075CB
:033A7100A8832205
:033AF5008F092214
:093AD100EFD394034002DFFE2252
:03000B000222547A
:10225400C0E0C0F0C083C082C0D075D000C000C050
:1022640001C002C003C004C005C006C007758A606F
:10227400758CFF781106E675F00A84E5F0600302B8
:10228400230D122E727811E675F06484E5F0703B2C
:10229400F678147601780D06E675F00A84E5F07098
:1022A4002A7814E64402F6780DE6FF75F03284E5E8
:1022B400F070187814E64404F6EF75F06484E5F0E1
:1022C4007009780DF67814E64408F630053B900062
:1022D4002AE004F0D394134006E4F0D2A5802A90B7
:1022E4000058E0FF700B90002AE0B40104C2A580FE
:1022F40018EFB4010B90002AE0B40404C2A58009CD
:1023040090002AE0B40802C2A57810E6603806E618
:10231400D3949F40312008247812E6B4021E781723
:10232400E660197813E6FFC39408500EEF5403FFD8
:10233400BF0302D2197813068002D21978127600EC
:10234400C20878107600D007D006D005D004D00398
:10235400D002D001D000D0D0D082D083D0F0D0E051
:012364003246
:03000300022C814B
:102C8100C0E0C0D075D000C000C006C007200865F4
:102C9100781206E6FFB4020C7810E6D39491405501
:102CA100D2088051780BE6FEC313F67810E6D39470
:102CB100104006780BE64480F6EF640A6004EFB436
:102CC1001A07780BE618F6802CEFB41212780BE68F
:102CD100B4BF0418E6601E78177600D2088016EF9C
:102CE100B42212D21978137600780BE6F4186660D4
:102CF10004C219D20878107601D007D006D000D0CE
:042D0100D0D0E0321C
:03000000023ABC05
:0C3ABC00787FE4F6D8FD75817502368B2A
:100E1000BB010689828A83E0225002E722BBFE02E0
:090E2000E32289828A83E4932213
:100E2900BB010CE58229F582E5833AF583E022507E
:100E390006E92582F8E622BBFE06E92582F8E222C8
:0D0E4900E58229F582E5833AF583E49322E2
:100E5600BB010689828A83F0225002F722BBFE017B
:020E6600F32275
:100E6800F8BB010DE58229F582E5833AF583E8F0C0
:100E7800225006E92582C8F622BBFE05E92582C86C
:020E8800F22254
:100E8A00BC000BBE0029EF8DF084FFADF022E4CC4C
:100E9A00F875F008EF2FFFEE33FEEC33FCEE9DEC15
:100EAA00984005FCEE9DFE0FD5F0E9E4CEFD22ED5B
:100EBA00F8F5F0EE8420D21CFEADF075F008EF2FA5
:100ECA00FFED33FD4007985006D5F0F222C398FD96
:050EDA000FD5F0EA2233
:100EDF00BB010A89828A83E0F5F0A3E022500687DE
:100EEF00F009E71922BBFE07E3F5F009E3192289A0
:0B0EFF00828A83E493F5F074019322D3
:100F0A0075F008758200EF2FFFEE33FECD33CDCC9E
:100F1A0033CCC58233C5829BED9AEC99E582984021
:100F2A000CF582EE9BFEED9AFDEC99FC0FD5F0D6FE
:100F3A00E4CEFBE4CDFAE4CCF9A88222B800C1B928
:100F4A000059BA002DEC8BF084CFCECDFCE5F0CB66
:100F5A00F97818EF2FFFEE33FEED33FDEC33FCEB9F
:100F6A0033FB10D703994004EB99FB0FD8E5E4F95A
:100F7A00FA227818EF2FFFEE33FEED33FDEC33FC47
:100F8A00C933C910D7059BE99A4007EC9BFCE99A3B
:100F9A00F90FD8E0E4C9FAE4CCFB2275F010EF2F80
:100FAA00FFEE33FEED33FDCC33CCC833C810D70780
:100FBA009BEC9AE899400AED9BFDEC9AFCE899F8BB
:0E0FCA000FD5F0DAE4CDFBE4CCFAE4C8F9224E
:100FD800EB9FF5F0EA9E42F0E99D42F0E89C45F06F
:010FE80022E6
:100FE900E8600FECC313FCED13FDEE13FEEF13FFE6
:030FF900D8F1220A
:100FFC00E8600FEFC333FFEE33FEED33FDEC33FC53
:03100C00D8F122F6
:10100F00BB010789828A8302108B5005E9F8021011
:10101F0082BBFE05E9F802109489828A8302109D33
:10102F00D083D082F8E4937012740193700DA3A350
:10103F0093F8740193F5828883E473740293686064
:06104F00EFA3A3A380DF64
:10105500D083D082F8E4937012740193700DA3A32A
:1010650093F8740193F5828883E473740293B5F061
:0D107500067403936860E9A3A3A3A380D8C9
:09108200E6FB08E6FA08E6F92293
:09108B00E0FBA3E0FAA3E0F92266
:09109400E2FB08E2FA08E2F9228D
:0C109D00E493FB740193FA740293F922AF
:00000001FF
