:103843008F398D3A1238C57FCC12346EAF391234AA
:0A3853006EAF3A12346E12395D2296
:10374B008F2C8C2D8D2E1238C57FCC12346EAF2C56
:10375B0012346EAF2E12346EE52DFF12346E123909
:02376B005D22DD
:1033F8008F3B8B3C8A3D893E1238C57FCC12346E98
:10340800AF3B12346EAB3C053EE53EAA3D7002056B
:103418003D14F9121635FF12346EE540154070025E
:0B342800153F14453F70DE12395D2295
:1036D6008F3BE4F53C1238C57FCC12346E200C14B7
:1036E600AF3B12346E1238C57FCD12346ED21D1226
:0A36F600351A8F3C12395DAF3C22FB
:103380008F2CE4F52DF52E1238C57FCC12346E202B
:103390000C22AF2C12346E1238C57FCD12346EC29F
:1033A0001D12351A752D008F2ED21D12351AEFFE03
:0C33B000E4EE422D12395DAE2DAF2E224E
:1030D9008E388F398B3A8A3B893CD3E5399401E59F
:1030E9003894004008E539153970021538C21D12A7
:1030F900351AAB3A053CE53CAA3B7002053B14F98D
:10310900EF12167BE53915397002153814453870F8
:10311900DCD21D12351AAB3AAA3BA93CEF12167B39
:0331290002395D0B
:103680008F318B328A3389341238C57FCC12346E35
:10369000AF3112346E1238C57FCD12346EAB32AA00
:0B36A00033A934AF36AE351230D9220A
:103263008F308B318A3289331238C57FCC12346E5A
:10327300AF3012346E1238C57FCD12346EC21D12B8
:10328300351A7536008F37D3E5379535E5369534DE
:103293004006853436853537AB31AA32A933AF378B
:0A32A300AE361230D9AE36AF372236
:10346E008F41754208C296E54130E704D29580023D
:10347E00C2951239B8E54125E0F541D2961239B818
:10348E00D542E2C296D295120006D29612000630AE
:0A349E009502D20CC296120006221D
:10351A00D295120006753E08D296E53D25E0F53DA6
:10352A00309503433D011239B8C2961239B8D53ED7
:10353A00E7201D04C2958002D295120006D2961287
:07354A000006C296AF3D220E
:1038C500D295D296120006C20C209502D20CC29552
:0638D500120006C296225B
:0D395D00C295120006D296120006D29522E5
:050006007F0ADFFE226D
:0139B80022EC
:10205A004B434D5F504F5745525F4F4E004B434DD8
:10206A005F524541445F495251204572726F720076
:10207A004B434D5F4952515F504C41595F53544154
:10208A005445202530327800526573746F72654169
:10209A0020253032782025303278202530327800D9
:1020AA0053455420004B434D5F564F4C554D455FA9
:1020BA004354524C202564004B434D5F494E5055C2
:1020CA00545F534F555243452025303278004B43D5
:1020DA004D5F4C495354454E5F4D4F444520253082
:1020EA00327800417070436F6D6D616E64202530E7
:1020FA0032782025303278202530327800010508E0
:10210A000064005E01E803E40C102700101112308D
:10211A00313233342021222400011011121300021B
:10212A0003010507060419181716151413121100CE
:10213A0001020304050607080903040506080A0F35
:0D214A0019326400020406080A0C0D0E0F85
:08399500E4900058F00238280C
:103828007D017F051238437F021239B39000597425
:0B38380064F07BFF7A20795A022B23FA
:101D1A008F24309403021E327F011236D68F25ADEE
:101D2A00257F03123843300C097BFF7A207967023A
:101D3A002B23E5255401D3940040031217C9E52546
:101D4A005402D39400404B7F181236D690004FEFBE
:101D5A00F07F1A1236D6900067EFF0900059E070C3
:101D6A00082014057F071239B390004FE070031260
:101D7A003918122DE51239BD90004EE0FF64046057
:101D8A0004EFB4050D7FA212338090002CEEF0A36D
:101D9A00EFF0E5255408D39400400312144CE525CE
:101DAA005404D3940040167F2F1236D690002BEF9E
:101DBA00F090003BE0B438057F381239B3E525547A
:101DCA0010D39400400312317FE5255440D3940088
:101DDA0040247FA3123380900056EEF0A3EFF04E1A
:101DEA00600F90003BE06401600C7F161239B380EB
:101DFA00057F151239B3E5255420D39400401D7F81
:101E0A00A51236D6900029EFF07BFF7A20797AF571
:101E1A003A122B23900029E0FF1234A8E5255480BA
:091E2A00D3940040031224F522B8
:1017C9007B007A00792A7535007536047F40123618
:1017D90080300C05E4FF0239B3E52A540390005820
:1017E900F0852B28AD287F201224188F297BFF7ABA
:1017F90020799285283A85293B852B3C122B23E5B4
:1018090029C39404400FE529D39408500890004E49
:10181900E52BF0800690004EE529F07F201236D6A0
:101829008F287B007A00792A7535007536027F8109
:1018390012368090008DE52BF07F2F1236D690005E
:101849002BEFF0E4F527AD277F091224188F29E53E
:10185900292430FF1236D68F28AD287F301224185C
:1018690074832529F582E43400F583EFF00527E533
:1018790027C3940840D07F391236D68F28E52854DB
:101889000FFD7F39122418900061EFF0E528C45448
:101899000FFD7F39122418900062EFF07F24123671
:1018A900D68F28AD287F241224187D507F2E123818
:1018B900437D467F251238437D467F26123843757E
:1018C9002A44752B44752C30E4F52DFB7A00792ACE
:1018D900F53F7540047F801233F8121E337BFF7A7F
:1018E900217907753F0075400E7F8E1233F8E49019
:1018F900004FF0900067F0900029F0C201C214C2B5
:101909000690008BF0FF7E20121BFB7F021239B379
:10191900900059740AF01239BD122DE57FFF123576
:10192900EF900029E0FF1234A8900058E0FDE4FF91
:0419390012355122F0
:102C14007BFF7A2079AA12358CE4F527AD277F044F
:102C240012378F12000E7FFF12398C7FFF12398CFE
:102C34000527E527C3946440E3E4F52AF52B7529B9
:102C440002FB7A007929F53F7540047F401233F87E
:102C54007D277F2F123843E4F527E5272430FFE44E
:102C6400FD1238430527E527C3940840ED7DAB7F6B
:102C7400241238437D017F051238437F021239B391
:072C8400900059741EF022BC
:1024F5007B007A0079277534007535087F9812328C
:10250500638F2FE52F640260030225B8E52724F8C1
:10251500607624E8602724F5604814605824FD603F
:10252500030225A67BFF7A2079AF85283A122B2353
:1025350090002BE528F07F381239B380767BFF7A3F
:102545002079C285283A122B23AD287F2012241822
:1025550090004EEFF01239AD12396AE4FF1239B32B
:1025650080517BFF7A2079D885283A122B23AF2812
:10257500122B9C803E7BFF7A2079D885283A122B36
:1025850023AF28123652802BA206E433FFE52854E8
:1025950001B5071FE52830E21A90003B7438F0803A
:1025A500127BFF7A2079ED852F3A85273B85283CDC
:0825B500122B237F010235EF18
:10299D00EF24F7602524E5602F24F9601624FB60F1
:1029AD002024F8606714605D24197067ED9021157F
:1029BD0093FF22ED90212293FF22ED90212893FF8A
:1029CD0022ED90213093FF22E4F53990004AE0D3B7
:1029DD0094004003433901900048E0D39400400334
:1029ED00433902900049E0FF25E025E0423990008F
:1029FD004BE0FFC454F04239A3E0FFC4333354C05D
:102A0D004239AF3922ED90214D93FF22ED902143B4
:062A1D0093FF227F00225E
:10241800E4FEEF24F7604A24E5607024F9602D2477
:10242800FB605324F870030224DD1470030224C8EF
:10243800241960030224F2EE90211593B50503AF29
:1024480006220EEEC3940D40EE7F0022EE9021226C
:1024580093B50503AF06220EEEC3940640EE7F0146
:1024680022EE90212893B50503AF06220EEEC39401
:102478000840EE7F0022EE90213093B50503AF06A9
:10248800220EEEC3941340EE7F0022ED30E1047F6C
:102498000180027F00900048EFF0ED13135403A36E
:1024A800F0ED30E0047F0180027F0090004AEFF0F9
:1024B800EDC45403A3F0EDC413135403A3F0802A0E
:1024C800EE90214D93B50503AF06220EEEC3940A94
:1024D80040EE7F0022EE90214393B50503AF06221C
:0D24E8000EEEC3940A40EE7F00227F00221A
:103621008B3A8A3B893CEF6027AB3A053CE53CAAE3
:103631003B7002053B14F9121635FEAB3D053FE523
:103641003FAA3E7002053E14F9EE12167B1F80D68A
:013651002256
:102157006752656D6F766554696D657220253032FB
:1021670078004D656E7553656C6563744120253045
:102177003278004D4B434D5F507265656D707469E1
:10218700626C653A25642025642F256400536F75BA
:10219700726365573A2530327828253032782925F9
:1021A70030327828253032782900536F757263658D
:1021B7004A3A25303278206C6173743A2530327888
:1021C700004B434D5F5352435F56414C49442045B2
:1021D700202564202564004B434D5F5352435F56CF
:1021E700414C49443A2530327825303278204C61C9
:1021F70073743A2530327825303278006D494E5065
:1022070055545F412025303278004B434D5F535280
:10221700435F56414C4944203D204C6173743A2535
:10222700303278253032780D0A0000010203002091
:1022370000401000400001000200040004050608E9
:03224700090A0B76
:0139B90022EB
:1035BD008F2490008BE0602904F0D394C840227FC3
:1035CD00411236D68F257BFF7A21795785253A1200
:1035DD002B23E490003BF0AF251232B6E490008B24
:0235ED00F022CA
:10376D008F3212396AD218E532600D75333030065A
:10377D000AC2064333028003753320AD337F08023E
:02378D003843BF
:1037B100AD07EDC394FF500E7F0912299DEF441010
:0E37C100FD7F09023843E4FD7F0912384322E0
:102FD0008F358D361239ADE536601674832535F59B
:102FE00082E43400F583E0C394125019E004F080C9
:102FF0001474832535F582E43400F583E0D394001E
:103000004003E014F0AD357F0912299D8F3774839A
:103010002535F582E43400F583E0FD7F3012299DEB
:0A302000AD07E5372430FF02384306
:0D396A00301409C214E4FD7F091238432215
:0639AD00300602C20622F2
:0932AD00F582E43400F583E0FF32
:1032B6008F27900076E0542CF0900075E054F8F0DB
:1032C600A3E054FBF01239AD12396A90003BE0FFDF
:1032D6006003B401177BFF7A21796985273A122B9F
:1032E6002390004EE527F0FDFF122EBC7F01023928
:0132F600B324
:1031CC007BFF7A21797A900027E0FF2433F582E4A3
:1031DC003400F583E0F53A8F3B90003CE0F53C126F
:1031EC002B2390003CE0601B900027E0243312322C
:1031FC00AD90003CE0FF900027E004F0C39F400B33
:0C320C00E4F02290004EE0FF1232B622E7
:102F1A00E490003BF090005AE0FF601190003DE021
:102F2A00FEC39F500874332E1232AD802090005A8F
:102F3A00E0FF90003DE0C39FFFE49400FE74312F50
:102F4A00F58274223EF583E493FF1232B690005A5A
:102F5A00E02404FFE433FE90003DE004F0C39FEE5A
:0B2F6A006480F87480984002E4F022BC
:102EBC008F2C8D2DAD2C7F2012299DAD077F2012DC
:102ECC003843AD2C7F2012299DC007AD2D7F2012D9
:102EDC00299D8F3DD03B7BFF7A217994852C3A85B7
:102EEC002D3C122B23E52DD394035021AD2D7F20A7
:102EFC0012299DAD077F411238437F201236D68FA1
:0E2F0C003B7BFF7A2179B1852C3A122B2322D0
:101BFB008E2E8F2FE4F53090008DE0B45311AF3063
:101C0B00053074332FF582E43400F5837407F0E567
:101C1B002F452E7003021CF0E4F531E53125E0244D
:101C2B0035F582E43422F583E493F532740193F5B0
:101C3B0033E52E5532FEE52F55334E603DE53364CB
:101C4B00204532700C90002EE07002A3E0701480DF
:101C5B0029E53364404532700A90002EE07002A3F0
:101C6B00E07017E53190224393FFAE3005307433AB
:101C7B002EF582E43400F583EFF00531E53164078E
:101C8B00709990005AE06530600BE490003DF09045
:101C9B00005AE530F0E4F53190005AE0FFE531C32E
:101CAB009F501C74332531F582E43400F583E0FE3C
:101CBB00C394094006EED3940C4004053180D990AF
:101CCB00003CE06531600BE4900027F090003CE5B0
:101CDB0030F07BFF7A2179C890003CE0F53A8F3BDE
:101CEB00122B23801F90003CE530F0E490005AF05B
:101CFB00900027F090003DF090002EF0A3F09000A4
:0F1D0B0052F0A3F0900092E52EF0A3E52FF02206
:10144C007F1C1233808E278F28900092E0FCA3E043
:10145C00FD65287003EC6527700302161FC21C7B08
:10146C00FF7A2179DEE527F53B753A00F53C8528B6
:10147C003DECF53F753E00F5408D41122B23E4F514
:10148C0029E52925E02435F582E43422F583E4931B
:10149C00F52A740193F52BE527552AFEE528552BE3
:1014AC004E7003021565900092E0552AFEA3E0559C
:1014BC002B4E6003021565D21CE52A7064E52B24C3
:1014CC00F9605C24C7602E242070567FA0123380F4
:1014DC0090002EEEF0A3EFF04E601174FF900043DD
:1014EC00F0A3F0FDFC7FA412374B80357F0E123930
:1014FC00B3C21C802C7FA1123380900052EEF0A35B
:10150C00EFF04E601174FF900043F0A3F0FDFC7FF0
:10151C00A412374B800B7F0F1239B3C21C8002C24E
:10152C001C301C41E52990224393FF90004EE0FDB6
:10153C00122EBCE5299022439390004EF07BFF7A4B
:10154C00227903F53A122B23E490003BF07F011231
:10155C0039B3E490008BF0800C0529E529C394077E
:10156C00500302148D301C03021618E4F529E529EA
:10157C0025E02435F582E43422F583E493F52A74CE
:10158C000193F52BE527552AFEE528552B4E707057
:10159C00900092E0552AFEA3E0552B4E6062E52B9D
:1015AC00852AF012177515C6002015D8004015EACB
:1015BC00100015F14000000015F6E490002EF0A389
:1015CC00F0FF1234A87F101239B3801EE490005241
:1015DC00F0A3F0FF1234A87F111239B3800C7F12E4
:1015EC001239B380057F131239B3E5299022439346
:1015FC00FF90004EE0B5071490008B7401F0800C46
:10160C000529E529C39407500302157AAF28AE27A4
:10161C00021BFB7BFF7A227911E527F53B753A001B
:09162C00F53C85283D122B232218
:10393E00205245534554000102040001102021304D
:0139BA0022EA
:100601008F24122AA7900059E0D39400401630019C
:1006110003020B03E5245402D394005003020B039D
:10062100E014F02230012530190BC219780FE6B41D
:100631005903123828200703020B03C207D213788B
:100641001AE664186003020B03023828200703022C
:1006510006D2C207D213781AE624F8602B24F76079
:100661002214601824FE600D24EC6038241070619F
:10067100122F1A805C7F0112312C8055E4FF123158
:100681002C804E123700804990003BE0FFC3943824
:10069100400DEFD3943E5007E4FF1239B38032127C
:1006A10037CF802D90003BE0FFC394384006EFD355
:1006B100943A40077F381239B3801690003BE0042A
:1006C100F0D3943A40037438F090003BE0FF1239C4
:1006D100B3781CE6600C06E6D3943C4005E4F6785A
:1006E10018F6201903020ADDC219780FE612174F16
:1006F1000AD1000AD8030AB504088B0508B1060A15
:10070100BC070A9D080AA20B0A880C08450D083986
:100711000E0A0310086211083F120A0D130A6A1427
:10072100091D160A731707B71807A51908911A09A1
:10073100AB1B0ACA400AC3420AAE440885450AA750
:10074100460A96480A8F4A0A814C07BD4D0A7C4EDB
:1007510007FB510A615409CD550A5856078C5807B1
:100761006A5909895A00000ADDB2013001087F087F
:100771001239B3020ADD7D017F051238437F02126F
:1007810039B3900059741EF0020ADD90003BE0B4C9
:1007910009047F0480027F008F25AD257F09120D9A
:1007A10086020ADD7BFF7A39793E12358C12000E02
:1007B100122C14020ADD123726020ADD90003BE0FA
:1007C100FFC3942E4012EFD39435500C781C760160
:1007D1007D04120D86020ADD90003BE0FFC39424E4
:1007E1005003020ADDEFD3942B4003020ADD781C8B
:1007F10076017D04120D86020ADD90003BE0FFC305
:10080100942E4012EFD39435500C781C76017D0361
:10081100120D86020ADD90003BE0FFC394245003D1
:10082100020ADDEFD3942B4003020ADD781C760126
:0E0831007D03120D86020ADD123891020ADDE7
:10083F001238AB020ADD781C760190003BE0B43829
:10084F00047F0480027F008F25AD257F38120D862F
:10085F00020ADD300603020ADD781C760190003BA8
:10086F00E0B438047F0380027F008F25AD257F38E9
:10087F00120D86020ADD12385D020ADD1237CF0231
:10088F000ADD90003BE0FFC39446400EEFD3945037
:10089F005008E4FF1239B3020ADD7F461239B30262
:1008AF000ADD90003BE0FFC394465003020ADDEFE0
:1008BF00D394504003020ADDE004F0E0B4480C90FA
:1008CF000049E0700690003BE004F090003BE0B47C
:1008DF00490C90004BE0700690003BE004F0900054
:1008EF003BE0B44A0C90004CE0700690003BE004F3
:1008FF00F090003BE0D3945040037446F090003BDF
:10090F00E0FF1239B39000557432F0020ADD900007
:10091F003BE0FFC394465003020ADDEFD3945040EF
:10092F0003020ADDE014F0E0B44A0C90004CE070D2
:10093F000690003BE014F090003BE0B4490C9000AF
:10094F004BE0700690003BE014F090003BE0B448A1
:10095F000C900049E0700690003BE014F090003BD3
:10096F00E0C3944650037450F090003BE0FF1239FF
:10097F00B39000557432F0020ADD90003BE0FFC3E4
:10098F0094465003020ADDEFD394504003020ADD70
:10099F00781C76017D03120D86020ADD90003BE084
:1009AF00FFC394465003020ADDEFD3945040030275
:1009BF000ADD781C76017D04120D86020ADD900097
:1009CF003BE0FFC3942E4006EFD39435400B123912
:1009DF006A7F2E1239B3020ADD90003BE024D2FF6A
:1009EF00122D758F26E526242EFF90003BF012392D
:1009FF00B3020ADD7D037FA5123843020ADD9000A2
:100A0F004EE0FF64046008EF64056003020ADD90A6
:100A1F000029E05403F526B402137D017FA5123897
:100A2F0043900029E054FCF04401F080117D027FD7
:100A3F00A5123843900029E054FCF04402F09000D6
:100A4F0029E0FF1234A8020ADD7D047FA612384385
:100A5F00807C7D037FA612384380737D027FA612B0
:100A6F003843806A7D017FA61238438061123700B8
:100A7F00805C7F0B1239B380557F0C1239B3804ED7
:100A8F007F0112312C8047E4FF12312C8040123944
:100A9F00BB803B1231CC80367F091232B6802F7F5C
:100AAF000A1232B680287F0B1232B680217F0C12C9
:100ABF0032B6801A7F011232B680137F021232B61D
:100ACF00800C7F031232B68005E4FF1232B6301B62
:100ADF0023C21B90003BE0FFC394384012EFD39426
:100AEF003A500C3011047D0480027D03020D867F85
:050AFF00381239B3229A
:1037CF00B2063006047F0480027F03AD077F0A1222
:0E37DF000D862006057F381239B312396A2292
:10385D00B21430140A7F241239B3E4FF0237B1E4F5
:0A386D00FF1239B37FFF1237B122BA
:0139BB0022E9
:102AA7007814E6FF7008C2A0D2A1D2A28012EFB4B8
:102AB7000108D2A0C2A1D2A28006D2A0D2A1C2A2EE
:102AC700E4FE2082010E2083034306022084034391
:102AD7000604208503430608EE602EEFC454F02E4B
:102AE700FE781AE6B50616900095E004F0D3940830
:102AF7004029201302D207E4900095F022C213E484
:102B0700900095F0781AA60622781406E6D3940268
:0C2B17004002E4F6C213E4900095F022A6
:102C8B00200F1830871030860D781306E6D3940387
:102C9B004004E4F6D20FC20AC20B22A2873086018F
:102CAB00B3503A300F25A2869211A211301501B301
:102CBB0050057811E67002D21BA21192157811768D
:102CCB0003E47813F6C20FC20B800F300B0A781196
:102CDB007603E47813F6C20FD20BC20A22208714B4
:102CEB00208611300A0A78117603E47813F6C20FA6
:052CFB00D20AC20B2209
:10312C008F277F2B1236D68F2890003BE0640370DC
:10313C003D1236AB8F29E527600EE52970047F011F
:10314C0080027F008F298018E529C39402500575F1
:10315C002902800C0529E529D39405400375290221
:10316C00E52990394893F528FD7F2B123843AF2879
:03317C00022B9C87
:100FE9004B434D2D4E4F00202D4F46462D00204896
:100FF900454C4C4F004D5554452020004D55544506
:101009002D2D00564F4C20202000564F4C20004ECD
:101019004F495345200046525350200043455350F1
:101029002000535753502000535253502000424B35
:10103900535020004C504620004C49505300465212
:10104900444C20004345444C20005357444C200055
:10105900424B444C2000536F757263653A2025302A
:10106900327820253032780020202020202000509E
:10107900434D00322F34004E49472D4F4E004E4903
:10108900472D4F46004D503300202000425249471A
:1010990048004657444F4E45004657204572720056
:1010A9004657202D00464C547443455474535754A5
:1010B90074465254745352547442525474424C54A8
:1010C90074534C547400464C5472434554725357EC
:1010D9005472465254725352547242525472424C90
:1010E9005472534C5472004155582D494E4F505427
:1010F900494341434F412D4431434F412D4432200F
:101109002D53442D20202D5553422D202D50432D54
:10111900202045384348202D42542D202048444D55
:10112900492D3148444D492D3248444D492D3348C4
:10113900444D492D410020204849464920322B3150
:1011490043484D4F444520200020464C41542053EC
:101159004F554E442000322F30312F30322F30334B
:101169002F30322F31332F31322F32332F32332F69
:1011790033332F34322F33322F340053442D494E19
:101189002055442D494E2053442D4F555455442D37
:101199004F555450432D4F555442542D4F55544893
:1011A900442D4F55540033324B34384B35364B367A
:1011B900344B38304B39364B3131323132383136A4
:1011C90030313932323234323536333230333834E1
:1011D900000002070000243F000600DB00CF00E604
:1011E90000ED00FD000700FF00EF00F7128F003946
:1011F900120F00F900F100BD00F61209001E0C7073
:10120900003805360936003F00F3083F08F300EDC2
:101219001201003E243028362D0000EE240900C0BA
:0C122900240012C00010181C1C1E1E1F08
:10302A00C2A5C2937F0112398C7F401238DB7F011F
:10303A0012398CD2937F0112398CC2937F011239D3
:10304A008C7FC01238DB7F0112398CE4F524E4FF4F
:10305A001238DB7F0112398C0524E524C394104011
:10306A00ED7F0A12398CD293E4FDFF123551E4FF49
:09307A0012380BE4900030F02242
:102680008F24300E05C20E12000EE5245402D3949E
:10269000005003022740900030E0601514F07007EE
:1026A0007F011235EF800A900030E05401FF1235AF
:1026B000EF900059E0D39400400302274030060B0E
:1026C000900055E070057F0A1239B3200158900040
:1026D00055E0605214F07024201406FF1239B380C4
:1026E0004590003BE024DCFF122D758F25E5252465
:1026F00024FF1239B3AF251237B1802A300027905A
:102700000055E0FF75F00584E5F0701AEF75F005EF
:1027100084F52590003BE0FFE52530E0047D028054
:10272000027D01120D86200117200614201411309D
:10273000050E90004FE0540FC394004003122F7514
:012740002276
:0539B300E4FD020D8699
:093983009000557414F0C20022FA
:08399D0090003BEFF0023983BA
:100D86008F308D31E5317003123983C205C2A51249
:100D96003877900075E0540FF0E53012174F0E4487
:100DA600000E75010E87020ECB060ED7070E7B08C6
:100DB6000E9C090F020A0EDD0B0EE30C0EE90E0E59
:100DC600E90F0EE9100EE9110EE9120EE9130EE90C
:100DD600140EF4150EFA160FAB240FAB250FAB2627
:100DE6000FAB270FAB280FAB290FAB2A0FAB2B0F7F
:100DF600B42E0FB42F0FB4300FB4310FB4320FB47A
:100E0600330FB4340FB4350F5E380FC0390FC03A04
:100E16000FC03B0FC03C0FC03D0FC03E0FD8460F62
:100E2600D8470FD8480FD8490FD84A0FCC4B0FCC0C
:100E36004C0FCC4D0FCC4E0FCC4F00000FE2200CC8
:100E46001790004EE0FF64046004EFB40505122518
:100E5600BD800E1232F780097BFF7A0F79E91235D1
:100E66008CE490003BF0900055F0D205020FE212A0
:100E760032F7020FE27BFF7A0F79F012358C020F00
:100E8600E27BFF7A0F79F712358C12000E9000552F
:100E9600740AF0020FE2E531B4041D900055741493
:100EA600F0900058E004F0D394024002E4F0900081
:100EB60058E0FD7F40123843900058E0FD7F011254
:100EC6003551020FE29000557432F01239BC020F10
:100ED600E2122741020FE2123433020FE212333CD0
:100EE600020FE2E53024F2FF123905020FE212305A
:100EF60083020FE21225BDD205020FE2E53160033F
:100F0600B404089000557450F0D200E531C3940241
:100F16004005E531B4040B7BFF7A0F79FE12358C60
:100F2600800EE531B402097BFF7A10790512358C03
:100F3600E531B4040A7D037F08123843020FE2E567
:010F46003179
:100F470064036003020FE29000557414F07D027F82
:100F570008123843020FE2E531C3940340159000AD
:100F67003BE0B4380EE531B404047F0180027F0012
:100F770012376DE531B4020B7BFF7A10790C12350D
:100F87008C80587BFF7A10791312358C90002BE0F8
:100F9700FD7F0412378FE53170419000557450F092
:100FA700D2008037AD31AF30122914802E12396A42
:100FB700AD31AF30122881802212396AAD31AF309E
:100FC700122D00801612396AAD31AF3012193D80EB
:100FD7000A12396AAD31AF3012224A90003BE53030
:020FE700F022F6
:10333C007F091236D68F3230141390003BE0B40C58
:10334C000C0532E532D394074003E4F532AD327FFD
:10335C00091238437BFF7A10791812358CE5322428
:10336C0031FD7F05120B0C301409E4900031F0FF95
:04337C001237B12231
:102D7500EFB407005067902D82F8282873022D972D
:102D8500022DAC022DB8022DBB022DD0022DDC0286
:102D95002DDF900049E060037F012290004AE0604A
:102DA500037F02227F032290004AE060037F022214
:102DB5007F03227F032290004BE060037F04229073
:102DC500004CE060037F05227F002290004CE0600C
:102DD500037F05227F00227F06227F07227F0022B4
:102914008F328D33E533C39403401E90003BE0B502
:10292400321724DCFFE533B404047D0180027D000A
:10293400122FD09000557450F074DC2532F53275A6
:10294400F004A424AEF97410123587E533B4020EF2
:102954007D207F04120B0C7D207F05020B0C7483F9
:102964002532F582E43400F583E0F534C39409504C
:10297400147D2D7F04120B0CC374399534FD7F052F
:10298400120B0C80117D207F04120B0CE5342427DC
:09299400FD7F05120B0CD200229C
:102881008F328D33E533C39403401E90003BE0B596
:10289100321724D2FFE533B404047D0180027D00A8
:1028A100122FD09000557450F074D22532F5327544
:1028B100F004A424CFF97410123587E533B4020E65
:1028C1007D207F04120B0C7D207F05020B0C74838D
:1028D1002532F582E43400F583E0F534C3940950E0
:1028E100147D2D7F04120B0CC374399534FD7F05C3
:1028F100120B0C80117D207F04120B0CE534242770
:10290100FD7F05120B0CE53370089000557450F0F3
:03291100D20022CF
:10193D008F328D33900075E04450F0A3E0F09000AD
:10194D00557450F07D207F04120B0C7D207F051205
:10195D000B0CE53224B460561470030219F21470A6
:10196D0003021A29147003021A60147003021A97E5
:10197D0024056003021AA07BFF7A10791F12358CA3
:10198D00E533C39403401B900048E004F0D3940169
:10199D004002E4F0E4FD7F2412299DAD077F24125F
:1019AD003843E4FF1233BCAD077F05020B0C7BFF00
:1019BD007A10792512358CE533C39403401B9000C2
:1019CD0049E004F0D394024002E4F0E4FD7F2412D8
:1019DD00299DAD077F241238437F011233BCAD071B
:1019ED007F05020B0C7BFF7A10792B12358CE533BA
:1019FD00C39403401B90004AE004F0D394014002CD
:101A0D00E4F0E4FD7F2412299DAD077F24123843B5
:101A1D007F021233BCAD077F05020B0C7BFF7A10E2
:101A2D00793112358CE533C39403401B90004BE0A4
:101A3D0004F0D394024002E4F0E4FD7F2412299DCA
:101A4D00AD077F241238437F031233BCAD077F05EA
:101A5D00020B0C7BFF7A10793712358CE533C3946A
:101A6D0003401B90004CE004F0D394024002E4F0DC
:101A7D00E4FD7F2412299DAD077F241238437F0496
:101A8D001233BCAD077F05020B0C7BFF7A10793D3D
:041A9D0012358C2250
:10224A008F328D33E53224B9603A14605A14607AB9
:10225A001470030222F72404600302231890007505
:10226A00E04440F0A3E0F07BFF7A10794212358C0B
:10227A00E533C394035003022318AD33E4FF122E4F
:10228A00520223187BFF7A10794712358C90007519
:10229A00E04450F0A3E0F0E533C394034070AD335B
:1022AA007F01122E5280677BFF7A10794D12358C8E
:1022BA00900075E04450F0A3E0F0E533C394034086
:1022CA004DAD337F02122E5280447BFF7A10795330
:1022DA0012358C900075E04450F0A3E0F0E533C36A
:1022EA009403402AAD337F03122E5280217BFF7A5A
:1022FA0010795912358C900075E04450F0A3E0F043
:10230A00E533C394034007AD337F04122E52900085
:10231A00557432F074F82532F582E434FFF583E01F
:0A232A0075F005A4FD7F0402378F53
:1032F70090004EE0FFC39404400FEFD394085009A9
:10330700900076E04420F08007900076E054DFF0EC
:103317007BFF7A10795F8F3A900075E0F53BA3E069
:10332700F53C122B2390004EE075F006A424F0F92B
:0533370074100235874F
:0139BC0022E8
:1036AB00AE07EE543024F0601224F0601124207029
:1036BB0017EE30E0037F01227F00227F0222EE30E3
:0B36CB00E0037F04227F03227F052222
:102B9C008F301236AB8F31900076E0542CF0E5314B
:102BAC00C394025016EF75F006A4243FF974111269
:102BBC003587900076E04401F080457BFF7A1179EF
:102BCC004B12358CE531242FFD7F05120B0CE530B3
:102BDC0024FD601314601914601F240370229000EC
:102BEC0076E04402F08019900076E04480F080108A
:102BFC00900076E04440F08007900076E04410F0BE
:082C0C001239837F0302399D98
:103652008F30E53060067E007F0680047E007F00AA
:1036620074522FF974113EFA7BFF12358CE53060EB
:0E367200082430FD7F05120B0C7F0502399DE8
:1027410090004FE0FF540FC3940250030227E4E4CA
:10275100F536EFC4540F75F003A4F5327BFF7A1000
:10276100797112358C122DE590004FE0540F24FD44
:10277100602414604314604024FE605E24F76016F8
:1027810014601324FD24FD502F241570597BFF7A0A
:1027910010797802358C745F2532F9E43411FA7BB3
:1027A100FF753D00753E00753F337F031236217B77
:1027B100007A00793302358C745F2532F9E43411E3
:1027C100FA7BFF753D00753E00753F337F0312367E
:1027D100217B007A00793302358C7BFF7A10797C7A
:0727E10002358C1232F722D1
:1033BC00AE07EE700C900048E060037F4C227F5308
:1033CC0022BE020C90004AE060037F59227F4E22FD
:1033DC0074482EF582E43400F583E0FDB402037FDB
:0C33EC004C22EDB401037F53227F4E22DF
:103433007F231236D68F3290003BE0B40B16E53271
:10344300C3943250057532328003E4F532AD327FD6
:1034530023123843E53260097BFF7A107980023505
:0B3463008C7BFF7A10798712358C22D9
:103905009000557432F0EF75F006A42484F9741113
:03391500023587F1
:103083009000557414F0900075E054BFF07BFF7A04
:1030930010797112358C900044E02401FD900043B7
:1030A300E03400FCE4FF1227E88F3905397D2F1245
:1030B3000B0C90004EE0B4040D90002EE0FEA3E054
:1030C300FFAC06FD800B900052E0FEA3E0FFAC06D0
:0630D300FDAF390227E801
:1025BD00C3900057E09403900056E094005003023E
:1025CD003083C3900057E09405900056E09400507E
:1025DD0064900067E0FF131313541FF53290004F02
:1025ED00E0540F640A704E9000557414F0E532D328
:1025FD0094004041E5329410503B753D00753E000E
:10260D00753F337BFF7A10798E7F03123621E532C9
:10261D0075F003A424ACF9741135F0FA7BFF753D08
:10262D0000753E00753F367F031236217B007A0020
:10263D00793302358C7BFF7A10799212358C9000AC
:10264D0056E0FEA3E0FF7C007D3C1216AFAD077F88
:10265D000212378F900056E0FEA3E0FF7C007D3C18
:10266D001216AF7F0412378F900075E04440F0A32F
:03267D00E0F02268
:103551008D32EFD3940040137BFF7A1079951235A9
:103561008CE5322431FD7F05120B0CC2937F0112D1
:10357100398CE5329011DA934488FF1238DB7F01F0
:0635810012398CD29322E6
:102E5200EF70047C0180027C00EC1460111460129B
:102E6200146013146014240470127E13800E7E0901
:102E7200800A7E0980067E0980027E09BD042474D0
:102E82003E2FF582E43400F583E0D39E4002EEF05B
:102E9200743E2FF582E43400F583E0C39E501AE0BD
:102EA20004F022BD0313743E2FF582E43400F5834F
:0A2EB200E0D394004003E014F02286
:10317F007B007A0079277535007536027F8112360C
:10318F0080E527B4640B7BFF7A10799B12358C8016
:10319F0020E527B4680B7BFF7A1079A212358C805B
:1031AF00107BFF7A1079A912358CAD277F04123767
:0D31BF008F7F0D12399D900055743CF02259
:0139BD0022E7
:102DE500900075E054F8F0A3E054FBF090004FE03C
:102DF500540F24FD603514603B14603824FE604098
:102E050024F7602714602424FD24FD502724157021
:102E15003990008DE0FF64536030EF6456602B906D
:102E25000075E04404F0A3E0F0801F900076E044D4
:102E350004F08016900075E04401F0A3E0F0800AEC
:0D2E4500900075E04404F0A3E0F0D20E22EE
:1034A800EF5403FE900078E054F0F0BE0106E044CB
:1034B80008F0800ABF0207900078E04404F0EF5457
:1034C800C0FE6013BEC009900078E04401F0800798
:0A34D800900078E04402F0D20E22CA
:1035EF008F30E530B4FF117F1F1236D6EF30E7046E
:1035FF007F0180027F008F30E530600C900075E016
:10360F004408F0A3E0F08007900075E054F7F0D283
:02361F000E2279
:0535870035F0FA7BFFA6
:10358C008B3A8A3B893CE4F53EAB3A053CE53CAAD8
:10359C003B7002053B14F9121635F53D6012AD3D3A
:1035AC00AF3E120B0C053EC3E53E6480948640D9B9
:0135BC0022EC
:1027E8008F3A8C3B8D3CAE3BAF3C7C277D1012165C
:1027F800AFEF4E6012120B04AE3BAF3C7C277D104E
:102808001216AF8C3B8D3CAE3BAF3C7C037DE8128F
:1028180016AFEF4E6012120B04AE3BAF3C7C037D4B
:10282800E81216AF8C3B8D3CAE3BAF3C7C007D6420
:102838001216AFEF4E6012120B04AE3BAF3C7C0099
:102848007D641216AF8C3B8D3CAE3BAF3C7C007D6B
:102858000A1216AFEF4E6012120B04AE3BAF3C7C6F
:10286800007D0A1216AF8C3B8D3CAF3A053AE53C29
:092878002430FD120B0CAF3A22D2
:10378F008F398D3AE53A75F00A842430FD120B0C0F
:10379F00E53904FFE53A75F00A84E5F02430FD02BF
:0237AF000B0C01
:080B0400EF2430FDAF3A053A81
:100B0C008F3F8D40E53FC394034003020BD7E54074
:100B1C00C394304012E540D39439500B74D0254027
:100B2C00F54004F541804CE540C39461400FE5402D
:100B3C00D3947A5008E54024AAF5418036E540C3A9
:100B4C009441400FE540D3945A5008E54024CAF52F
:100B5C00418020E54024D5601224FC6009240270F9
:100B6C000F754125800D754126800875412780033E
:100B7C00E4F541E54125E024DDF582E43411F5830B
:100B8C00E493FEE53F25E02469F582E43400F58327
:100B9C00EEF0A3E4F0E53F25E02469F582E43400AF
:100BAC00F583C083C082E0FEA3E0FFE54125E0248D
:100BBC00DEF582E43411F583E493FDEEEF4DFFD0C6
:100BCC0082D083EEF0A3EFF0020D83E53FC39406D1
:100BDC004003020D0DE540C394304066E540D394CC
:100BEC0039505F74D02540F54004F54125E024DDF3
:100BFC00F582E43411F583E493FEE53F25E02469A6
:100C0C00F582E43400F583EEF0A3E4F0E53F25E053
:100C1C002469F582E43400F583C083C082E0FEA32E
:100C2C00E0FFE54125E024DEF582E43411F583E4B0
:100C3C0093FDEEEF4DFFD082D083EEF0A3EFF002E8
:100C4C000D83E54012174F0C962D0C9B410CA042C6
:100C5C000CA5430CAA440CAF450CB4460CB9470C7C
:100C6C00C3480CBE490CC84C0CCD4E0CD24F0CD703
:100C7C00500CDC520CE1530CE6540CEB550CF059B7
:100C8C000CDC720CE67400000CF57540C0805D75D0
:100C9C0040F7805875407C8053754039804E7540C4
:100CAC00DE80497540F980447540F1803F7540EF16
:100CBC00803A75400680357540F680307540388036
:100CCC002B754037802675403F80217540F3801C82
:100CDC0075405080177540ED80127540F8800D7589
:100CEC00403E800875406E8003E4F540E53F25E00A
:100CFC002469F582E43400F583E4F0A3E540F08048
:100D0C0076E53FD39406401AE53F940D5014E54028
:100D1C00C39401400DE540D394055006E5402426CC
:100D2C00F541E54125E024DDF582E43411F583E459
:100D3C0093FEE53F25E02469F582E43400F583EE6B
:100D4C00F0A3E4F0E53F25E02469F582E43400F5F6
:100D5C0083C083C082E0FEA3E0FFE54125E024DEF2
:100D6C00F582E43411F583E493FDEEEF4DFFD08270
:0A0D7C00D083EEF0A3EFF0D20E22B8
:10387700E4FFEF25E02479F582E43400F583E4F0F2
:0A388700A3F00FEFC3940540E922FF
:06394E00131313541FFFC8
:09395400EF540790122D93FF229D
:102F75007B007A0079277535007536037F8F123609
:102F850080300C03023877AF27123954900079E46A
:102F9500F0A3EFF0E52712394E90007BE4F0A3EFA4
:102FA500F0AF2812395490007DE4F0A3EFF0E52846
:102FB50012394E90007FE4F0A3EFF0AF2912395497
:0B2FC500900081E4F0A3EFF0D20E2298
:10391800E4FFE4900079F0A3F00FEFC3940540F2C0
:03392800D20E229A
:10380B00E4FEEFFDEE25E02469F582E43400F58358
:0D381B00E4F0A3EDF00EEEC3940D40E622A4
:10000E00E4FF74062FF582E43400F583E4F00FEF7D
:10001E00C3941040ED900069E0FEA3E0FF30E007CE
:10002E00900014E04408F0EF30E10790000DE0443A
:10003E0008F0EF30E207900006E04408F090006A06
:10004E00E030E307900009E04408F0900069E0FE1C
:10005E00A3E0FF30E407900011E04408F0EF30E534
:10006E0007900015E04408F0EF30E60790000FE02F
:10007E004408F090006AE030E70790000CE0440876
:10008E00F0900069E0FEA3E0FFEE30E00790001371
:10009E00E04408F0EE30E107900012E04408F0EE84
:1000AE0030E20790000BE04408F0900069E0A330C6
:1000BE00E307900007E04408F0900069E0FEA3E03B
:1000CE00FFEE30E407900008E04408F0EE30E5075C
:1000DE0090000EE04408F090006BE0FEA3E0FF30CD
:1000EE00E007900014E04420F0EF30E10790000D9F
:1000FE00E04420F0EF30E207900006E04420F0905C
:10010E00006CE030E307900009E04420F090006BB3
:10011E00E0FEA3E0FF30E407900011E04420F0EF92
:10012E0030E507900015E04420F0EF30E607900030
:10013E000FE04420F090006CE030E70790000CE0F8
:10014E004420F090006BE0FEA3E0FFEE30E007905D
:10015E000013E04420F0EE30E107900012E044205E
:10016E00F0EE30E20790000BE04420F090006BE0E0
:10017E00A330E307900007E04420F090006BE0FE10
:10018E00A3E0FFEE30E407900008E04420F0EE30EC
:10019E00E50790000EE04420F090006DE0FEA3E035
:1001AE00FF30E007900014E04410F0EF30E10790CC
:1001BE00000DE04410F0EF30E207900006E044102E
:1001CE00F090006EE030E307900009E04410F090EC
:1001DE00006DE0FEA3E0FF30E407900011E0441054
:1001EE00F0EF30E507900015E04410F0EF30E60731
:1001FE0090000FE04410F090006EE030E7079000A2
:10020E000CE04410F090006DE0FEA3E0FFEE30E055
:10021E0007900013E04410F0EE30E107900012E07A
:10022E004410F0EE30E20790000BE04410F0900026
:10023E006DE0A330E307900007E04410F090006DEE
:10024E00E0FEA3E0FFEE30E407900008E04410F07B
:10025E00EE30E50790000EE04410F090006FE0FEE7
:10026E00A3E0FF30E007900014E04404F0EF30E12B
:10027E000790000DE04404F0EF30E207900006E036
:10028E004404F0900070E030E307900009E044046D
:10029E00F090006FE0FEA3E0FF30E407900011E065
:1002AE004404F0EF30E507900015E04404F0EF3021
:1002BE00E60790000FE04404F0900071E0FEA3E02A
:1002CE00FF30E007900014E04480F0EF30E107903B
:1002DE00000DE04480F0EF30E207900006E044802D
:1002EE00F0900072E030E307900009E04480F09057
:1002FE000071E0FEA3E0FF30E407900011E04480BF
:10030E00F0EF30E507900015E04480F0EF30E6079F
:10031E0090000FE04480F0900073E0FEA3E0FF3009
:10032E00E007900014E04402F0EF30E10790000D7A
:10033E00E04402F0EF30E207900006E04402F09055
:10034E000074E030E307900009E04402F09000737F
:10035E00E0FEA3E0FF30E407900011E04402F0EF6E
:10036E0030E507900015E04402F0EF30E60790000C
:10037E000FE04402F0900075E0FEA3E0FF30E007CE
:10038E00900014E04401F0EF30E10790000DE044DE
:10039E0001F0EF30E207900006E04401F0900076A5
:1003AE00E030E307900009E04401F0900075E0FEB4
:1003BE00A3E0FF30E407900011E04401F0EF30E5D8
:1003CE0007900015E04401F0EF30E60790000FE0D3
:1003DE004401F0900076E030E70790000CE0440115
:0403EE00F090007516
:1003F200E0FEA3E0FFEE30E007900013E04401F0DE
:10040200EE30E107900012E04401F0EE30E2079096
:10041200000BE04401F0900075E0A330E307900088
:1004220007E04401F0900075E0FEA3E0FFEE30E447
:1004320007900010E04420F0EE30E507900010E055
:100442004410F0EE30E607900010E04404F0900013
:1004520077E0FEA3E0FF30E00790000BE04404F0F9
:10046200EF30E107900012E04404F0EF30E2079031
:100472000013E04404F0900078E030E30790000CB1
:10048200E04404F0900079E0FEA3E0FF30E0079042
:100492000007E04480F0EF30E10790000BE0448079
:1004A200F0EF30E207900012E04480F090007AE032
:1004B20030E307900013E04480F090007AE030E4EB
:1004C2000790000CE04480F090007BE0FEA3E0FF88
:1004D20030E00790000BE04402F0EF30E1079000BB
:1004E20012E04402F0EF30E207900013E04402F021
:1004F20090007CE030E30790000CE04402F09000B2
:100502007DE0FEA3E0FF30E007900011E04440F000
:10051200EF30E107900009E04440F0EF30E207904D
:100522000006E04440F090007EE030E30790000DCA
:10053200E04440F090007EE030E407900014E04494
:1005420040F090007FE0FEA3E0FF30E00790001350
:10055200E04440F0EF30E10790000CE04440F0EF5F
:1005620030E20790000FE04440F0900080E030E37A
:1005720007900015E04440F0900081E0FEA3E0FF08
:1005820030E00790000EE04440F0EF30E1079000C9
:1005920008E04440F0EF30E207900007E04440F00A
:1005A200900082E030E30790000BE04440F09000BE
:1005B20082E030E407900012E04440F0C2937F01F1
:1005C20012398C7F401238DB7F0112398CD2937F33
:1005D2000112398CC2937F0112398C7FC01238DB31
:1005E200E4F53274062532F582E43400F583E0FF47
:0F05F2001238DB0532E532C3941040E7D2932272
:1038DB007E08C290EF139291EFC313FFD2901EEEAE
:0638EB00D3940050ED2211
:1032180003C5000800062300315200750000008035
:103228002F80005C00000F80002C00805A8000086E
:103238000000588000320000060080258000B4009D
:10324800000D4D4943314D4943324543484F52459E
:0B325800505444454C5952455642006A
:101E33007F391236D68F2EE52E540FFD7F391224AB
:101E430018900061EFF0E52EC4540FFD7F39122482
:101E530018900062EFF07F3A1236D68F2EE52E549B
:101E63000FFD7F38122418900063EFF07F3B12368A
:101E7300D68F2EE52E540FFD7F3812241890006460
:101E8300EFF07F381236D68F2EAD2E7F38122418FE
:101E9300900065EFF07F3C1236D68F2EE52E540F5F
:101EA300FD7F38122418900066EFF0E4F530E4F576
:101EB3002FE52F90321893FF7432252FF8A60705CC
:101EC3002FE52FB405EBE53004F5317B007A00797B
:101ED30031753F007540067F8B1233F8E4F52FE52B
:101EE3002F90321D93FF7432252FF8A607052FE597
:101EF3002FB409EBE4F52F7432252FF8E6FFE53014
:101F030075F009A42426F582E43432F583E58225AD
:101F13002FF582E43583F583E4934FF6052FE52F00
:101F2300B409D4E53004F5317B007A007931753F8B
:101F33000075400A7F8C1233F80530E530C39404F2
:061F43005003021EB12252
:103700007F2C1236D68F2790003BE0B40513052797
:10371000E527D394044003E4F527AD277F2C123826
:0637200043AF2702365200
:1037260090003BE0C3943950057F390239B39000CD
:103736003BE004F0D3943E40037439F090003BE044
:05374600FF1239B3225F
:1038910090003BE0FFC39439400FEFD3943E5009B1
:0A38A100781C76017D04120D8622CA
:1038AB0090003BE0FFC39439400FEFD3943E500997
:0A38BB00781C76017D03120D8622B1
:102D00008F328D33E533C39403401D90003BE0B513
:102D10003216E533B404047D0180027D00AF321227
:102D200023349000557450F074C72532F53275F095
:102D300004A4244AF9743235F0FA7BFF12358C7DF5
:102D4000207F04120B0CE533B402077D207F0502BF
:102D50000B0C74612532F582E43400F583E0F53420
:102D60002430FD7F05120B0CE5337008900055747C
:052D700050F0D200222A
:102334008F358D361239ADE53524C7F538E536606D
:102344001674612538F582E43400F583E0C39409FA
:102354005019E004F0801474612538F582E43400E7
:10236400F583E0D394004003E014F0E53524C6601F
:102374001614603814605114700302240414606449
:1023840024056003022417900061E0FD7F391229BF
:102394009D8F37900062E0FD7F3912299D8F38E5CB
:1023A40038C454F04537FD7F39023843900063E068
:1023B400FD7F3912299D8F37E4F538E538C454F090
:1023C4004537FD7F3A023843900064E0FD7F3912BF
:1023D400299D8F37753808E538C454F04537FD7F9B
:1023E4003B023843900066E0FD7F3912299D8F3708
:1023F400753801E538C454F04537FD7F3C02384355
:10240400900065E0FD7F3812299D8F37AD377F3806
:042414001238432215
:1037ED00AE0753050FEDC3940A5006ED2430FFFDCF
:0E37FD0022EE6005ED2457FF22ED2437FF2257
:101AA1008F5E8D5F8B60E55F701FE560701BAB61C2
:101AB100AA62A963743012167BAB61AA62A9639012
:101AC1000001E412168D7F0122E4F564FCE55E64F9
:101AD100646009E55E64756003021B7DE56075F075
:101AE1006484F565601AFDE4FF1237EDAB61AA620B
:101AF100A963AE040C8E82758300EF12168D8018D7
:101B0100E55FB40313AB61AA62A963AF040C8F82D2
:101B1100758300743012168DE56075F0648485F06C
:101B210065E56575F00A84FD6019E4FF1237EDABD8
:101B310061AA62A963AE040C8E82758300EF12164E
:101B41008D8018E55FB40213AB61AA62A963AF048B
:101B51000C8F82758300743012168DE56575F00A5D
:101B610084ADF0E4FF1237EDAB61AA62A963AE0464
:101B71000C8E82758300EF12168D806CE56054F037
:101B81006028E55EB458047F0180027F00E560C4EF
:101B9100540FFD1237EDAB61AA62A963AE040C8E3E
:101BA10082758300EF12168D801CC3E55F648094FB
:101BB100824013AB61AA62A963AF040C8F82758363
:101BC10000743012168DE55EB458047F0180027FE7
:101BD10000AD601237EDAB61AA62A963AE040C8E51
:101BE10082758300EF12168DAB61AA62A9638C82A4
:0A1BF100758300E412168DAF042284
:101235008B4C8A4D894EE4F555F556AB4FAA50A90E
:1012450051AF55EF3395E08F82F58312164EFE644C
:10125500256041D3E5566480949E4003AF5622EE47
:101265007003AF5622AB4FAA50A951AF550555EFA4
:101275003395E08F82F58312164EFFAB4CAA4DA92C
:101285004EAE560556EEFD3395E08D82F583EF1291
:10129500168D80A7AF55EF3395E08F82F583A3AB0D
:1012A5004FAA50A95112164EF55B6473706BAB5281
:1012B500E554F92403F554E553FA3400F5531217B0
:1012C5002F8B588A59895A05550555E4F557AB585A
:1012D500AA59A95AAF57EF3395E08F82F5831216B5
:1012E5004E7003021240C3E5566480949E4003028B
:1012F50012400557EF3395E08F82F58312164EFFA6
:10130500AB4CAA4DA94EAE560556EEFD3395E08D74
:1013150082F583EF12168D80B5E55BB4251E055564
:101325000555AB4CAA4DA94EAF560556EF3395E082
:101335008F82F583742512168D021240E55BB46326
:101345003205550555AB52E554F92402F554E553DC
:10135500FA3400F553121704FFAB4CAA4DA94EAE53
:10136500560556EEFD3395E08D82F583EF12168D09
:10137500021240E4F55CF557AF55EF3395E0FEEF0B
:101385002401FFE43EFEAD57ED3395E0FCED2FF56E
:1013950082EC3EF583AB4FAA50A95112164EF55B70
:1013A500C3648094B0401ED3E55B648094B9501546
:1013B500E55B24D0FFE55C75F00AA42FF55C0557C5
:1013C500E557B403B3AF55EF3395E0FEEF2401FFC6
:1013D500E43EFEAD57ED3395E0FCEF2DFFEE3CFE10
:1013E500AB4FE5512FF9E5503EFA8B58F559895A1F
:1013F500E55524022557F555121635FF249C600F37
:1014050024EF600B24FD600724206003021240AB2B
:10141500520554E554AA537002055314F9121635B2
:10142500F55DE556FD3395E0FCE54E2DF9E54D3CC2
:05143500854C61F56229
:10143A008963AB5DAD5C121AA1EF2556F55602120F
:02144A0040223E
:1038F100E50D150D7002150C14450C6006ED121640
:043901007B80ED22B8
:0839A500C2998F993099FD22AF
:102B23008B378A388939754900754A00754B3A8B5A
:102B33004F8A508951854952854A53854B547B01AD
:102B43007A007996121235AE070EEFFD3395E0FC4D
:102B530074962DF58274003CF583740DF0AF060E68
:102B6300EFFD3395E0FC74962DF58274003CF583FC
:102B7300740AF0E4FDC3EE6480F8ED6480985018A5
:102B8300EDFB3395E0FA74962BF58274003AF583E6
:092B9300E0FF1239A50D80DD22DE
:1034E20012392B12302A1239BA1239B91239957897
:1034F20019E6FF5401D3940040F5121D1A7819E61B
:10350200FF1206017819E6FF1226807819E6FF12EB
:0835120035BDE47819F680D7FD
:10392B00758921758851759850758DFF4387807502
:03393B00A883223C
:09398C00EFD394034002DFFE2298
:03000B00021F4988
:101F4900C0E0C0F0C083C082C0D075D000C000C05E
:101F590001C002C003C004C005C006C007758A607D
:101F6900758CFF781606E675F00A84E5F0600302C1
:101F79002002122C8B7816E675F06484E5F0703B2C
:101F8900F678197601781206E675F00A84E5F0709C
:101F99002A7819E64402F67812E6FF75F03284E5EC
:101FA900F070187819E64404F6EF75F06484E5F0EA
:101FB90070097812F67819E64408F630053B900066
:101FC9002AE004F0D394134006E4F0D2A5802A90C5
:101FD9000058E0FF700B90002AE0B40104C2A5800C
:101FE90018EFB4010B90002AE0B40404C2A58009DB
:101FF90090002AE0B40802C2A57815E6603806E622
:10200900D3949F40312008247817E6B4021E781C27
:10201900E660197818E6FFC39408500EEF5403FFE1
:10202900BF0302D2197818068002D21978177600F0
:10203900C20878157600D007D006D005D004D003A1
:10204900D002D001D000D0D0D082D083D0F0D0E05F
:012059003254
:03000300022A23AB
:102A2300C0E0C0D075D000C000C006C00720086554
:102A3300781706E6FFB4020C7815E6D39491405557
:102A4300D20880517810E6FEC313F67815E6D394C6
:102A53001040067810E64480F6EF640A6004EFB491
:102A63001A077810E618F6802CEFB412127810E6E5
:102A7300B4BF0418E6601E781C7600D2088016EFF7
:102A8300B42212D219781876007810E6F41866602A
:102A930004C219D20878157601D007D006D000D029
:042AA300D0D0E0327D
:030000000239774B
:0C397700787FE4F6D8FD7581660234E22A
:10163500BB010689828A83E0225002E722BBFE02B3
:09164500E32289828A83E49322E6
:10164E00BB010CE58229F582E5833AF583E0225051
:10165E0006E92582F8E622BBFE06E92582F8E2229B
:0D166E00E58229F582E5833AF583E49322B5
:10167B00BB010689828A83F0225002F722BBFE014E
:02168B00F32248
:10168D00F8BB010DE58229F582E5833AF583E8F093
:10169D00225006E92582C8F622BBFE05E92582C83F
:0216AD00F22227
:1016AF00BC000BBE0029EF8DF084FFADF022E4CC1F
:1016BF00F875F008EF2FFFEE33FEEC33FCEE9DECE8
:1016CF00984005FCEE9DFE0FD5F0E9E4CEFD22ED2E
:1016DF00F8F5F0EE8420D21CFEADF075F008EF2F78
:1016EF00FFED33FD4007985006D5F0F222C398FD69
:0516FF000FD5F0EA2206
:10170400BB010A89828A83E0F5F0A3E022500687B0
:10171400F009E71922BBFE07E3F5F009E319228972
:0B172400828A83E493F5F074019322A5
:10172F00BB010789828A830217AB5005E9F80217BC
:10173F00A2BBFE05E9F80217B489828A830217BD9E
:10174F00D083D082F8E4937012740193700DA3A329
:10175F0093F8740193F5828883E47374029368603D
:06176F00EFA3A3A380DF3D
:10177500D083D082F8E4937012740193700DA3A303
:1017850093F8740193F5828883E473740293B5F03A
:0D179500067403936860E9A3A3A3A380D8A2
:0917A200E6FB08E6FA08E6F9226C
:0917AB00E0FBA3E0FAA3E0F9223F
:0917B400E2FB08E2FA08E2F92266
:0C17BD00E493FB740193FA740293F92288
:00000001FF
