:103AE3008F408D41123B7D7FAC123650AF40123672
:0A3AF30050AF41123650123C3D2244
:1039CE008F2D8C2E8D2F123B7D7FAC123650AF2D4E
:1039DE00123650AF2F123650E52EFF123650123CD3
:0239EE003D2278
:10359F008F458B468A478948123B7D7FAC12365048
:1035AF00AF45123650AB460548E548AA47700205AD
:1035BF004714F9120BB0FF123650E54A154A700244
:0B35CF00154914454970DE123C3D22F6
:10390E008F3BE4F53C123B7D7FAC123650200C14FD
:10391E00AF3B123650123B7D7FAD123650D21E1287
:0A392E0036C48F3C123C3DAF3C2232
:103527008F44E4F545F546123B7D7FAC12365020BB
:103537000C22AF44123650123B7D7FAD123650C27B
:103547001E1236C47545008F46D21E1236C4EFFED2
:0C355700E4EE4245123C3DAE45AF46227A
:103019008E3E8F3F8B408A418942D3E53F9400E53C
:103029003E94004037D3E53F9401E53E94004008C3
:10303900E53F153F7002153EC21E1236C4AB40056E
:1030490042E542AA417002054114F9EF120C18E554
:103059003F153F7002153E14453E70DCD21E1236F4
:0E306900C4AB40AA41A942EF120C18023C3D34
:1038E3008F318B328A338934123B7D7FAC12365051
:1038F300AF31123650123B7D7FAD123650AB32AA38
:0B39030033A934AF36AE351230192264
:1034E9008F388B398A3A893B123B7D7FAC12365033
:1034F900AF38123650123B7D7FAD123650C21E12C4
:1035090036C48F3DE53DD3953C4003853C3DAF3DF9
:0E3519007E00AB39AA3AA93B123019AF3D2211
:103650008F4B754C08C296E54B30E704D29580023B
:10366000C295123CA7E54B25E0F54BD296123CA73C
:10367000D54CE2C296D295120006D29612000630C0
:0A3680009502D20CC2961200062239
:1036C400D295120006754808D296E54725E0F547DD
:1036D400309503434701123CA7C296123CA7D54834
:1036E400E7201E04C2958002D295120006D29612DB
:0736F4000006C296AF472259
:103B7D00D295D296120006C20C209502D20CC29597
:063B8D00120006C29622A0
:0D3C3D00C295120006D296120006D2952202
:050006007F0ADFFE226D
:013CA70022FA
:101DB6004B434D5F504F5745525F4F4E004B434D7F
:101DC6005F524541445F495251204572726F72001D
:101DD6004B434D5F524541445F49525120253032B5
:101DE60078004B434D5F4952515F504C41595F5308
:101DF60054415445202530327800494E5055545FA1
:101E060041202564202530327800494E5055545FD4
:101E16004220256420253032780053455420004B5B
:101E2600434D5F564F4C554D455F4354524C20250C
:101E360064004B434D5F494E5055545F534F5552C6
:101E460043452025303278004B434D5F4C4953546F
:101E5600454E5F4D4F444520253032780041707025
:101E6600436F6D6D616E64202530327820253032E7
:101E7600782025303278000105080064005E01E80C
:101E860003E40C10270010111230313233342021B4
:101E96002224008090A021A1B000020301050706BC
:101EA600041918171615141312110001020304055C
:041EB600060708090A
:083C7F00E4900058F0023AC87D
:103AC8007D017F05123AE37F02123C9D90005974F4
:0B3AD80064F07BFF7A1D79B6022BDA48
:101FB3008F243094030220A97F0112390E8F25AD9F
:101FC300257F03123AE3300C097BFF7A1D79C302A4
:101FD3002BDAE5256440600C7BFF7A1D79D68525D5
:101FE30042122BDAE5255401D39400400C12175BFF
:101FF30090004DE0FDFF1232E73001030220A9E516
:10200300255402D394004003122D39E5255408D3F7
:10201300940040031215A7E5255404D394004016F9
:102023007F2F12390E90002CEFF090003CE0B43873
:10203300057F38123C9DE5255410D39400400312CC
:10204300323DE5255440D39400401A90003CE0FF14
:102053006003B401107FA3123527900055EEF0A35F
:10206300EFF0121CB0E5255420D39400402C7FA53B
:1020730012390E900029EFF07BFF7A1D79E8F542C3
:10208300122BDA900029E0540370077D017FA6121A
:102093003AE3900029E0FF12368AE5255480D39471
:0720A3000040031224062295
:10175B007B007A00792A7535007536047F40123884
:10176B00E3300C05E4FF023C9DE52A54039000583E
:10177B00F0900067E52CF0A3E52DF07F2012390ED9
:10178B008F29AD297F2012264B8F287BFF7A1E795C
:10179B0000852842852943122BDAE528C39404409F
:1017AB001FE528D394085018AD2B7F2012264B8FA2
:1017BB00287BFF7A1E7910852842852B43122BDA62
:1017CB0090004DE528F07B007A00792A753500757D
:1017DB0036027F811238E390008EE52BF07F2F12BB
:1017EB00390E90002CEFF0E4F527AD277F09122C72
:1017FB00C88F29E5292430FF12390E8F28AD287F99
:10180B003012264B74842527F582E43400F583EFE0
:10181B00F00527E527C3940840D07F3912390E8F86
:10182B0028E528540FFD7F3912264B900061EFF00D
:10183B00E528C4540FFD7F3912264B900062EFF060
:10184B007F2412390E8F28AD287F2412264B7D5012
:10185B007F2E123AE37D467F25123AE37D467F26A3
:10186B00123AE3E4F52A752BFF752C30752D10FB1E
:10187B007A00792AF549754A047F8012359F122127
:10188B00941222687BFF7A1E797D754900754A0E8A
:10189B007F9012359FE490004EF0900083F0900003
:1018AB0055F0A3F0900029F0C201C215C2069000BA
:1018BB008CF0FFFE121BA97F02123C9D9000597405
:1018CB000AF0123CAB122A617FFF12376590002998
:1018DB00E0FF12368A900058E0FDE4FF1236FB223F
:102B5F007BFF7A1E79201237C8E4F527AD277F0453
:102B6F00123A1212000E7FFF123C767FFF123C7654
:102B7F000527E527C3946440E3752902E4F52A7518
:102B8F002B09752C09FB7A007929F549754A047FC1
:102B9F004012359F7D277F2F123AE3E4F527E52773
:102BAF002430FFE4FD123AE30527E527C3940840DC
:102BBF00ED7DAB7F24123AE37D017F05123AE37F6F
:0B2BCF0002123C9D900059741EF02281
:102406007B007A007927753C087F981234E98F2F74
:10241600E52F640260030224C6E52724F8607624CB
:10242600E8602724F5604814605824FD6003022400
:10243600B47BFF7A1E7925852842122BDA90002C70
:10244600E528F07F38123C9D80767BFF7A1E79382E
:10245600852842122BDAAD287F2012264B90004D9C
:10246600EFF0123C97123C4AE4FF123C9D80517BF0
:10247600FF7A1E794E852842122BDAAF281228C120
:10248600803E7BFF7A1E794E852842122BDAAF28D2
:102496001237F9802BA206E433FFE5285401B5076D
:1024A6001FE52830E21A90003C7438F080127BFF5A
:1024B6007A1E7963852F42852743852844122BDAB5
:0524C6007F01023765F3
:102CC800EF24F7601E24E5602824F9600F24FB60D8
:102CD8001924107059ED901E8B93FF22ED901E98C9
:102CE80093FF22ED901E9F93FF22ED901EA793FF66
:102CF80022E4F540900049E0D394004003434001AA
:102D0800900047E0D394004003434002900048E01D
:102D1800FF25E025E0424090004AE0FFC454F0421D
:102D280040A3E0FFC4333354C04240AF40227F0089
:012D38002278
:10264B00E4FEEF24F7603D24E5606324F960202469
:10265B00FB6046241060030226ECEE901E8B93B5B4
:10266B000503AF06220EEEC3940D40EE7F0022EE63
:10267B00901E9893B50503AF06220EEEC394074048
:10268B00EE7F0022EE901E9F93B50503AF06220E40
:10269B00EEC3940840EE7F0022EE901EA793B50583
:1026AB0003AF06220EEEC3941340EE7F0022ED30F3
:1026BB00E1047F0180027F00900047EFF0ED1313E0
:1026CB005403A3F0ED30E0047F0180027F00900003
:1026DB0049EFF0EDC45403A3F0EDC413135403A35B
:0426EB00F07F00225A
:103797008B408A418942EF6027AB400542E542AA48
:1037A700417002054114F9120BB0FEAB430545E524
:1037B70045AA447002054414F9EE120C181F80D66E
:0137C70022DF
:1023380052656D6F766541202530327820256420FE
:10234800004D4B434D5F507265656D707469626CEA
:10235800653A25642025642F256400536F757263E0
:1023680065573A2564282564292530327828253090
:1023780032782900536F757263654A3A25642025BF
:10238800303278004B434D5F5352435F56414C49BE
:10239800442045202564202564004B434D5F53525B
:1023A800435F56414C49443A2530327825303278DB
:1023B800204C6173743A2530327825303278006DBC
:1023C800494E5055545F412025303278004B434DDB
:1023D8005F5352435F56414C4944203D204C617342
:1023E800743A253032782530327800000102030033
:0E23F8002000401000400020000405060807E9
:013CA80022F9
:103461008F2490008CE0603B04F0D394C840347FFB
:103471004112390E8F26AD267F2012264B8F257BD8
:10348100FF7A23793885264285254390004DE0F562
:1034910044122BDAE490003CF0AF251231EDE490B8
:0434A100008CF02289
:1039F0008F3A123C4AD219E53A600D753B303006D9
:103A00000AC206433B028003753B20AD3B7F0802A0
:023A10003AE397
:103A3400AD07EDC394FF500E7F09122CC8EF44105C
:0E3A4400FD7F09023AE3E4FD7F09123AE32216
:10318A008F3D8D3E123C97E53E60167484253DF5D1
:10319A0082E43400F583E0C394125019E004F0800D
:1031AA00147484253DF582E43400F583E0D3940059
:1031BA004003E014F0AD3D7F09122CC88F3F7484A0
:1031CA00253DF582E43400F583E0FD7F30122CC8FA
:0A31DA00AD07E53F2430FF023AE3A1
:0D3C4A00301509C215E4FD7F09123AE3228E
:063C9700300602C2062205
:0931E400F582E43400F583E0FFFC
:1031ED008F27900076E0542CF0900075E054F8F0A5
:1031FD00A3E054DBF0123C97123C4A90003CE0FFF8
:10320D0060046401702590004DE527F0FDFF12323A
:10321D00E790004DE0B404077FA012382A800C908F
:10322D00004DE0B405057FA112382A7F01023C9DB7
:103384007BFF7A237949900027E0FF2434F582E417
:103394003400F583E0F5428F4390003DE0F544129C
:1033A4002BDA90003DE0601B900027E024341231BA
:1033B400E490003DE0FF900027E004F0C39F400B41
:0C33C400E4F02290004DE0FF1231ED22F9
:1030D400E490003CF090005AE0FF601190003EE064
:1030E400FEC39F500874342E1231E4802090005A9D
:1030F400E0FF90003EE0C39FFFE49400FE74F32FD2
:10310400F58274233EF583E493FF1231ED90005A67
:10311400E02404FFE433FE90003EE004F0C39FEE9D
:0B3124006480F87480984002E4F02200
:1032E7008F2C8D2DAD2C7F20122CC88F2EAD2D7FCE
:1032F70020122CC88F2FAD2E7F20123AE37BFF7A46
:10330700237963852C42852D43852E44852F4512CD
:103317002BDAE52DD394035016AD2F7F41123AE3F4
:103327007BFF7A23797C852C42852F43122BDA2267
:101BA9008E2E8F2FE4F530E52F452E7003021C860B
:101BB900E4F531E53125E024F7F582E43423F583B2
:101BC900E493F532740193F533E52E5532FEE52F92
:101BD90055334E603DE53364204532700C90002F3B
:101BE900E07002A3E070148029E533644045327047
:101BF9000A90002FE07002A3E07017E531902401EC
:101C090093FFAE30053074342EF582E43400F58349
:101C1900EFF00531E5316405709990005AE06530BF
:101C2900600BE490003EF090005AE530F0E4F531A5
:101C390090005AE0FFE531C39F501C74342531F5FB
:101C490082E43400F583E0FEC394094006EED394A0
:101C59000C4004053180D990003DE06531600BE40A
:101C6900900027F090003DE530F07BFF7A23798CD6
:101C790090003DE0F5428F43122BDA801F90003D22
:101C8900E530F0E490005AF0900027F090003EF023
:101C990090002FF0A3F0900051F0A3F0900093E58D
:071CA9002EF0A3E52FF0224D
:10382A008F2C123527E52CB4A00A90002FEEF0A3B6
:10383A00EFF08008900051EEF0A3EFF0EF4E600C2D
:0F384A0074FFFDFC7FA41239CE7F01227F002284
:102D39007F1812390E90004EEFF07F1912390E905C
:102D4900002AEFF07F1A12390E900083EFF07F1BF3
:102D590012390E900096EFF090004DE0FF64046088
:102D690004EFB4051F7B007A007927753C107FA713
:102D79001234E98F377FA212352790002DEEF0A388
:102D8900EFF0800E900059E070082015057F0712BA
:102D99003C9D90004EE07003123BE8122A61023C10
:012DA900AB7E
:1015A7007F1C1235278E278F28900093E0FCA3E03D
:1015B700FD65287003EC65277003021745C21D7B84
:1015C700FF7A2379A2E527F543754200F54485287C
:1015D70045ECF547754600F5488D49122BDAE4F5D9
:1015E70029E52925E024F7F582E43423F583E493FC
:1015F700F52A740193F52BE527552AFEE528552B87
:101607004E700302168B900093E0552AFEA3E05517
:101617002B4E7070D21DE52A7032E52B24F9602A13
:1016270024C76015242070247FA012382AEF701C6D
:101637007F0E123C9DC21D80137FA112382AEF70C6
:101647000B7F0F123C9DC21D8002C21D301D41E55C
:101657002990240193FF90004DE0FD1232E7E52920
:101667009024019390004DF07BFF7A2379C7F542D0
:10167700122BDAE490003CF07F01123C9DE49000CD
:101687008CF0800C0529E529C3940550030215E861
:10169700301D0302173EE4F529E52925E024F7F577
:1016A70082E43423F583E493F52A740193F52BE55B
:1016B70027552AFEE528552B4E7070900093E0556C
:1016C7002AFEA3E0552B4E6062E52B852AF0120D0A
:1016D7001216EC002016FE004017101000171740D6
:1016E700000000171CE490002FF0A3F0FF12368AC9
:1016F7007F10123C9D801EE4900051F0A3F0FF1272
:10170700368A7F11123C9D800C7F12123C9D80050A
:101717007F13123C9DE52990240193FF90004DE033
:10172700B5071490008C7401F0800C0529E529C3D6
:10173700940550030216A0AF28AE27021BA97BFF12
:101747007A2379D5E527F543754200F54485284581
:04175700122BDA2255
:10373100205245534554004D4B45595F506C6179BA
:103741005061757365204120256420253032780051
:103751004C697374656E415620256420253032789A
:04376100000102045D
:013CA90022F8
:100601008F24122AE3300125301A0BC21A786FE6C3
:10061100B45903123AC8200703020AB9C207D21417
:10062100787CE664186003020AB9023AC82007031D
:100631000206D1C207D214787CE6120CEC067501D1
:10064100067A0206810406880806701106691206F8
:100651006214065D1806A428000006D11230D48069
:100661006F7F01122E848068E4FF122E8480611254
:100671003960805C12312F80577F021239AB805074
:100681007F011239AB804990003CE0FFC3943840B0
:100691000DEFD3943F5007E4FF123C9D8032123A94
:1006A10052802D90003CE0FFC394384006EFD39474
:1006B1003A40077F38123C9D801690003CE004F0E0
:1006C100D3943A40037438F090003CE0FF123C9D13
:1006D100787EE6600C06E6D3943C4005E4F6787A31
:1006E100F6201A03020A93C21A786FE6120CEC0A7A
:1006F10087000A8E030A6B04088A0508B0060A728D
:10070100070A53080A580B0A3E0C08440D08380E14
:100711000A0210086111083E120A0C130A24140976
:100721001C160A2B1707B61807A41908901A09AA4C
:100731001B0A80400A79420A64440884450A5D46DE
:100741000A4C480A454A0A374C07BC4D0A324E0743
:10075100FA510A1B5409CC550A1256078B580769DE
:100761005909885A00000A93B2013001087F081222
:100771003C9D020A937D017F05123AE37F02123C00
:100781009D900059741EF0020A9390003CE0B40958
:10079100047F0480027F008F25AD257F09120D663D
:1007A100020A937BFF7A3779311237C812000E1291
:1007B1002B5F020A93123986020A9390003CE0FFF4
:1007C100C3942E4012EFD39435500C787E76017D80
:1007D10004120D66020A9390003CE0FFC39424507A
:1007E10003020A93EFD3942B4003020A93787E7697
:1007F100017D04120D66020A9390003CE0FFC39450
:100801002E4012EFD39435500C787E76017D031281
:020811000D6672
:10081300020A9390003CE0FFC394245003020A931E
:10082300EFD3942B4003020A93787E76017D031263
:100833000D66020A93123B31020A93123B4B020AE2
:1008430093787E760190003CE0B438047F04800204
:100853007F008F25AD257F38120D66020A9330067F
:1008630003020A93787E760190003CE0B438047F5B
:100873000380027F008F25AD257F38120D66020AA3
:1008830093123AFD020A93123A52020A9390003CE1
:10089300E0FFC39446400EEFD394505008E4FF1298
:1008A3003C9D020A937F46123C9D020A9390003CB2
:1008B300E0FFC394465003020A93EFD394504003DE
:1008C300020A93E004F0E0B4480C900048E070069C
:1008D30090003CE004F090003CE0B4490C90004AE6
:1008E300E0700690003CE004F090003CE0B44A0C59
:1008F30090004BE0700690003CE004F090003CE078
:10090300D3945040037446F090003CE0FF123C9DAA
:100913009000547432F0020A9390003CE0FFC394B9
:10092300465003020A93EFD394504003020A93E024
:1009330014F0E0B44A0C90004BE0700690003CE0E9
:1009430014F090003CE0B4490C90004AE07006902B
:10095300003CE014F090003CE0B4480C900048E008
:10096300700690003CE014F090003CE0C3944650C5
:10097300037450F090003CE0FF123C9D90005474CF
:1009830032F0020A9390003CE0FFC3944650030206
:100993000A93EFD394504003020A93787E76017D45
:1009A30003120D66020A9390003CE0FFC394465085
:1009B30003020A93EFD394504003020A93787E769E
:1009C300017D04120D66020A9390003CE0FFC3947C
:1009D3002E4006EFD39435400B123C4A7F2E123C37
:1009E3009D020A9390003CE024D2FF122DAA8F2689
:1009F300E526242EFF90003CF0123C9D020A937DD5
:100A0300037FA5123AE3020A9312312F020A937D60
:100A1300047FA6123AE380787D037FA6123AE3802F
:100A23006F7F021239AB80687F011239AB8061128C
:100A33003960805C7F0B123C9D80557F0C123C9D7E
:100A4300804E7F01122E848047E4FF122E84804063
:100A5300123938803B12338480367F091231ED809E
:100A63002F7F0A1231ED80287F0B1231ED80217F19
:100A7300071231ED801A7F011231ED80137F0212CC
:100A830031ED800C7F031231ED8005E4FF1231ED6F
:100A9300301C23C21C90003CE0FFC394384012EF8B
:100AA300D3943A500C3012047D0480027D03020D6E
:070AB300667F38123C9D2212
:103A5200B2063006047F0480027F03AD077F0A129C
:0E3A62000D662006057F38123C9D123C4A225C
:103AFD00B21530150A7F24123C9DE4FF023A34E4DE
:0A3B0D00FF123C9D7FFF123A3422A4
:10312F007BFF7A37793890004DE0F542900029E027
:10313F00F543122BDA90004DE0FF64046005EF6455
:10314F00057037900029E05403F527B402137D0171
:10315F007FA5123AE3900029E054FCF04401F0807F
:10316F00117D027FA5123AE3900029E054FCF04450
:0B317F0002F0900029E0FF12368A22C7
:10393800900057E004F0C394034002E4F09000576D
:10394800E0FF7401A807088002C333D8FCFD7F217B
:08395800123AE37F06023C9DD8
:102E84008F277F2B12390E8F2890003CE06403704B
:102E940052AD287F2B12264B8F29E527600EE5299A
:102EA40070047F0180027F008F298018E529C39474
:102EB400025005752902800C0529E529D3940640A2
:102EC40003752902AD297F2B122CC88F28AD287FCA
:102ED4002B123AE37BFF7A377951852942852843BF
:082EE400122BDAAF280228C10D
:1013CE004B434D2D4E4F00202D4F46462D002048AD
:1013DE00454C4C4F004D5554452020004D5554451D
:1013EE002D2D00564F4C20202000564F4C20004EE5
:1013FE004F49534520004652535020004345535009
:10140E002000535753502000535253502000424B4C
:10141E00535020004C504620004C49505300465229
:10142E00444C20004345444C20005357444C20006C
:10143E00424B444C20004D503300202000202020F1
:10144E00202020004D4449505F506C6179536B69E8
:10145E007020412025640056494445302000466FD7
:10146E00726D61744120253032782025642025303C
:10147E0032780050434D00322F34004E49472D4FE5
:10148E004E004E49472D4F46005842797465204113
:10149E0031004657444F4E45004657204572720064
:1014AE004657202D00464C5474434554745357549C
:1014BE0074465254745352547442525474424C549F
:1014CE0074534C547400464C5472434554725357E3
:1014DE005472465254725352547242525472424C87
:1014EE005472534C5472004155582D494E4F50541E
:1014FE00494341434F412D4431434F412D44322006
:10150E002D53442D20202D5553422D202D50432D4B
:10151E00202045384348202D42542D202048444D4C
:10152E00492D3148444D492D3248444D492D3348BB
:10153E00444D492D410020204849464920322B3147
:10154E0043484D4F4445202000322F30312F30324A
:10155E002F30332F30322F31332F31322F32332F72
:10156E0032332F33332F34322F33322F3400534450
:10157E002D494E2055442D494E2053442D4F555440
:10158E0055442D4F555450432D4F555442542D4FC5
:09159E00555448442D4F555400EA
:103C0E00E4FDFF1236FBE4FF123AABE4900031F014
:013C1E002283
:1024CB008F24300F05C20F12000EE5245402D39453
:1024DB0000500302258B900031E0601514F070075B
:1024EB007F01123765800A900031E05401FF1237EB
:1024FB0065900059E0D394004003E4F02230060BC2
:10250B00900054E070057F0A123C9D20015890000A
:10251B0054E0605214F07024201506FF123C9D808D
:10252B004590003CE024DCFF122DAA8F25E52524E5
:10253B0024FF123C9DAF25123A34802A300027909D
:10254B000054E0FF75F00584E5F0701AEF75F005A7
:10255B0084F52590003CE0FFE52530E0047D02800A
:10256B00027D01120D662001172006142015113073
:10257B00050E90004EE0540FC394004003123077C9
:01258B00222D
:053C9D00E4FD020D66CC
:093C6D009000547414F0C200220E
:083C870090003CEFF0023C6DDF
:0F3C1F00C205D2A5123B17900075E0540FF0229A
:100D66008F388D39E5397003123C6D123C1FE5381A
:100D7600120CEC0E19000E38010E4A020E8E060EEB
:100D86009A070E3E080E5F090EBD0A0EA00B0EA6B0
:100D96000C0EAC0E0EAC0F0EAC100EAC110EAC124F
:100DA6000EAC130EAC140EB7150F66240F66250F86
:100DB60066260F66270F66280F66290F662A0F66B6
:100DC6002B0F6F2E0F6F2F0F6F300F6F310F6F328C
:100DD6000F6F330F6F340F6F350F19380F7B390FC5
:100DE6007B3A0F7B3B0F7B3C0F7B3D0F7B3E0F7BA4
:100DF6003F0F93460F93470F93480F93490F934A1C
:100E06000F874B0F874C0F874D0F874E0F874F006D
:100E1600000F9F200C05121CB080097BFF7A137906
:100E2600CE1237C8E490003CF0900054F0D2050290
:100E36000FA6121CB0020FA67BFF7A1379D51237C4
:100E4600C8020FA67BFF7A1379DC1237C812000E90
:100E5600900054740AF0020FA6E539B4041D900000
:100E6600547414F0900058E004F0D394024002E465
:100E7600F0900058E0FD7F40123AE3900058E0FD04
:100E86007F011236FB020FA69000547432F0123B1B
:100E9600BF020FA612258C020FA61235DA020FA684
:100EA6001234A5020FA6E53824F2FF123B65020FA5
:100EB600A6123293020FA6E5396003B40408900027
:100EC600547450F0D200E539C394024005E539B4B4
:100ED600040B7BFF7A1379E31237C8800EE539B429
:100EE60002097BFF7A1379EA1237C8E539B4040A96
:100EF6007D037F08123AE3020FA6E5396403600317
:100F0600020FA69000547414F07D027F08123AE393
:100F1600020FA6E539C39403401590003CE0B438AF
:030F26000EE5399C
:100F2900B404047F0180027F001239F0E539B4026C
:100F39000B7BFF7A1379F11237C880617BFF7A1333
:100F490079F81237C890002CE0FD7F04123A12E5B7
:100F590039704A9000547450F0D2008040AD39AFD6
:100F690038122EEC8037123C4AAD39AF3812282995
:100F7900802B123C4AAD39AF38122952801F123CDE
:100F89004AAD39AF381218EB8013123C4AAD39AF6C
:100F9900381220AA8007AD39AF38123CA290003C24
:040FA900E538F02215
:1034A5007F0912390E8F3A30151390003CE0B40CA9
:1034B5000C053AE53AD394074003E4F53AAD3A7F73
:1034C50009123AE37BFF7A1379FD1237C8E53A24EE
:1034D50031FD7F051211CC301509E4900032F0FF63
:0434E500123A342241
:102DAA00EFB407005067902DB7F8282873022DCC8E
:102DBA00022DE1022DED022DF0022E05022E110246
:102DCA002E14900048E060037F0122900049E060E1
:102DDA00037F02227F0322900049E060037F0222E0
:102DEA007F03227F032290004AE060037F0422903F
:102DFA00004BE060037F05227F002290004BE060D9
:102E0A00037F05227F00227F06227F07227F00227E
:102EEC008F3A8D3BE53BC39403401E90003CE0B50C
:102EFC003A1724DCFFE53BB404047D0180027D001D
:102F0C0012318A9000547450F074DC253AF53A75FD
:102F1C00F004A424B3F9741435F0FA7BFF1237C80B
:102F2C00E53BB4020E7D207F041211CC7D207F0581
:102F3C000211CC7484253AF582E43400F583E0FF69
:062F4C001238B6D200228B
:102829008F3A8D3BE53BC39403401E90003CE0B5D5
:102839003A1724D2FFE53BB404047D0180027D00F0
:1028490012318A9000547450F074D2253AF53A75D1
:10285900F004A424D4F9741435F0FA7BFF1237C8B4
:10286900E53BB4020E7D207F041211CC7D207F054B
:102879000211CC7484253AF582E43400F583E0F53D
:102889003CC3940950147D2D7F041211CCC37439B3
:10289900953CFD7F051211CC80117D207F0412111A
:1028A900CCE53C2427FD7F051211CCE53B7008904F
:0828B90000547450F0D200221B
:1018EB008F3A8D3B900075E04450F0A3E0F09000F0
:1018FB00547450F07D207F041211CC7D207F051293
:10190B0011CCE53A24B460561470030219A014707C
:10191B00030219D7147003021A0E147003021A452E
:10192B0024056003021A4E7BFF7A1479041237C820
:10193B00E53BC39403401B900047E004F0D39401B4
:10194B004002E4F0E4FD7F24122CC8AD077F241283
:10195B003AE3E4FF123563AD077F050211CC7BFF41
:10196B007A14790A1237C8E53BC39403401B9000E5
:10197B0048E004F0D394024002E4F0E4FD7F24122B
:10198B002CC8AD077F24123AE37F01123563AD07F4
:10199B007F050211CC7BFF7A1479101237C8E53B17
:1019AB00C39403401B900049E004F0D39401400220
:1019BB00E4F0E4FD7F24122CC8AD077F24123AE338
:1019CB007F02123563AD077F050211CC7BFF7A14C2
:1019DB0079161237C8E53BC39403401B90004AE0CD
:1019EB0004F0D394024002E4F0E4FD7F24122CC8EF
:1019FB00AD077F24123AE37F03123563AD077F05F2
:101A0B000211CC7BFF7A14791C1237C8E53BC394C7
:101A1B0003401B90004BE004F0D394024002E4F02F
:101A2B00E4FD7F24122CC8AD077F24123AE37F0418
:101A3B00123563AD077F050211CC7BFF7A14792237
:041A4B001237C82264
:1020AA008F3A8D3BE53A24B9603A14605A14607A43
:1020BA0014700302215724046003022178900075EA
:1020CA00E04440F0A3E0F07BFF7A1479271237C886
:1020DA00E53BC394035003022178AD3BE4FF122E83
:1020EA001A0221787BFF7A14792C1237C89000756E
:1020FA00E04450F0A3E0F0E53BC394034070AD3BED
:10210A007F01122E1A80677BFF7A1479321237C840
:10211A00900075E04450F0A3E0F0E53BC39403401F
:10212A004DAD3B7F02122E1A80447BFF7A14793818
:10213A001237C8900075E04450F0A3E0F0E53BC3C5
:10214A009403402AAD3B7F03122E1A80217BFF7A2B
:10215A0014793E1237C8900075E04450F0A3E0F0BD
:10216A00E53BC394034007AD3B7F04122E1A90004F
:10217A00547432F074F9253AF582E434FFF583E0B9
:0A218A0075F005A4FD7F04023A126F
:101CB000900075E054BFF0A3E054DFF090004DE0D9
:101CC000FFC394045003021DA0EFD3940840030205
:101CD0001DA0900076E04420F0EF64046008EF64FB
:101CE000056003021DA0900055E0FEA3E0FFD39421
:101CF00000EE94005003021DA0EF9403EE940050F8
:101D000003023293C3900056E09405900055E0948E
:101D100000504F900096E075F008A485F03FF54024
:101D200090004EE06407703A9000547414F07BFF0A
:101D30007A1479441237C8D3E5409460E53F9400A3
:101D40004009AD40AC3F7F030227907D207F031206
:101D500011CC7D207F051211CCAD40AC3F7F040239
:101D600027907BFF7A1479481237C8900055E0FE1F
:101D7000A3E0FF7C007D3C120C4CAD077F02123AC1
:101D800012900055E0FEA3E0FF7C007D3C120C4C5D
:101D90007F04123A12900075E04440F0A3E0F02274
:101DA00090004DE075F006A424F5F9741435F0FAAE
:061DB0007BFF1237C82280
:103293007FA4123527EF2401F543E43EF542900065
:1032A30075E054BFF07BFF7A14794B1237C8AD43F6
:1032B300AC42E4FF1227908F4105417D2F1211CCC0
:1032C30090004DE0B4040D90002FE0FEA3E0FFACAE
:1032D30006FD800B900051E0FEA3E0FFAC06FDAFBE
:0432E30041022790ED
:1039AB008F27E4900055F0A3F0900083F0121CB029
:1039BB00AD277FA6123AE37BFF7A14795285274213
:0339CB00022BDAF2
:013CAA0022F7
:103BBF007BFF7A1479651237C8900057E02431FDE6
:053BCF007F050211CC8E
:1028C1008F30AD307F2B12264B8F31123C1F900081
:1028D10076E0542CF0E531C39402501CE53175F0DB
:1028E10006A42444F9741535F0FA7BFF1237C89019
:1028F1000076E04401F080517BFF7A157950123760
:10290100C8E531242FFD7F051211CCE53024FD608F
:102911001614601C1460221460282404702B90008B
:1029210076E04402F08022900076E04480F0801945
:10293100900076E04440F08010900076E04440F052
:102941008007900076E04410F0123C6D7F03023C5A
:0129510087FE
:10258C0090004EE0C394015003022647E4F53E90C0
:10259C00002AE0540F75F003A4F53A7BFF7A147906
:1025AC004B1237C87BFF7A14796C90004EE0F542E1
:1025BC00853A4390002AE0F544122BDA122A6190F6
:1025CC00004EE0120CEC25F10125FA02261C032624
:1025DC003E1125FA12261C1325FA22261C23261C32
:1025EC00330000264A7BFF7A1479810237C874576E
:1025FC00253AF9E43415FA7BFF75430075440075F0
:10260C00453B7F031237977B007A00793B0237C832
:10261C007457253AF9E43415FA7BFF754300754479
:10262C000075453B7F031237977B007A00793B029C
:0F263C0037C87BFF7A1479850237C8121CB02289
:10356300AE07EE700C900047E060037F4C227F5360
:1035730022BE020C900049E060037F59227F4E2255
:1035830074472EF582E43400F583E0FDB402037F33
:0C3593004C22EDB401037F53227F4E2236
:1035DA007F2312390E8F3A90003CE0B40B16E53A7D
:1035EA00C394645005753A648003E4F53AAD3A7FB2
:1035FA0023123AE3E53A60097BFF7A1479890237A4
:0B360A00C87BFF7A1479901237C822A9
:103B65009000547432F0EF75F006A4247CF97415B6
:083B750035F0FA7BFF0237C8AE
:102E1A00EF70047C0180027C00EC146011146012D3
:102E2A00146013146014240470127E13800E7E0939
:102E3A00800A7E0980067E0980027E09BD04247408
:102E4A003F2FF582E43400F583E0D39E4002EEF092
:102E5A00743F2FF582E43400F583E0C39E501AE0F4
:102E6A0004F022BD0313743F2FF582E43400F58386
:0A2E7A00E0D394004003E014F022BE
:10323D007BFF7A147997122BDA7B007A0079277548
:10324D0035007536027F811238E3E527B4640B7BB8
:10325D00FF7A1479A01237C88020E527B4680B7B5C
:10326D00FF7A1479A71237C880107BFF7A1479AED4
:10327D001237C8AD277F04123A127F0D123C87908A
:06328D000054743CF02225
:0A3C630090002CE0FD7F04023A12ED
:1038B6008F3DE53DC3940950127D2D7F041211CC36
:1038C600C37439953DFD7F050211CC7D207F04121E
:0D38D60011CCE53D2427FD7F051211CC2209
:103A8E00EF600C120BB0C39D50127401020BF612B4
:0D3A9E000BB0D39400400574FF120BF6220C
:102FB8004252494748000002070000243F0006002B
:102FC800DB00CF00E600ED00FD000700FF00EF008A
:102FD800F7128F0039120F00F900F100BD00F61248
:102FE80009001E0C70003805360936003F00F3084A
:102FF8003F08F300ED1201003E243028362D000072
:10300800EE240900C0240012C00010181C1C1E1E4B
:013018001F98
:1033D000D2A5C2937F01123C767F40123B937F01BE
:1033E000123C76D2937F01123C76C2937F01123C4D
:1033F000767FC0123B937F01123C76E4F524E4FF14
:10340000123B937F01123C760524E524C3941040BF
:09341000ED7F0A123C76D29322F2
:1036FB008D3AEFD3940040137BFF7A2F79B81237B2
:10370B00C8E53A2431FD7F051211CCC2937F01121B
:10371B003C76E53A902FBE934488FF123B937F0192
:06372B00123C76D293224D
:013CAB0022F6
:102A6100900075E054F8F0A3E054DBF090004EE0E4
:102A7100120CEC2A93012AB7022ACA032AD6112A78
:102A8100B7122ACA132AAD222AC0232AC033000052
:102A91002AE090008EE0FF64536044EF6456603F8B
:102AA100900075E04404F0A3E0F08033900075E0FD
:102AB1004402F0A3E0F0900076E04404F08020901E
:102AC1000075E04402F0A3E0F0900075E04401F0ED
:102AD100A3E0F0800A900075E04404F0A3E0F0D296
:022AE1000F22C2
:10368A00EF5403FE900078E054F0F0BE0106E044E7
:10369A0008F0800ABF0207900078E04404F0EF5473
:1036AA00C0FE6013BEC009900078E04401F08007B4
:0A36BA00900078E04402F0D20F22E5
:103765008F30E530B4FF117F1F12390EEF30E704BB
:103775007F0180027F008F30E530600C900075E09E
:103785004408F0A3E0F08007900075E054F7F0D20C
:023795000F2201
:103888008B168A1789188D19E4F51AE51AC3951944
:10389800501BAB16AA17A918851A82758300120B3C
:0E38A800C9FD6009AF1A1211CC051A80DE228C
:1037C8008B448A458946E4F548AB440546E546AA54
:1037D800457002054514F9120BB0F5476012AD4764
:1037E800AF481211CC0548C3E5486480948640D997
:0137F80022AE
:102790008F448C458D46AE45AF467C277D10120C8C
:1027A0004CEF4E60121211C4AE45AF467C277D102F
:1027B000120C4C8C458D46AE45AF467C037DE8122D
:1027C0000C4CEF4E60121211C4AE45AF467C037D37
:1027D000E8120C4C8C458D46AE45AF467C007D64BE
:1027E000120C4CEF4E60121211C4AE45AF467C0085
:1027F0007D64120C4C8C458D46AE45AF467C007D09
:102800000A120C4CEF4E60121211C4AE45AF467C5A
:10281000007D0A120C4C8C458D46AF440544E546BC
:092820002430FD1211CCAF44225A
:103A12008F418D42E54275F00A842430FD1211CCAB
:103A2200E54104FFE54275F00A84E5F02430FD0229
:023A320011CCB5
:0811C400EF2430FDAF440544A7
:1011CC008F498D4AE549C394034003021297E54ABF
:1011DC00C394304012E54AD39439500B74D0254A4D
:1011EC00F54A04F54B804CE54AC39461400FE54A3F
:1011FC00D3947A5008E54A24AAF54B8036E54AC3C5
:10120C009441400FE54AD3945A5008E54A24CAF554
:10121C004B8020E54A24D5601224FC60092402701E
:10122C000F754B25800D754B268008754B27800359
:10123C00E4F54BE54B25E024C1F582E4342FF5832E
:10124C00E493FEE54925E02469F582E43400F58356
:10125C00EEF0A3E4F0E54925E02469F582E43400DE
:10126C00F583C083C082E0FEA3E0FFE54B25E024BC
:10127C00C2F582E4342FF583E493FDEEEF4DFFD0FD
:10128C0082D083EEF0A3EFF00213CBE549C39406B2
:10129C0040030213CBE54AC394304066E54AD3942D
:1012AC0039505F74D0254AF54A04F54B25E024C12A
:1012BC00F582E4342FF583E493FEE54925E02469B7
:1012CC00F582E43400F583EEF0A3E4F0E54925E083
:1012DC002469F582E43400F583C083C082E0FEA368
:1012EC00E0FFE54B25E024C2F582E4342FF583E4DE
:1012FC0093FDEEEF4DFFD082D083EEF0A3EFF00222
:10130C0013CBE54A120CEC13562D135B41136042C0
:10131C00136543136A44136F4513744613794713CB
:10132C008348137E4913884C138D4E13924F139799
:10133C0050139C5213A15313A65413AB5513B0590D
:10134C00139C7213A674000013B5754AC0805D75AA
:10135C004AF78058754A7C8053754A39804E754AD5
:10136C00DE8049754AF98044754AF1803F754AEF31
:10137C00803A754A068035754AF68030754A388051
:10138C002B754A378026754A3F8021754AF3801C9D
:10139C00754A508017754AED8012754AF8800D75A4
:1013AC004A3E8008754A6E8003E4F54AE54925E01B
:1013BC002469F582E43400F583E4F0A3E54AF0D225
:0213CC000F22EE
:103B1700E4FFEF25E02479F582E43400F583E4F04F
:0A3B2700A3F00FEFC3940540E9225C
:063C2E00131313541FFFE5
:093C3400EF540790301193FF22B8
:10307700B2B57B007A0079277535007536037F91E5
:103087001238E3300C03023B17AF27123C34900091
:1030970079E4F0A3EFF0E527123C2E90007BE4F0F3
:1030A700A3EFF0AF28123C3490007DE4F0A3EFF0DB
:1030B700E528123C2E90007FE4F0A3EFF0AF291231
:0D30C7003C34900081E4F0A3EFF0D20F2222
:103BE800E4FFE4900079F0A3F00FEFC3940540F2EE
:033BF800D20F22C7
:103AAB00E4FEEFFDEE25E02469F582E43400F583B6
:0D3ABB00E4F0A3EDF00EEEC3940D40E62202
:10000E00E4FF74062FF582E43400F583E4F00FEF7D
:10001E00C3941040ED900069E0FEA3E0FF30E007CE
:10002E00900014E04408F0EF30E10790000DE0443A
:10003E0008F0EF30E207900006E04408F090006A06
:10004E00E030E307900009E04408F0900069E0FE1C
:10005E00A3E0FF30E407900011E04408F0EF30E534
:10006E0007900015E04408F0EF30E60790000FE02F
:10007E004408F090006AE030E70790000CE0440876
:10008E00F0900069E0FEA3E0FFEE30E00790001371
:10009E00E04408F0EE30E107900012E04408F0EE84
:1000AE0030E20790000BE04408F0900069E0A330C6
:1000BE00E307900007E04408F0900069E0FEA3E03B
:1000CE00FFEE30E407900008E04408F0EE30E5075C
:1000DE0090000EE04408F090006BE0FEA3E0FF30CD
:1000EE00E007900014E04420F0EF30E10790000D9F
:1000FE00E04420F0EF30E207900006E04420F0905C
:10010E00006CE030E307900009E04420F090006BB3
:10011E00E0FEA3E0FF30E407900011E04420F0EF92
:10012E0030E507900015E04420F0EF30E607900030
:10013E000FE04420F090006CE030E70790000CE0F8
:10014E004420F090006BE0FEA3E0FFEE30E007905D
:10015E000013E04420F0EE30E107900012E044205E
:10016E00F0EE30E20790000BE04420F090006BE0E0
:10017E00A330E307900007E04420F090006BE0FE10
:10018E00A3E0FFEE30E407900008E04420F0EE30EC
:10019E00E50790000EE04420F090006DE0FEA3E035
:1001AE00FF30E007900014E04410F0EF30E10790CC
:1001BE00000DE04410F0EF30E207900006E044102E
:1001CE00F090006EE030E307900009E04410F090EC
:1001DE00006DE0FEA3E0FF30E407900011E0441054
:1001EE00F0EF30E507900015E04410F0EF30E60731
:1001FE0090000FE04410F090006EE030E7079000A2
:10020E000CE04410F090006DE0FEA3E0FFEE30E055
:10021E0007900013E04410F0EE30E107900012E07A
:10022E004410F0EE30E20790000BE04410F0900026
:10023E006DE0A330E307900007E04410F090006DEE
:10024E00E0FEA3E0FFEE30E407900008E04410F07B
:10025E00EE30E50790000EE04410F090006FE0FEE7
:10026E00A3E0FF30E007900014E04404F0EF30E12B
:10027E000790000DE04404F0EF30E207900006E036
:10028E004404F0900070E030E307900009E044046D
:10029E00F090006FE0FEA3E0FF30E407900011E065
:1002AE004404F0EF30E507900015E04404F0EF3021
:1002BE00E60790000FE04404F0900071E0FEA3E02A
:1002CE00FF30E007900014E04480F0EF30E107903B
:1002DE00000DE04480F0EF30E207900006E044802D
:1002EE00F0900072E030E307900009E04480F09057
:1002FE000071E0FEA3E0FF30E407900011E04480BF
:10030E00F0EF30E507900015E04480F0EF30E6079F
:10031E0090000FE04480F0900073E0FEA3E0FF3009
:10032E00E007900014E04402F0EF30E10790000D7A
:10033E00E04402F0EF30E207900006E04402F09055
:10034E000074E030E307900009E04402F09000737F
:10035E00E0FEA3E0FF30E407900011E04402F0EF6E
:10036E0030E507900015E04402F0EF30E60790000C
:10037E000FE04402F0900075E0FEA3E0FF30E007CE
:10038E00900014E04401F0EF30E10790000DE044DE
:10039E0001F0EF30E207900006E04401F0900076A5
:1003AE00E030E307900009E04401F0900075E0FEB4
:1003BE00A3E0FF30E407900011E04401F0EF30E5D8
:1003CE0007900015E04401F0EF30E60790000FE0D3
:1003DE004401F0900076E030E70790000CE0440115
:0403EE00F090007516
:1003F200E0FEA3E0FFEE30E007900013E04401F0DE
:10040200EE30E107900012E04401F0EE30E2079096
:10041200000BE04401F0900075E0A330E307900088
:1004220007E04401F0900075E0FEA3E0FFEE30E447
:1004320007900010E04420F0EE30E507900010E055
:100442004410F0EE30E607900010E04404F0900013
:1004520077E0FEA3E0FF30E00790000BE04404F0F9
:10046200EF30E107900012E04404F0EF30E2079031
:100472000013E04404F0900078E030E30790000CB1
:10048200E04404F0900079E0FEA3E0FF30E0079042
:100492000007E04480F0EF30E10790000BE0448079
:1004A200F0EF30E207900012E04480F090007AE032
:1004B20030E307900013E04480F090007AE030E4EB
:1004C2000790000CE04480F090007BE0FEA3E0FF88
:1004D20030E00790000BE04402F0EF30E1079000BB
:1004E20012E04402F0EF30E207900013E04402F021
:1004F20090007CE030E30790000CE04402F09000B2
:100502007DE0FEA3E0FF30E007900011E04440F000
:10051200EF30E107900009E04440F0EF30E207904D
:100522000006E04440F090007EE030E30790000DCA
:10053200E04440F090007EE030E407900014E04494
:1005420040F090007FE0FEA3E0FF30E00790001350
:10055200E04440F0EF30E10790000CE04440F0EF5F
:1005620030E20790000FE04440F0900080E030E37A
:1005720007900015E04440F0900081E0FEA3E0FF08
:1005820030E00790000EE04440F0EF30E1079000C9
:1005920008E04440F0EF30E207900007E04440F00A
:1005A200900082E030E30790000BE04440F09000BE
:1005B20082E030E407900012E04440F0C2937F01F1
:1005C200123C767F40123B937F01123C76D2937F9E
:1005D20001123C76C2937F01123C767FC0123B939C
:1005E200E4F53A7406253AF582E43400F583E0FF37
:0F05F200123B93053AE53AC3941040E7D29322A7
:103B93007E08C290EF139291EFC313FFD2901EEEF3
:063BA300D3940050ED2256
:102F52000305C2689F0624315275000805820306E4
:102F6200000F828C050F008C020A8588000583847D
:102F72000B0D0020464C41542020455120202000BA
:102F82000999999F004D4943314D49433245434880
:102F92004F5245505444454C594D4241534D545261
:102FA200450009070707050505050303060408048C
:062FB20009040A030B02F2
:10219400E4F52F78317C007D007BFF7A2F79527E25
:1021A400007F05120B8AE52F04F5307B007A007955
:1021B40030754900754A067F8B12359F752E01E4F0
:1021C400FFE52F75F006A4245DF582E4342FF58332
:1021D400E5822FF582E43583F583E493FEE52F75DC
:1021E400F006A4245EF582E4342FF583E5822FF50E
:1021F40082E43583F583E493FDEF902F5793547F66
:10220400FCEE54804CFC7430252EF8A604EFA39306
:10221400547FFCED54804CFC7431252EF8A604ED5B
:10222400540FFCC454F0FCEE540F4CFC7432252EB5
:10223400F8A6047403252EF52E0F0FEFC394064061
:1022440080E52F04F5307B007A00793075490085EC
:102254002E4A7F8C12359F052FE52FC3940350031C
:04226400022197229A
:103960007F2C12390E8F2790003CE0B405130527F9
:10397000E527D394034003E4F527AD277F2C123AC3
:06398000E3AF270237F956
:1037F9008F30123C1FE53060067E007F0680047E14
:10380900007F0074752FF9742F3EFA7BFF1237C8B9
:10381900E53060082430FD7F041211CC7F05023C9D
:013829008717
:10226800900067E0D3941240037409F0900068E08E
:10227800D3941240037409F07F3912390E8F2EE57A
:102288002ED394004003D38001C3920EE52EC4548C
:102298000F900061F0E52E540FA3F0900061E0D399
:1022A800940940037402F0900062E0D3940940035B
:1022B8007402F01234197F3A12390E8F2EE52E541B
:1022C8000F900063F0D3940940037402F07F3B122F
:1022D800390E8F2EE52EC4540F900065F0D3940963
:1022E80040037402F0E52E540F900064F0D3940973
:1022F80040037402F07BFF7A2F7982754900754A92
:10230800057F8D12359F752F0478307C007D007B0A
:10231800FF7A2F79527E007F05120B8A7B007A00A4
:10232800792F754900754A067F8B12359F0233371E
:1039860090003CE0C3943950057F39023C9D90007D
:103996003CE004F0D3943F40037439F090003CE0DF
:0539A600FF123C9D2210
:103B310090003CE0FFC39439400FEFD3943F50090C
:0A3B4100787E76017D04120D6622E5
:103B4B0090003CE0FFC39439400FEFD3943F5009F2
:0A3B5B00787E76017D03120D6622CC
:102952008F3A8D3BE53BC39403401D90003CE0B5AC
:102962003A16E53BB404047D0180027D00AF3A12C1
:1029720026EF9000547450F0E53A24C7F53C75F008
:1029820004A42487F9742F35F0FA7BFF1237C87D2F
:10299200207F041211CCE53BB402077D207F0502A3
:1029A20011CCE53AC3943E50167461253CF582E49D
:1029B2003400F583E02430FD7F051211CC801074C1
:1029C20029253AF582E43400F583E0FF1238B6E5B2
:0C29D2003B70089000547450F0D20022BA
:10385900AB07EBC394095015430580EBFFC374090B
:103869009FFFE49400EFFEE4EE4204800DEB24F7A1
:0F387900FFE434FFEFFEE4EE4204AE04AF05229D
:1026EF008F3D8D3E123C97E53DC3943E5064742858
:1026FF00253DF9E43400FA7B017D09AF3E123A8E95
:10270F00E53D24C6600D14601F14603214602F2441
:10271F0004706D900061E0FFC454F0FFA3E04FFD23
:10272F007F39123AE3023419900063E0FF902FA42F
:10273F0093FEC454F0FEEF4EFD7F3A023AE3900051
:10274F0065E0FFC454F0FF900064E04FFD7F3B0253
:10275F003AE37429253DF9E43400FA7B017D12AF89
:10276F003E123A8E123337E53DB43E0A900067E0D1
:10277F00FD7F42023AE3900068E0FD7F43123AE3A7
:01278F002227
:10333700900067E0FF7D237C001238598E438F444D
:10334700A3E0FF7D677C00123859753F04E544F51B
:1033570040AD07EDF541EEC4F854F0C868EFC4542A
:103367000F4854F0FDE543540F4DF5427B007A00BA
:0D337700793F754900754A047F8C02359F2F
:10341900900061E0C39405500EA3E0C394055007E2
:103429007D447F38023AE3900062E0FF900061E05A
:10343900FED39F4004AF0680008F3FE53F24FB2564
:10344900E0F53F902FAE93FFC454F0FFE53FA393FF
:083459004FFD7F38123AE32217
:103A7000AE0753050FEDC3940A5006ED2430FFFD49
:0E3A800022EE6005ED2457FF22ED2437FF22D1
:101A4F008F668D678B68E567701FE568701BAB69E4
:101A5F00AA6AA96B7430120C18AB69AA6AA96B90A9
:101A6F000001E4120C2A7F0122E4F56CFCE56664A8
:101A7F00646009E56664756003021B2BE56875F009
:101A8F006484F56D601AFDE4FF123A70AB69AA6ABF
:101A9F00A96BAE040C8E82758300EF120C2A80188E
:101AAF00E567B40313AB69AA6AA96BAF040C8F8205
:101ABF007583007430120C2AE56875F0648485F024
:101ACF006DE56D75F00A84FD6019E4FF123A70AB95
:101ADF0069AA6AA96BAE040C8E82758300EF120C93
:101AEF002A8018E567B40213AB69AA6AA96BAF0421
:101AFF000C8F827583007430120C2AE56D75F00A15
:101B0F0084ADF0E4FF123A70AB69AA6AA96BAE0418
:101B1F000C8E82758300EF120C2A806CE56854F0EE
:101B2F006028E566B458047F0180027F00E568C431
:101B3F00540FFD123A70AB69AA6AA96BAE040C8EF2
:101B4F0082758300EF120C2A801CC3E567648094B2
:101B5F00824013AB69AA6AA96BAF040C8F8275839D
:101B6F00007430120C2AE566B458047F0180027F9E
:101B7F0000AD68123A70AB69AA6AA96BAE040C8EFD
:101B8F0082758300EF120C2AAB69AA6AA96B8C824B
:0A1B9F00758300E4120C2AAF042243
:100FAD008B548A558956E4F55DF55EAB57AA58A961
:100FBD0059AF5DEF3395E08F82F583120BC9FE6457
:100FCD00256041D3E55E6480949E4003AF5E22EEC2
:100FDD007003AF5E22AB57AA58A959AF5D055DEFFF
:100FED003395E08F82F583120BC9FFAB54AA55A937
:100FFD0056AE5E055EEEFD3395E08D82F583EF1204
:10100D000C2A80A7AF5DEF3395E08F82F583A3ABFC
:10101D0057AA58A959120BC9F5636473706BAB5A73
:10102D00E55CF92403F55CE55BFA3400F55B120C25
:10103D00CC8B608A618962055D055DE4F55FAB600F
:10104D00AA61A962AF5FEF3395E08F82F583120B32
:10105D00C97003020FB8C3E55E6480949E4003021D
:10106D000FB8055FEF3395E08F82F583120BC9FF43
:10107D00AB54AA55A956AE5E055EEEFD3395E08DD7
:10108D0082F583EF120C2A80B5E563B4251E055D4C
:10109D00055DAB54AA55A956AF5E055EEF3395E0DD
:1010AD008F82F5837425120C2A020FB8E563B463A1
:1010BD0032055D055DAB5AE55CF92402F55CE55B37
:1010CD00FA3400F55B120CA1FFAB54AA55A956AE2C
:1010DD005E055EEEFD3395E08D82F583EF120C2AF1
:1010ED00020FB8E4F564F55FAF5DEF3395E0FEEF09
:1010FD002401FFE43EFEAD5FED3395E0FCED2FF5F1
:10110D0082EC3EF583AB57AA58A959120BC9F5636A
:10111D00C3648094B0401ED3E563648094B95015C8
:10112D00E56324D0FFE56475F00AA42FF564055F2F
:10113D00E55FB403B3AF5DEF3395E0FEEF2401FF40
:10114D00E43EFEAD5FED3395E0FCEF2DFFEE3CFE92
:10115D00AB57E5592FF9E5583EFA8B60F561896279
:10116D00E55D2402255FF55D120BB0FF249C600F39
:10117D0024EF600B24FD600724206003020FB8AB41
:10118D005A055CE55CAA5B7002055B14F9120BB0A5
:10119D00F565E55EFD3395E0FCE5562DF9E5553C2D
:0511AD00855469F56A9C
:1011B200896BAB65AD64121A4FEF255EF55E020FC7
:0211C200B82251
:103BD400E5151515700215141445146006ED120C44
:043BE4001880ED2236
:103BA900E50F150F7002150E14450E6008120BB0C3
:063BB900120C1880EB2243
:083C8F00C2998F993099FD22C2
:102BDA008B3F8A4089417551007552007553428B6B
:102BEA00578A58895985515A85525B85535C7B01AE
:102BFA007A007998120FADAE070EEFFD3395E0FC1F
:102C0A0074982DF58274003CF583740DF0AF060EAE
:102C1A00EFFD3395E0FC74982DF58274003CF58342
:102C2A00740AF0E4FDC3EE6480F8ED6480985018ED
:102C3A00EDFB3395E0FA74982BF58274003AF5832C
:092C4A00E0FF123C8F0D80DD2239
:10361500123BFB1233D0123C0E123CA9123CA812ED
:103625003C7F787BE6FF5401D3940040F5121FB32D
:10363500787BE6FF120601787BE6FF1224CB787BC8
:0B364500E6FF123461E4787BF680D7CA
:103BFB00758921758851759850758DFF4387807530
:033C0B00A8832269
:093C7600EFD394034002DFFE22AB
:053CA2008F3A8D3B226A
:102AE3007874E6FF7008C2A0D2A1D2A28012EFB41C
:102AF3000108D2A0C2A1D2A28006D2A0D2A1C2A2B2
:102B0300E4FE2082010E2083034306022084034354
:102B13000604208503430608EE602EEFC454F02E0E
:102B2300FE787CE6B50616900097E004F0D394088F
:102B33004029201402D207E4900097F022C214E443
:102B4300900097F0787CA60622787406E6D3940268
:0C2B53004002E4F6C214E4900097F02267
:102C530020101830871030860D787306E6D394035E
:102C63004004E4F6D210C20AC20B22A287308601C6
:102C7300B3503A301025A2869212A212301601B335
:102C830050057871E67002D21CA212921678717602
:102C930003E47873F6C210C20B800F300B0A78710D
:102CA3007603E47873F6C210D20BC20A222087148B
:102CB300208611300A0A78717603E47873F6C2101D
:052CC300D20AC20B2241
:03000B00021EBA18
:101EBA00C0E0C0F0C083C082C0D075D000C000C0EE
:101ECA0007758A60758CFF787606E675F00A84E5F0
:101EDA00F06003021F67122C537876E675F064846B
:101EEA00E5F0703BF6787B7601787206E675F00AC3
:101EFA0084E5F0702A787BE64402F67872E6FF758C
:101F0A00F03284E5F07018787BE64404F6EF75F059
:101F1A006484E5F070097872F6787BE64408F63056
:101F2A00053B90002BE004F0D394134006E4F0C282
:101F3A00A5802A900058E0FF700B90002BE0B401B6
:101F4A0004D2A58018EFB4010B90002BE0B404046E
:101F5A00D2A5800990002BE0B40802D2A57875E6D4
:101F6A00603806E6D3949F40312008247878E6B496
:101F7A00021E787EE66019787AE6FFC39408500E4E
:101F8A00EF5403FFBF0302D21A787A068002D21AEC
:101F9A0078787600C20878757600D007D000D0D05D
:091FAA00D082D083D0F0D0E032E7
:030003000229DEF1
:1029DE00C0E0C0D075D000C000C006C0072008649B
:1029EE00787806E6FFB4020C7875E6D394914054DD
:1029FE00D20880507870E6FEC313F67875E6D3944D
:102A0E001040067870E64480F6EF640A6004EFB476
:102A1E001A077870E618F6802BEFB412127870E66B
:102A2E00B4BF0418E6601D787E7600D2088015EFDC
:102A3E00B422117870E6F418667007D21A787AF616
:102A4E008002D20878757601D007D006D000D0D09B
:032A5E00D0E03293
:03000000023C5768
:0C3C5700787FE4F6D8FD75817E023615FA
:100ABA00E709F608DFFA8046E709F208DFFA803E1E
:100ACA0088828C83E709F0A3DFFA8032E309F6080B
:100ADA00DFFA8078E309F208DFFA807088828C8373
:100AEA00E309F0A3DFFA806489828A83E0A3F60827
:100AFA00DFFA805889828A83E0A3F208DFFA804C01
:100B0A0080D280FA80C680D4806980F280338010D7
:100B1A0080A680EA809A80A880DA80E280CA803340
:100B2A0089828A83ECFAE493A3C8C582C8CCC583B8
:100B3A00CCF0A3C8C582C8CCC583CCDFE9DEE78088
:100B4A000D89828A83E493A3F608DFF9ECFAA9F007
:100B5A00EDFB2289828A83ECFAE0A3C8C582C8CC5D
:100B6A00C583CCF0A3C8C582C8CCC583CCDFEADE76
:100B7A00E880DB89828A83E493A3F208DFF980CCD8
:100B8A0088F0EF60010E4E60C388F0ED2402B404D1
:100B9A000050B9F582EB2402B4040050AF23234578
:060BAA008223900B0A7388
:100BB000BB010689828A83E0225002E722BBFE0243
:090BC000E32289828A83E4932276
:100BC900BB010CE58229F582E5833AF583E02250E1
:100BD90006E92582F8E622BBFE06E92582F8E2222B
:0D0BE900E58229F582E5833AF583E4932245
:100BF600BB010989828A83F8E028F022500327F78F
:100C060022BBFE05F8E328F3228A838982F8E4935F
:020C1600282292
:100C1800BB010689828A83F0225002F722BBFE01BB
:020C2800F322B5
:100C2A00F8BB010DE58229F582E5833AF583E8F000
:100C3A00225006E92582C8F622BBFE05E92582C8AC
:020C4A00F22294
:100C4C00BC000BBE0029EF8DF084FFADF022E4CC8C
:100C5C00F875F008EF2FFFEE33FEEC33FCEE9DEC55
:100C6C00984005FCEE9DFE0FD5F0E9E4CEFD22ED9B
:100C7C00F8F5F0EE8420D21CFEADF075F008EF2FE5
:100C8C00FFED33FD4007985006D5F0F222C398FDD6
:050C9C000FD5F0EA2273
:100CA100BB010A89828A83E0F5F0A3E0225006871E
:100CB100F009E71922BBFE07E3F5F009E3192289E0
:0B0CC100828A83E493F5F07401932213
:100CCC00BB010789828A83020D485005E9F8020DA1
:100CDC003FBBFE05E9F8020D5189828A83020D5A49
:100CEC00D083D082F8E4937012740193700DA3A397
:100CFC0093F8740193F5828883E4737402936860AB
:060D0C00EFA3A3A380DFAA
:100D1200D083D082F8E4937012740193700DA3A370
:100D220093F8740193F5828883E473740293B5F0A7
:0D0D3200067403936860E9A3A3A3A380D80F
:090D3F00E6FB08E6FA08E6F922D9
:090D4800E0FBA3E0FAA3E0F922AC
:090D5100E2FB08E2FA08E2F922D3
:0C0D5A00E493FB740193FA740293F922F5
:00000001FF
