:103A52008F388D39123AEC7FCC123641AF3812369C
:0A3A620041AF39123641123B9822A1
:10393D008F2C8C2D8D2E123AEC7FCC123641AF2C64
:10394D00123641AF2E123641E52DFF123641123B94
:02395D009822AE
:103590008F3D8B3E8A3F8940123AEC7FCC123641F8
:1035A000AF3D123641AB3E0540E540AA3F700205F3
:1035B0003F14F9120BFAFF123641E5421542700230
:0B35C000154114454170DE123B9822BB
:1038C8008F34E4F535123AEC7FCC123641200C14D3
:1038D800AF34123641123AEC7FCD123641D21E1265
:0A38E80036B58F35123B98AF35223C
:103518008F2CE4F52DF52E123AEC7FCC1236412093
:103528000C22AF2C123641123AEC7FCD123641C232
:103538001E1236B5752D008F2ED21E1236B5EFFE2F
:0C354800E4EE422D123B98AE2DAF2E2277
:103184008E388F398B3A8A3B893CD3E5399401E5F3
:103194003894004008E539153970021538C21E12FA
:1031A40036B5AB3A053CE53CAA3B7002053B14F945
:1031B400EF120C62E5391539700215381445387070
:1031C400DCD21E1236B5AB3AAA3BA93CEF120C6214
:0331D400023B9823
:103872008F318B328A338934123AEC7FCC12364143
:10388200AF31123641123AEC7FCD123641AB32AA39
:0B38920033A934AF36AE35123184226A
:1033AD008F308B318A328933123AEC7FCC12364111
:1033BD00AF30123641123AEC7FCD123641C21E1299
:1033CD0036B57536008F37D3E5379535E5369534F7
:1033DD004006853436853537AB31AA32A933AF3740
:0A33ED00AE36123184AE36AF37223F
:103641008F43754408C296E54330E704D295800262
:10365100C295123BF3E54325E0F543D296123BF3C5
:10366100D544E2C296D295120006D29612000630D7
:0A3671009502D20CC2961200062248
:1036B500D295120006753E08D296E53D25E0F53D0A
:1036C500309503433D01123BF3C296123BF3D53EC1
:1036D500E7201E04C2958002D295120006D29612EA
:0736E5000006C296AF3D2272
:103AEC00D295D296120006C20C209502D20CC29529
:063AFC00120006C2962232
:0D3B9800C295120006D296120006D29522A8
:050006007F0ADFFE226D
:013BF30022AF
:1021DD004B434D5F504F5745525F4F4E004B434D54
:1021ED005F524541445F495251204572726F7200F2
:1021FD004B434D5F4952515F504C41595F535441D0
:10220D005445202530327800526573746F726541E4
:10221D002025303278202530327820253032780054
:10222D0053455420004B434D5F564F4C554D455F24
:10223D004354524C202564004B434D5F494E50553D
:10224D00545F534F555243452025303278004B4350
:10225D004D5F4C495354454E5F4D4F4445202530FD
:10226D00327800417070436F6D6D616E6420253062
:10227D00327820253032782025303278000105085B
:10228D000064005E01E803E40C1027001011123009
:10229D003132333420212224000110111213000297
:1022AD00030105070604191817161514131211004A
:0922BD00010203040506070809EB
:083BD000E4900058F0023A37BE
:103A37007D017F05123A527F02123BEE90005974C6
:0B3A470064F07BFF7A2179DD022C5334
:101DD6008F24309403021EEE7F011238C88F25AD82
:101DE600257F03123A52300C097BFF7A2179EA02E9
:101DF6002C53E5255401D394004003121876E525AB
:101E06005402D39400404B7F181238C890004FEF0D
:101E1600F07F1A1238C8900066EFF0900059E07013
:101E2600082015057F07123BEE90004FE070031265
:101E36003B42122E22123BF890004EE0FF640460F3
:101E460004EFB4050D7FA212351890002CEEF0A316
:101E5600EFF0E5255408D3940040031214AFE525AE
:101E66005404D3940040167F2F1238C890002BEFED
:101E7600F090003BE0B438057F38123BEEE5255480
:101E860010D39400400312327CE5255440D39400CD
:101E960040247FA3123518900056EEF0A3EFF04EC3
:101EA600600F90003BE06401600C7F16123BEE80F1
:101EB600057F15123BEEE5255420D39400401D7F87
:101EC600A51238C8900029EFF07BFF7A2179FDF53D
:101ED6003A122C53900029E0FF12367BE5255480F8
:091EE600D39400400312246A2287
:101876007B007A00792A7535007536047F40123868
:1018860072300C05E4FF023BEEE52A540390005843
:10189600F0900068E52CF0A3E52DF0852B28AD2807
:1018A6007F2012275D8F297BFF7A22791585283ABA
:1018B60085293B852B3C122C53E529C39404400F04
:1018C600E529D39408500890004EE52BF080069049
:1018D600004EE529F07F201238C88F287B007A0059
:1018E600792A7535007536027F8112387290008E1E
:1018F600E52BF07F2F1238C890002BEFF0E4F52788
:10190600AD277F0912275D8F29E5292430FF12387C
:10191600C88F28AD287F3012275D74842529F5826B
:10192600E43400F583EFF00527E527C3940840D09B
:101936007F391238C88F28E528540FFD7F391227C2
:101946005D900061EFF0E528C4540FFD7F39122742
:101956005D900062EFF07F241238C88F28AD287F93
:101966002412275D7D507F2E123A527D467F251226
:101976003A527D467F26123A52752A12752B1275F7
:101986002C30752D107B007A00792A75410075423E
:10199600047F801235901222C612239A7BFF7A2288
:1019A600798A75410075420E7F90123590E4900059
:1019B6004FF0900066F0900029F0C201C215C206F1
:1019C60090008CF0FF7E20121CB77F02123BEE9037
:1019D6000059740AF0123BF8122E227FFF12375478
:1019E600900029E0FF12367B900058E0FDE4FF12DC
:0319F60036EC22AA
:102BD8007BFF7A22792D1237B7E4F527AD277F04DA
:102BE80012398112000E7FFF123BC77FFF123BC7CD
:102BF8000527E527C3946440E3752902E4F52A759F
:102C08002B09752C09FB7A007929F5417542047F57
:102C1800401235907D277F2F123A52E4F527E52799
:102C28002430FFE4FD123A520527E527C3940840F3
:102C3800ED7DAB7F24123A527D017F05123A527F17
:0B2C480002123BEE900059741EF022B7
:10246A007B007A0079277534007535087F98123316
:10247A00AD8F2FE52F6402600302252DE52724F88E
:10248A00607624E8602724F5604814605824FD60CB
:10249A000302251B7BFF7A22793285283A122C53B4
:1024AA0090002BE528F07F38123BEE80767BFF7A8E
:1024BA0022794585283A122C53AD287F2012275DB0
:1024CA0090004EEFF0123BE8123BA5E4FF123BEE00
:1024DA0080517BFF7A22795B85283A122C53AF28E8
:1024EA00122ADF803E7BFF7A22795B85283A122CFA
:1024FA0053AF28123817802BA206E433FFE528547D
:10250A0001B5071FE52830E21A90003B7438F080C5
:10251A00127BFF7A227970852F3A85273B85283CE2
:08252A00122C537F010237540B
:102D4100EF24F7601E24E5602824F9600F24FB605E
:102D51001924107059ED90229893FF22ED9022A52D
:102D610093FF22ED9022AB93FF22ED9022B393FFCC
:102D710022E4F53890004AE0D3940040034338013F
:102D8100900048E0D394004003433802900049E0AA
:102D9100FF25E025E0423890004BE0FFC454F042AB
:102DA10038A3E0FFC4333354C04238AF38227F0028
:012DB10022FF
:10275D00E4FEEF24F7603D24E5606324F960202456
:10276D00FB6046241060030227FEEE90229893B57D
:10277D000503AF06220EEEC3940D40EE7F0022EE50
:10278D009022A593B50503AF06220EEEC394064025
:10279D00EE7F0122EE9022AB93B50503AF06220E1C
:1027AD00EEC3940840EE7F0022EE9022B393B50560
:1027BD0003AF06220EEEC3941340EE7F0022ED30E0
:1027CD00E1047F0180027F00900048EFF0ED1313CC
:1027DD005403A3F0ED30E0047F0180027F009000F0
:1027ED004AEFF0EDC45403A3F0EDC413135403A347
:0427FD00F07F002247
:103786008B3A8A3B893CEF6027AB3A053CE53CAA7D
:103796003B7002053B14F9120BFAFEAB3D053FE503
:1037A6003FAA3E7002053E14F9EE120C621F80D647
:0137B60022F0
:102000006752656D6F766554696D65722025303253
:1020100078004D656E7553656C656374412025309D
:102020003278004D4B434D5F507265656D70746939
:10203000626C653A25642025642F256400536F7512
:10204000726365573A253032782825303278292551
:1020500030327828253032782900536F75726365E5
:102060004A3A25303278206C6173743A25303278E0
:10207000004B434D5F5352435F56414C494420450A
:10208000202564202564004B434D5F5352435F5627
:10209000414C49443A2530327825303278204C6121
:1020A00073743A2530327825303278006D494E50BD
:1020B00055545F412025303278004B434D5F5352D9
:1020C000435F56414C4944203D204C6173743A258E
:1020D000303278253032780D0A00000102030020EA
:1020E0000040100040000100020004000405060842
:0320F000090A0BCF
:013BF40022AE
:103722008F2490008CE0602904F0D394C840227F5B
:10373200411238C88F257BFF7A20790085253A12FD
:103742002C53E490003BF0AF25123400E490008C3F
:02375200F02263
:10395F008F32123BA5D219E532600D753330300628
:10396F000AC2064333028003753320AD337F08024A
:02397F003A52BA
:1039A300AD07EDC394FF500E7F09122D41EF441074
:0E39B300FD7F09023A52E4FD7F09123A5222CA
:1030D4008F358D36123BE8E536601674842535F558
:1030E40082E43400F583E0C394125019E004F080C4
:1030F4001474842535F582E43400F583E0D3940018
:103104004003E014F0AD357F09122D418F377484EC
:103114002535F582E43400F583E0FD7F30122D413E
:0A312400AD07E5372430FF023A52F0
:0D3BA500301509C215E4FD7F09123A5222C5
:063BE800300602C20622B5
:0933F700F582E43400F583E0FFE7
:103400008F27900077E0542CF0900076E054F8F08D
:10341000A3E054FBF0123BE8123BA590003BE0FF19
:103420006003B401177BFF7A20791285273A122CAA
:103430005390004EE527F0FDFF122FC07F01023BA5
:01344000EE9D
:103316007BFF7A207923900027E0FF2433F582E4AF
:103326003400F583E0F53A8F3B90003CE0F53C1223
:103336002C5390003CE0601B900027E024331233AE
:10334600F790003CE0FF900027E004F0C39F400B9D
:0C335600E4F02290004EE0FF1234002250
:10301E00E490003BF090005AE0FF601190003DE01C
:10302E00FEC39F500874332E1233F7802090005A3F
:10303E00E0FF90003DE0C39FFFE49400FE74DA2FA2
:10304E00F58274203EF583E493FF12340090005A0B
:10305E00E02404FFE433FE90003DE004F0C39FEE55
:0B306E006480F87480984002E4F022B7
:102FC0008F2C8D2DAD2C7F20122D41AD077F20122F
:102FD0003A52AD2C7F20122D41C007AD2D7F20121B
:102FE0002D418F3DD03B7BFF7A20793D852C3A8562
:102FF0002D3C122C53E52DD394035021AD2D7F2071
:10300000122D41AD077F41123A527F201238C88FEE
:0E3010003B7BFF7A20795A852C3A122C5322F2
:101CB7008E2E8F2FE4F53090008EE0B45311AF30A5
:101CC700053074332FF582E43400F5837407F0E5AB
:101CD7002F452E7003021DACE4F531E53125E024D4
:101CE700DEF582E43420F583E493F532740193F54D
:101CF70033E52E5532FEE52F55334E603DE533640F
:101D0700204532700C90002EE07002A3E070148022
:101D170029E53364404532700A90002EE07002A333
:101D2700E07017E5319020EC93FFAE300530743347
:101D37002EF582E43400F583EFF00531E5316407D1
:101D4700709990005AE06530600BE490003DF09088
:101D5700005AE530F0E4F53190005AE0FFE531C371
:101D67009F501C74332531F582E43400F583E0FE7F
:101D7700C394094006EED3940C4004053180D990F2
:101D8700003CE06531600BE4900027F090003CE5F3
:101D970030F07BFF7A20797190003CE0F53A8F3B79
:101DA700122C53801F90003CE530F0E490005AF06D
:101DB700900027F090003DF090002EF0A3F09000E7
:0F1DC70052F0A3F0900093E52EF0A3E52FF02249
:1014AF007F1C1235188E278F28900093E0FCA3E045
:1014BF00FD65287003EC65277003021682C21D7B41
:1014CF00FF7A207987E527F53B753A00F53C8528AB
:1014DF003DECF53F753E00F5408D41122C53E4F580
:1014EF0029E52925E024DEF582E43420F583E49311
:1014FF00F52A740193F52BE527552AFEE528552B80
:10150F004E70030215C8900093E0552AFEA3E055D4
:10151F002B4E60030215C8D21DE52A7064E52B24FB
:10152F00F9605C24C7602E242070567FA0123518F6
:10153F0090002EEEF0A3EFF04E601174FF90004379
:10154F00F0A3F0FDFC7FA412393D80357F0E123BD6
:10155F00EEC21D802C7FA1123518900052EEF0A321
:10156F00EFF04E601174FF900043F0A3F0FDFC7F8D
:10157F00A412393D800B7F0F123BEEC21D8002C2B9
:10158F001D301D41E5299020EC93FF90004EE0FDAA
:10159F00122FC0E5299020EC9390004EF07BFF7A3C
:1015AF002079ACF53A122C53E490003BF07F0112F6
:1015BF003BEEE490008CF0800C0529E529C39407DD
:1015CF0050030214F0301D0302167BE4F529E529C0
:1015DF0025E024DEF582E43420F583E493F52A74C4
:1015EF000193F52BE527552AFEE528552B4E7070F4
:1015FF00900093E0552AFEA3E0552B4E6062E52B39
:10160F00852AF0120D5C16290020163B0040164D5E
:10161F0010001654400000001659E490002EF0A35D
:10162F00F0FF12367B7F10123BEE801EE4900052CB
:10163F00F0A3F0FF12367B7F11123BEE800C7F126E
:10164F00123BEE80057F13123BEEE5299020EC93C1
:10165F00FF90004EE0B5071490008C7401F0800CE1
:10166F000529E529C3940750030215DDAF28AE27DE
:10167F00021CB77BFF7A2079BAE527F53B753A0054
:09168F00F53C85283D122C532284
:103B79002052455345540001020400011020213010
:013BF50022AD
:100601008F24122B5C900059E0D3940040163001E6
:1006110003020B03E5245402D394005003020B039D
:10062100E014F022300125301A0BC21A7867E6B4C3
:100631005903123A37200703020B03C207D2147879
:1006410072E664186003020B03023A3720070302C3
:1006510006D2C207D2147872E624F8602B24F76020
:100661002214601824FE600D24EC6038241070619F
:1006710012301E805C7F011231D78055E4FF1231A8
:10068100D7804E1238F2804990003BE0FFC3943886
:10069100400DEFD3943F5007E4FF123BEE8032123E
:1006A10039C1802D90003BE0FFC394384006EFD361
:1006B100943A40077F38123BEE801690003BE004ED
:1006C100F0D3943A40037438F090003BE0FF123BC2
:1006D100EE7874E6600C06E6D3943C4005E4F678C7
:1006E10070F6201A03020ADDC21A7867E6120D3687
:1006F1000AD1000AD8030AB504088B0508B1060A15
:10070100BC070A9D080AA20B0A880C08450D083986
:100711000E0A0310086211083F120A0D130A6A1427
:10072100091D160A731707B71807A51908911A09A1
:10073100AB1B0ACA400AC3420AAE440885450AA750
:10074100460A96480A8F4A0A814C07BD4D0A7C4EDB
:1007510007FB510A615409CD550A5856078C5807B1
:100761006A5909895A00000ADDB2013001087F087F
:10077100123BEE020ADD7D017F05123A527F021221
:100781003BEE900059741EF0020ADD90003BE0B48C
:1007910009047F0480027F008F25AD257F09121097
:1007A10032020ADD7BFF7A3B79791237B712000EEC
:1007B100122BD8020ADD123918020ADD90003BE043
:1007C100FFC3942E4012EFD39435500C7874760108
:1007D1007D04121032020ADD90003BE0FFC3942435
:1007E1005003020ADDEFD3942B4003020ADD787433
:1007F10076017D04121032020ADD90003BE0FFC356
:10080100942E4012EFD39435500C787476017D0309
:10081100121032020ADD90003BE0FFC39424500322
:10082100020ADDEFD3942B4003020ADD78747601CE
:0E0831007D03121032020ADD123AA0020ADD27
:10083F00123ABA020ADD7874760190003BE0B438C0
:10084F00047F0480027F008F25AD257F3812103280
:10085F00020ADD300603020ADD7874760190003B50
:10086F00E0B438047F0380027F008F25AD257F38E9
:10087F00121032020ADD123A6C020ADD1239C1027D
:10088F000ADD90003BE0FFC39446400EEFD3945037
:10089F005008E4FF123BEE020ADD7F46123BEE02E8
:1008AF000ADD90003BE0FFC394465003020ADDEFE0
:1008BF00D394504003020ADDE004F0E0B4480C90FA
:1008CF000049E0700690003BE004F090003BE0B47C
:1008DF00490C90004BE0700690003BE004F0900054
:1008EF003BE0B44A0C90004CE0700690003BE004F3
:1008FF00F090003BE0D3945040037446F090003BDF
:10090F00E0FF123BEE9000557432F0020ADD9000CA
:10091F003BE0FFC394465003020ADDEFD3945040EF
:10092F0003020ADDE014F0E0B44A0C90004CE070D2
:10093F000690003BE014F090003BE0B4490C9000AF
:10094F004BE0700690003BE014F090003BE0B448A1
:10095F000C900049E0700690003BE014F090003BD3
:10096F00E0C3944650037450F090003BE0FF123BFD
:10097F00EE9000557432F0020ADD90003BE0FFC3A9
:10098F0094465003020ADDEFD394504003020ADD70
:10099F00787476017D03121032020ADD90003BE07D
:1009AF00FFC394465003020ADDEFD3945040030275
:1009BF000ADD787476017D04121032020ADD900090
:1009CF003BE0FFC3942E4006EFD39435400B123B10
:1009DF00A57F2E123BEE020ADD90003BE024D2FFF2
:1009EF00122DB28F26E526242EFF90003BF0123BEE
:1009FF00EE020ADD7D037FA5123A52020ADD900056
:100A0F004EE0FF64046008EF64056003020ADD90A6
:100A1F000029E05403F526B402137D017FA5123A95
:100A2F0052900029E054FCF04401F080117D027FC8
:100A3F00A5123A52900029E054FCF04402F09000C5
:100A4F0029E0FF12367B020ADD7D047FA6123A529F
:100A5F00807C7D037FA6123A5280737D027FA6129F
:100A6F003A52806A7D017FA6123A5280611238F2A3
:100A7F00805C7F0B123BEE80557F0C123BEE804E5D
:100A8F007F011231D78047E4FF1231D78040123BEC
:100A9F00F6803B12331680367F09123400802F7F89
:100AAF000A12340080287F0B12340080217F0C1231
:100ABF003400801A7F0112340080137F0212340039
:100ACF00800C7F031234008005E4FF123400301CC9
:100ADF0023C21C90003BE0FFC394384012EFD39425
:100AEF003A500C3012047D0480027D030210327FD5
:050AFF0038123BEE225D
:1039C100B2063006047F0480027F03AD077F0A122E
:0E39D10010322006057F38123BEE123BA52275
:103A6C00B21530150A7F24123BEEE4FF0239A3E4B1
:0A3A7C00FF123BEE7FFF1239A32278
:013BF60022AC
:102B5C00786CE6FF7008C2A0D2A1D2A28012EFB4AA
:102B6C000108D2A0C2A1D2A28006D2A0D2A1C2A238
:102B7C00E4FE2082010E20830343060220840343DB
:102B8C000604208503430608EE602EEFC454F02E95
:102B9C00FE7872E6B50616900096E004F0D3940821
:102BAC004029201402D207E4900096F022C214E4CB
:102BBC00900096F07872A60622786C06E6D3940202
:0C2BCC004002E4F6C214E4900096F022EF
:102CCC0020101830871030860D786B06E6D39403ED
:102CDC004004E4F6D210C20AC20B22A2873086014D
:102CEC00B3503A301025A2869212A212301601B3BC
:102CFC0050057869E67002D21CA212921678697699
:102D0C0003E4786BF6C210C20B800F300B0A7869A3
:102D1C007603E4786BF6C210D20BC20A2220871419
:102D2C00208611300A0A78697603E4786BF6C210B3
:052D3C00D20AC20B22C7
:1031D7008F277F2B1238C88F2890003BE06403703D
:1031E7003D12389D8F29E527600EE52970047F0180
:1031F70080027F008F298018E529C3940250057546
:103207002902800C0529E529D39405400375290275
:10321700E529903B8393F528FD7F2B123A52AF287F
:03322700022ADF99
:101698004B434D2D4E4F00202D4F46462D002048E0
:1016A800454C4C4F004D5554452020004D55544550
:1016B8002D2D00564F4C20202000564F4C20004E18
:1016C8004F4953452000465253502000434553503C
:1016D8002000535753502000535253502000424B80
:1016E800535020004C504620004C4950530046525D
:1016F800444C20004345444C20005357444C2000A0
:10170800424B444C2000536F757263653A20253074
:1017180032782025303278002020202020200050E8
:10172800434D00322F34004E49472D4F4E004E494D
:10173800472D4F46004D5033002020004657444F58
:101748004E4500465720457272004657202D0046E8
:101758004C547443455474535754744652547453F8
:1017680052547442525474424C5474534C5474003E
:10177800464C5472434554725357547246525472ED
:101788005352547242525472424C5472534C5472D3
:10179800004155582D494E4F5054494341434F41FC
:1017A8002D4431434F412D4432202D53442D2020C8
:1017B8002D5553422D202D50432D20204538434888
:1017C800202D42542D202048444D492D3148444D68
:1017D800492D3248444D492D3348444D492D410047
:1017E80020204849464920322B3143484D4F444533
:1017F800202000322F30312F30322F30332F30322B
:101808002F31332F31322F32332F32332F33332FBF
:1018180034322F33322F340053442D494E2055444F
:101828002D494E2053442D4F555455442D4F555452
:1018380050432D4F555442542D4F555448442D4F25
:1018480055540033324B34384B35364B36344B38DD
:10185800304B39364B31313231323831363031391B
:0E1868003232323432353633323033383400D7
:103B6800E4FDFF1236ECE4FF123A1AE4900030F05C
:013B7800222A
:1025F5008F24300F05C20F12000EE5245402D39428
:102605000050030226B5900030E0601514F0700705
:102615007F01123754800A900030E05401FF1237D1
:1026250054900059E0D3940040030226B530060BC0
:10263500900055E070057F0A123BEE20015890008E
:1026450055E0605214F07024201506FF123BEE8011
:102655004590003BE024DCFF122DB28F25E52524B3
:1026650024FF123BEEAF251239A3802A30002790B4
:102675000055E0FF75F00584E5F0701AEF75F0057B
:1026850084F52590003BE0FFE52530E0047D0280E0
:10269500027D011210322001172006142015113079
:1026A500050E90004FE0540FC3940040031230799B
:0126B5002202
:053BEE00E4FD021032AD
:093BBE009000557414F0C20022BD
:083BD80090003BEFF0023BBE40
:101032008F308D31E5317003123BBEC205C2A5125D
:101042003A86900076E0540FF0E530120D3610F338
:1010520000112401113602117A06118607112A089D
:10106200114B0911B10A118C0B11920C11980E112E
:10107200980F119810119811119812119813119834
:101082001411A31511A916125A24125A25125A26FE
:10109200125A27125A28125A29125A2A125A2B1253
:1010A200632E12632F1263301263311263321263A2
:1010B20033126334126335120D38126F39126F3ADC
:1010C200126F3B126F3C126F3D126F3E126F3F1256
:1010D200874612874712874812874912874A127B2E
:1010E2004B127B4C127B4D127B4E127B4F00001237
:1010F20091200C1790004EE0FF64046004EFB405E9
:1011020005122532800E12344180097BFF7A16794E
:10111200981237B7E490003BF0900055F0D20502E8
:1011220012911234410212917BFF7A16799F123783
:10113200B70212917BFF7A1679A61237B712000E08
:10114200900055740AF0021291E531B4041D90002A
:10115200557414F0900058E004F0D394024002E475
:10116200F0900058E0FD7F40123A52900058E0FDA6
:101172007F011236EC0212919000557432F0123B4C
:10118200F70212911226B60212911235CB02129177
:101192001234D4021291E53024F2FF123AD4021230
:1011A2009112312E021291122532D205021291E5CC
:1011B200316003B404089000557450F0D200E53158
:1011C200C394024005E531B4040B7BFF7A1679AD76
:1011D2001237B7800EE531B402097BFF7A1679B473
:1011E2001237B7E531B4040A7D037F08123A52027E
:0211F200129158
:1011F400E531640360030212919000557414F07D8C
:10120400027F08123A52021291E531C39403401549
:1012140090003BE0B4380EE531B404047F01800251
:101224007F0012395FE531B4020B7BFF7A1679BB7C
:101234001237B780587BFF7A1679C21237B79000FD
:101244002BE0FD7F04123981E53170419000557423
:1012540050F0D2008037AD31AF30122EF9802E120B
:101264003BA5AD31AF301229378022123BA5AD31F9
:10127400AF301229CF8016123BA5AD31AF30121911
:10128400F9800A123BA5AD31AF301220F390003B38
:04129400E530F0222F
:1034D4007F091238C88F3230151390003BE0B40CCA
:1034E4000C0532E532D394074003E4F532AD327F64
:1034F40009123A527BFF7A1679C71237B7E532249C
:1035040031FD7F05120DB8301509E4900031F0FF4C
:043514001239A322A3
:102DB200EFB407005067902DBFF8282873022DD476
:102DC200022DE9022DF5022DF8022E0D022E190216
:102DD2002E1C900049E060037F012290004AE060CF
:102DE200037F02227F032290004AE060037F0222D7
:102DF2007F03227F032290004BE060037F04229036
:102E0200004CE060037F05227F002290004CE060CE
:102E1200037F05227F00227F06227F07227F002276
:102EF9008F328D33E533C39403401E90003BE0B518
:102F0900321724DCFFE533B404047D0180027D001F
:102F19001230D49000557450F074DC2532F53275B6
:102F2900F004A42457F9741735F0FA7BFF1237B768
:102F3900E533B4020E7D207F04120DB87D207F0594
:102F4900020DB874842532F582E43400F583E0FF7C
:062F5900123845D20022EF
:102937008F328D33E533C39403401E90003BE0B5DF
:10294700321724D2FFE533B404047D0180027D00F1
:102957001230D49000557450F074D22532F5327588
:10296700F004A42478F9741735F0FA7BFF1237B70F
:10297700E533B4020E7D207F04120DB87D207F055C
:10298700020DB874842532F582E43400F583E0F54E
:1029970034C3940950147D2D7F04120DB8C37439C4
:1029A7009534FD7F05120DB880117D207F04120D2F
:1029B700B8E5342427FD7F05120DB8E5337008907C
:0829C70000557450F0D200220B
:1019F9008F328D33900076E04450F0A3E0F09000F0
:101A0900557450F07D207F04120DB87D207F05129A
:101A19000DB8E53224B46056147003021AAE14707E
:101A290003021AE5147003021B1C147003021B53F2
:101A390024056003021B5C7BFF7A1679CE1237B747
:101A4900E533C39403401B900048E004F0D39401AC
:101A59004002E4F0E4FD7F24122D41AD077F2412FA
:101A69003A52E4FF123554AD077F05020DB87BFFEA
:101A79007A1679D41237B7E533C39403401B900023
:101A890049E004F0D394024002E4F0E4FD7F24121B
:101A99002D41AD077F24123A527F01123554AD070B
:101AA9007F05020DB87BFF7A1679DA1237B7E5336D
:101AB900C39403401B90004AE004F0D39401400210
:101AC900E4F0E4FD7F24122D41AD077F24123A5240
:101AD9007F02123554AD077F05020DB87BFF7A16D8
:101AE90079E01237B7E533C39403401B90004BE00C
:101AF90004F0D394024002E4F0E4FD7F24122D4166
:101B0900AD077F24123A527F03123554AD077F0582
:101B1900020DB87BFF7A1679E61237B7E533C3941D
:101B290003401B90004CE004F0D394024002E4F01F
:101B3900E4FD7F24122D41AD077F24123A527F0420
:101B4900123554AD077F05020DB87BFF7A1679EC83
:041B59001237B72266
:1020F3008F328D33E53224B9603A14605A14607A12
:102103001470030221A0240460030221C19000760D
:10211300E04440F0A3E0F07BFF7A1679F11237B781
:10212300E533C3940350030221C1AD33E4FF122E00
:102133008F0221C17BFF7A1679F61237B7900076AA
:10214300E04450F0A3E0F0E533C394034070AD33B3
:102153007F01122E8F80677BFF7A1679FC1237B7C7
:10216300900076E04450F0A3E0F0E533C3940340DD
:102173004DAD337F02122E8F80447BFF7A17790295
:102183001237B7900076E04450F0A3E0F0E533C394
:102193009403402AAD337F03122E8F80217BFF7A75
:1021A3001779081237B7900076E04450F0A3E0F0B7
:1021B300E533C394034007AD337F04122E8F9000A1
:1021C300557432F074F82532F582E434FFF583E078
:0A21D30075F005A4FD7F04023981B8
:1034410090004EE0FFC39404400FEFD3940850095D
:10345100900077E04420F08007900077E054DFF09F
:103461007BFF7A17790E8F3A900076E0F53BA3E067
:10347100F53C122C5390004EE075F006A42499F906
:0A348100741735F0FA7BFF0237B72D
:013BF70022AB
:10389D00AE07EE543024F0601224F0601124207035
:1038AD0017EE30E0037F01227F00227F0222EE30EF
:0B38BD00E0037F04227F03227F05222E
:102ADF008F3012389D8F31900077E0542CF0E53114
:102AEF00C39402501BEF75F006A424E8F974173550
:102AFF00F0FA7BFF1237B7900077E04401F0804582
:102B0F007BFF7A1779F41237B7E531242FFD7F0554
:102B1F00120DB8E53024FD601314601914601F24E2
:102B2F00037022900077E04402F08019900077E064
:102B3F004480F08010900077E04440F080079000D0
:0D2B4F0077E04410F0123BBE7F03023BD83C
:1026B60090004FE0FF540FC394025003022759E4E1
:1026C600F536EFC4540F75F003A4F5327BFF7A1785
:1026D60079201237B7122E2290004FE0540F24FDB6
:1026E600602414604314604024FE605E24F7601684
:1026F60014601324FD24FD502F241570597BFF7A96
:102706001779270237B774FB2532F9E43417FA7BB9
:10271600FF753D00753E00753F337F031237867B9C
:10272600007A0079330237B774FB2532F9E434179F
:10273600FA7BFF753D00753E00753F337F03123708
:10274600867B007A0079330237B77BFF7A17792BBD
:072756000237B712344122E3
:10355400AE07EE700C900048E060037F4C227F536E
:1035640022BE020C90004AE060037F59227F4E2263
:1035740074482EF582E43400F583E0FDB402037F41
:0C3584004C22EDB401037F53227F4E2245
:1035CB007F231238C88F3290003BE0B40B16E532E4
:1035DB00C3943250057532328003E4F532AD327F3D
:1035EB0023123A52E53260097BFF7A17792F0237A3
:0B35FB00B77BFF7A1779361237B72232
:103AD4009000557432F0EF75F006A42420F97418A0
:083AE40035F0FA7BFF0237B751
:10312E009000557414F0900076E054BFF07BFF7A57
:10313E001779201237B7900044E02401FD90004328
:10314E00E03400FCE4FF12289E8F3905397D2F12E2
:10315E000DB890004EE0B4040D90002EE0FEA3E0FA
:10316E00FFAC06FD800B900052E0FEA3E0FFAC0624
:06317E00FDAF3902289E9E
:10253200C3900057E09403900056E09400500302C9
:10254200312EC3900057E09405900056E09400505D
:1025520064900066E0FF131313541FF53290004F8E
:10256200E0540F640A704E9000557414F0E532D3B3
:1025720094004041E5329410503B753D00753E0099
:10258200753F337BFF7A17793D7F03123786E53239
:1025920075F003A42448F9741835F0FA7BFF753DF1
:1025A20000753E00753F367F031237867B007A0046
:1025B20079330237B77BFF7A1779411237B7900028
:1025C20056E0FEA3E0FF7C007D3C120C96AD077F37
:1025D20002123981900056E0FEA3E0FF7C007D3CB0
:1025E200120C967F04123981900076E04440F0A3E9
:0325F200E0F022F4
:102E8F00EF70047C0180027C00EC1460111460125E
:102E9F00146013146014240470127E13800E7E09C4
:102EAF00800A7E0980067E0980027E09BD04247493
:102EBF003E2FF582E43400F583E0D39E4002EEF01E
:102ECF00743E2FF582E43400F583E0C39E501AE080
:102EDF0004F022BD0313743E2FF582E43400F58312
:0A2EEF00E0D394004003E014F02249
:10327C007B007A0079277535007536027F8112380C
:10328C0072E527B4640B7BFF7A1779441237B78049
:10329C0020E527B4680B7BFF7A17794B1237B78080
:1032AC00107BFF7A1779521237B7AD277F0412398A
:0D32BC00817F0D123BD8900055743CF0222C
:103845008F35E535C3940950127D2D7F04120DB8CF
:10385500C374399535FD7F05020DB87D207F0412AF
:0D3865000DB8E5352427FD7F05120DB822B2
:1039FD00EF600C120BFAC39D50127401020C4012B1
:0D3A0D000BFAD39400400574FF120C402208
:102F5F004252494748000002070000243F00060084
:102F6F00DB00CF00E600ED00FD000700FF00EF00E3
:102F7F00F7128F0039120F00F900F100BD00F612A1
:102F8F0009001E0C70003805360936003F00F308A3
:102F9F003F08F300ED1201003E243028362D0000CB
:102FAF00EE240900C0240012C00010181C1C1E1EA5
:012FBF001FF2
:10348B00C2A5C2937F01123BC77F40123B027F0153
:10349B00123BC7D2937F01123BC7C2937F01123BF2
:1034AB00C77FC0123B027F01123BC7E4F524E4FF48
:1034BB00123B027F01123BC70524E524C394104045
:0934CB00ED7F0A123BC7D29322E7
:1036EC008D32EFD3940040137BFF7A2F795F123722
:1036FC00B7E5322431FD7F05120DB8C2937F01125C
:10370C003BC7E532902F65934488FF123B027F0143
:06371C00123BC7D293220C
:013BF80022AA
:102E2200900076E054F8F0A3E054FBF090004FE0FD
:102E3200540F24FD603514603B14603824FE60405A
:102E420024F7602714602424FD24FD5027241570E4
:102E52003990008EE0FF64536030EF6456602B902F
:102E62000076E04404F0A3E0F0801F900077E04495
:102E720004F08016900076E04401F0A3E0F0800AAE
:0D2E8200900076E04404F0A3E0F0D20F22AF
:10367B00EF5403FE900079E054F0F0BE0106E044F5
:10368B0008F0800ABF0207900079E04404F0EF5481
:10369B00C0FE6013BEC009900079E04401F08007C2
:0A36AB00900079E04402F0D20F22F3
:103754008F30E530B4FF117F1F1238C8EF30E70413
:103764007F0180027F008F30E530600C900076E0AE
:103774004408F0A3E0F08007900076E054F7F0D21C
:023784000F2212
:1037B7008B3A8A3B893CE4F53EAB3A053CE53CAAAB
:1037C7003B7002053B14F9120BFAF53D6012AD3D53
:1037D700AF3E120DB8053EC3E53E6480948640D9DE
:0137E70022BF
:10289E008F3A8C3B8D3CAE3BAF3C7C277D10120CAF
:1028AE0096EF4E6012120DB0AE3BAF3C7C277D1002
:1028BE00120C968C3B8D3CAE3BAF3C7C037DE812FC
:1028CE000C96EF4E6012120DB0AE3BAF3C7C037D0A
:1028DE00E8120C968C3B8D3CAE3BAF3C7C007D648D
:1028EE00120C96EF4E6012120DB0AE3BAF3C7C0058
:1028FE007D64120C968C3B8D3CAE3BAF3C7C007DD8
:10290E000A120C96EF4E6012120DB0AE3BAF3C7C2D
:10291E00007D0A120C968C3B8D3CAF3A053AE53C95
:09292E002430FD120DB8AF3A226D
:103981008F398D3AE53A75F00A842430FD120DB86D
:10399100E53904FFE53A75F00A84E5F02430FD02CB
:0239A1000DB85F
:080DB000EF2430FDAF3A053AD3
:100DB8008F3F8D40E53FC394034003020E83E54017
:100DC800C394304012E540D39439500B74D0254079
:100DD800F54004F541804CE540C39461400FE5407F
:100DE800D3947A5008E54024AAF5418036E540C3FB
:100DF8009441400FE540D3945A5008E54024CAF581
:100E0800418020E54024D5601224FC60092402704A
:100E18000F754125800D754126800875412780038F
:100E2800E4F541E54125E02468F582E4342FF583B3
:100E3800E493FEE53F25E0246AF582E43400F58377
:100E4800EEF0A3E4F0E53F25E0246AF582E43400FF
:100E5800F583C083C082E0FEA3E0FFE54125E024DE
:100E680069F582E4342FF583E493FDEEEF4DFFD06E
:100E780082D083EEF0A3EFF002102FE53FC3940673
:100E88004003020FB9E540C394304066E540D3946F
:100E980039505F74D02540F54004F54125E02468B9
:100EA800F582E4342FF583E493FEE53F25E0246AD8
:100EB800F582E43400F583EEF0A3E4F0E53F25E0A5
:100EC800246AF582E43400F583C083C082E0FEA37F
:100ED800E0FFE54125E02469F582E4342FF583E459
:100EE80093FDEEEF4DFFD082D083EEF0A3EFF0023A
:100EF800102FE540120D360F422D0F47410F4C427F
:100F08000F51430F56440F5B450F60460F65470F5F
:100F18006F480F6A490F744C0F794E0F7E4F0F833D
:100F2800500F88520F8D530F92540F97550F9C599D
:100F38000F88720F927400000FA17540C0805D7514
:100F480040F7805875407C8053754039804E754015
:100F5800DE80497540F980447540F1803F7540EF67
:100F6800803A75400680357540F680307540388087
:100F78002B754037802675403F80217540F3801CD3
:100F880075405080177540ED80127540F8800D75DA
:100F9800403E800875406E8003E4F540E53F25E05B
:100FA800246AF582E43400F583E4F0A3E540F08098
:100FB80076E53FD39406401AE53F940D5014E5407A
:100FC800C39401400DE540D394055006E54024261E
:100FD800F541E54125E02468F582E4342FF583E402
:100FE80093FEE53F25E0246AF582E43400F583EEBC
:100FF800F0A3E4F0E53F25E0246AF582E43400F547
:1010080083C083C082E0FEA3E0FFE54125E02469B8
:10101800F582E4342FF583E493FDEEEF4DFFD082A3
:0A102800D083EEF0A3EFF0D20F2208
:103A8600E4FFEF25E0247AF582E43400F583E4F0E0
:0A3A9600A3F00FEFC3940540E922EE
:063B8900131313541FFF8B
:093B8F00EF5407902FB893FF22B8
:103079007B007A0079277535007536037F91123800
:1030890072300C03023A86AF27123B8F90007AE424
:10309900F0A3EFF0E527123B8990007CE4F0A3EF61
:1030A900F0AF28123B8F90007EE4F0A3EFF0E52803
:1030B900123B89900080E4F0A3EFF0AF29123B8F17
:0B30C900900082E4F0A3EFF0D20F2291
:103B4200E4FFE490007AF0A3F00FEFC3940540F293
:033B5200D20F226D
:103A1A00E4FEEFFDEE25E0246AF582E43400F58346
:0D3A2A00E4F0A3EDF00EEEC3940D40E62293
:10000E00E4FF74062FF582E43400F583E4F00FEF7D
:10001E00C3941040ED90006AE0FEA3E0FF30E007CD
:10002E00900014E04408F0EF30E10790000DE0443A
:10003E0008F0EF30E207900006E04408F090006B05
:10004E00E030E307900009E04408F090006AE0FE1B
:10005E00A3E0FF30E407900011E04408F0EF30E534
:10006E0007900015E04408F0EF30E60790000FE02F
:10007E004408F090006BE030E70790000CE0440875
:10008E00F090006AE0FEA3E0FFEE30E00790001370
:10009E00E04408F0EE30E107900012E04408F0EE84
:1000AE0030E20790000BE04408F090006AE0A330C5
:1000BE00E307900007E04408F090006AE0FEA3E03A
:1000CE00FFEE30E407900008E04408F0EE30E5075C
:1000DE0090000EE04408F090006CE0FEA3E0FF30CC
:1000EE00E007900014E04420F0EF30E10790000D9F
:1000FE00E04420F0EF30E207900006E04420F0905C
:10010E00006DE030E307900009E04420F090006CB1
:10011E00E0FEA3E0FF30E407900011E04420F0EF92
:10012E0030E507900015E04420F0EF30E607900030
:10013E000FE04420F090006DE030E70790000CE0F7
:10014E004420F090006CE0FEA3E0FFEE30E007905C
:10015E000013E04420F0EE30E107900012E044205E
:10016E00F0EE30E20790000BE04420F090006CE0DF
:10017E00A330E307900007E04420F090006CE0FE0F
:10018E00A3E0FFEE30E407900008E04420F0EE30EC
:10019E00E50790000EE04420F090006EE0FEA3E034
:1001AE00FF30E007900014E04410F0EF30E10790CC
:1001BE00000DE04410F0EF30E207900006E044102E
:1001CE00F090006FE030E307900009E04410F090EB
:1001DE00006EE0FEA3E0FF30E407900011E0441053
:1001EE00F0EF30E507900015E04410F0EF30E60731
:1001FE0090000FE04410F090006FE030E7079000A1
:10020E000CE04410F090006EE0FEA3E0FFEE30E054
:10021E0007900013E04410F0EE30E107900012E07A
:10022E004410F0EE30E20790000BE04410F0900026
:10023E006EE0A330E307900007E04410F090006EEC
:10024E00E0FEA3E0FFEE30E407900008E04410F07B
:10025E00EE30E50790000EE04410F0900070E0FEE6
:10026E00A3E0FF30E007900014E04404F0EF30E12B
:10027E000790000DE04404F0EF30E207900006E036
:10028E004404F0900071E030E307900009E044046C
:10029E00F0900070E0FEA3E0FF30E407900011E064
:1002AE004404F0EF30E507900015E04404F0EF3021
:1002BE00E60790000FE04404F0900072E0FEA3E029
:1002CE00FF30E007900014E04480F0EF30E107903B
:1002DE00000DE04480F0EF30E207900006E044802D
:1002EE00F0900073E030E307900009E04480F09056
:1002FE000072E0FEA3E0FF30E407900011E04480BE
:10030E00F0EF30E507900015E04480F0EF30E6079F
:10031E0090000FE04480F0900074E0FEA3E0FF3008
:10032E00E007900014E04402F0EF30E10790000D7A
:10033E00E04402F0EF30E207900006E04402F09055
:10034E000075E030E307900009E04402F09000747D
:10035E00E0FEA3E0FF30E407900011E04402F0EF6E
:10036E0030E507900015E04402F0EF30E60790000C
:10037E000FE04402F0900076E0FEA3E0FF30E007CD
:10038E00900014E04401F0EF30E10790000DE044DE
:10039E0001F0EF30E207900006E04401F0900077A4
:1003AE00E030E307900009E04401F0900076E0FEB3
:1003BE00A3E0FF30E407900011E04401F0EF30E5D8
:1003CE0007900015E04401F0EF30E60790000FE0D3
:1003DE004401F0900077E030E70790000CE0440114
:0403EE00F090007615
:1003F200E0FEA3E0FFEE30E007900013E04401F0DE
:10040200EE30E107900012E04401F0EE30E2079096
:10041200000BE04401F0900076E0A330E307900087
:1004220007E04401F0900076E0FEA3E0FFEE30E446
:1004320007900010E04420F0EE30E507900010E055
:100442004410F0EE30E607900010E04404F0900013
:1004520078E0FEA3E0FF30E00790000BE04404F0F8
:10046200EF30E107900012E04404F0EF30E2079031
:100472000013E04404F0900079E030E30790000CB0
:10048200E04404F090007AE0FEA3E0FF30E0079041
:100492000007E04480F0EF30E10790000BE0448079
:1004A200F0EF30E207900012E04480F090007BE031
:1004B20030E307900013E04480F090007BE030E4EA
:1004C2000790000CE04480F090007CE0FEA3E0FF87
:1004D20030E00790000BE04402F0EF30E1079000BB
:1004E20012E04402F0EF30E207900013E04402F021
:1004F20090007DE030E30790000CE04402F09000B1
:100502007EE0FEA3E0FF30E007900011E04440F0FF
:10051200EF30E107900009E04440F0EF30E207904D
:100522000006E04440F090007FE030E30790000DC9
:10053200E04440F090007FE030E407900014E04493
:1005420040F0900080E0FEA3E0FF30E0079000134F
:10055200E04440F0EF30E10790000CE04440F0EF5F
:1005620030E20790000FE04440F0900081E030E379
:1005720007900015E04440F0900082E0FEA3E0FF07
:1005820030E00790000EE04440F0EF30E1079000C9
:1005920008E04440F0EF30E207900007E04440F00A
:1005A200900083E030E30790000BE04440F09000BD
:1005B20083E030E407900012E04440F0C2937F01F0
:1005C200123BC77F40123B027F01123BC7D2937F8F
:1005D20001123BC7C2937F01123BC77FC0123B028D
:1005E200E4F53274062532F582E43400F583E0FF47
:0F05F200123B020532E532C3941040E7D2932248
:103B02007E08C290EF139291EFC313FFD2901EEE84
:063B1200D3940050ED22E7
:10322A000305C2689F062431527500080582030609
:10323A00000F828C050F008C020A858800058384A2
:10324A000B0D0020464C41542020455120202000DF
:10325A000999FF9F004D4943314D4943324543483F
:10326A004F5245505444454C594D4241534D545286
:02327A0045000D
:1022C600E4F52F78317C007D007BFF7A32792A7E17
:1022D600007F05120BD4E52F04F5307B007A0079D8
:1022E600307541007542067F8B123590752E01E4DC
:1022F600FFE52F75F006A42435F582E43432F58324
:10230600E5822FF582E43583F583E493FEE52F75A8
:10231600F006A42436F582E43432F583E5822FF5FF
:1023260082E43583F583E493FDEF90322F93547F57
:10233600FCEE54804CFC7430252EF8A604EFA393D3
:10234600547FFCED54804CFC7431252EF8A604ED28
:10235600540FFCC454F0FCEE540F4CFC7432252E82
:10236600F8A6047403252EF52E0F0FEFC39406402E
:1023760080E52F04F5307B007A00793075410085C1
:102386002E427F8C123590052FE52FC39403500300
:042396000222C92234
:1038F2007F2C1238C88F2790003BE0B405130527B0
:10390200E527D394034003E4F527AD277F2C123A31
:0639120052AF2702381736
:103817008F30E53060067E007F0680047E007F00E3
:10382700744D2FF974323EFA7BFF1237B7E53060DB
:0E383700082430FD7F04120DB87F05023BD837
:10239A00900068E0D3941240037409F0900069E059
:1023AA00D3941240037409F07F391238C88F2EE58E
:1023BA002ED394004003D38001C3920EE52EC45459
:1023CA000F900061F0E52E540FA3F0900061E0D366
:1023DA00940940037402F0900062E0D39409400328
:1023EA007402F01233627F3A1238C88F2EE52E54E7
:1023FA000F900063F0D3940940037402F07F3B12FC
:10240A0038C88F2EE52EC4540F900065F0D3940976
:10241A0040037402F0E52E540F900064F0D394093F
:10242A0040037402F07BFF7A32795A754100754293
:10243A00057F8D123590752F0478307C007D007BE6
:10244A00FF7A32792A7E007F05120BD47B007A004C
:10245A00792F7541007542067F8B1235900232C979
:1039180090003BE0C3943950057F39023BEE90009C
:103928003BE004F0D3943F40037439F090003BE04F
:05393800FF123BEE222E
:103AA00090003BE0FFC39439400FEFD3943F50099F
:0A3AB000787476017D0412103222B2
:103ABA0090003BE0FFC39439400FEFD3943F500985
:0A3ACA00787476017D031210322299
:1029CF008F328D33E533C39403401D90003BE0B548
:1029DF003216E533B404047D0180027D00AF32125C
:1029EF0028019000557450F0E53224C7F53475F086
:1029FF0004A4245FF9743235F0FA7BFF1237B77DE8
:102A0F00207F04120DB8E533B402077D207F050245
:102A1F000DB8E532C3943E501674612534F582E447
:102A2F003400F583E02430FD7F05120DB88010745B
:102A3F002A2532F582E43400F583E0FF123845E5AC
:0C2A4F003370089000557450F0D2002243
:1037E800AB07EBC394095015430580EBFFC374097D
:1037F8009FFFE49400EFFEE4EE4204800DEB24F713
:0F380800FFE434FFEFFEE4EE4204AE04AF05220E
:102801008F358D36123BE8E535C3943E5060742810
:102811002535F9E43400FA7B017D09AF361239FD23
:10282100E53524C6600D14601F14602E14602B243E
:10283100047069900061E0FFC454F0FFA3E04FFD14
:102841007F39123A520233627F08EFC454F0FF908D
:102851000063E04FFD7F3A023A52900065E0FFC409
:1028610054F0FF900064E04FFD7F3B023A52742A1E
:102871002535F9E43400FA7B017D12AF361239FDBA
:102881001232C9E535B43E0A900068E0FD7F42028C
:0D2891003A52900069E0FD7F43123A522256
:1032C900900068E0FF7D237C001237E88E3B8F3C3D
:1032D900A3E0FF7D677C001237E8753704E53CF50C
:1032E90038AD07EDF539EEC4F854F0C868EFC454A9
:1032F9000F4854F0FDE53B540F4DF53A7B007A0039
:0D33090079377541007542047F8C023590C4
:10336200900061E0C39407500EA3E0C39407500796
:103372007D887F38023A52900062E0FF900061E05F
:10338200FED39F4004AF0680008F37E537B40707AE
:103392007DA67F38023A52E537B408077DC47F38EC
:0B33A200023A527DE27F38123A5222BC
:1039DF00AE0753050FEDC3940A5006ED2430FFFDDB
:0E39EF0022EE6005ED2457FF22ED2437FF2263
:101B5D008F5E8D5F8B60E55F701FE560701BAB6105
:101B6D00AA62A9637430120C62AB61AA62A9639078
:101B7D000001E4120C747F0122E4F564FCE55E645F
:101B8D00646009E55E64756003021C39E56075F0FB
:101B9D006484F565601AFDE4FF1239DFAB61AA625A
:101BAD00A963AE040C8E82758300EF120C7480183D
:101BBD00E55FB40313AB61AA62A963AF040C8F8216
:101BCD007583007430120C74E56075F0648485F0D3
:101BDD0065E56575F00A84FD6019E4FF1239DFAB28
:101BED0061AA62A963AE040C8E82758300EF120C9C
:101BFD00748018E55FB40213AB61AA62A963AF04E8
:101C0D000C8F827583007430120C74E56575F00AC3
:101C1D0084ADF0E4FF1239DFAB61AA62A963AE04B3
:101C2D000C8E82758300EF120C74806CE56054F09D
:101C3D006028E55EB458047F0180027F00E560C432
:101C4D00540FFD1239DFAB61AA62A963AE040C8E8D
:101C5D0082758300EF120C74801CC3E55F64809461
:101C6D00824013AB61AA62A963AF040C8F827583A6
:101C7D00007430120C74E55EB458047F0180027F4D
:101C8D0000AD601239DFAB61AA62A963AE040C8EA0
:101C9D0082758300EF120C74AB61AA62A9638C820A
:0A1CAD00758300E4120C74AF0422EA
:101298008B4C8A4D894EE4F555F556AB4FAA50A9AB
:1012A80051AF55EF3395E08F82F583120C13FE642E
:1012B800256041D3E5566480949E4003AF5622EEE4
:1012C8007003AF5622AB4FAA50A951AF550555EF41
:1012D8003395E08F82F583120C13FFAB4CAA4DA90E
:1012E8004EAE560556EEFD3395E08D82F583EF122E
:1012F8000C7480A7AF55EF3395E08F82F583A3ABCD
:101308004FAA50A951120C13F55B6473706BAB5262
:10131800E554F92403F554E553FA3400F553120D56
:10132800168B588A59895A05550555E4F557AB580F
:10133800AA59A95AAF57EF3395E08F82F583120C5B
:101348001370030212A3C3E5566480949E400302FF
:1013580012A30557EF3395E08F82F583120C13FF24
:10136800AB4CAA4DA94EAE560556EEFD3395E08D11
:1013780082F583EF120C7480B5E55BB4251E055524
:101388000555AB4CAA4DA94EAF560556EF3395E01F
:101398008F82F5837425120C740212A3E55BB46383
:1013A8003205550555AB52E554F92402F554E55379
:1013B800FA3400F553120CEBFFAB4CAA4DA94EAE14
:1013C800560556EEFD3395E08D82F583EF120C74C9
:1013D8000212A3E4F55CF557AF55EF3395E0FEEF45
:1013E8002401FFE43EFEAD57ED3395E0FCED2FF50B
:1013F80082EC3EF583AB4FAA50A951120C13F55B52
:10140800C3648094B0401ED3E55B648094B95015E2
:10141800E55B24D0FFE55C75F00AA42FF55C055761
:10142800E557B403B3AF55EF3395E0FEEF2401FF62
:10143800E43EFEAD57ED3395E0FCEF2DFFEE3CFEAC
:10144800AB4FE5512FF9E5503EFA8B58F559895ABB
:10145800E55524022557F555120BFAFF249C600F19
:1014680024EF600B24FD6007242060030212A3AB65
:10147800520554E554AA537002055314F9120BFA95
:10148800F55DE556FD3395E0FCE54E2DF9E54D3C5F
:05149800854C61F562C6
:10149D008963AB5DAD5C121B5DEF2556F5560212EF
:0214AD00A32278
:103B2E00E5151515700215141445146006ED120CEA
:043B3E006280ED2292
:103B1800E50F150F7002150E14450E6008120BFA0A
:063B2800120C6280EB228A
:083BE000C2998F993099FD2272
:102C53008B378A388939754900754A00754B3A8B29
:102C63004F8A508951854952854A53854B547B017C
:102C73007A007997121298AE070EEFFD3395E0FCB8
:102C830074972DF58274003CF583740DF0AF060E36
:102C9300EFFD3395E0FC74972DF58274003CF583CA
:102CA300740AF0E4FDC3EE6480F8ED648098501874
:102CB300EDFB3395E0FA74972BF58274003AF583B4
:092CC300E0FF123BE00D80DD2270
:10360600123B5512348B123B68123BF5123BF412F7
:103616003BD07871E6FF5401D3940040F5121DD6D5
:103626007871E6FF1206017871E6FF1225F57871CA
:0B363600E6FF123722E47871F680D71F
:103B5500758921758851759850758DFF43878075D6
:033B6500A8832210
:093BC700EFD394034002DFFE225B
:03000B00021EEFE3
:101EEF00C0E0C0F0C083C082C0D075D000C000C0B9
:101EFF0001C002C003C004C005C006C007758A60D8
:101F0F00758CFF786E06E675F00A84E5F0600302C3
:101F1F001FA8122CCC786EE675F06484E5F0703B48
:101F2F00F678717601786A06E675F00A84E5F07046
:101F3F002A7871E64402F6786AE6FF75F03284E596
:101F4F00F070187871E64404F6EF75F06484E5F0EC
:101F5F007009786AF67871E64408F630053B900010
:101F6F002AE004F0D394134006E4F0D2A5802A901F
:101F7F000058E0FF700B90002AE0B40104C2A58066
:101F8F0018EFB4010B90002AE0B40404C2A5800935
:101F9F0090002AE0B40802C2A5786DE6603806E624
:101FAF00D3949F4031200824786FE6B4021E7874D2
:101FBF00E660197870E6FFC39408500EEF5403FFE4
:101FCF00BF0302D21A7870068002D21A786F760099
:101FDF00C208786D7600D007D006D005D004D003A4
:101FEF00D002D001D000D0D0D082D083D0F0D0E0BA
:011FFF0032AF
:03000300022A5B73
:102A5B00C0E0C0D075D000C000C006C0072008651C
:102A6B00786F06E6FFB4020C786DE6D3949140556F
:102A7B00D20880517868E6FEC313F6786DE6D394DE
:102A8B001040067868E64480F6EF640A6004EFB401
:102A9B001A077868E618F6802CEFB412127868E6FD
:102AAB00B4BF0418E6601E78747600D2088016EF67
:102ABB00B42212D21A787076007868E6F418666041
:102ACB0004C21AD208786D7601D007D006D000D098
:042ADB00D0D0E03245
:03000000023BB20E
:0C3BB200787FE4F6D8FD758174023606B9
:100B0400E709F608DFFA8046E709F208DFFA803ED3
:100B140088828C83E709F0A3DFFA8032E309F608C0
:100B2400DFFA8078E309F208DFFA807088828C8328
:100B3400E309F0A3DFFA806489828A83E0A3F608DC
:100B4400DFFA805889828A83E0A3F208DFFA804CB6
:100B540080D280FA80C680D4806980F2803380108D
:100B640080A680EA809A80A880DA80E280CA8033F6
:100B740089828A83ECFAE493A3C8C582C8CCC5836E
:100B8400CCF0A3C8C582C8CCC583CCDFE9DEE7803E
:100B94000D89828A83E493A3F608DFF9ECFAA9F0BD
:100BA400EDFB2289828A83ECFAE0A3C8C582C8CC13
:100BB400C583CCF0A3C8C582C8CCC583CCDFEADE2C
:100BC400E880DB89828A83E493A3F208DFF980CC8E
:100BD40088F0EF60010E4E60C388F0ED2402B40487
:100BE4000050B9F582EB2402B4040050AF2323452E
:060BF4008223900B5473F4
:100BFA00BB010689828A83E0225002E722BBFE02F9
:090C0A00E32289828A83E493222B
:100C1300BB010CE58229F582E5833AF583E0225096
:100C230006E92582F8E622BBFE06E92582F8E222E0
:0D0C3300E58229F582E5833AF583E49322FA
:100C4000BB010989828A83F8E028F022500327F744
:100C500022BBFE05F8E328F3228A838982F8E49315
:020C6000282248
:100C6200BB010689828A83F0225002F722BBFE0171
:020C7200F3226B
:100C7400F8BB010DE58229F582E5833AF583E8F0B6
:100C8400225006E92582C8F622BBFE05E92582C862
:020C9400F2224A
:100C9600BC000BBE0029EF8DF084FFADF022E4CC42
:100CA600F875F008EF2FFFEE33FEEC33FCEE9DEC0B
:100CB600984005FCEE9DFE0FD5F0E9E4CEFD22ED51
:100CC600F8F5F0EE8420D21CFEADF075F008EF2F9B
:100CD600FFED33FD4007985006D5F0F222C398FD8C
:050CE6000FD5F0EA2229
:100CEB00BB010A89828A83E0F5F0A3E022500687D4
:100CFB00F009E71922BBFE07E3F5F009E319228996
:0B0D0B00828A83E493F5F074019322C8
:100D1600BB010789828A83020D925005E9F8020D0C
:100D260089BBFE05E9F8020D9B89828A83020DA420
:100D3600D083D082F8E4937012740193700DA3A34C
:100D460093F8740193F5828883E473740293686060
:060D5600EFA3A3A380DF60
:100D5C00D083D082F8E4937012740193700DA3A326
:100D6C0093F8740193F5828883E473740293B5F05D
:0D0D7C00067403936860E9A3A3A3A380D8C5
:090D8900E6FB08E6FA08E6F9228F
:090D9200E0FBA3E0FAA3E0F92262
:090D9B00E2FB08E2FA08E2F92289
:0C0DA400E493FB740193FA740293F922AB
:00000001FF
