:1037FF008F3E8D3F12384D7FCC123454AF3E123472
:0A380F0054AF3F1234541238E52282
:103707008F2C8C2D8D2E12384D7FCC123454AF2C2C
:10371700123454AF2E123454E52DFF12345412389C
:02372700E52299
:1033DE008F358B368A37893812384D7FCC1234545C
:1033EE00AF35123454AB360538E538AA37700205BE
:1033FE003714F912189BFF123454E53A153A70023D
:0B340E00153914453970DE1238E52234
:1036B7008F38E4F53912384D7FCC123454200C146E
:1036C700AF3812345412384D7FCD123454D21D12F4
:0A36D70035008F391238E5AF3922B3
:103366008F2CE4F52DF52E12384D7FCC12345420D7
:103376000C22AF2C12345412384D7FCD123454C265
:103386001D123500752D008F2ED21D123500EFFE51
:0C339600E4EE422D1238E5AE2DAF2E22E1
:10310F008E3B8F3C8B3D8A3E893FD3E53C9401E556
:10311F003B94004008E53C153C7002153BC21D1264
:10312F003500AB3D053FE53FAA3E7002053E14F961
:10313F00EF1218E1E53C153C7002153B14453B704E
:10314F00DCD21D123500AB3DAA3EA93FEF1218E1AC
:03315F000238E54E
:103661008F358B368A37893812384D7FCC123454D6
:10367100AF3512345412384D7FCD123454AB36AAC3
:0B36810037A938AF3AAE3912310F22E2
:10324E008F308B318A32893312384D7FCC12345401
:10325E00AF3012345412384D7FCD123454C21D1279
:10326E0035007536008F37D3E5379535E53695340D
:10327E004006853436853537AB31AA32A933AF37A0
:0A328E00AE3612310FAE36AF372214
:103454008F40754108C296E54030E704D29580025A
:10346400C295123940E54025E0F540D29612394024
:10347400D541E2C296D295120006D29612000630C9
:0A3484009502D20CC2961200062237
:10350000D295120006754108D296E54025E0F540B7
:10351000309503434001123940C296123940D541DB
:10352000E7201D04C2958002D295120006D29612A1
:073530000006C296AF402225
:10384D00D295D296120006C20C209502D20CC295CA
:06385D00120006C29622D3
:0D38E500C295120006D296120006D295225E
:050006007F0ADFFE226D
:013940002264
:101CED004B434D5F504F5745525F4F4E004B434D49
:101CFD005F524541445F495251204572726F7200E7
:101D0D004B434D5F4952515F504C41595F535441C4
:101D1D005445202530327800526573746F726541D9
:101D2D002025303278202530327820253032780049
:101D3D0053455420004B434D5F564F4C554D455F19
:101D4D004354524C202564004B434D5F494E505532
:101D5D00545F534F555243452025303278004B4345
:101D6D004D5F4C495354454E5F4D4F4445202530F2
:101D7D00327800417070436F6D6D616E6420253057
:101D8D003278202530327820253032780003C50096
:101D9D00080006230031520075000000802F8000DE
:101DAD005C00000F80002C00805A80000800005855
:101DBD008000320000060080258000B400000D0177
:101DCD0005080064005E01E803E40C102700101103
:101DDD00123031323334202122240001101112131C
:101DED00000203010507060419181716151413121E
:101DFD00110001020304050607080903040506087E
:0F1E0D000A0F19326400020406080A0C0D0E0FAA
:08391D00E4900058F00237E4C9
:1037E4007D017F051237FF7F0212393B9000597427
:0B37F40064F07BFF7A1C79ED022BD5FE
:101F3B008F243094030220537F011236B78F25ADC7
:101F4B00257F031237FF300C097BFF7A1C79FA02CD
:101F5B002BD5E5255401D394004003121258E525E7
:101F6B005402D39400404B7F181236B790004FEFBA
:101F7B00F07F1A1236B7900067EFF0900059E070BF
:101F8B00082014057F0712393B90004FE0700312B5
:101F9B0038A0122E1B12394590004EE0FF640460EE
:101FAB0004EFB4050D7FA212336690002CEEF0A364
:101FBB00EFF0E5255408D3940040031216B4E52541
:101FCB005404D3940040167F2F1236B790002BEF9A
:101FDB00F090003BE0B438057F3812393BE52554CF
:101FEB0010D3940040031231B5E5255440D394002F
:101FFB0040247FA3123366900056EEF0A3EFF04E11
:10200B00600F90003BE06401600C7F1612393B803F
:10201B00057F1512393BE5255420D39400401D7FD5
:10202B00A51236B7900029EFF07BFF7A1D790DF5DD
:10203B003F122BD5900029E0FF12348EE5255480FA
:09204B00D39400400312250C227D
:101258007B007A00792B753900753A047F40123685
:1012680061300C05E4FF02393B852B29E52F540337
:10127800900058F0AD297F2012234B8F2A7BFF7AEC
:101288001D792585293F852A40852B41122BD5E5D7
:101298002AC39404400FE52AD39408500890004EBE
:1012A800E52BF0800690004EE52AF07F201236B735
:1012B8008F297B007A00792B753900753A027F8176
:1012C80012366190008DE52CF07F2F1236B7900012
:1012D8002BEFF0E4F527AD277F0912234B8F2AE582
:1012E8002A2430FF1236B78F29AD297F3012234BBD
:1012F8007483252AF582E43400F583EFF00527E5A9
:1013080027C3940840D07F391236B78F29E529546E
:101318000FFD7F3912234B900061EFF0E529C4548B
:101328000FFD7F3912234B900062EFF07F3A12369F
:10133800B7122342900063EFF07F3B1236B71223B7
:1013480042900064EFF07F381236B78F29AD297FBD
:101358003812234B900065EFF07F3C1236B712230A
:1013680042900066EFF07F241236B78F2AAD2A7FAD
:101378002412234B7D507F2E1237FF7D467F251286
:1013880037FF7D467F261237FF752B44752C447531
:101398002D30E4F52EFB7A00792BF539753A047F68
:1013A800801233DEE4F528E4F527E527901D9A93AB
:1013B800FF742C2527F8A6070527E527B405EBE5D4
:1013C8002804F52B7B007A00792B753900753A06CD
:1013D8007F8B1233DEE4F527E527901D9F93FF747A
:1013E8002C2527F8A6070527E527B409EBE4F527F8
:1013F800742C2527F8E6FFE52875F009A424A8F53C
:1014080082E4341DF583E5822527F582E43583F5EA
:1014180083E4934FF60527E527B409D4E52804F5B6
:051428002B7B007A009F
:10142D00792B753900753A0A7F8C1233DE0528E564
:10143D0028C3940450030213AF7BFF7A1D79CC753A
:10144D003900753A0E7F8E1233DEE490004FF09026
:10145D000067F0900029F0C201C214C20690008B03
:10146D00F0FF7E20121E1C7F0212393B9000597432
:10147D000AF0123945122E1B7FFF12359F9000295D
:10148D00E0FF12348E900058E0FDE4FF1236022288
:102B5A007BFF7A1D793D12353CE4F527AD277F04CA
:102B6A0012374B12000E7FFF1239147FFF123914ED
:102B7A000527E527C3946440E3E4F529F52AF52BF4
:102B8A00F52C752D02FB7A007929F539753A057FFE
:102B9A00401233DE7D277F2F1237FFE4F527E52722
:102BAA002430FFE4FD1237FF0527E527C3940840C8
:102BBA00ED7DAB7F241237FF7D017F051237FF7F42
:0B2BCA000212393B900059741EF022EB
:10250C007B007A0079277534007535087F98123274
:10251C004E8F2FE52F640260030225CFE52724F8A8
:10252C00607624E8602724F5604814605824FD6028
:10253C00030225BD7BFF7A1D794285283F122BD5DE
:10254C0090002BE528F07F3812393B80767BFF7AA0
:10255C001D795585283F122BD5AD287F2012234B92
:10256C0090004EEFF01239351238F2E4FF12393B7D
:10257C0080517BFF7A1D796B85283F122BD5AF28B4
:10258C00122C4E803E7BFF7A1D796B85283F122BD7
:10259C00D5AF28123633802BA206E433FFE528543E
:1025AC0001B5071FE52830E21A90003B7438F08023
:1025BC00127BFF7A1D7980852F3F85274085284126
:0825CC00122BD57F0102359F9F
:1029D400EF24F7602524E5602F24F9601624FB60BA
:1029E4002024F8606714605D24197067ED901DDA87
:1029F40093FF22ED901DE793FF22ED901DED93FFD1
:102A040022ED901DF593FF22E4F53E90004AE0D3B9
:102A140094004003433E01900048E0D394004003F7
:102A2400433E02900049E0FF25E025E0423E90004D
:102A34004BE0FFC454F0423EA3E0FFC4333354C020
:102A4400423EAF3E22ED901E1293FF22ED901E08EF
:062A540093FF227F002227
:092342008F29E529540FFD7F38B5
:10234B00E4FEEF24F7604A24E5607024F9602D2445
:10235B00FB605324F870030224101470030223FB58
:10236B0024196003022425EE901DDA93B50503AF03
:10237B0006220EEEC3940D40EE7F0022EE901DE779
:10238B0093B50503AF06220EEEC3940640EE7F0114
:10239B0022EE901DED93B50503AF06220EEEC3940E
:1023AB000840EE7F0022EE901DF593B50503AF06B6
:1023BB00220EEEC3941340EE7F0022ED30E1047F3A
:1023CB000180027F00900048EFF0ED13135403A33C
:1023DB00F0ED30E0047F0180027F0090004AEFF0C7
:1023EB00EDC45403A3F0EDC413135403A3F0802ADC
:1023FB00EE901E1293B50503AF06220EEEC3940AA0
:10240B0040EE7F0022EE901E0893B50503AF062227
:0D241B000EEEC3940A40EE7F00227F0022E7
:1035D1008B3F8A408941EF6027AB3F0541E541AA16
:1035E100407002054014F912189BFEAB420544E5F8
:1035F10044AA437002054314F9EE1218E11F80D664
:0136010022A6
:102165006752656D6F766554696D657220253032ED
:1021750078004D656E7553656C6563744120253037
:102185003278004D4B434D5F507265656D707469D3
:10219500626C653A25642025642F256400536F75AC
:1021A500726365573A2530327828253032782925EB
:1021B50030327828253032782900536F757263657F
:1021C5004A3A25303278206C6173743A253032787A
:1021D500004B434D5F5352435F56414C49442045A4
:1021E500202564202564004B434D5F5352435F56C1
:1021F500414C49443A2530327825303278204C61BB
:1022050073743A2530327825303278006D494E5056
:1022150055545F412025303278004B434D5F535272
:10222500435F56414C4944203D204C6173743A2527
:10223500303278253032780D0A0000010203002083
:1022450000401000400001000200040004050608DB
:03225500090A0B68
:013941002263
:10356D008F2490008BE0602904F0D394C840227F13
:10357D00401236B78F257BFF7A21796585253F125D
:10358D002BD5E490003BF0AF251232A1E490008BD7
:02359D00F0221A
:103729008F371238F2D218E537600D753830300608
:103739000AC2064338028003753820AD387F080273
:0237490037FF48
:10376D00AD07EDC394FF500E7F091229D4EF44101D
:0E377D00FD7F090237FFE4FD7F091237FF22AE
:103006008F3A8D3B123935E53B60167483253AF5C8
:1030160082E43400F583E0C394125019E004F08092
:10302600147483253AF582E43400F583E0D39400E2
:103036004003E014F0AD3A7F091229D48F3C748323
:10304600253AF582E43400F583E0FD7F301229D479
:0A305600AD07E53C2430FF0237FF10
:102428008F3A8D3B123935E53A24C7F53DE53B60D7
:10243800167461253DF582E43400F583E0C3940900
:102448005019E004F080147461253DF582E43400ED
:10245800F583E0D394004003E014F0E53A24C66025
:10246800161460381460511470030224F814606460
:102478002405600302250B900061E0FD7F391229D5
:10248800D48F3C900062E0FD7F391229D48F3DE55E
:102498003DC454F0453CFD7F390237FF900063E0AE
:1024A800FD7F391229D48F3CE4F53DE53DC454F055
:1024B800453CFD7F3A0237FF900064E0FD7F39120A
:1024C80029D48F3C753D08E53DC454F0453CFD7F5B
:1024D8003B0237FF900066E0FD7F391229D48F3C1C
:1024E800753D01E53DC454F0453CFD7F3C0237FF96
:1024F800900065E0FD7F381229D48F3CAD3C7F38D1
:042508001237FF2265
:0D38F200301409C214E4FD7F091237FF22D3
:06393500300602C206226A
:09329800F582E43400F583E0FF47
:1032A1008F27900076E0542CF0900075E054F8F0F0
:1032B100A3E054FBF01239351238F290003BE0FFE5
:1032C1006003B401177BFF7A21797785273F122BA1
:1032D100D590004EE527F0FDFF122EF27F01023955
:0132E1003BB1
:103202007BFF7A217988900027E0FF2433F582E45E
:103212003400F583E0F53F8F4090003CE0F5411229
:103222002BD590003CE0601B900027E02433123243
:103232009890003CE0FF900027E004F0C39F400B11
:0C324200E4F02290004EE0FF1232A122C6
:102F5000E490003BF090005AE0FF601190003DE0EB
:102F6000FEC39F500874332E123298802090005A6E
:102F7000E0FF90003DE0C39FFFE49400FE743F2F0C
:102F8000F58274223EF583E493FF1232A190005A39
:102F9000E02404FFE433FE90003DE004F0C39FEE24
:0B2FA0006480F87480984002E4F02286
:102EF2008F2C8D2DAD2C7F201229D4AD077F20126F
:102F020037FFAD2C7F201229D4C007AD2D7F2012B0
:102F120029D48F42D0407BFF7A2179A2852C3F852C
:102F22002D41122BD5E52DD394035021AD2D7F20B9
:102F32001229D4AD077F401237FF7F201236B78F98
:0E2F4200407BFF7A2179BF852C3F122BD522D0
:101E1C008E358F36E4F53790008DE0B45311AF3723
:101E2C00053774332FF582E43400F5837407F0E53D
:101E3C003645357003021F11E4F538E53825E024EA
:101E4C0043F582E43422F583E493F539740193F578
:101E5C003AE5355539FEE536553A4E603DE53A647E
:101E6C00204539700C90002EE07002A3E0701480B5
:101E7C0029E53A64404539700A90002EE07002A3BF
:101E8C00E07017E53890225193FFAE370537743365
:101E9C002EF582E43400F583EFF00538E53864075D
:101EAC00709990005AE06537600BE490003DF0901B
:101EBC00005AE537F0E4F53890005AE0FFE538C3F6
:101ECC009F501C74332538F582E43400F583E0FE12
:101EDC00C394094006EED3940C4004053880D99085
:101EEC00003CE06538600BE4900027F090003CE586
:101EFC0037F07BFF7A2179D690003CE0F53F8F409C
:101F0C00122BD5801F90003CE537F0E490005AF07E
:101F1C00900027F090003DF090002EF0A3F0900080
:0F1F2C0052F0A3F0900092E535F0A3E536F022D5
:1016B4007F1C1233668E278F28900092E0FCA3E0F3
:1016C400FD65287003EC65277003021885C21C7B36
:1016D400FF7A2179ECE527F540753F00F54185282F
:1016E40042ECF544754300F5458D46122BD5E4F5DF
:1016F40029E52925E02443F582E43422F583E493A3
:10170400F52A740193F52BE527552AFEE528552B78
:101714004E70030217CB900092E0552AFEA3E055C9
:101724002B4E60030217CBD21CE52A7062E52B24F2
:10173400F9605A24C7602D242070547FA0123366A8
:1017440090002EEEF0A3EFF04E6010E4900043F012
:10175400A3F0FDFC7FA412370780347F0E12393BBF
:10176400C21C802B7FA1123366900052EEF0A3EFCF
:10177400F04E6010E4900043F0A3F0FDFC7FA4124F
:101784003707800B7F0F12393BC21C8002C21C300A
:101794001C41E52990225193FF90004EE0FD122E4A
:1017A400F2E5299022519390004EF07BFF7A227942
:1017B40011F53F122BD5E490003BF07F0112393B29
:1017C400E490008BF0800C0529E529C394075003AD
:1017D4000216F5301C0302187EE4F529E52925E0FC
:1017E4002443F582E43422F583E493F52A740193C7
:1017F400F52BE527552AFEE528552B4E70709000F1
:1018040092E0552AFEA3E0552B4E6062E52B852A13
:10181400F01219DB182C0020183E0040185010005C
:10182400185740000000185CE490002EF0A3F0FF6D
:1018340012348E7F1012393B801EE4900052F0A3C4
:10184400F0FF12348E7F1112393B800C7F12123953
:101854003B80057F1312393BE52990225193FF9079
:10186400004EE0B5071490008B7401F0800C05293C
:10187400E529C3940750030217E0AF28AE27021EE0
:101884001C7BFF7A22791FE527F540753F00F5415F
:07189400852842122BD5222A
:1038C60020524553455400010204000110202130C6
:013942002262
:100601008F24122ADE900059E0D394004016300165
:1006110003020B10E5245402D394005003020B1083
:10062100E014F02230012530190BC219780FE6B41D
:1006310059031237E4200703020B10C207D21378C3
:100641001AE664186003020B100237E42007030264
:1006510006D2C207D213781AE624F8602B24F76079
:100661002214601824FE600D24EC6038241070619F
:10067100122F50805C7F011231628055E4FF1231EC
:1006810062804E1236E1804990003BE0FFC394380E
:10069100400DEFD3943E5007E4FF12393B803212F4
:1006A100378B802D90003BE0FFC394384006EFD399
:1006B100943A40077F3812393B801690003BE004A2
:1006C100F0D3943A40037438F090003BE0FF1239C4
:1006D1003B781CE6600C06E6D3943C4005E4F678D2
:1006E10018F6201903020AEAC219780FE61219B5A1
:1006F1000ADE000AE5030AC20408980508BE060AD4
:10070100C9070AAA080AAF0B0A950C08520D084C32
:100711000E0A1010086F11084F120A1A130A7714E3
:10072100092A160A801707CD1807A519089E1A0964
:10073100B81B0AD7400AD0420ABB440892450AB402
:10074100460AA3480A9C4A0A8E4C07D04D0A894E94
:10075100080E510A6E5409DA550A6556078C580776
:100761006A5909965A00000AEAB2013001087F0865
:1007710012393B020AEA7D017F051237FF7F02121F
:10078100393B900059741EF0020AEA90003BE0B434
:1007910009047F0480027F008F25AD257F09120F98
:1007A100F5020AEA7BFF7A3879C612353C12000E4F
:1007B100122B5A020AEA90003BE004F0D3943E4027
:1007C100037439F090003BE0FF12393B020AEA90D2
:1007D100003BE0FFC3942E4012EFD39435500C78C8
:1007E1001C76017D04120FF5020AEA90003BE0FF3E
:1007F100C394245003020AEAEFD3942B4003020A64
:10080100EA781C76017D04120FF5020AEA90003B9A
:10081100E0FFC3942E4012EFD39435500C781C7630
:10082100017D03120FF5020AEA90003BE0FFC39439
:10083100245003020AEAEFD3942B4003020AEA7818
:0B0841001C76017D03120FF5020AEA8D
:10084C00020AEA020AEA781C760190003BE0B4380E
:10085C00047F0480027F008F25AD257F38120FF5B1
:10086C00020AEA300603020AEA781C760190003B81
:10087C00E0B438047F0380027F008F25AD257F38DC
:10088C00120FF5020AEA123819020AEA12378B0221
:10089C000AEA90003BE0FFC39446400EEFD394501D
:1008AC005008E4FF12393B020AEA7F4612393B0238
:1008BC000AEA90003BE0FFC394465003020AEAEFB9
:1008CC00D394504003020AEAE004F0E0B4480C90E0
:1008DC000049E0700690003BE004F090003BE0B46F
:1008EC00490C90004BE0700690003BE004F0900047
:1008FC003BE0B44A0C90004CE0700690003BE004E6
:10090C00F090003BE0D3945040037446F090003BD1
:10091C00E0FF12393B9000557432F0020AEA900065
:10092C003BE0FFC394465003020AEAEFD3945040D5
:10093C0003020AEAE014F0E0B44A0C90004CE070B8
:10094C000690003BE014F090003BE0B4490C9000A2
:10095C004BE0700690003BE014F090003BE0B44894
:10096C000C900049E0700690003BE014F090003BC6
:10097C00E0C3944650037450F090003BE0FF1239F2
:10098C003B9000557432F0020AEA90003BE0FFC342
:10099C0094465003020AEAEFD394504003020AEA49
:1009AC00781C76017D03120FF5020AEA90003BE0F9
:1009BC00FFC394465003020AEAEFD394504003025B
:1009CC000AEA781C76017D04120FF5020AEA9000FF
:1009DC003BE0FFC3942E4006EFD39435400B123806
:1009EC00F27F2E12393B020AEA90003BE024D2FF40
:1009FC00122D3B8F26E526242EFF90003BF012395A
:100A0C003B020AEA7D037FA51237FF020AEA900037
:100A1C004EE0FF64046008EF64056003020AEA908C
:100A2C000029E05403F526B402137D017FA512378B
:100A3C00FF900029E054FCF04401F080117D027F0E
:100A4C00A51237FF900029E054FCF04402F090000E
:100A5C0029E0FF12348E020AEA7D047FA61237FFCA
:100A6C00807C7D037FA61237FF80737D027FA612E8
:100A7C0037FF806A7D017FA61237FF80611236E155
:100A8C00805C7F0B12393B80557F0C12393B804EBA
:100A9C007F011231628047E4FF12316280401239CB
:100AAC0043803B12320280367F091232A1802F7FA5
:100ABC000A1232A180287F0B1232A180217F0C12E6
:100ACC0032A1801A7F011232A180137F021232A14F
:100ADC00800C7F031232A18005E4FF1232A1301B7F
:100AEC0023C21B90003BE0FFC394384012EFD39419
:100AFC003A500C3011047D0480027D03020FF57F07
:050B0C003812393B2204
:10378B00B2063006047F0480027F03AD077F0A1266
:0E379B000FF52006057F3812393B1238F22256
:10381900B21430140A7F2412393BE4FF02376DE4F5
:0A382900FF12393B7FFF12376D22BA
:013943002261
:102ADE007814E6FF7008C2A0D2A1D2A28012EFB481
:102AEE000108D2A0C2A1D2A28006D2A0D2A1C2A2B7
:102AFE00E4FE2082010E208303430602208403435A
:102B0E000604208503430608EE602EEFC454F02E13
:102B1E00FE781AE6B50616900095E004F0D39408F8
:102B2E004029201302D207E4900095F022C213E44C
:102B3E00900095F0781AA60622781406E6D3940231
:0C2B4E004002E4F6C213E4900095F0226F
:102CC600200F1830871030860D781306E6D394034C
:102CD6004004E4F6D20FC20AC20B22A28730860154
:102CE600B3503A300F25A2869211A211301501B3C6
:102CF60050057811E67002D21BA211921578117652
:102D060003E47813F6C20FC20B800F300B0A78115A
:102D16007603E47813F6C20FD20BC20A2220871478
:102D2600208611300A0A78117603E47813F6C20F6A
:052D3600D20AC20B22CD
:103162008F277F2B1236B78F2890003BE0640370C5
:103172003D12368C8F29E527600EE52970047F0108
:1031820080027F008F298018E529C39402500575BB
:103192002902800C0529E529D394054003752902EB
:1031A200E5299038D093F528FD7F2B1237FFAF2801
:0331B200022C4E9E
:1036E1007F2C1236B78F2790003BE0B405130527D6
:1036F100E527D394044003E4F527AD277F2C123747
:06370100FFAF2702363382
:100D90004B434D2D4E4F00202D4F46462D002048F1
:100DA000454C4C4F004D5554452020004D55544561
:100DB0002D2D00564F4C20202000564F4C20004E29
:100DC0004F4953452000465253502000434553504D
:100DD0002000535753502000535253502000424B91
:100DE000535020004C504620004C4950530046526E
:100DF000444C20004345444C20005357444C2000B1
:100E0000424B444C2000536F757263653A20253085
:100E100032782025303278002020202020200050F9
:100E2000434D00322F34004E49472D4F4E004E495E
:100E3000472D4F46004D5033002020004252494775
:100E400048004657444F4E450046572045727200B1
:100E50004657202D00464C54744345547453575400
:100E600074465254745352547442525474424C5403
:100E700074534C547400464C547243455472535747
:100E80005472465254725352547242525472424CEB
:100E90005472534C5472004D4943314D49433245CD
:100EA00043484F5245505444454C595245564200D0
:100EB0004155582D494E4F5054494341434F412DC0
:100EC0004431434F412D4432202D53442D20202DB9
:100ED0005553422D202D50432D2020453843482086
:100EE0002D42542D202048444D492D3148444D4930
:100EF0002D3248444D492D3348444D492D41002061
:100F0000204849464920322B3143484D4F44452023
:100F1000200020464C415420534F554E442000326F
:100F20002F30312F30322F30332F30322F31332FBB
:100F300031322F32332F32332F33332F34322F339A
:100F4000322F340053442D494E2055442D494E2014
:100F500053442D4F555455442D4F555450432D4F08
:100F6000555442542D4F555448442D4F5554003339
:100F7000324B34384B35364B36344B38304B3936B0
:100F80004B3131323132383136303139323232341C
:100F90003235363332303338340000020700002453
:100FA0003F000600DB00CF00E600ED00FD0007007B
:100FB000FF00EF00F7128F0039120F00F900F10067
:100FC000BD00F61209001E0C700038053609360007
:100FD0003F00F3083F08F300ED1201003E243028E3
:100FE000362D0000EE240900C0240012C0001018A5
:050FF0001C1C1E1E1F69
:10306000C2A5C2937F011239147F401238637F01D9
:10307000123914D2937F01123914C2937F0112398D
:10308000147FC01238637F01123914E4F524E4FF81
:103090001238637F011239140524E524C3941040CB
:1030A000ED7F0A123914D293E4FDFF123602E4FFD9
:0930B0001237C7E4900030F02251
:102697008F24300E05C20E12000EE5245402D39487
:1026A700005003022757900030E0601514F07007C0
:1026B7007F0112359F800A900030E05401FF1235E8
:1026C7009F900059E0D39400400302275730060B30
:1026D700900055E070057F0A12393B2001589000A1
:1026E70055E0605214F07024201406FF12393B8025
:1026F7004590003BE024DCFF122D3B8F25E5252488
:1027070024FF12393BAF2512376D802A30002790FE
:102717000055E0FF75F00584E5F0701AEF75F005D8
:1027270084F52590003BE0FFE52530E0047D02803D
:10273700027D01120FF52001172006142014113015
:10274700050E90004FE0540FC394004003122FABC7
:01275700225F
:05393B00E4FD020FF5A0
:09390B009000557414F0C2002272
:0839250090003BEFF002390BAA
:100FF5008F358D36E536700312390BC205C2A51241
:101005003833900075E0540FF0E5351219B510B37B
:101015000010E40110F602113A0611460710EA081D
:10102500110B0911710A114C0B11520C11580E11AB
:10103500580F1158101158111158121158131158F1
:1010450014116315116916121A24121A25121A267B
:10105500121A27121A28121A29121A2A121A2B12D0
:10106500232E12232F12233012233112233212235F
:101075003312233412233511CD38122F39122F3A5A
:10108500122F3B122F3C122F3D122F3E12474612B4
:10109500474712474812474912474A123B4B123BF2
:1010A5004C123B4D123B4E123B4F00001251200C8F
:1010B5001790004EE0FF64046004EFB405051225A7
:1010C500D4800E1232E280097BFF7A0D79901235B9
:1010D5003CE490003BF0900055F0D205021251120D
:1010E50032E20212517BFF7A0D799712353C0212DA
:1010F500517BFF7A0D799E12353C12000E900055FA
:10110500740AF0021251E536B4041D9000557414AA
:10111500F0900058E004F0D394024002E4F090000F
:1011250058E0FD7F441237FF900058E0FD7F011223
:1011350036020212519000557432F01239440212EF
:101145005112281102125112341902125112332769
:10115500021251E53524F2FF12388D021251123078
:10116500B90212511225D4D205021251E536600397
:10117500B404089000557450F0D200E536C39402CB
:101185004005E536B4040B7BFF7A0D79A512353C95
:10119500800EE536B402097BFF7A0D79AC12353C39
:1011A500E536B4040A7D037F081237FF021251E5C4
:0111B5003603
:1011B600640360030212519000557414F07D027F9F
:1011C600081237FF021251E536C39403401590000A
:1011D6003BE0B4380EE536B404047F0180027F009C
:1011E600123729E536B4020B7BFF7A0D79B3123537
:1011F6003C80587BFF7A0D79BA12353C90002BE083
:10120600FD7F0412374BE53670419000557450F05F
:10121600D2008037AD36AF3512294B802E1238F208
:10122600AD36AF351228B880221238F2AD36AF355A
:10123600122DAB80161238F2AD36AF35121A2F804A
:101246000A1238F2AD36AF3512225890003BE5351A
:02125600F02284
:103327007F091236B78F3730141390003BE0B40C87
:103337000C0537E537D394074003E4F537AD377FFE
:10334700091237FF7BFF7A0D79BF12353CE537123B
:0F3357000B11301409E4900031F0FF12376D2292
:102D3B00EFB407005067902D48F8282873022D5DDB
:102D4B00022D72022D7E022D81022D96022DA202E2
:102D5B002DA5900049E060037F012290004AE060BE
:102D6B00037F02227F032290004AE060037F02224E
:102D7B007F03227F032290004BE060037F042290AD
:102D8B00004CE060037F05227F002290004CE06046
:102D9B00037F05227F00227F06227F07227F0022EE
:10294B008F378D38E538C39403401E90003BE0B5BC
:10295B00371724DCFFE538B404047D0180027D00C9
:10296B001230069000557450F074DC2537F537752E
:10297B00F004A42455F9740E123537E538B4020E61
:10298B007D207F04120B167D207F05020B167483AE
:10299B002537F582E43400F583E0F539C39409500B
:1029AB00147D2D7F04120B16C374399539FD7F05E9
:1029BB00120B1680117D207F04120B16E53924278C
:0929CB00FD7F05120B16D200225B
:1028B8008F378D38E538C39403401E90003BE0B550
:1028C800371724D2FFE538B404047D0180027D0067
:1028D8001230069000557450F074D22537F53775CC
:1028E800F004A42476F9740E123537E538B4020ED4
:1028F8007D207F04120B167D207F05020B16748342
:102908002537F582E43400F583E0F539C39409509E
:10291800147D2D7F04120B16C374399539FD7F057C
:10292800120B1680117D207F04120B16E53924271F
:10293800FD7F05120B16E53870089000557450F0AD
:03294800D2002298
:102DAB008F378D38E538C39403401D90003BE0B559
:102DBB003716E538B404047D0180027D00AF37126D
:102DCB0024289000557450F074C72537F53775F0EB
:102DDB0004A42497F9740E1235377D207F04120B4F
:102DEB0016E538B402077D207F05020B16746125AA
:102DFB0037F582E43400F583E0F5392430FD7F05A7
:102E0B00120B16E53870089000557450F0D2002262
:101A2F008F378D38900075E04450F0A3E0F09000B0
:101A3F00557450F07D207F04120B167D207F051208
:101A4F000B16E53724B46056147003021AE41470B1
:101A5F0003021B1B147003021B52147003021B8919
:101A6F0024056003021B927BFF7A0D79C612353C69
:101A7F00E538C39403401B900048E004F0D3940171
:101A8F004002E4F0E4FD7F241229D4AD077F241235
:101A9F0037FFE4FF1233A2AD077F05020B167BFF62
:101AAF007A0D79CC12353CE538C39403401B900076
:101ABF0049E004F0D394024002E4F0E4FD7F2412E5
:101ACF0029D4AD077F241237FF7F011233A2AD0750
:101ADF007F05020B167BFF7A0D79D212353CE53864
:101AEF00C39403401B90004AE004F0D394014002DA
:101AFF00E4F0E4FD7F241229D4AD077F241237FFD1
:101B0F007F021233A2AD077F05020B167BFF7A0D02
:101B1F0079D812353CE538C39403401B90004BE055
:101B2F0004F0D394024002E4F0E4FD7F241229D4A0
:101B3F00AD077F241237FF7F031233A2AD077F0556
:101B4F00020B167BFF7A0D79DE12353CE538C39414
:101B5F0003401B90004CE004F0D394024002E4F0E9
:101B6F00E4FD7F241229D4AD077F241237FF7F04B1
:101B7F001233A2AD077F05020B167BFF7A0D79E4B6
:041B8F0012353C22AD
:102258008F378D38E53724B9603A14605A14607A9C
:1022680014700302230524046003022326900075DA
:10227800E04440F0A3E0F07BFF7A0D79E912353CA9
:10228800E538C394035003022326AD38E4FF122E29
:10229800880223267BFF7A0D79EE12353C90007573
:1022A800E04450F0A3E0F0E538C394034070AD3843
:1022B8007F01122E8880677BFF7A0D79F412353CF6
:1022C800900075E04450F0A3E0F0E538C394034073
:1022D8004DAD387F02122E8880447BFF7A0D79FA43
:1022E80012353C900075E04450F0A3E0F0E538C3A7
:1022F8009403402AAD387F03122E8880217BFF7A11
:102308000E790012353C900075E04450F0A3E0F0DF
:10231800E538C394034007AD387F04122E88900037
:10232800557432F074F82537F582E434FFF583E00C
:0A23380075F005A4FD7F0402374B89
:1032E20090004EE0FFC39404400FEFD394085009BE
:1032F200900076E04420F08007900076E054DFF002
:103302007BFF7A0E79068F3F900075E0F540A3E0CF
:10331200F541122BD590004EE075F006A424B0F9C9
:05332200740E023537B6
:013944002260
:10368C00AE07EE543024F0601224F0601124207048
:10369C0017EE30E0037F01227F00227F0222EE3002
:0B36AC00E0037F04227F03227F052241
:102C4E008F3012368C8F31900076E0542CF0E531B7
:102C5E00C394025016EF75F006A424FFF9740E12F9
:102C6E003537900076E04401F080457BFF7A0F798E
:102C7E000B12353CE531242FFD7F05120B16E53086
:102C8E0024FD601314601914601F24037022900039
:102C9E0076E04402F08019900076E04480F08010D7
:102CAE00900076E04440F08007900076E04410F00B
:082CBE0012390B7F03023925D6
:103633008F30E53060067E007F0680047E007F00C9
:1036430074122FF9740F3EFA7BFF12353CE530609C
:0E365300082430FD7F05120B167F0502392575
:1028110090004FE0FF540FC3940250030228B4E428
:10282100F53BEFC4540F75F003A4F5377BFF7A0E27
:10283100791812353C122E1B90004FE0540F24FDE5
:10284100602414604314604024FE605E24F7601627
:1028510014601324FD24FD502F241570597BFF7A39
:102861000E791F02353C741F2537F9E4340FFA7BCA
:10287100FF7542007543007544387F031235D17BE3
:10288100007A00793802353C741F2537F9E4340F9A
:10289100FA7BFF7542007543007544387F0312359A
:1028A100D17B007A00793802353C7BFF7A0E79239F
:0728B10002353C1232E22265
:1033A200AE07EE700C900048E060037F4C227F5322
:1033B20022BE020C90004AE060037F59227F4E2217
:1033C20074482EF582E43400F583E0FDB402037FF5
:0C33D2004C22EDB401037F53227F4E22F9
:103419007F231236B78F3790003BE0B40B16E537A0
:10342900C3943250057537328003E4F537AD377FE1
:10343900231237FFE53760097BFF7A0E79270235BA
:0B3449003C7BFF7A0E792E12353C22EE
:10388D009000557432F0EF75F006A42444F9740FCE
:03389D00023537BA
:1030B9009000557414F0900075E054BFF07BFF7ACE
:1030C9000E791812353C900044E02401FD9000432C
:1030D900E03400FCE4FF1227588F3E053E7D2F1295
:1030E9000B1690004EE0B4040D90002EE0FEA3E014
:1030F900FFAC06FD800B900052E0FEA3E0FFAC069A
:06310900FDAF3E02275855
:1025D400C3900057E09403900056E0940050030227
:1025E40030B9C3900057E09405900056E094005031
:1025F40064900067E0FF131313541FF53790004FE6
:10260400E0540F640A704E9000557414F0E537D30B
:1026140094004041E5379410503B754200754300E7
:102624007544387BFF7A0E79357F031235D1E5374F
:1026340075F003A4246CF9740F35F0FA7BFF75422E
:102644000075430075443B7F031235D17B007A004B
:10265400793802353C7BFF7A0E793912353C90008B
:1026640056E0FEA3E0FF7C007D3C121915AD077F08
:102674000212374B900056E0FEA3E0FF7C007D3C45
:102684001219157F0412374B900075E04440F0A3F3
:03269400E0F02251
:103602008D37EFD39400400E7BFF7A0E793C123552
:103612003CE537120B11C2937F01123914E5379042
:103622000F9A934488FF1238637F01123914D293A0
:013632002275
:102E8800EF70047C0180027C00EC14601114601265
:102E9800146013146014240470127E13800E7E09CB
:102EA800800A7E0980067E0980027E09BD0424749A
:102EB8003E2FF582E43400F583E0D39E4002EEF025
:102EC800743E2FF582E43400F583E0C39E501AE087
:102ED80004F022BD0313743E2FF582E43400F58319
:0A2EE800E0D394004003E014F02250
:1031B5007B007A007927753900753A027F811236CE
:1031C50061E527B4640B7BFF7A0E794212353C80AA
:1031D50020E527B4680B7BFF7A0E794912353C80D0
:1031E500107BFF7A0E795012353CAD277F041237DC
:0D31F5004B7F0D123925900055743CF022DF
:01394500225F
:102E1B00900075E054F8F0A3E054FBF090004FE005
:102E2B00540F24FD603514603B14603824FE604061
:102E3B0024F7602714602424FD24FD5027241570EB
:102E4B003990008DE0FF64536030EF6456602B9037
:102E5B000075E04404F0A3E0F0801F900076E0449E
:102E6B0004F08016900075E04401F0A3E0F0800AB6
:0D2E7B00900075E04404F0A3E0F0D20E22B8
:10348E00EF5403FE900078E054F0F0BE0106E044E5
:10349E0008F0800ABF0207900078E04404F0EF5471
:1034AE00C0FE6013BEC009900078E04401F08007B2
:0A34BE00900078E04402F0D20E22E4
:10359F008F35E535B4FF117F1F1236B7EF30E704D3
:1035AF007F0180027F008F35E535600C900075E05C
:1035BF004408F0A3E0F08007900075E054F7F0D2D4
:0235CF000E22CA
:0535370035F0FA7BFFF6
:10353C008B3F8A408941E4F543AB3F0541E541AA05
:10354C00407002054014F912189BF5426012AD420E
:10355C00AF43120B160543C3E5436480948640D9F0
:01356C00223C
:102758008F3F8C408D41AE40AF417C277D101219D0
:1027680015EF4E601AEF2430FDAF3F053F120B16F0
:10277800AE40AF417C277D101219158C408D41AEBB
:1027880040AF417C037DE8121915EF4E601AEF2423
:1027980030FDAF3F053F120B16AE40AF417C037DC5
:1027A800E81219158C408D41AE40AF417C007D6424
:1027B800121915EF4E601AEF2430FDAF3F053F1296
:1027C8000B16AE40AF417C007D641219158C408D0C
:1027D80041AE40AF417C007D0A121915EF4E601AD8
:1027E800EF2430FDAF3F053F120B16AE40AF417CE2
:1027F800007D0A1219158C408D41AF3F053FE54118
:092808002430FD120B16AF3F2233
:10374B008F3E8D3FE53F75F00A842430FD120B163A
:10375B00E53E04FFE53F75F00A84E5F02430FD02F9
:02376B000B163B
:050B11002431FD7F0509
:100B16008F448D45E544C394034003020BE1E5454C
:100B2600C394304012E545D39439500B74D0254513
:100B3600F54504F546804CE545C39461400FE5450F
:100B4600D3947A5008E54524AAF5468036E545C390
:100B56009441400FE545D3945A5008E54524CAF51B
:100B6600468020E54524D5601224FC6009240270E5
:100B76000F754625800D7546268008754627800325
:100B8600E4F546E54625E0249DF582E4340FF58339
:100B9600E493FEE54425E02469F582E43400F58318
:100BA600EEF0A3E4F0E54425E02469F582E43400A0
:100BB600F583C083C082E0FEA3E0FFE54625E0247E
:100BC6009EF582E4340FF583E493FDEEEF4DFFD0FE
:100BD60082D083EEF0A3EFF0020D8DE544C39406B8
:100BE6004003020D17E545C394304066E545D394AE
:100BF60039505F74D02545F54504F54625E0249D1A
:100C0600F582E4340FF583E493FEE54425E0246998
:100C1600F582E43400F583EEF0A3E4F0E54425E044
:100C26002469F582E43400F583C083C082E0FEA324
:100C3600E0FFE54625E0249EF582E4340FF583E4E3
:100C460093FDEEEF4DFFD082D083EEF0A3EFF002DE
:100C56000D8DE5451219B50CA02D0CA5410CAA4227
:100C66000CAF430CB4440CB9450CBE460CC3470C40
:100C7600CD480CC8490CD24C0CD74E0CDC4F0CE1BD
:100C8600500CE6520CEB530CF0540CF5550CFA597B
:100C96000CE6720CF07400000CFF7545C0805D75A3
:100CA60045F7805875457C8053754539804E7545A6
:100CB600DE80497545F980447545F1803F7545EFFD
:100CC600803A75450680357545F68030754538801D
:100CD6002B754537802675453F80217545F3801C69
:100CE60075455080177545ED80127545F8800D7570
:100CF600453E800875456E8003E4F545E54425E0EC
:100D06002469F582E43400F583E4F0A3E545F08038
:100D160076E544D39406401AE544940D5014E5450F
:100D2600C39401400DE545D394055006E5452426B8
:100D3600F546E54625E0249DF582E4340FF583E487
:100D460093FEE54425E02469F582E43400F583EE5C
:100D5600F0A3E4F0E54425E02469F582E43400F5E7
:100D660083C083C082E0FEA3E0FFE54625E0249E23
:100D7600F582E4340FF583E493FDEEEF4DFFD08268
:0A0D8600D083EEF0A3EFF0D20E22AE
:10383300E4FFEF25E02479F582E43400F583E4F036
:0A384300A3F00FEFC3940540E92243
:0638D600131313541FFF41
:0938DC00EF5407900FED93FF2259
:102FAB007B007A007927753900753A037F8F1236CB
:102FBB0061300C03023833AF271238DC900079E410
:102FCB00F0A3EFF0E5271238D690007BE4F0A3EFE7
:102FDB00F0AF281238DC90007DE4F0A3EFF0E52889
:102FEB001238D690007FE4F0A3EFF0AF291238DC53
:0B2FFB00900081E4F0A3EFF0D20E2262
:1038A000E4FFE4900079F0A3F00FEFC3940540F239
:0338B000D20E2213
:1037C700E4FEEFFDEE25E02469F582E43400F5839D
:0D37D700E4F0A3EDF00EEEC3940D40E622E9
:10000E00E4FF74062FF582E43400F583E4F00FEF7D
:10001E00C3941040ED900069E0FEA3E0FF30E007CE
:10002E00900014E04408F0EF30E10790000DE0443A
:10003E0008F0EF30E207900006E04408F090006A06
:10004E00E030E307900009E04408F0900069E0FE1C
:10005E00A3E0FF30E407900011E04408F0EF30E534
:10006E0007900015E04408F0EF30E60790000FE02F
:10007E004408F090006AE030E70790000CE0440876
:10008E00F0900069E0FEA3E0FFEE30E00790001371
:10009E00E04408F0EE30E107900012E04408F0EE84
:1000AE0030E20790000BE04408F0900069E0A330C6
:1000BE00E307900007E04408F0900069E0FEA3E03B
:1000CE00FFEE30E407900008E04408F0EE30E5075C
:1000DE0090000EE04408F090006BE0FEA3E0FF30CD
:1000EE00E007900014E04420F0EF30E10790000D9F
:1000FE00E04420F0EF30E207900006E04420F0905C
:10010E00006CE030E307900009E04420F090006BB3
:10011E00E0FEA3E0FF30E407900011E04420F0EF92
:10012E0030E507900015E04420F0EF30E607900030
:10013E000FE04420F090006CE030E70790000CE0F8
:10014E004420F090006BE0FEA3E0FFEE30E007905D
:10015E000013E04420F0EE30E107900012E044205E
:10016E00F0EE30E20790000BE04420F090006BE0E0
:10017E00A330E307900007E04420F090006BE0FE10
:10018E00A3E0FFEE30E407900008E04420F0EE30EC
:10019E00E50790000EE04420F090006DE0FEA3E035
:1001AE00FF30E007900014E04410F0EF30E10790CC
:1001BE00000DE04410F0EF30E207900006E044102E
:1001CE00F090006EE030E307900009E04410F090EC
:1001DE00006DE0FEA3E0FF30E407900011E0441054
:1001EE00F0EF30E507900015E04410F0EF30E60731
:1001FE0090000FE04410F090006EE030E7079000A2
:10020E000CE04410F090006DE0FEA3E0FFEE30E055
:10021E0007900013E04410F0EE30E107900012E07A
:10022E004410F0EE30E20790000BE04410F0900026
:10023E006DE0A330E307900007E04410F090006DEE
:10024E00E0FEA3E0FFEE30E407900008E04410F07B
:10025E00EE30E50790000EE04410F090006FE0FEE7
:10026E00A3E0FF30E007900014E04404F0EF30E12B
:10027E000790000DE04404F0EF30E207900006E036
:10028E004404F0900070E030E307900009E044046D
:10029E00F090006FE0FEA3E0FF30E407900011E065
:1002AE004404F0EF30E507900015E04404F0EF3021
:1002BE00E60790000FE04404F0900071E0FEA3E02A
:1002CE00FF30E007900014E04480F0EF30E107903B
:1002DE00000DE04480F0EF30E207900006E044802D
:1002EE00F0900072E030E307900009E04480F09057
:1002FE000071E0FEA3E0FF30E407900011E04480BF
:10030E00F0EF30E507900015E04480F0EF30E6079F
:10031E0090000FE04480F0900073E0FEA3E0FF3009
:10032E00E007900014E04402F0EF30E10790000D7A
:10033E00E04402F0EF30E207900006E04402F09055
:10034E000074E030E307900009E04402F09000737F
:10035E00E0FEA3E0FF30E407900011E04402F0EF6E
:10036E0030E507900015E04402F0EF30E60790000C
:10037E000FE04402F0900075E0FEA3E0FF30E007CE
:10038E00900014E04401F0EF30E10790000DE044DE
:10039E0001F0EF30E207900006E04401F0900076A5
:1003AE00E030E307900009E04401F0900075E0FEB4
:1003BE00A3E0FF30E407900011E04401F0EF30E5D8
:1003CE0007900015E04401F0EF30E60790000FE0D3
:1003DE004401F0900076E030E70790000CE0440115
:0403EE00F090007516
:1003F200E0FEA3E0FFEE30E007900013E04401F0DE
:10040200EE30E107900012E04401F0EE30E2079096
:10041200000BE04401F0900075E0A330E307900088
:1004220007E04401F0900075E0FEA3E0FFEE30E447
:1004320007900010E04420F0EE30E507900010E055
:100442004410F0EE30E607900010E04404F0900013
:1004520077E0FEA3E0FF30E00790000BE04404F0F9
:10046200EF30E107900012E04404F0EF30E2079031
:100472000013E04404F0900078E030E30790000CB1
:10048200E04404F0900079E0FEA3E0FF30E0079042
:100492000007E04480F0EF30E10790000BE0448079
:1004A200F0EF30E207900012E04480F090007AE032
:1004B20030E307900013E04480F090007AE030E4EB
:1004C2000790000CE04480F090007BE0FEA3E0FF88
:1004D20030E00790000BE04402F0EF30E1079000BB
:1004E20012E04402F0EF30E207900013E04402F021
:1004F20090007CE030E30790000CE04402F09000B2
:100502007DE0FEA3E0FF30E007900011E04440F000
:10051200EF30E107900009E04440F0EF30E207904D
:100522000006E04440F090007EE030E30790000DCA
:10053200E04440F090007EE030E407900014E04494
:1005420040F090007FE0FEA3E0FF30E00790001350
:10055200E04440F0EF30E10790000CE04440F0EF5F
:1005620030E20790000FE04440F0900080E030E37A
:1005720007900015E04440F0900081E0FEA3E0FF08
:1005820030E00790000EE04440F0EF30E1079000C9
:1005920008E04440F0EF30E207900007E04440F00A
:1005A200900082E030E30790000BE04440F09000BE
:1005B20082E030E407900012E04440F0C2937F01F1
:1005C2001239147F401238637F01123914D2937F9B
:1005D20001123914C2937F011239147FC012386399
:1005E200E4F53774062537F582E43400F583E0FF3D
:0F05F2001238630537E537C3941040E7D29322E0
:103863007E08C290EF139291EFC313FFD2901EEE26
:06387300D3940050ED2289
:1037A900AE0753050FEDC3940A5006ED2430FFFD13
:0E37B90022EE6005ED2457FF22ED2437FF229B
:101B93008F638D648B65E564701FE565701BAB66B1
:101BA300AA67A96874301218E1AB66AA67A968909E
:101BB3000001E41218F37F0122E4F569FCE5636494
:101BC300646009E56364756003021C6FE56575F085
:101BD3006484F56A601AFDE4FF1237A9AB66AA674D
:101BE300A968AE040C8E82758300EF1218F3801877
:101BF300E564B40313AB66AA67A968AF040C8F82CC
:101C030075830074301218F3E56575F0648485F00C
:101C13006AE56A75F00A84FD6019E4FF1237A9AB1F
:101C230066AA67A968AE040C8E82758300EF12184A
:101C3300F38018E564B40213AB66AA67A968AF041E
:101C43000C8F8275830074301218F3E56A75F00AFD
:101C530084ADF0E4FF1237A9AB66AA67A968AE04A6
:101C63000C8E82758300EF1218F3806CE56554F0D7
:101C73006028E563B458047F0180027F00E565C4F2
:101C8300540FFD1237A9AB66AA67A968AE040C8E80
:101C930082758300EF1218F3801CC3E5646480949B
:101CA300824013AB66AA67A968AF040C8F82758361
:101CB3000074301218F3E563B458047F0180027F87
:101CC30000AD651237A9AB66AA67A968AE040C8E8E
:101CD30082758300EF1218F3AB66AA67A9688C823A
:0A1CE300758300E41218F3AF042229
:10149D008B518A528953E4F55AF55BAB54AA55A981
:1014AD0056AF5AEF3395E08F82F5831218B4FE6470
:1014BD00256041D3E55B6480949E4003AF5B22EED3
:1014CD007003AF5B22AB54AA55A956AF5A055AEF1C
:1014DD003395E08F82F5831218B4FFAB51AA52A950
:1014ED0053AE5B055BEEFD3395E08D82F583EF1218
:1014FD0018F380A7AF5AEF3395E08F82F583A3AB36
:10150D0054AA55A9561218B4F5606473706BAB5795
:10151D00E559F92403F559E558FA3400F55812192F
:10152D00958B5D8A5E895F055A055AE4F55CAB5D66
:10153D00AA5EA95FAF5CEF3395E08F82F583121839
:10154D00B470030214A8C3E55B6480949E4003024B
:10155D0014A8055CEF3395E08F82F5831218B4FF64
:10156D00AB51AA52A953AE5B055BEEFD3395E08DF1
:10157D0082F583EF1218F380B5E560B4251E055A88
:10158D00055AAB51AA52A953AF5B055BEF3395E0FA
:10159D008F82F58374251218F30214A8E560B463E5
:1015AD0032055A055AAB57E559F92402F559E55854
:1015BD00FA3400F55812196AFFAB51AA52A953AE6D
:1015CD005B055BEEFD3395E08D82F583EF1218F32D
:1015DD000214A8E4F561F55CAF5AEF3395E0FEEF28
:1015ED002401FFE43EFEAD5CED3395E0FCED2FF5FF
:1015FD0082EC3EF583AB54AA55A9561218B4F5608A
:10160D00C3648094B0401ED3E560648094B95015D6
:10161D00E56024D0FFE56175F00AA42FF561055C46
:10162D00E55CB403B3AF5AEF3395E0FEEF2401FF51
:10163D00E43EFEAD5CED3395E0FCEF2DFFEE3CFEA0
:10164D00AB54E5562FF9E5553EFA8B5DF55E895F96
:10165D00E55A2402255CF55A12189BFF249C600F55
:10166D0024EF600B24FD6007242060030214A8AB57
:10167D00570559E559AA587002055814F912189BC7
:10168D00F562E55BFD3395E0FCE5532DF9E5523C44
:05169D00855166F567B0
:1016A2008968AB62AD61121B93EF255BF55B021497
:0216B200A8226C
:10387900E50D150D7002150C14450C6006ED1218B6
:04388900E180ED22CB
:08392D00C2998F993099FD2227
:102BD5008B3C8A3D893E754E00754F0075503F8B85
:102BE500548A558956854E57854F588550597B01CE
:102BF5007A00799612149DAE070EEFFD3395E0FC31
:102C050074962DF58274003CF583740DF0AF060EB5
:102C1500EFFD3395E0FC74962DF58274003CF58349
:102C2500740AF0E4FDC3EE6480F8ED6480985018F2
:102C3500EDFB3395E0FA74962BF58274003AF58333
:092C4500E0FF12392D0D80DD22A3
:1034C8001238B312306012394212394112391D785C
:1034D80019E6FF5401D3940040F5121F3B7819E612
:1034E800FF1206017819E6FF1226977819E6FF12EF
:0834F800356DE47819F680D768
:1038B300758921758851759850758DFF438780757B
:0338C300A88322B5
:09391400EFD394034002DFFE2210
:03000B000220547C
:10205400C0E0C0F0C083C082C0D075D000C000C052
:1020640001C002C003C004C005C006C007758A6071
:10207400758CFF781606E675F00A84E5F0600302B5
:10208400210D122CC67816E675F06484E5F0703BD9
:10209400F678197601781206E675F00A84E5F07090
:1020A4002A7819E64402F67812E6FF75F03284E5E0
:1020B400F070187819E64404F6EF75F06484E5F0DE
:1020C40070097812F67819E64408F630053B90005A
:1020D4002AE004F0D394134006E4F0D2A5802A90B9
:1020E4000058E0FF700B90002AE0B40104C2A58000
:1020F40018EFB4010B90002AE0B40404C2A58009CF
:1021040090002AE0B40802C2A57815E6603806E615
:10211400D3949F40312008247817E6B4021E781C1B
:10212400E660197818E6FFC39408500EEF5403FFD5
:10213400BF0302D2197818068002D21978177600E4
:10214400C20878157600D007D006D005D004D00395
:10215400D002D001D000D0D0D082D083D0F0D0E053
:012164003248
:03000300022A5A74
:102A5A00C0E0C0D075D000C000C006C0072008651D
:102A6A00781706E6FFB4020C7815E6D39491405520
:102A7A00D20880517810E6FEC313F67815E6D3948F
:102A8A001040067810E64480F6EF640A6004EFB45A
:102A9A001A077810E618F6802CEFB412127810E6AE
:102AAA00B4BF0418E6601E781C7600D2088016EFC0
:102ABA00B42212D219781876007810E6F4186660F3
:102ACA0004C219D20878157601D007D006D000D0F2
:042ADA00D0D0E03246
:030000000238FFC4
:0C38FF00787FE4F6D8FD75816B0234C8B8
:10189B00BB010689828A83E0225002E722BBFE024B
:0918AB00E32289828A83E493227E
:1018B400BB010CE58229F582E5833AF583E02250E9
:1018C40006E92582F8E622BBFE06E92582F8E22233
:0D18D400E58229F582E5833AF583E493224D
:1018E100BB010689828A83F0225002F722BBFE01E6
:0218F100F322E0
:1018F300F8BB010DE58229F582E5833AF583E8F02B
:10190300225006E92582C8F622BBFE05E92582C8D6
:02191300F222BE
:10191500BC000BBE0029EF8DF084FFADF022E4CCB6
:10192500F875F008EF2FFFEE33FEEC33FCEE9DEC7F
:10193500984005FCEE9DFE0FD5F0E9E4CEFD22EDC5
:10194500F8F5F0EE8420D21CFEADF075F008EF2F0F
:10195500FFED33FD4007985006D5F0F222C398FD00
:051965000FD5F0EA229D
:10196A00BB010A89828A83E0F5F0A3E02250068748
:10197A00F009E71922BBFE07E3F5F009E31922890A
:0B198A00828A83E493F5F0740193223D
:10199500BB010789828A83021A115005E9F8021AE8
:1019A50008BBFE05E9F8021A1A89828A83021A23FE
:1019B500D083D082F8E4937012740193700DA3A3C1
:1019C50093F8740193F5828883E4737402936860D5
:0619D500EFA3A3A380DFD5
:1019DB00D083D082F8E4937012740193700DA3A39B
:1019EB0093F8740193F5828883E473740293B5F0D2
:0D19FB00067403936860E9A3A3A3A380D83A
:091A0800E6FB08E6FA08E6F92203
:091A1100E0FBA3E0FAA3E0F922D6
:091A1A00E2FB08E2FA08E2F922FD
:0C1A2300E493FB740193FA740293F9221F
:00000001FF
