:103A09008F3E8D3F123A577FCC12362BAF3E12367E
:0A3A19002BAF3F12362B123ADB22CE
:103911008F2C8C2D8D2E123A577FCC12362BAF2C3B
:1039210012362BAF2E12362BE52DFF12362B123A03
:02393100DB2297
:1035B5008F358B368A378938123A577FCC12362B9E
:1035C500AF3512362BAB360538E538AA377002050C
:1035D5003714F9120E10FF12362BE53A153A700220
:0B35E500153914453970DE123ADB2264
:1038C1008F38E4F539123A577FCC12362B200C147D
:1038D100AF3812362B123A577FCD12362BD21D122A
:0A38E100370F8F39123ADBAF39229E
:10353D008F2CE4F52DF52E123A577FCC12362B2019
:10354D000C22AF2C12362B123A577FCD12362BC2CE
:10355D001D12370F752D008F2ED21D12370FEFFE56
:0C356D00E4EE422D123ADBAE2DAF2E2210
:103333008E3B8F3C8B3D8A3E893FD3E53C9401E530
:103343003B94004008E53C153C7002153BC21D123E
:10335300370FAB3D053FE53FAA3E7002053E14F92A
:10336300EF120E56E53C153C7002153B14453B70BD
:10337300DCD21D12370FAB3DAA3EA93FEF120E560A
:03338300023ADB30
:10386B008F358B368A378938123A577FCC12362BE5
:10387B00AF3512362B123A577FCD12362BAB36AAF9
:0B388B0037A938AF3AAE3912333322B0
:103476008F308B318A328933123A577FCC12362BF2
:10348600AF3012362B123A577FCD12362BC21D1291
:10349600370F7536008F37D3E5379535E5369534D2
:1034A6004006853436853537AB31AA32A933AF3776
:0A34B600AE36123333AE36AF3722C4
:10362B008F40754108C296E54030E704D295800281
:10363B00C295123B31E54025E0F540D296123B3165
:10364B00D541E2C296D295120006D29612000630F0
:0A365B009502D20CC296120006225E
:10370F00D295120006754108D296E54025E0F540A6
:10371F00309503434001123B31C296123B31D541E4
:10372F00E7201D04C2958002D295120006D2961290
:07373F000006C296AF402214
:103A5700D295D296120006C20C209502D20CC295BE
:063A6700120006C29622C7
:0D3ADB00C295120006D296120006D2952266
:050006007F0ADFFE226D
:013B31002271
:101EF1004B434D5F504F5745525F4F4E0D0A004BBC
:101F0100434D5F524541445F495251204572726FC2
:101F1100720D0A004B434D5F4952515F504C41597C
:101F21005F535441544520253032780D0A00494E03
:101F31005055545F53574954434820253032782037
:101F410025640D0A0053455420004B434D5F564F05
:101F51004C554D455F4354524C2025640D0A004BAE
:101F6100434D5F494E5055545F534F5552434520A1
:101F7100253032780D0A004B434D5F4C495354458F
:101F81004E5F4D4F444520253032780D0A00417097
:101F910070436F6D6D616E6420253032782025307D
:101FA100327820253032780D0A0003C5000800067A
:101FB100230031520075000000802F80005C00007A
:101FC1000F80002C00805A800008000058800032E9
:101FD1000000060080258000B400000D0105080006
:101FE10064005E01E803E40C102700101112303187
:101FF1003233342021222400011011121300020374
:1020010001050706041918171615141312110001FA
:10201100020304050607080903040506080A0F1947
:0C202100326400020406080A0C0D0E0FC9
:083B1300E4900058F00239EEC5
:1039EE007D017F05123A097F02123B29900059741E
:0B39FE0064F07BFF7A1E79F10233D9E0
:10202D008F2430940302214C7F011238C18F25ADCE
:10203D00257F03123A09300C097BFF7A1F790002C4
:10204D0033D9E5255401D3940040031217DEE5255D
:10205D005402D39400404B7F181238C190004FEFBB
:10206D00F07F1A1238C1900067EFF0900059E070C0
:10207D00082014057F07123B2990004FE0700312D2
:10208D003A96122FCC123B3690004EE0FF6404605E
:10209D0004EFB4050D7FA212353D90002CEEF0A398
:1020AD00EFF0E5255408D394004003121A24E525DA
:1020BD005404D3940040167F2F1238C190002BEF9B
:1020CD00F090003BE0B438057F38123B29E52554EC
:1020DD0010D394004003123429E5255440D39400C5
:1020ED0040247FA312353D900056EEF0A3EFF04E45
:1020FD00600F90003BE06401600C7F16123B29805D
:10210D00057F15123B29E5255420D3940040247FEB
:10211D00A51238C1900029EFF07BFF7A1F7915E4E5
:10212D008F41F540F53FF53E1233D9900029E0FF80
:10213D00123665E5255480D3940040031223762290
:1017DE007B007A00792B753900753A047F401238F8
:1017EE006B300C05E4FF023B29E52F5403900058A3
:1017FE00F07F201238C18F297F811238C190008D61
:10180E00EFF0AD297F201225648F2A7BFF7A1F7996
:10181E002FE4852941F540F53FF53E8F45F544F51A
:10182E0043F542852B49F548F547F5461233D9E580
:10183E002AC39404400FE52AD39408500890004E12
:10184E00E52BF0800690004EE52AF07F2F1238C16E
:10185E0090002BEFF0E4F527AD277F091225648F5A
:10186E002AE52A2430FF1238C18F29AD297F301284
:10187E0025647483252AF582E43400F583EFF005A0
:10188E0027E527C3940840D07F391238C18F29E548
:10189E0029540FFD7F39122564900061EFF0E52980
:1018AE00C4540FFD7F39122564900062EFF07F3A29
:1018BE001238C112255B900063EFF07F3B1238C1E6
:1018CE0012255B900064EFF07F381238C18F29AD7E
:1018DE00297F38122564900065EFF07F3C1238C1E5
:1018EE0012255B900066EFF07F241238C18F2AAD6F
:1018FE002A7F241225647D507F2E123A097D467F61
:10190E0025123A097D467F26123A09752B44752C0D
:10191E0044752D30E4F52EFB7A00792BF539753AA6
:10192E00047F801235B5E4F528E4F527E527901FEE
:10193E00AB93FF742C2527F8A6070527E527B405DA
:10194E00EBE52804F52B7B007A00792B75390075B1
:10195E003A067F8B1235B5E4F527E527901FB09335
:10196E00FF742C2527F8A6070527E527B409EBE415
:10197E00F527742C2527F8E6FFE52875F009A42431
:10198E00B9F582E4341FF583E5822527F582E43527
:10199E0083F583E4934FF60527E527B409D4E528AC
:0319AE0004F52B12
:1019B1007B007A00792B753900753A0A7F8C1235D4
:1019C100B50528E528C3940450030219377BFF7A33
:1019D1001F79DD753900753A0E7F8E1235B5E490A9
:1019E100004FF0900067F0900029F0C201C214C2CC
:1019F1000690008BF0FFFE12214D7F02123B2990D1
:101A01000059740AF0123B36122FCC7FFF12377C3B
:101A1100900029E0FF123665900058E0FDE4FF12C6
:031A210037DF228A
:102D84007BFF7A1F794612374BE4F527AD277F0482
:102D940012395512000E7FFF123B0A7FFF123B0AC5
:102DA4000527E527C3946440E3E4F529F52AF52BC8
:102DB400F52C752D02FB7A007929F539753A057FD2
:102DC400401235B57D277F2F123A09E4F527E52710
:102DD4002430FFE4FD123A090527E527C39408408F
:102DE400ED7DAB7F24123A097D017F05123A097FFC
:0B2DF40002123B29900059741EF022CF
:102376007B007A0079277534007535087F9812340A
:10238600768F2FE52F6402600302246CE52724F87C
:10239600700302242E24E8602F24F5605714606E23
:1023A60024FD60030224477BFF7A1F794BE48528CE
:1023B60041F540F53FF53E1233D990002BE528F064
:1023C6007F38123B2902246C7BFF7A1F7960E485F3
:1023D6002841F540F53FF53E1233D9AD287F20124E
:1023E600256490004EEFF0123B23123AE8E4FF1208
:1023F6003B2980727BFF7A1F7978E4852841F54076
:10240600F53FF53E1233D9AF28122DFF80587BFFDA
:102416007A1F7978E4852841F540F53FF53E123379
:10242600D9AF28123810803EA206E433FFE52854BF
:10243600016F7032E52830E22D90003B7438F08051
:10244600257BFF7A1F798FE4852F41F540F53FF50F
:102456003E852745F544F543F542852849F548F577
:0B24660047F5461233D97F0102377C96
:102BFE00EF24F7602524E5602F24F9601624FB608E
:102C0E002024F8606714605D24197067ED901FEB47
:102C1E0093FF22ED901FF893FF22ED901FFE93FF7E
:102C2E0022ED90200693FF22E4F53E90004AE0D379
:102C3E0094004003433E01900048E0D394004003CB
:102C4E00433E02900049E0FF25E025E0423E900021
:102C5E004BE0FFC454F0423EA3E0FFC4333354C0F4
:102C6E00423EAF3E22ED90202393FF22ED9020199D
:062C7E0093FF227F0022FB
:09255B008F29E529540FFD7F389A
:10256400E4FEEF24F7604A24E5607024F9602D242A
:10257400FB605324F8700302262914700302261406
:102584002419600302263EEE901FEB93B50503AFBA
:1025940006220EEEC3940D40EE7F0022EE901FF84B
:1025A40093B50503AF06220EEEC3940640EE7F01F9
:1025B40022EE901FFE93B50503AF06220EEEC394E0
:1025C4000840EE7F0022EE90200693B50503AF0687
:1025D400220EEEC3941340EE7F0022ED30E1047F1F
:1025E4000180027F00900048EFF0ED13135403A321
:1025F400F0ED30E0047F0180027F0090004AEFF0AC
:10260400EDC45403A3F0EDC413135403A3F0802AC0
:10261400EE90202393B50503AF06220EEEC3940A71
:1026240040EE7F0022EE90201993B50503AF0622F9
:0D2634000EEEC3940A40EE7F00227F0022CC
:1037AE008B3F8A408941EF6027AB3F0541E541AA37
:1037BE00407002054014F9120E10FEAB420544E5AE
:1037CE0044AA437002054314F9EE120E561F80D61A
:0137DE0022C8
:102725006752656D6F766554696D65722025640D18
:102735000A004D4B434D5F507265656D707469625B
:102745006C653A25642025642F25640D0A00496EC1
:10275500707574536F757263653A2564206C617387
:10276500743A2530327820253032780D0A00496ECA
:10277500707574536F75726365423A2564206C6198
:1027850073743A253032780D0A004B434D5F53522E
:10279500435F56414C494420452025642025640D5E
:1027A5000A004B434D5F5352435F56414C49443AEF
:1027B50025303478204C6173743A253034780D0A0D
:1027C500004B434D5F5352435F56414C4944203DB6
:1027D500204C6173743A253034780D0A00000102EB
:1027E500030020004010004000010002000400200A
:0927F5000004050608090A0B079F
:013B32002270
:10369F008F2490008BE0602F04F0D394C840287FD4
:1036AF00401238C18F257BFF7A277925E48F41F5AA
:1036BF0040F53FF53E1233D9E490003BF0AF2512B1
:0836CF003508E490008BF022A5
:103933008F37123AE8D218E537600D753830300604
:103943000AC2064338028003753820AD387F080267
:023953003A092F
:10397700AD07EDC394FF500E7F09122BFEEF4410E5
:0E398700FD7F09023A09E4FD7F09123A092288
:10322A008F3A8D3B123B23E53B60167483253AF5B2
:10323A0082E43400F583E0C394125019E004F0806C
:10324A00147483253AF582E43400F583E0D39400BC
:10325A004003E014F0AD3A7F09122BFE8F3C7483D1
:10326A00253AF582E43400F583E0FD7F30122BFE27
:0A327A00AD07E53C2430FF023A09DD
:102641008F3A8D3B123B23E53A24C7F53DE53B60CC
:10265100167461253DF582E43400F583E0C39409E5
:102661005019E004F080147461253DF582E43400D2
:10267100F583E0D394004003E014F0E53A24C6600A
:102681001614603814605114700302271114606429
:1026910024056003022724900061E0FD7F39122B9D
:1026A100FE8F3C900062E0FD7F39122BFE8F3DE5ED
:1026B1003DC454F0453CFD7F39023A09900063E086
:1026C100FD7F39122BFE8F3CE4F53DE53DC454F00E
:1026D100453CFD7F3A023A09900064E0FD7F3912E2
:1026E1002BFE8F3C753D08E53DC454F0453CFD7F14
:1026F1003B023A09900066E0FD7F39122BFE8F3CC8
:10270100753D01E53DC454F0453CFD7F3C023A096D
:10271100900065E0FD7F38122BFE8F3CAD3C7F3889
:04272100123A09223D
:0D3AE800301409C214E4FD7F09123A0922CE
:063B2300300602C206227A
:0934FF00F582E43400F583E0FFDE
:103508008F27900076E0542CF0900075E054F8F086
:10351800A3E054FBF0123B23123AE890003BE0FF93
:103528006003B4010B90004EE527F0FDFF1230391F
:053538007F01023B29A8
:10310D007BFF7A277937900027E02433F582E4346A
:10311D0000F583E0FFE48F41F540F53FF53E90006B
:10312D0027E0FFE48F45F544F543F54290003CE080
:10313D00FFE48F49F548F547F5461233D990003C29
:10314D00E0601B900027E024331234FF90003CE038
:10315D00FF900027E004F0C39F400BE4F0229000A5
:07316D004EE0FF12350822BD
:10317400E490003BF090005AE0FF601190003DE0C5
:10318400FEC39F500874332E1234FF802090005ADF
:10319400E0FF90003DE0C39FFFE49400FE74E22F43
:1031A400F58274273EF583E493FF12350890005AA4
:1031B400E02404FFE433FE90003DE004F0C39FEEFE
:0B31C4006480F87480984002E4F02260
:103039008F2C8D2DAD2C7F20122BFEAD077F2012FA
:103049003A097F201238C1E48F49F548F547F5461A
:103059007BFF7A277953852C41F540F53FF53E856D
:103069002D45F544F543F5421233D9E52DD39403A3
:103079005027AD2D7F40123A097F201238C1E48FC5
:1030890045F544F543F5427BFF7A277973852C4151
:0A309900F540F53FF53E1233D92251
:10214D008E358F36E5364535700302223DE4F53781
:10215D00F538E53825E024E6F582E43427F583E407
:10216D0093F539740193F53AE5355539FEE5365554
:10217D003A4E603DE53A64204539700C90002EE0F2
:10218D007002A3E070148029E53A64404539700A65
:10219D0090002EE07002A3E07017E5389027F693BB
:1021AD00FFAE37053774332EF582E43400F583EF37
:1021BD00F00538E5386408709990005AE06537608D
:1021CD000BE490003DF090005AE537F0E4F53890BF
:1021DD00005AE0FFE538C39F501C74332538F58253
:1021ED00E43400F583E0FFC394094006EFD3940C6B
:1021FD004004053880D990003CE06538600BE490D0
:10220D000027F090003CE537F07BFF7A27798F901F
:10221D00003CE0FFE48F41F540F53FF53E90005A5C
:10222D00E0FFE48F45F544F543F5421233D9801DA7
:10223D00E490003CF090005AF0900027F090003DA3
:10224D00F090002EF0A3F0900052F0A3F0900092C9
:08225D00E535F0A3E536F0229F
:101A24007F1C12353D8E278F28900092E065277029
:101A340004A3E065287003021BE5C21C7BFF7A2720
:101A440079A7E4852841852740F53FF53E9000922B
:101A5400E0FEA3E0FFE48F458E44F543F5421233E4
:101A6400D9E4F529E52925E024E6F582E43427F5CF
:101A740083E493F52A740193F52BE527552AFEE5B3
:101A840028552B4E7003021B2B900092E0552AFE22
:101A9400A3E0552B4E6003021B2BD21CE52A705A7F
:101AA400E52B24C0602D242070507FA012353D907A
:101AB400002EEEF0A3EFF04E6010E4900043F0A38C
:101AC400F0FDFC7FA412391180307F0E123B29C235
:101AD4001C80277FA112353D900052EEF0A3EFF059
:101AE4004E6010E4900043F0A3F0FDFC7FA4123993
:101AF4001180077F0F123B29C21C301C36E5299048
:101B040027F693FF90004EE0FD123039E529902727
:101B1400F69390004EF0E490003BF07F01123B29D5
:101B2400E490008BF0800C0529E529C39408500348
:101B3400021A68301C03021BDEE4F529E52925E0BE
:101B440024E6F582E43427F583E493F52A740193BB
:101B5400F52BE527552AFEE528552B4E707090008D
:101B640092E0552AFEA3E0552B4E6062E52B852AB0
:101B7400F01210551B8C00201B9E00401BB010005F
:101B84001BB7400000001BBCE490002EF0A3F0FF44
:101B94001236657F10123B29801EE4900052F0A398
:101BA400F0FF1236657F11123B29800C7F12123B25
:101BB4002980057F13123B29E5299027F693FF908E
:101BC400004EE0B5071490008B7401F0800C0529D9
:101BD400E529C394085003021B40AF28AE27022115
:101BE4004D7BFF7A2779C6E4852841852740F53F58
:061BF400F53E1233D92278
:103ABC0020524553455400010204000110202130CE
:013B3300226F
:100601008F24122D08900059E0D394004016300138
:1006110003020B10E5245402D394005003020B1083
:10062100E014F02230012530190BC219780AE6B422
:1006310059031239EE200703020B10C207D21378B7
:1006410015E664186003020B100239EE200703025D
:1006510006D2C207D2137815E624F8602B24F7607E
:100661002214601824FE600D24EC6038241070619F
:10067100123174805C7F011233868055E4FF12339E
:1006810086804E1238EB804990003BE0FFC39438DE
:10069100400DEFD3943E5007E4FF123B2980321204
:1006A1003995802D90003BE0FFC394384006EFD38D
:1006B100943A40077F38123B29801690003BE004B2
:1006C100F0D3943A40037438F090003BE0FF123BC2
:1006D100297817E6600C06E6D3943C4005E4F678E9
:1006E10013F6201903020AEAC219780AE612102F3A
:1006F1000ADE000AE5030AC20408980508BE060AD4
:10070100C9070AAA080AAF0B0A950C08520D084C32
:100711000E0A1010086F11084F120A1A130A7714E3
:10072100092A160A801707CD1807A519089E1A0964
:10073100B81B0AD7400AD0420ABB440892450AB402
:10074100460AA3480A9C4A0A8E4C07D04D0A894E94
:10075100080E510A6E5409DA550A6556078C580776
:100761006A5909965A00000AEAB2013001087F0865
:10077100123B29020AEA7D017F05123A097F021222
:100781003B29900059741EF0020AEA90003BE0B444
:1007910009047F0480027F008F25AD257F09121394
:1007A10028020AEA7BFF7A3A79BC12374B12000E13
:1007B100122D84020AEA90003BE004F0D3943E40FB
:1007C100037439F090003BE0FF123B29020AEA90E2
:1007D100003BE0FFC3942E4012EFD39435500C78C8
:1007E1001776017D04121328020AEA90003BE0FF0C
:1007F100C394245003020AEAEFD3942B4003020A64
:10080100EA781776017D04121328020AEA90003B68
:10081100E0FFC3942E4012EFD39435500C78177635
:10082100017D03121328020AEA90003BE0FFC39402
:10083100245003020AEAEFD3942B4003020AEA7818
:0B0841001776017D03121328020AEA5B
:10084C00020AEA020AEA7817760190003BE0B43813
:10085C00047F0480027F008F25AD257F381213287A
:10086C00020AEA300603020AEA7817760190003B86
:10087C00E0B438047F0380027F008F25AD257F38DC
:10088C00121328020AEA123A23020AEA12399502D2
:10089C000AEA90003BE0FFC39446400EEFD394501D
:1008AC005008E4FF123B29020AEA7F46123B290258
:1008BC000AEA90003BE0FFC394465003020AEAEFB9
:1008CC00D394504003020AEAE004F0E0B4480C90E0
:1008DC000049E0700690003BE004F090003BE0B46F
:1008EC00490C90004BE0700690003BE004F0900047
:1008FC003BE0B44A0C90004CE0700690003BE004E6
:10090C00F090003BE0D3945040037446F090003BD1
:10091C00E0FF123B299000557432F0020AEA900075
:10092C003BE0FFC394465003020AEAEFD3945040D5
:10093C0003020AEAE014F0E0B44A0C90004CE070B8
:10094C000690003BE014F090003BE0B4490C9000A2
:10095C004BE0700690003BE014F090003BE0B44894
:10096C000C900049E0700690003BE014F090003BC6
:10097C00E0C3944650037450F090003BE0FF123BF0
:10098C00299000557432F0020AEA90003BE0FFC354
:10099C0094465003020AEAEFD394504003020AEA49
:1009AC00781776017D03121328020AEA90003BE0C7
:1009BC00FFC394465003020AEAEFD394504003025B
:1009CC000AEA781776017D04121328020AEA9000CD
:1009DC003BE0FFC3942E4006EFD39435400B123A04
:1009EC00E87F2E123B29020AEA90003BE024D2FF5A
:1009FC00122EEC8F26E526242EFF90003BF0123BA6
:100A0C0029020AEA7D037FA5123A09020AEA90003C
:100A1C004EE0FF64046008EF64056003020AEA908C
:100A2C000029E05403F526B402137D017FA5123A88
:100A3C0009900029E054FCF04401F080117D027F04
:100A4C00A5123A09900029E054FCF04402F0900001
:100A5C0029E0FF123665020AEA7D047FA6123A09E4
:100A6C00807C7D037FA6123A0980737D027FA612DB
:100A7C003A09806A7D017FA6123A0980611238EB2F
:100A8C00805C7F0B123B2980557F0C123B29804EDA
:100A9C007F011233868047E4FF1233868040123B7D
:100AAC0034803B12310D80367F09123508802F7F40
:100ABC000A12350880287F0B12350880217F0C1212
:100ACC003508801A7F0112350880137F0212350811
:100ADC00800C7F031235088005E4FF123508301BAB
:100AEC0023C21B90003BE0FFC394384012EFD39419
:100AFC003A500C3011047D0480027D030213287FD0
:050B0C0038123B292214
:10399500B2063006047F0480027F03AD077F0A125A
:0E39A50013282006057F38123B29123AE8222B
:103A2300B21430140A7F24123B29E4FF023977E4ED
:0A3A3300FF123B297FFF12397722B2
:013B3400226E
:102D0800780FE6FF7008C2A0D2A1D2A28012EFB459
:102D18000108D2A0C2A1D2A28006D2A0D2A1C2A28A
:102D2800E4FE2082010E208303430602208403432D
:102D38000604208503430608EE602EEFC454F02EE7
:102D4800FE7815E6B50616900095E004F0D39408D1
:102D58004029201302D207E4900095F022C213E420
:102D6800900095F07815A60622780F06E6D394020F
:0C2D78004002E4F6C213E4900095F02243
:102E7700200F1830871030860D780E06E6D394039E
:102E87004004E4F6D20FC20AC20B22A287308601A1
:102E9700B3503A300F25A2869211A211301501B313
:102EA7005005780CE67002D21BA2119215780C76A9
:102EB70003E4780EF6C20FC20B800F300B0A780CB2
:102EC7007603E4780EF6C20FD20BC20A22208714CB
:102ED700208611300A0A780C7603E4780EF6C20FC2
:052EE700D20AC20B221B
:103386008F277F2B1238C18F2890003BE064037093
:103396003D1238968F29E527600EE52970047F01D6
:1033A60080027F008F298018E529C3940250057595
:1033B6002902800C0529E529D394054003752902C5
:1033C600E529903AC693F528FD7F2B123A09AF28D6
:0333D600022DFFC6
:1038EB007F2C1238C18F2790003BE0B405130527BE
:1038FB00E527D394044003E4F527AD277F2C123A38
:06390B0009AF270238108D
:10158B004B434D2D4E4F00202D4F46462D002048EE
:10159B00454C4C4F004D5554452020004D5554455E
:1015AB002D2D00564F4C20202000564F4C20004E26
:1015BB004F4953452000465253502000434553504A
:1015CB002000535753502000535253502000424B8E
:1015DB00535020004C504620004C4950530046526B
:1015EB00444C20004345444C20005357444C2000AE
:1015FB00424B444C20002020202020200050434D03
:10160B0000322F34004E49472D4F4E004E49472D87
:10161B004F46004D503300202000425249474800AE
:10162B004657444F4E450046572045727200465769
:10163B00202D00464C5474434554745357547446F0
:10164B005254745352547442525474424C54745303
:10165B004C547400464C5472434554725357547255
:10166B00465254725352547242525472424C5472F8
:10167B00534C5472004D4943314D49433245434815
:10168B004F5245505444454C5952455642004155D2
:10169B00582D494E4F5054494341434F412D4431EE
:1016AB00434F412D4432202D53442D20202D555393
:1016BB00422D202D50432D202045384348202D42CC
:1016CB00542D202048444D492D3148444D492D324D
:1016DB0048444D492D3348444D492D410020204865
:1016EB0049464920322B3143484D4F444520200079
:1016FB0020464C415420534F554E442000322F303E
:10170B00312F30322F30332F30322F31332F3132C4
:10171B002F32332F32332F33332F34322F33322FA9
:10172B00340053442D494E2055442D494E205344EB
:10173B002D4F555455442D4F555450432D4F555403
:10174B0042542D4F555448442D4F55540033324B72
:10175B0034384B35364B36344B38304B39364B31BE
:10176B00313231323831363031393232323432353E
:10177B0036333230333834000002070000243F0088
:10178B000600DB00CF00E600ED00FD000700FF00C8
:10179B00EF00F7128F0039120F00F900F100BD00B6
:1017AB00F61209001E0C70003805360936003F0092
:1017BB00F3083F08F300ED1201003E243028362DCC
:1017CB000000EE240900C0240012C00010181C1CDD
:0317DB001E1E1FB0
:10328400C2A5C2937F01123B0A7F40123A6D7F01AF
:10329400123B0AD2937F01123B0AC2937F01123B75
:1032A4000A7FC0123A6D7F01123B0AE4F524E4FF61
:1032B400123A6D7F01123B0A0524E524C3941040A1
:1032C400ED7F0A123B0AD293E4FDFF1237DFE4FFDD
:0932D4001239D1E4900030F0221F
:1028C1008F24300E05C20E12000EE5245402D3945B
:1028D100005003022981900030E0601514F0700768
:1028E1007F0112377C800A900030E05401FF1237DB
:1028F1007C900059E0D39400400302298130060BFB
:10290100900055E070057F0A123B29200158900084
:1029110055E0605214F07024201406FF123B298008
:102921004590003BE024DCFF122EEC8F25E52524A9
:1029310024FF123B29AF25123977802A30002790D6
:102941000055E0FF75F00584E5F0701AEF75F005AC
:1029510084F52590003BE0FFE52530E0047D028011
:10296100027D0112132820011720061420141130B2
:10297100050E90004FE0540FC3940040031231CF75
:012981002233
:053B2900E4FD02132879
:093B01009000557414F0C200227A
:083B1B0090003BEFF0023B01BA
:101328008F358D36E5367003123B01C205C2A51212
:101338003A3D900075E0540FF0E53512102F13E692
:1013480000141701142902146D06147907141D08D6
:10135800143E0914A40A147F0B14850C148B0E1464
:101368008B0F148B10148B11148B12148B13148B7A
:1013780014149615149C16154D24154D25154D2637
:10138800154D27154D28154D29154D2A154D2B1589
:10139800562E15562F1556301556311556321556E8
:1013A8003315563415563515003815623915623A15
:1013B80015623B15623C15623D15623E157A46156D
:1013C8007A47157A48157A49157A4A156E4B156E7B
:1013D8004C156E4D156E4E156E4F00001584200C81
:1013E8001790004EE0FF64046004EFB4050512276F
:1013F800FE800E12383E80097BFF7A15798B1237F2
:101408004BE490003BF0900055F0D2050215841291
:10141800383E0215847BFF7A15799212374B0215F4
:10142800847BFF7A15799912374B12000E9000557C
:10143800740AF0021584E536B4041D90005574143E
:10144800F0900058E004F0D394024002E4F09000D9
:1014580058E0FD7F44123A09900058E0FD7F0112E0
:1014680037DF0215849000557432F0123B350215AF
:1014780084122A3B0215841235F00215841234C0F6
:10148800021584E53524F2FF123A830215841232DC
:10149800DD0215841227FED205021584E5366003A5
:1014A800B404089000557450F0D200E536C3940295
:1014B8004005E536B4040B7BFF7A1579A012374B4B
:1014C800800EE536B402097BFF7A1579A712374BEF
:1014D800E536B4040A7D037F08123A09021584E54B
:0114E80036CD
:1014E900640360030215849000557414F07D027F33
:1014F90008123A09021584E536C394034015900091
:101509003BE0B4380EE536B404047F0180027F0065
:10151900123933E536B4020B7BFF7A1579AE1237EF
:101529004B80587BFF7A1579B512374B90002BE029
:10153900FD7F04123955E53670419000557450F01D
:10154900D2008037AD36AF35122B75802E123AE8AE
:10155900AD36AF35122AE28022123AE8AD36AF3500
:10156900122F5C8016123AE8AD36AF35121D8D8008
:101579000A123AE8AD36AF3512247190003BE535D1
:02158900F0224E
:1034C0007F091238C18F3730141390003BE0B40CE1
:1034D0000C0537E537D394074003E4F537AD377F64
:1034E00009123A097BFF7A1579BA12374BE5371280
:0F34F00010A9301409E4900031F0FF123977224F
:102EEC00EFB407005067902EF9F8282873022F0EC4
:102EFC00022F23022F2F022F32022F47022F5302B1
:102F0C002F56900049E060037F012290004AE06058
:102F1C00037F02227F032290004AE060037F02229B
:102F2C007F03227F032290004BE060037F042290FA
:102F3C00004CE060037F05227F002290004CE06093
:102F4C00037F05227F00227F06227F07227F00223B
:102B75008F378D38E538C39403401E90003BE0B590
:102B8500371724DCFFE538B404047D0180027D009D
:102B950012322A9000557450F074DC2537F53775DC
:102BA500F004A4243EF97416123746E538B4020E33
:102BB5007D207F041210AE7D207F050210AE748348
:102BC5002537F582E43400F583E0F539C3940950DF
:102BD500147D2D7F041210AEC374399539FD7F0520
:102BE5001210AE80117D207F041210AEE539242726
:092BF500FD7F051210AED2002292
:102AE2008F378D38E538C39403401E90003BE0B524
:102AF200371724D2FFE538B404047D0180027D003B
:102B020012322A9000557450F074D22537F5377579
:102B1200F004A4245FF97416123746E538B4020EA5
:102B22007D207F041210AE7D207F050210AE7483DB
:102B32002537F582E43400F583E0F539C394095072
:102B4200147D2D7F041210AEC374399539FD7F05B3
:102B52001210AE80117D207F041210AEE5392427B9
:102B6200FD7F051210AEE53870089000557450F0E4
:032B7200D200226C
:102F5C008F378D38E538C39403401D90003BE0B5A6
:102F6C003716E538B404047D0180027D00AF3712BA
:102F7C0026419000557450F074C72537F53775F01D
:102F8C0004A42480F974161237467D207F04121095
:102F9C00AEE538B402077D207F050210AE746125C2
:102FAC0037F582E43400F583E0F5392430FD7F05F4
:102FBC001210AEE53870089000557450F0D2002213
:101D8D008F378D38900075E04450F0A3E0F090004F
:101D9D00557450F07D207F041210AE7D207F05120A
:101DAD0010AEE53724B46056147003021E42147051
:101DBD0003021E79147003021EB0147003021EE795
:101DCD0024056003021EF07BFF7A1579C112374B93
:101DDD00E538C39403401B900048E004F0D3940110
:101DED004002E4F0E4FD7F24122BFEAD077F2412A8
:101DFD003A09E4FF123579AD077F050210AE7BFF7E
:101E0D007A1579C712374BE538C39403401B900000
:101E1D0049E004F0D394024002E4F0E4FD7F241283
:101E2D002BFEAD077F24123A097F01123579AD07DC
:101E3D007F050210AE7BFF7A1579CD12374BE53851
:101E4D00C39403401B90004AE004F0D39401400278
:101E5D00E4F0E4FD7F24122BFEAD077F24123A0936
:101E6D007F02123579AD077F050210AE7BFF7A1523
:101E7D0079D312374BE538C39403401B90004BE0E8
:101E8D0004F0D394024002E4F0E4FD7F24122BFE13
:101E9D00AD077F24123A097F03123579AD077F050F
:101EAD000210AE7BFF7A1579D912374BE538C39402
:101EBD0003401B90004CE004F0D394024002E4F088
:101ECD00E4FD7F24122BFEAD077F24123A097F0417
:101EDD00123579AD077F050210AE7BFF7A1579DFDC
:041EED0012374B223B
:102471008F378D38E53724B9603A14605A14607A81
:1024810014700302251E2404600302253F90007589
:10249100E04440F0A3E0F07BFF7A1579E412374B7A
:1024A100E538C39403500302253FAD38E4FF1230F1
:1024B100A302253F7BFF7A1579E912374B9000750E
:1024C100E04450F0A3E0F0E538C394034070AD3828
:1024D1007F011230A380677BFF7A1579EF12374BAA
:1024E100900075E04450F0A3E0F0E538C394034058
:1024F1004DAD387F021230A380447BFF7A1579F508
:1025010012374B900075E04450F0A3E0F0E538C37A
:102511009403402AAD387F031230A380217BFF7AD8
:102521001579FB12374B900075E04450F0A3E0F0B1
:10253100E538C394034007AD387F041230A39000FF
:10254100557432F074F82537F582E434FFF583E0F1
:0A25510075F005A4FD7F0402395562
:10383E0090004EE0FFC39404400FEFD3940850095C
:10384E00900076E04420F08007900076E054DFF0A0
:0D385E00EF75F006A42499F97416023746A0
:013B3500226D
:10389600AE07EE543024F0601224F060112420703C
:1038A60017EE30E0037F01227F00227F0222EE30F6
:0B38B600E0037F04227F03227F052235
:102DFF008F301238968F31900076E0542CF0E531F9
:102E0F00C394025016EF75F006A424E8F974161255
:102E1F003746900076E04401F080457BFF7A1679C3
:102E2F00F412374BE531242FFD7F051210AEE5303C
:102E3F0024FD601314601914601F24037022900086
:102E4F0076E04402F08019900076E04480F0801024
:102E5F00900076E04440F08007900076E04410F058
:082E6F00123B017F03023B1B33
:103810008F30E53060067E007F0680047E007F00EA
:1038200074FB2FF974163EFA7BFF12374BE53060BC
:0E383000082430FD7F051210AE7F05023B1B01
:102A3B0090004FE0FF540FC394025003022ADEE4D0
:102A4B00F53BEFC4540F75F003A4F5377BFF7A16F3
:102A5B00790112374B122FCC90004FE0540F24FD0D
:102A6B00602414604314604024FE605E24F76016FB
:102A7B0014601324FD24FD502F241570597BFF7A0D
:102A8B0016790802374B74082537F9E43417FA7BAB
:102A9B00FF7542007543007544387F031237AE7BD8
:102AAB00007A00793802374B74082537F9E434176C
:102ABB00FA7BFF7542007543007544387F0312376C
:102ACB00AE7B007A00793802374B7BFF7A16790C94
:072ADB0002374B12383E22C6
:10357900AE07EE700C900048E060037F4C227F5349
:1035890022BE020C90004AE060037F59227F4E223E
:1035990074482EF582E43400F583E0FDB402037F1C
:0C35A9004C22EDB401037F53227F4E2220
:1035F0007F231238C18F3790003BE0B40B16E537BC
:10360000C3943250057537328003E4F537AD377F08
:1036100023123A09E53760097BFF7A1679100237E1
:0B3620004B7BFF7A16791712374B2204
:103A83009000557432F0EF75F006A4242DF97417E5
:033A9300023746B1
:1032DD009000557414F0900075E054BFF07BFF7AA8
:1032ED0016790112374B900044E02401FD90004304
:1032FD00E03400FCE4FF1229828F3E053E7D2F1243
:10330D0010AE90004EE0B4040D90002EE0FEA3E050
:10331D00FFAC06FD800B900052E0FEA3E0FFAC0673
:06332D00FDAF3E02298203
:1027FE00C3900057E09403900056E09400500302FB
:10280E0032DDC3900057E09405900056E0940050DE
:10281E0064900067E0FF131313541FF53790004FB9
:10282E00E0540F640A704E9000557414F0E537D3DF
:10283E0094004041E5379410503B754200754300BB
:10284E007544387BFF7A16791E7F031237AEE53753
:10285E0075F003A42455F9741735F0FA7BFF754211
:10286E000075430075443B7F031237AE7B007A0040
:10287E00793802374B7BFF7A16792212374B90004C
:10288E0056E0FEA3E0FF7C007D3C120E8AAD077F72
:10289E0002123955900056E0FEA3E0FF7C007D3C0D
:1028AE00120E8A7F04123955900075E04440F0A351
:0328BE00E0F02225
:1037DF008D37EFD39400400E7BFF7A167925123781
:1037EF004BE5371210A9C2937F01123B0AE53790C0
:1037FF001783934488FF123A6D7F01123B0AD293CD
:01380F002296
:1030A300EF70047C0180027C00EC14601114601248
:1030B300146013146014240470127E13800E7E09AE
:1030C300800A7E0980067E0980027E09BD0424747D
:1030D3003E2FF582E43400F583E0D39E4002EEF008
:1030E300743E2FF582E43400F583E0C39E501AE06A
:1030F30004F022BD0313743E2FF582E43400F583FC
:0A310300E0D394004003E014F02232
:103429007B007A007927753900753A027F81123855
:103439006BE527B4640B7BFF7A16792B12374B8027
:1034490020E527B4680B7BFF7A16793212374B8057
:10345900107BFF7A16793912374BAD277F04123961
:0D346900557F0D123B1B900055743CF02266
:013B3600226C
:102FCC00900075E054F8F0A3E054FBF090004FE053
:102FDC00540F24FD603514603B14603824FE6040AF
:102FEC0024F7602714602424FD24FD502724157039
:102FFC003990008DE0FF64536030EF6456602B9085
:10300C000075E04404F0A3E0F0801F900076E044EB
:10301C0004F08016900075E04401F0A3E0F0800A03
:0D302C00900075E04404F0A3E0F0D20E2205
:10366500EF5403FE900078E054F0F0BE0106E0440C
:1036750008F0800ABF0207900078E04404F0EF5498
:10368500C0FE6013BEC009900078E04401F08007D9
:0A369500900078E04402F0D20E220B
:10377C008F35E535B4FF117F1F1238C1EF30E704E8
:10378C007F0180027F008F35E535600C900075E07D
:10379C004408F0A3E0F08007900075E054F7F0D2F5
:0237AC000E22EB
:0537460035F0FA7BFFE5
:10374B008B3F8A408941E4F543AB3F0541E541AAF4
:10375B00407002054014F9120E10F5426012AD4292
:10376B00AF431210AE0543C3E5436480948640D942
:01377B00222B
:102982008F3F8C408D41AE40AF417C277D10120EAF
:102992008AEF4E601AEF2430FDAF3F053F1210AEB2
:1029A200AE40AF417C277D10120E8A8C408D41AE25
:1029B20040AF417C037DE8120E8AEF4E601AEF248D
:1029C20030FDAF3F053F1210AEAE40AF417C037DFC
:1029D200E8120E8A8C408D41AE40AF417C007D648E
:1029E200120E8AEF4E601AEF2430FDAF3F053F1200
:1029F20010AEAE40AF417C007D64120E8A8C408DD9
:102A020041AE40AF417C007D0A120E8AEF4E601A41
:102A1200EF2430FDAF3F053F1210AEAE40AF417C18
:102A2200007D0A120E8A8C408D41AF3F053FE54181
:092A32002430FD1210AEAF3F226A
:103955008F3E8D3FE53F75F00A842430FD1210AE91
:10396500E53E04FFE53F75F00A84E5F02430FD02ED
:0239750010AE92
:0510A9002431FD7F056C
:1010AE008F448D45E544C394034003021179E54511
:1010BE00C394304012E545D39439500B74D0254576
:1010CE00F54504F546804CE545C39461400FE54572
:1010DE00D3947A5008E54524AAF5468036E545C3F3
:1010EE009441400FE545D3945A5008E54524CAF57E
:1010FE00468020E54524D5601224FC600924027048
:10110E000F754625800D7546268008754627800387
:10111E00E4F546E54625E02486F582E43417F583AA
:10112E00E493FEE54425E02469F582E43400F5837A
:10113E00EEF0A3E4F0E54425E02469F582E4340002
:10114E00F583C083C082E0FEA3E0FFE54625E024E0
:10115E0087F582E43417F583E493FDEEEF4DFFD06F
:10116E0082D083EEF0A3EFF0021325E544C394067C
:10117E0040030212AFE545C394304066E545D39473
:10118E0039505F74D02545F54504F54625E0248693
:10119E00F582E43417F583E493FEE54425E02469F3
:1011AE00F582E43400F583EEF0A3E4F0E54425E0A7
:1011BE002469F582E43400F583C083C082E0FEA387
:1011CE00E0FFE54625E02487F582E43417F583E455
:1011DE0093FDEEEF4DFFD082D083EEF0A3EFF00241
:1011EE001325E54512102F12382D123D41124242A1
:1011FE00124743124C44125145125646125B471287
:10120E006548126049126A4C126F4E12744F127971
:10121E0050127E52128353128854128D55129259C7
:10122E00127E72128874000012977545C0805D752B
:10123E0045F7805875457C8053754539804E754508
:10124E00DE80497545F980447545F1803F7545EF5F
:10125E00803A75450680357545F68030754538807F
:10126E002B754537802675453F80217545F3801CCB
:10127E0075455080177545ED80127545F8800D75D2
:10128E00453E800875456E8003E4F545E54425E04E
:10129E002469F582E43400F583E4F0A3E545F0809B
:1012AE0076E544D39406401AE544940D5014E54572
:1012BE00C39401400DE545D394055006E54524261B
:1012CE00F546E54625E02486F582E43417F583E4F9
:1012DE0093FEE54425E02469F582E43400F583EEBF
:1012EE00F0A3E4F0E54425E02469F582E43400F54A
:1012FE0083C083C082E0FEA3E0FFE54625E024879D
:10130E00F582E43417F583E493FDEEEF4DFFD082C2
:0A131E00D083EEF0A3EFF0D20E2210
:103A3D00E4FFEF25E02479F582E43400F583E4F02A
:0A3A4D00A3F00FEFC3940540E92237
:063ACC00131313541FFF49
:093AD200EF54079017D693FF2270
:1031CF007B007A007927753900753A037F8F1238A3
:1031DF006B300C03023A3DAF27123AD2900079E4DC
:1031EF00F0A3EFF0E527123ACC90007BE4F0A3EFC9
:1031FF00F0AF28123AD290007DE4F0A3EFF0E5286B
:10320F00123ACC90007FE4F0A3EFF0AF29123AD23C
:0B321F00900081E4F0A3EFF0D20E223B
:103A9600E4FFE4900079F0A3F00FEFC3940540F241
:033AA600D20E221B
:1039D100E4FEEFFDEE25E02469F582E43400F58391
:0D39E100E4F0A3EDF00EEEC3940D40E622DD
:10000E00E4FF74062FF582E43400F583E4F00FEF7D
:10001E00C3941040ED900069E0FEA3E0FF30E007CE
:10002E00900014E04408F0EF30E10790000DE0443A
:10003E0008F0EF30E207900006E04408F090006A06
:10004E00E030E307900009E04408F0900069E0FE1C
:10005E00A3E0FF30E407900011E04408F0EF30E534
:10006E0007900015E04408F0EF30E60790000FE02F
:10007E004408F090006AE030E70790000CE0440876
:10008E00F0900069E0FEA3E0FFEE30E00790001371
:10009E00E04408F0EE30E107900012E04408F0EE84
:1000AE0030E20790000BE04408F0900069E0A330C6
:1000BE00E307900007E04408F0900069E0FEA3E03B
:1000CE00FFEE30E407900008E04408F0EE30E5075C
:1000DE0090000EE04408F090006BE0FEA3E0FF30CD
:1000EE00E007900014E04420F0EF30E10790000D9F
:1000FE00E04420F0EF30E207900006E04420F0905C
:10010E00006CE030E307900009E04420F090006BB3
:10011E00E0FEA3E0FF30E407900011E04420F0EF92
:10012E0030E507900015E04420F0EF30E607900030
:10013E000FE04420F090006CE030E70790000CE0F8
:10014E004420F090006BE0FEA3E0FFEE30E007905D
:10015E000013E04420F0EE30E107900012E044205E
:10016E00F0EE30E20790000BE04420F090006BE0E0
:10017E00A330E307900007E04420F090006BE0FE10
:10018E00A3E0FFEE30E407900008E04420F0EE30EC
:10019E00E50790000EE04420F090006DE0FEA3E035
:1001AE00FF30E007900014E04410F0EF30E10790CC
:1001BE00000DE04410F0EF30E207900006E044102E
:1001CE00F090006EE030E307900009E04410F090EC
:1001DE00006DE0FEA3E0FF30E407900011E0441054
:1001EE00F0EF30E507900015E04410F0EF30E60731
:1001FE0090000FE04410F090006EE030E7079000A2
:10020E000CE04410F090006DE0FEA3E0FFEE30E055
:10021E0007900013E04410F0EE30E107900012E07A
:10022E004410F0EE30E20790000BE04410F0900026
:10023E006DE0A330E307900007E04410F090006DEE
:10024E00E0FEA3E0FFEE30E407900008E04410F07B
:10025E00EE30E50790000EE04410F090006FE0FEE7
:10026E00A3E0FF30E007900014E04404F0EF30E12B
:10027E000790000DE04404F0EF30E207900006E036
:10028E004404F0900070E030E307900009E044046D
:10029E00F090006FE0FEA3E0FF30E407900011E065
:1002AE004404F0EF30E507900015E04404F0EF3021
:1002BE00E60790000FE04404F0900071E0FEA3E02A
:1002CE00FF30E007900014E04480F0EF30E107903B
:1002DE00000DE04480F0EF30E207900006E044802D
:1002EE00F0900072E030E307900009E04480F09057
:1002FE000071E0FEA3E0FF30E407900011E04480BF
:10030E00F0EF30E507900015E04480F0EF30E6079F
:10031E0090000FE04480F0900073E0FEA3E0FF3009
:10032E00E007900014E04402F0EF30E10790000D7A
:10033E00E04402F0EF30E207900006E04402F09055
:10034E000074E030E307900009E04402F09000737F
:10035E00E0FEA3E0FF30E407900011E04402F0EF6E
:10036E0030E507900015E04402F0EF30E60790000C
:10037E000FE04402F0900075E0FEA3E0FF30E007CE
:10038E00900014E04401F0EF30E10790000DE044DE
:10039E0001F0EF30E207900006E04401F0900076A5
:1003AE00E030E307900009E04401F0900075E0FEB4
:1003BE00A3E0FF30E407900011E04401F0EF30E5D8
:1003CE0007900015E04401F0EF30E60790000FE0D3
:1003DE004401F0900076E030E70790000CE0440115
:0403EE00F090007516
:1003F200E0FEA3E0FFEE30E007900013E04401F0DE
:10040200EE30E107900012E04401F0EE30E2079096
:10041200000BE04401F0900075E0A330E307900088
:1004220007E04401F0900075E0FEA3E0FFEE30E447
:1004320007900010E04420F0EE30E507900010E055
:100442004410F0EE30E607900010E04404F0900013
:1004520077E0FEA3E0FF30E00790000BE04404F0F9
:10046200EF30E107900012E04404F0EF30E2079031
:100472000013E04404F0900078E030E30790000CB1
:10048200E04404F0900079E0FEA3E0FF30E0079042
:100492000007E04480F0EF30E10790000BE0448079
:1004A200F0EF30E207900012E04480F090007AE032
:1004B20030E307900013E04480F090007AE030E4EB
:1004C2000790000CE04480F090007BE0FEA3E0FF88
:1004D20030E00790000BE04402F0EF30E1079000BB
:1004E20012E04402F0EF30E207900013E04402F021
:1004F20090007CE030E30790000CE04402F09000B2
:100502007DE0FEA3E0FF30E007900011E04440F000
:10051200EF30E107900009E04440F0EF30E207904D
:100522000006E04440F090007EE030E30790000DCA
:10053200E04440F090007EE030E407900014E04494
:1005420040F090007FE0FEA3E0FF30E00790001350
:10055200E04440F0EF30E10790000CE04440F0EF5F
:1005620030E20790000FE04440F0900080E030E37A
:1005720007900015E04440F0900081E0FEA3E0FF08
:1005820030E00790000EE04440F0EF30E1079000C9
:1005920008E04440F0EF30E207900007E04440F00A
:1005A200900082E030E30790000BE04440F09000BE
:1005B20082E030E407900012E04440F0C2937F01F1
:1005C200123B0A7F40123A6D7F01123B0AD2937F9F
:1005D20001123B0AC2937F01123B0A7FC0123A6D9D
:1005E200E4F53774062537F582E43400F583E0FF3D
:0F05F200123A6D0537E537C3941040E7D29322D4
:103A6D007E08C290EF139291EFC313FFD2901EEE1A
:063A7D00D3940050ED227D
:1039B300AE0753050FEDC3940A5006ED2430FFFD07
:0E39C30022EE6005ED2457FF22ED2437FF228F
:101BFA008F658D66E5667029AF6AAE69AD68AC67B8
:101C0A00EC4D4E4F701BAB6BAA6CA96D7430120E63
:101C1A0056AB6BAA6CA96D900001E4120E687F01A5
:101C2A0022E4F56EF56FE56564646009E56564753F
:101C3A006003021D287575007574CA75739A7572EA
:101C4A003BE565B4643FE4FFFEFDE5675480FC6054
:101C5A0034AB6BAA6CA96DAF6F056F8F8275830069
:101C6A00742D120E68E56AFBE569FAE568F9E5671D
:101C7A00547FF8C3E49BF56AE49AF569E499F56838
:101C8A00748098F56775700BAB75AA74A973A872FE
:101C9A00AF6AAE69AD68AC67120F468F711570E511
:101CAA007065666004E5716003756E01E56E601A21
:101CBA00AD71E4FF1239B3AB6BAA6CA96DAE6F05B7
:101CCA006F8E82758300EF120E68AF6AAE69AD68D7
:101CDA00AC67AB75AA74A973A872120F46AC00ADB3
:101CEA0001AE02AF038F6A8E698D688C67AF75AEDD
:101CFA0074AD73AC72E47B0AFAF9F8120F468F7569
:101D0A008E748D738C72E4FFFEFDFCAB75AA74A908
:101D1A0073A872C3120FD86003021C9280527570A6
:101D2A002075710974FC2570F570AF6AAE69AD68EB
:101D3A00AC67F9F8120FE9AD071571E571656660D0
:101D4A0003ED6003756E01E56E6021E565B4580424
:101D5A007F0180027F001239B3AB6BAA6CA96DAE0A
:101D6A006F056F8E82758300EF120E68E57070B48E
:101D7A00AB6BAA6CA96D856F82758300E4120E683D
:031D8A00AF6F2216
:100B11008B508A518952E4F559F55AAB53AA54A91D
:100B210055AF59EF3395E08F82F583120E29642575
:100B31006051D3E55A6480949E4003AF5A22AB536F
:100B4100AA54A955AF590559EF3395E08F82F58322
:100B5100120E29FFAB50AA51A952AE5A055AEEFD09
:100B61003395E08D82F583EF120E68AB53AA54A939
:100B710055AF59EF3395E08F82F583120E29709BA3
:100B8100AF5A22AF59EF3395E08F82F583A3AB5370
:100B9100AA54A955120E29F55F6473706BAB56E523
:100BA10058F92403F558E557FA3400F55712100F98
:100BB1008B5C8A5D895E05590559E4F55BAB5CAADE
:100BC1005DA95EAF5BEF3395E08F82F583120E294D
:100BD1007003020B1CC3E55A6480949E4003020B10
:100BE1001C055BEF3395E08F82F583120E29FFAB75
:100BF10050AA51A952AE5A055AEEFD3395E08D82A5
:100C0100F583EF120E6880B5E55FB4251E05590521
:100C110059AB50AA51A952AF5A055AEF3395E08FFB
:100C210082F5837425120E68020B1CE55FB46332F2
:100C310005590559AB56E558F92402F558E557FA17
:100C41003400F557120EDFFFAB50AA51A952AE5A2C
:100C5100055AEEFD3395E08D82F583EF120E6802A1
:100C61000B1CE4F560F55BAF59EF3395E0FEEF2423
:100C710001FFE43EFEAD5BED3395E0FCED2FF58227
:100C8100EC3EF583AB53AA54A955120E29F55FC367
:100C9100648094B0401ED3E55F648094B95015E53B
:100CA1005F24D0FFE56075F00AA42FF560055BE5D0
:100CB1005BB403B3AF59EF3395E0FEEF2401FFE4DA
:100CC1003EFEAD5BED3395E0FCEF2DFFEE3CFEAB60
:100CD10053E5552FF9E5543EFA8B5CF55D895EE5E8
:100CE100592402255BF559120E10249C600F24EF44
:100CF100600B24FD600724206003020B1CAB56052A
:100D010058E558AA577002055714F9120E10FF330F
:060D110095E08F64F5631C
:100D1700F562F561FEAD62AC617808120FFC8F6475
:100D27008E638D628C610558E558AA577002055786
:100D370014F9120E10FF3395E0FEFDFCE5644FF544
:100D470064E5634EF563E5624DF562E5614CF56177
:100D5700AF64AE63AD62FC7808120FFC8F648E63DC
:100D67008D628C610558E558AA577002055714F92A
:100D7700120E10FF3395E0FEFDFCE5644FF564E5C8
:100D8700634EF563E5624DF562E5614CF561AF646D
:100D9700AE63AD62FC7808120FFC8F648E638D62C0
:100DA7008C610558E558AA577002055714F9120EB9
:100DB70010FF3395E0FEFDFCE5644FF564E5634EF7
:100DC700F563E5624DF562E5614CF561AB5CAA5DE3
:100DD700A95E120E10FFC00785646A856369856284
:100DE70068856167AF5AEF3395E0FEE5522FF9E565
:100DF700513E85506BF56C896DD007AD60121BFABB
:090E0700EF255AF55A020B1C22DA
:1033D9008B3B8A3C893D754D00754E00754F3E8B80
:1033E900538A548955854D56854E57854F587B01CB
:1033F9007A007996120B11E4FEC3EF6480F8EE644B
:103409008098501BC299EEFD3395E0FC74962DF51A
:103419008274003CF583E0F5993099FD0E80DA223B
:1036D700123AA9123284123B33123B32123B13784F
:1036E70014E6FF5401D3940040F512202D7814E618
:1036F700FF1206017814E6FF1228C17814E6FF12BC
:08370700369FE47814F680D728
:103AA900758921758851759850758DFF4387807583
:033AB900A88322BD
:033B2E008F0922DA
:093B0A00EFD394034002DFFE2218
:03000B0002226569
:10226500C0E0C0F0C083C082C0D075D000C000C03F
:1022750001C002C003C004C005C006C007758A605E
:10228500758CFF781106E675F00A84E5F0600302A7
:10229500231E122E777811E675F06484E5F0703B05
:1022A500F678147601780D06E675F00A84E5F07087
:1022B5002A7814E64402F6780DE6FF75F03284E5D7
:1022C500F070187814E64404F6EF75F06484E5F0D0
:1022D5007009780DF67814E64408F630053B900051
:1022E5002AE004F0D394134006E4F0D2A5802A90A6
:1022F5000058E0FF700B90002AE0B40104C2A580ED
:1023050018EFB4010B90002AE0B40404C2A58009BB
:1023150090002AE0B40802C2A57810E6603806E607
:10232500D3949F40312008247812E6B4021E781712
:10233500E660197813E6FFC39408500EEF5403FFC7
:10234500BF0302D2197813068002D21978127600DB
:10235500C20878107600D007D006D005D004D00387
:10236500D002D001D000D0D0D082D083D0F0D0E040
:012375003235
:03000300022C8448
:102C8400C0E0C0D075D000C000C006C007200865F1
:102C9400781206E6FFB4020C7810E6D394914055FE
:102CA400D2088051780BE6FEC313F67810E6D3946D
:102CB400104006780BE64480F6EF640A6004EFB433
:102CC4001A07780BE618F6802CEFB41212780BE68C
:102CD400B4BF0418E6601E78177600D2088016EF99
:102CE400B42212D21978137600780BE6F4186660D1
:102CF40004C219D20878107601D007D006D000D0CB
:042D0400D0D0E03219
:03000000023AF5CC
:0C3AF500787FE4F6D8FD7581750236D7A5
:100E1000BB010689828A83E0225002E722BBFE02E0
:090E2000E32289828A83E4932213
:100E2900BB010CE58229F582E5833AF583E022507E
:100E390006E92582F8E622BBFE06E92582F8E222C8
:0D0E4900E58229F582E5833AF583E49322E2
:100E5600BB010689828A83F0225002F722BBFE017B
:020E6600F32275
:100E6800F8BB010DE58229F582E5833AF583E8F0C0
:100E7800225006E92582C8F622BBFE05E92582C86C
:020E8800F22254
:100E8A00BC000BBE0029EF8DF084FFADF022E4CC4C
:100E9A00F875F008EF2FFFEE33FEEC33FCEE9DEC15
:100EAA00984005FCEE9DFE0FD5F0E9E4CEFD22ED5B
:100EBA00F8F5F0EE8420D21CFEADF075F008EF2FA5
:100ECA00FFED33FD4007985006D5F0F222C398FD96
:050EDA000FD5F0EA2233
:100EDF00BB010A89828A83E0F5F0A3E022500687DE
:100EEF00F009E71922BBFE07E3F5F009E3192289A0
:0B0EFF00828A83E493F5F074019322D3
:100F0A0075F008758200EF2FFFEE33FECD33CDCC9E
:100F1A0033CCC58233C5829BED9AEC99E582984021
:100F2A000CF582EE9BFEED9AFDEC99FC0FD5F0D6FE
:100F3A00E4CEFBE4CDFAE4CCF9A88222B800C1B928
:100F4A000059BA002DEC8BF084CFCECDFCE5F0CB66
:100F5A00F97818EF2FFFEE33FEED33FDEC33FCEB9F
:100F6A0033FB10D703994004EB99FB0FD8E5E4F95A
:100F7A00FA227818EF2FFFEE33FEED33FDEC33FC47
:100F8A00C933C910D7059BE99A4007EC9BFCE99A3B
:100F9A00F90FD8E0E4C9FAE4CCFB2275F010EF2F80
:100FAA00FFEE33FEED33FDCC33CCC833C810D70780
:100FBA009BEC9AE899400AED9BFDEC9AFCE899F8BB
:0E0FCA000FD5F0DAE4CDFBE4CCFAE4C8F9224E
:100FD800EB9FF5F0EA9E42F0E99D42F0E89C45F06F
:010FE80022E6
:100FE900E8600FECC313FCED13FDEE13FEEF13FFE6
:030FF900D8F1220A
:100FFC00E8600FEFC333FFEE33FEED33FDEC33FC53
:03100C00D8F122F6
:10100F00BB010789828A8302108B5005E9F8021011
:10101F0082BBFE05E9F802109489828A8302109D33
:10102F00D083D082F8E4937012740193700DA3A350
:10103F0093F8740193F5828883E473740293686064
:06104F00EFA3A3A380DF64
:10105500D083D082F8E4937012740193700DA3A32A
:1010650093F8740193F5828883E473740293B5F061
:0D107500067403936860E9A3A3A3A380D8C9
:09108200E6FB08E6FA08E6F92293
:09108B00E0FBA3E0FAA3E0F92266
:09109400E2FB08E2FA08E2F9228D
:0C109D00E493FB740193FA740293F922AF
:00000001FF
