:1039AD008F3E8D3F1239FB7FCC1235CBAF3E12359A
:0A39BD00CBAF3F1235CB123A8E2239
:1038B5008F2C8C2D8D2E1239FB7FCC1235CBAF2C56
:1038C5001235CBAF2E1235CBE52DFF1235CB123A83
:0238D5008E2241
:10345C008F358C368D378B388A39893A1239FB7F08
:10346C00CC1235CBAF351235CBAB38053AE53AAA91
:10347C00397002053914F9120E10FF1235CBE537ED
:0F348C0015377002153614453670DE123A8E224F
:103865008F38E4F5391239FB7FCC1235CB200C1497
:10387500AF381235CB1239FB7FCD1235CBD21D12A5
:0A38850036AF8F39123A8EAF3922A8
:103518008F2CE4F52DF52E1239FB7FCC1235CB20FC
:103528000C22AF2C1235CB1239FB7FCD1235CBC212
:103538001D1236AF752D008F2ED21D1236AFEFFE3D
:0C354800E4EE422D123A8EAE2DAF2E2282
:103318008E3B8F3C8B3D8A3E893FD3E53C9401E54B
:103328003B94004008E53C153C7002153BC21D1259
:1033380036AFAB3D053FE53FAA3E7002053E14F9A6
:10334800EF120E56E53C153C7002153B14453B70D8
:10335800DCD21D1236AFAB3DAA3EA93FEF120E5686
:03336800023A8E98
:1037B0008F358C368D378B388A39893A1239FB7FB1
:1037C000CC1235CBAF351235CB1239FB7FCD12354C
:0F37D000CBAB38AA39A93AAF37AE36123318222D
:10340E008F308C318D328B338A3489351239FB7F74
:10341E00CC1235CBAF301235CB1239FB7FCD1235F6
:10342E00CBC21D1236AF7536008F37D3E5379532C6
:10343E00E53695314006853136853237AB33AA34C1
:0E344E00A935AF37AE36123318AE36AF37227F
:1035CB008F40754108C296E54030E704D2958002E2
:1035DB00C295123AE4E54025E0F540D296123AE462
:1035EB00D541E2C296D295120006D2961200063051
:0A35FB009502D20CC29612000622BF
:1036AF00D295120006754108D296E54025E0F54007
:1036BF00309503434001123AE4C296123AE4D541E1
:1036CF00E7201D04C2958002D295120006D29612F1
:0736DF000006C296AF402275
:1039FB00D295D296120006C20C209502D20CC2951B
:063A0B00120006C2962223
:0D3A8E00C295120006D296120006D29522B3
:050006007F0ADFFE226D
:013AE40022BF
:101EDE004B434D5F504F5745525F4F4E0D0A004BCF
:101EEE00434D5F524541445F495251204572726FD6
:101EFE00720D0A004B434D5F4952515F504C415990
:101F0E005F535441544520253032780D0A00494E16
:101F1E005055545F5357495443482025303278204A
:101F2E0025640D0A0053455420004B434D5F564F18
:101F3E004C554D455F4354524C2025640D0A004BC1
:101F4E00434D5F494E5055545F534F5552434520B4
:101F5E00253032780D0A004B434D5F4C49535445A2
:101F6E004E5F4D4F444520253032780D0A004170AA
:101F7E0070436F6D6D616E64202530327820253090
:101F8E00327820253032780D0A0003C5000800068D
:101F9E00230031520075000000802F80005C00008D
:101FAE000F80002C00805A800008000058800032FC
:101FBE000000060080258000B400000D0105080019
:101FCE0064005E01E803E40C10270010111230319A
:101FDE0032332021222400011011121300020301BA
:101FEE00050706041918171615141312110001020D
:101FFE000304050607080903040506080A0F19322B
:0B200E006400020406080A0C0D0E0F0F
:083AC600E4900058F00239926F
:103992007D017F051239AD7F02123ADC9000597425
:0B39A20064F07BFF7A1E79DE0233BE6A
:102019008F2430940302213A7F011238658F25AD50
:10202900257F031239AD300C097BFF7A1E79ED0249
:1020390033BEE5255401D3940040031217D5E52595
:102049005402D39400404B7F1812386590004FEF2B
:10205900F07F1A123865900067EFF0900059E07030
:10206900082014057F07123ADC90004FE070031234
:102079003A3A122FB3123AE990004EE0FF64046035
:1020890004EFB4050D7FA212351890002CEEF0A3D1
:10209900EFF0E5255408D394004003121A11E52501
:1020A9005404D3940040167F2F12386590002BEF0B
:1020B900F090003BE0B438057F38123ADCE525544E
:1020C90010D3940040057F0D123ADCE5255440D326
:1020D900940040247FA3123518900056EEF0A3EF28
:1020E900F04E600F90003BE06401600C7F16123ADD
:1020F900DC80057F15123ADCE5255420D394004095
:10210900247FA5123865900029EFF07BFF7A1F79AB
:1021190002E48F41F540F53FF53E1233BE900029A8
:10212900E0FF123605E5255480D3940040031223BD
:0221390064221E
:1017D5007B007A00792B7D047C007F401237B03086
:1017E5000C05E4FF023ADCE52F5403900058F07F26
:1017F500201238658F297F8112386590008DEFF0B2
:10180500AD297F201225508F2A7BFF7A1F791CE492
:10181500852941F540F53FF53E8F45F544F543F5FE
:1018250042852B49F548F547F5461233BEE52AC3EF
:101835009404400FE52AD39407500890004EE52BF9
:10184500F0800690004EE52AF07F2F123865900053
:101855002BEFF0E4F527AD277F091225508F2AE5F8
:101865002A2430FF1238658F29AD297F3012255083
:101875007483252AF582E43400F583EFF00527E526
:1018850027C3940840D07F391238658F29E529543C
:101895000FFD7F39122550900061EFF0E529C45402
:1018A5000FFD7F39122550900062EFF07F3A123814
:1018B50065122547900063EFF07F3B1238651225CE
:1018C50047900064EFF07F381238658F29AD297F86
:1018D50038122550900065EFF07F3C1238651225CF
:1018E50047900066EFF07F241238658F2AAD2A7F76
:1018F500241225507D507F2E1239AD7D467F25124D
:1019050039AD7D467F261239AD752B44752C44754E
:101915002D30E4F52EFB7A00792B7D04FC7F8012B7
:10192500345CE4F528E4F527E527901F9893FF74C8
:101935002C2527F8A6070527E527B405EBE5280498
:10194500F52B7B007A00792B7D067C007F8B12348A
:101955005CE4F527E527901F9D93FF742C2527F858
:10196500A6070527E527B409EBE4F527742C2527F9
:10197500F8E6FFE52875F009A424A6F582E4341FEE
:10198500F583E5822527F582E43583F583E4934FD6
:10199500F60527E527B409D4E52804F52B7B007A5D
:1019A50000792B7D0A7C007F8C12345C0528E528A4
:0819B500C39404500302192A37
:1019BD007BFF7A1F79CA7D0E7C007F8E12345CE42A
:1019CD0090004FF0900067F0900029F0C201C21412
:1019DD00C20690008BF0FFFE12213B7F02123ADC13
:1019ED00900059740AF0123AE9122FB37FFF1237A3
:1019FD001C900029E0FF123605900058E0FDE4FF31
:041A0D0012377F22EB
:102D6D007BFF7A1F79331236EBE4F527AD277F040D
:102D7D001238F912000E7FFF123ABD7FFF123ABDD5
:102D8D000527E527C3946440E3E4F529F52AF52BDF
:102D9D00F52C752D02FB7A0079297D05FC7F4012FB
:102DAD00345C7D277F2F1239ADE4F527E5272430DC
:102DBD00FFE4FD1239AD0527E527C3940840ED7DED
:102DCD00AB7F241239AD7D017F051239AD7F021223
:092DDD003ADC900059741EF0224A
:102364007B007A0079277D087C007F9812340E8FD9
:102374002FE52F64026003022458E52724F8700334
:1023840002241A24E8602F24F5605714606E24FD9B
:1023940060030224337BFF7A1F7938E4852841F5F2
:1023A40040F53FF53E1233BE90002BE528F07F3810
:1023B400123ADC0224587BFF7A1F794DE4852841C8
:1023C400F540F53FF53E1233BEAD287F201225506F
:1023D40090004EEFF0123AD6123A9BE4FF123ADC28
:1023E40080727BFF7A1F7965E4852841F540F53FCB
:1023F400F53E1233BEAF28122DE680587BFF7A1FBC
:102404007965E4852841F540F53FF53E1233BEAFCA
:10241400281237DF803EA206E433FFE52854016F1B
:102424007032E52830E22D90003B7438F080257B33
:10243400FF7A1F797CE4852F41F540F53FF53E8511
:102444002745F544F543F542852849F548F547F510
:09245400461233BE7F0102371C61
:102BE700EF24F7602524E5602F24F9601624FB60A5
:102BF7002024F8606714605D24197067ED901FD872
:102C070093FF22ED901FE493FF22ED901FEA93FFBD
:102C170022ED901FF293FF22E4F53E90004AE0D3A5
:102C270094004003433E01900048E0D394004003E2
:102C3700433E02900049E0FF25E025E0423E900038
:102C47004BE0FFC454F0423EA3E0FFC4333354C00B
:102C5700423EAF3E22ED90200F93FF22ED902005DC
:062C670093FF227F002212
:092547008F29E529540FFD7F38AE
:10255000E4FEEF24F7604A24E5607024F9602D243E
:10256000FB605324F8700302261514700302260042
:102570002419600302262AEE901FD893B50503AFF5
:1025800006220EEEC3940C40EE7F0022EE901FE474
:1025900093B50503AF06220EEEC3940640EE7F010D
:1025A00022EE901FEA93B50503AF06220EEEC39408
:1025B0000840EE7F0022EE901FF293B50503AF06B0
:1025C000220EEEC3941340EE7F0022ED30E1047F33
:1025D0000180027F00900048EFF0ED13135403A335
:1025E000F0ED30E0047F0180027F0090004AEFF0C0
:1025F000EDC45403A3F0EDC413135403A3F0802AD5
:10260000EE90200F93B50503AF06220EEEC3940A99
:1026100040EE7F0022EE90200593B50503AF062221
:0D2620000EEEC3940A40EE7F00227F0022E0
:10374E008B3F8A408941EF6027AB3F0541E541AA97
:10375E00407002054014F9120E10FEAB420544E50E
:10376E0044AA437002054314F9EE120E561F80D67A
:01377E002228
:102711006752656D6F766554696D65722025640D2C
:102721000A004D4B434D5F507265656D707469626F
:102731006C653A25642025642F25640D0A00496ED5
:10274100707574536F757263653A2564206C61739B
:10275100743A2530327820253032780D0A00496EDE
:10276100707574536F75726365423A2564206C61AC
:1027710073743A253032780D0A004B434D5F535242
:10278100435F56414C494420452025642025640D72
:102791000A004B434D5F5352435F56414C49443A03
:1027A10025303478204C6173743A253034780D0A21
:1027B100004B434D5F5352435F56414C4944203DCA
:1027C100204C6173743A253034780D0A00000102FF
:1027D100030020004010004000010002000400043A
:0627E10005060708090AC5
:013AE50022BE
:10363F008F2490008BE0602F04F0D394C840287F34
:10364F00401238658F257BFF7A277911E48F41F57A
:10365F0040F53FF53E1233BEE490003BF0AF25122C
:08366F0034E3E490008BF0222B
:1038D7008F37123A9BD218E537600D7538303006AE
:1038E7000AC2064338028003753820AD387F0802C4
:0238F70039ADE9
:10391B00AD07EDC394FF500E7F09122BE7EF441058
:0E392B00FD7F090239ADE4FD7F091239AD229E
:1031B6008F3A8D3B123AD6E53B60167483253AF575
:1031C60082E43400F583E0C394125019E004F080E1
:1031D600147483253AF582E43400F583E0D3940031
:1031E6004003E014F0AD3A7F09122BE78F3C74835D
:1031F600253AF582E43400F583E0FD7F30122BE7B3
:0A320600AD07E53C2430FF0239ADAE
:10262D008F3A8D3B123AD6E53A24C7F53DE53B602E
:10263D00167461253DF582E43400F583E0C39409F9
:10264D005019E004F080147461253DF582E43400E6
:10265D00F583E0D394004003E014F0E53A24C6601E
:10266D00161460381460511470030226FD14606452
:10267D0024056003022710900061E0FD7F39122BC5
:10268D00E78F3C900062E0FD7F39122BE78F3DE52F
:10269D003DC454F0453CFD7F390239AD900063E0F7
:1026AD00FD7F39122BE78F3CE4F53DE53DC454F039
:1026BD00453CFD7F3A0239AD900064E0FD7F391253
:1026CD002BE78F3C753D08E53DC454F0453CFD7F3F
:1026DD003B0239AD900066E0FD7F39122BE78F3C50
:1026ED00753D01E53DC454F0453CFD7F3C0239ADDF
:1026FD00900065E0FD7F38122BE78F3CAD3C7F38B5
:04270D001239AD22AE
:0D3A9B00301409C214E4FD7F091239AD2278
:063AD600300602C20622C8
:0934DA00F582E43400F583E0FF03
:1034E3008F27900076E0542CF0900075E054F8F0AC
:1034F300A3E054FBF0123AD6123A9B90003BE0FF54
:103503006003B4010B90004EE527F0FDFF1230205D
:053513007F01023ADC1B
:1030F4007BFF7A277923900027E02433F582E43498
:1031040000F583E0FFE48F41F540F53FF53E900084
:1031140027E0FFE48F45F544F543F54290003CE099
:10312400FFE48F49F548F547F5461233BE90003C5D
:10313400E0601B900027E024331234DA90003CE076
:10314400FF900027E004F0C39F400BE4F0229000BE
:073154004EE0FF1234E322FC
:10315B00E490003BF090005AE0FF601190003DE0DE
:10316B00FEC39F500874332E1234DA802090005A1D
:10317B00E0FF90003DE0C39FFFE49400FE74CE2F70
:10318B00F58274273EF583E493FF1234E390005AE3
:10319B00E02404FFE433FE90003DE004F0C39FEE17
:0B31AB006480F87480984002E4F02279
:103020008F2C8D2DAD2C7F20122BE7AD077F20122A
:1030300039AD7F20123865E48F49F548F547F546EC
:103040007BFF7A27793F852C41F540F53FF53E859A
:103050002D45F544F543F5421233BEE52DD39403D7
:103060005027AD2D7F401239AD7F20123865E48F97
:1030700045F544F543F5427BFF7A27795F852C417E
:0A308000F540F53FF53E1233BE2285
:10213B008E358F36E5364535700302222BE4F537A5
:10214B00F538E53825E024D2F582E43427F583E42D
:10215B0093F539740193F53AE5355539FEE5365566
:10216B003A4E603DE53A64204539700C90002EE004
:10217B007002A3E070148029E53A64404539700A77
:10218B0090002EE07002A3E07017E5389027E093E3
:10219B00FFAE37053774332EF582E43400F583EF49
:1021AB00F00538E5386407709990005AE0653760A0
:1021BB000BE490003DF090005AE537F0E4F53890D1
:1021CB00005AE0FFE538C39F501C74332538F58265
:1021DB00E43400F583E0FFC394084006EFD3940B7F
:1021EB004004053880D990003CE06538600BE490E2
:1021FB000027F090003CE537F07BFF7A27797B9046
:10220B00003CE0FFE48F41F540F53FF53E90005A6E
:10221B00E0FFE48F45F544F543F5421233BE801DD4
:10222B00E490003CF090005AF0900027F090003DB5
:10223B00F090002EF0A3F0900052F0A3F0900092DB
:08224B00E535F0A3E536F022B1
:101A11007F1C1235188E278F28900092E065277061
:101A210004A3E065287003021BD2C21C7BFF7A2746
:101A31007993E4852841852740F53FF53E90009252
:101A4100E0FEA3E0FFE48F458E44F543F5421233F7
:101A5100BEE4F529E52925E024D2F582E43427F511
:101A610083E493F52A740193F52BE527552AFEE5C6
:101A710028552B4E7003021B18900092E0552AFE48
:101A8100A3E0552B4E6003021B18D21CE52A705AA5
:101A9100E52B24C0602D242070507FA012351890B2
:101AA100002EEEF0A3EFF04E6010E4900043F0A39F
:101AB100F0FDFC7FA41238B580307F0E123ADCC2F3
:101AC1001C80277FA1123518900052EEF0A3EFF091
:101AD1004E6010E4900043F0A3F0FDFC7FA41238A7
:101AE100B580077F0F123ADCC21C301C36E5299005
:101AF10027E093FF90004EE0FD123020E52990276A
:101B0100E09390004EF0E490003BF07F01123ADC4C
:101B1100E490008BF0800C0529E529C3940750035C
:101B2100021A55301C03021BCBE4F529E52925E0F7
:101B310024D2F582E43427F583E493F52A740193E2
:101B4100F52BE527552AFEE528552B4E70709000A0
:101B510092E0552AFEA3E0552B4E6062E52B852AC3
:101B6100F01210551B7900201B8B00401B9D1000AB
:101B71001BA4400000001BA9E490002EF0A3F0FF7D
:101B81001236057F10123ADC801EE4900052F0A359
:101B9100F0FF1236057F11123ADC800C7F12123AE7
:101BA100DC80057F13123ADCE5299027E093FF9052
:101BB100004EE0B5071490008B7401F0800C0529EC
:101BC100E529C394075003021B2DAF28AE2702213C
:101BD1003B7BFF7A2779B2E4852841852740F53F91
:061BE100F53E1233BE22A6
:103A6000205245534554000102040001102021302A
:013AE60022BD
:100601008F24122CF1900059E0D394004016300150
:1006110003020B10E5245402D394005003020B1083
:10062100E014F02230012530190BC219780AE6B422
:100631005903123992200703020B10C207D2137813
:1006410015E664186003020B1002399220070302B9
:1006510006D2C207D2137815E624F8602B24F7607E
:100661002214601824FE600D24EC6038241070619F
:1006710012315B805C7F0112336B8055E4FF1233D2
:100681006B804E12388F804990003BE0FFC3943855
:10069100400DEFD3943E5007E4FF123ADC80321252
:1006A1003939802D90003BE0FFC394384006EFD3E9
:1006B100943A40077F38123ADC801690003BE00400
:1006C100F0D3943A40037438F090003BE0FF123AC3
:1006D100DC7817E6600C06E6D3943C4005E4F67836
:1006E10013F6201903020AEAC219780AE612102F3A
:1006F1000ADE000AE5030AC20408980508BE060AD4
:10070100C9070AAA080AAF0B0A950C08520D084C32
:100711000E0A1010086F11084F120A1A130A7714E3
:10072100092A160A801707CD1807A519089E1A0964
:10073100B81B0AD7400AD0420ABB440892450AB402
:10074100460AA3480A9C4A0A8E4C07D04D0A894E94
:10075100080E510A6E5409DA550A6556078C580776
:100761006A5909965A00000AEAB2013001087F0865
:10077100123ADC020AEA7D017F051239AD7F0212CD
:100781003ADC900059741EF0020AEA90003BE0B492
:1007910009047F0480027F008F25AD257F09121394
:1007A10028020AEA7BFF7A3A79601236EB12000ED0
:1007B100122D6D020AEA90003BE004F0D3943E4012
:1007C100037439F090003BE0FF123ADC020AEA9030
:1007D100003BE0FFC3942E4012EFD39435500C78C8
:1007E1001776017D04121328020AEA90003BE0FF0C
:1007F100C394245003020AEAEFD3942B4003020A64
:10080100EA781776017D04121328020AEA90003B68
:10081100E0FFC3942E4012EFD39435500C78177635
:10082100017D03121328020AEA90003BE0FFC39402
:10083100245003020AEAEFD3942B4003020AEA7818
:0B0841001776017D03121328020AEA5B
:10084C00020AEA020AEA7817760190003BE0B43813
:10085C00047F0480027F008F25AD257F381213287A
:10086C00020AEA300603020AEA7817760190003B86
:10087C00E0B438047F0380027F008F25AD257F38DC
:10088C00121328020AEA1239C7020AEA123939028B
:10089C000AEA90003BE0FFC39446400EEFD394501D
:1008AC005008E4FF123ADC020AEA7F46123ADC02F4
:1008BC000AEA90003BE0FFC394465003020AEAEFB9
:1008CC00D394504003020AEAE004F0E0B4480C90E0
:1008DC000049E0700690003BE004F090003BE0B46F
:1008EC00490C90004BE0700690003BE004F0900047
:1008FC003BE0B44A0C90004CE0700690003BE004E6
:10090C00F090003BE0D3945040037446F090003BD1
:10091C00E0FF123ADC9000557432F0020AEA9000C3
:10092C003BE0FFC394465003020AEAEFD3945040D5
:10093C0003020AEAE014F0E0B44A0C90004CE070B8
:10094C000690003BE014F090003BE0B4490C9000A2
:10095C004BE0700690003BE014F090003BE0B44894
:10096C000C900049E0700690003BE014F090003BC6
:10097C00E0C3944650037450F090003BE0FF123AF1
:10098C00DC9000557432F0020AEA90003BE0FFC3A1
:10099C0094465003020AEAEFD394504003020AEA49
:1009AC00781776017D03121328020AEA90003BE0C7
:1009BC00FFC394465003020AEAEFD394504003025B
:1009CC000AEA781776017D04121328020AEA9000CD
:1009DC003BE0FFC3942E4006EFD39435400B123A04
:1009EC009B7F2E123ADC020AEA90003BE024D2FFF5
:1009FC00122ED38F26E526242EFF90003BF0123AC0
:100A0C00DC020AEA7D037FA51239AD020AEA9000E6
:100A1C004EE0FF64046008EF64056003020AEA908C
:100A2C000029E05403F526B402137D017FA5123989
:100A3C00AD900029E054FCF04401F080117D027F60
:100A4C00A51239AD900029E054FCF04402F090005E
:100A5C0029E0FF123605020AEA7D047FA61239ADA1
:100A6C00807C7D037FA61239AD80737D027FA61238
:100A7C0039AD806A7D017FA61239AD806112388F45
:100A8C00805C7F0B123ADC80557F0C123ADC804E76
:100A9C007F0112336B8047E4FF12336B8040123AB4
:100AAC00E7803B1230F480367F081234E3802F7FCE
:100ABC00091234E380287F0A1234E380217F0B1261
:100ACC0034E3801A7F011234E380137F021234E383
:100ADC00800C7F031234E38005E4FF1234E3301BF7
:100AEC0023C21B90003BE0FFC394384012EFD39419
:100AFC003A500C3011047D0480027D030213287FD0
:050B0C0038123ADC2262
:10393900B2063006047F0480027F03AD077F0A12B6
:0E39490013282006057F38123ADC123A9B2222
:1039C700B21430140A7F24123ADCE4FF02391BE4F4
:0A39D700FF123ADC7FFF12391B22B9
:013AE70022BC
:102CF100780FE6FF7008C2A0D2A1D2A28012EFB471
:102D01000108D2A0C2A1D2A28006D2A0D2A1C2A2A1
:102D1100E4FE2082010E2083034306022084034344
:102D21000604208503430608EE602EEFC454F02EFE
:102D3100FE7815E6B50616900095E004F0D39408E8
:102D41004029201302D207E4900095F022C213E437
:102D5100900095F07815A60622780F06E6D3940226
:0C2D61004002E4F6C213E4900095F0225A
:102E5E00200F1830871030860D780E06E6D39403B7
:102E6E004004E4F6D20FC20AC20B22A287308601BA
:102E7E00B3503A300F25A2869211A211301501B32C
:102E8E005005780CE67002D21BA2119215780C76C2
:102E9E0003E4780EF6C20FC20B800F300B0A780CCB
:102EAE007603E4780EF6C20FD20BC20A22208714E4
:102EBE00208611300A0A780C7603E4780EF6C20FDB
:052ECE00D20AC20B2234
:10336B008F277F2B1238658F2890003BE06403700A
:10337B003D12383A8F29E527600EE52970047F014D
:10338B0080027F008F298018E529C39402500575B0
:10339B002902800C0529E529D394054003752902E0
:1033AB00E529903A6A93F528FD7F2B1239ADAF28AA
:0333BB00022DE6FA
:10388F007F2C1238658F2790003BE0B40513052776
:10389F00E527D394044003E4F527AD277F2C123995
:0638AF00ADAF270237DF78
:101594004B434D2D4E4F00202D4F46462D002048E5
:1015A400454C4C4F004D5554452020004D55544555
:1015B4002D2D00564F4C20202000564F4C20004E1D
:1015C4004F49534520004652535020004345535041
:1015D4002000535753502000535253502000424B85
:1015E400535020004C504620004C49505300465262
:1015F400444C20004345444C20005357444C2000A5
:10160400424B444C20002020202020200050434DF9
:1016140000322F34004E49472D4F4E004E49472D7E
:101624004F46004657444F4E45004D50330020204E
:1016340000425249474800464C547443455474533D
:10164400575474465254745352547442525474420C
:101654004C5474534C547400464C54724345547265
:1016640053575472465254725352547242525472E3
:10167400424C5472534C5472004D4943314D4943CA
:10168400324543484F5245505444454C59524556AF
:1016940042004155582D494E4F5054494341434F00
:1016A400412D4431434F412D4432202D53442D20AC
:1016B400202D5553422D202D50432D202D42542DA5
:1016C400202048444D492D3148444D492D32484449
:1016D4004D492D3348444D492D4100202048494669
:1016E4004920322B3143484D4F44452020002046A9
:1016F4004C415420534F554E442000322F30312F4B
:1017040030322F30332F30322F31332F31322F32CA
:10171400332F32332F33332F34322F33322F3400DD
:1017240053442D494E2055442D494E2053442D4FAA
:10173400555455442D4F555450432D4F55544254F0
:101744002D4F555448442D4F55540033324B3438A3
:101754004B35364B36344B38304B39364B313132CE
:10176400313238313630313932323234323536333F
:101774003230333834000002070000243F000600F2
:10178400DB00CF00E600ED00FD000700FF00EF00E6
:10179400F7128F0039120F00F900F100BD00F612A4
:1017A40009001E0C70003805360936003F00F308A6
:1017B4003F08F300ED1201003E243028362D0000CE
:1017C400EE240900C0240012C00010181C1C1E1EA8
:0117D4001FF5
:10321000C2A5C2937F01123ABD7F40123A117F01CD
:10322000123ABDD2937F01123ABDC2937F01123A86
:10323000BD7FC0123A117F01123ABDE4F524E4FFCC
:10324000123A117F01123ABD0524E524C3941040BF
:10325000ED7F0A123ABDD293E4FDFF12377FE4FFFF
:09326000123975E4900030F022EF
:1028AA008F24300E05C20E12000EE5245402D39472
:1028BA0000500302296A900030E0601514F0700796
:1028CA007F0112371C800A900030E05401FF123752
:1028DA001C900059E0D39400400302296A30060B89
:1028EA00900055E070057F0A123ADC2001589000EA
:1028FA0055E0605214F07024201406FF123ADC806E
:10290A004590003BE024DCFF122ED38F25E52524D9
:10291A0024FF123ADCAF2512391B802A3000279097
:10292A000055E0FF75F00584E5F0701AEF75F005C3
:10293A0084F52590003BE0FFE52530E0047D028028
:10294A00027D0112132820011720061420141130C9
:10295A00050E90004FE0540FC394004003123269F1
:01296A00224A
:053ADC00E4FD021328C7
:093AB4009000557414F0C20022C8
:083ACE0090003BEFF0023AB456
:101328008F358D36E5367003123AB4C205C2A51260
:1013380039E1900075E0540FF0E53512102F13E9EC
:1013480000141A01142C02147006147C07142008C7
:1013580014410914AD0A14820B14880C148E0D1450
:10136800940E14940F149410149411149412149449
:1013780013149414149F1514A516155624155625E0
:1013880015562615562715562815562915562A1561
:10139800562B155F2E155F2F155F30155F31155FC2
:1013A80032155F33155F34155F35150938156B39FC
:1013B800156B3A156B3B156B3C156B3D156B3E1564
:1013C800834615834715834815834915834A15773E
:1013D8004B15774C15774D15774E15774F0000153F
:1013E8008D200C1790004EE0FF64046004EFB405F4
:1013F800051227E7800E12380D80097BFF7A1579D0
:10140800941236EBE490003BF0900055F0D20502C0
:10141800158D12380D02158D7BFF7A15799B1236C2
:10142800EB02158D7BFF7A1579A21236EB12000EAE
:10143800900055740AF002158DE536B4041D90002D
:10144800557414F0900058E004F0D394024002E47C
:10145800F0900058E0FD7F441239AD900058E0FD4F
:101468007F0112377F02158D9000557432F0123AC1
:10147800E802158D122A2402158D12359002158D59
:1014880012349B02158D123A7002158DE53524F23F
:10149800FF123A2702158D1232C202158D1227E764
:1014A800D20502158DE5366003B404089000557422
:1014B80050F0D200E536C394024005E536B4040B7B
:1014C8007BFF7A1579A91236EB800EE536B402094E
:0B14D8007BFF7A1579B01236EBE53689
:1014E300B4040A7D037F081239AD02158DE5366415
:1014F30003600302158D9000557414F07D027F087C
:101503001239AD02158DE536C39403401590003BA7
:10151300E0B4380EE536B404047F0180027F001284
:1015230038D7E536B4020B7BFF7A1579B71236EB61
:1015330080587BFF7A1579BE1236EB90002BE0FDC5
:101543007F041238F9E53670419000557450F0D29B
:10155300008037AD36AF35122B5E802E123A9BAD2D
:1015630036AF35122ACB8022123A9BAD36AF3512F5
:101573002F438016123A9BAD36AF35121D7A800A7F
:10158300123A9BAD36AF3512245D90003BE535F042
:011593002235
:10349B007F091238658F3730141390003BE0B40C62
:1034AB000C0537E537D394074003E4F537AD377F89
:1034BB00091239AD7BFF7A1579C31236EBE537125A
:0F34CB0010A9301409E4900031F0FF12391B22D0
:102ED300EFB407005067902EE0F8282873022EF510
:102EE300022F0A022F16022F19022F2E022F3A0247
:102EF3002F3D900049E060037F012290004AE0608B
:102F0300037F02227F032290004AE060037F0222B4
:102F13007F03227F032290004BE060037F04229013
:102F2300004CE060037F05227F002290004CE060AC
:102F3300037F05227F00227F06227F07227F002254
:102B5E008F378D38E538C39403401E90003BE0B5A7
:102B6E00371724DCFFE538B404047D0180027D00B4
:102B7E001231B69000557450F074DC2537F5377568
:102B8E00F004A4243BF974161236E6E538B4020EAE
:102B9E007D207F041210AE7D207F050210AE74835F
:102BAE002537F582E43400F583E0F539C3940950F6
:102BBE00147D2D7F041210AEC374399539FD7F0537
:102BCE001210AE80117D207F041210AEE53924273D
:092BDE00FD7F051210AED20022A9
:102ACB008F378D38E538C39403401E90003BE0B53B
:102ADB00371724D2FFE538B404047D0180027D0052
:102AEB001231B69000557450F074D22537F5377506
:102AFB00F004A4245CF974161236E6E538B4020E21
:102B0B007D207F041210AE7D207F050210AE7483F2
:102B1B002537F582E43400F583E0F539C394095089
:102B2B00147D2D7F041210AEC374399539FD7F05CA
:102B3B001210AE80117D207F041210AEE5392427D0
:102B4B00FD7F051210AEE53870089000557450F0FB
:032B5B00D2002283
:102F43008F378D38E538C39403401D90003BE0B5BF
:102F53003716E538B404047D0180027D00AF3712D3
:102F6300262D9000557450F074C72537F53775F04A
:102F730004A4247DF974161236E67D207F04121012
:102F8300AEE538B402077D207F050210AE746125DB
:102F930037F582E43400F583E0F5392430FD7F050D
:102FA3001210AEE53870089000557450F0D200222C
:101D7A008F378D38900075E04450F0A3E0F0900062
:101D8A00557450F07D207F041210AE7D207F05121D
:101D9A0010AEE53724B46056147003021E2F147077
:101DAA0003021E66147003021E9D147003021ED4E1
:101DBA0024056003021EDD7BFF7A1579CA1236EB11
:101DCA00E538C39403401B900048E004F0D3940123
:101DDA004002E4F0E4FD7F24122BE7AD077F2412D2
:101DEA0039ADE4FF123554AD077F050210AE7BFF13
:101DFA007A1579D01236EBE538C39403401B90006C
:101E0A0049E004F0D394024002E4F0E4FD7F241296
:101E1A002BE7AD077F241239AD7F01123554AD0788
:101E2A007F050210AE7BFF7A1579D61236EBE538BC
:101E3A00C39403401B90004AE004F0D3940140028B
:101E4A00E4F0E4FD7F24122BE7AD077F241239ADBD
:101E5A007F02123554AD077F050210AE7BFF7A155B
:101E6A0079DC1236EBE538C39403401B90004BE053
:101E7A0004F0D394024002E4F0E4FD7F24122BE73D
:101E8A00AD077F241239AD7F03123554AD077F05A4
:101E9A000210AE7BFF7A1579E21236EBE538C3946D
:101EAA0003401B90004CE004F0D394024002E4F09B
:101EBA00E4FD7F24122BE7AD077F241239AD7F049E
:101ECA00123554AD077F050210AE7BFF7A1579E80B
:041EDA001236EB22AF
:10245D008F378D38E53724B9603A14605A14607A95
:10246D0014700302250A2404600302252B900075C5
:10247D00E04440F0A3E0F07BFF7A1579ED1236EBE6
:10248D00E538C39403500302252BAD38E4FF123019
:10249D008A02252B7BFF7A1579F21236EB900075A7
:1024AD00E04450F0A3E0F0E538C394034070AD383C
:1024BD007F0112308A80677BFF7A1579F81236EB2F
:1024CD00900075E04450F0A3E0F0E538C39403406C
:1024DD004DAD387F0212308A80447BFF7A1579FE2C
:1024ED001236EB900075E04450F0A3E0F0E538C3F0
:1024FD009403402AAD387F0312308A80217BFF7A06
:10250D001679041236EB900075E04450F0A3E0F01C
:10251D00E538C394034007AD387F0412308A90002C
:10252D00557432F074F82537F582E434FFF583E005
:0A253D0075F005A4FD7F040238F9D3
:10380D0090004EE0FFC39404400FEFD3940750098E
:10381D00900076E04420F08007900076E054DFF0D1
:0D382D00EF75F006A42496F974160236E635
:013AE80022BB
:10383A00AE07EE543024F0601224F0601124207098
:10384A0017EE30E0037F01227F00227F0222EE3052
:0B385A00E0037F04227F03227F052291
:102DE6008F3012383A8F31900076E0542CF0E5316E
:102DF600C394025016EF75F006A424DFF974161278
:102E060036E6900076E04401F080457BFF7A16793D
:102E1600EB1236EBE531242FFD7F051210AEE530BF
:102E260024FD601314601914601F2403702290009F
:102E360076E04402F08019900076E04480F080103D
:102E4600900076E04440F08007900076E04410F071
:082E5600123AB47F03023ACEE8
:1037DF008F30E53060067E007F0680047E007F001C
:1037EF0074F22FF974163EFA7BFF1236EBE5306058
:0E37FF00082430FD7F051210AE7F05023ACE81
:102A240090004FE0FF540FC394025003022AC7E4FE
:102A3400F53BEFC4540F75F003A4F5377BFF7A160A
:102A4400790A1236EB122FB390004FE0540F24FD95
:102A5400602414604314604024FE605E24F7601612
:102A640014601324FD24FD502F241570597BFF7A24
:102A74001679110236EB74FF2537F9E43416FA7B24
:102A8400FF7542007543007544387F0312374E7B4F
:102A9400007A0079380236EB74FF2537F9E43416EE
:102AA400FA7BFF7542007543007544387F03123783
:102AB4004E7B007A0079380236EB7BFF7A16791563
:072AC4000236EB12380D226F
:10355400AE07EE700C900048E060037F4C227F536E
:1035640022BE020C90004AE060037F59227F4E2263
:1035740074482EF582E43400F583E0FDB402037F41
:0C3584004C22EDB401037F53227F4E2245
:103590007F231238658F3790003BE0B40B16E53778
:1035A000C3943250057537328003E4F537AD377F69
:1035B000231239ADE53760097BFF7A167919023697
:0B35C000EB7BFF7A1679201236EB221D
:0F3A70009000557432F07BFF7A1679270236EBFF
:103A27009000557432F0EF75F006A42424F974174A
:033A37000236E66E
:1032C2009000557414F0900075E054BFF07BFF7AC3
:1032D20016790A1236EB900044E02401FD90004377
:1032E200E03400FCE4FF12296B8F3E053E7D2F1275
:1032F20010AE90004EE0B4040D90002EE0FEA3E06C
:10330200FFAC06FD800B900052E0FEA3E0FFAC068E
:06331200FDAF3E02296B35
:1027E700C3900057E09403900056E0940050030212
:1027F70032C2C3900057E09405900056E094005011
:1028070064900067E0FF131313541FF53790004FD0
:10281700E0540F640A704E9000557414F0E537D3F6
:1028270094004041E5379410503B754200754300D2
:102837007544387BFF7A16792E7F0312374EE537BA
:1028470075F003A4244CF9741735F0FA7BFF754231
:102857000075430075443B7F0312374E7B007A00B7
:1028670079380236EB7BFF7A1679321236EB900015
:1028770056E0FEA3E0FF7C007D3C120E8AAD077F89
:10288700021238F9900056E0FEA3E0FF7C007D3C81
:10289700120E8A7F041238F9900075E04440F0A3C5
:0328A700E0F0223C
:10377F008D37EFD39400400E7BFF7A1679351236D2
:10378F00EBE5371210A9C2937F01123ABDE53790CE
:10379F00177A934488FF123A117F01123ABDD293E0
:0137AF0022F7
:10308A00EF70047C0180027C00EC14601114601261
:10309A00146013146014240470127E13800E7E09C7
:1030AA00800A7E0980067E0980027E09BD04247496
:1030BA003E2FF582E43400F583E0D39E4002EEF021
:1030CA00743E2FF582E43400F583E0C39E501AE083
:1030DA0004F022BD0313743E2FF582E43400F58315
:0A30EA00E0D394004003E014F0224C
:013AE90022BA
:102FB300900075E054F8F0A3E054FBF090004FE06C
:102FC300540F24FD603514603B14603824FE6040C8
:102FD30024F7602714602424FD24FD502724157052
:102FE3003990008DE0FF64536030EF6456602B909E
:102FF3000075E04404F0A3E0F0801F900076E04405
:1030030004F08016900075E04401F0A3E0F0800A1C
:0D301300900075E04404F0A3E0F0D20E221E
:10360500EF5403FE900078E054F0F0BE0106E0446C
:1036150008F0800ABF0207900078E04404F0EF54F8
:10362500C0FE6013BEC009900078E04401F0800739
:0A363500900078E04402F0D20E226B
:10371C008F35E535B4FF117F1F123865EF30E704A4
:10372C007F0180027F008F35E535600C900075E0DD
:10373C004408F0A3E0F08007900075E054F7F0D255
:02374C000E224B
:0536E60035F0FA7BFF46
:1036EB008B3F8A408941E4F543AB3F0541E541AA55
:1036FB00407002054014F9120E10F5426012AD42F3
:10370B00AF431210AE0543C3E5436480948640D9A2
:01371B00228B
:10296B008F3F8C408D41AE40AF417C277D10120EC6
:10297B008AEF4E601AEF2430FDAF3F053F1210AEC9
:10298B00AE40AF417C277D10120E8A8C408D41AE3C
:10299B0040AF417C037DE8120E8AEF4E601AEF24A4
:1029AB0030FDAF3F053F1210AEAE40AF417C037D13
:1029BB00E8120E8A8C408D41AE40AF417C007D64A5
:1029CB00120E8AEF4E601AEF2430FDAF3F053F1217
:1029DB0010AEAE40AF417C007D64120E8A8C408DF0
:1029EB0041AE40AF417C007D0A120E8AEF4E601A59
:1029FB00EF2430FDAF3F053F1210AEAE40AF417C30
:102A0B00007D0A120E8A8C408D41AF3F053FE54198
:092A1B002430FD1210AEAF3F2281
:1038F9008F3E8D3FE53F75F00A842430FD1210AEEE
:10390900E53E04FFE53F75F00A84E5F02430FD0249
:0239190010AEEE
:0510A9002431FD7F056C
:1010AE008F448D45E544C394034003021179E54511
:1010BE00C394304012E545D39439500B74D0254576
:1010CE00F54504F546804CE545C39461400FE54572
:1010DE00D3947A5008E54524AAF5468036E545C3F3
:1010EE009441400FE545D3945A5008E54524CAF57E
:1010FE00468020E54524D5601224FC600924027048
:10110E000F754625800D7546268008754627800387
:10111E00E4F546E54625E0247DF582E43417F583B3
:10112E00E493FEE54425E02469F582E43400F5837A
:10113E00EEF0A3E4F0E54425E02469F582E4340002
:10114E00F583C083C082E0FEA3E0FFE54625E024E0
:10115E007EF582E43417F583E493FDEEEF4DFFD078
:10116E0082D083EEF0A3EFF0021325E544C394067C
:10117E0040030212AFE545C394304066E545D39473
:10118E0039505F74D02545F54504F54625E0247D9C
:10119E00F582E43417F583E493FEE54425E02469F3
:1011AE00F582E43400F583EEF0A3E4F0E54425E0A7
:1011BE002469F582E43400F583C083C082E0FEA387
:1011CE00E0FFE54625E0247EF582E43417F583E45E
:1011DE0093FDEEEF4DFFD082D083EEF0A3EFF00241
:1011EE001325E54512102F12382D123D41124242A1
:1011FE00124743124C44125145125646125B471287
:10120E006548126049126A4C126F4E12744F127971
:10121E0050127E52128353128854128D55129259C7
:10122E00127E72128874000012977545C0805D752B
:10123E0045F7805875457C8053754539804E754508
:10124E00DE80497545F980447545F1803F7545EF5F
:10125E00803A75450680357545F68030754538807F
:10126E002B754537802675453F80217545F3801CCB
:10127E0075455080177545ED80127545F8800D75D2
:10128E00453E800875456E8003E4F545E54425E04E
:10129E002469F582E43400F583E4F0A3E545F0809B
:1012AE0076E544D39406401AE544940D5014E54572
:1012BE00C39401400DE545D394055006E54524261B
:1012CE00F546E54625E0247DF582E43417F583E402
:1012DE0093FEE54425E02469F582E43400F583EEBF
:1012EE00F0A3E4F0E54425E02469F582E43400F54A
:1012FE0083C083C082E0FEA3E0FFE54625E0247EA6
:10130E00F582E43417F583E493FDEEEF4DFFD082C2
:0A131E00D083EEF0A3EFF0D20E2210
:1039E100E4FFEF25E02479F582E43400F583E4F087
:0A39F100A3F00FEFC3940540E92294
:063A7F00131313541FFF96
:093A8500EF54079017CD93FF22C6
:103269007B007A0079277D037C007F8F1237B0308D
:103279000C030239E1AF27123A85900079E4F0A3F3
:10328900EFF0E527123A7F90007BE4F0A3EFF0AF6F
:1032990028123A8590007DE4F0A3EFF0E528123A70
:1032A9007F90007FE4F0A3EFF0AF29123A859000F8
:0932B90081E4F0A3EFF0D20E2233
:103A3A00E4FFE4900079F0A3F00FEFC3940540F29D
:033A4A00D20E2277
:10397500E4FEEFFDEE25E02469F582E43400F583ED
:0D398500E4F0A3EDF00EEEC3940D40E62239
:10000E00E4FF74062FF582E43400F583E4F00FEF7D
:10001E00C3941040ED900069E0FEA3E0FF30E007CE
:10002E00900014E04408F0EF30E10790000DE0443A
:10003E0008F0EF30E207900006E04408F090006A06
:10004E00E030E307900009E04408F0900069E0FE1C
:10005E00A3E0FF30E407900011E04408F0EF30E534
:10006E0007900015E04408F0EF30E60790000FE02F
:10007E004408F090006AE030E70790000CE0440876
:10008E00F0900069E0FEA3E0FFEE30E00790001371
:10009E00E04408F0EE30E107900012E04408F0EE84
:1000AE0030E20790000BE04408F0900069E0A330C6
:1000BE00E307900007E04408F0900069E0FEA3E03B
:1000CE00FFEE30E407900008E04408F0EE30E5075C
:1000DE0090000EE04408F090006BE0FEA3E0FF30CD
:1000EE00E007900014E04420F0EF30E10790000D9F
:1000FE00E04420F0EF30E207900006E04420F0905C
:10010E00006CE030E307900009E04420F090006BB3
:10011E00E0FEA3E0FF30E407900011E04420F0EF92
:10012E0030E507900015E04420F0EF30E607900030
:10013E000FE04420F090006CE030E70790000CE0F8
:10014E004420F090006BE0FEA3E0FFEE30E007905D
:10015E000013E04420F0EE30E107900012E044205E
:10016E00F0EE30E20790000BE04420F090006BE0E0
:10017E00A330E307900007E04420F090006BE0FE10
:10018E00A3E0FFEE30E407900008E04420F0EE30EC
:10019E00E50790000EE04420F090006DE0FEA3E035
:1001AE00FF30E007900014E04410F0EF30E10790CC
:1001BE00000DE04410F0EF30E207900006E044102E
:1001CE00F090006EE030E307900009E04410F090EC
:1001DE00006DE0FEA3E0FF30E407900011E0441054
:1001EE00F0EF30E507900015E04410F0EF30E60731
:1001FE0090000FE04410F090006EE030E7079000A2
:10020E000CE04410F090006DE0FEA3E0FFEE30E055
:10021E0007900013E04410F0EE30E107900012E07A
:10022E004410F0EE30E20790000BE04410F0900026
:10023E006DE0A330E307900007E04410F090006DEE
:10024E00E0FEA3E0FFEE30E407900008E04410F07B
:10025E00EE30E50790000EE04410F090006FE0FEE7
:10026E00A3E0FF30E007900014E04404F0EF30E12B
:10027E000790000DE04404F0EF30E207900006E036
:10028E004404F0900070E030E307900009E044046D
:10029E00F090006FE0FEA3E0FF30E407900011E065
:1002AE004404F0EF30E507900015E04404F0EF3021
:1002BE00E60790000FE04404F0900071E0FEA3E02A
:1002CE00FF30E007900014E04480F0EF30E107903B
:1002DE00000DE04480F0EF30E207900006E044802D
:1002EE00F0900072E030E307900009E04480F09057
:1002FE000071E0FEA3E0FF30E407900011E04480BF
:10030E00F0EF30E507900015E04480F0EF30E6079F
:10031E0090000FE04480F0900073E0FEA3E0FF3009
:10032E00E007900014E04402F0EF30E10790000D7A
:10033E00E04402F0EF30E207900006E04402F09055
:10034E000074E030E307900009E04402F09000737F
:10035E00E0FEA3E0FF30E407900011E04402F0EF6E
:10036E0030E507900015E04402F0EF30E60790000C
:10037E000FE04402F0900075E0FEA3E0FF30E007CE
:10038E00900014E04401F0EF30E10790000DE044DE
:10039E0001F0EF30E207900006E04401F0900076A5
:1003AE00E030E307900009E04401F0900075E0FEB4
:1003BE00A3E0FF30E407900011E04401F0EF30E5D8
:1003CE0007900015E04401F0EF30E60790000FE0D3
:1003DE004401F0900076E030E70790000CE0440115
:0403EE00F090007516
:1003F200E0FEA3E0FFEE30E007900013E04401F0DE
:10040200EE30E107900012E04401F0EE30E2079096
:10041200000BE04401F0900075E0A330E307900088
:1004220007E04401F0900075E0FEA3E0FFEE30E447
:1004320007900010E04420F0EE30E507900010E055
:100442004410F0EE30E607900010E04404F0900013
:1004520077E0FEA3E0FF30E00790000BE04404F0F9
:10046200EF30E107900012E04404F0EF30E2079031
:100472000013E04404F0900078E030E30790000CB1
:10048200E04404F0900079E0FEA3E0FF30E0079042
:100492000007E04480F0EF30E10790000BE0448079
:1004A200F0EF30E207900012E04480F090007AE032
:1004B20030E307900013E04480F090007AE030E4EB
:1004C2000790000CE04480F090007BE0FEA3E0FF88
:1004D20030E00790000BE04402F0EF30E1079000BB
:1004E20012E04402F0EF30E207900013E04402F021
:1004F20090007CE030E30790000CE04402F09000B2
:100502007DE0FEA3E0FF30E007900011E04440F000
:10051200EF30E107900009E04440F0EF30E207904D
:100522000006E04440F090007EE030E30790000DCA
:10053200E04440F090007EE030E407900014E04494
:1005420040F090007FE0FEA3E0FF30E00790001350
:10055200E04440F0EF30E10790000CE04440F0EF5F
:1005620030E20790000FE04440F0900080E030E37A
:1005720007900015E04440F0900081E0FEA3E0FF08
:1005820030E00790000EE04440F0EF30E1079000C9
:1005920008E04440F0EF30E207900007E04440F00A
:1005A200900082E030E30790000BE04440F09000BE
:1005B20082E030E407900012E04440F0C2937F01F1
:1005C200123ABD7F40123A117F01123ABDD2937F97
:1005D20001123ABDC2937F01123ABD7FC0123A1195
:1005E200E4F53774062537F582E43400F583E0FF3D
:0F05F200123A110537E537C3941040E7D2932230
:103A11007E08C290EF139291EFC313FFD2901EEE76
:063A2100D3940050ED22D9
:10395700AE0753050FEDC3940A5006ED2430FFFD63
:0E39670022EE6005ED2457FF22ED2437FF22EB
:101BE7008F658D66E5667029AF6AAE69AD68AC67CB
:101BF700EC4D4E4F701BAB6BAA6CA96D7430120E77
:101C070056AB6BAA6CA96D900001E4120E687F01B8
:101C170022E4F56EF56FE56564646009E565647552
:101C27006003021D157575007574CA75739A757210
:101C37003BE565B4643FE4FFFEFDE5675480FC6067
:101C470034AB6BAA6CA96DAF6F056F8F827583007C
:101C5700742D120E68E56AFBE569FAE568F9E56730
:101C6700547FF8C3E49BF56AE49AF569E499F5684B
:101C7700748098F56775700BAB75AA74A973A87211
:101C8700AF6AAE69AD68AC67120F468F711570E524
:101C97007065666004E5716003756E01E56E601A34
:101CA700AD71E4FF123957AB6BAA6CA96DAE6F0526
:101CB7006F8E82758300EF120E68AF6AAE69AD68EA
:101CC700AC67AB75AA74A973A872120F46AC00ADC6
:101CD70001AE02AF038F6A8E698D688C67AF75AEF0
:101CE70074AD73AC72E47B0AFAF9F8120F468F757C
:101CF7008E748D738C72E4FFFEFDFCAB75AA74A91C
:101D070073A872C3120FD86003021C7F80527570CC
:101D17002075710974FC2570F570AF6AAE69AD68FE
:101D2700AC67F9F8120FE9AD071571E571656660E3
:101D370003ED6003756E01E56E6021E565B4580437
:101D47007F0180027F00123957AB6BAA6CA96DAE79
:101D57006F056F8E82758300EF120E68E57070B4A1
:101D6700AB6BAA6CA96D856F82758300E4120E6850
:031D7700AF6F2229
:100B11008B508A518952E4F559F55AAB53AA54A91D
:100B210055AF59EF3395E08F82F583120E29642575
:100B31006051D3E55A6480949E4003AF5A22AB536F
:100B4100AA54A955AF590559EF3395E08F82F58322
:100B5100120E29FFAB50AA51A952AE5A055AEEFD09
:100B61003395E08D82F583EF120E68AB53AA54A939
:100B710055AF59EF3395E08F82F583120E29709BA3
:100B8100AF5A22AF59EF3395E08F82F583A3AB5370
:100B9100AA54A955120E29F55F6473706BAB56E523
:100BA10058F92403F558E557FA3400F55712100F98
:100BB1008B5C8A5D895E05590559E4F55BAB5CAADE
:100BC1005DA95EAF5BEF3395E08F82F583120E294D
:100BD1007003020B1CC3E55A6480949E4003020B10
:100BE1001C055BEF3395E08F82F583120E29FFAB75
:100BF10050AA51A952AE5A055AEEFD3395E08D82A5
:100C0100F583EF120E6880B5E55FB4251E05590521
:100C110059AB50AA51A952AF5A055AEF3395E08FFB
:100C210082F5837425120E68020B1CE55FB46332F2
:100C310005590559AB56E558F92402F558E557FA17
:100C41003400F557120EDFFFAB50AA51A952AE5A2C
:100C5100055AEEFD3395E08D82F583EF120E6802A1
:100C61000B1CE4F560F55BAF59EF3395E0FEEF2423
:100C710001FFE43EFEAD5BED3395E0FCED2FF58227
:100C8100EC3EF583AB53AA54A955120E29F55FC367
:100C9100648094B0401ED3E55F648094B95015E53B
:100CA1005F24D0FFE56075F00AA42FF560055BE5D0
:100CB1005BB403B3AF59EF3395E0FEEF2401FFE4DA
:100CC1003EFEAD5BED3395E0FCEF2DFFEE3CFEAB60
:100CD10053E5552FF9E5543EFA8B5CF55D895EE5E8
:100CE100592402255BF559120E10249C600F24EF44
:100CF100600B24FD600724206003020B1CAB56052A
:100D010058E558AA577002055714F9120E10FF330F
:060D110095E08F64F5631C
:100D1700F562F561FEAD62AC617808120FFC8F6475
:100D27008E638D628C610558E558AA577002055786
:100D370014F9120E10FF3395E0FEFDFCE5644FF544
:100D470064E5634EF563E5624DF562E5614CF56177
:100D5700AF64AE63AD62FC7808120FFC8F648E63DC
:100D67008D628C610558E558AA577002055714F92A
:100D7700120E10FF3395E0FEFDFCE5644FF564E5C8
:100D8700634EF563E5624DF562E5614CF561AF646D
:100D9700AE63AD62FC7808120FFC8F648E638D62C0
:100DA7008C610558E558AA577002055714F9120EB9
:100DB70010FF3395E0FEFDFCE5644FF564E5634EF7
:100DC700F563E5624DF562E5614CF561AB5CAA5DE3
:100DD700A95E120E10FFC00785646A856369856284
:100DE70068856167AF5AEF3395E0FEE5522FF9E565
:100DF700513E85506BF56C896DD007AD60121BE7CE
:090E0700EF255AF55A020B1C22DA
:1033BE008B3B8A3C893D754D00754E00754F3E8B9B
:1033CE00538A548955854D56854E57854F587B01E6
:1033DE007A007996120B11E4FEC3EF6480F8EE6466
:1033EE008098501BC299EEFD3395E0FC74962DF536
:1033FE008274003CF583E0F5993099FD0E80DA2257
:10367700123A4D123210123AE6123AE5123AC67869
:1036870014E6FF5401D3940040F51220197814E68C
:10369700FF1206017814E6FF1228AA7814E6FF1233
:0836A700363FE47814F680D7E9
:103A4D00758921758851759850758DFF43878075DF
:033A5D00A8832219
:033AE1008F092228
:093ABD00EFD394034002DFFE2266
:03000B000222537B
:10225300C0E0C0F0C083C082C0D075D000C000C051
:1022630001C002C003C004C005C006C007758A6070
:10227300758CFF781106E675F00A84E5F0600302B9
:10228300230C122E5E7811E675F06484E5F0703B42
:10229300F678147601780D06E675F00A84E5F07099
:1022A3002A7814E64402F6780DE6FF75F03284E5E9
:1022B300F070187814E64404F6EF75F06484E5F0E2
:1022C3007009780DF67814E64408F630053B900063
:1022D3002AE004F0D394134006E4F0D2A5802A90B8
:1022E3000058E0FF700B90002AE0B40104C2A580FF
:1022F30018EFB4010B90002AE0B40404C2A58009CE
:1023030090002AE0B40802C2A57810E6603806E619
:10231300D3949F40312008247812E6B4021E781724
:10232300E660197813E6FFC39408500EEF5403FFD9
:10233300BF0302D2197813068002D21978127600ED
:10234300C20878107600D007D006D005D004D00399
:10235300D002D001D000D0D0D082D083D0F0D0E052
:012363003247
:03000300022C6D5F
:102C6D00C0E0C0D075D000C000C006C00720086508
:102C7D00781206E6FFB4020C7810E6D39491405515
:102C8D00D2088051780BE6FEC313F67810E6D39484
:102C9D00104006780BE64480F6EF640A6004EFB44A
:102CAD001A07780BE618F6802CEFB41212780BE6A3
:102CBD00B4BF0418E6601E78177600D2088016EFB0
:102CCD00B42212D21978137600780BE6F4186660E8
:102CDD0004C219D20878107601D007D006D000D0E2
:042CED00D0D0E03231
:03000000023AA819
:0C3AA800787FE4F6D8FD75817502367752
:100E1000BB010689828A83E0225002E722BBFE02E0
:090E2000E32289828A83E4932213
:100E2900BB010CE58229F582E5833AF583E022507E
:100E390006E92582F8E622BBFE06E92582F8E222C8
:0D0E4900E58229F582E5833AF583E49322E2
:100E5600BB010689828A83F0225002F722BBFE017B
:020E6600F32275
:100E6800F8BB010DE58229F582E5833AF583E8F0C0
:100E7800225006E92582C8F622BBFE05E92582C86C
:020E8800F22254
:100E8A00BC000BBE0029EF8DF084FFADF022E4CC4C
:100E9A00F875F008EF2FFFEE33FEEC33FCEE9DEC15
:100EAA00984005FCEE9DFE0FD5F0E9E4CEFD22ED5B
:100EBA00F8F5F0EE8420D21CFEADF075F008EF2FA5
:100ECA00FFED33FD4007985006D5F0F222C398FD96
:050EDA000FD5F0EA2233
:100EDF00BB010A89828A83E0F5F0A3E022500687DE
:100EEF00F009E71922BBFE07E3F5F009E3192289A0
:0B0EFF00828A83E493F5F074019322D3
:100F0A0075F008758200EF2FFFEE33FECD33CDCC9E
:100F1A0033CCC58233C5829BED9AEC99E582984021
:100F2A000CF582EE9BFEED9AFDEC99FC0FD5F0D6FE
:100F3A00E4CEFBE4CDFAE4CCF9A88222B800C1B928
:100F4A000059BA002DEC8BF084CFCECDFCE5F0CB66
:100F5A00F97818EF2FFFEE33FEED33FDEC33FCEB9F
:100F6A0033FB10D703994004EB99FB0FD8E5E4F95A
:100F7A00FA227818EF2FFFEE33FEED33FDEC33FC47
:100F8A00C933C910D7059BE99A4007EC9BFCE99A3B
:100F9A00F90FD8E0E4C9FAE4CCFB2275F010EF2F80
:100FAA00FFEE33FEED33FDCC33CCC833C810D70780
:100FBA009BEC9AE899400AED9BFDEC9AFCE899F8BB
:0E0FCA000FD5F0DAE4CDFBE4CCFAE4C8F9224E
:100FD800EB9FF5F0EA9E42F0E99D42F0E89C45F06F
:010FE80022E6
:100FE900E8600FECC313FCED13FDEE13FEEF13FFE6
:030FF900D8F1220A
:100FFC00E8600FEFC333FFEE33FEED33FDEC33FC53
:03100C00D8F122F6
:10100F00BB010789828A8302108B5005E9F8021011
:10101F0082BBFE05E9F802109489828A8302109D33
:10102F00D083D082F8E4937012740193700DA3A350
:10103F0093F8740193F5828883E473740293686064
:06104F00EFA3A3A380DF64
:10105500D083D082F8E4937012740193700DA3A32A
:1010650093F8740193F5828883E473740293B5F061
:0D107500067403936860E9A3A3A3A380D8C9
:09108200E6FB08E6FA08E6F92293
:09108B00E0FBA3E0FAA3E0F92266
:09109400E2FB08E2FA08E2F9228D
:0C109D00E493FB740193FA740293F922AF
:00000001FF
