:1039AE008F3E8D3F1239FC7FCC1235CCAF3E123597
:0A39BE00CCAF3F1235CC123A8F2235
:1038B6008F2C8C2D8D2E1239FC7FCC1235CCAF2C53
:1038C6001235CCAF2E1235CCE52DFF1235CC123A7F
:0238D6008F223F
:10345D008F358C368D378B388A39893A1239FC7F06
:10346D00CC1235CCAF351235CCAB38053AE53AAA8E
:10347D00397002053914F9120E10FF1235CCE537EB
:0F348D0015377002153614453670DE123A8F224D
:103866008F38E4F5391239FC7FCC1235CC200C1494
:10387600AF381235CC1239FC7FCD1235CCD21D12A1
:0A38860036B08F39123A8FAF3922A5
:103519008F2CE4F52DF52E1239FC7FCC1235CC20F9
:103529000C22AF2C1235CC1239FC7FCD1235CCC20E
:103539001D1236B0752D008F2ED21D1236B0EFFE3A
:0C354900E4EE422D123A8FAE2DAF2E2280
:103319008E3B8F3C8B3D8A3E893FD3E53C9401E54A
:103329003B94004008E53C153C7002153BC21D1258
:1033390036B0AB3D053FE53FAA3E7002053E14F9A4
:10334900EF120E56E53C153C7002153B14453B70D7
:10335900DCD21D1236B0AB3DAA3EA93FEF120E5684
:03336900023A8F96
:1037B1008F358C368D378B388A39893A1239FC7FAF
:1037C100CC1235CCAF351235CC1239FC7FCD123548
:0F37D100CCAB38AA39A93AAF37AE36123319222A
:10340F008F308C318D328B338A3489351239FC7F72
:10341F00CC1235CCAF301235CC1239FC7FCD1235F2
:10342F00CCC21D1236B07536008F37D3E5379532C3
:10343F00E53695314006853136853237AB33AA34C0
:0E344F00A935AF37AE36123319AE36AF37227D
:1035CC008F40754108C296E54030E704D2958002E1
:1035DC00C295123AE5E54025E0F540D296123AE55F
:1035EC00D541E2C296D295120006D2961200063050
:0A35FC009502D20CC29612000622BE
:1036B000D295120006754108D296E54025E0F54006
:1036C000309503434001123AE5C296123AE5D541DE
:1036D000E7201D04C2958002D295120006D29612F0
:0736E0000006C296AF402274
:1039FC00D295D296120006C20C209502D20CC2951A
:063A0C00120006C2962222
:0D3A8F00C295120006D296120006D29522B2
:050006007F0ADFFE226D
:013AE50022BE
:101EDE004B434D5F504F5745525F4F4E0D0A004BCF
:101EEE00434D5F524541445F495251204572726FD6
:101EFE00720D0A004B434D5F4952515F504C415990
:101F0E005F53544154555320253032780D0A004901
:101F1E004E5055545F53574954434820253032781C
:101F2E002025640D0A0053455420004B434D5F5647
:101F3E004F4C554D455F4354524C2025640D0A00BD
:101F4E004B434D5F494E5055545F534F5552434589
:101F5E0020253032780D0A004B434D5F4C495354C7
:101F6E00454E5F4D4F444520253032780D0A0041D5
:101F7E007070436F6D6D616E642025303278202550
:101F8E0030327820253032780D0A0003C500080063
:101F9E0006230031520075000000802F80005C0087
:101FAE00000F80002C00805A80000800005880002E
:101FBE00320000060080258000B400000D010508E7
:101FCE000064005E01E803E40C10270010111230CB
:101FDE00313233202122240001101112130002038A
:101FEE00010507060419181716151413121100010E
:101FFE00020304050607080903040506080A0F195B
:0C200E00326400020406080A0C0D0E0FDC
:083AC700E4900058F00239936D
:103993007D017F051239AE7F02123ADD9000597422
:0B39A30064F07BFF7A1E79DE0233BF68
:10201A008F2430940302213B7F011238668F25AD4D
:10202A00257F031239AE300C097BFF7A1E79ED0247
:10203A0033BFE5255401D3940040031217D5E52593
:10204A005402D39400404B7F0612386690004FEF3B
:10205A00F07F07123866900067EFF0900059E07041
:10206A00082014057F07123ADD90004FE070031232
:10207A003A3B122FB4123AEA90004EE0FF64046031
:10208A0004EFB4050D7F9912351990002CEEF0A3D8
:10209A00EFF0E5255408D394004003121A11E52500
:1020AA005404D3940040167F2F12386690002BEF09
:1020BA00F090003BE0B438057F38123ADDE525544C
:1020CA0010D3940040057F0D123ADDE5255440D324
:1020DA00940040247F12123519900056EEF0A3EFB7
:1020EA00F04E600F90003BE06401600C7F16123ADC
:1020FA00DD80057F15123ADDE5255420D394004092
:10210A00247F0E123866900029EFF07BFF7A1F7940
:10211A0002E48F41F540F53FF53E1233BF900029A6
:10212A00E0FF123606E5255480D3940040031223BB
:02213A0065221C
:1017D5007B007A00792B7D047C007F401237B13085
:1017E5000C05E4FF023ADDE52F5403900058F07F25
:1017F500201238668F297F8112386690008DEFF0B0
:10180500AD297F201225518F2A7BFF7A1F791DE490
:10181500852941F540F53FF53E8F45F544F543F5FE
:1018250042852B49F548F547F5461233BFE52AC3EE
:101835009404400FE52AD39407500890004EE52BF9
:10184500F0800690004EE52AF07F2F123866900052
:101855002BEFF0E4F527AD277F091225518F2AE5F7
:101865002A2430FF1238668F29AD297F3012255181
:101875007483252AF582E43400F583EFF00527E526
:1018850027C3940840D07F391238668F29E529543B
:101895000FFD7F39122551900061EFF0E529C45401
:1018A5000FFD7F39122551900062EFF07F3A123813
:1018B50066122548900063EFF07F3B1238661225CB
:1018C50048900064EFF07F381238668F29AD297F84
:1018D50038122551900065EFF07F3C1238661225CD
:1018E50048900066EFF07F241238668F2AAD2A7F74
:1018F500241225517D507F2E1239AE7D467F25124B
:1019050039AE7D467F261239AE752B44752C44754C
:101915002D30E4F52EFB7A00792B7D04FC7F8012B7
:10192500345DE4F528E4F527E527901F9993FF74C6
:101935002C2527F8A6070527E527B405EBE5280498
:10194500F52B7B007A00792B7D067C007F8B12348A
:101955005DE4F527E527901F9E93FF742C2527F856
:10196500A6070527E527B409EBE4F527742C2527F9
:10197500F8E6FFE52875F009A424A7F582E4341FED
:10198500F583E5822527F582E43583F583E4934FD6
:10199500F60527E527B409D4E52804F52B7B007A5D
:1019A50000792B7D0A7C007F8C12345D0528E528A3
:0819B500C39404500302192A37
:1019BD007BFF7A1F79CB7D0E7C007F8E12345DE428
:1019CD0090004FF0900067F0900029F0C201C21412
:1019DD00C20690008BF0FFFE12213C7F02123ADD11
:1019ED00900059740AF0123AEA122FB47FFF1237A1
:1019FD001D900029E0FF123606900058E0FDE4FF2F
:041A0D0012378022EA
:102D6E007BFF7A1F79341236ECE4F527AD277F040A
:102D7E001238FA12000E7FFF123ABE7FFF123ABED1
:102D8E000527E527C3946440E3E4F529F52AF52BDE
:102D9E00F52C752D02FB7A0079297D05FC7F4012FA
:102DAE00345D7D277F2F1239AEE4F527E5272430D9
:102DBE00FFE4FD1239AE0527E527C3940840ED7DEB
:102DCE00AB7F241239AE7D017F051239AE7F021220
:092DDE003ADD900059741EF02248
:102365007B007A0079277D087C007FA012340F8FCF
:102375002FE52F64026003022459E52724F8700332
:1023850002241B24E8602F24F5605714606E24FD99
:1023950060030224347BFF7A1F7939E4852841F5EF
:1023A50040F53FF53E1233BF90002BE528F07F380E
:1023B500123ADD0224597BFF7A1F794EE4852841C4
:1023C500F540F53FF53E1233BFAD287F201225516C
:1023D50090004EEFF0123AD7123A9CE4FF123ADD24
:1023E50080727BFF7A1F7966E4852841F540F53FC9
:1023F500F53E1233BFAF28122DE780587BFF7A1FB9
:102405007966E4852841F540F53FF53E1233BFAFC7
:10241500281237E0803EA206E433FFE52854016F19
:102425007032E52830E22D90003B7438F080257B32
:10243500FF7A1F797DE4852F41F540F53FF53E850F
:102445002745F544F543F542852849F548F547F50F
:09245500461233BF7F0102371D5E
:102BE800EF24F7602524E5602F24F9601624FB60A4
:102BF8002024F8606714605D24197067ED901FD970
:102C080093FF22ED901FE593FF22ED901FEB93FFBA
:102C180022ED901FF393FF22E4F53E90004AE0D3A3
:102C280094004003433E01900048E0D394004003E1
:102C3800433E02900049E0FF25E025E0423E900037
:102C48004BE0FFC454F0423EA3E0FFC4333354C00A
:102C5800423EAF3E22ED90201093FF22ED902006D9
:062C680093FF227F002211
:092548008F29E529540FFD7F38AD
:10255100E4FEEF24F7604A24E5607024F9602D243D
:10256100FB605324F870030226161470030226013F
:102571002419600302262BEE901FD993B50503AFF2
:1025810006220EEEC3940C40EE7F0022EE901FE572
:1025910093B50503AF06220EEEC3940640EE7F010C
:1025A10022EE901FEB93B50503AF06220EEEC39406
:1025B1000840EE7F0022EE901FF393B50503AF06AE
:1025C100220EEEC3941340EE7F0022ED30E1047F32
:1025D1000180027F00900048EFF0ED13135403A334
:1025E100F0ED30E0047F0180027F0090004AEFF0BF
:1025F100EDC45403A3F0EDC413135403A3F0802AD4
:10260100EE90201093B50503AF06220EEEC3940A97
:1026110040EE7F0022EE90200693B50503AF06221F
:0D2621000EEEC3940A40EE7F00227F0022DF
:10374F008B3F8A408941EF6027AB3F0541E541AA96
:10375F00407002054014F9120E10FEAB420544E50D
:10376F0044AA437002054314F9EE120E561F80D679
:01377F002227
:102712006752656D6F766554696D65722025640D2B
:102722000A004D4B434D5F507265656D707469626E
:102732006C653A25642025642F25640D0A00496ED4
:10274200707574536F757263653A2564206C61739A
:10275200743A2530327820253032780D0A00496EDD
:10276200707574536F75726365423A2564206C61AB
:1027720073743A253032780D0A004B434D5F535241
:10278200435F56414C494420452025642025640D71
:102792000A004B434D5F5352435F56414C49443A02
:1027A20025303478204C6173743A253034780D0A20
:1027B200004B434D5F5352435F56414C4944203DC9
:1027C200204C6173743A253034780D0A00000102FE
:1027D2000300200040100040000100020004000439
:0627E20005060708090AC4
:013AE60022BD
:103640008F2490008BE0602F04F0D394C840287F33
:10365000401238668F257BFF7A277912E48F41F577
:1036600040F53FF53E1233BFE490003BF0AF25122A
:0836700034E4E490008BF02229
:1038D8008F37123A9CD218E537600D7538303006AC
:1038E8000AC2064338028003753820AD387F0802C3
:0238F80039AEE7
:10391C00AD07EDC394FF500E7F09122BE8EF441056
:0E392C00FD7F090239AEE4FD7F091239AE229B
:1031B7008F3A8D3B123AD7E53B60167483253AF573
:1031C70082E43400F583E0C394125019E004F080E0
:1031D700147483253AF582E43400F583E0D3940030
:1031E7004003E014F0AD3A7F09122BE88F3C74835B
:1031F700253AF582E43400F583E0FD7F30122BE8B1
:0A320700AD07E53C2430FF0239AEAC
:10262E008F3A8D3B123AD7E53A24C7F53DE53B602C
:10263E00167461253DF582E43400F583E0C39409F8
:10264E005019E004F080147461253DF582E43400E5
:10265E00F583E0D394004003E014F0E53A24C6601D
:10266E00161460381460511470030226FE14606450
:10267E0024056003022711900061E0FD7F39122BC3
:10268E00E88F3C900062E0FD7F39122BE88F3DE52C
:10269E003DC454F0453CFD7F390239AE900063E0F5
:1026AE00FD7F39122BE88F3CE4F53DE53DC454F037
:1026BE00453CFD7F3A0239AE900064E0FD7F391251
:1026CE002BE88F3C753D08E53DC454F0453CFD7F3D
:1026DE003B0239AE900066E0FD7F39122BE88F3C4D
:1026EE00753D01E53DC454F0453CFD7F3C0239AEDD
:1026FE00900065E0FD7F38122BE88F3CAD3C7F38B3
:04270E001239AE22AC
:0D3A9C00301409C214E4FD7F091239AE2276
:063AD700300602C20622C7
:0934DB00F582E43400F583E0FF02
:1034E4008F27900076E0542CF0900075E054F8F0AB
:1034F400A3E054FBF0123AD7123A9C90003BE0FF51
:103504006003B4010B90004EE527F0FDFF1230215B
:053514007F01023ADD19
:1030F5007BFF7A277924900027E02433F582E43496
:1031050000F583E0FFE48F41F540F53FF53E900083
:1031150027E0FFE48F45F544F543F54290003CE098
:10312500FFE48F49F548F547F5461233BF90003C5B
:10313500E0601B900027E024331234DB90003CE074
:10314500FF900027E004F0C39F400BE4F0229000BD
:073155004EE0FF1234E422FA
:10315C00E490003BF090005AE0FF601190003DE0DD
:10316C00FEC39F500874332E1234DB802090005A1B
:10317C00E0FF90003DE0C39FFFE49400FE74CF2F6E
:10318C00F58274273EF583E493FF1234E490005AE1
:10319C00E02404FFE433FE90003DE004F0C39FEE16
:0B31AC006480F87480984002E4F02278
:103021008F2C8D2DAD2C7F20122BE8AD077F201228
:1030310039AE7F20123866E48F49F548F547F546E9
:103041007BFF7A277940852C41F540F53FF53E8598
:103051002D45F544F543F5421233BFE52DD39403D5
:103061005027AD2D7F401239AE7F20123866E48F94
:1030710045F544F543F5427BFF7A277960852C417C
:0A308100F540F53FF53E1233BF2283
:10213C008E358F36E5364535700302222CE4F537A3
:10214C00F538E53825E024D3F582E43427F583E42B
:10215C0093F539740193F53AE5355539FEE5365565
:10216C003A4E603DE53A64204539700C90002EE003
:10217C007002A3E070148029E53A64404539700A76
:10218C0090002EE07002A3E07017E5389027E193E1
:10219C00FFAE37053774332EF582E43400F583EF48
:1021AC00F00538E5386407709990005AE06537609F
:1021BC000BE490003DF090005AE537F0E4F53890D0
:1021CC00005AE0FFE538C39F501C74332538F58264
:1021DC00E43400F583E0FFC394084006EFD3940B7E
:1021EC004004053880D990003CE06538600BE490E1
:1021FC000027F090003CE537F07BFF7A27797C9044
:10220C00003CE0FFE48F41F540F53FF53E90005A6D
:10221C00E0FFE48F45F544F543F5421233BF801DD2
:10222C00E490003CF090005AF0900027F090003DB4
:10223C00F090002EF0A3F0900052F0A3F0900092DA
:08224C00E535F0A3E536F022B0
:101A11007F1C1235198E278F28900092E065277060
:101A210004A3E065287003021BD2C21C7BFF7A2746
:101A31007994E4852841852740F53FF53E90009251
:101A4100E0FEA3E0FFE48F458E44F543F5421233F7
:101A5100BFE4F529E52925E024D3F582E43427F50F
:101A610083E493F52A740193F52BE527552AFEE5C6
:101A710028552B4E7003021B18900092E0552AFE48
:101A8100A3E0552B4E6003021B18D21CE52A705AA5
:101A9100E52B24C0602D242070507F9612351990BB
:101AA100002EEEF0A3EFF04E6010E4900043F0A39F
:101AB100F0FDFC7F101238B680307F0E123ADDC285
:101AC1001C80277F97123519900052EEF0A3EFF09A
:101AD1004E6010E4900043F0A3F0FDFC7F1012383B
:101AE100B680077F0F123ADDC21C301C36E5299003
:101AF10027E193FF90004EE0FD123021E529902768
:101B0100E19390004EF0E490003BF07F01123ADD4A
:101B1100E490008BF0800C0529E529C3940750035C
:101B2100021A55301C03021BCBE4F529E52925E0F7
:101B310024D3F582E43427F583E493F52A740193E1
:101B4100F52BE527552AFEE528552B4E70709000A0
:101B510092E0552AFEA3E0552B4E6062E52B852AC3
:101B6100F01210551B7900201B8B00401B9D1000AB
:101B71001BA4400000001BA9E490002EF0A3F0FF7D
:101B81001236067F10123ADD801EE4900052F0A357
:101B9100F0FF1236067F11123ADD800C7F12123AE5
:101BA100DD80057F13123ADDE5299027E193FF904F
:101BB100004EE0B5071490008B7401F0800C0529EC
:101BC100E529C394075003021B2DAF28AE2702213C
:101BD1003C7BFF7A2779B3E4852841852740F53F8F
:061BE100F53E1233BF22A5
:103A61002052455345540001020400011020213029
:013AE70022BC
:100601008F24122CF2900059E0D39400401630014F
:1006110003020B10E5245402D394005003020B1083
:10062100E014F02230012530190BC219780AE6B422
:100631005903123993200703020B10C207D2137812
:1006410015E664186003020B1002399320070302B8
:1006510006D2C207D2137815E624F8602B24F7607E
:100661002214601824FE600D24EC6038241070619F
:1006710012315C805C7F0112336C8055E4FF1233D0
:100681006C804E123890804990003BE0FFC3943853
:10069100400DEFD3943E5007E4FF123ADD80321251
:1006A100393A802D90003BE0FFC394384006EFD3E8
:1006B100943A40077F38123ADD801690003BE004FF
:1006C100F0D3943A40037438F090003BE0FF123AC3
:1006D100DD7817E6600C06E6D3943C4005E4F67835
:1006E10013F6201903020AEAC219780AE612102F3A
:1006F1000ADE000AE5030AC20408980508BE060AD4
:10070100C9070AAA080AAF0B0A950C08520D084C32
:100711000E0A1010086F11084F120A1A130A7714E3
:10072100092A160A801707CD1807A519089E1A0964
:10073100B81B0AD7400AD0420ABB440892450AB402
:10074100460AA3480A9C4A0A8E4C07D04D0A894E94
:10075100080E510A6E5409DA550A6556078C580776
:100761006A5909965A00000AEAB2013001087F0865
:10077100123ADD020AEA7D017F051239AE7F0212CB
:100781003ADD900059741EF0020AEA90003BE0B491
:1007910009047F0480027F008F25AD257F09121394
:1007A10028020AEA7BFF7A3A79611236EC12000ECE
:1007B100122D6E020AEA90003BE004F0D3943E4011
:1007C100037439F090003BE0FF123ADD020AEA902F
:1007D100003BE0FFC3942E4012EFD39435500C78C8
:1007E1001776017D04121328020AEA90003BE0FF0C
:1007F100C394245003020AEAEFD3942B4003020A64
:10080100EA781776017D04121328020AEA90003B68
:10081100E0FFC3942E4012EFD39435500C78177635
:10082100017D03121328020AEA90003BE0FFC39402
:10083100245003020AEAEFD3942B4003020AEA7818
:0B0841001776017D03121328020AEA5B
:10084C00020AEA020AEA7817760190003BE0B43813
:10085C00047F0480027F008F25AD257F381213287A
:10086C00020AEA300603020AEA7817760190003B86
:10087C00E0B438047F0380027F008F25AD257F38DC
:10088C00121328020AEA1239C8020AEA12393A0289
:10089C000AEA90003BE0FFC39446400EEFD394501D
:1008AC005008E4FF123ADD020AEA7F46123ADD02F2
:1008BC000AEA90003BE0FFC394465003020AEAEFB9
:1008CC00D394504003020AEAE004F0E0B4480C90E0
:1008DC000049E0700690003BE004F090003BE0B46F
:1008EC00490C90004BE0700690003BE004F0900047
:1008FC003BE0B44A0C90004CE0700690003BE004E6
:10090C00F090003BE0D3945040037446F090003BD1
:10091C00E0FF123ADD9000557432F0020AEA9000C2
:10092C003BE0FFC394465003020AEAEFD3945040D5
:10093C0003020AEAE014F0E0B44A0C90004CE070B8
:10094C000690003BE014F090003BE0B4490C9000A2
:10095C004BE0700690003BE014F090003BE0B44894
:10096C000C900049E0700690003BE014F090003BC6
:10097C00E0C3944650037450F090003BE0FF123AF1
:10098C00DD9000557432F0020AEA90003BE0FFC3A0
:10099C0094465003020AEAEFD394504003020AEA49
:1009AC00781776017D03121328020AEA90003BE0C7
:1009BC00FFC394465003020AEAEFD394504003025B
:1009CC000AEA781776017D04121328020AEA9000CD
:1009DC003BE0FFC3942E4006EFD39435400B123A04
:1009EC009C7F2E123ADD020AEA90003BE024D2FFF3
:1009FC00122ED48F26E526242EFF90003BF0123ABF
:100A0C00DD020AEA7D037F0E1239AE020AEA90007B
:100A1C004EE0FF64046008EF64056003020AEA908C
:100A2C000029E05403F526B402137D017F0E123920
:100A3C00AE900029E054FCF04401F080117D027F5F
:100A4C000E1239AE900029E054FCF04402F09000F4
:100A5C0029E0FF123606020AEA7D047F0F1239AE36
:100A6C00807C7D037F0F1239AE80737D027F0F1265
:100A7C0039AE806A7D017F0F1239AE8061123890D9
:100A8C00805C7F0B123ADD80557F0C123ADD804E74
:100A9C007F0112336C8047E4FF12336C8040123AB2
:100AAC00E8803B1230F580367F081234E4802F7FCB
:100ABC00091234E480287F0A1234E480217F0B125F
:100ACC0034E4801A7F011234E480137F021234E480
:100ADC00800C7F031234E48005E4FF1234E4301BF5
:100AEC0023C21B90003BE0FFC394384012EFD39419
:100AFC003A500C3011047D0480027D030213287FD0
:050B0C0038123ADD2261
:10393A00B2063006047F0480027F03AD077F0A12B5
:0E394A0013282006057F38123ADD123A9C221F
:1039C800B21430140A7F24123ADDE4FF02391CE4F1
:0A39D800FF123ADD7FFF12391C22B6
:013AE80022BB
:102CF200780FE6FF7008C2A0D2A1D2A28012EFB470
:102D02000108D2A0C2A1D2A28006D2A0D2A1C2A2A0
:102D1200E4FE2082010E2083034306022084034343
:102D22000604208503430608EE602EEFC454F02EFD
:102D3200FE7815E6B50616900095E004F0D39408E7
:102D42004029201302D207E4900095F022C213E436
:102D5200900095F07815A60622780F06E6D3940225
:0C2D62004002E4F6C213E4900095F02259
:102E5F00200F1830871030860D780E06E6D39403B6
:102E6F004004E4F6D20FC20AC20B22A287308601B9
:102E7F00B3503A300F25A2869211A211301501B32B
:102E8F005005780CE67002D21BA2119215780C76C1
:102E9F0003E4780EF6C20FC20B800F300B0A780CCA
:102EAF007603E4780EF6C20FD20BC20A22208714E3
:102EBF00208611300A0A780C7603E4780EF6C20FDA
:052ECF00D20AC20B2233
:10336C008F277F2B1238668F2890003BE064037008
:10337C003D12383B8F29E527600EE52970047F014B
:10338C0080027F008F298018E529C39402500575AF
:10339C002902800C0529E529D394054003752902DF
:1033AC00E529903A6B93F528FD7F2B1239AEAF28A7
:0333BC00022DE7F8
:103890007F2C1238668F2790003BE0B40513052774
:1038A000E527D394044003E4F527AD277F2C123994
:0638B000AEAF270237E075
:101594004B434D2D4E4F00202D4F46462D002048E5
:1015A400454C4C4F004D5554452020004D55544555
:1015B4002D2D00564F4C20202000564F4C20004E1D
:1015C4004F49534520004652535020004345535041
:1015D4002000535753502000535253502000424B85
:1015E400535020004C504620004C49505300465262
:1015F400444C20004345444C20005357444C2000A5
:10160400424B444C20002020202020200050434DF9
:1016140000322F34004E49472D4F4E004E49472D7E
:101624004F46004657444F4E45004D50330020204E
:1016340000425249474800464C547443455474533D
:10164400575474465254745352547442525474420C
:101654004C5474534C547400464C54724345547265
:1016640053575472465254725352547242525472E3
:10167400424C5472534C5472004D4943314D4943CA
:10168400324543484F5245505444454C59524556AF
:1016940042004155582D494E4F5054494341434F00
:1016A400412D4431434F412D4432202D53442D20AC
:1016B400202D5553422D202D50432D202D42542DA5
:1016C400202048444D492D3148444D492D32484449
:1016D4004D492D3348444D492D4100202048494669
:1016E4004920322B3143484D4F44452020002046A9
:1016F4004C415420534F554E442000322F30312F4B
:1017040030322F30332F30322F31332F31322F32CA
:10171400332F32332F33332F34322F33322F3400DD
:1017240053442D494E2055442D494E2053442D4FAA
:10173400555455442D4F555450432D4F55544254F0
:101744002D4F555448442D4F55540033324B3438A3
:101754004B35364B36344B38304B39364B313132CE
:10176400313238313630313932323234323536333F
:101774003230333834000002070000243F000600F2
:10178400DB00CF00E600ED00FD000700FF00EF00E6
:10179400F7128F0039120F00F900F100BD00F612A4
:1017A40009001E0C70003805360936003F00F308A6
:1017B4003F08F300ED1201003E243028362D0000CE
:1017C400EE240900C0240012C00010181C1C1E1EA8
:0117D4001FF5
:10321100C2A5C2937F01123ABE7F40123A127F01CA
:10322100123ABED2937F01123ABEC2937F01123A83
:10323100BE7FC0123A127F01123ABEE4F524E4FFC8
:10324100123A127F01123ABE0524E524C3941040BC
:10325100ED7F0A123ABED293E4FDFF123780E4FFFC
:09326100123976E4900030F022ED
:1028AB008F24300E05C20E12000EE5245402D39471
:1028BB0000500302296B900030E0601514F0700794
:1028CB007F0112371D800A900030E05401FF123750
:1028DB001D900059E0D39400400302296B30060B86
:1028EB00900055E070057F0A123ADD2001589000E8
:1028FB0055E0605214F07024201406FF123ADD806C
:10290B004590003BE024DCFF122ED48F25E52524D7
:10291B0024FF123ADDAF2512391C802A3000279094
:10292B000055E0FF75F00584E5F0701AEF75F005C2
:10293B0084F52590003BE0FFE52530E0047D028027
:10294B00027D0112132820011720061420141130C8
:10295B00050E90004FE0540FC39400400312326AEF
:01296B002249
:053ADD00E4FD021328C6
:093AB5009000557414F0C20022C7
:083ACF0090003BEFF0023AB554
:101328008F358D36E5367003123AB5C205C2A5125F
:1013380039E2900075E0540FF0E53512102F13E9EB
:1013480000141A01142C02147006147C07142008C7
:1013580014410914AD0A14820B14880C148E0D1450
:10136800940E14940F149410149411149412149449
:1013780013149414149F1514A516155624155625E0
:1013880015562615562715562815562915562A1561
:10139800562B155F2E155F2F155F30155F31155FC2
:1013A80032155F33155F34155F35150938156B39FC
:1013B800156B3A156B3B156B3C156B3D156B3E1564
:1013C800834615834715834815834915834A15773E
:1013D8004B15774C15774D15774E15774F0000153F
:1013E8008D200C1790004EE0FF64046004EFB405F4
:1013F800051227E8800E12380E80097BFF7A1579CE
:10140800941236ECE490003BF0900055F0D20502BF
:10141800158D12380E02158D7BFF7A15799B1236C1
:10142800EC02158D7BFF7A1579A21236EC12000EAC
:10143800900055740AF002158DE536B4041D90002D
:10144800557414F0900058E004F0D394024002E47C
:10145800F0900058E0FD7F441239AE900058E0FD4E
:101468007F0112378002158D9000557432F0123AC0
:10147800E902158D122A2502158D12359102158D56
:1014880012349C02158D123A7102158DE53524F23D
:10149800FF123A2802158D1232C302158D1227E861
:1014A800D20502158DE5366003B404089000557422
:1014B80050F0D200E536C394024005E536B4040B7B
:1014C8007BFF7A1579A91236EC800EE536B402094D
:0B14D8007BFF7A1579B01236ECE53688
:1014E300B4040A7D037F081239AE02158DE5366414
:1014F30003600302158D9000557414F07D027F087C
:101503001239AE02158DE536C39403401590003BA6
:10151300E0B4380EE536B404047F0180027F001284
:1015230038D8E536B4020B7BFF7A1579B71236EC5F
:1015330080587BFF7A1579BE1236EC90002BE0FDC4
:101543007F041238FAE53670419000557450F0D29A
:10155300008037AD36AF35122B5F802E123A9CAD2B
:1015630036AF35122ACC8022123A9CAD36AF3512F3
:101573002F448016123A9CAD36AF35121D7A800A7D
:10158300123A9CAD36AF3512245E90003BE535F040
:011593002235
:10349C007F091238668F3730141390003BE0B40C60
:1034AC000C0537E537D394074003E4F537AD377F88
:1034BC00091239AE7BFF7A1579C31236ECE5371257
:0F34CC0010A9301409E4900031F0FF12391C22CE
:102ED400EFB407005067902EE1F8282873022EF60D
:102EE400022F0B022F17022F1A022F2F022F3B0241
:102EF4002F3E900049E060037F012290004AE06089
:102F0400037F02227F032290004AE060037F0222B3
:102F14007F03227F032290004BE060037F04229012
:102F2400004CE060037F05227F002290004CE060AB
:102F3400037F05227F00227F06227F07227F002253
:102B5F008F378D38E538C39403401E90003BE0B5A6
:102B6F00371724DCFFE538B404047D0180027D00B3
:102B7F001231B79000557450F074DC2537F5377566
:102B8F00F004A4243BF974161236E7E538B4020EAC
:102B9F007D207F041210AE7D207F050210AE74835E
:102BAF002537F582E43400F583E0F539C3940950F5
:102BBF00147D2D7F041210AEC374399539FD7F0536
:102BCF001210AE80117D207F041210AEE53924273C
:092BDF00FD7F051210AED20022A8
:102ACC008F378D38E538C39403401E90003BE0B53A
:102ADC00371724D2FFE538B404047D0180027D0051
:102AEC001231B79000557450F074D22537F5377504
:102AFC00F004A4245CF974161236E7E538B4020E1F
:102B0C007D207F041210AE7D207F050210AE7483F1
:102B1C002537F582E43400F583E0F539C394095088
:102B2C00147D2D7F041210AEC374399539FD7F05C9
:102B3C001210AE80117D207F041210AEE5392427CF
:102B4C00FD7F051210AEE53870089000557450F0FA
:032B5C00D2002282
:102F44008F378D38E538C39403401D90003BE0B5BE
:102F54003716E538B404047D0180027D00AF3712D2
:102F6400262E9000557450F074C72537F53775F048
:102F740004A4247DF974161236E77D207F04121010
:102F8400AEE538B402077D207F050210AE746125DA
:102F940037F582E43400F583E0F5392430FD7F050C
:102FA4001210AEE53870089000557450F0D200222B
:101D7A008F378D38900075E04450F0A3E0F0900062
:101D8A00557450F07D207F041210AE7D207F05121D
:101D9A0010AEE53724B46056147003021E2F147077
:101DAA0003021E66147003021E9D147003021ED4E1
:101DBA0024056003021EDD7BFF7A1579CA1236EC10
:101DCA00E538C39403401B900048E004F0D3940123
:101DDA004002E4F0E4FD7F24122BE8AD077F2412D1
:101DEA0039AEE4FF123555AD077F050210AE7BFF11
:101DFA007A1579D01236ECE538C39403401B90006B
:101E0A0049E004F0D394024002E4F0E4FD7F241296
:101E1A002BE8AD077F241239AE7F01123555AD0785
:101E2A007F050210AE7BFF7A1579D61236ECE538BB
:101E3A00C39403401B90004AE004F0D3940140028B
:101E4A00E4F0E4FD7F24122BE8AD077F241239AEBB
:101E5A007F02123555AD077F050210AE7BFF7A155A
:101E6A0079DC1236ECE538C39403401B90004BE052
:101E7A0004F0D394024002E4F0E4FD7F24122BE83C
:101E8A00AD077F241239AE7F03123555AD077F05A2
:101E9A000210AE7BFF7A1579E21236ECE538C3946C
:101EAA0003401B90004CE004F0D394024002E4F09B
:101EBA00E4FD7F24122BE8AD077F241239AE7F049C
:101ECA00123555AD077F050210AE7BFF7A1579E80A
:041EDA001236EC22AE
:10245E008F378D38E53724B9603A14605A14607A94
:10246E0014700302250B2404600302252C900075C2
:10247E00E04440F0A3E0F07BFF7A1579ED1236ECE4
:10248E00E538C39403500302252CAD38E4FF123017
:10249E008B02252C7BFF7A1579F21236EC900075A3
:1024AE00E04450F0A3E0F0E538C394034070AD383B
:1024BE007F0112308B80677BFF7A1579F81236EC2C
:1024CE00900075E04450F0A3E0F0E538C39403406B
:1024DE004DAD387F0212308B80447BFF7A1579FE2A
:1024EE001236EC900075E04450F0A3E0F0E538C3EE
:1024FE009403402AAD387F0312308B80217BFF7A04
:10250E001679041236EC900075E04450F0A3E0F01A
:10251E00E538C394034007AD387F0412308B90002A
:10252E00557432F074F82537F582E434FFF583E004
:0A253E0075F005A4FD7F040238FAD1
:10380E0090004EE0FFC39404400FEFD3940750098D
:10381E00900076E04420F08007900076E054DFF0D0
:0D382E00EF75F006A42496F974160236E733
:013AE90022BA
:10383B00AE07EE543024F0601224F0601124207097
:10384B0017EE30E0037F01227F00227F0222EE3051
:0B385B00E0037F04227F03227F052290
:102DE7008F3012383B8F31900076E0542CF0E5316C
:102DF700C394025016EF75F006A424DFF974161277
:102E070036E7900076E04401F080457BFF7A16793B
:102E1700EB1236ECE531242FFD7F051210AEE530BD
:102E270024FD601314601914601F2403702290009E
:102E370076E04402F08019900076E04480F080103C
:102E4700900076E04440F08007900076E04410F070
:082E5700123AB57F03023ACFE5
:1037E0008F30E53060067E007F0680047E007F001B
:1037F00074F22FF974163EFA7BFF1236ECE5306056
:0E380000082430FD7F051210AE7F05023ACF7E
:102A250090004FE0FF540FC394025003022AC8E4FC
:102A3500F53BEFC4540F75F003A4F5377BFF7A1609
:102A4500790A1236EC122FB490004FE0540F24FD92
:102A5500602414604314604024FE605E24F7601611
:102A650014601324FD24FD502F241570597BFF7A23
:102A75001679110236EC74FF2537F9E43416FA7B22
:102A8500FF7542007543007544387F0312374F7B4D
:102A9500007A0079380236EC74FF2537F9E43416EC
:102AA500FA7BFF7542007543007544387F03123782
:102AB5004F7B007A0079380236EC7BFF7A16791560
:072AC5000236EC12380E226C
:10355500AE07EE700C900048E060037F4C227F536D
:1035650022BE020C90004AE060037F59227F4E2262
:1035750074482EF582E43400F583E0FDB402037F40
:0C3585004C22EDB401037F53227F4E2244
:103591007F231238668F3790003BE0B40B16E53776
:1035A100C3943250057537328003E4F537AD377F68
:1035B100231239AEE53760097BFF7A167919023695
:0B35C100EC7BFF7A1679201236EC221A
:0F3A71009000557432F07BFF7A1679270236ECFD
:103A28009000557432F0EF75F006A42424F9741749
:033A38000236E76C
:1032C3009000557414F0900075E054BFF07BFF7AC2
:1032D30016790A1236EC900044E02401FD90004375
:1032E300E03400FCE4FF12296C8F3E053E7D2F1273
:1032F30010AE90004EE0B4040D90002EE0FEA3E06B
:10330300FFAC06FD800B900052E0FEA3E0FFAC068D
:06331300FDAF3E02296C33
:1027E800C3900057E09403900056E0940050030211
:1027F80032C3C3900057E09405900056E09400500F
:1028080064900067E0FF131313541FF53790004FCF
:10281800E0540F640A704E9000557414F0E537D3F5
:1028280094004041E5379410503B754200754300D1
:102838007544387BFF7A16792E7F0312374FE537B8
:1028480075F003A4244CF9741735F0FA7BFF754230
:102858000075430075443B7F0312374F7B007A00B5
:1028680079380236EC7BFF7A1679321236EC900012
:1028780056E0FEA3E0FF7C007D3C120E8AAD077F88
:10288800021238FA900056E0FEA3E0FF7C007D3C7F
:10289800120E8A7F041238FA900075E04440F0A3C3
:0328A800E0F0223B
:103780008D37EFD39400400E7BFF7A1679351236D1
:10379000ECE5371210A9C2937F01123ABEE53790CB
:1037A000177A934488FF123A127F01123ABED293DD
:0137B00022F6
:10308B00EF70047C0180027C00EC14601114601260
:10309B00146013146014240470127E13800E7E09C6
:1030AB00800A7E0980067E0980027E09BD04247495
:1030BB003E2FF582E43400F583E0D39E4002EEF020
:1030CB00743E2FF582E43400F583E0C39E501AE082
:1030DB0004F022BD0313743E2FF582E43400F58314
:0A30EB00E0D394004003E014F0224B
:013AEA0022B9
:102FB400900075E054F8F0A3E054FBF090004FE06B
:102FC400540F24FD603514603B14603824FE6040C7
:102FD40024F7602714602424FD24FD502724157051
:102FE4003990008DE0FF64536030EF6456602B909D
:102FF4000075E04404F0A3E0F0801F900076E04404
:1030040004F08016900075E04401F0A3E0F0800A1B
:0D301400900075E04404F0A3E0F0D20E221D
:10360600EF5403FE900078E054F0F0BE0106E0446B
:1036160008F0800ABF0207900078E04404F0EF54F7
:10362600C0FE6013BEC009900078E04401F0800738
:0A363600900078E04402F0D20E226A
:10371D008F35E535B4FF117F0D123866EF30E704B4
:10372D007F0180027F008F35E535600C900075E0DC
:10373D004408F0A3E0F08007900075E054F7F0D254
:02374D000E224A
:0536E70035F0FA7BFF45
:1036EC008B3F8A408941E4F543AB3F0541E541AA54
:1036FC00407002054014F9120E10F5426012AD42F2
:10370C00AF431210AE0543C3E5436480948640D9A1
:01371C00228A
:10296C008F3F8C408D41AE40AF417C277D10120EC5
:10297C008AEF4E601AEF2430FDAF3F053F1210AEC8
:10298C00AE40AF417C277D10120E8A8C408D41AE3B
:10299C0040AF417C037DE8120E8AEF4E601AEF24A3
:1029AC0030FDAF3F053F1210AEAE40AF417C037D12
:1029BC00E8120E8A8C408D41AE40AF417C007D64A4
:1029CC00120E8AEF4E601AEF2430FDAF3F053F1216
:1029DC0010AEAE40AF417C007D64120E8A8C408DEF
:1029EC0041AE40AF417C007D0A120E8AEF4E601A58
:1029FC00EF2430FDAF3F053F1210AEAE40AF417C2F
:102A0C00007D0A120E8A8C408D41AF3F053FE54197
:092A1C002430FD1210AEAF3F2280
:1038FA008F3E8D3FE53F75F00A842430FD1210AEED
:10390A00E53E04FFE53F75F00A84E5F02430FD0248
:02391A0010AEED
:0510A9002431FD7F056C
:1010AE008F448D45E544C394034003021179E54511
:1010BE00C394304012E545D39439500B74D0254576
:1010CE00F54504F546804CE545C39461400FE54572
:1010DE00D3947A5008E54524AAF5468036E545C3F3
:1010EE009441400FE545D3945A5008E54524CAF57E
:1010FE00468020E54524D5601224FC600924027048
:10110E000F754625800D7546268008754627800387
:10111E00E4F546E54625E0247DF582E43417F583B3
:10112E00E493FEE54425E02469F582E43400F5837A
:10113E00EEF0A3E4F0E54425E02469F582E4340002
:10114E00F583C083C082E0FEA3E0FFE54625E024E0
:10115E007EF582E43417F583E493FDEEEF4DFFD078
:10116E0082D083EEF0A3EFF0021325E544C394067C
:10117E0040030212AFE545C394304066E545D39473
:10118E0039505F74D02545F54504F54625E0247D9C
:10119E00F582E43417F583E493FEE54425E02469F3
:1011AE00F582E43400F583EEF0A3E4F0E54425E0A7
:1011BE002469F582E43400F583C083C082E0FEA387
:1011CE00E0FFE54625E0247EF582E43417F583E45E
:1011DE0093FDEEEF4DFFD082D083EEF0A3EFF00241
:1011EE001325E54512102F12382D123D41124242A1
:1011FE00124743124C44125145125646125B471287
:10120E006548126049126A4C126F4E12744F127971
:10121E0050127E52128353128854128D55129259C7
:10122E00127E72128874000012977545C0805D752B
:10123E0045F7805875457C8053754539804E754508
:10124E00DE80497545F980447545F1803F7545EF5F
:10125E00803A75450680357545F68030754538807F
:10126E002B754537802675453F80217545F3801CCB
:10127E0075455080177545ED80127545F8800D75D2
:10128E00453E800875456E8003E4F545E54425E04E
:10129E002469F582E43400F583E4F0A3E545F0809B
:1012AE0076E544D39406401AE544940D5014E54572
:1012BE00C39401400DE545D394055006E54524261B
:1012CE00F546E54625E0247DF582E43417F583E402
:1012DE0093FEE54425E02469F582E43400F583EEBF
:1012EE00F0A3E4F0E54425E02469F582E43400F54A
:1012FE0083C083C082E0FEA3E0FFE54625E0247EA6
:10130E00F582E43417F583E493FDEEEF4DFFD082C2
:0A131E00D083EEF0A3EFF0D20E2210
:1039E200E4FFEF25E02479F582E43400F583E4F086
:0A39F200A3F00FEFC3940540E92293
:063A8000131313541FFF95
:093A8600EF54079017CD93FF22C5
:10326A007B007A0079277D037C007F8F1237B1308B
:10327A000C030239E2AF27123A86900079E4F0A3F0
:10328A00EFF0E527123A8090007BE4F0A3EFF0AF6D
:10329A0028123A8690007DE4F0A3EFF0E528123A6E
:1032AA008090007FE4F0A3EFF0AF29123A869000F5
:0932BA0081E4F0A3EFF0D20E2232
:103A3B00E4FFE4900079F0A3F00FEFC3940540F29C
:033A4B00D20E2276
:10397600E4FEEFFDEE25E02469F582E43400F583EC
:0D398600E4F0A3EDF00EEEC3940D40E62238
:10000E00E4FF74062FF582E43400F583E4F00FEF7D
:10001E00C3941040ED900069E0FEA3E0FF30E007CE
:10002E00900014E04408F0EF30E10790000DE0443A
:10003E0008F0EF30E207900006E04408F090006A06
:10004E00E030E307900009E04408F0900069E0FE1C
:10005E00A3E0FF30E407900011E04408F0EF30E534
:10006E0007900015E04408F0EF30E60790000FE02F
:10007E004408F090006AE030E70790000CE0440876
:10008E00F0900069E0FEA3E0FFEE30E00790001371
:10009E00E04408F0EE30E107900012E04408F0EE84
:1000AE0030E20790000BE04408F0900069E0A330C6
:1000BE00E307900007E04408F0900069E0FEA3E03B
:1000CE00FFEE30E407900008E04408F0EE30E5075C
:1000DE0090000EE04408F090006BE0FEA3E0FF30CD
:1000EE00E007900014E04420F0EF30E10790000D9F
:1000FE00E04420F0EF30E207900006E04420F0905C
:10010E00006CE030E307900009E04420F090006BB3
:10011E00E0FEA3E0FF30E407900011E04420F0EF92
:10012E0030E507900015E04420F0EF30E607900030
:10013E000FE04420F090006CE030E70790000CE0F8
:10014E004420F090006BE0FEA3E0FFEE30E007905D
:10015E000013E04420F0EE30E107900012E044205E
:10016E00F0EE30E20790000BE04420F090006BE0E0
:10017E00A330E307900007E04420F090006BE0FE10
:10018E00A3E0FFEE30E407900008E04420F0EE30EC
:10019E00E50790000EE04420F090006DE0FEA3E035
:1001AE00FF30E007900014E04410F0EF30E10790CC
:1001BE00000DE04410F0EF30E207900006E044102E
:1001CE00F090006EE030E307900009E04410F090EC
:1001DE00006DE0FEA3E0FF30E407900011E0441054
:1001EE00F0EF30E507900015E04410F0EF30E60731
:1001FE0090000FE04410F090006EE030E7079000A2
:10020E000CE04410F090006DE0FEA3E0FFEE30E055
:10021E0007900013E04410F0EE30E107900012E07A
:10022E004410F0EE30E20790000BE04410F0900026
:10023E006DE0A330E307900007E04410F090006DEE
:10024E00E0FEA3E0FFEE30E407900008E04410F07B
:10025E00EE30E50790000EE04410F090006FE0FEE7
:10026E00A3E0FF30E007900014E04404F0EF30E12B
:10027E000790000DE04404F0EF30E207900006E036
:10028E004404F0900070E030E307900009E044046D
:10029E00F090006FE0FEA3E0FF30E407900011E065
:1002AE004404F0EF30E507900015E04404F0EF3021
:1002BE00E60790000FE04404F0900071E0FEA3E02A
:1002CE00FF30E007900014E04480F0EF30E107903B
:1002DE00000DE04480F0EF30E207900006E044802D
:1002EE00F0900072E030E307900009E04480F09057
:1002FE000071E0FEA3E0FF30E407900011E04480BF
:10030E00F0EF30E507900015E04480F0EF30E6079F
:10031E0090000FE04480F0900073E0FEA3E0FF3009
:10032E00E007900014E04402F0EF30E10790000D7A
:10033E00E04402F0EF30E207900006E04402F09055
:10034E000074E030E307900009E04402F09000737F
:10035E00E0FEA3E0FF30E407900011E04402F0EF6E
:10036E0030E507900015E04402F0EF30E60790000C
:10037E000FE04402F0900075E0FEA3E0FF30E007CE
:10038E00900014E04401F0EF30E10790000DE044DE
:10039E0001F0EF30E207900006E04401F0900076A5
:1003AE00E030E307900009E04401F0900075E0FEB4
:1003BE00A3E0FF30E407900011E04401F0EF30E5D8
:1003CE0007900015E04401F0EF30E60790000FE0D3
:1003DE004401F0900076E030E70790000CE0440115
:0403EE00F090007516
:1003F200E0FEA3E0FFEE30E007900013E04401F0DE
:10040200EE30E107900012E04401F0EE30E2079096
:10041200000BE04401F0900075E0A330E307900088
:1004220007E04401F0900075E0FEA3E0FFEE30E447
:1004320007900010E04420F0EE30E507900010E055
:100442004410F0EE30E607900010E04404F0900013
:1004520077E0FEA3E0FF30E00790000BE04404F0F9
:10046200EF30E107900012E04404F0EF30E2079031
:100472000013E04404F0900078E030E30790000CB1
:10048200E04404F0900079E0FEA3E0FF30E0079042
:100492000007E04480F0EF30E10790000BE0448079
:1004A200F0EF30E207900012E04480F090007AE032
:1004B20030E307900013E04480F090007AE030E4EB
:1004C2000790000CE04480F090007BE0FEA3E0FF88
:1004D20030E00790000BE04402F0EF30E1079000BB
:1004E20012E04402F0EF30E207900013E04402F021
:1004F20090007CE030E30790000CE04402F09000B2
:100502007DE0FEA3E0FF30E007900011E04440F000
:10051200EF30E107900009E04440F0EF30E207904D
:100522000006E04440F090007EE030E30790000DCA
:10053200E04440F090007EE030E407900014E04494
:1005420040F090007FE0FEA3E0FF30E00790001350
:10055200E04440F0EF30E10790000CE04440F0EF5F
:1005620030E20790000FE04440F0900080E030E37A
:1005720007900015E04440F0900081E0FEA3E0FF08
:1005820030E00790000EE04440F0EF30E1079000C9
:1005920008E04440F0EF30E207900007E04440F00A
:1005A200900082E030E30790000BE04440F09000BE
:1005B20082E030E407900012E04440F0C2937F01F1
:1005C200123ABE7F40123A127F01123ABED2937F94
:1005D20001123ABEC2937F01123ABE7FC0123A1292
:1005E200E4F53774062537F582E43400F583E0FF3D
:0F05F200123A120537E537C3941040E7D293222F
:103A12007E08C290EF139291EFC313FFD2901EEE75
:063A2200D3940050ED22D8
:10395800AE0753050FEDC3940A5006ED2430FFFD62
:0E39680022EE6005ED2457FF22ED2437FF22EA
:101BE7008F658D66E5667029AF6AAE69AD68AC67CB
:101BF700EC4D4E4F701BAB6BAA6CA96D7430120E77
:101C070056AB6BAA6CA96D900001E4120E687F01B8
:101C170022E4F56EF56FE56564646009E565647552
:101C27006003021D157575007574CA75739A757210
:101C37003BE565B4643FE4FFFEFDE5675480FC6067
:101C470034AB6BAA6CA96DAF6F056F8F827583007C
:101C5700742D120E68E56AFBE569FAE568F9E56730
:101C6700547FF8C3E49BF56AE49AF569E499F5684B
:101C7700748098F56775700BAB75AA74A973A87211
:101C8700AF6AAE69AD68AC67120F468F711570E524
:101C97007065666004E5716003756E01E56E601A34
:101CA700AD71E4FF123958AB6BAA6CA96DAE6F0525
:101CB7006F8E82758300EF120E68AF6AAE69AD68EA
:101CC700AC67AB75AA74A973A872120F46AC00ADC6
:101CD70001AE02AF038F6A8E698D688C67AF75AEF0
:101CE70074AD73AC72E47B0AFAF9F8120F468F757C
:101CF7008E748D738C72E4FFFEFDFCAB75AA74A91C
:101D070073A872C3120FD86003021C7F80527570CC
:101D17002075710974FC2570F570AF6AAE69AD68FE
:101D2700AC67F9F8120FE9AD071571E571656660E3
:101D370003ED6003756E01E56E6021E565B4580437
:101D47007F0180027F00123958AB6BAA6CA96DAE78
:101D57006F056F8E82758300EF120E68E57070B4A1
:101D6700AB6BAA6CA96D856F82758300E4120E6850
:031D7700AF6F2229
:100B11008B508A518952E4F559F55AAB53AA54A91D
:100B210055AF59EF3395E08F82F583120E29642575
:100B31006051D3E55A6480949E4003AF5A22AB536F
:100B4100AA54A955AF590559EF3395E08F82F58322
:100B5100120E29FFAB50AA51A952AE5A055AEEFD09
:100B61003395E08D82F583EF120E68AB53AA54A939
:100B710055AF59EF3395E08F82F583120E29709BA3
:100B8100AF5A22AF59EF3395E08F82F583A3AB5370
:100B9100AA54A955120E29F55F6473706BAB56E523
:100BA10058F92403F558E557FA3400F55712100F98
:100BB1008B5C8A5D895E05590559E4F55BAB5CAADE
:100BC1005DA95EAF5BEF3395E08F82F583120E294D
:100BD1007003020B1CC3E55A6480949E4003020B10
:100BE1001C055BEF3395E08F82F583120E29FFAB75
:100BF10050AA51A952AE5A055AEEFD3395E08D82A5
:100C0100F583EF120E6880B5E55FB4251E05590521
:100C110059AB50AA51A952AF5A055AEF3395E08FFB
:100C210082F5837425120E68020B1CE55FB46332F2
:100C310005590559AB56E558F92402F558E557FA17
:100C41003400F557120EDFFFAB50AA51A952AE5A2C
:100C5100055AEEFD3395E08D82F583EF120E6802A1
:100C61000B1CE4F560F55BAF59EF3395E0FEEF2423
:100C710001FFE43EFEAD5BED3395E0FCED2FF58227
:100C8100EC3EF583AB53AA54A955120E29F55FC367
:100C9100648094B0401ED3E55F648094B95015E53B
:100CA1005F24D0FFE56075F00AA42FF560055BE5D0
:100CB1005BB403B3AF59EF3395E0FEEF2401FFE4DA
:100CC1003EFEAD5BED3395E0FCEF2DFFEE3CFEAB60
:100CD10053E5552FF9E5543EFA8B5CF55D895EE5E8
:100CE100592402255BF559120E10249C600F24EF44
:100CF100600B24FD600724206003020B1CAB56052A
:100D010058E558AA577002055714F9120E10FF330F
:060D110095E08F64F5631C
:100D1700F562F561FEAD62AC617808120FFC8F6475
:100D27008E638D628C610558E558AA577002055786
:100D370014F9120E10FF3395E0FEFDFCE5644FF544
:100D470064E5634EF563E5624DF562E5614CF56177
:100D5700AF64AE63AD62FC7808120FFC8F648E63DC
:100D67008D628C610558E558AA577002055714F92A
:100D7700120E10FF3395E0FEFDFCE5644FF564E5C8
:100D8700634EF563E5624DF562E5614CF561AF646D
:100D9700AE63AD62FC7808120FFC8F648E638D62C0
:100DA7008C610558E558AA577002055714F9120EB9
:100DB70010FF3395E0FEFDFCE5644FF564E5634EF7
:100DC700F563E5624DF562E5614CF561AB5CAA5DE3
:100DD700A95E120E10FFC00785646A856369856284
:100DE70068856167AF5AEF3395E0FEE5522FF9E565
:100DF700513E85506BF56C896DD007AD60121BE7CE
:090E0700EF255AF55A020B1C22DA
:1033BF008B3B8A3C893D754D00754E00754F3E8B9A
:1033CF00538A548955854D56854E57854F587B01E5
:1033DF007A007996120B11E4FEC3EF6480F8EE6465
:1033EF008098501BC299EEFD3395E0FC74962DF535
:1033FF008274003CF583E0F5993099FD0E80DA2256
:10367800123A4E123211123AE7123AE6123AC77863
:1036880014E6FF5401D3940040F512201A7814E68A
:10369800FF1206017814E6FF1228AB7814E6FF1231
:0836A8003640E47814F680D7E7
:103A4E00758921758851759850758DFF43878075DE
:033A5E00A8832218
:033AE2008F092227
:093ABE00EFD394034002DFFE2265
:03000B000222547A
:10225400C0E0C0F0C083C082C0D075D000C000C050
:1022640001C002C003C004C005C006C007758A606F
:10227400758CFF781106E675F00A84E5F0600302B8
:10228400230D122E5F7811E675F06484E5F0703B3F
:10229400F678147601780D06E675F00A84E5F07098
:1022A4002A7814E64402F6780DE6FF75F03284E5E8
:1022B400F070187814E64404F6EF75F06484E5F0E1
:1022C4007009780DF67814E64408F630053B900062
:1022D4002AE004F0D394134006E4F0D2A5802A90B7
:1022E4000058E0FF700B90002AE0B40104C2A580FE
:1022F40018EFB4010B90002AE0B40404C2A58009CD
:1023040090002AE0B40802C2A57810E6603806E618
:10231400D3949F40312008247812E6B4021E781723
:10232400E660197813E6FFC39408500EEF5403FFD8
:10233400BF0302D2197813068002D21978127600EC
:10234400C20878107600D007D006D005D004D00398
:10235400D002D001D000D0D0D082D083D0F0D0E051
:012364003246
:03000300022C6E5E
:102C6E00C0E0C0D075D000C000C006C00720086507
:102C7E00781206E6FFB4020C7810E6D39491405514
:102C8E00D2088051780BE6FEC313F67810E6D39483
:102C9E00104006780BE64480F6EF640A6004EFB449
:102CAE001A07780BE618F6802CEFB41212780BE6A2
:102CBE00B4BF0418E6601E78177600D2088016EFAF
:102CCE00B42212D21978137600780BE6F4186660E7
:102CDE0004C219D20878107601D007D006D000D0E1
:042CEE00D0D0E03230
:03000000023AA918
:0C3AA900787FE4F6D8FD75817502367850
:100E1000BB010689828A83E0225002E722BBFE02E0
:090E2000E32289828A83E4932213
:100E2900BB010CE58229F582E5833AF583E022507E
:100E390006E92582F8E622BBFE06E92582F8E222C8
:0D0E4900E58229F582E5833AF583E49322E2
:100E5600BB010689828A83F0225002F722BBFE017B
:020E6600F32275
:100E6800F8BB010DE58229F582E5833AF583E8F0C0
:100E7800225006E92582C8F622BBFE05E92582C86C
:020E8800F22254
:100E8A00BC000BBE0029EF8DF084FFADF022E4CC4C
:100E9A00F875F008EF2FFFEE33FEEC33FCEE9DEC15
:100EAA00984005FCEE9DFE0FD5F0E9E4CEFD22ED5B
:100EBA00F8F5F0EE8420D21CFEADF075F008EF2FA5
:100ECA00FFED33FD4007985006D5F0F222C398FD96
:050EDA000FD5F0EA2233
:100EDF00BB010A89828A83E0F5F0A3E022500687DE
:100EEF00F009E71922BBFE07E3F5F009E3192289A0
:0B0EFF00828A83E493F5F074019322D3
:100F0A0075F008758200EF2FFFEE33FECD33CDCC9E
:100F1A0033CCC58233C5829BED9AEC99E582984021
:100F2A000CF582EE9BFEED9AFDEC99FC0FD5F0D6FE
:100F3A00E4CEFBE4CDFAE4CCF9A88222B800C1B928
:100F4A000059BA002DEC8BF084CFCECDFCE5F0CB66
:100F5A00F97818EF2FFFEE33FEED33FDEC33FCEB9F
:100F6A0033FB10D703994004EB99FB0FD8E5E4F95A
:100F7A00FA227818EF2FFFEE33FEED33FDEC33FC47
:100F8A00C933C910D7059BE99A4007EC9BFCE99A3B
:100F9A00F90FD8E0E4C9FAE4CCFB2275F010EF2F80
:100FAA00FFEE33FEED33FDCC33CCC833C810D70780
:100FBA009BEC9AE899400AED9BFDEC9AFCE899F8BB
:0E0FCA000FD5F0DAE4CDFBE4CCFAE4C8F9224E
:100FD800EB9FF5F0EA9E42F0E99D42F0E89C45F06F
:010FE80022E6
:100FE900E8600FECC313FCED13FDEE13FEEF13FFE6
:030FF900D8F1220A
:100FFC00E8600FEFC333FFEE33FEED33FDEC33FC53
:03100C00D8F122F6
:10100F00BB010789828A8302108B5005E9F8021011
:10101F0082BBFE05E9F802109489828A8302109D33
:10102F00D083D082F8E4937012740193700DA3A350
:10103F0093F8740193F5828883E473740293686064
:06104F00EFA3A3A380DF64
:10105500D083D082F8E4937012740193700DA3A32A
:1010650093F8740193F5828883E473740293B5F061
:0D107500067403936860E9A3A3A3A380D8C9
:09108200E6FB08E6FA08E6F92293
:09108B00E0FBA3E0FAA3E0F92266
:09109400E2FB08E2FA08E2F9228D
:0C109D00E493FB740193FA740293F922AF
:00000001FF
