:10379F008F408D411238377FCC1233D4AF40123364
:0A37AF00D4AF411233D41238642263
:103686008F2F8C308D311238377FCC1233D4AF2F39
:103696001233D4AF311233D4E530FF1233D412389B
:0236A60064229C
:1032DC008F378C388D398B3A8A3B893C1238377F43
:1032EC00CC1233D4AF371233D4AB3A053CE53CAAFD
:1032FC003B7002053B14F91210B8FF1233D4E539B8
:0F330C0015397002153814453870DE12386422F6
:10365C008F3AE4F53B1238377FCC1233D4200C145C
:10366C00AF3A1233D41238377FCD1233D4D21C1266
:0A367C0034BF8F3B123864AF3B22CD
:103398008F2FE4F530F5311238377FCC1233D42033
:1033A8000C22AF2F1233D41238377FCD1233D4C248
:1033B8001C1234BF7530008F31D21C1234BFEFFE9F
:0C33C800E4EE4230123864AE30AF312227
:102E25008F378C388D398B3A8A3B893C1238377FFE
:102E3500CC1233D4AF371233D41238377FCD123397
:102E4500D4D3E5399401E53894004008E5391539BE
:102E550070021538C21C1234BFAB3A053CE53CAADA
:102E65003B7002053B14F9EF1210FEE53915397078
:102E750002153814453870DCD21C1234BFAB3AAA9F
:0B2E85003BA93CEF1210FE1238642243
:1033D4008F42754308C296E54230E704D2958002D5
:1033E400C2951238B1E54225E0F542D2961238B1C1
:1033F400D543E2C296D295120006D296120006C2B6
:0C3404000C309502D20CC2961200062279
:1034BF00D295120006753E08D296E53D25E0F53D02
:1034CF00309503433D011238B1C2961238B1D53E43
:1034DF00E7201C04C2958002D295120006D29612E4
:0734EF000006C296AF3D226A
:0F383700D295D296120006C295120006C29622B2
:0D386400C295120006D296120006D29522DF
:050006007F0ADFFE226D
:0138B10022F4
:10207B004B434D5F504F5745525F4F4E0D0A004B30
:10208B00434D5F524541445F495251204572726F37
:10209B00720D0A004B434D5F434C4541525F495211
:1020AB005120253032780D0A0053455420004D4BFA
:1020BB00434D5F48646D6952656D6F76653A256473
:1020CB000D0A004B434D5F5352435F56414C4944FD
:1020DB003A25303478204C6173743A253034780DBE
:1020EB000A004B434D5F5352435F56414C494420CA
:1020FB003D204C6173743A253034780D0A0003C5CA
:10210B0000080006230031520075000000802F806C
:10211B00005C00000F80002C00805A80000800003B
:10212B00588000320000060080258000B400000DAE
:10213B000105080064005E01E803E40C10270010A1
:10214B001112303120212224000110111213000230
:10215B00030105070604191817161514131211009D
:10216B0001020304050607080903040506080A0F04
:0D217B0019326400020406080A0C0D0E0F54
:08389D00E4900051F0023596A1
:103596007D017F0512379FE4FD7F02120E309000F9
:1035A600527464F0E4900048F090005FF0900006DA
:1035B600F0A3F090008B740AF07BFF7A20797B02EF
:0235C60032478A
:101B87008F24309403021CF57F0112365C8F25AD3C
:101B9700257F0312379F300C097BFF7A20798A0251
:101BA70032477BFF7A20799FE4852545F544F54345
:101BB700F542123247E5255401D39400400312172A
:101BC700F6E5255402D39400404C7F0612365C900C
:101BD7000048EFF07F0712365C90005FEFF090004F
:101BE70052E07009201406FD7F07120E309000485E
:101BF700E07003123811122DB8123031900047E00F
:101C0700FF64046004EFB4050D7F991233989000C8
:101C17002FEEF0A3EFF0E5255408D394004003120C
:101C2700243CE5255404D3940040187F2F12365CDA
:101C370090002EEFF0900036E0B43807E4FD7F38CF
:101C4700120E30E5255410D394004007E4FD7F0DB4
:101C5700120E30E5255420D3940040667F121233CC
:101C67009890004FEEF0A3EFF04E6009E4FD7F136C
:101C7700120E30804D900047E0B4040A900031E026
:101C8700FEA3E0FF800890004BE0FEA3E0FF8E2755
:101C97008F2890003CE475F001121187FEC3E5F030
:101CA7009528EE95274007E490003CF0A3F09000BC
:101CB7003CE0FCA3E0FD7F10123686E4FD7F1212A4
:101CC7000E30E4D39400E4940040157FA0123398BB
:101CD7008E278F28E527FD1232979000337407F07F
:0F1CE700E4D39400E4940040057FFF1235C82237
:1017F6007F2012365C8F2B300C06E4FDFF020E3084
:101806007F8112365C900084EFF0AD2B7F20122290
:101816007B900047EFF07F2F12365C90002EEFF0A2
:101826007F2C12365C900028EFF0E4F529AD297F75
:101836000912227B8F2CE52C2430FF12365C8F2B6D
:10184600AD2B7F3012227B747B252CF582E434008D
:10185600F583EFF00529E529C3940840D07F3912B6
:10186600365C8F2BE52B540FFD7F3912227B9000BF
:1018760059EFF0E52BC4540FFD7F3912227B9000FF
:101886005AEFF07F3A12365C12227290005BEFF04C
:101896007F3B12365C12227290005CEFF07F3812AA
:1018A600365C8F2BAD2B7F3812227B90005DEFF0DC
:1018B6007F3C12365C12227290005EEFF07F24129B
:1018C600365C8F2CAD2C7F2412227B7B007A00792C
:1018D6002D7D047C007F40122E2590002CE52DF0F6
:1018E600A3E52EF0900086E52FF0900051E530F04C
:1018F600FDE4FF12362B7D507F2E12379F7D467FEB
:101906002512379F7D467F2612379F752D44752EEB
:1019160044752F30E4F530FB7A00792D7D04FC7F89
:10192600801232DCE4F52AE4F529E52990210993B1
:10193600FF742E2529F8A6070529E529B405EBE548
:101946002A04F52D7B007A00792D7D067C007F8B9D
:101956001232DCE4F529E52990210E93FF742E2539
:1019660029F8A6070529E529B409EBE4F529742E1B
:101976002529F8E6FFE52A75F009A42417F582E47F
:101986003421F583E5822529F582E43583F583E460
:10199600934FF60529E529B409D4E52A04F52D7BEC
:1019A600007A00792D7D0A7C007F8C1232DC052AB4
:1019B600E52AC39404500302192D7BFF7A21793B53
:1019C6007D0E7C007F8E1232DCE4900006F0A3F0E0
:1019D600C201C214C206FD7F02120E30900052747C
:0E19E6000AF0123031122DB87FFF1235C822E0
:102BEA007BFF7A2079B41234FBE4F527AD277F0402
:102BFA001236CA12000E7FFF1238947FFF123894E1
:102C0A000527E527C3946440E3E4F529F52AF52B63
:102C1A00752C02FB7A0079297D04FC7F401232DC94
:102C2A007D277F2F12379FE4F527E5272430FFE41D
:102C3A00FD12379F0527E527C3940840ED7DAB7F3A
:102C4A002412379F7D017F0512379FE4FD7F021210
:092C5A000E30900052741EF022AD
:102E9000EC5EFCED5F4C6060900006E05EFCA3E041
:102EA0005F4C7054900047E0FDC394065014ED94BD
:102EB00009400FED6404600AED6405600590008B25
:102EC000EDF0E4B5070CEEB401089000477406F08D
:102ED0008016E4B5070CEEB402089000477407F0C2
:102EE00080069000477408F0E4900036F0900047A8
:0B2EF000E0FF1228AF7F01227F0022CC
:10335A00EC5EFCED5F4C7033900006E05EFEA3E08D
:10336A005F4E602790008BE0FD640A601B7F20128D
:10337A002A64AD077F2012379F7BFF7A2079B990A4
:0E338A00008BE0F5421232477F01227F0022C5
:102754008E2B8F2CE52B5CFEE52C5D4E700302283E
:1027640005900006E0552BFEA3E0552C4E600302B5
:102774002805E52C6420452B70047F9680027F9702
:102784001233988E2D8F2EE52E452D605E900047D6
:10279400E0FF6404600AEF6405600590008BEFF0CD
:1027A400E52C6420452B70129000477404F09000CF
:1027B40031E52DF0A3E52EF080109000477405F06C
:1027C40090004BE52DF0A3E52EF0900047E0FD7F4F
:1027D40020122A64AD077F2012379FE490003CF05A
:1027E400A3F0FDFC7F101236868013E52C6420458F
:1027F4002B70047F0E80027F10E4FD120E307F01E7
:04280400227F00220D
:102FCE008E2B8F2CE52B5CFEE52C5D4E7052900007
:102FDE0006E0552BFEA3E0552C4E6044E52C6420F4
:102FEE00452B7008900031F0A3F08007E490004B61
:102FFE00F0A3F090008BE0FD640A600E7F20122A91
:10300E0064AD077F2012379F8013E52C6420452B7B
:10301E0070047F1180027F11E4FD120E307F0122B9
:03302E007F0022FE
:10243C007F1C1233988E298F2A900006E065297034
:10244C0004A3E0652A70030224FA7BFF7A2079CE7C
:10245C00E4852A45852944F543F542900006E0FEC3
:10246C00A3E0FFE48F498E48F547F546123247AD9D
:10247C002AAC297F007E01122E90EF7017AD2AAC8A
:10248C0029FF7E02122E90EF700AAD2AAC29FF7E36
:10249C0004122E90AD2AAC297F007E0112335AAD66
:1024AC002AAC297F007E0212335AAD2AAC297F0058
:1024BC007E0412335AAD2AAC297F407E0012275479
:1024CC00EF700AAD2AAC297F20FE122754AD2AAC3E
:1024DC00297F207E00122FCEAD2AAC297F407E00B2
:1024EC00122FCE900006E529F0A3E52AF0227BFFFF
:1024FC007A2079EDE4852A45852944F543F5421285
:03250C0032472231
:103297008D29EF24E0602524187039A206E433FF56
:1032A700E52954016F60030236ECE52930E22590E9
:1032B70000367438F0AD297F0802379FAD297F208B
:1032C70012227B900047EFF01238A5123871E4FD07
:0532D700FF120E302281
:102A6400EF24F7602524E5602F24F9601624FB6029
:102A74002024F8606714605D24197067ED90214983
:102A840093FF22ED90215393FF22ED90215993FF60
:102A940022ED90216193FF22E4F540900043E0D3BE
:102AA40094004003434001900041E0D3940040036C
:102AB400434002900042E0FF25E025E042409000C0
:102AC40044E0FFC454F04240A3E0FFC4333354C095
:102AD4004240AF4022ED90217E93FF22ED9021747D
:062AE40093FF227F002297
:092272008F2BE52B540FFD7F3882
:10227B00E4FEEF24F7604A24E5607024F9602D2416
:10228B00FB605324F8700302234014700302232BCA
:10229B0024196003022355EE90214993B50503AF32
:1022AB0006220EEEC3940A40EE7F0022EE902153DD
:1022BB0093B50503AF06220EEEC3940640EE7F01E5
:1022CB0022EE90215993B50503AF06220EEEC3946F
:1022DB000840EE7F0022EE90216193B50503AF0617
:1022EB00220EEEC3941340EE7F0022ED30E1047F0B
:1022FB000180027F00900041EFF0ED13135403A314
:10230B00F0ED30E0047F0180027F00900043EFF09E
:10231B00EDC45403A3F0EDC413135403A3F0802AAC
:10232B00EE90217E93B50503AF06220EEEC3940A01
:10233B0040EE7F0022EE90217493B50503AF062289
:0D234B000EEEC3940A40EE7F00227F0022B8
:1035FA008B418A428943EF6027AB410543E543AAE1
:10360A00427002054214F91210B8FEAB440546E5B1
:10361A0046AA457002054514F9EE1210FE1F80D61F
:01362A00227D
:10352C004D6978496E707574536F757263653A2581
:10353C006420523A253032780D0A004D6978496E74
:10354C00707574536F75726365423A256420523AF4
:05355C0025640D0A00CA
:0138B20022F3
:0338AB008F242245
:1028AF008F2B90006EE0542CF090006DE054F8F0F8
:1028BF00A3E054FBF01238A5123871900036E07087
:1028CF0053E52BB40A0F900047E004F0D39409406E
:1028DF0010E4F0800C90008B740AF0900047E52B09
:1028EF00F0900047E0FD7F20122A64AD077F201291
:1028FF00379F7F2012365CE48F49F548F547F54640
:10290F007BFF7A35792C852B45F544F543F542123B
:10291F003247801F7BFF7A357947900036E0FFE41E
:10292F008F45F544F543F542F549F548F547F5462A
:09293F00123247E4FDFF020E30E4
:1036A8008F39123871D218E539600D753A30300605
:1036B8000AC206433A028003753A20AD3A7F0802EF
:0236C800379F2A
:10370C00AD07EDC394FF500E7F09122A64EF4410ED
:0E371C00FD7F0902379FE4FD7F0912379F22CF
:103748001238A5123871900028E004F0D394044090
:0D37580002E4F0900028E0FD7F2C02379F76
:10308E008F3C8D3D1238A5E53D6016747B253CF5D1
:10309E0082E43400F583E0C394125019E004F0800A
:1030AE0014747B253CF582E43400F583E0D3940060
:1030BE004003E014F0AD3C7F09122A648F3E747B0E
:1030CE00253CF582E43400F583E0FD7F30122A645E
:0A30DE00AD07E53E2430FF02379FE6
:102358008F3C8D3D1238A5E53C24C7F53FE53D602F
:10236800167459253FF582E43400F583E0C39409D7
:102378005019E004F080147459253FF582E43400C4
:10238800F583E0D394004003E014F0E53C24C660F4
:102398001614603814605114700302242814606401
:1023A8002405600302243B900059E0FD7F39122A7E
:1023B800648F3E90005AE0FD7F39122A648F3FE512
:1023C8003FC454F0453EFD7F3902379F90005BE0E3
:1023D800FD7F39122A648F3EE4F53FE53FC454F08F
:1023E800453EFD7F3A02379F90005CE0FD7F391241
:1023F8002A648F3E753F08E53FC454F0453EFD7F93
:102408003B02379F90005EE0FD7F39122A648F3EC1
:10241800753F01E53FC454F0453EFD7F3C02379FC0
:1024280090005DE0FD7F38122A648F3EAD3E7F3814
:0424380012379F2296
:0D387100301409C214E4FD7F0912379F22B4
:0638A500300602C20622FB
:0A388A00205245534554000102048A
:0138B30022F2
:100601008F24122B6E900052E0D3940040163001DB
:1006110003020B30E5245402D394005003020B3043
:10062100E014F02230012530190BC2197809E6B423
:100631005903123596200703020B30C207D21378F3
:1006410014E664186003020B30023596200703029A
:1006510006E1C207D2137814E624F8603524F76066
:100661002814601C24FE600F24EC60432410707079
:100671007F0A1228AF8069E4FD7F03120E3080608B
:10068100E4FD7F04120E308057E4FD7F05120E3029
:10069100804E900036E0FFC39438400EEFD3943E75
:1006A1005008E4FDFF120E3080361236EC80319096
:1006B1000036E0FFC394384006EFD3943A4009E492
:1006C100FD7F38120E308018900036E004F0D3948C
:1006D1003A40037438F0900036E0FFE4FD120E302A
:1006E1007816E6600C06E6D3943C4005E4F67812F1
:1006F100F6201903020B08C2197809E61212ED0A55
:10070100FC000B03030AE00408B30508DC060AE752
:10071100070AC6080ACB0B0AAB0C086D0D08670E59
:100721000A6910088A11086A120A73130A87140ADF
:100731003615094A160A901707E81807BE1908B9AD
:100741001A09DA1B0AF5400AEE420AD94408AD45F6
:100751000AD2460ABD480AB44A0AA24C07EB4D0A1E
:10076100994E0A5F500829510A55520A7D5409FCD5
:100771005507A558077F5909B85A00000B08B2015F
:1007810030010AE4FD7F08120E30020B087D017F63
:100791000512379FE4FD7F02120E30900052741E45
:1007A100F0020B08900036E0B409047F0480027F58
:1007B100008F25AD257F09120E30020B087BFF7AD1
:1007C10038798A1234FB12000E122BEA020B0890C0
:1007D1000036E004F0D3943E40037439F0900036C3
:1007E100E0FFE4FD120E30020B08900036E0FFC37B
:1007F100942E4012EFD39435500C781676017D0477
:10080100120E30020B08900036E0FFC3942450030F
:10081100020B08EFD3942B4003020B0878167601E4
:100821007D04120E30020B08900036E0FFC3942EB7
:100831004012EFD39435500C781676017D03120ED9
:1008410030020B08900036E0FFC394245003020BE2
:0C08510008EFD3942B4003020B0878162C
:10085D0076017D03120E30020B08020B08020B0805
:10086D0078167601900036E0B438047F0480027F5C
:10087D00008F25AD257F38120E30020B0830060390
:10088D00020B0878167601900036E0B438047F0329
:10089D0080027F008F25AD257F38120E30020B08A8
:1008AD00123765020B081236EC020B08900036E089
:1008BD00FFC39446400FEFD394505009E4FDFF124F
:1008CD000E30020B08E4FD7F46120E30020B08902D
:1008DD000036E0FFC394465003020B08EFD394504B
:1008ED004003020B08E004F0E0B4480C900042E035
:1008FD007006900036E004F0900036E0B4490C909C
:10090D000044E07006900036E004F0900036E0B44C
:10091D004A0C900045E07006900036E004F090001F
:10092D0036E0D3945040037446F0900036E0FFE477
:10093D00FD120E3090004E7432F0020B089000360E
:10094D00E0FFC394465003020B08EFD394504003CD
:10095D00020B08E014F0E0B44A0C900045E070067C
:10096D00900036E014F0900036E0B4490C9000444D
:10097D00E07006900036E014F0900036E0B4480CBC
:10098D00900042E07006900036E014F0900036E0E2
:10099D00C3944650037450F0900036E0FFE4FD120E
:1009AD000E3090004E7432F0020B08900036E0FFCE
:1009BD00C394465003020B08EFD394504003020B2F
:1009CD0008781676017D03120E30020B0890003662
:1009DD00E0FFC394465003020B08EFD3945040033D
:1009ED00020B08781676017D04120E30020B08906A
:1009FD000036E0FFC3942E4006EFD39435400D1220
:100A0D003871E4FD7F2E120E30020B08900036E097
:100A1D0024D2FF122CD88F26E526242EFF900036E7
:100A2D00F0E4FD120E30020B08B21A301A0B7FFFE4
:100A3D0012378212000E020B08123031122DB8E45B
:100A4D00FDFF120E30020B087DA07F0F12379F02A3
:100A5D000B087DB47F0F12379F020B087D107F0F9F
:100A6D0012379F020B087D207F0F12379F020B0854
:100A7D007D807F0F12379F020B087D607F0F12372D
:100A8D009F80787D507F0F12379F806FE4FD7F052B
:100A9D00120E308066E4FD7F0B120E30805DE4FD9A
:100AAD007F0C120E308054E4FD7F03120E30804B0C
:100ABD00E4FD7F04120E30804212319A803D7F0595
:100ACD001228AF80367F061228AF802F7F0712289D
:100ADD00AF80287F081228AF80217F091228AF80B0
:100AED001A7F011228AF80137F021228AF800C7F6E
:100AFD00031228AF8005E4FF1228AF301B25C21B5F
:100B0D00900036E0FFC394384012EFD3943A500C66
:100B1D003011047D0480027D03020E30E4FD7F3828
:040B2D00120E302252
:1036EC00B2063006047F0480027F03AD077F0A1206
:1036FC000E30200607E4FD7F38120E30123871228E
:10376500B21430140CE4FD7F24120E30E4FF02374E
:0D3775000CE4FDFF120E307FFF12370C2216
:10319A00900047E0C39406504790008DE0FFC413A7
:1031AA005407F527EF5407F528E4F5290527E527FD
:1031BA00D394024003E4F527E527903891935528E4
:1031CA00600EE527C43354E04528FD7F2102379F6E
:1031DA000529E529C3940340D3E4FD7F06020E3096
:0731EA00E4FDFF120E30228C
:102B6E00780EE6FF7008C2A0D2A1D2A28012EFB4F6
:102B7E000108D2A0C2A1D2A28006D2A0D2A1C2A226
:102B8E00E4FE2082010E20830343060220840343C9
:102B9E000604208503430608EE602EEFC454F02E83
:102BAE00FE7814E6B5061690008CE004F0D3940877
:102BBE004029201302D207E490008CF022C213E4C5
:102BCE0090008CF07814A60622780E06E6D39402B6
:0C2BDE004002E4F6C213E490008CF022E8
:102C6300200F1830871030860D780D06E6D39403B5
:102C73004004E4F6D20FC20AC20B22A287308601B7
:102C8300B3503A300F25A2869211A211301501B329
:102C93005005780BE67002D21BA2119215780B76C1
:102CA30003E4780DF6C20FC20B800F300B0A780BCA
:102CB3007603E4780DF6C20FD20BC20A22208714E2
:102CC300208611300A0A780B7603E4780DF6C20FDA
:052CD300D20AC20B2231
:1015B9004B434D2D4E4F00202D4F46462D002048C0
:1015C900454C4C4F004D5554452020004D55544530
:1015D9002D2D00564F4C20202000564F4C20004EF8
:1015E9004F4953452000465253502000434553501C
:1015F9002000535753502000535253502000424B60
:10160900535020004C504620004C4950530046523C
:10161900444C20004345444C20005357444C20007F
:10162900424B444C2000496E536F757263653A25ED
:10163900642025642025640D0A005649444530205C
:10164900002020202020200050434D00322F34005C
:1016590020464C41542000534F554E44004E4947B3
:101669002D4F4E004E49472D4F46004657444F4E89
:1016790045004D503300202000425249474800465A
:101689004C547443455474535754744652547453C8
:1016990052547442525474424C5474534C5474000E
:1016A900464C5472434554725357547246525472BD
:1016B9005352547242525472424C5472534C5472A3
:1016C900004D4943314D4943324543484F524550F6
:1016D9005444454C5952455642004155582D494E9E
:1016E9004F5054494341434F412D4431434F412DBC
:1016F9004432202D53442D20202D5553422D48444A
:101709004D492D3148444D492D3248444D492D33D9
:1017190048444D492D410020204849464920322B53
:10172900314348004D4F444500322F30312F30327C
:101739002F30332F30322F31332F31322F32332F95
:1017490032332F33332F34322F33322F3400534473
:101759002D494E2053442D4F555455442D494E2063
:1017690055442D4F55540033324B34384B35364B95
:1017790036344B38304B39364B31313231323831DE
:101789003630313932323234323536333230333819
:1017990034000002070000243F000600DB00CF00F0
:1017A900E600ED00FD000700FF00EF00F7128F00D3
:1017B90039120F00F900F100BD00F61209001E0CE4
:1017C90070003805360936003F00F3083F08F3007A
:1017D900ED1201003E243028362D0000EE240900C8
:0D17E900C0240012C00010181C1C1E1E1F82
:1030E800C2A5C2937F011238947F401237D37F0163
:1030F800123894D2937F01123894C2937F01123808
:10310800947FC01237D37F01123894E4F524E4FF8A
:103118001237D37F011238940524E524C394104054
:10312800ED7F0A123894D293E4FDFF12362BE4FFA8
:09313800123782E4900033F0220A
:1025D8008F24300E05C20E12000EE5245402D39447
:1025E80000500302269A900033E0601514F070073B
:1025F8007F011235C8800A900033E05401FF12357C
:10260800C8900052E0D39400400302269A30060C8A
:1026180090004EE07006FD7F0A120E3020015B909C
:10262800004EE0605514F07027201407FDFF120ECD
:10263800308047900036E024DCFF122CD88F25E547
:10264800252424FFE4FD120E30AF2512370C802A12
:1026580030002790004EE0FF75F00584E5F0701A11
:10266800EF75F00584F525900036E0FFE52530E0AC
:10267800047D0280027D01120E3020011520061211
:1026880020140F30050C900048E0D394004003124A
:03269800314122AB
:100E30008F378D38E538700890004E7414F0C2007A
:100E4000C205C2A51237B990006DE0540FF0E53726
:100E50001212ED0EF6000F15010F27020F6B030F94
:100E600078040F85050F90060F9C070F1B080F3C99
:100E7000090FD10A0FA20B0FA80C0FAE0D0FB40E65
:100E80000FB40F0FB4100FB4110FBF120FC5131012
:100E90007A24107A25107A26107A27107A28107A68
:100EA00029107A2A107A2B10832E10832F1083306A
:100EB0001083311083321083331083341083351044
:100EC0002D38108F39108F3A108F3B108F3C108FB8
:100ED0003D108F3E10A74610A74710A74810A749FE
:100EE00010A74A109B4B109B4C109B4D109B4E1013
:100EF0009B4F000010B1200C05122F6580097BFF6D
:100F00007A1579B91234FBE4900036F090004EF077
:100F1000D2050210B1122F650210B17BFF7A15794C
:100F2000C01234FB0210B17BFF7A1579C71234FB73
:100F300012000E90004E740AF00210B1E538B404AD
:100F40001D90004E7414F0900051E004F0D3940210
:100F50004002E4F0900051E0FD7F4312379F900083
:100F600051E0FD7F0112362B0210B1123871AD38FD
:100F70007F03121F6D0210B1123871AD387F041259
:100F80001F6D0210B11238717F041235610210B169
:100F900090004E7432F01237E90210B112280802A4
:100FA00010B112344C0210B112331B0210B11238BE
:100FB000460210B1E53724F2FF1237FE0210B112DB
:100FC00031F10210B190004E7414F012250F02108E
:100FD000B1E5386003B4040890004E7450F0D200BC
:100FE000E538C394024005E538B4040B7BFF7A155D
:100FF00079CE1234FB800EE538B402097BFF7A15F6
:1010000079D51234FBE538B4040A7D037F08123722
:101010009F0210B1E538640360030210B190004EE6
:101020007414F07D027F0812379F0210B1E538C3B7
:1010300094034015900036E0B4380EE538B404044B
:101040007F0180027F001236A8E538B4020B7BFFD7
:101050007A1579DC1234FB80587BFF7A1579E3121C
:1010600034FB90002EE0FD7F041236CAE538704153
:1010700090004E7450F0D2008037AD38AF3712294F
:10108000DB802E123871AD38AF371229488022121A
:101090003871AD38AF37122D488016123871AD381F
:1010A000AF37121CF6800A123871AD38AF371221F3
:0810B00088900036E537F022BC
:10331B007F0912365C8F39301413900036E0B40CF1
:10332B000C0539E539D394074003E4F539AD397F02
:10333B000912379F7BFF7A1579E81234FBE53912B6
:0F334B00133A301409E4900034F0FF12370C22CB
:102CD800EFB407005067902CE5F8282873022CFA07
:102CE800022D0F022D1B022D1E022D33022D3F0235
:102CF8002D42900042E060037F0122900043E06093
:102D0800037F02227F0322900043E060037F0222B8
:102D18007F03227F0322900044E060037F04229017
:102D28000045E060037F05227F0022900045E060B7
:102D3800037F05227F00227F06227F07227F002251
:1029DB008F398D3AE53AC39403401E900036E0B52B
:1029EB00391724DCFFE53AB404047D0180027D0035
:1029FB0012308E90004E7450F074DC2539F5397519
:102A0B00F004A42488F974161234F6E53AB4020ED5
:102A1B007D207F0412133F7D207F0502133F747BC3
:102A2B002539F582E43400F583E0F53BC394095076
:102A3B00147D2D7F0412133FC37439953BFD7F0525
:102A4B0012133F80117D207F0412133FE53B242797
:092A5B00FD7F0512133FD2002299
:102948008F398D3AE53AC39403401E900036E0B5BE
:10295800391724D2FFE53AB404047D0180027D00D2
:1029680012308E90004E7450F074D22539F53975B6
:10297800F004A424A9F974161234F6E53AB4020E48
:102988007D207F0412133F7D207F0502133F747B57
:102998002539F582E43400F583E0F53BC39409500A
:1029A800147D2D7F0412133FC37439953BFD7F05B9
:1029B80012133F80117D207F0412133FE53B24272B
:1029C800FD7F0512133FE53A700890004E7450F0F1
:0329D800D2002208
:102D48008F398D3AE53AC39403401D900036E0B5BB
:102D58003916E53AB404047D0180027D00AF3912CA
:102D6800235890004E7450F074C72539F53975F022
:102D780004A424CAF974161234F67D207F041213B1
:102D88003FE53AB402077D207F0502133F745925B9
:102D980039F582E43400F583E0F53B2430FD7F0506
:102DA80012133FE53A700890004E7450F0D200229A
:101CF6008F398D3A90006DE04450F0A3E0F09000EB
:101D06004E7450F07D207F0412133F7D207F051214
:101D1600133FE53924B46056147003021DAB1470EA
:101D260003021DE2147003021E19147003021E50F2
:101D360024056003021E597BFF7A1579EF1234FBE6
:101D4600E53AC39403401B900041E004F0D39401AC
:101D56004002E4F0E4FD7F24122A64AD077F2412DA
:101D6600379FE4FF123410AD077F0502133F7BFF58
:101D76007A1579F51234FBE53AC39403401B9000BB
:101D860042E004F0D394024002E4F0E4FD7F241222
:101D96002A64AD077F2412379F7F01123410AD07E6
:101DA6007F0502133F7BFF7A1579FB1234FBE53A78
:101DB600C39403401B900043E004F0D39401400217
:101DC600E4F0E4FD7F24122A64AD077F2412379FD6
:101DD6007F02123410AD077F0502133F7BFF7A1690
:101DE60079011234FBE53AC39403401B900044E0AA
:101DF60004F0D394024002E4F0E4FD7F24122A6446
:101E0600AD077F2412379F7F03123410AD077F057D
:101E160002133F7BFF7A1679071234FBE53AC39427
:101E260003401B900045E004F0D394024002E4F026
:101E3600E4FD7F24122A64AD077F2412379F7F04B6
:101E4600123410AD077F0502133F7BFF7A16790D1A
:041E56001234FB2225
:102188008F398D3AE53924B9603A14605A14607A67
:102198001470030222352404600302225690006D55
:1021A800E04440F0A3E0F07BFF7A1679121234FB8A
:1021B800E53AC394035003022256AD3AE4FF122EC7
:1021C800FB0222567BFF7A1679171234FB90006DBA
:1021D800E04450F0A3E0F0E53AC394034070AD3A10
:1021E8007F01122EFB80677BFF7A16791D1234FB64
:1021F80090006DE04450F0A3E0F0E53AC39403404A
:102208004DAD3A7F02122EFB80447BFF7A1679236C
:102218001234FB90006DE04450F0A3E0F0E53AC3BF
:102228009403402AAD3A7F03122EFB80217BFF7A6C
:102238001679291234FB90006DE04450F0A3E0F0C9
:10224800E53AC394034007AD3A7F04122EFB900091
:102258004E7432F074F12539F582E434FFF583E0E9
:0A22680075F005A4FD7F040236CADC
:102F650090008BE0FFB40A08900047E0FEFF800068
:102F75008F3E7BFF7A16792FE48F45F544F543F5AF
:102F85004290008BE0FFE48F49F548F547F5469000
:102F95000047E0FFE48F4DF54CF54BF54A123247FB
:102FA500E53E64046005E53EB4050990006EE04425
:102FB50020F0800790006EE054DFF0E53E75F006E6
:092FC500A424E3F974160234F6A9
:1037E9007BFF7A1679431234FB90008DE0FFC413F6
:0537F900540702133A21
:101F6D008F398D3A900036E065397078E539640324
:101F7D00702F90002CE06401FFF0FD7F2B12379F36
:101F8D0090002CE0FD7F4012379F900086E06401A9
:101F9D00700302204A7401F0FD7F4212379F022028
:101FAD004A90002DE004F0C394044002E4F0900048
:101FBD002DE0FFC39403500BEF4410FD7F2B123720
:101FCD009F80077D307F2B12379F90002DE0FD7F86
:101FDD004112379F900086E06063E4F0FD7F42126E
:101FED00379F8059900036E0B4041DE539B40318CD
:101FFD0090002CE0FD7F2B12379F9000867401F02E
:10200D00FD7F4212379F8035900036E06403702DBE
:10201D00E5396404702790002DE0FFC39403500B45
:10202D00EF4410FD7F2B12379F80077D307F2B12E1
:10203D00379FE4900086F0FD7F4212379FE539B45B
:10204D00031290002CE075F006A42420F9741712E9
:10205D0034F680177BFF7A17792D1234FB7D207FA4
:0E206D000412133F90002DE012133A0230319E
:10280800900048E0FF540FC3940250030228ABE441
:10281800F53DEFC4540F75F003A4F5397BFF7A1624
:10282800794A1234FB122DB8900048E0540F24FD69
:10283800602414604314604024FE605E24F7601630
:1028480014601324FD24FD502F241570597BFF7A42
:102858001679510234FB74322539F9E43417FA7BBE
:10286800FF75440075450075463A7F031235FA7BBB
:10287800007A00793A0234FB74322539F9E43417C6
:10288800FA7BFF75440075450075463A7F0312359B
:10289800FA7B007A00793A0234FB7BFF7A16795585
:0728A8000234FB122F652230
:10341000AE07EE700C900041E060037F4C227F53BA
:1034200022BE020C900043E060037F59227F4E22AF
:1034300074412EF582E43400F583E0FDB402037F8D
:0C3440004C22EDB401037F53227F4E228A
:10356100EFC39403400A900036E0B40503123748D4
:10357100900028E070097BFF7A1679590234FB7BB1
:10358100FF7A1679601234FB900028E02430FD7F29
:053591000512133F22AA
:10344C007F2312365C8F39900036E0B40B16E539C9
:10345C00C3943250057539328003E4F539AD397FA8
:10346C002312379FE53960097BFF7A16796602349F
:0B347C00FB7BFF7A16796D1234FB22F7
:0F38460090004E7432F07BFF7A1679740234FBD7
:1037FE0090004E7432F0EF75F006A42457F974174A
:03380E000234F68B
:1031F10090004E7414F090006DE054BFF07BFF7AA4
:1032010016794A1234FB90003DE02401FD90003C08
:10321100E03400FCE4FF12269B8F4005407D2F1215
:10322100133F900047E0B4040D900031E0FEA3E0AD
:10323100FFAC06FD800B90004BE0FEA3E0FFAC0667
:06324100FDAF4002269BD8
:10250F00C3900050E0940390004FE09400500302FA
:10251F0031F1C3900050E0940590004FE0940050CB
:10252F006490005FE0FF131313541FF539900048B8
:10253F00E0540F640A704E90004E7414F0E539D3D6
:10254F0094004041E5399410503B754400754500A7
:10255F0075463A7BFF7A16797B7F031235FAE53998
:10256F0075F003A4246DF9741735F0FA7BFF7544E9
:10257F000075450075463D7F031235FA7B007A00E2
:10258F00793A0234FB90004E740AF07BFF7A167989
:10259F007F1234FB90004FE0FEA3E0FF7C007D3CF8
:1025AF00121132AD077F021236CA90004FE0FEA320
:1025BF00E0FF7C007D3C1211327F041236CA90007E
:0925CF006DE04440F0A3E0F022AD
:10362B008D39EFD39400400E7BFF7A1679821234DA
:10363B00FBE53912133AC2937F01123894E53990A6
:10364B00179B934488FF1237D37F01123894D29380
:01365B00224C
:102EFB00EF70047C0180027C00EC146011146012F2
:102F0B00146013146014240470127E13800E7E0957
:102F1B00800A7E0980067E0980027E09BD04247426
:102F2B00372FF582E43400F583E0D39E4002EEF0B8
:102F3B0074372FF582E43400F583E0C39E501AE01A
:102F4B0004F022BD031374372FF582E43400F583AC
:0A2F5B00E0D394004003E014F022DC
:10303100900086E0600790002CE0FF800790002D53
:10304100E02402FF90006EE0542CF0EF14601014A5
:10305100601614601C1460221460282405702B90E3
:10306100006EE04401F0802290006EE04402F080A6
:103071001990006EE04480F0801090006EE04440B2
:0D308100F0800790006EE04410F0D20E22A7
:102DB80090006DE054F8F0A3E054FBF0900048E078
:102DC800540F24FD603514603B14603824FE6040C5
:102DD80024F7602714602424FD24FD50272415704F
:102DE80039900084E0FF64536030EF6456602B90A4
:102DF800006DE04404F0A3E0F0801F90006EE04412
:102E080004F0801690006DE04401F0A3E0F0800A21
:0D2E180090006DE04404F0A3E0F0D20E2223
:1035C8008F37E537B4FF117F0E12365CEF30E70412
:1035D8007F0180027F008F37E537600C90006DE037
:1035E8004408F0A3E0F0800790006DE054F7F0D2B3
:0235F8000E22A1
:0534F60035F0FA7BFF38
:1034FB008B418A428943E4F545AB410543E543AA39
:10350B00427002054214F91210B8F5446012AD4432
:10351B00AF4512133F0545C3E5456480948640D9FA
:01352B00227D
:10269B008F418C428D43AE42AF437C277D1012118C
:1026AB0032EF4E601AEF2430FDAF41054112133F5C
:1026BB00AE42AF437C277D101211328C428D43AE5C
:1026CB0042AF437C037DE8121132EF4E601AEF24C8
:1026DB0030FDAF41054112133FAE42AF437C037D4A
:1026EB00E81211328C428D43AE42AF437C007D64C5
:1026FB00121132EF4E601AEF2430FDAF410541123B
:10270B00133FAE42AF437C007D641211328C428D7D
:10271B0043AE42AF437C007D0A121132EF4E601A7A
:10272B00EF2430FDAF41054112133FAE42AF437C66
:10273B00007D0A1211328C428D43AF410541E543B6
:09274B002430FD12133FAF4122BE
:1036CA008F408D41E54175F00A842430FD12133F85
:1036DA00E54004FFE54175F00A84E5F02430FD0277
:0236EA00133F8C
:05133A002431FD7F05D8
:10133F008F468D47E546C39403400302140AE547E1
:10134F00C394304012E547D39439500B74D02547DE
:10135F00F54704F548804CE547C39461400FE547D6
:10136F00D3947A5008E54724AAF5488036E547C359
:10137F009441400FE547D3945A5008E54724CAF5E6
:10138F00488020E54724D5601224FC6009240270B0
:10139F000F754825800D75482680087548278003EE
:1013AF00E4F548E54825E0249EF582E43417F583FB
:1013BF00E493FEE54625E02461F582E43400F583ED
:1013CF00EEF0A3E4F0E54625E02461F582E4340075
:1013DF00F583C083C082E0FEA3E0FFE54825E0244B
:1013EF009FF582E43417F583E493FDEEEF4DFFD0C4
:1013FF0082D083EEF0A3EFF00215B6E546C3940654
:10140F004003021540E547C394304066E547D39447
:10141F0039505F74D02547F54704F54825E0249EE1
:10142F00F582E43417F583E493FEE54625E0246165
:10143F00F582E43400F583EEF0A3E4F0E54625E011
:10144F002461F582E43400F583C083C082E0FEA3FB
:10145F00E0FFE54825E0249FF582E43417F583E4A7
:10146F0093FDEEEF4DFFD082D083EEF0A3EFF002AD
:10147F0015B6E5471212ED14C92D14CE4114D342FF
:10148F0014D84314DD4414E24514E74614EC471412
:10149F00F64814F14914FB4C15004E15054F150A6B
:1014AF0050150F52151453151954151E5515235950
:1014BF00150F72151974000015287547C0805D75DA
:1014CF0047F7805875477C8053754739804E75476D
:1014DF00DE80497547F980447547F1803F7547EFC6
:1014EF00803A75470680357547F6803075473880E6
:1014FF002B754737802675473F80217547F3801C32
:10150F0075475080177547ED80127547F8800D7538
:10151F00473E800875476E8003E4F547E54625E0B2
:10152F002461F582E43400F583E4F0A3E547F0800D
:10153F0076E546D39406401AE546940D5014E547D8
:10154F00C39401400DE547D394055006E547242683
:10155F00F548E54825E0249EF582E43417F583E449
:10156F0093FEE54625E02461F582E43400F583EE31
:10157F00F0A3E4F0E54625E02461F582E43400F5BC
:10158F0083C083C082E0FEA3E0FFE54825E0249FEF
:10159F00F582E43417F583E493FDEEEF4DFFD0822F
:0A15AF00D083EEF0A3EFF0D20E227D
:1037B900E4FFEF25E02471F582E43400F583E4F0B9
:0A37C900A3F00FEFC3940540E922BE
:06385500131313541FFFC2
:09385B00EF54079017EE93FF22D1
:103141007B007A0079277D037C007F8F122E25304A
:103151000C030237B9AF2712385B900071E4F0A37A
:10316100EFF0E527123855900073E4F0A3EFF0AFCC
:103171002812385B900075E4F0A3EFF0E5281238CF
:1031810055900077E4F0A3EFF0AF2912385B90007F
:0931910079E4F0A3EFF0D20E2264
:10381100E4FFE4900071F0A3F00FEFC3940540F2D0
:03382100D20E22A2
:10378200E4FEEFFDEE25E02461F582E43400F583EA
:0D379200E4F0A3EDF00EEEC3940D40E6222E
:10000E00E4FF74082FF582E43400F583E4F00FEF7B
:10001E00C3941040ED900061E0FEA3E0FF30E007D6
:10002E00900016E04408F0EF30E10790000FE04436
:10003E0008F0EF30E207900008E04408F09000620C
:10004E00E030E30790000BE04408F0900061E0FE22
:10005E00A3E0FF30E407900013E04408F0EF30E532
:10006E0007900017E04408F0EF30E607900011E02B
:10007E004408F0900062E030E70790000EE044087C
:10008E00F0900061E0FEA3E0FFEE30E00790001577
:10009E00E04408F0EE30E107900014E04408F0EE82
:1000AE0030E20790000DE04408F0900061E0A330CC
:1000BE00E307900009E04408F0900061E0FEA3E041
:1000CE00FFEE30E40790000AE04408F0EE30E5075A
:1000DE00900010E04408F0900063E0FEA3E0FF30D3
:1000EE00E007900016E04420F0EF30E10790000F9B
:1000FE00E04420F0EF30E207900008E04420F0905A
:10010E000064E030E30790000BE04420F0900063C1
:10011E00E0FEA3E0FF30E407900013E04420F0EF90
:10012E0030E507900017E04420F0EF30E60790002E
:10013E0011E04420F0900064E030E70790000EE0FC
:10014E004420F0900063E0FEA3E0FFEE30E0079065
:10015E000015E04420F0EE30E107900014E044205A
:10016E00F0EE30E20790000DE04420F0900063E0E6
:10017E00A330E307900009E04420F0900063E0FE16
:10018E00A3E0FFEE30E40790000AE04420F0EE30EA
:10019E00E507900010E04420F0900065E0FEA3E03B
:1001AE00FF30E007900016E04410F0EF30E10790CA
:1001BE00000FE04410F0EF30E207900008E044102A
:1001CE00F0900066E030E30790000BE04410F090F2
:1001DE000065E0FEA3E0FF30E407900013E044105A
:1001EE00F0EF30E507900017E04410F0EF30E6072F
:1001FE00900011E04410F0900066E030E7079000A8
:10020E000EE04410F0900065E0FEA3E0FFEE30E05B
:10021E0007900015E04410F0EE30E107900014E076
:10022E004410F0EE30E20790000DE04410F0900024
:10023E0065E0A330E307900009E04410F0900065FC
:10024E00E0FEA3E0FFEE30E40790000AE04410F079
:10025E00EE30E507900010E04410F0900067E0FEED
:10026E00A3E0FF30E007900016E04404F0EF30E129
:10027E000790000FE04404F0EF30E207900008E032
:10028E004404F0900068E030E30790000BE0440473
:10029E00F0900067E0FEA3E0FF30E407900013E06B
:1002AE004404F0EF30E507900017E04404F0EF301F
:1002BE00E607900011E04404F0900069E0FEA3E030
:1002CE00FF30E007900016E04480F0EF30E1079039
:1002DE00000FE04480F0EF30E207900008E0448029
:1002EE00F090006AE030E30790000BE04480F0905D
:1002FE000069E0FEA3E0FF30E407900013E04480C5
:10030E00F0EF30E507900017E04480F0EF30E6079D
:10031E00900011E04480F090006BE0FEA3E0FF300F
:10032E00E007900016E04402F0EF30E10790000F76
:10033E00E04402F0EF30E207900008E04402F09053
:10034E00006CE030E30790000BE04402F090006B8D
:10035E00E0FEA3E0FF30E407900013E04402F0EF6C
:10036E0030E507900017E04402F0EF30E60790000A
:10037E0011E04402F090006DE0FEA3E0FF30E007D4
:10038E00900016E04401F0EF30E10790000FE044DA
:10039E0001F0EF30E207900008E04401F090006EAB
:1003AE00E030E30790000BE04401F090006DE0FEBA
:1003BE00A3E0FF30E407900013E04401F0EF30E5D6
:1003CE0007900017E04401F0EF30E607900011E0CF
:1003DE004401F090006EE030E70790000EE044011B
:0403EE00F090006D1E
:1003F200E0FEA3E0FFEE30E007900015E04401F0DC
:10040200EE30E107900014E04401F0EE30E2079094
:10041200000DE04401F090006DE0A330E30790008E
:1004220009E04401F090006DE0FEA3E0FFEE30E44D
:1004320007900012E04420F0EE30E507900012E051
:100442004410F0EE30E607900012E04404F0900011
:100452006FE0FEA3E0FF30E00790000DE04404F0FF
:10046200EF30E107900014E04404F0EF30E207902F
:100472000015E04404F0900070E030E30790000EB5
:10048200E04404F0900071E0FEA3E0FF30E007904A
:100492000009E04480F0EF30E10790000DE0448075
:1004A200F0EF30E207900014E04480F0900072E038
:1004B20030E307900015E04480F0900072E030E4F1
:1004C2000790000EE04480F0900073E0FEA3E0FF8E
:1004D20030E00790000DE04402F0EF30E1079000B9
:1004E20014E04402F0EF30E207900015E04402F01D
:1004F200900074E030E30790000EE04402F09000B8
:1005020075E0FEA3E0FF30E007900013E04440F006
:10051200EF30E10790000BE04440F0EF30E207904B
:100522000008E04440F0900076E030E30790000FCE
:10053200E04440F0900076E030E407900016E0449A
:1005420040F0900077E0FEA3E0FF30E00790001556
:10055200E04440F0EF30E10790000EE04440F0EF5D
:1005620030E207900011E04440F0900078E030E380
:1005720007900017E04440F0900079E0FEA3E0FF0E
:1005820030E007900010E04440F0EF30E1079000C7
:100592000AE04440F0EF30E207900009E04440F006
:1005A20090007AE030E30790000DE04440F09000C4
:1005B2007AE030E407900014E04440F0C2937F01F7
:1005C2001238947F401237D37F01123894D2937F2E
:1005D20001123894C2937F011238947FC01237D32C
:1005E200E4F53974082539F582E43400F583E0FF37
:0F05F2001237D30539E539C3941040E7D293226D
:1037D3007E08C290EF139291EFC313FFD2901EEEB7
:0637E300D3940050ED221A
:10372A00AE0753050FEDC3940A5006ED2430FFFD92
:0E373A0022EE6005ED2457FF22ED2437FF221A
:1019F4008F698D6AE56A7029AF6EAE6DAD6CAC6BA4
:101A0400EC4D4E4F701BAB6FAA70A971743012105D
:101A1400FEAB6FAA70A971900001E41211107F014E
:101A240022E4F572F573E56964646009E569647537
:101A34006003021B227579007578CA75779A7576EA
:101A44003BE569B4643FE4FFFEFDE56B5480FC6054
:101A540034AB6FAA70A971AF7305738F827583005D
:101A6400742D121110E56EFBE56DFAE56CF9E56B6A
:101A7400547FF8C3E49BF56EE49AF56DE499F56C34
:101A8400748098F56B75740BAB79AA78A977A876EE
:101A9400AF6EAE6DAD6CAC6B1212048F751574E540
:101AA40074656A6004E5756003757201E572601A15
:101AB400AD75E4FF12372AAB6FAA70A971AE730536
:101AC400738E82758300EF121110AF6EAE6DAD6C24
:101AD400AC6BAB79AA78A977A876121204AC00ADE6
:101AE40001AE02AF038F6E8E6D8D6C8C6BAF79AED1
:101AF40078AD77AC76E47B0AFAF9F81212048F79A0
:101B04008E788D778C76E4FFFEFDFCAB79AA78A9FC
:101B140077A876C31212966003021A8C80527574E9
:101B24002075750974FC2574F574AF6EAE6DAD6CDB
:101B3400AC6BF9F81212A7AD071575E575656A6007
:101B440003ED6003757201E5726021E569B4580420
:101B54007F0180027F0012372AAB6FAA70A971AE91
:101B64007305738E82758300EF121110E57470B4DF
:101B7400AB6FAA70A971857382758300E41211108A
:031B8400AF73221A
:100B31008B548A558956E4F55DF55EAB57AA58A9E1
:100B410059AF5DEF3395E08F82F5831210D16425A3
:100B51006051D3E55E6480949E4003AF5E22AB5743
:100B6100AA58A959AF5D055DEF3395E08F82F583F2
:100B71001210D1FFAB54AA55A956AE5E055EEEFD2B
:100B81003395E08D82F583EF121110AB57AA58A966
:100B910059AF5DEF3395E08F82F5831210D1709BD1
:100BA100AF5E22AF5DEF3395E08F82F583A3AB5744
:100BB100AA58A9591210D1F5636473706BAB5AE549
:100BC1005CF92403F55CE55BFA3400F55B1212CDA8
:100BD1008B608A618962055D055DE4F55FAB60AAA2
:100BE10061A962AF5FEF3395E08F82F5831210D177
:100BF1007003020B3CC3E55E6480949E4003020BCC
:100C01003C055FEF3395E08F82F5831210D1FFAB86
:100C110054AA55A956AE5E055EEEFD3395E08D8270
:100C2100F583EF12111080B5E563B4251E055D054E
:100C31005DAB54AA55A956AF5E055EEF3395E08FC3
:100C410082F5837425121110020B3CE563B4633203
:100C5100055D055DAB5AE55CF92402F55CE55BFADF
:100C61003400F55B12119DFFAB54AA55A956AE5E37
:100C7100055EEEFD3395E08D82F583EF12111002D2
:100C81000B3CE4F564F55FAF5DEF3395E0FEEF24D7
:100C910001FFE43EFEAD5FED3395E0FCED2FF58203
:100CA100EC3EF583AB57AA58A9591210D1F563C38D
:100CB100648094B0401ED3E563648094B95015E517
:100CC1006324D0FFE56475F00AA42FF564055FE5A0
:100CD1005FB403B3AF5DEF3395E0FEEF2401FFE4B2
:100CE1003EFEAD5FED3395E0FCEF2DFFEE3CFEAB3C
:100CF10057E5592FF9E5583EFA8B60F5618962E5B0
:100D01005D2402255FF55D1210B8249C600F24EF6D
:100D1100600B24FD600724206003020B3CAB5A05E5
:100D21005CE55CAA5B7002055B14F91210B8FF3335
:060D310095E08F68F567F4
:100D3700F566F565FEAD66AC6578081212BA8F6880
:100D47008E678D668C65055CE55CAA5B7002055B4A
:100D570014F91210B8FF3395E0FEFDFCE5684FF576
:100D670068E5674EF567E5664DF566E5654CF5653B
:100D7700AF68AE67AD66FC78081212BA8F688E67E7
:100D87008D668C65055CE55CAA5B7002055B14F9F2
:100D97001210B8FF3395E0FEFDFCE5684FF568E5F6
:100DA700674EF567E5664DF566E5654CF565AF6831
:100DB700AE67AD66FC78081212BA8F688E678D66CB
:100DC7008C65055CE55CAA5B7002055B14F9121083
:100DD700B8FF3395E0FEFDFCE5684FF568E5674E23
:100DE700F567E5664DF566E5654CF565AB60AA61A7
:100DF700A9621210B8FFC00785686E85676D8566A2
:100E07006C85656BAF5EEF3395E0FEE5562FF9E530
:100E1700553E85546FF5708971D007AD641219F48A
:090E2700EF255EF55E020B3C2292
:103247008B3F8A4089417551007552007553428BF7
:10325700578A58895985515A85525B85535C7B013A
:103267007A00798E120B31E4FEC3EF6480F8EE64C6
:103277008098501BC299EEFD3395E0FC748E2DF5B6
:103287008274003CF583E0F5993099FD0E80DA22CF
:103487001238241230E81238B31238B212389D7845
:1034970013E6FF5401D3940040F5121B877813E617
:1034A700FF1206017813E6FF1225D87813E6FF12FC
:0834B70038ABE47813F680D76E
:10382400758921758851759850758DFF438780750A
:03383400A8832244
:0338AE008F08225E
:09389400EFD394034002DFFE2291
:03000B00021E5A78
:101E5A00C0E0C0F0C083C082C0D075D000C000C04E
:101E6A0001C002C003C004C005C006C007758A606D
:101E7A00758CFF781006E675F00A84E5F0600302B7
:101E8A001F15122C637810E675F06484E5F0703B38
:101E9A00F678137601780C06E675F00A84E5F07098
:101EAA002A7813E64402F6780CE6FF75F03284E5E8
:101EBA00F070187813E64404F6EF75F06484E5F0E0
:101ECA007009780CF67813E64408F630053D900060
:101EDA002BE004F0D394134006E4F0D2A5802C90B2
:101EEA000051E0FF700B90002BE0B40104C2A58002
:101EFA000DEFB4010990002BE0B40402C2A5EFB4BF
:101F0A00020990002BE0B40802C2A5780FE66038F7
:101F1A0006E6D3949F40312008247811E6B4021EC5
:101F2A007816E660197812E6FFC39408500EEF544B
:101F3A0003FFBF0302D2197812068002D219781160
:101F4A007600C208780F7600D007D006D005D004F4
:101F5A00D003D002D001D000D0D0D082D083D0F02C
:031F6A00D0E03292
:03000300022AEAE4
:102AEA00C0E0C0D075D000C000C006C0072008658D
:102AFA00781106E6FFB4020C780FE6D3949140559C
:102B0A00D2088051780AE6FEC313F6780FE6D3940A
:102B1A00104006780AE64480F6EF640A6004EFB4CF
:102B2A001A07780AE618F6802CEFB41212780AE629
:102B3A00B4BF0418E6601E78167600D2088016EF35
:102B4A00B42212D21978127600780AE6F41866606E
:102B5A0004C219D208780F7601D007D006D000D067
:042B6A00D0D0E032B5
:0300000002387E45
:0C387E00787FE4F6D8FD7581790234876C
:1010B800BB010689828A83E0225002E722BBFE0236
:0910C800E32289828A83E4932269
:1010D100BB010CE58229F582E5833AF583E02250D4
:1010E10006E92582F8E622BBFE06E92582F8E2221E
:0D10F100E58229F582E5833AF583E4932238
:1010FE00BB010689828A83F0225002F722BBFE01D1
:02110E00F322CA
:10111000F8BB010DE58229F582E5833AF583E8F015
:10112000225006E92582C8F622BBFE05E92582C8C1
:02113000F222A9
:10113200BC000BBE0029EF8DF084FFADF022E4CCA1
:10114200F875F008EF2FFFEE33FEEC33FCEE9DEC6A
:10115200984005FCEE9DFE0FD5F0E9E4CEFD22EDB0
:10116200F8F5F0EE8420D21CFEADF075F008EF2FFA
:10117200FFED33FD4007985006D5F0F222C398FDEB
:051182000FD5F0EA2288
:10118700C5F0F8A3E028F0C5F0F8E58215827002F3
:061197001583E038F02290
:10119D00BB010A89828A83E0F5F0A3E0225006871D
:1011AD00F009E71922BBFE07E3F5F009E3192289DF
:0B11BD00828A83E493F5F07401932212
:1011C80075F008758200EF2FFFEE33FECD33CDCCDE
:1011D80033CCC58233C5829BED9AEC99E582984061
:1011E8000CF582EE9BFEED9AFDEC99FC0FD5F0D63E
:1011F800E4CEFBE4CDFAE4CCF9A88222B800C1B968
:101208000059BA002DEC8BF084CFCECDFCE5F0CBA5
:10121800F97818EF2FFFEE33FEED33FDEC33FCEBDE
:1012280033FB10D703994004EB99FB0FD8E5E4F999
:10123800FA227818EF2FFFEE33FEED33FDEC33FC86
:10124800C933C910D7059BE99A4007EC9BFCE99A7A
:10125800F90FD8E0E4C9FAE4CCFB2275F010EF2FBF
:10126800FFEE33FEED33FDCC33CCC833C810D707BF
:101278009BEC9AE899400AED9BFDEC9AFCE899F8FA
:0E1288000FD5F0DAE4CDFBE4CCFAE4C8F9228D
:10129600EB9FF5F0EA9E42F0E99D42F0E89C45F0AE
:0112A6002225
:1012A700E8600FECC313FCED13FDEE13FEEF13FF25
:0312B700D8F12249
:1012BA00E8600FEFC333FFEE33FEED33FDEC33FC92
:0312CA00D8F12236
:1012CD00BB010789828A8302131C5005E9F80213BA
:1012DD0013BBFE05E9F802132589828A8302132EBA
:1012ED00D083D082F8E4937012740193700DA3A390
:1012FD0093F8740193F5828883E4737402936860A4
:06130D00EFA3A3A380DFA3
:09131300E6FB08E6FA08E6F922FF
:09131C00E0FBA3E0FAA3E0F922D2
:09132500E2FB08E2FA08E2F922F9
:0C132E00E493FB740193FA740293F9221B
:00000001FF
