:1039CD008F388D39123A677FCC1235BCAF3812352E
:0A39DD00BCAF391235BC123B1322B7
:1038B8008F2C8C2D8D2E123A677FCC1235BCAF2CF5
:1038C8001235BCAF2E1235BCE52DFF1235BC123BAC
:0238D8001322B9
:10350B008F3D8B3E8A3F8940123A677FCC1235BC88
:10351B00AF3D1235BCAB3E0540E540AA3F700205FE
:10352B003F14F9120BFAFF1235BCE542154270023B
:0B353B00154114454170DE123B1322C5
:103843008F34E4F535123A677FCC1235BC200C1463
:10385300AF341235BC123A677FCD1235BCD21E127B
:0A38630036308F35123B13AF3522CB
:103493008F2CE4F52DF52E123A677FCC1235BC2024
:1034A3000C22AF2C1235BC123A677FCD1235BCC249
:1034B3001E123630752D008F2ED21E123630EFFEBF
:0C34C300E4EE422D123B13AE2DAF2E2282
:103149008E388F398B3A8A3B893CD3E5399401E52E
:103159003894004008E539153970021538C21E1235
:103169003630AB3A053CE53CAA3B7002053B14F905
:10317900EF120C62E53915397002153814453870AB
:10318900DCD21E123630AB3AAA3BA93CEF120C62D4
:03319900023B13E3
:1037ED008F318B328A338934123A677FCC1235BCD4
:1037FD00AF311235BC123A677FCD1235BCAB32AA50
:0B380D0033A934AF36AE35123149222A
:103328008F308B318A328933123A677FCC1235BCA1
:10333800AF301235BC123A677FCD1235BCC21E12AF
:1033480036307536008F37D3E5379535E536953401
:103358004006853436853537AB31AA32A933AF37C5
:0A336800AE36123149AE36AF3722FF
:1035BC008F43754408C296E54330E704D2958002E8
:1035CC00C295123B6EE54325E0F543D296123B6E55
:1035DC00D544E2C296D295120006D296120006305D
:0A35EC009502D20CC29612000622CE
:10363000D295120006753E08D296E53D25E0F53D8F
:10364000309503433D01123B6EC296123B6ED53E50
:10365000E7201E04C2958002D295120006D296126F
:073660000006C296AF3D22F7
:103A6700D295D296120006C20C209502D20CC295AE
:063A7700120006C29622B7
:0D3B1300C295120006D296120006D295222D
:050006007F0ADFFE226D
:013B6E002234
:1021EA004B434D5F504F5745525F4F4E004B434D47
:1021FA005F524541445F495251204572726F7200E5
:10220A004B434D5F4952515F504C41595F535441C2
:10221A005445202530327800526573746F726541D7
:10222A002025303278202530327820253032780047
:10223A0053455420004B434D5F564F4C554D455F17
:10224A004354524C202564004B434D5F494E505530
:10225A00545F534F555243452025303278004B4343
:10226A004D5F4C495354454E5F4D4F4445202530F0
:10227A00327800417070436F6D6D616E6420253055
:10228A00327820253032782025303278000105084E
:10229A000064005E01E803E40C10270010111230FC
:1022AA00313233342021222400011011121300028A
:1022BA00030105070604191817161514131211003D
:0922CA00010203040506070809DE
:083B4B00E4900058F00239B2C9
:1039B2007D017F051239CD7F02123B699000597457
:0B39C20064F07BFF7A2179EA022C18E8
:101DE3008F24309403021EFB7F011238438F25ADED
:101DF300257F031239CD300C097BFF7A2179F70255
:101E03002C18E5255401D394004003121883E525CB
:101E13005402D39400404B7F1812384390004FEF85
:101E2300F07F1A123843900066EFF0900059E0708B
:101E3300082015057F07123B6990004FE0700312DD
:101E43003ABD122DE7123B7390004EE0FF6404602D
:101E530004EFB4050D7FA212349390002CEEF0A38F
:101E6300EFF0E5255408D39400400312169AE525B4
:101E73005404D3940040167F2F12384390002BEF65
:101E8300F090003BE0B438057F38123B69E52554F8
:101E930010D394004003123242E5255440D39400FA
:101EA30040247FA3123493900056EEF0A3EFF04E3C
:101EB300600F90003BE06401600C7F16123B698069
:101EC300057F15123B69E5255420D39400401D7FFF
:101ED300A5123843900029EFF07BFF7A22790AF5A7
:101EE3003A122C18900029E0FF1235F6E5255480AC
:091EF300D3940040031223A7223E
:101883007B007A00792A7535007536047F4012375C
:10189300ED300C05E4FF023B69E52A540390005840
:1018A300F0900068E52CF0A3E52DF0852B28AD28FA
:1018B3007F2012269A8F297BFF7A22792285283A64
:1018C30085293B852B3C122C18E529C39404400F32
:1018D300E529D39408500890004EE52BF08006903C
:1018E300004EE529F07F201238438F287B007A00D1
:1018F300792A7535007536027F811237ED90008E97
:10190300E52BF07F2F12384390002BEFF0E4F527FF
:10191300AD277F0912269A8F29E5292430FF123833
:10192300438F28AD287F3012269A74842529F582A7
:10193300E43400F583EFF00527E527C3940840D08E
:101943007F391238438F28E528540FFD7F3912263B
:101953009A900061EFF0E528C4540FFD7F391226F9
:101963009A900062EFF07F241238438F28AD287FCE
:101973002412269A7D507F2E1239CD7D467F251263
:1019830039CD7D467F261239CD752A12752B1275F6
:101993002C30752D307B007A00792A754100754211
:1019A300047F8012350B1229951222D37BFF7A22F2
:1019B300799775410075420E7F9012350BE49000C4
:1019C3004FF0900066F0900029F0C201C215C206E4
:1019D30090008CF0FF7E20121CC47F02123B6990A2
:1019E3000059740AF0123B73122DE77FFF1236CFB2
:1019F300900029E0FF1235F6900058E0FDE4FF1255
:031A030036672221
:102B9D007BFF7A22793A123732E4F527AD277F048D
:102BAD001238FC12000E7FFF123B427FFF123B4298
:102BBD000527E527C3946440E3752902E4F52A75DA
:102BCD002B09752C09FB7A007929F5417542047F93
:102BDD004012350B7D277F2F1239CDE4F527E527E0
:102BED002430FFE4FD1239CD0527E527C3940840B5
:102BFD00ED7DAB7F241239CD7D017F051239CD7F5F
:0B2C0D0002123B69900059741EF02277
:1023A7007B007A0079277534007535087F981233DA
:1023B700288F2FE52F6402600302246AE52724F89B
:1023C700607624E8602724F5604814605824FD608F
:1023D700030224587BFF7A22793F85283A122C186A
:1023E70090002BE528F07F38123B6980767BFF7AD7
:1023F70022795285283A122C18AD287F2012269A66
:1024070090004EEFF0123B63123B20E4FF123B6952
:1024170080517BFF7A22796885283A122C18AF28D9
:10242700122AA4803E7BFF7A22796885283A122CEB
:1024370018AF28123792802BA206E433FFE5285401
:1024470001B5071FE52830E21A90003B7438F08089
:10245700127BFF7A22797D852F3A85273B85283C99
:08246700122C187F010236CF90
:102D0600EF24F7601E24E5602824F9600F24FB6099
:102D16001924107059ED9022A593FF22ED9022B24E
:102D260093FF22ED9022B893FF22ED9022C093FFED
:102D360022E4F53890004AE0D3940040034338017A
:102D4600900048E0D394004003433802900049E0E5
:102D5600FF25E025E0423890004BE0FFC454F042E6
:102D660038A3E0FFC4333354C04238AF38227F0063
:012D7600223A
:10269A00E4FEEF24F7603D24E5606324F96020241A
:1026AA00FB60462410600302273BEE9022A593B5F7
:1026BA000503AF06220EEEC3940D40EE7F0022EE14
:1026CA009022B293B50503AF06220EEEC3940640DC
:1026DA00EE7F0122EE9022B893B50503AF06220ED3
:1026EA00EEC3940840EE7F0022EE9022C093B50517
:1026FA0003AF06220EEEC3941340EE7F0022ED30A4
:10270A00E1047F0180027F00900048EFF0ED13138F
:10271A005403A3F0ED30E0047F0180027F009000B3
:10272A004AEFF0EDC45403A3F0EDC413135403A30A
:04273A00F07F00220A
:103701008B3A8A3B893CEF6027AB3A053CE53CAA02
:103711003B7002053B14F9120BFAFEAB3D053FE588
:103721003FAA3E7002053E14F9EE120C621F80D6CC
:013731002275
:10200D006752656D6F766554696D65722025303246
:10201D0078004D656E7553656C6563744120253090
:10202D003278004D4B434D5F507265656D7074692C
:10203D00626C653A25642025642F256400536F7505
:10204D00726365573A253032782825303278292544
:10205D0030327828253032782900536F75726365D8
:10206D004A3A25303278206C6173743A25303278D3
:10207D00004B434D5F5352435F56414C49442045FD
:10208D00202564202564004B434D5F5352435F561A
:10209D00414C49443A2530327825303278204C6114
:1020AD0073743A2530327825303278006D494E50B0
:1020BD0055545F412025303278004B434D5F5352CC
:1020CD00435F56414C4944203D204C6173743A2581
:1020DD00303278253032780D0A00000102030020DD
:1020ED000040100040000100020004000405060835
:0320FD00090A0BC2
:013B6F002233
:10369D008F2490008CE0602904F0D394C840227FE1
:1036AD00411238438F257BFF7A20790D85253A12FB
:1036BD002C18E490003BF0AF2512337BE490008C86
:0236CD00F022E9
:1038DA008F32123B20D219E532600D753330300633
:1038EA000AC2064333028003753320AD337F0802D0
:0238FA0039CDC6
:10391E00AD07EDC394FF500E7F09122D06EF441034
:0E392E00FD7F090239CDE4FD7F091239CD225B
:103099008F358D36123B63E536601674842535F518
:1030A90082E43400F583E0C394125019E004F080FF
:1030B9001474842535F582E43400F583E0D3940053
:1030C9004003E014F0AD357F09122D068F37748463
:1030D9002535F582E43400F583E0FD7F30122D06B5
:0A30E900AD07E5372430FF0239CDB2
:0D3B2000301509C215E4FD7F091239CD22D0
:063B6300300602C206223A
:09337200F582E43400F583E0FF6C
:10337B008F27900077E0542CF0900076E054F8F013
:10338B00A3E054FBF0123B63123B2090003BE0FFA9
:10339B006003B401177BFF7A20791F85273A122C23
:1033AB001890004EE527F0FDFF122F857F01023BA1
:0133BB0069A8
:1032DC007BFF7A207930900027E0FF2433F582E4DD
:1032EC003400F583E0F53A8F3B90003CE0F53C125E
:1032FC002C1890003CE0601B900027E02433123324
:10330C007290003CE0FF900027E004F0C39F400B5C
:0C331C00E4F02290004EE0FF12337B2210
:102FE300E490003BF090005AE0FF601190003DE058
:102FF300FEC39F500874332E123372802090005A00
:10300300E0FF90003DE0C39FFFE49400FE74E72FD0
:10301300F58274203EF583E493FF12337B90005ACC
:10302300E02404FFE433FE90003DE004F0C39FEE90
:0B3033006480F87480984002E4F022F2
:102F85008F2C8D2DAD2C7F20122D06AD077F2012A5
:102F950039CDAD2C7F20122D06C007AD2D7F201217
:102FA5002D068F3DD03B7BFF7A20794A852C3A85CB
:102FB5002D3C122C18E52DD394035021AD2D7F20E7
:102FC500122D06AD077F411239CD7F201238438F70
:0E2FD5003B7BFF7A207967852C3A122C18225C
:101CC4008E2E8F2FE4F53090008EE0B45311AF3098
:101CD400053074332FF582E43400F5837407F0E59E
:101CE4002F452E7003021DB9E4F531E53125E024BA
:101CF400EBF582E43420F583E493F532740193F533
:101D040033E52E5532FEE52F55334E603DE5336401
:101D1400204532700C90002EE07002A3E070148015
:101D240029E53364404532700A90002EE07002A326
:101D3400E07017E5319020F993FFAE30053074332D
:101D44002EF582E43400F583EFF00531E5316407C4
:101D5400709990005AE06530600BE490003DF0907B
:101D6400005AE530F0E4F53190005AE0FFE531C364
:101D74009F501C74332531F582E43400F583E0FE72
:101D8400C394094006EED3940C4004053180D990E5
:101D9400003CE06531600BE4900027F090003CE5E6
:101DA40030F07BFF7A20797E90003CE0F53A8F3B5F
:101DB400122C18801F90003CE530F0E490005AF09B
:101DC400900027F090003DF090002EF0A3F09000DA
:0F1DD40052F0A3F0900093E52EF0A3E52FF0223C
:10169A007F1C1234938E278F28900093E0FCA3E0DE
:1016AA00FD65287003EC6527700302186DC21D7B67
:1016BA00FF7A207994E527F53B753A00F53C8528B1
:1016CA003DECF53F753E00F5408D41122C18E4F5CE
:1016DA0029E52925E024EBF582E43420F583E49317
:1016EA00F52A740193F52BE527552AFEE528552B93
:1016FA004E70030217B3900093E0552AFEA3E055FB
:10170A002B4E60030217B3D21DE52A7064E52B2421
:10171A00F9605C24C7602E242070567FA01234938F
:10172A0090002EEEF0A3EFF04E601174FF9000438C
:10173A00F0A3F0FDFC7FA41238B880357F0E123B6F
:10174A0069C21D802C7FA1123493900052EEF0A33F
:10175A00EFF04E601174FF900043F0A3F0FDFC7FA0
:10176A00A41238B8800B7F0F123B69C21D8002C2D7
:10177A001D301D41E5299020F993FF90004EE0FDB0
:10178A00122F85E5299020F99390004EF07BFF7A7D
:10179A002079B9F53A122C18E490003BF07F011237
:1017AA003B69E490008CF0800C0529E529C3940775
:1017BA0050030216DB301D03021866E4F529E529F9
:1017CA0025E024EBF582E43420F583E493F52A74CA
:1017DA000193F52BE527552AFEE528552B4E707007
:1017EA00900093E0552AFEA3E0552B4E6062E52B4C
:1017FA00852AF0120D5C18140020182600401838AB
:10180A001000183F400000001844E490002EF0A396
:10181A00F0FF1235F67F10123B69801EE4900052E9
:10182A00F0A3F0FF1235F67F11123B69800C7F128C
:10183A00123B6980057F13123B69E5299020F993D1
:10184A00FF90004EE0B5071490008C7401F0800CF4
:10185A000529E529C3940750030217C8AF28AE2704
:10186A00021CC47BFF7A2079C7E527F53B753A004D
:09187A00F53C85283D122C1822D2
:103AF4002052455345540001020400011020213096
:013B70002232
:100601008F24122B21900059E0D394004016300121
:1006110003020B03E5245402D394005003020B039D
:10062100E014F022300125301A0BC21A7867E6B4C3
:1006310059031239B2200703020B03C207D21478FF
:1006410072E664186003020B030239B22007030249
:1006510006D2C207D2147872E624F8602B24F76020
:100661002214601824FE600D24EC6038241070619F
:10067100122FE3805C7F0112319C8055E4FF12311F
:100681009C804E12386D804990003BE0FFC3943846
:10069100400DEFD3943F5007E4FF123B69803212C3
:1006A100393C802D90003BE0FFC394384006EFD3E6
:1006B100943A40077F38123B69801690003BE00472
:1006C100F0D3943A40037438F090003BE0FF123BC2
:1006D100697874E6600C06E6D3943C4005E4F6784C
:1006E10070F6201A03020ADDC21A7867E6120D3687
:1006F1000AD1000AD8030AB504088B0508B1060A15
:10070100BC070A9D080AA20B0A880C08450D083986
:100711000E0A0310086211083F120A0D130A6A1427
:10072100091D160A731707B71807A51908911A09A1
:10073100AB1B0ACA400AC3420AAE440885450AA750
:10074100460A96480A8F4A0A814C07BD4D0A7C4EDB
:1007510007FB510A615409CD550A5856078C5807B1
:100761006A5909895A00000ADDB2013001087F087F
:10077100123B69020ADD7D017F051239CD7F02122C
:100781003B69900059741EF0020ADD90003BE0B411
:1007910009047F0480027F008F25AD257F09121097
:1007A10032020ADD7BFF7A3A79F412373212000EF7
:1007B100122B9D020ADD123893020ADD90003BE004
:1007C100FFC3942E4012EFD39435500C7874760108
:1007D1007D04121032020ADD90003BE0FFC3942435
:1007E1005003020ADDEFD3942B4003020ADD787433
:1007F10076017D04121032020ADD90003BE0FFC356
:10080100942E4012EFD39435500C787476017D0309
:10081100121032020ADD90003BE0FFC39424500322
:10082100020ADDEFD3942B4003020ADD78747601CE
:0E0831007D03121032020ADD123A1B020ADDAC
:10083F00123A35020ADD7874760190003BE0B43845
:10084F00047F0480027F008F25AD257F3812103280
:10085F00020ADD300603020ADD7874760190003B50
:10086F00E0B438047F0380027F008F25AD257F38E9
:10087F00121032020ADD1239E7020ADD12393C0288
:10088F000ADD90003BE0FFC39446400EEFD3945037
:10089F005008E4FF123B69020ADD7F46123B6902F2
:1008AF000ADD90003BE0FFC394465003020ADDEFE0
:1008BF00D394504003020ADDE004F0E0B4480C90FA
:1008CF000049E0700690003BE004F090003BE0B47C
:1008DF00490C90004BE0700690003BE004F0900054
:1008EF003BE0B44A0C90004CE0700690003BE004F3
:1008FF00F090003BE0D3945040037446F090003BDF
:10090F00E0FF123B699000557432F0020ADD90004F
:10091F003BE0FFC394465003020ADDEFD3945040EF
:10092F0003020ADDE014F0E0B44A0C90004CE070D2
:10093F000690003BE014F090003BE0B4490C9000AF
:10094F004BE0700690003BE014F090003BE0B448A1
:10095F000C900049E0700690003BE014F090003BD3
:10096F00E0C3944650037450F090003BE0FF123BFD
:10097F00699000557432F0020ADD90003BE0FFC32E
:10098F0094465003020ADDEFD394504003020ADD70
:10099F00787476017D03121032020ADD90003BE07D
:1009AF00FFC394465003020ADDEFD3945040030275
:1009BF000ADD787476017D04121032020ADD900090
:1009CF003BE0FFC3942E4006EFD39435400B123B10
:1009DF00207F2E123B69020ADD90003BE024D2FFFC
:1009EF00122D778F26E526242EFF90003BF0123B29
:1009FF0069020ADD7D037FA51239CD020ADD900061
:100A0F004EE0FF64046008EF64056003020ADD90A6
:100A1F000029E05403F526B402137D017FA5123996
:100A2F00CD900029E054FCF04401F080117D027F4D
:100A3F00A51239CD900029E054FCF04402F090004B
:100A4F0029E0FF1235F6020ADD7D047FA61239CDAB
:100A5F00807C7D037FA61239CD80737D027FA61225
:100A6F0039CD806A7D017FA61239CD806112386D34
:100A7F00805C7F0B123B6980557F0C123B69804E67
:100A8F007F0112319C8047E4FF12319C8040123B62
:100A9F0071803B1232DC80367F0912337B802F7FCF
:100AAF000A12337B80287F0B12337B80217F0C123D
:100ABF00337B801A7F0112337B80137F0212337BCB
:100ACF00800C7F0312337B8005E4FF12337B301CD5
:100ADF0023C21C90003BE0FFC394384012EFD39425
:100AEF003A500C3012047D0480027D030210327FD5
:050AFF0038123B6922E2
:10393C00B2063006047F0480027F03AD077F0A12B3
:0E394C0010322006057F38123B69123B202204
:1039E700B21530150A7F24123B69E4FF02391EE441
:0A39F700FF123B697FFF12391E2208
:013B71002231
:102B2100786CE6FF7008C2A0D2A1D2A28012EFB4E5
:102B31000108D2A0C2A1D2A28006D2A0D2A1C2A273
:102B4100E4FE2082010E2083034306022084034316
:102B51000604208503430608EE602EEFC454F02ED0
:102B6100FE7872E6B50616900096E004F0D394085C
:102B71004029201402D207E4900096F022C214E406
:102B8100900096F07872A60622786C06E6D394023D
:0C2B91004002E4F6C214E4900096F0222A
:102C910020101830871030860D786B06E6D3940328
:102CA1004004E4F6D210C20AC20B22A28730860188
:102CB100B3503A301025A2869212A212301601B3F7
:102CC10050057869E67002D21CA2129216786976D4
:102CD10003E4786BF6C210C20B800F300B0A7869DF
:102CE1007603E4786BF6C210D20BC20A2220871455
:102CF100208611300A0A78697603E4786BF6C210EF
:052D0100D20AC20B2202
:10319C008F277F2B1238438F2890003BE0640370FD
:1031AC003D1238188F29E527600EE52970047F0140
:1031BC0080027F008F298018E529C3940250057581
:1031CC002902800C0529E529D394054003752902B1
:1031DC00E529903AFE93F528FD7F2B1239CDAF28C7
:0331EC00022AA410
:1014AF004B434D2D4E4F00202D4F46462D002048CB
:1014BF00454C4C4F004D5554452020004D5554453B
:1014CF002D2D00564F4C20202000564F4C20004E03
:1014DF004F49534520004652535020004345535027
:1014EF002000535753502000535253502000424B6B
:1014FF00535020004C504620004C49505300465248
:10150F00444C20004345444C20005357444C20008A
:10151F00424B444C2000536F757263653A2025305F
:10152F0032782025303278002020202020200050D3
:10153F00434D00322F34004E49472D4F4E004E4938
:10154F00472D4F46004D5033002020004657444F43
:10155F004E4500465720457272004657202D0046D3
:10156F004C547443455474535754744652547453E3
:10157F0052547442525474424C5474534C54740029
:10158F00464C5472434554725357547246525472D8
:10159F005352547242525472424C5472534C5472BE
:1015AF00004155582D494E4F5054494341434F41E7
:1015BF002D4431434F412D4432202D53442D2020B3
:1015CF002D5553422D202D50432D20204538434873
:1015DF00202D42542D202048444D492D3148444D53
:1015EF00492D3248444D492D3348444D492D410032
:1015FF0020204849464920322B3143484D4F44451E
:10160F0020200020464C415420534F554E4420007B
:10161F00322F30312F30322F30332F30322F3133B2
:10162F002F31322F32332F32332F33332F34322F98
:10163F0033322F340053442D494E2055442D494EFB
:10164F002053442D4F555455442D4F555450432D31
:10165F004F555442542D4F555448442D4F55540017
:10166F0033324B34384B35364B36344B38304B39AD
:10167F00364B313132313238313630313932323214
:0B168F0034323536333230333834004B
:103AE300E4FDFF123667E4FF123995E4900030F0ED
:013AF30022B0
:102532008F24300F05C20F12000EE5245402D394EB
:102542000050030225F2900030E0601514F070078D
:102552007F011236CF800A900030E05401FF12361C
:10256200CF900059E0D3940040030225F230060BCD
:10257200900055E070057F0A123B692001589000D7
:1025820055E0605214F07024201506FF123B69805A
:102592004590003BE024DCFF122D778F25E52524B2
:1025A20024FF123B69AF2512391E802A3000279082
:1025B2000055E0FF75F00584E5F0701AEF75F0053F
:1025C20084F52590003BE0FFE52530E0047D0280A4
:1025D200027D01121032200117200614201511303D
:1025E200050E90004FE0540FC39400400312303E9A
:0125F20022C6
:053B6900E4FD02103232
:093B39009000557414F0C2002242
:083B530090003BEFF0023B394A
:101032008F308D31E5317003123B39C205C2A512E2
:101042003A01900076E0540FF0E530120D3610F3BD
:1010520000112401113602117A06118607112A089D
:10106200114B0911B10A118C0B11920C11980E112E
:10107200980F119810119811119812119813119834
:101082001411A31511A916125A24125A25125A26FE
:10109200125A27125A28125A29125A2A125A2B1253
:1010A200632E12632F1263301263311263321263A2
:1010B20033126334126335120D38126F39126F3ADC
:1010C200126F3B126F3C126F3D126F3E126F3F1256
:1010D200874612874712874812874912874A127B2E
:1010E2004B127B4C127B4D127B4E127B4F00001237
:1010F20091200C1790004EE0FF64046004EFB405E9
:101102000512246F800E1233BC80097BFF7A14799A
:10111200AF123732E490003BF0900055F0D2050256
:1011220012911233BC0212917BFF7A1479B61237F4
:10113200320212917BFF7A1479BD12373212000EFD
:10114200900055740AF0021291E531B4041D90002A
:10115200557414F0900058E004F0D394024002E475
:10116200F0900058E0FD7F401239CD900058E0FD2C
:101172007F011236670212919000557432F0123BD1
:10118200720212911225F302129112354602129145
:1011920012344F021291E53024F2FF123A4F02123A
:1011A200911230F302129112246FD205021291E5CC
:1011B200316003B404089000557450F0D200E53158
:1011C200C394024005E531B4040B7BFF7A1479C461
:1011D200123732800EE531B402097BFF7A1479CBE3
:1011E200123732E531B4040A7D037F081239CD0289
:0211F200129158
:1011F400E531640360030212919000557414F07D8C
:10120400027F081239CD021291E531C394034015CF
:1012140090003BE0B4380EE531B404047F01800251
:101224007F001238DAE531B4020B7BFF7A1479D2ED
:1012340012373280587BFF7A1479D91237329000F2
:101244002BE0FD7F041238FCE531704190005574A9
:1012540050F0D2008037AD31AF30122EBE802E1246
:101264003B20AD31AF301228718022123B20AD31CA
:10127400AF301229098016123B20AD31AF30121A5B
:1012840006800A123B20AD31AF3012210090003BA2
:04129400E530F0222F
:10344F007F091238438F3230151390003BE0B40CD4
:10345F000C0532E532D394074003E4F532AD327FE9
:10346F00091239CD7BFF7A1479DE123732E5322417
:10347F0031FD7F05120DB8301509E4900031F0FFD2
:04348F0012391E22AE
:102D7700EFB407005067902D84F8282873022D9927
:102D8700022DAE022DBA022DBD022DD2022DDE027A
:102D97002DE1900049E060037F012290004AE06046
:102DA700037F02227F032290004AE060037F022212
:102DB7007F03227F032290004BE060037F04229071
:102DC700004CE060037F05227F002290004CE0600A
:102DD700037F05227F00227F06227F07227F0022B2
:102EBE008F328D33E533C39403401E90003BE0B553
:102ECE00321724DCFFE533B404047D0180027D005B
:102EDE001230999000557450F074DC2532F532752D
:102EEE00F004A4246EF9741535F0FA7BFF12373214
:102EFE00E533B4020E7D207F04120DB87D207F05D0
:102F0E00020DB874842532F582E43400F583E0FFB7
:062F1E001237C0D20022B0
:102871008F328D33E533C39403401E90003BE0B5A6
:10288100321724D2FFE533B404047D0180027D00B8
:102891001230999000557450F074D22532F532758A
:1028A100F004A4248FF9741535F0FA7BFF12373246
:1028B100E533B4020E7D207F04120DB87D207F0523
:1028C100020DB874842532F582E43400F583E0F515
:1028D10034C3940950147D2D7F04120DB8C374398B
:1028E1009534FD7F05120DB880117D207F04120DF6
:1028F100B8E5342427FD7F05120DB8E53370089043
:0829010000557450F0D20022D1
:101A06008F328D33900076E04450F0A3E0F09000E2
:101A1600557450F07D207F04120DB87D207F05128D
:101A26000DB8E53224B46056147003021ABB147064
:101A360003021AF2147003021B29147003021B60BE
:101A460024056003021B697BFF7A1479E51237329D
:101A5600E533C39403401B900048E004F0D394019F
:101A66004002E4F0E4FD7F24122D06AD077F241228
:101A760039CDE4FF1234CFAD077F05020DB87BFFE9
:101A86007A1479EB123732E533C39403401B900086
:101A960049E004F0D394024002E4F0E4FD7F24120E
:101AA6002D06AD077F241239CD7F011234CFAD0745
:101AB6007F05020DB87BFF7A1479F1123732E533D0
:101AC600C39403401B90004AE004F0D39401400203
:101AD600E4F0E4FD7F24122D06AD077F241239CDF4
:101AE6007F021234CFAD077F05020DB87BFF7A1453
:101AF60079F7123732E533C39403401B90004BE06D
:101B060004F0D394024002E4F0E4FD7F24122D0693
:101B1600AD077F241239CD7F031234CFAD077F0581
:101B2600020DB87BFF7A1479FD123732E533C39480
:101B360003401B90004CE004F0D394024002E4F012
:101B4600E4FD7F24122D06AD077F241239CD7F04D4
:101B56001234CFAD077F05020DB87BFF7A157903E6
:041B660012373222DE
:102100008F328D33E53224B9603A14605A14607A04
:102110001470030221AD240460030221CE900076E6
:10212000E04440F0A3E0F07BFF7A157908123732E3
:10213000E533C3940350030221CEAD33E4FF122EE6
:10214000540221CE7BFF7A15790D1237329000763A
:10215000E04450F0A3E0F0E533C394034070AD33A6
:102160007F01122E5480677BFF7A15791312373264
:10217000900076E04450F0A3E0F0E533C3940340D0
:102180004DAD337F02122E5480447BFF7A157919AE
:10219000123732900076E04450F0A3E0F0E533C30C
:1021A0009403402AAD337F03122E5480217BFF7AA3
:1021B00015791F123732900076E04450F0A3E0F01A
:1021C000E533C394034007AD337F04122E549000CF
:1021D000557432F074F82532F582E434FFF583E06B
:0A21E00075F005A4FD7F040238FC31
:1033BC0090004EE0FFC39404400FEFD394085009E3
:1033CC00900077E04420F08007900077E054DFF025
:1033DC007BFF7A1579258F3A900076E0F53BA3E0D8
:1033EC00F53C122C1890004EE075F006A424B0F9B0
:0A33FC00741535F0FA7BFF0237323A
:013B72002230
:10381800AE07EE543024F0601224F06011242070BA
:1038280017EE30E0037F01227F00227F0222EE3074
:0B383800E0037F04227F03227F0522B3
:102AA4008F301238188F31900077E0542CF0E531D4
:102AB400C39402501BEF75F006A424FFF974153576
:102AC400F0FA7BFF123732900077E04401F0804542
:102AD4007BFF7A16790B123732E531242FFD7F05FF
:102AE400120DB8E53024FD601314601914601F241E
:102AF400037022900077E04402F08019900077E0A0
:102B04004480F08010900077E04440F0800790000B
:0D2B140077E04410F0123B397F03023B5381
:103792008F30E53060067E007F0680047E007F0069
:1037A20074122FF974163EFA7BFF123732E530603D
:0E37B200082430FD7F05120DB87F05023B5341
:1025F30090004FE0FF540FC394025003022696E469
:10260300F536EFC4540F75F003A4F5327BFF7A154A
:102613007937123732122DE790004FE0540F24FD23
:10262300602414604314604024FE605E24F7601647
:1026330014601324FD24FD502F241570597BFF7A59
:1026430015793E023732741F2532F9E43416FA7BCA
:10265300FF753D00753E00753F337F031237017BE5
:10266300007A007933023732741F2532F9E43416C5
:10267300FA7BFF753D00753E00753F337F031237CC
:10268300017B007A0079330237327BFF7A15794276
:072693000237321233BC22B2
:1034CF00AE07EE700C900048E060037F4C227F53F4
:1034DF0022BE020C90004AE060037F59227F4E22E9
:1034EF0074482EF582E43400F583E0FDB402037FC7
:0C34FF004C22EDB401037F53227F4E22CB
:103546007F231238438F3290003BE0B40B16E532EE
:10355600C3943250057532328003E4F532AD327FC2
:10356600231239CDE53260097BFF7A157946023799
:0B357600327BFF7A15794D12373222AC
:103A4F009000557432F0EF75F006A42444F9741603
:083A5F0035F0FA7BFF0237325B
:1030F3009000557414F0900076E054BFF07BFF7A93
:10310300157937123732900044E02401FD900043D3
:10311300E03400FCE4FF1227D88F3905397D2F12E4
:103123000DB890004EE0B4040D90002EE0FEA3E035
:10313300FFAC06FD800B900052E0FEA3E0FFAC065F
:06314300FDAF390227D8A0
:10246F00C3900057E09403900056E094005003028D
:10247F0030F3C3900057E09405900056E09400505D
:10248F0064900066E0FF131313541FF53290004F52
:10249F00E0540F640A704E9000557414F0E532D377
:1024AF0094004041E5329410503B753D00753E005D
:1024BF00753F337BFF7A1579547F03123701E5326D
:1024CF0075F003A4246CF9741635F0FA7BFF753D93
:1024DF0000753E00753F367F031237017B007A008F
:1024EF0079330237327BFF7A1579581237329000E1
:1024FF0056E0FEA3E0FF7C007D3C120C96AD077FFB
:10250F00021238FC900056E0FEA3E0FF7C007D3CF9
:10251F00120C967F041238FC900076E04440F0A332
:03252F00E0F022B7
:102E5400EF70047C0180027C00EC14601114601299
:102E6400146013146014240470127E13800E7E09FF
:102E7400800A7E0980067E0980027E09BD042474CE
:102E84003E2FF582E43400F583E0D39E4002EEF059
:102E9400743E2FF582E43400F583E0C39E501AE0BB
:102EA40004F022BD0313743E2FF582E43400F5834D
:0A2EB400E0D394004003E014F02284
:103242007B007A0079277535007536027F81123747
:10325200EDE527B4640B7BFF7A15795B1237328078
:1032620020E527B4680B7BFF7A157962123732802A
:10327200107BFF7A157969123732AD277F04123835
:0D328200FC7F0D123B53900055743CF02270
:1037C0008F35E535C3940950127D2D7F04120DB855
:1037D000C374399535FD7F05020DB87D207F041235
:0D37E0000DB8E5352427FD7F05120DB82238
:10397800EF600C120BFAC39D50127401020C401236
:0D3988000BFAD39400400574FF120C40228E
:102F24004252494748000002070000243F000600BF
:102F3400DB00CF00E600ED00FD000700FF00EF001E
:102F4400F7128F0039120F00F900F100BD00F612DC
:102F540009001E0C70003805360936003F00F308DE
:102F64003F08F300ED1201003E243028362D000006
:102F7400EE240900C0240012C00010181C1C1E1EE0
:012F84001F2D
:10340600C2A5C2937F01123B427F40123A7D7F01E3
:10341600123B42D2937F01123B42C2937F01123B81
:10342600427FC0123A7D7F01123B42E4F524E4FF5D
:10343600123A7D7F01123B420524E524C3941040D5
:09344600ED7F0A123B42D29322F1
:103667008D32EFD3940040137BFF7A2F79241237E2
:1036770032E5322431FD7F05120DB8C2937F011266
:103687003B42E532902F2A934488FF123A7D7F010F
:06369700123B42D2932217
:013B7300222F
:102DE700900076E054F8F0A3E054FBF090004FE039
:102DF700540F24FD603514603B14603824FE604096
:102E070024F7602714602424FD24FD50272415701F
:102E17003990008EE0FF64536030EF6456602B906A
:102E27000076E04404F0A3E0F0801F900077E044D0
:102E370004F08016900076E04401F0A3E0F0800AE9
:0D2E4700900076E04404F0A3E0F0D20F22EA
:1035F600EF5403FE900079E054F0F0BE0106E0447B
:1036060008F0800ABF0207900079E04404F0EF5406
:10361600C0FE6013BEC009900079E04401F0800747
:0A362600900079E04402F0D20F2278
:1036CF008F30E530B4FF117F1F123843EF30E7041E
:1036DF007F0180027F008F30E530600C900076E034
:1036EF004408F0A3E0F08007900076E054F7F0D2A2
:0236FF000F2298
:103732008B3A8A3B893CE4F53EAB3A053CE53CAA30
:103742003B7002053B14F9120BFAF53D6012AD3DD8
:10375200AF3E120DB8053EC3E53E6480948640D963
:013762002244
:1027D8008F3A8C3B8D3CAE3BAF3C7C277D10120C76
:1027E80096EF4E6012120DB0AE3BAF3C7C277D10C9
:1027F800120C968C3B8D3CAE3BAF3C7C037DE812C3
:102808000C96EF4E6012120DB0AE3BAF3C7C037DD0
:10281800E8120C968C3B8D3CAE3BAF3C7C007D6453
:10282800120C96EF4E6012120DB0AE3BAF3C7C001E
:102838007D64120C968C3B8D3CAE3BAF3C7C007D9E
:102848000A120C96EF4E6012120DB0AE3BAF3C7CF4
:10285800007D0A120C968C3B8D3CAF3A053AE53C5C
:092868002430FD120DB8AF3A2234
:1038FC008F398D3AE53A75F00A842430FD120DB8F3
:10390C00E53904FFE53A75F00A84E5F02430FD0250
:02391C000DB8E4
:080DB000EF2430FDAF3A053AD3
:100DB8008F3F8D40E53FC394034003020E83E54017
:100DC800C394304012E540D39439500B74D0254079
:100DD800F54004F541804CE540C39461400FE5407F
:100DE800D3947A5008E54024AAF5418036E540C3FB
:100DF8009441400FE540D3945A5008E54024CAF581
:100E0800418020E54024D5601224FC60092402704A
:100E18000F754125800D754126800875412780038F
:100E2800E4F541E54125E0242DF582E4342FF583EE
:100E3800E493FEE53F25E0246AF582E43400F58377
:100E4800EEF0A3E4F0E53F25E0246AF582E43400FF
:100E5800F583C083C082E0FEA3E0FFE54125E024DE
:100E68002EF582E4342FF583E493FDEEEF4DFFD0A9
:100E780082D083EEF0A3EFF002102FE53FC3940673
:100E88004003020FB9E540C394304066E540D3946F
:100E980039505F74D02540F54004F54125E0242DF4
:100EA800F582E4342FF583E493FEE53F25E0246AD8
:100EB800F582E43400F583EEF0A3E4F0E53F25E0A5
:100EC800246AF582E43400F583C083C082E0FEA37F
:100ED800E0FFE54125E0242EF582E4342FF583E494
:100EE80093FDEEEF4DFFD082D083EEF0A3EFF0023A
:100EF800102FE540120D360F422D0F47410F4C427F
:100F08000F51430F56440F5B450F60460F65470F5F
:100F18006F480F6A490F744C0F794E0F7E4F0F833D
:100F2800500F88520F8D530F92540F97550F9C599D
:100F38000F88720F927400000FA17540C0805D7514
:100F480040F7805875407C8053754039804E754015
:100F5800DE80497540F980447540F1803F7540EF67
:100F6800803A75400680357540F680307540388087
:100F78002B754037802675403F80217540F3801CD3
:100F880075405080177540ED80127540F8800D75DA
:100F9800403E800875406E8003E4F540E53F25E05B
:100FA800246AF582E43400F583E4F0A3E540F08098
:100FB80076E53FD39406401AE53F940D5014E5407A
:100FC800C39401400DE540D394055006E54024261E
:100FD800F541E54125E0242DF582E4342FF583E43D
:100FE80093FEE53F25E0246AF582E43400F583EEBC
:100FF800F0A3E4F0E53F25E0246AF582E43400F547
:1010080083C083C082E0FEA3E0FFE54125E0242EF3
:10101800F582E4342FF583E493FDEEEF4DFFD082A3
:0A102800D083EEF0A3EFF0D20F2208
:103A0100E4FFEF25E0247AF582E43400F583E4F065
:0A3A1100A3F00FEFC3940540E92273
:063B0400131313541FFF10
:093B0A00EF5407902F7D93FF2278
:10303E007B007A0079277535007536037F9112373C
:10304E00ED300C03023A01AF27123B0A90007AE4EE
:10305E00F0A3EFF0E527123B0490007CE4F0A3EF21
:10306E00F0AF28123B0A90007EE4F0A3EFF0E528C3
:10307E00123B04900080E4F0A3EFF0AF29123B0A5C
:0B308E00900082E4F0A3EFF0D20F22CC
:103ABD00E4FFE490007AF0A3F00FEFC3940540F219
:033ACD00D20F22F3
:10399500E4FEEFFDEE25E0246AF582E43400F583CC
:0D39A500E4F0A3EDF00EEEC3940D40E62219
:10000E00E4FF74062FF582E43400F583E4F00FEF7D
:10001E00C3941040ED90006AE0FEA3E0FF30E007CD
:10002E00900014E04408F0EF30E10790000DE0443A
:10003E0008F0EF30E207900006E04408F090006B05
:10004E00E030E307900009E04408F090006AE0FE1B
:10005E00A3E0FF30E407900011E04408F0EF30E534
:10006E0007900015E04408F0EF30E60790000FE02F
:10007E004408F090006BE030E70790000CE0440875
:10008E00F090006AE0FEA3E0FFEE30E00790001370
:10009E00E04408F0EE30E107900012E04408F0EE84
:1000AE0030E20790000BE04408F090006AE0A330C5
:1000BE00E307900007E04408F090006AE0FEA3E03A
:1000CE00FFEE30E407900008E04408F0EE30E5075C
:1000DE0090000EE04408F090006CE0FEA3E0FF30CC
:1000EE00E007900014E04420F0EF30E10790000D9F
:1000FE00E04420F0EF30E207900006E04420F0905C
:10010E00006DE030E307900009E04420F090006CB1
:10011E00E0FEA3E0FF30E407900011E04420F0EF92
:10012E0030E507900015E04420F0EF30E607900030
:10013E000FE04420F090006DE030E70790000CE0F7
:10014E004420F090006CE0FEA3E0FFEE30E007905C
:10015E000013E04420F0EE30E107900012E044205E
:10016E00F0EE30E20790000BE04420F090006CE0DF
:10017E00A330E307900007E04420F090006CE0FE0F
:10018E00A3E0FFEE30E407900008E04420F0EE30EC
:10019E00E50790000EE04420F090006EE0FEA3E034
:1001AE00FF30E007900014E04410F0EF30E10790CC
:1001BE00000DE04410F0EF30E207900006E044102E
:1001CE00F090006FE030E307900009E04410F090EB
:1001DE00006EE0FEA3E0FF30E407900011E0441053
:1001EE00F0EF30E507900015E04410F0EF30E60731
:1001FE0090000FE04410F090006FE030E7079000A1
:10020E000CE04410F090006EE0FEA3E0FFEE30E054
:10021E0007900013E04410F0EE30E107900012E07A
:10022E004410F0EE30E20790000BE04410F0900026
:10023E006EE0A330E307900007E04410F090006EEC
:10024E00E0FEA3E0FFEE30E407900008E04410F07B
:10025E00EE30E50790000EE04410F0900070E0FEE6
:10026E00A3E0FF30E007900014E04404F0EF30E12B
:10027E000790000DE04404F0EF30E207900006E036
:10028E004404F0900071E030E307900009E044046C
:10029E00F0900070E0FEA3E0FF30E407900011E064
:1002AE004404F0EF30E507900015E04404F0EF3021
:1002BE00E60790000FE04404F0900072E0FEA3E029
:1002CE00FF30E007900014E04480F0EF30E107903B
:1002DE00000DE04480F0EF30E207900006E044802D
:1002EE00F0900073E030E307900009E04480F09056
:1002FE000072E0FEA3E0FF30E407900011E04480BE
:10030E00F0EF30E507900015E04480F0EF30E6079F
:10031E0090000FE04480F0900074E0FEA3E0FF3008
:10032E00E007900014E04402F0EF30E10790000D7A
:10033E00E04402F0EF30E207900006E04402F09055
:10034E000075E030E307900009E04402F09000747D
:10035E00E0FEA3E0FF30E407900011E04402F0EF6E
:10036E0030E507900015E04402F0EF30E60790000C
:10037E000FE04402F0900076E0FEA3E0FF30E007CD
:10038E00900014E04401F0EF30E10790000DE044DE
:10039E0001F0EF30E207900006E04401F0900077A4
:1003AE00E030E307900009E04401F0900076E0FEB3
:1003BE00A3E0FF30E407900011E04401F0EF30E5D8
:1003CE0007900015E04401F0EF30E60790000FE0D3
:1003DE004401F0900077E030E70790000CE0440114
:0403EE00F090007615
:1003F200E0FEA3E0FFEE30E007900013E04401F0DE
:10040200EE30E107900012E04401F0EE30E2079096
:10041200000BE04401F0900076E0A330E307900087
:1004220007E04401F0900076E0FEA3E0FFEE30E446
:1004320007900010E04420F0EE30E507900010E055
:100442004410F0EE30E607900010E04404F0900013
:1004520078E0FEA3E0FF30E00790000BE04404F0F8
:10046200EF30E107900012E04404F0EF30E2079031
:100472000013E04404F0900079E030E30790000CB0
:10048200E04404F090007AE0FEA3E0FF30E0079041
:100492000007E04480F0EF30E10790000BE0448079
:1004A200F0EF30E207900012E04480F090007BE031
:1004B20030E307900013E04480F090007BE030E4EA
:1004C2000790000CE04480F090007CE0FEA3E0FF87
:1004D20030E00790000BE04402F0EF30E1079000BB
:1004E20012E04402F0EF30E207900013E04402F021
:1004F20090007DE030E30790000CE04402F09000B1
:100502007EE0FEA3E0FF30E007900011E04440F0FF
:10051200EF30E107900009E04440F0EF30E207904D
:100522000006E04440F090007FE030E30790000DC9
:10053200E04440F090007FE030E407900014E04493
:1005420040F0900080E0FEA3E0FF30E0079000134F
:10055200E04440F0EF30E10790000CE04440F0EF5F
:1005620030E20790000FE04440F0900081E030E379
:1005720007900015E04440F0900082E0FEA3E0FF07
:1005820030E00790000EE04440F0EF30E1079000C9
:1005920008E04440F0EF30E207900007E04440F00A
:1005A200900083E030E30790000BE04440F09000BD
:1005B20083E030E407900012E04440F0C2937F01F0
:1005C200123B427F40123A7D7F01123B42D2937F1F
:1005D20001123B42C2937F01123B427FC0123A7D1D
:1005E200E4F53274062532F582E43400F583E0FF47
:0F05F200123A7D0532E532C3941040E7D29322CE
:103A7D007E08C290EF139291EFC313FFD2901EEE0A
:063A8D00D3940050ED226D
:1031EF000305C26806230031520075000000802FCE
:1031FF0080005C00000F80002C00805A80000800C7
:10320F0000588000320000060080258000B40000C6
:10321F000D01999FFF004D4943314D4943324543BD
:10322F00484F5245505444454C594D4241534D54CB
:03323F00524500F5
:10299500E4F52F78317C007D007BFF7A3179EF7E7D
:1029A500007F04120BD4E52F04F5307B007A007903
:1029B500307541007542057F8B12350B78317C00EF
:1029C5007D007BFF7A3179F37E007F09120BD4E419
:1029D500FF74312FF8E6FEE52F75F009A424FCF508
:1029E50082E43431F583E5822FF582E43583F5837E
:1029F500E4934EF60FBF09D9E52F04F5307B007A35
:102A050000793075410075420A7F8C12350B052F10
:0B2A1500E52FC3940350030229982210
:10386D007F2C1238438F2790003BE0B405130527BA
:10387D00E527D394034003E4F527AD277F2C1239B8
:06388D00CDAF27023792C7
:1022D300900068E0D3941240037409F0900069E021
:1022E300D3941240037409F07F391238438F2EE5DB
:1022F3002ED394004003D38001C3920EE52EC45421
:102303000F900061F0E52E540FA3F0900061E0D32D
:10231300940940037402F0900062E0D394094003EF
:102323007402F07F3A1238438F2EE52EC4540F9077
:102333000065F0D3940940037402F0E52E540F9026
:102343000063F0D3940940037402F07F3B123843D7
:102353008F2EE52E540F900064F0D394094003743C
:1023630002F07D887F381239CD7BFF7A3279207570
:1023730041007542057F8D12350B752F0478307C33
:10238300007D007BFF7A3179EF7E007F04120BD44E
:102393007B007A00792F7541007542057F8B1235DA
:0423A3000B02328F68
:1038930090003BE0C3943950057F39023B699000A7
:1038A3003BE004F0D3943F40037439F090003BE0D5
:0538B300FF123B692239
:103A1B0090003BE0FFC39439400FEFD3943F500924
:0A3A2B00787476017D041210322237
:103A350090003BE0FFC39439400FEFD3943F50090A
:0A3A4500787476017D03121032221E
:102909008F328D33E533C39403401D90003BE0B50E
:102919003216E533B404047D0180027D00AF321222
:10292900273E9000557450F0E53224C7F53475F010
:1029390004A42425F9743235F0FA7BFF1237327D6D
:10294900207F04120DB8E533B402077D207F05020C
:102959000DB8E532C3943E501674612534F582E40E
:102969003400F583E02430FD7F05120DB880107422
:102979002A2532F582E43400F583E0FF1237C0E5F9
:0C2989003370089000557450F0D200220A
:10376300AB07EBC394095015430580EBFFC3740902
:103773009FFFE49400EFFEE4EE4204800DEB24F798
:0F378300FFE434FFEFFEE4EE4204AE04AF052294
:10273E008F358D36123B63E535C3943E505D74285C
:10274E002535F9E43400FA7B017D09AF361239786C
:10275E00E53524C6600D14601C14602D146016241B
:10276E00047066900061E0FFC454F0FFA3E04FFDDB
:10277E007F390239CD900065E0FFC454F0FF900020
:10278E0063E04FFD7F3A0239CD7F08EFC454F0FF6E
:10279E00900064E04FFD7F3B0239CD742A2535F958
:1027AE00E43400FA7B017D12AF3612397812328F83
:1027BE00E535B43E0A900068E0FD7F420239CD90C7
:0A27CE000069E0FD7F431239CD22BF
:10328F00900068E0FF7D237C001237638E3B8F3CFC
:10329F00A3E0FF7D617C00123763753704E53CF5D1
:1032AF0038AD07EDF539EEC4F854F0C868EFC454E3
:1032BF000F4854F0FDE53B540F4DF53A7B007A0073
:0D32CF0079377541007542047F8C02350B84
:10395A00AE0753050FEDC3940A5006ED2430FFFD60
:0E396A0022EE6005ED2457FF22ED2437FF22E8
:101B6A008F5E8D5F8B60E55F701FE560701BAB61F8
:101B7A00AA62A9637430120C62AB61AA62A963906B
:101B8A000001E4120C747F0122E4F564FCE55E6452
:101B9A00646009E55E64756003021C46E56075F0E1
:101BAA006484F565601AFDE4FF12395AAB61AA62D2
:101BBA00A963AE040C8E82758300EF120C74801830
:101BCA00E55FB40313AB61AA62A963AF040C8F8209
:101BDA007583007430120C74E56075F0648485F0C6
:101BEA0065E56575F00A84FD6019E4FF12395AABA0
:101BFA0061AA62A963AE040C8E82758300EF120C8F
:101C0A00748018E55FB40213AB61AA62A963AF04DA
:101C1A000C8F827583007430120C74E56575F00AB6
:101C2A0084ADF0E4FF12395AAB61AA62A963AE042B
:101C3A000C8E82758300EF120C74806CE56054F090
:101C4A006028E55EB458047F0180027F00E560C425
:101C5A00540FFD12395AAB61AA62A963AE040C8E05
:101C6A0082758300EF120C74801CC3E55F64809454
:101C7A00824013AB61AA62A963AF040C8F82758399
:101C8A00007430120C74E55EB458047F0180027F40
:101C9A0000AD6012395AAB61AA62A963AE040C8E18
:101CAA0082758300EF120C74AB61AA62A9638C82FD
:0A1CBA00758300E4120C74AF0422DD
:101298008B4C8A4D894EE4F555F556AB4FAA50A9AB
:1012A80051AF55EF3395E08F82F583120C13FE642E
:1012B800256041D3E5566480949E4003AF5622EEE4
:1012C8007003AF5622AB4FAA50A951AF550555EF41
:1012D8003395E08F82F583120C13FFAB4CAA4DA90E
:1012E8004EAE560556EEFD3395E08D82F583EF122E
:1012F8000C7480A7AF55EF3395E08F82F583A3ABCD
:101308004FAA50A951120C13F55B6473706BAB5262
:10131800E554F92403F554E553FA3400F553120D56
:10132800168B588A59895A05550555E4F557AB580F
:10133800AA59A95AAF57EF3395E08F82F583120C5B
:101348001370030212A3C3E5566480949E400302FF
:1013580012A30557EF3395E08F82F583120C13FF24
:10136800AB4CAA4DA94EAE560556EEFD3395E08D11
:1013780082F583EF120C7480B5E55BB4251E055524
:101388000555AB4CAA4DA94EAF560556EF3395E01F
:101398008F82F5837425120C740212A3E55BB46383
:1013A8003205550555AB52E554F92402F554E55379
:1013B800FA3400F553120CEBFFAB4CAA4DA94EAE14
:1013C800560556EEFD3395E08D82F583EF120C74C9
:1013D8000212A3E4F55CF557AF55EF3395E0FEEF45
:1013E8002401FFE43EFEAD57ED3395E0FCED2FF50B
:1013F80082EC3EF583AB4FAA50A951120C13F55B52
:10140800C3648094B0401ED3E55B648094B95015E2
:10141800E55B24D0FFE55C75F00AA42FF55C055761
:10142800E557B403B3AF55EF3395E0FEEF2401FF62
:10143800E43EFEAD57ED3395E0FCEF2DFFEE3CFEAC
:10144800AB4FE5512FF9E5503EFA8B58F559895ABB
:10145800E55524022557F555120BFAFF249C600F19
:1014680024EF600B24FD6007242060030212A3AB65
:10147800520554E554AA537002055314F9120BFA95
:10148800F55DE556FD3395E0FCE54E2DF9E54D3C5F
:05149800854C61F562C6
:10149D008963AB5DAD5C121B6AEF2556F5560212E2
:0214AD00A32278
:103AA900E5151515700215141445146006ED120C70
:043AB9006280ED2218
:103A9300E50F150F7002150E14450E6008120BFA90
:063AA300120C6280EB2210
:083B5B00C2998F993099FD22F7
:102C18008B378A388939754900754A00754B3A8B64
:102C28004F8A508951854952854A53854B547B01B7
:102C38007A007997121298AE070EEFFD3395E0FCF3
:102C480074972DF58274003CF583740DF0AF060E71
:102C5800EFFD3395E0FC74972DF58274003CF58305
:102C6800740AF0E4FDC3EE6480F8ED6480985018AF
:102C7800EDFB3395E0FA74972BF58274003AF583EF
:092C8800E0FF123B5B0D80DD2230
:10358100123AD0123406123AE3123B70123B6F1218
:103591003B4B7871E6FF5401D3940040F5121DE3D3
:1035A1007871E6FF1206017871E6FF122532787113
:0B35B100E6FF12369DE47871F680D72B
:103AD000758921758851759850758DFF438780755C
:033AE000A8832296
:093B4200EFD394034002DFFE22E0
:03000B00021EFCD6
:101EFC00C0E0C0F0C083C082C0D075D000C000C0AC
:101F0C0001C002C003C004C005C006C007758A60CA
:101F1C00758CFF786E06E675F00A84E5F0600302B6
:101F2C001FB5122C91786EE675F06484E5F0703B69
:101F3C00F678717601786A06E675F00A84E5F07039
:101F4C002A7871E64402F6786AE6FF75F03284E589
:101F5C00F070187871E64404F6EF75F06484E5F0DF
:101F6C007009786AF67871E64408F630053B900003
:101F7C002AE004F0D394134006E4F0D2A5802A9012
:101F8C000058E0FF700B90002AE0B40104C2A58059
:101F9C0018EFB4010B90002AE0B40404C2A5800928
:101FAC0090002AE0B40802C2A5786DE6603806E617
:101FBC00D3949F4031200824786FE6B4021E7874C5
:101FCC00E660197870E6FFC39408500EEF5403FFD7
:101FDC00BF0302D21A7870068002D21A786F76008C
:101FEC00C208786D7600D007D006D005D004D00397
:101FFC00D002D001D000D0D0D082D083D0F0D0E0AD
:01200C0032A1
:03000300022A20AE
:102A2000C0E0C0D075D000C000C006C00720086557
:102A3000786F06E6FFB4020C786DE6D394914055AA
:102A4000D20880517868E6FEC313F6786DE6D39419
:102A50001040067868E64480F6EF640A6004EFB43C
:102A60001A077868E618F6802CEFB412127868E638
:102A7000B4BF0418E6601E78747600D2088016EFA2
:102A8000B42212D21A787076007868E6F41866607C
:102A900004C21AD208786D7601D007D006D000D0D3
:042AA000D0D0E03280
:03000000023B2D93
:0C3B2D00787FE4F6D8FD758174023581C4
:100B0400E709F608DFFA8046E709F208DFFA803ED3
:100B140088828C83E709F0A3DFFA8032E309F608C0
:100B2400DFFA8078E309F208DFFA807088828C8328
:100B3400E309F0A3DFFA806489828A83E0A3F608DC
:100B4400DFFA805889828A83E0A3F208DFFA804CB6
:100B540080D280FA80C680D4806980F2803380108D
:100B640080A680EA809A80A880DA80E280CA8033F6
:100B740089828A83ECFAE493A3C8C582C8CCC5836E
:100B8400CCF0A3C8C582C8CCC583CCDFE9DEE7803E
:100B94000D89828A83E493A3F608DFF9ECFAA9F0BD
:100BA400EDFB2289828A83ECFAE0A3C8C582C8CC13
:100BB400C583CCF0A3C8C582C8CCC583CCDFEADE2C
:100BC400E880DB89828A83E493A3F208DFF980CC8E
:100BD40088F0EF60010E4E60C388F0ED2402B40487
:100BE4000050B9F582EB2402B4040050AF2323452E
:060BF4008223900B5473F4
:100BFA00BB010689828A83E0225002E722BBFE02F9
:090C0A00E32289828A83E493222B
:100C1300BB010CE58229F582E5833AF583E0225096
:100C230006E92582F8E622BBFE06E92582F8E222E0
:0D0C3300E58229F582E5833AF583E49322FA
:100C4000BB010989828A83F8E028F022500327F744
:100C500022BBFE05F8E328F3228A838982F8E49315
:020C6000282248
:100C6200BB010689828A83F0225002F722BBFE0171
:020C7200F3226B
:100C7400F8BB010DE58229F582E5833AF583E8F0B6
:100C8400225006E92582C8F622BBFE05E92582C862
:020C9400F2224A
:100C9600BC000BBE0029EF8DF084FFADF022E4CC42
:100CA600F875F008EF2FFFEE33FEEC33FCEE9DEC0B
:100CB600984005FCEE9DFE0FD5F0E9E4CEFD22ED51
:100CC600F8F5F0EE8420D21CFEADF075F008EF2F9B
:100CD600FFED33FD4007985006D5F0F222C398FD8C
:050CE6000FD5F0EA2229
:100CEB00BB010A89828A83E0F5F0A3E022500687D4
:100CFB00F009E71922BBFE07E3F5F009E319228996
:0B0D0B00828A83E493F5F074019322C8
:100D1600BB010789828A83020D925005E9F8020D0C
:100D260089BBFE05E9F8020D9B89828A83020DA420
:100D3600D083D082F8E4937012740193700DA3A34C
:100D460093F8740193F5828883E473740293686060
:060D5600EFA3A3A380DF60
:100D5C00D083D082F8E4937012740193700DA3A326
:100D6C0093F8740193F5828883E473740293B5F05D
:0D0D7C00067403936860E9A3A3A3A380D8C5
:090D8900E6FB08E6FA08E6F9228F
:090D9200E0FBA3E0FAA3E0F92262
:090D9B00E2FB08E2FA08E2F92289
:0C0DA400E493FB740193FA740293F922AB
:00000001FF
