:1037AD008F408D411238457FCC12341DAF401234FD
:0A37BD001DAF4112341D12387222B4
:103694008F2F8C308D311238457FCC12341DAF2FD3
:1036A40012341DAF3112341DE530FF12341D1238AF
:0236B400722280
:103325008F378C388D398B3A8A3B893C1238457FEB
:10333500CC12341DAF3712341DAB3A053CE53CAA1F
:103345003B7002053B14F91210B2FF12341DE5392A
:0F33550015397002153814453870DE123872229F
:10366A008F3AE4F53B1238457FCC12341D200C14F6
:10367A00AF3A12341D1238457FCD12341DD21C12B6
:0A368A0034CD8F3B123872AF3B22A3
:1033E1008F2FE4F530F5311238457FCC12341D2092
:1033F1000C22AF2F12341D1238457FCD12341DC25D
:103401001C1234CD7530008F31D21C1234CDEFFE39
:0C341100E4EE4230123872AE30AF3122CF
:102E1F008F378C388D398B3A8A3B893C1238457FF6
:102E2F00CC12341DAF3712341D1238457FCD1234FA
:102E3F001DD3E5399401E53894004008E53915397B
:102E4F0070021538C21C1234CDAB3A053CE53CAAD2
:102E5F003B7002053B14F9EF1210F8E53915397084
:102E6F0002153814453870DCD21C1234CDAB3AAA97
:0B2E7F003BA93CEF1210F81238722241
:10341D008F42754308C296E54230E704D29580028B
:10342D00C2951238BFE54225E0F542D2961238BF5B
:10343D00D543E2C296D295120006D296120006C26C
:0C344D000C309502D20CC2961200062230
:1034CD00D295120006753E08D296E53D25E0F53DF4
:1034DD00309503433D011238BFC2961238BFD53E19
:1034ED00E7201C04C2958002D295120006D29612D6
:0734FD000006C296AF3D225C
:0F384500D295D296120006C295120006C29622A4
:0D387200C295120006D296120006D29522D1
:050006007F0ADFFE226D
:0138BF0022E6
:102075004B434D5F504F5745525F4F4E0D0A004B36
:10208500434D5F524541445F495251204572726F3D
:10209500720D0A004B434D5F434C4541525F495217
:1020A5005120253032780D0A0053455420004D4B00
:1020B500434D5F48646D6952656D6F76653A256479
:1020C5000D0A004B434D5F5352435F56414C494403
:1020D5003A25303478204C6173743A253034780DC4
:1020E5000A004B434D5F5352435F56414C494420D0
:1020F5003D204C6173743A253034780D0A0003C5D0
:1021050000080006230031520075000000802F8072
:10211500005C00000F80002C00805A800008000041
:10212500588000320000060080258000B400000DB4
:102135000105080064005E01E803E40C10270010A7
:102145001112303120212224000110111213000236
:1021550003010507060419181716151413121100A3
:1021650001020304050607080903040506080A0F0A
:0D21750019326400020406080A0C0D0E0F5A
:0838AB00E4900051F00235A485
:1035A4007D017F051237ADE4FD7F02120E2A9000E3
:1035B400527464F0E4900048F090005FF0900006CC
:1035C400F0A3F090008B740AF07BFF7A20797502E7
:0235D400324182
:101B81008F24309403021CEF7F0112366A8F25AD3A
:101B9100257F031237AD300C097BFF7A207984024F
:101BA10032417BFF7A207999E4852545F544F54357
:101BB100F542123241E5255401D394004003121736
:101BC100F0E5255402D39400404C7F0612366A900A
:101BD1000048EFF07F0712366A90005FEFF0900047
:101BE10052E07009201406FD7F07120E2A9000486A
:101BF100E0700312381F122DB212302B900047E013
:101C0100FF64046004EFB4050D7F991233E1900085
:101C11002FEEF0A3EFF0E5255408D3940040031212
:101C21002436E5255404D3940040187F2F12366AD8
:101C310090002EEFF0900036E0B43807E4FD7F38D5
:101C4100120E2AE5255410D394004007E4FD7F0DC0
:101C5100120E2AE5255420D3940040667F121233D8
:101C6100E190004FEEF0A3EFF04E6009E4FD7F1329
:101C7100120E2A804D900047E0B4040A900031E032
:101C8100FEA3E0FF800890004BE0FEA3E0FF8E275B
:101C91008F2890003CE475F001121181FEC3E5F03C
:101CA1009528EE95274007E490003CF0A3F09000C2
:101CB1003CE0FCA3E0FD7F10123694E4FD7F12129C
:101CC1000E2AE4D39400E4940040157FA01233E17E
:101CD1008E278F28E527FD1232E09000337407F03C
:0F1CE100E4D39400E4940040057FFF1235D6222F
:1017F0007F2012366A8F2B300C06E4FDFF020E2A82
:101800007F8112366A900084EFF0AD2B7F20122288
:1018100075900047EFF07F2F12366A90002EEFF0A0
:101820007F2C12366A900028EFF0E4F529AD297F6D
:10183000091222758F2CE52C2430FF12366A8F2B6B
:10184000AD2B7F30122275747B252CF582E4340099
:10185000F583EFF00529E529C3940840D07F3912BC
:10186000366A8F2BE52B540FFD7F391222759000BD
:1018700059EFF0E52BC4540FFD7F3912227590000B
:101880005AEFF07F3A12366A12226C90005BEFF04A
:101890007F3B12366A12226C90005CEFF07F3812A8
:1018A000366A8F2BAD2B7F3812227590005DEFF0DA
:1018B0007F3C12366A12226C90005EEFF07F241299
:1018C000366A8F2CAD2C7F241222757B007A00792A
:1018D0002D7D047C007F40122E1F90002CE52DF002
:1018E000A3E52EF0900086E52FF0900051E530F052
:1018F000FDE4FF1236397D507F2E1237AD7D467FD5
:10190000251237AD7D467F261237AD752D44752ED5
:1019100044752F30E4F530FB7A00792D7D04FC7F8F
:1019200080123325E4F52AE4F529E5299021039373
:10193000FF742E2529F8A6070529E529B405EBE54E
:101940002A04F52D7B007A00792D7D067C007F8BA3
:10195000123325E4F529E52990210893FF742E25FB
:1019600029F8A6070529E529B409EBE4F529742E21
:101970002529F8E6FFE52A75F009A42411F582E48B
:101980003421F583E5822529F582E43583F583E466
:10199000934FF60529E529B409D4E52A04F52D7BF2
:1019A000007A00792D7D0A7C007F8C123325052A70
:1019B000E52AC3940450030219277BFF7A21793565
:1019C0007D0E7C007F8E123325E4900006F0A3F09C
:1019D000C201C214C206FD7F02120E2A9000527488
:0E19E0000AF012302B122DB27FFF1235D622E4
:102BE4007BFF7A2079AE123509E4F527AD277F04FF
:102BF4001236D812000E7FFF1238A27FFF1238A2BD
:102C04000527E527C3946440E3E4F529F52AF52B69
:102C1400752C02FB7A0079297D04FC7F4012332550
:102C24007D277F2F1237ADE4F527E5272430FFE415
:102C3400FD1237AD0527E527C3940840ED7DAB7F32
:102C4400241237AD7D017F051237ADE4FD7F0212FA
:092C54000E2A900052741EF022B9
:102E8A00EC5EFCED5F4C6060900006E05EFCA3E047
:102E9A005F4C7054900047E0FDC394065014ED94C3
:102EAA0009400FED6404600AED6405600590008B2B
:102EBA00EDF0E4B5070CEEB401089000477406F093
:102ECA008016E4B5070CEEB402089000477407F0C8
:102EDA0080069000477408F0E4900036F0900047AE
:0B2EEA00E0FF1228A97F01227F0022D8
:1033A300EC5EFCED5F4C7033900006E05EFEA3E044
:1033B3005F4E602790008BE0FD640A601B7F201244
:1033C3002A5EAD077F201237AD7BFF7A2079B39059
:0E33D300008BE0F5421232417F01227F002282
:10274E008E2B8F2CE52B5CFEE52C5D4E7003022745
:10275E00FF900006E0552BFEA3E0552C4E600302C1
:10276E0027FFE52C6420452B70047F9680027F970F
:10277E001233E18E2D8F2EE52E452D605E90004793
:10278E00E0FF6404600AEF6405600590008BEFF0D3
:10279E00E52C6420452B70129000477404F09000D5
:1027AE0031E52DF0A3E52EF080109000477405F072
:1027BE0090004BE52DF0A3E52EF0900047E0FD7F55
:1027CE0020122A5EAD077F201237ADE490003CF058
:1027DE00A3F0FDFC7F101236948013E52C64204587
:1027EE002B70047F0E80027F10E4FD120E2A7F01F3
:0427FE00227F002214
:102FC8008E2B8F2CE52B5CFEE52C5D4E705290000D
:102FD80006E0552BFEA3E0552C4E6044E52C6420FA
:102FE800452B7008900031F0A3F08007E490004B67
:102FF800F0A3F090008BE0FD640A600E7F20122A97
:103008005EAD077F201237AD8013E52C6420452B79
:1030180070047F1180027F11E4FD120E2A7F0122C5
:033028007F002204
:102436007F1C1233E18E298F2A900006E0652970F1
:1024460004A3E0652A70030224F47BFF7A2079C88E
:10245600E4852A45852944F543F542900006E0FEC9
:10246600A3E0FFE48F498E48F547F546123241ADA9
:102476002AAC297F007E01122E8AEF7017AD2AAC96
:1024860029FF7E02122E8AEF700AAD2AAC29FF7E42
:1024960004122E8AAD2AAC297F007E011233A3AD29
:1024A6002AAC297F007E021233A3AD2AAC297F0015
:1024B6007E041233A3AD2AAC297F407E0012274E3C
:1024C600EF700AAD2AAC297F20FE12274EAD2AAC4A
:1024D600297F207E00122FC8AD2AAC297F407E00BE
:1024E600122FC8900006E529F0A3E52AF0227BFF0B
:1024F6007A2079E7E4852A45852944F543F5421291
:032506003241223D
:1032E0008D29EF24E0602524187039A206E433FF0D
:1032F000E52954016F60030236FAE52930E2259092
:1033000000367438F0AD297F080237ADAD297F2033
:10331000122275900047EFF01238B312387FE4FDA7
:05332000FF120E2A223D
:102A5E00EF24F7602524E5602F24F9601624FB602F
:102A6E002024F8606714605D24197067ED9021438F
:102A7E0093FF22ED90214D93FF22ED90215393FF72
:102A8E0022ED90215B93FF22E4F540900043E0D3CA
:102A9E0094004003434001900041E0D39400400372
:102AAE00434002900042E0FF25E025E042409000C6
:102ABE0044E0FFC454F04240A3E0FFC4333354C09B
:102ACE004240AF4022ED90217893FF22ED90216E8F
:062ADE0093FF227F00229D
:09226C008F2BE52B540FFD7F3888
:10227500E4FEEF24F7604A24E5607024F9602D241C
:10228500FB605324F8700302233A147003022325DC
:102295002419600302234FEE90214393B50503AF44
:1022A50006220EEEC3940A40EE7F0022EE90214DE9
:1022B50093B50503AF06220EEEC3940640EE7F01EB
:1022C50022EE90215393B50503AF06220EEEC3947B
:1022D5000840EE7F0022EE90215B93B50503AF0623
:1022E500220EEEC3941340EE7F0022ED30E1047F11
:1022F5000180027F00900041EFF0ED13135403A31A
:10230500F0ED30E0047F0180027F00900043EFF0A4
:10231500EDC45403A3F0EDC413135403A3F0802AB2
:10232500EE90217893B50503AF06220EEEC3940A0D
:1023350040EE7F0022EE90216E93B50503AF062295
:0D2345000EEEC3940A40EE7F00227F0022BE
:103608008B418A428943EF6027AB410543E543AAD2
:10361800427002054214F91210B2FEAB440546E5A9
:1036280046AA457002054514F9EE1210F81F80D617
:01363800226F
:10353A004D6978496E707574536F757263653A2573
:10354A006420523A253032780D0A004D6978496E66
:10355A00707574536F75726365423A256420523AE6
:05356A0025640D0A00BC
:0138C00022E5
:0338B9008F242237
:1028A9008F2B90006EE0542CF090006DE054F8F0FE
:1028B900A3E054FBF01238B312387F900036E07071
:1028C90053E52BB40A0F900047E004F0D394094074
:1028D90010E4F0800C90008B740AF0900047E52B0F
:1028E900F0900047E0FD7F20122A5EAD077F20129D
:1028F90037AD7F2012366AE48F49F548F547F5462A
:102909007BFF7A35793A852B45F544F543F5421233
:102919003241801F7BFF7A357955900036E0FFE41C
:102929008F45F544F543F542F549F548F547F54630
:09293900123241E4FDFF020E2AF6
:1036B6008F3912387FD218E539600D753A303006E9
:1036C6000AC206433A028003753A20AD3A7F0802E1
:0236D60037AD0E
:10371A00AD07EDC394FF500E7F09122A5EEF4410E5
:0E372A00FD7F090237ADE4FD7F091237AD22A5
:103756001238B312387F900028E004F0D394044066
:0D37660002E4F0900028E0FD7F2C0237AD5A
:103088008F3C8D3D1238B3E53D6016747B253CF5C9
:1030980082E43400F583E0C394125019E004F08010
:1030A80014747B253CF582E43400F583E0D3940066
:1030B8004003E014F0AD3C7F09122A5E8F3E747B1A
:1030C800253CF582E43400F583E0FD7F30122A5E6A
:0A30D800AD07E53E2430FF0237ADDE
:102352008F3C8D3D1238B3E53C24C7F53FE53D6027
:10236200167459253FF582E43400F583E0C39409DD
:102372005019E004F080147459253FF582E43400CA
:10238200F583E0D394004003E014F0E53C24C660FA
:10239200161460381460511470030224221460640D
:1023A20024056003022435900059E0FD7F39122A8A
:1023B2005E8F3E90005AE0FD7F39122A5E8F3FE524
:1023C2003FC454F0453EFD7F390237AD90005BE0DB
:1023D200FD7F39122A5E8F3EE4F53FE53FC454F09B
:1023E200453EFD7F3A0237AD90005CE0FD7F391239
:1023F2002A5E8F3E753F08E53FC454F0453EFD7F9F
:102402003B0237AD90005EE0FD7F39122A5E8F3EBF
:10241200753F01E53FC454F0453EFD7F3C0237ADB8
:1024220090005DE0FD7F38122A5E8F3EAD3E7F3820
:042432001237AD228E
:0D387F00301409C214E4FD7F091237AD2298
:0638B300300602C20622ED
:0A389800205245534554000102047C
:0138C10022E4
:100601008F24122B68900052E0D3940040163001E1
:1006110003020B2AE5245402D394005003020B2A4F
:10062100E014F02230012530190BC2197808E6B424
:1006310059031235A4200703020B2AC207D21378EB
:1006410013E664186003020B2A0235A42007030293
:1006510006E1C207D2137813E624F8603524F76067
:100661002814601C24FE600F24EC60432410707079
:100671007F0A1228A98069E4FD7F03120E2A806097
:10068100E4FD7F04120E2A8057E4FD7F05120E2A35
:10069100804E900036E0FFC39438400EEFD3943E75
:1006A1005008E4FDFF120E2A80361236FA8031908E
:1006B1000036E0FFC394384006EFD3943A4009E492
:1006C100FD7F38120E2A8018900036E004F0D39492
:1006D1003A40037438F0900036E0FFE4FD120E2A30
:1006E1007815E6600C06E6D3943C4005E4F67811F3
:1006F100F6201903020B02C2197808E61212E70A62
:10070100F6000AFD030ADA0408B30508DC060AE16B
:10071100070AC0080AC50B0AA50C086D0D08670E6B
:100721000A6310088A11086A120A6D130A81140AF1
:100731003615094A160A8A1707E81807BE1908B9B3
:100741001A09DA1B0AEF400AE8420AD34408AD4508
:100751000ACC460AB7480AAE4A0A9C4C07EB4D0A36
:10076100934E0A59500829510A4F520A775409FCED
:100771005507A558077F5909B85A00000B02B20165
:1007810030010AE4FD7F08120E2A020B027D017F6F
:10079100051237ADE4FD7F02120E2A900052741E3D
:1007A100F0020B02900036E0B409047F0480027F5E
:1007B100008F25AD257F09120E2A020B027BFF7ADD
:1007C10038799812350912000E122BE4020B0290AF
:1007D1000036E004F0D3943E40037439F0900036C3
:1007E100E0FFE4FD120E2A020B02900036E0FFC387
:1007F100942E4012EFD39435500C781576017D0478
:10080100120E2A020B02900036E0FFC3942450031B
:10081100020B02EFD3942B4003020B0278157601F1
:100821007D04120E2A020B02900036E0FFC3942EC3
:100831004012EFD39435500C781576017D03120EDA
:100841002A020B02900036E0FFC394245003020BEE
:0C08510002EFD3942B4003020B02781539
:10085D0076017D03120E2A020B02020B02020B021D
:10086D0078157601900036E0B438047F0480027F5D
:10087D00008F25AD257F38120E2A020B023006039C
:10088D00020B0278157601900036E0B438047F0330
:10089D0080027F008F25AD257F38120E2A020B02B4
:1008AD00123773020B021236FA020B02900036E079
:1008BD00FFC39446400FEFD394505009E4FDFF124F
:1008CD000E2A020B02E4FD7F46120E2A020B029045
:1008DD000036E0FFC394465003020B02EFD3945051
:1008ED004003020B02E004F0E0B4480C900042E03B
:1008FD007006900036E004F0900036E0B4490C909C
:10090D000044E07006900036E004F0900036E0B44C
:10091D004A0C900045E07006900036E004F090001F
:10092D0036E0D3945040037446F0900036E0FFE477
:10093D00FD120E2A90004E7432F0020B029000361A
:10094D00E0FFC394465003020B02EFD394504003D3
:10095D00020B02E014F0E0B44A0C900045E0700682
:10096D00900036E014F0900036E0B4490C9000444D
:10097D00E07006900036E014F0900036E0B4480CBC
:10098D00900042E07006900036E014F0900036E0E2
:10099D00C3944650037450F0900036E0FFE4FD120E
:1009AD000E2A90004E7432F0020B02900036E0FFDA
:1009BD00C394465003020B02EFD394504003020B35
:1009CD0002781576017D03120E2A020B0290003675
:1009DD00E0FFC394465003020B02EFD39450400343
:1009ED00020B02781576017D04120E2A020B02907D
:1009FD000036E0FFC3942E4006EFD39435400D1220
:100A0D00387FE4FD7F2E120E2A020B02900036E095
:100A1D0024D2FF122CD28F26E526242EFF900036ED
:100A2D00F0E4FD120E2A020B02B21A201A0B7FFF00
:100A3D0012379012000E020B02E4FDFF120E2A0275
:100A4D000B027DA07F0F1237AD020B027DB47F0F1D
:100A5D001237AD020B027D107F0F1237AD020B0264
:100A6D007D207F0F1237AD020B027D807F0F123775
:100A7D00AD020B027D607F0F1237AD80787D507F08
:100A8D000F1237AD806FE4FD7F05120E2A8066E4EC
:100A9D00FD7F0B120E2A805DE4FD7F0C120E2A8065
:100AAD0054E4FD7F03120E2A804BE4FD7F04120EE9
:100ABD002A8042123194803D7F051228A980367F0D
:100ACD00061228A9802F7F071228A980287F0812D7
:100ADD0028A980217F091228A9801A7F011228A92F
:100AED0080137F021228A9800C7F031228A980058C
:100AFD00E4FF1228A9301B25C21B900036E0FFC36E
:100B0D0094384012EFD3943A500C3011047D048088
:0E0B1D00027D03020E2AE4FD7F38120E2A220A
:1036FA00B2063006047F0480027F03AD077F0A12F8
:10370A000E2A200607E4FD7F38120E2A12387F227D
:10377300B21430140CE4FD7F24120E2AE4FF023746
:0D3783001AE4FDFF120E2A7FFF12371A22F2
:10319400900047E0C39406504790008DE0FFC413AD
:1031A4005407F527EF5407F528E4F5290527E52703
:1031B400D394024003E4F527E52790389F935528DC
:1031C400600EE527C43354E04528FD7F210237AD66
:1031D4000529E529C3940340D3E4FD7F06020E2AA2
:0731E400E4FDFF120E2A2298
:102B6800780DE6FF7008C2A0D2A1D2A28012EFB4FD
:102B78000108D2A0C2A1D2A28006D2A0D2A1C2A22C
:102B8800E4FE2082010E20830343060220840343CF
:102B98000604208503430608EE602EEFC454F02E89
:102BA800FE7813E6B5061690008CE004F0D394087E
:102BB8004029201302D207E490008CF022C213E4CB
:102BC80090008CF07813A60622780D06E6D39402BE
:0C2BD8004002E4F6C213E490008CF022EE
:102C5D00200F1830871030860D780C06E6D39403BC
:102C6D004004E4F6D20FC20AC20B22A287308601BD
:102C7D00B3503A300F25A2869211A211301501B32F
:102C8D005005780AE67002D21BA2119215780A76C9
:102C9D0003E4780CF6C20FC20B800F300B0A780AD2
:102CAD007603E4780CF6C20FD20BC20A22208714E9
:102CBD00208611300A0A780A7603E4780CF6C20FE2
:052CCD00D20AC20B2237
:1015B3004B434D2D4E4F00202D4F46462D002048C6
:1015C300454C4C4F004D5554452020004D55544536
:1015D3002D2D00564F4C20202000564F4C20004EFE
:1015E3004F49534520004652535020004345535022
:1015F3002000535753502000535253502000424B66
:10160300535020004C504620004C49505300465242
:10161300444C20004345444C20005357444C200085
:10162300424B444C2000496E536F757263653A25F3
:10163300642025642025640D0A0056494445302062
:10164300002020202020200050434D00322F340062
:1016530020464C41542000534F554E44004E4947B9
:101663002D4F4E004E49472D4F46004657444F4E8F
:1016730045004D5033002020004252494748004660
:101683004C547443455474535754744652547453CE
:1016930052547442525474424C5474534C54740014
:1016A300464C5472434554725357547246525472C3
:1016B3005352547242525472424C5472534C5472A9
:1016C300004D4943314D4943324543484F524550FC
:1016D3005444454C5952455642004155582D494EA4
:1016E3004F5054494341434F412D4431434F412DC2
:1016F3004432202D53442D20202D5553422D484450
:101703004D492D3148444D492D3248444D492D33DF
:1017130048444D492D410020204849464920322B59
:10172300314348004D4F444500322F30312F303282
:101733002F30332F30322F31332F31322F32332F9B
:1017430032332F33332F34322F33322F3400534479
:101753002D494E2053442D4F555455442D494E2069
:1017630055442D4F55540033324B34384B35364B9B
:1017730036344B38304B39364B31313231323831E4
:10178300363031393232323432353633323033381F
:1017930034000002070000243F000600DB00CF00F6
:1017A300E600ED00FD000700FF00EF00F7128F00D9
:1017B30039120F00F900F100BD00F61209001E0CEA
:1017C30070003805360936003F00F3083F08F30080
:1017D300ED1201003E243028362D0000EE240900CE
:0D17E300C0240012C00010181C1C1E1E1F88
:1030E200C2A5C2937F011238A27F401237E17F014D
:1030F2001238A2D2937F011238A2C2937F011238F2
:10310200A27FC01237E17F011238A2E4F524E4FF66
:103112001237E17F011238A20524E524C39410403E
:10312200ED7F0A1238A2D293E4FDFF123639E4FF92
:09313200123790E4900033F02202
:1025D2008F24300E05C20E12000EE5245402D3944D
:1025E200005003022694900033E0601514F0700747
:1025F2007F011235D6800A900033E05401FF123574
:10260200D6900052E0D39400400302269430060C88
:1026120090004EE07006FD7F0A120E2A20015B90A8
:10262200004EE0605514F07027201407FDFF120ED3
:102632002A8047900036E024DCFF122CD28F25E559
:10264200252424FFE4FD120E2AAF2512371A802A10
:1026520030002790004EE0FF75F00584E5F0701A17
:10266200EF75F00584F525900036E0FFE52530E0B2
:10267200047D0280027D01120E2A2001152006121D
:1026820020140F30050C900048E0D3940040031250
:03269200313B22B7
:100E2A008F378D38E538700890004E7414F0C20080
:100E3A00C205C2A51237C790006DE0540FF0E5371E
:100E4A001212E70EF0000F0F010F21020F65030FB8
:100E5A0072040F7F050F8A060F96070F15080F36C3
:100E6A00090FCB0A0F9C0B0FA20C0FA80D0FAE0E89
:100E7A000FAE0F0FAE100FAE110FB9120FBF131036
:100E8A007424107425107426107427107428107492
:100E9A002910742A10742B107D2E107D2F107D308E
:100EAA00107D31107D32107D33107D34107D351068
:100EBA00273810893910893A10893B10893C1089E2
:100ECA003D10893E10A14610A14710A14810A14922
:100EDA0010A14A10954B10954C10954D10954E1037
:100EEA00954F000010AB200C05122F5F80097BFF85
:100EFA007A1579B3123509E4900036F090004EF075
:100F0A00D2050210AB122F5F0210AB7BFF7A157964
:100F1A00BA1235090210AB7BFF7A1579C11235096D
:100F2A0012000E90004E740AF00210ABE538B404B9
:100F3A001D90004E7414F0900051E004F0D3940216
:100F4A004002E4F0900051E0FD7F431237AD90007B
:100F5A0051E0FD7F011236390210AB12387FAD38ED
:100F6A007F03121F670210AB12387FAD387F04125D
:100F7A001F670210AB12387F7F0412356F0210AB65
:100F8A0090004E7432F01237F70210AB12280202A8
:100F9A0010AB1232910210AB1233640210AB12384A
:100FAA00540210ABE53724F2FF12380C0210AB12D0
:100FBA0031EB0210AB90004E7414F01225090210A6
:100FCA00ABE5386003B4040890004E7450F0D200C8
:100FDA00E538C394024005E538B4040B7BFF7A1563
:100FEA0079C8123509800EE538B402097BFF7A15F3
:100FFA0079CF123509E538B4040A7D037F08123720
:10100A00AD0210ABE538640360030210AB90004EEA
:10101A007414F07D027F081237AD0210ABE538C3B5
:10102A0094034015900036E0B4380EE538B4040451
:10103A007F0180027F001236B6E538B4020B7BFFCF
:10104A007A1579D612350980587BFF7A1579DD121F
:10105A00350990002EE0FD7F041236D8E53870413C
:10106A0090004E7450F0D2008037AD38AF37122955
:10107A00D5802E12387FAD38AF371229428022121E
:10108A00387FAD38AF37122D42801612387FAD380F
:10109A00AF37121CF0800A12387FAD38AF371221F1
:0810AA0082900036E537F022C8
:103364007F0912366A8F39301413900036E0B40C9A
:103374000C0539E539D394074003E4F539AD397FB9
:10338400091237AD7BFF7A1579E2123509E5391256
:0F3394001334301409E4900034F0FF12371A227A
:102CD200EFB407005067902CDFF8282873022CF419
:102CE200022D09022D15022D18022D2D022D390259
:102CF2002D3C900042E060037F0122900043E0609F
:102D0200037F02227F0322900043E060037F0222BE
:102D12007F03227F0322900044E060037F0422901D
:102D22000045E060037F05227F0022900045E060BD
:102D3200037F05227F00227F06227F07227F002257
:1029D5008F398D3AE53AC39403401E900036E0B531
:1029E500391724DCFFE53AB404047D0180027D003B
:1029F50012308890004E7450F074DC2539F5397525
:102A0500F004A42482F97416123504E53AB4020ED2
:102A15007D207F041213397D207F05021339747BD5
:102A25002539F582E43400F583E0F53BC39409507C
:102A3500147D2D7F04121339C37439953BFD7F0531
:102A450012133980117D207F04121339E53B2427A9
:092A5500FD7F05121339D20022A5
:102942008F398D3AE53AC39403401E900036E0B5C4
:10295200391724D2FFE53AB404047D0180027D00D8
:1029620012308890004E7450F074D22539F53975C2
:10297200F004A424A3F97416123504E53AB4020E45
:102982007D207F041213397D207F05021339747B69
:102992002539F582E43400F583E0F53BC394095010
:1029A200147D2D7F04121339C37439953BFD7F05C5
:1029B20012133980117D207F04121339E53B24273D
:1029C200FD7F05121339E53A700890004E7450F0FD
:0329D200D200220E
:102D42008F398D3AE53AC39403401D900036E0B5C1
:102D52003916E53AB404047D0180027D00AF3912D0
:102D6200235290004E7450F074C72539F53975F02E
:102D720004A424C4F974161235047D207F041213AE
:102D820039E53AB402077D207F05021339745925CB
:102D920039F582E43400F583E0F53B2430FD7F050C
:102DA200121339E53A700890004E7450F0D20022A6
:101CF0008F398D3A90006DE04450F0A3E0F09000F1
:101D00004E7450F07D207F041213397D207F051220
:101D10001339E53924B46056147003021DA51470FC
:101D200003021DDC147003021E13147003021E4A0A
:101D300024056003021E537BFF7A1579E9123509E9
:101D4000E53AC39403401B900041E004F0D39401B2
:101D50004002E4F0E4FD7F24122A5EAD077F2412E6
:101D600037ADE4FF123459AD077F050213397BFF0D
:101D70007A1579EF123509E53AC39403401B9000B8
:101D800042E004F0D394024002E4F0E4FD7F241228
:101D90002A5EAD077F241237AD7F01123459AD079B
:101DA0007F050213397BFF7A1579F5123509E53A7B
:101DB000C39403401B900043E004F0D3940140021D
:101DC000E4F0E4FD7F24122A5EAD077F241237ADD4
:101DD0007F02123459AD077F050213397BFF7A1554
:101DE00079FB123509E53AC39403401B900044E0A7
:101DF00004F0D394024002E4F0E4FD7F24122A5E52
:101E0000AD077F241237AD7F03123459AD077F052C
:101E10000213397BFF7A167901123509E53AC3942A
:101E200003401B900045E004F0D394024002E4F02C
:101E3000E4FD7F24122A5EAD077F241237AD7F04B4
:101E4000123459AD077F050213397BFF7A167907E3
:041E5000123509221C
:102182008F398D3AE53924B9603A14605A14607A6D
:1021920014700302222F2404600302225090006D67
:1021A200E04440F0A3E0F07BFF7A16790C12350987
:1021B200E53AC394035003022250AD3AE4FF122ED3
:1021C200F50222507BFF7A16791112350990006DC3
:1021D200E04450F0A3E0F0E53AC394034070AD3A16
:1021E2007F01122EF580677BFF7A16791712350967
:1021F20090006DE04450F0A3E0F0E53AC394034050
:102202004DAD3A7F02122EF580447BFF7A16791D7E
:1022120012350990006DE04450F0A3E0F0E53AC3B6
:102222009403402AAD3A7F03122EF580217BFF7A78
:1022320016792312350990006DE04450F0A3E0F0C6
:10224200E53AC394034007AD3A7F04122EF590009D
:102252004E7432F074F12539F582E434FFF583E0EF
:0A22620075F005A4FD7F040236D8D4
:102F5F0090008BE0FFB40A08900047E0FEFF80006E
:102F6F008F3E7BFF7A167929E48F45F544F543F5BB
:102F7F004290008BE0FFE48F49F548F547F5469006
:102F8F000047E0FFE48F4DF54CF54BF54A12324107
:102F9F00E53E64046005E53EB4050990006EE0442B
:102FAF0020F0800790006EE054DFF0E53E75F006EC
:092FBF00A424DDF97416023504A6
:1037F7007BFF7A16793D12350990008DE0FFC413DF
:05380700540702133418
:101F67008F398D3A900036E065397078E53964032A
:101F7700702F90002CE06401FFF0FD7F2B1237AD2E
:101F870090002CE0FD7F401237AD900086E06401A1
:101F970070030220447401F0FD7F421237AD022026
:101FA7004490002DE004F0C394044002E4F0900054
:101FB7002DE0FFC39403500BEF4410FD7F2B123726
:101FC700AD80077D307F2B1237AD90002DE0FD7F70
:101FD700411237AD900086E06063E4F0FD7F421266
:101FE70037AD8059900036E0B4041DE539B40318C5
:101FF70090002CE0FD7F2B1237AD9000867401F026
:10200700FD7F421237AD8035900036E06403702DB6
:10201700E5396404702790002DE0FFC39403500B4B
:10202700EF4410FD7F2B1237AD80077D307F2B12D9
:1020370037ADE4900086F0FD7F421237ADE539B445
:10204700031290002CE075F006A4241AF9741712F5
:10205700350480177BFF7A1779271235097D207F92
:0E2067000412133990002DE012133402302BB6
:10302B00900086E0600790002CE0FF800790002D59
:10303B00E02402FF90006EE0542CF0EF14601014AB
:10304B00601614601C1460221460282405702B90E9
:10305B00006EE04401F0802290006EE04402F080AC
:10306B001990006EE04480F0801090006EE04440B8
:0D307B00F0800790006EE04410F0D20E22AD
:102DB20090006DE054F8F0A3E054FBF0900048E07E
:102DC200540F24FD603514603B14603824FE6040CB
:102DD20024F7602714602424FD24FD502724157055
:102DE20039900084E0FF64536030EF6456602B90AA
:102DF200006DE04404F0A3E0F0801F90006EE04418
:102E020004F0801690006DE04401F0A3E0F0800A27
:0D2E120090006DE04404F0A3E0F0D20E2229
:1035D6008F37E537B4FF117F0E12366AEF30E704F6
:1035E6007F0180027F008F37E537600C90006DE029
:1035F6004408F0A3E0F0800790006DE054F7F0D2A5
:023606000E2292
:10280200900048E0FF540FC3940250030228A5E44D
:10281200F53DEFC4540F75F003A4F5397BFF7A162A
:102822007944123509122DB2900048E0540F24FD6C
:10283200602414604314604024FE605E24F7601636
:1028420014601324FD24FD502F241570597BFF7A48
:1028520016794B023509742C2539F9E43417FA7BC1
:10286200FF75440075450075463A7F031236087BB2
:10287200007A00793A023509742C2539F9E43417C3
:10288200FA7BFF75440075450075463A7F031236A0
:10289200087B007A00793A0235097BFF7A16794F74
:0728A200023509122F5F222D
:10345900AE07EE700C900041E060037F4C227F5371
:1034690022BE020C900043E060037F59227F4E2266
:1034790074412EF582E43400F583E0FDB402037F44
:0C3489004C22EDB401037F53227F4E2241
:10356F00EFC39403400A900036E0B40503123756B8
:10357F00900028E070097BFF7A1679530235097B9A
:10358F00FF7A16795A123509900028E02430FD7F12
:05359F000512133922A2
:103291007F2312366A8F397FD11238BCAF39123889
:1032A100BC900036E0B40B20E539C394325005756B
:1032B10039328003E4F5397FD21238BCAF39123884
:1032C100BCAD397F231237ADE53960097BFF7A1632
:0F32D10079600235097BFF7A1679671235092279
:0F38540090004E7432F07BFF7A16796E023509C0
:10380C0090004E7432F0EF75F006A42451F9741741
:03381C000235046E
:1031EB0090004E7414F090006DE054BFF07BFF7AAA
:1031FB0016794412350990003DE02401FD90003C06
:10320B00E03400FCE4FF1226958F4005407D2F1221
:10321B001339900047E0B4040D900031E0FEA3E0B9
:10322B00FFAC06FD800B90004BE0FEA3E0FFAC066D
:06323B00FDAF40022695E4
:10250900C3900050E0940390004FE0940050030200
:1025190031EBC3900050E0940590004FE0940050D7
:102529006490005FE0FF131313541FF539900048BE
:10253900E0540F640A704E90004E7414F0E539D3DC
:1025490094004041E5399410503B754400754500AD
:1025590075463A7BFF7A1679757F03123608E53995
:1025690075F003A42467F9741735F0FA7BFF7544F5
:102579000075450075463D7F031236087B007A00D9
:10258900793A02350990004E740AF07BFF7A167980
:102599007912350990004FE0FEA3E0FF7C007D3CF5
:1025A90012112CAD077F021236D890004FE0FEA31E
:1025B900E0FF7C007D3C12112C7F041236D890007C
:0925C9006DE04440F0A3E0F022B3
:103639008D39EFD39400400E7BFF7A16797C1235D1
:1036490009E539121334C2937F011238A2E5399082
:103659001795934488FF1237E17F011238A2D2935C
:01366900223E
:102EF500EF70047C0180027C00EC146011146012F8
:102F0500146013146014240470127E13800E7E095D
:102F1500800A7E0980067E0980027E09BD0424742C
:102F2500372FF582E43400F583E0D39E4002EEF0BE
:102F350074372FF582E43400F583E0C39E501AE020
:102F450004F022BD031374372FF582E43400F583B2
:0A2F5500E0D394004003E014F022E2
:0535040035F0FA7BFF29
:103509008B418A428943E4F545AB410543E543AA2A
:10351900427002054214F91210B2F5446012AD442A
:10352900AF451213390545C3E5456480948640D9F2
:01353900226F
:102695008F418C428D43AE42AF437C277D10121192
:1026A5002CEF4E601AEF2430FDAF4105411213396E
:1026B500AE42AF437C277D1012112C8C428D43AE68
:1026C50042AF437C037DE812112CEF4E601AEF24D4
:1026D50030FDAF410541121339AE42AF437C037D56
:1026E500E812112C8C428D43AE42AF437C007D64D1
:1026F50012112CEF4E601AEF2430FDAF4105411247
:102705001339AE42AF437C007D6412112C8C428D8F
:1027150043AE42AF437C007D0A12112CEF4E601A86
:10272500EF2430FDAF410541121339AE42AF437C72
:10273500007D0A12112C8C428D43AF410541E543C2
:092745002430FD121339AF4122CA
:1036D8008F408D41E54175F00A842430FD1213397D
:1036E800E54004FFE54175F00A84E5F02430FD0269
:0236F800133984
:051334002431FD7F05DE
:101339008F468D47E546C394034003021404E547ED
:10134900C394304012E547D39439500B74D02547E4
:10135900F54704F548804CE547C39461400FE547DC
:10136900D3947A5008E54724AAF5488036E547C35F
:101379009441400FE547D3945A5008E54724CAF5EC
:10138900488020E54724D5601224FC6009240270B6
:101399000F754825800D75482680087548278003F4
:1013A900E4F548E54825E02498F582E43417F58307
:1013B900E493FEE54625E02461F582E43400F583F3
:1013C900EEF0A3E4F0E54625E02461F582E434007B
:1013D900F583C083C082E0FEA3E0FFE54825E02451
:1013E90099F582E43417F583E493FDEEEF4DFFD0D0
:1013F90082D083EEF0A3EFF00215B0E546C3940660
:10140900400302153AE547C394304066E547D39453
:1014190039505F74D02547F54704F54825E02498ED
:10142900F582E43417F583E493FEE54625E024616B
:10143900F582E43400F583EEF0A3E4F0E54625E017
:101449002461F582E43400F583C083C082E0FEA301
:10145900E0FFE54825E02499F582E43417F583E4B3
:1014690093FDEEEF4DFFD082D083EEF0A3EFF002B3
:1014790015B0E5471212E714C32D14C84114CD4223
:1014890014D24314D74414DC4514E14614E6471436
:10149900F04814EB4914F54C14FA4E14FF4F150497
:1014A90050150952150E53151354151855151D5974
:1014B900150972151374000015227547C0805D75F2
:1014C90047F7805875477C8053754739804E754773
:1014D900DE80497547F980447547F1803F7547EFCC
:1014E900803A75470680357547F6803075473880EC
:1014F9002B754737802675473F80217547F3801C38
:1015090075475080177547ED80127547F8800D753E
:10151900473E800875476E8003E4F547E54625E0B8
:101529002461F582E43400F583E4F0A3E547F08013
:1015390076E546D39406401AE546940D5014E547DE
:10154900C39401400DE547D394055006E547242689
:10155900F548E54825E02498F582E43417F583E455
:1015690093FEE54625E02461F582E43400F583EE37
:10157900F0A3E4F0E54625E02461F582E43400F5C2
:1015890083C083C082E0FEA3E0FFE54825E02499FB
:10159900F582E43417F583E493FDEEEF4DFFD08235
:0A15A900D083EEF0A3EFF0D20E2283
:1037C700E4FFEF25E02471F582E43400F583E4F0AB
:0A37D700A3F00FEFC3940540E922B0
:06386300131313541FFFB4
:09386900EF54079017E893FF22C9
:10313B007B007A0079277D037C007F8F122E1F3056
:10314B000C030237C7AF27123869900071E4F0A364
:10315B00EFF0E527123863900073E4F0A3EFF0AFC4
:10316B0028123869900075E4F0A3EFF0E5281238C7
:10317B0063900077E4F0A3EFF0AF29123869900069
:09318B0079E4F0A3EFF0D20E226A
:10381F00E4FFE4900071F0A3F00FEFC3940540F2C2
:03382F00D20E2294
:10379000E4FEEFFDEE25E02461F582E43400F583DC
:0D37A000E4F0A3EDF00EEEC3940D40E62220
:10000E00E4FF74082FF582E43400F583E4F00FEF7B
:10001E00C3941040ED900061E0FEA3E0FF30E007D6
:10002E00900016E04408F0EF30E10790000FE04436
:10003E0008F0EF30E207900008E04408F09000620C
:10004E00E030E30790000BE04408F0900061E0FE22
:10005E00A3E0FF30E407900013E04408F0EF30E532
:10006E0007900017E04408F0EF30E607900011E02B
:10007E004408F0900062E030E70790000EE044087C
:10008E00F0900061E0FEA3E0FFEE30E00790001577
:10009E00E04408F0EE30E107900014E04408F0EE82
:1000AE0030E20790000DE04408F0900061E0A330CC
:1000BE00E307900009E04408F0900061E0FEA3E041
:1000CE00FFEE30E40790000AE04408F0EE30E5075A
:1000DE00900010E04408F0900063E0FEA3E0FF30D3
:1000EE00E007900016E04420F0EF30E10790000F9B
:1000FE00E04420F0EF30E207900008E04420F0905A
:10010E000064E030E30790000BE04420F0900063C1
:10011E00E0FEA3E0FF30E407900013E04420F0EF90
:10012E0030E507900017E04420F0EF30E60790002E
:10013E0011E04420F0900064E030E70790000EE0FC
:10014E004420F0900063E0FEA3E0FFEE30E0079065
:10015E000015E04420F0EE30E107900014E044205A
:10016E00F0EE30E20790000DE04420F0900063E0E6
:10017E00A330E307900009E04420F0900063E0FE16
:10018E00A3E0FFEE30E40790000AE04420F0EE30EA
:10019E00E507900010E04420F0900065E0FEA3E03B
:1001AE00FF30E007900016E04410F0EF30E10790CA
:1001BE00000FE04410F0EF30E207900008E044102A
:1001CE00F0900066E030E30790000BE04410F090F2
:1001DE000065E0FEA3E0FF30E407900013E044105A
:1001EE00F0EF30E507900017E04410F0EF30E6072F
:1001FE00900011E04410F0900066E030E7079000A8
:10020E000EE04410F0900065E0FEA3E0FFEE30E05B
:10021E0007900015E04410F0EE30E107900014E076
:10022E004410F0EE30E20790000DE04410F0900024
:10023E0065E0A330E307900009E04410F0900065FC
:10024E00E0FEA3E0FFEE30E40790000AE04410F079
:10025E00EE30E507900010E04410F0900067E0FEED
:10026E00A3E0FF30E007900016E04404F0EF30E129
:10027E000790000FE04404F0EF30E207900008E032
:10028E004404F0900068E030E30790000BE0440473
:10029E00F0900067E0FEA3E0FF30E407900013E06B
:1002AE004404F0EF30E507900017E04404F0EF301F
:1002BE00E607900011E04404F0900069E0FEA3E030
:1002CE00FF30E007900016E04480F0EF30E1079039
:1002DE00000FE04480F0EF30E207900008E0448029
:1002EE00F090006AE030E30790000BE04480F0905D
:1002FE000069E0FEA3E0FF30E407900013E04480C5
:10030E00F0EF30E507900017E04480F0EF30E6079D
:10031E00900011E04480F090006BE0FEA3E0FF300F
:10032E00E007900016E04402F0EF30E10790000F76
:10033E00E04402F0EF30E207900008E04402F09053
:10034E00006CE030E30790000BE04402F090006B8D
:10035E00E0FEA3E0FF30E407900013E04402F0EF6C
:10036E0030E507900017E04402F0EF30E60790000A
:10037E0011E04402F090006DE0FEA3E0FF30E007D4
:10038E00900016E04401F0EF30E10790000FE044DA
:10039E0001F0EF30E207900008E04401F090006EAB
:1003AE00E030E30790000BE04401F090006DE0FEBA
:1003BE00A3E0FF30E407900013E04401F0EF30E5D6
:1003CE0007900017E04401F0EF30E607900011E0CF
:1003DE004401F090006EE030E70790000EE044011B
:0403EE00F090006D1E
:1003F200E0FEA3E0FFEE30E007900015E04401F0DC
:10040200EE30E107900014E04401F0EE30E2079094
:10041200000DE04401F090006DE0A330E30790008E
:1004220009E04401F090006DE0FEA3E0FFEE30E44D
:1004320007900012E04420F0EE30E507900012E051
:100442004410F0EE30E607900012E04404F0900011
:100452006FE0FEA3E0FF30E00790000DE04404F0FF
:10046200EF30E107900014E04404F0EF30E207902F
:100472000015E04404F0900070E030E30790000EB5
:10048200E04404F0900071E0FEA3E0FF30E007904A
:100492000009E04480F0EF30E10790000DE0448075
:1004A200F0EF30E207900014E04480F0900072E038
:1004B20030E307900015E04480F0900072E030E4F1
:1004C2000790000EE04480F0900073E0FEA3E0FF8E
:1004D20030E00790000DE04402F0EF30E1079000B9
:1004E20014E04402F0EF30E207900015E04402F01D
:1004F200900074E030E30790000EE04402F09000B8
:1005020075E0FEA3E0FF30E007900013E04440F006
:10051200EF30E10790000BE04440F0EF30E207904B
:100522000008E04440F0900076E030E30790000FCE
:10053200E04440F0900076E030E407900016E0449A
:1005420040F0900077E0FEA3E0FF30E00790001556
:10055200E04440F0EF30E10790000EE04440F0EF5D
:1005620030E207900011E04440F0900078E030E380
:1005720007900017E04440F0900079E0FEA3E0FF0E
:1005820030E007900010E04440F0EF30E1079000C7
:100592000AE04440F0EF30E207900009E04440F006
:1005A20090007AE030E30790000DE04440F09000C4
:1005B2007AE030E407900014E04440F0C2937F01F7
:1005C2001238A27F401237E17F011238A2D2937F04
:1005D200011238A2C2937F011238A27FC01237E102
:1005E200E4F53974082539F582E43400F583E0FF37
:0F05F2001237E10539E539C3941040E7D293225F
:1037E1007E08C290EF139291EFC313FFD2901EEEA9
:0637F100D3940050ED220C
:10373800AE0753050FEDC3940A5006ED2430FFFD84
:0E37480022EE6005ED2457FF22ED2437FF220C
:1019EE008F698D6AE56A7029AF6EAE6DAD6CAC6BAA
:1019FE00EC4D4E4F701BAB6FAA70A9717430121064
:101A0E00F8AB6FAA70A971900001E412110A7F0160
:101A1E0022E4F572F573E56964646009E56964753D
:101A2E006003021B1C7579007578CA75779A7576F6
:101A3E003BE569B4643FE4FFFEFDE56B5480FC605A
:101A4E0034AB6FAA70A971AF7305738F8275830063
:101A5E00742D12110AE56EFBE56DFAE56CF9E56B76
:101A6E00547FF8C3E49BF56EE49AF56DE499F56C3A
:101A7E00748098F56B75740BAB79AA78A977A876F4
:101A8E00AF6EAE6DAD6CAC6B1211FE8F751574E54D
:101A9E0074656A6004E5756003757201E572601A1B
:101AAE00AD75E4FF123738AB6FAA70A971AE73052E
:101ABE00738E82758300EF12110AAF6EAE6DAD6C30
:101ACE00AC6BAB79AA78A977A8761211FEAC00ADF3
:101ADE0001AE02AF038F6E8E6D8D6C8C6BAF79AED7
:101AEE0078AD77AC76E47B0AFAF9F81211FE8F79AD
:101AFE008E788D778C76E4FFFEFDFCAB79AA78A903
:101B0E0077A876C31212906003021A8680527574FB
:101B1E002075750974FC2574F574AF6EAE6DAD6CE1
:101B2E00AC6BF9F81212A1AD071575E575656A6013
:101B3E0003ED6003757201E5726021E569B4580426
:101B4E007F0180027F00123738AB6FAA70A971AE89
:101B5E007305738E82758300EF12110AE57470B4EB
:101B6E00AB6FAA70A971857382758300E412110A96
:031B7E00AF732220
:100B2B008B548A558956E4F55DF55EAB57AA58A9E7
:100B3B0059AF5DEF3395E08F82F5831210CB6425AF
:100B4B006051D3E55E6480949E4003AF5E22AB5749
:100B5B00AA58A959AF5D055DEF3395E08F82F583F8
:100B6B001210CBFFAB54AA55A956AE5E055EEEFD37
:100B7B003395E08D82F583EF12110AAB57AA58A972
:100B8B0059AF5DEF3395E08F82F5831210CB709BDD
:100B9B00AF5E22AF5DEF3395E08F82F583A3AB574A
:100BAB00AA58A9591210CBF5636473706BAB5AE555
:100BBB005CF92403F55CE55BFA3400F55B1212C7B4
:100BCB008B608A618962055D055DE4F55FAB60AAA8
:100BDB0061A962AF5FEF3395E08F82F5831210CB83
:100BEB007003020B36C3E55E6480949E4003020BD8
:100BFB0036055FEF3395E08F82F5831210CBFFAB99
:100C0B0054AA55A956AE5E055EEEFD3395E08D8276
:100C1B00F583EF12110A80B5E563B4251E055D055A
:100C2B005DAB54AA55A956AF5E055EEF3395E08FC9
:100C3B0082F583742512110A020B36E563B4633215
:100C4B00055D055DAB5AE55CF92402F55CE55BFAE5
:100C5B003400F55B121197FFAB54AA55A956AE5E43
:100C6B00055EEEFD3395E08D82F583EF12110A02DE
:100C7B000B36E4F564F55FAF5DEF3395E0FEEF24E3
:100C8B0001FFE43EFEAD5FED3395E0FCED2FF58209
:100C9B00EC3EF583AB57AA58A9591210CBF563C399
:100CAB00648094B0401ED3E563648094B95015E51D
:100CBB006324D0FFE56475F00AA42FF564055FE5A6
:100CCB005FB403B3AF5DEF3395E0FEEF2401FFE4B8
:100CDB003EFEAD5FED3395E0FCEF2DFFEE3CFEAB42
:100CEB0057E5592FF9E5583EFA8B60F5618962E5B6
:100CFB005D2402255FF55D1210B2249C600F24EF7A
:100D0B00600B24FD600724206003020B36AB5A05F1
:100D1B005CE55CAA5B7002055B14F91210B2FF3341
:060D2B0095E08F68F567FA
:100D3100F566F565FEAD66AC6578081212B48F688C
:100D41008E678D668C65055CE55CAA5B7002055B50
:100D510014F91210B2FF3395E0FEFDFCE5684FF582
:100D610068E5674EF567E5664DF566E5654CF56541
:100D7100AF68AE67AD66FC78081212B48F688E67F3
:100D81008D668C65055CE55CAA5B7002055B14F9F8
:100D91001210B2FF3395E0FEFDFCE5684FF568E502
:100DA100674EF567E5664DF566E5654CF565AF6837
:100DB100AE67AD66FC78081212B48F688E678D66D7
:100DC1008C65055CE55CAA5B7002055B14F9121089
:100DD100B2FF3395E0FEFDFCE5684FF568E5674E2F
:100DE100F567E5664DF566E5654CF565AB60AA61AD
:100DF100A9621210B2FFC00785686E85676D8566AE
:100E01006C85656BAF5EEF3395E0FEE5562FF9E536
:100E1100553E85546FF5708971D007AD641219EE96
:090E2100EF255EF55E020B36229E
:103241008B3F8A4089417551007552007553428BFD
:10325100578A58895985515A85525B85535C7B0140
:103261007A00798E120B2BE4FEC3EF6480F8EE64D2
:103271008098501BC299EEFD3395E0FC748E2DF5BC
:103281008274003CF583E0F5993099FD0E80DA22D5
:103495001238321230E21238C11238C01238AB7805
:1034A50012E6FF5401D3940040F5121B817812E611
:1034B500FF1206017812E6FF1225D27812E6FF12F6
:0834C50038B9E47812F680D753
:10383200758921758851759850758DFF43878075FC
:03384200A8832236
:0338BC008F3A221E
:0938A200EFD394034002DFFE2283
:03000B00021E547E
:101E5400C0E0C0F0C083C082C0D075D000C000C054
:101E640001C002C003C004C005C006C007758A6073
:101E7400758CFF780F06E675F00A84E5F0600302BE
:101E84001F0F122C5D780FE675F06484E5F0703B4B
:101E9400F678127601780B06E675F00A84E5F070A0
:101EA4002A7812E64402F6780BE6FF75F03284E5F0
:101EB400F070187812E64404F6EF75F06484E5F0E7
:101EC4007009780BF67812E64408F630053D900068
:101ED4002BE004F0D394134006E4F0D2A5802C90B8
:101EE4000051E0FF700B90002BE0B40104C2A58008
:101EF4000DEFB4010990002BE0B40402C2A5EFB4C5
:101F0400020990002BE0B40802C2A5780EE66038FE
:101F140006E6D3949F40312008247810E6B4021ECC
:101F24007815E660197811E6FFC39408500EEF5453
:101F340003FFBF0302D2197811068002D219781068
:101F44007600C208780E7600D007D006D005D004FB
:101F5400D003D002D001D000D0D0D082D083D0F032
:031F6400D0E03298
:03000300022AE4EA
:102AE400C0E0C0D075D000C000C006C00720086593
:102AF400781006E6FFB4020C780EE6D394914055A4
:102B0400D20880517809E6FEC313F6780EE6D39412
:102B14001040067809E64480F6EF640A6004EFB4D6
:102B24001A077809E618F6802CEFB412127809E631
:102B3400B4BF0418E6601E78157600D2088016EF3C
:102B4400B42212D219781176007809E6F418666076
:102B540004C219D208780E7601D007D006D000D06E
:042B6400D0D0E032BB
:0300000002388C37
:0C388C00787FE4F6D8FD75817902349550
:1010B200BB010689828A83E0225002E722BBFE023C
:0910C200E32289828A83E493226F
:1010CB00BB010CE58229F582E5833AF583E02250DA
:1010DB0006E92582F8E622BBFE06E92582F8E22224
:0D10EB00E58229F582E5833AF583E493223E
:1010F800BB010689828A83F0225002F722BBFE01D7
:02110800F322D0
:10110A00F8BB010DE58229F582E5833AF583E8F01B
:10111A00225006E92582C8F622BBFE05E92582C8C7
:02112A00F222AF
:10112C00BC000BBE0029EF8DF084FFADF022E4CCA7
:10113C00F875F008EF2FFFEE33FEEC33FCEE9DEC70
:10114C00984005FCEE9DFE0FD5F0E9E4CEFD22EDB6
:10115C00F8F5F0EE8420D21CFEADF075F008EF2F00
:10116C00FFED33FD4007985006D5F0F222C398FDF1
:05117C000FD5F0EA228E
:10118100C5F0F8A3E028F0C5F0F8E58215827002F9
:061191001583E038F02296
:10119700BB010A89828A83E0F5F0A3E02250068723
:1011A700F009E71922BBFE07E3F5F009E3192289E5
:0B11B700828A83E493F5F07401932218
:1011C20075F008758200EF2FFFEE33FECD33CDCCE4
:1011D20033CCC58233C5829BED9AEC99E582984067
:1011E2000CF582EE9BFEED9AFDEC99FC0FD5F0D644
:1011F200E4CEFBE4CDFAE4CCF9A88222B800C1B96E
:101202000059BA002DEC8BF084CFCECDFCE5F0CBAB
:10121200F97818EF2FFFEE33FEED33FDEC33FCEBE4
:1012220033FB10D703994004EB99FB0FD8E5E4F99F
:10123200FA227818EF2FFFEE33FEED33FDEC33FC8C
:10124200C933C910D7059BE99A4007EC9BFCE99A80
:10125200F90FD8E0E4C9FAE4CCFB2275F010EF2FC5
:10126200FFEE33FEED33FDCC33CCC833C810D707C5
:101272009BEC9AE899400AED9BFDEC9AFCE899F800
:0E1282000FD5F0DAE4CDFBE4CCFAE4C8F92293
:10129000EB9FF5F0EA9E42F0E99D42F0E89C45F0B4
:0112A000222B
:1012A100E8600FECC313FCED13FDEE13FEEF13FF2B
:0312B100D8F1224F
:1012B400E8600FEFC333FFEE33FEED33FDEC33FC98
:0312C400D8F1223C
:1012C700BB010789828A830213165005E9F80213C6
:1012D7000DBBFE05E9F802131F89828A83021328D2
:1012E700D083D082F8E4937012740193700DA3A396
:1012F70093F8740193F5828883E4737402936860AA
:06130700EFA3A3A380DFA9
:09130D00E6FB08E6FA08E6F92205
:09131600E0FBA3E0FAA3E0F922D8
:09131F00E2FB08E2FA08E2F922FF
:0C132800E493FB740193FA740293F92221
:00000001FF
