:10380C008F408D411238407FCC123495AF4012342A
:0A381C0095AF411234951238D822FE
:1036D6008F2F8C308D311238407FCC123495AF2F1E
:1036E600123495AF31123495E530FF123495123805
:0236F600D822D8
:103326008F378C388D398B3A8A3B893C1238407FEF
:10333600CC123495AF37123495AB3A053CE53CAA2E
:103346003B7002053B14F9121357FF123495E53909
:0F33560015397002153814453870DE1238D82238
:1036AC008F3AE4F53B1238407FCC123495200C1441
:1036BC00AF3A1234951238407FCD123495D21C1289
:0A36CC0035418F3B1238D8AF3B2286
:1033E2008F2FE4F530F5311238407FCC123495201E
:1033F2000C22AF2F1234951238407FCD123495C271
:103402001C1235417530008F31D21C123541EFFE4E
:0C341200E4EE42301238D8AE30AF312268
:102E6A008F378C388D398B3A8A3B893C1238407FB0
:102E7A00CC123495AF371234951238407FCD1234C4
:102E8A0095D3E5399401E53894004008E5391539B8
:102E9A0070021538C21C123541AB3A053CE53CAA12
:102EAA003B7002053B14F9EF12139DE53915397091
:102EBA0002153814453870DCD21C123541AB3AAAD7
:0B2ECA003BA93CEF12139D1238D822E8
:103495008F42754308C296E54230E704D295800213
:1034A500C295123925E54225E0F542D29612392515
:1034B500D543E2C296D295120006D2961200063086
:0A34C5009502D20CC29612000622F6
:10354100D295120006753E08D296E53D25E0F53D7F
:10355100309503433D01123925C296123925D53ED6
:10356100E7201C04C2958002D295120006D2961261
:073571000006C296AF3D22E7
:10384000D295D296120006C20C209502D20CC295D7
:06385000120006C29622E0
:0D38D800C295120006D296120006D295226B
:050006007F0ADFFE226D
:01392500227F
:101E7A004B434D5F504F5745525F4F4E0D0A004B33
:101E8A00434D5F524541445F495251204572726F3A
:101E9A00720D0A004B434D5F524541445F4952510E
:101EAA0020253032780D0A004B434D5F4952515F6D
:101EBA00504C41595F535441545553202530327880
:101ECA000D0A0053455420004D4B434D5F48646D45
:101EDA006952656D6F76653A25640D0A004B434D6C
:101EEA005F5352435F56414C49443A253034782077
:101EFA004C6173743A253034780D0A004B434D5FB8
:101F0A005352435F56414C4944203D204C617374FF
:101F1A003A253034780D0A0003C50008000623006C
:101F2A0031520075000000802F80005C00000F8095
:101F3A00002C00805A8000080000588000320000FF
:101F4A00060080258000B400000D01050800640029
:101F5A005E01E803E40C1027001011123031202131
:101F6A0022240001101112130002030105070604BE
:101F7A001918171615141312110001020304050685
:101F8A0007080903040506080A0F19326400020447
:071F9A0006080A0C0D0E0FF2
:08391100E4900052F002379827
:103798007D017F0512380CE4FD7F02120E42900075
:0D37A800537464F07BFF7A1E797A0232912F
:101BB2008F24309403021D157F011236AC8F25ADA0
:101BC200257F0312380C300C097BFF7A1E798902BB
:101BD2003291E525644060137BFF7A1E799EE4858D
:101BE2002545F544F543F542123291E5255401D3DA
:101BF20094004003121800E5255402D39400404C8F
:101C02007F061236AC900049EFF07F071236AC9097
:101C12000060EFF0900053E07009201406FD7F078A
:101C2200120E42900049E07003123894122DFD12F8
:101C3200307B900048E0FF64046004EFB4050D7F40
:101C4200991233E2900030EEF0A3EFF0E52554084C
:101C5200D394004003122476E5255404D394004023
:101C6200187F2F1236AC90002FEFF0900037E0B4BF
:101C72003807E4FD7F38120E42E5255410D3940054
:101C82004007E4FD7F0D120E42E5255440D3940037
:101C920040287F121233E2900050EEF0A3EFF04E94
:101CA2006011900037E064016010E4FD7F13120EB2
:101CB200428007E4FD7F12120E42E5255420D394A0
:101CC2000040247F0E1236AC90002BEFF07BFF7A9F
:101CD2001E79B2E48F45F544F543F54212329190F4
:101CE200002BE0FF1234CFE4D39400E494004015BB
:101CF2007FA01233E28E278F28E527FD1232E19072
:101D020000347407F0E4D39400E4940040057FFFAC
:041D1200123618224B
:101800007F201236AC8F2B300C06E4FDFF020E4217
:101810007F811236AC900085EFF0AD2B7F20122235
:10182000B5900048EFF07F2F1236AC90002FEFF00C
:101830007F2C1236AC900028EFF0E4F529AD297F1B
:10184000091222B58F2CE52C2430FF1236AC8F2BD9
:10185000AD2B7F301222B5747C252CF582E4340048
:10186000F583EFF00529E529C3940840D07F3912AC
:1018700036AC8F2BE52B540FFD7F391222B590002B
:101880005AEFF0E52BC4540FFD7F391222B59000BA
:101890005BEFF07F3A1236AC1222AC90005CEFF0B6
:1018A0007F3B1236AC1222AC90005DEFF07F381215
:1018B00036AC8F2BAD2B7F381222B590005EEFF047
:1018C0007F3C1236AC1222AC90005FEFF07F241206
:1018D00036AC8F2CAD2C7F241222B57B007A007998
:1018E0002D7D047C007F40122E6A90002DE52DF0A6
:1018F000A3E52EF0900087E52FF0900052E530F040
:10190000FDE4FF12367B7D507F2E12380C7D467F22
:101910002512380C7D467F2612380C752D44752E05
:1019200044752F30E4F530FB7A00792D7D04FC7F7F
:1019300080123326E4F52AE4F529E529901F229345
:10194000FF742E2529F8A6070529E529B405EBE53E
:101950002A04F52D7B007A00792D7D067C007F8B93
:10196000123326E4F529E529901F2793FF742E25CD
:1019700029F8A6070529E529B409EBE4F529742E11
:101980002529F8E6FFE52A75F009A42430F582E45C
:10199000341FF583E5822529F582E43583F583E458
:1019A000934FF60529E529B409D4E52A04F52D7BE2
:1019B000007A00792D7D0A7C007F8C123326052A5F
:1019C000E52AC3940450030219377BFF7A1F795428
:1019D0007D0E7C007F8E123326E4900049F090004B
:1019E00060F090002BF0900006F0A3F090008C7453
:1019F0000AF0E4900006F0A3F0C201C214C206FD92
:0E1A00007F02120E42900053740AF012307BE7
:101A0E00122DFD7FFF12361890002BE0FF1234CFFF
:011A1E0022A5
:102C2F007BFF7A1E79CD12357DE4F527AD277F0422
:102C3F0012371A12000E7FFF1239087FFF12390860
:102C4F000527E527C3946440E3E4F529F52AF52B1E
:102C5F00752C02FB7A0079297D04FC7F4012332604
:102C6F007D277F2F12380CE4F527E5272430FFE46A
:102C7F00FD12380C0527E527C3940840ED7DAB7F87
:102C8F002412380C7D017F0512380CE4FD7F0212EF
:092C9F000E42900053741EF02255
:102ED500EC5EFCED5F4C6060900006E05EFCA3E0FC
:102EE5005F4C7054900048E0FDC394065014ED9477
:102EF50009400FED6404600AED6405600590008CDF
:102F0500EDF0E4B5070CEEB401089000487406F046
:102F15008016E4B5070CEEB402089000487407F07B
:102F250080069000487408F0E4900037F09000485F
:0B2F3500E0FF1228EE7F01227F002247
:1033A400EC5EFCED5F4C7033900006E05EFEA3E043
:1033B4005F4E602790008CE0FD640A601B7F201242
:1033C4002AA9AD077F2012380C7BFF7A1E79D29090
:0E33D400008CE0F5421232917F01227F002230
:1026D1008E2B8F2CE52B5CFEE52C5D4E70030227C3
:1026E1008B900006E0552BFEA3E0552C4E600302B3
:1026F100278BE52C6420452B70047F9680027F9701
:102701001233E28E2D8F2EE52E452D606790004805
:10271100E0FF6404600AEF6405600590008CEFF04F
:10272100E52C6420452B70129000487404F0900051
:1027310032E52DF0A3E52EF080109000487405F0ED
:1027410090004CE52DF0A3E52EF0900048E0FD7FD0
:1027510020122AA9AD077F2012380CE490003DF029
:10276100A3F090003DF0A3740FF0FD7C007F1012E8
:1027710036D68013E52C6420452B70047F0E800231
:0D2781007F10E4FD120E427F01227F002236
:103013008E2B8F2CE52B5CFEE52C5D4E70579000BC
:1030230006E0552BFEA3E0552C4E6049E52C6420A9
:10303300452B7008900032F0A3F08007E490004C19
:10304300F0A3F0E4FF1234CF90008CE0FD640A603B
:103053000E7F20122AA9AD077F2012380C8013E5BA
:103063002C6420452B70047F1180027F11E4FD1234
:083073000E427F01227F0022C2
:102476007F1C1233E28E298F2A900006E0652970B0
:1024860004A3E0652A70030225347BFF7A1E79E7F0
:10249600E4852A45852944F543F542900006E0FE89
:1024A600A3E0FFE48F498E48F547F546123291AD19
:1024B6002AAC297F007E01122ED5EF7017AD2AAC0B
:1024C60029FF7E02122ED5EF700AAD2AAC29FF7EB7
:1024D60004122ED5AD2AAC297F007E011233A4AD9D
:1024E6002AAC297F007E021233A4AD2AAC297F00D4
:1024F6007E041233A4AD2AAC297F407E001226D179
:10250600EF700AAD2AAC297F20FE1226D1AD2AAC87
:10251600297F207E00123013AD2AAC297F407E0031
:10252600123013900006E529F0A3E52AF0227BFF7E
:102536007A1F7906E4852A45852944F543F5421232
:03254600329122AD
:1032E1008D29EF24E0602524187039A206E433FF0C
:1032F100E52954016F600302373CE52930E225904E
:1033010000377438F0AD297F0802380CAD297F20D1
:103311001222B5900048EFF01239191238E5E4FD98
:05332100FF120E422224
:102AA900EF24F7602524E5602F24F9601624FB60E4
:102AB9002024F8606714605D24197067ED901F6227
:102AC90093FF22ED901F6C93FF22ED901F7293FFED
:102AD90022ED901F7A93FF22E4F540900044E0D361
:102AE90094004003434001900042E0D39400400326
:102AF900434002900043E0FF25E025E0424090007A
:102B090045E0FFC454F04240A3E0FFC4333354C04E
:102B19004240AF4022ED901F9793FF22ED901F8D09
:062B290093FF227F002251
:0922AC008F2BE52B540FFD7F3848
:1022B500E4FEEF24F7604A24E5607024F9602D24DC
:1022C500FB605324F8700302237A1470030223651C
:1022D5002419600302238FEE901F6293B50503AFA7
:1022E50006220EEEC3940A40EE7F0022EE901F6C8C
:1022F50093B50503AF06220EEEC3940640EE7F01AB
:1023050022EE901F7293B50503AF06220EEEC3941D
:102315000840EE7F0022EE901F7A93B50503AF06C5
:10232500220EEEC3941340EE7F0022ED30E1047FD0
:102335000180027F00900042EFF0ED13135403A3D8
:10234500F0ED30E0047F0180027F00900044EFF063
:10235500EDC45403A3F0EDC413135403A3F0802A72
:10236500EE901F9793B50503AF06220EEEC3940AB0
:1023750040EE7F0022EE901F8D93B50503AF062238
:0D2385000EEEC3940A40EE7F00227F00227E
:10364A008B418A428943EF6027AB410543E543AA90
:10365A00427002054214F9121357FEAB440546E5BF
:10366A0046AA457002054514F9EE12139D1F80D62D
:01367A00222D
:1035AE004D6978496E707574536F757263653A25FF
:1035BE006420523A253032780D0A004D6978496EF2
:1035CE00707574536F75726365423A256420523A72
:0535DE0025640D0A0048
:01392600227E
:03391F008F2422D0
:1028EE008F2B90006FE0542CF090006EE054F8F0B7
:1028FE00A3E054FBF01239191238E5900037E0FFCF
:10290E00600464017053E52BB40A0F900048E00494
:10291E00F0D394094010E4F0800C90008C740AF00F
:10292E00900048E52BF0900048E0FD7F20122AA988
:10293E00AD077F2012380C7F201236ACE48F49F59C
:10294E0048F547F5467BFF7A3579AE852B45F5443C
:10295E00F543F542123291801F7BFF7A3579C9908B
:10296E000037E0FFE48F45F544F543F542F549F5B0
:0F297E0048F547F546123291E4FD7F01020E4203
:1036F8008F391238E5D218E539600D753A30300641
:103708000AC206433A028003753A20AD3A7F08029E
:02371800380C6B
:10375C00AD07EDC394FF500E7F09122AA9EF441058
:0E376C00FD7F0902380CE4FD7F0912380C22A3
:1037B5001239191238E5900028E004F0D39404403A
:0D37C50002E4F0900028E0FD7F2C02380C9B
:1030D8008F3C8D3D123919E53D6016747C253CF511
:1030E80082E43400F583E0C394125019E004F080C0
:1030F80014747C253CF582E43400F583E0D3940015
:103108004003E014F0AD3C7F09122AA98F3E747C7D
:10311800253CF582E43400F583E0FD7F30122AA9CE
:0A312800AD07E53E2430FF02380C2D
:102392008F3C8D3D123919E53C24C7F53FE53D6080
:1023A20016745A253FF582E43400F583E0C394099C
:1023B2005019E004F08014745A253FF582E4340089
:1023C200F583E0D394004003E014F0E53C24C660BA
:1023D200161460381460511470030224621460648D
:1023E2002405600302247590005AE0FD7F39122A09
:1023F200A98F3E90005BE0FD7F39122AA98F3FE54D
:102402003FC454F0453EFD7F3902380C90005CE039
:10241200FD7F39122AA98F3EE4F53FE53FC454F00F
:10242200453EFD7F3A02380C90005DE0FD7F391297
:102432002AA98F3E753F08E53FC454F0453EFD7F13
:102442003B02380C90005FE0FD7F39122AA98F3ED3
:10245200753F01E53FC454F0453EFD7F3C02380C18
:1024620090005EE0FD7F38122AA98F3EAD3E7F3894
:0424720012380C22EE
:0D38E500301409C214E4FD7F0912380C22D2
:06391900300602C2062286
:0A38FE002052455345540001020416
:01392700227D
:100601008F24122BB3900053E0D394004016300195
:1006110003020B42E5245402D394005003020B421F
:10062100E014F02230012530190BC2197809E6B423
:100631005903123798200703020B42C207D21378DD
:1006410014E664186003020B420237982007030284
:1006510006E1C207D2137814E624F8603524F76066
:100661002814601C24FE600F24EC60432410707079
:100671007F0A1228EE8069E4FD7F03120E4280603A
:10068100E4FD7F04120E428057E4FD7F05120E4205
:10069100804E900037E0FFC39438400EEFD3943E74
:1006A1005008E4FDFF120E42803612373C80319033
:1006B1000037E0FFC394384006EFD3943A4009E491
:1006C100FD7F38120E428018900037E004F0D39479
:1006D1003A40037438F0900037E0FFE4FD120E4217
:1006E1007816E6600C06E6D3943C4005E4F67812F1
:1006F100F6201903020B1AC2197809E61215760BB6
:100701000E000B15030AF20408AD0508D6060AF916
:10071100070AD8080ADD0B0ABD0C08670D08610E2F
:100721000A30100884110864120A3A130A9914094C
:1007310044160AA21707E21807B81908B31A09D410
:100741001B0B07400B00420AEB4408A7450AE4468D
:100751000ACF480AC64A0AB44C07E54D0AAB4E080F
:1007610023510A8F5409F6550A8556079F58077970
:100771005909B25A00000B1AB20130010AE4FD7F97
:1007810008120E42020B1A7D017F0512380CE4FD9E
:100791007F02120E42900053741EF0020B1A900059
:1007A10037E0B409047F0480027F008F25AD257FE7
:1007B10009120E42020B1A7BFF7A3879FE12357D3F
:1007C10012000E122C2F020B1A900037E004F0D306
:1007D100943E40037439F0900037E0FFE4FD120EBF
:1007E10042020B1A900037E0FFC3942E4012EFD360
:1007F1009435500C781676017D04120E42020B1AC4
:10080100900037E0FFC394245003020B1AEFD394F6
:100811002B4003020B1A781676017D04120E420258
:100821000B1A900037E0FFC3942E4012EFD394359A
:10083100500C781676017D03120E42020B1A9000BD
:1008410037E0FFC394245003020B1AEFD3942B40DB
:1008510003020B1A781676017D03120E42020B1A5F
:10086100020B1A020B1A78167601900037E0B438A1
:10087100047F0480027F008F25AD257F38120E4250
:10088100020B1A300603020B1A7816760190003714
:10089100E0B438047F0380027F008F25AD257F38C7
:1008A100120E42020B1A1237D2020B1A12373C02F5
:1008B1000B1A900037E0FFC39446400FEFD39450DA
:1008C1005009E4FDFF120E42020B1AE4FD7F4612AD
:1008D1000E42020B1A900037E0FFC3944650030208
:1008E1000B1AEFD394504003020B1AE004F0E0B46A
:1008F100480C900043E07006900037E004F090004F
:1009010037E0B4490C900045E07006900037E004F0
:10091100F0900037E0B44A0C900046E07006900079
:1009210037E004F0900037E0D3945040037446F070
:10093100900037E0FFE4FD120E4290004F7432F058
:10094100020B1A900037E0FFC394465003020B1AC2
:10095100EFD394504003020B1AE014F0E0B44A0CB8
:10096100900046E07006900037E014F0900037E008
:10097100B4490C900045E07006900037E014F09007
:100981000037E0B4480C900043E07006900037E077
:1009910014F0900037E0C3944650037450F0900077
:1009A10037E0FFE4FD120E4290004F7432F0020B6B
:1009B1001A900037E0FFC394465003020B1AEFD39D
:1009C10094504003020B1A781676017D03120E42F1
:1009D100020B1A900037E0FFC394465003020B1A32
:1009E100EFD394504003020B1A781676017D04125E
:1009F1000E42020B1A900037E0FFC3942E4006EF1F
:100A0100D39435400D1238E5E4FD7F2E120E4202DB
:100A11000B1A900037E024D2FF122D1D8F26E526F8
:100A2100242EFF900037F0E4FD120E42020B1A7DD6
:100A3100037F0E12380C020B1A900048E0FF640489
:100A41006008EF64056003020B1A90002BE0540369
:100A5100F526B402137D017F0E12380C90002BE0B5
:100A610054FCF04401F080117D027F0E12380C908D
:100A7100002BE054FCF04402F090002BE0FF123414
:100A8100CF020B1A7D047F0F12380C020B1A7D0363
:100A91007F0F12380C020B1A7D027F0F12380C8067
:100AA100787D017F0F12380C806FE4FD7F05120EF7
:100AB100428066E4FD7F0B120E42805DE4FD7F0CF7
:100AC100120E428054E4FD7F03120E42804BE4FD7E
:100AD1007F04120E4280421231E4803D7F051228CC
:100AE100EE80367F061228EE802F7F071228EE80D7
:100AF100287F081228EE80217F091228EE801A7FB4
:100B0100011228EE80137F021228EE800C7F03125F
:100B110028EE8005E4FF1228EE301B25C21B900051
:100B210037E0FFC394384012EFD3943A500C3011A0
:100B3100047D0480027D03020E42E4FD7F38120E23
:020B410042224E
:10373C00B2063006047F0480027F03AD077F0A12B5
:10374C000E42200607E4FD7F38120E421238E522A5
:1037D200B21430140CE4FD7F24120E42E4FF0237CF
:0D37E2005CE4FDFF120E427FFF12375C22F7
:1031E400900048E0C39406504790008EE0FFC4135B
:1031F4005407F527EF5407F528E4F5290527E527B3
:10320400D394024003E4F527E52790390593552824
:10321400600EE527C43354E04528FD7F2102380CB5
:103224000529E529C3940340D3E4FD7F06020E4239
:07323400E4FDFF120E42222F
:102BB300780EE6FF7008C2A0D2A1D2A28012EFB4B1
:102BC3000108D2A0C2A1D2A28006D2A0D2A1C2A2E1
:102BD300E4FE2082010E2083034306022084034384
:102BE3000604208503430608EE602EEFC454F02E3E
:102BF300FE7814E6B5061690008DE004F0D3940831
:102C03004029201302D207E490008DF022C213E47E
:102C130090008DF07814A60622780E06E6D394026F
:0C2C23004002E4F6C213E490008DF022A1
:102CA800200F1830871030860D780D06E6D3940370
:102CB8004004E4F6D20FC20AC20B22A28730860172
:102CC800B3503A300F25A2869211A211301501B3E4
:102CD8005005780BE67002D21BA2119215780B767C
:102CE80003E4780DF6C20FC20B800F300B0A780B85
:102CF8007603E4780DF6C20FD20BC20A222087149D
:102D0800208611300A0A780B7603E4780DF6C20F94
:052D1800D20AC20B22EB
:1015C3004B434D2D4E4F00202D4F46462D002048B6
:1015D300454C4C4F004D5554452020004D55544526
:1015E3002D2D00564F4C20202000564F4C20004EEE
:1015F3004F49534520004652535020004345535012
:101603002000535753502000535253502000424B55
:10161300535020004C504620004C49505300465232
:10162300444C20004345444C20005357444C200075
:10163300424B444C2000496E536F757263653A25E3
:10164300642025642025640D0A0056494445302052
:10165300002020202020200050434D00322F340052
:1016630020464C41542000534F554E44004E4947A9
:101673002D4F4E004E49472D4F46004657444F4E7F
:1016830045004D5033002020004252494748004650
:101693004C547443455474535754744652547453BE
:1016A30052547442525474424C5474534C54740004
:1016B300464C5472434554725357547246525472B3
:1016C3005352547242525472424C5472534C547299
:1016D300004D4943314D4943324543484F524550EC
:1016E3005444454C5952455642004155582D494E94
:1016F3004F5054494341434F412D4431434F412DB2
:101703004432202D53442D20202D5553422D48443F
:101713004D492D3148444D492D3248444D492D33CF
:1017230048444D492D410020204849464920322B49
:10173300314348004D4F444500322F30312F303272
:101743002F30332F30322F31332F31322F32332F8B
:1017530032332F33332F34322F33322F3400534469
:101763002D494E2053442D4F555455442D494E2059
:1017730055442D4F55540033324B34384B35364B8B
:1017830036344B38304B39364B31313231323831D4
:10179300363031393232323432353633323033380F
:1017A30034000002070000243F000600DB00CF00E6
:1017B300E600ED00FD000700FF00EF00F7128F00C9
:1017C30039120F00F900F100BD00F61209001E0CDA
:1017D30070003805360936003F00F3083F08F30070
:1017E300ED1201003E243028362D0000EE240900BE
:0D17F300C0240012C00010181C1C1E1E1F78
:10313200C2A5C2937F011239087F401238567F011F
:10314200123908D2937F01123908C2937F011239D2
:10315200087FC01238567F01123908E4F524E4FFD3
:103162001238567F011239080524E524C394104011
:10317200ED7F0A123908D293E4FDFF12367BE4FF99
:093182001237EFE4900034F02252
:102549008F24300E05C20E12000EE5245402D394D6
:1025590000500302260D900034E0601514F0700756
:102569007F01123618800A900034E05401FF1236B8
:1025790018900053E0D39400400302260D30060C56
:1025890090004FE07006FD7F0A120E4220015B9019
:10259900004FE0605514F07027201407FDFF120E5C
:1025A900428047900037E024DCFF122D1D8F25E57E
:1025B900252424FFE4FD120E42AF2512375C802A40
:1025C90030002790004FE0FF75F00584E5F0701AA0
:1025D900EF75F00584F525900037E0FFE52530E03B
:1025E900047D0280027D01120E422001172006148B
:1025F90020141130050E900049E0540FC394004097
:052609000312318B22D9
:100E42008F378D38E538700890004F7414F0C20067
:100E5200C205C2A512382690006EE0540FF0E537A5
:100E62001215760F08000F39010F4B020F8F030F77
:100E72009C040FA9050FB4060FC0070F3F080F60AF
:100E8200090FF10A0FC60B0FCC0C0FD20D0FD80EA3
:100E92000FD80F0FD8100FD8110FE3120FE913104C
:100EA2009A24109A25109A26109A27109A28109A96
:100EB20029109A2A109A2B10A32E10A32F10A330B8
:100EC20010A33110A33210A33310A33410A3351092
:100ED2004D3810AF3910AF3A10AF3B10AF3C10AFE6
:100EE2003D10AF3E10C74610C74710C74810C7494C
:100EF20010C74A10BB4B10BB4C10BB4D10BB4E1061
:100F0200BB4F000010D1200C17900048E0FF640492
:100F12006004EFB4050512260E800E122FAA800976
:100F22007BFF7A1579C312357DE4900037F090008B
:100F32004FF0D2050210D1122FAA0210D17BFF7AF4
:100F42001579CA12357D0210D17BFF7A1579D1123B
:100F5200357D12000E90004F740AF00210D1E53870
:100F6200B4041D90004F7414F0900052E004F0D3CA
:100F720094024002E4F0900052E0FD7F4312380CEC
:100F8200900052E0FD7F0112367B0210D11238E54B
:100F9200AD387F031220B40210D11238E5AD387F8C
:100FA200041220B40210D11238E57F041235E30294
:100FB20010D190004F7432F012386C0210D1122806
:100FC200470210D112345A0210D11233650210D1E5
:100FD2001238BA0210D1E53724F2FF12388102101A
:100FE200D112323B0210D112260ED2050210D1E5E7
:010FF20038C6
:100FF3006003B4040890004F7450F0D200E538C386
:1010030094024005E538B4040B7BFF7A1579D812B6
:10101300357D800EE538B402097BFF7A1579DF123E
:10102300357DE538B4040A7D037F0812380C0210BD
:10103300D1E538640360030210D190004F7414F0BB
:101043007D027F0812380C0210D1E538C3940340A7
:1010530015900037E0B4380EE538B404047F0180FE
:10106300027F001236F8E538B4020B7BFF7A15795C
:10107300E612357D80587BFF7A1579ED12357D9028
:10108300002FE0FD7F0412371AE538704190004FBE
:101093007450F0D2008037AD38AF37122A20802E3B
:1010A3001238E5AD38AF3712298D80221238E5ADFD
:1010B30038AF37122D8D80161238E5AD38AF3712A1
:1010C3001D16800A1238E5AD38AF371221C29000E1
:0510D30037E537F022B3
:103365007F091236AC8F39301413900037E0B40C56
:103375000C0539E539D394074003E4F539AD397FB8
:103385000912380C7BFF7A1579F212357DE5391271
:0F33950010D8301409E4900035F0FF12375C2295
:102D1D00EFB407005067902D2AF8282873022D3F35
:102D2D00022D54022D60022D63022D78022D840296
:102D3D002D87900043E060037F0122900044E06006
:102D4D00037F02227F0322900044E060037F022272
:102D5D007F03227F0322900045E060037F042290D1
:102D6D000046E060037F05227F0022900046E06070
:102D7D00037F05227F00227F06227F07227F00220C
:102A20008F398D3AE53AC39403401E900037E0B5E4
:102A3000391724DCFFE53AB404047D0180027D00EF
:102A40001230D890004F7450F074DC2539F5397588
:102A5000F004A42492F97416123578E53AB4020E03
:102A60007D207F041210DD7D207F050210DD747C47
:102A70002539F582E43400F583E0F53BC394095031
:102A8000147D2D7F041210DDC37439953BFD7F0545
:102A90001210DD80117D207F041210DDE53B24271C
:092AA000FD7F051210DDD20022B9
:10298D008F398D3AE53AC39403401E900037E0B578
:10299D00391724D2FFE53AB404047D0180027D008D
:1029AD001230D890004F7450F074D22539F5397526
:1029BD00F004A424B3F97416123578E53AB4020E76
:1029CD007D207F041210DD7D207F050210DD747CDB
:1029DD002539F582E43400F583E0F53BC3940950C5
:1029ED00147D2D7F041210DDC37439953BFD7F05D9
:1029FD001210DD80117D207F041210DDE53B2427B0
:102A0D00FD7F051210DDE53A700890004F7450F00F
:032A1D00D20022C2
:102D8D008F398D3AE53AC39403401D900037E0B575
:102D9D003916E53AB404047D0180027D00AF391285
:102DAD00239290004F7450F074C72539F53975F0A2
:102DBD0004A424D4F974161235787D207F041210E2
:102DCD00DDE53AB402077D207F050210DD745A253A
:102DDD0039F582E43400F583E0F53B2430FD7F05C1
:102DED001210DDE53A700890004F7450F0D20022B9
:101D16008F398D3A90006EE04450F0A3E0F09000C9
:101D26004F7450F07D207F041210DD7D207F051258
:101D360010DDE53924B46056147003021DCB14700F
:101D460003021E02147003021E39147003021E7071
:101D560024056003021E797BFF7A1579F912357D19
:101D6600E53AC39403401B900042E004F0D394018B
:101D76004002E4F0E4FD7F24122AA9AD077F241275
:101D8600380CE4FF12341EAD077F050210DD7BFF21
:101D96007A1579FF12357DE53AC39403401B90000E
:101DA60043E004F0D394024002E4F0E4FD7F241201
:101DB6002AA9AD077F2412380C7F0112341EAD0705
:101DC6007F050210DD7BFF7A16790512357DE53A2F
:101DD600C39403401B900044E004F0D394014002F6
:101DE600E4F0E4FD7F24122AA9AD077F2412380C03
:101DF6007F0212341EAD077F050210DD7BFF7A16C7
:101E0600790B12357DE53AC39403401B900045E0FB
:101E160004F0D394024002E4F0E4FD7F24122AA9E0
:101E2600AD077F2412380C7F0312341EAD077F05E1
:101E36000210DD7BFF7A16791112357DE53AC394DF
:101E460003401B900046E004F0D394024002E4F005
:101E5600E4FD7F24122AA9AD077F2412380C7F04E3
:101E660012341EAD077F050210DD7BFF7A16791747
:041E760012357D2282
:1021C2008F398D3AE53924B9603A14605A14607A2D
:1021D20014700302226F2404600302229090006EA6
:1021E200E04440F0A3E0F07BFF7A16791C12357DC3
:1021F200E53AC394035003022290AD3AE4FF122F52
:10220200400222907BFF7A16792112357D90006E72
:10221200E04450F0A3E0F0E53AC394034070AD3AD5
:102222007F01122F4080677BFF7A16792712357D56
:1022320090006EE04450F0A3E0F0E53AC39403400E
:102242004DAD3A7F02122F4080447BFF7A16792DE2
:1022520012357D90006EE04450F0A3E0F0E53AC301
:102262009403402AAD3A7F03122F4080217BFF7AEC
:1022720016793312357D90006EE04450F0A3E0F001
:10228200E53AC394034007AD3A7F04122F40900011
:102292004F7432F074F22539F582E434FFF583E0AD
:0A22A20075F005A4FD7F0402371A51
:102FAA0090008CE0FFB40A08900048E0FEFF800021
:102FBA008F3E7BFF7A167939E48F45F544F543F560
:102FCA004290008CE0FFE48F49F548F547F54690BA
:102FDA000048E0FFE48F4DF54CF54BF54A1232916B
:102FEA00E53E64046005E53EB4050990006FE044DF
:102FFA0020F0800790006FE054DFF0E53E75F006A0
:09300A00A424EDF97416023578D6
:10386C007BFF7A16794D12357D90008EE0FFC413E4
:05387C0054070210D802
:1020B4008F398D3A900037E065397078E5396403DB
:1020C400702F90002DE06401FFF0FD7F2B12380C7F
:1020D40090002DE0FD7F4012380C900087E06401F1
:1020E40070030221917401F0FD7F4212380C022129
:1020F4009190002EE004F0C394044002E4F09000B8
:102104002EE0FFC39403500BEF4410FD7F2B1238D5
:102114000C80077D307F2B12380C90002EE0FD7F61
:102124004112380C900087E06063E4F0FD7F4212B6
:10213400380C8059900037E0B4041DE539B4031815
:1021440090002DE0FD7F2B12380C9000877401F075
:10215400FD7F4212380C8035900037E06403702D07
:10216400E5396404702790002EE0FFC39403500BFC
:10217400EF4410FD7F2B12380C80077D307F2B122B
:10218400380CE4900087F0FD7F4212380CE539B436
:10219400031290002DE075F006A4242AF974171296
:1021A400357880177BFF7A17793712357D7D207F4C
:0E21B400041210DD90002EE01210D802307BD5
:10284700900049E0FF540FC3940250030228EAE4C2
:10285700F53DEFC4540F75F003A4F5397BFF7A16E5
:10286700795412357D122DFD900049E0540F24FD57
:10287700602414604314604024FE605E24F76016F1
:1028870014601324FD24FD502F241570597BFF7A03
:1028970016795B02357D743C2539F9E43417FA7BE8
:1028A700FF75440075450075463A7F0312364A7B2B
:1028B700007A00793A02357D743C2539F9E43417FA
:1028C700FA7BFF75440075450075463A7F0312365B
:1028D7004A7B007A00793A02357D7BFF7A16795F69
:0728E70002357D122FAA2229
:10341E00AE07EE700C900042E060037F4C227F53AB
:10342E0022BE020C900044E060037F59227F4E22A0
:10343E0074422EF582E43400F583E0FDB402037F7E
:0C344E004C22EDB401037F53227F4E227C
:1035E300EFC39403400A900037E0B405031237B5E4
:1035F300900028E070097BFF7A16796302357D7BA2
:10360300FF7A16796A12357D900028E02430FD7F19
:05361300051210DD228C
:10345A007F231236AC8F39900037E0B40B16E5396A
:10346A00C3943250057539328003E4F539AD397F9A
:10347A002312380CE53960097BFF7A167970023518
:0B348A007D7BFF7A16797712357D22DA
:0F38BA0090004F7432F07BFF7A16797E02357DD5
:1038810090004F7432F0EF75F006A42461F97417BB
:0338910002357885
:10323B0090004F7414F090006EE054BFF07BFF7A57
:10324B0016795412357D90003EE02401FD90003D2F
:10325B00E03400FCE4FF12278E8F4005407D2F12D7
:10326B0010DD900048E0B4040D900032E0FEA3E0C6
:10327B00FFAC06FD800B90004CE0FEA3E0FFAC061C
:06328B00FDAF4002278E9A
:10260E00C3900051E09403900050E09400500302F8
:10261E00323BC3900051E09405900050E09400507E
:10262E0064900060E0FF131313541FF539900049B6
:10263E00E0540F640A704E90004F7414F0E539D3D5
:10264E0094004041E5399410503B754400754500A7
:10265E0075463A7BFF7A1679857F0312364AE5393D
:10266E0075F003A42477F9741735F0FA7BFF7544DF
:10267E000075450075463D7F0312364A7B007A0091
:10268E00793A02357D7BFF7A16798912357D900075
:10269E0050E0FEA3E0FF7C007D3C1213D1AD077F1E
:1026AE000212371A900050E0FEA3E0FF7C007D3C42
:1026BE001213D17F0412371A90006EE04440F0A33B
:0326CE00E0F02217
:10367B008D39EFD39400400E7BFF7A16798C12357F
:10368B007DE5391210D8C2937F01123908E53990C4
:10369B0017A5934488FF1238567F01123908D2932D
:0136AB0022FC
:102F4000EF70047C0180027C00EC146011146012AC
:102F5000146013146014240470127E13800E7E0912
:102F6000800A7E0980067E0980027E09BD042474E1
:102F7000382FF582E43400F583E0D39E4002EEF072
:102F800074382FF582E43400F583E0C39E501AE0D4
:102F900004F022BD031374382FF582E43400F58366
:0A2FA000E0D394004003E014F02297
:10307B00900087E0600790002DE0FF800790002E06
:10308B00E02402FF90006FE0542CF0EF146010145A
:10309B00601614601C1460221460282405702B9099
:1030AB00006FE04401F0802290006FE04402F0805A
:1030BB001990006FE04480F0801090006FE0444066
:0D30CB00F0800790006FE04410F0D20E225C
:102DFD0090006EE054F8F0A3E054FBF0900049E031
:102E0D00540F24FD603514603B14603824FE60407F
:102E1D0024F7602714602424FD24FD502724157009
:102E2D0039900085E0FF64536030EF6456602B905D
:102E3D00006EE04404F0A3E0F0801F90006FE044CA
:102E4D0004F0801690006EE04401F0A3E0F0800ADB
:0D2E5D0090006EE04404F0A3E0F0D20E22DD
:1034CF00EF5403FE900071E054F0F0BE0106E044AB
:1034DF0008F0800ABF0207900071E04404F0EF5437
:1034EF00C0FE6013BEC009900071E04401F0800778
:0A34FF00900071E04402F0D20E22AA
:103618008F37E537B4FF117F0D1236ACEF30E70472
:103628007F0180027F008F37E537600C90006EE0E5
:103638004408F0A3E0F0800790006EE054F7F0D261
:023648000E2250
:0535780035F0FA7BFFB5
:10357D008B418A428943E4F545AB410543E543AAB6
:10358D00427002054214F9121357F5446012AD440E
:10359D00AF451210DD0545C3E5456480948640D9DD
:0135AD0022FB
:10278E008F418C428D43AE42AF437C277D10121396
:10279E00D1EF4E601AEF2430FDAF4105411210DD2E
:1027AE00AE42AF437C277D101213D18C428D43AEC7
:1027BE0042AF437C037DE81213D1EF4E601AEF2433
:1027CE0030FDAF4105411210DDAE42AF437C037DBB
:1027DE00E81213D18C428D43AE42AF437C007D6430
:1027EE001213D1EF4E601AEF2430FDAF41054112A6
:1027FE0010DDAE42AF437C007D641213D18C428D4E
:10280E0043AE42AF437C007D0A1213D1EF4E601AE5
:10281E00EF2430FDAF4105411210DDAE42AF437CD7
:10282E00007D0A1213D18C428D43AF410541E54321
:09283E002430FD1210DDAF41222F
:10371A008F408D41E54175F00A842430FD1210DD99
:10372A00E54004FFE54175F00A84E5F02430FD0226
:02373A0010DDA0
:0510D8002431FD7F053D
:1010DD008F468D47E546C3940340030211A8E547AB
:1010ED00C394304012E547D39439500B74D0254743
:1010FD00F54704F548804CE547C39461400FE5473B
:10110D00D3947A5008E54724AAF5488036E547C3BD
:10111D009441400FE547D3945A5008E54724CAF54A
:10112D00488020E54724D5601224FC600924027014
:10113D000F754825800D7548268008754827800352
:10114D00E4F548E54825E024A8F582E43417F58355
:10115D00E493FEE54625E02462F582E43400F58350
:10116D00EEF0A3E4F0E54625E02462F582E43400D8
:10117D00F583C083C082E0FEA3E0FFE54825E024AF
:10118D00A9F582E43417F583E493FDEEEF4DFFD01E
:10119D0082D083EEF0A3EFF0021354E546C394061C
:1011AD0040030212DEE547C394304066E547D39411
:1011BD0039505F74D02547F54704F54825E024A83C
:1011CD00F582E43417F583E493FEE54625E02462C9
:1011DD00F582E43400F583EEF0A3E4F0E54625E076
:1011ED002462F582E43400F583C083C082E0FEA35F
:1011FD00E0FFE54825E024A9F582E43417F583E402
:10120D0093FDEEEF4DFFD082D083EEF0A3EFF00211
:10121D001354E54712157612672D126C4112714267
:10122D00127643127B44128045128546128A47126C
:10123D009448128F4912994C129E4E12A34F12A828
:10124D005012AD5212B25312B75412BC5512C159AD
:10125D0012AD7212B774000012C67547C0805D756D
:10126D0047F7805875477C8053754739804E7547D1
:10127D00DE80497547F980447547F1803F7547EF2A
:10128D00803A75470680357547F68030754738804A
:10129D002B754737802675473F80217547F3801C96
:1012AD0075475080177547ED80127547F8800D759D
:1012BD00473E800875476E8003E4F547E54625E017
:1012CD002462F582E43400F583E4F0A3E547F08071
:1012DD0076E546D39406401AE546940D5014E5473D
:1012ED00C39401400DE547D394055006E5472426E8
:1012FD00F548E54825E024A8F582E43417F583E4A4
:10130D0093FEE54625E02462F582E43400F583EE94
:10131D00F0A3E4F0E54625E02462F582E43400F51F
:10132D0083C083C082E0FEA3E0FFE54825E024A949
:10133D00F582E43417F583E493FDEEEF4DFFD08293
:0A134D00D083EEF0A3EFF0D20E22E1
:10382600E4FFEF25E02472F582E43400F583E4F04A
:0A383600A3F00FEFC3940540E92250
:0638C900131313541FFF4E
:0938CF00EF54079017F893FF2253
:10318B007B007A0079277D037C007F8F122E6A30BB
:10319B000C03023826AF271238CF900072E4F0A34D
:1031AB00EFF0E5271238C9900074E4F0A3EFF0AF0D
:1031BB00281238CF900076E4F0A3EFF0E528123810
:1031CB00C9900078E4F0A3EFF0AF291238CF90004C
:0931DB007AE4F0A3EFF0D20E2219
:10389400E4FFE4900072F0A3F00FEFC3940540F24C
:0338A400D20E221F
:1037EF00E4FEEFFDEE25E02462F582E43400F5837C
:0D37FF00E4F0A3EDF00EEEC3940D40E622C1
:10000E00E4FF74082FF582E43400F583E4F00FEF7B
:10001E00C3941040ED900062E0FEA3E0FF30E007D5
:10002E00900016E04408F0EF30E10790000FE04436
:10003E0008F0EF30E207900008E04408F09000630B
:10004E00E030E30790000BE04408F0900062E0FE21
:10005E00A3E0FF30E407900013E04408F0EF30E532
:10006E0007900017E04408F0EF30E607900011E02B
:10007E004408F0900063E030E70790000EE044087B
:10008E00F0900062E0FEA3E0FFEE30E00790001576
:10009E00E04408F0EE30E107900014E04408F0EE82
:1000AE0030E20790000DE04408F0900062E0A330CB
:1000BE00E307900009E04408F0900062E0FEA3E040
:1000CE00FFEE30E40790000AE04408F0EE30E5075A
:1000DE00900010E04408F0900064E0FEA3E0FF30D2
:1000EE00E007900016E04420F0EF30E10790000F9B
:1000FE00E04420F0EF30E207900008E04420F0905A
:10010E000065E030E30790000BE04420F0900064BF
:10011E00E0FEA3E0FF30E407900013E04420F0EF90
:10012E0030E507900017E04420F0EF30E60790002E
:10013E0011E04420F0900065E030E70790000EE0FB
:10014E004420F0900064E0FEA3E0FFEE30E0079064
:10015E000015E04420F0EE30E107900014E044205A
:10016E00F0EE30E20790000DE04420F0900064E0E5
:10017E00A330E307900009E04420F0900064E0FE15
:10018E00A3E0FFEE30E40790000AE04420F0EE30EA
:10019E00E507900010E04420F0900066E0FEA3E03A
:1001AE00FF30E007900016E04410F0EF30E10790CA
:1001BE00000FE04410F0EF30E207900008E044102A
:1001CE00F0900067E030E30790000BE04410F090F1
:1001DE000066E0FEA3E0FF30E407900013E0441059
:1001EE00F0EF30E507900017E04410F0EF30E6072F
:1001FE00900011E04410F0900067E030E7079000A7
:10020E000EE04410F0900066E0FEA3E0FFEE30E05A
:10021E0007900015E04410F0EE30E107900014E076
:10022E004410F0EE30E20790000DE04410F0900024
:10023E0066E0A330E307900009E04410F0900066FA
:10024E00E0FEA3E0FFEE30E40790000AE04410F079
:10025E00EE30E507900010E04410F0900068E0FEEC
:10026E00A3E0FF30E007900016E04404F0EF30E129
:10027E000790000FE04404F0EF30E207900008E032
:10028E004404F0900069E030E30790000BE0440472
:10029E00F0900068E0FEA3E0FF30E407900013E06A
:1002AE004404F0EF30E507900017E04404F0EF301F
:1002BE00E607900011E04404F090006AE0FEA3E02F
:1002CE00FF30E007900016E04480F0EF30E1079039
:1002DE00000FE04480F0EF30E207900008E0448029
:1002EE00F090006BE030E30790000BE04480F0905C
:1002FE00006AE0FEA3E0FF30E407900013E04480C4
:10030E00F0EF30E507900017E04480F0EF30E6079D
:10031E00900011E04480F090006CE0FEA3E0FF300E
:10032E00E007900016E04402F0EF30E10790000F76
:10033E00E04402F0EF30E207900008E04402F09053
:10034E00006DE030E30790000BE04402F090006C8B
:10035E00E0FEA3E0FF30E407900013E04402F0EF6C
:10036E0030E507900017E04402F0EF30E60790000A
:10037E0011E04402F090006EE0FEA3E0FF30E007D3
:10038E00900016E04401F0EF30E10790000FE044DA
:10039E0001F0EF30E207900008E04401F090006FAA
:1003AE00E030E30790000BE04401F090006EE0FEB9
:1003BE00A3E0FF30E407900013E04401F0EF30E5D6
:1003CE0007900017E04401F0EF30E607900011E0CF
:1003DE004401F090006FE030E70790000EE044011A
:0403EE00F090006E1D
:1003F200E0FEA3E0FFEE30E007900015E04401F0DC
:10040200EE30E107900014E04401F0EE30E2079094
:10041200000DE04401F090006EE0A330E30790008D
:1004220009E04401F090006EE0FEA3E0FFEE30E44C
:1004320007900012E04420F0EE30E507900012E051
:100442004410F0EE30E607900012E04404F0900011
:1004520070E0FEA3E0FF30E00790000DE04404F0FE
:10046200EF30E107900014E04404F0EF30E207902F
:100472000015E04404F0900071E030E30790000EB4
:10048200E04404F0900072E0FEA3E0FF30E0079049
:100492000009E04480F0EF30E10790000DE0448075
:1004A200F0EF30E207900014E04480F0900073E037
:1004B20030E307900015E04480F0900073E030E4F0
:1004C2000790000EE04480F0900074E0FEA3E0FF8D
:1004D20030E00790000DE04402F0EF30E1079000B9
:1004E20014E04402F0EF30E207900015E04402F01D
:1004F200900075E030E30790000EE04402F09000B7
:1005020076E0FEA3E0FF30E007900013E04440F005
:10051200EF30E10790000BE04440F0EF30E207904B
:100522000008E04440F0900077E030E30790000FCD
:10053200E04440F0900077E030E407900016E04499
:1005420040F0900078E0FEA3E0FF30E00790001555
:10055200E04440F0EF30E10790000EE04440F0EF5D
:1005620030E207900011E04440F0900079E030E37F
:1005720007900017E04440F090007AE0FEA3E0FF0D
:1005820030E007900010E04440F0EF30E1079000C7
:100592000AE04440F0EF30E207900009E04440F006
:1005A20090007BE030E30790000DE04440F09000C3
:1005B2007BE030E407900014E04440F0C2937F01F6
:1005C2001239087F401238567F01123908D2937FC0
:1005D20001123908C2937F011239087FC0123856BE
:1005E200E4F53974082539F582E43400F583E0FF37
:0F05F2001238560539E539C3941040E7D29322E9
:103856007E08C290EF139291EFC313FFD2901EEE33
:06386600D3940050ED2296
:10377A00AE0753050FEDC3940A5006ED2430FFFD42
:0E378A0022EE6005ED2457FF22ED2437FF22CA
:101A1F008F698D6AE56A7029AF6EAE6DAD6CAC6B78
:101A2F00EC4D4E4F701BAB6FAA70A971743012132F
:101A3F009DAB6FAA70A971900001E41213AF7F01E3
:101A4F0022E4F572F573E56964646009E56964750C
:101A5F006003021B4D7579007578CA75779A757694
:101A6F003BE569B4643FE4FFFEFDE56B5480FC6029
:101A7F0034AB6FAA70A971AF7305738F8275830032
:101A8F00742D1213AFE56EFBE56DFAE56CF9E56B9E
:101A9F00547FF8C3E49BF56EE49AF56DE499F56C09
:101AAF00748098F56B75740BAB79AA78A977A876C3
:101ABF00AF6EAE6DAD6CAC6B12148D8F751574E58A
:101ACF0074656A6004E5756003757201E572601AEA
:101ADF00AD75E4FF12377AAB6FAA70A971AE7305BB
:101AEF00738E82758300EF1213AFAF6EAE6DAD6C58
:101AFF00AC6BAB79AA78A977A87612148DAC00AD30
:101B0F0001AE02AF038F6E8E6D8D6C8C6BAF79AEA5
:101B1F0078AD77AC76E47B0AFAF9F812148D8F79E9
:101B2F008E788D778C76E4FFFEFDFCAB79AA78A9D1
:101B3F0077A876C312151F6003021AB78052757407
:101B4F002075750974FC2574F574AF6EAE6DAD6CB0
:101B5F00AC6BF9F8121530AD071575E575656A6050
:101B6F0003ED6003757201E5726021E569B45804F5
:101B7F007F0180027F0012377AAB6FAA70A971AE16
:101B8F007305738E82758300EF1213AFE57470B413
:101B9F00AB6FAA70A971857382758300E41213AFBE
:031BAF00AF7322EF
:100B43008B548A558956E4F55DF55EAB57AA58A9CF
:100B530059AF5DEF3395E08F82F5831213706425EF
:100B63006051D3E55E6480949E4003AF5E22AB5731
:100B7300AA58A959AF5D055DEF3395E08F82F583E0
:100B8300121370FFAB54AA55A956AE5E055EEEFD77
:100B93003395E08D82F583EF1213AFAB57AA58A9B3
:100BA30059AF5DEF3395E08F82F583121370709B1D
:100BB300AF5E22AF5DEF3395E08F82F583A3AB5732
:100BC300AA58A959121370F5636473706BAB5AE595
:100BD3005CF92403F55CE55BFA3400F55B1215560A
:100BE3008B608A618962055D055DE4F55FAB60AA90
:100BF30061A962AF5FEF3395E08F82F583121370C3
:100C03007003020B4EC3E55E6480949E4003020BA7
:100C13004E055FEF3395E08F82F583121370FFABC0
:100C230054AA55A956AE5E055EEEFD3395E08D825E
:100C3300F583EF1213AF80B5E563B4251E055D059B
:100C43005DAB54AA55A956AF5E055EEF3395E08FB1
:100C530082F58374251213AF020B4EE563B463323E
:100C6300055D055DAB5AE55CF92402F55CE55BFACD
:100C73003400F55B121426FFAB54AA55A956AE5E99
:100C8300055EEEFD3395E08D82F583EF1213AF021F
:100C93000B4EE4F564F55FAF5DEF3395E0FEEF24B3
:100CA30001FFE43EFEAD5FED3395E0FCED2FF582F1
:100CB300EC3EF583AB57AA58A959121370F563C3D9
:100CC300648094B0401ED3E563648094B95015E505
:100CD3006324D0FFE56475F00AA42FF564055FE58E
:100CE3005FB403B3AF5DEF3395E0FEEF2401FFE4A0
:100CF3003EFEAD5FED3395E0FCEF2DFFEE3CFEAB2A
:100D030057E5592FF9E5583EFA8B60F5618962E59D
:100D13005D2402255FF55D121357249C600F24EFB9
:100D2300600B24FD600724206003020B4EAB5A05C1
:100D33005CE55CAA5B7002055B14F9121357FF3381
:060D430095E08F68F567E2
:100D4900F566F565FEAD66AC6578081215438F68E2
:100D59008E678D668C65055CE55CAA5B7002055B38
:100D690014F9121357FF3395E0FEFDFCE5684FF5C2
:100D790068E5674EF567E5664DF566E5654CF56529
:100D8900AF68AE67AD66FC78081215438F688E6749
:100D99008D668C65055CE55CAA5B7002055B14F9E0
:100DA900121357FF3395E0FEFDFCE5684FF568E542
:100DB900674EF567E5664DF566E5654CF565AF681F
:100DC900AE67AD66FC78081215438F688E678D662D
:100DD9008C65055CE55CAA5B7002055B14F912136E
:100DE90057FF3395E0FEFDFCE5684FF568E5674E72
:100DF900F567E5664DF566E5654CF565AB60AA6195
:100E0900A962121357FFC00785686E85676D8566ED
:100E19006C85656BAF5EEF3395E0FEE5562FF9E51E
:100E2900553E85546FF5708971D007AD64121A1F4C
:090E3900EF255EF55E020B4E226E
:103291008B3F8A4089417551007552007553428BAD
:1032A100578A58895985515A85525B85535C7B01F0
:1032B1007A00798F120B43E4FEC3EF6480F8EE6469
:1032C1008098501BC299EEFD3395E0FC748F2DF56B
:1032D1008274003CF583E0F5993099FD0E80DA2285
:103509001238A71231321239271239261239117895
:1035190013E6FF5401D3940040F5121BB27813E669
:10352900FF1206017813E6FF1225497813E6FF1208
:08353900391FE47813F680D776
:1038A700758921758851759850758DFF4387807587
:0338B700A88322C1
:033922008F0822E9
:09390800EFD394034002DFFE221C
:03000B00021FA130
:101FA100C0E0C0F0C083C082C0D075D000C000C006
:101FB10001C002C003C004C005C006C007758A6025
:101FC100758CFF781006E675F00A84E5F06003026F
:101FD100205C122CA87810E675F06484E5F0703B63
:101FE100F678137601780C06E675F00A84E5F07050
:101FF1002A7813E64402F6780CE6FF75F03284E5A0
:10200100F070187813E64404F6EF75F06484E5F097
:102011007009780CF67813E64408F630053D900017
:102021002CE004F0D394134006E4F0D2A5802C9068
:102031000052E0FF700B90002CE0B40104C2A580B7
:102041000DEFB4010990002CE0B40402C2A5EFB475
:10205100020990002CE0B40802C2A5780FE66038AE
:1020610006E6D3949F40312008247811E6B4021E7D
:102071007816E660197812E6FFC39408500EEF5403
:1020810003FFBF0302D2197812068002D219781118
:102091007600C208780F7600D007D006D005D004AC
:1020A100D003D002D001D000D0D0D082D083D0F0E4
:0320B100D0E0324A
:03000300022B2F9E
:102B2F00C0E0C0D075D000C000C006C00720086547
:102B3F00781106E6FFB4020C780FE6D39491405556
:102B4F00D2088051780AE6FEC313F6780FE6D394C5
:102B5F00104006780AE64480F6EF640A6004EFB48A
:102B6F001A07780AE618F6802CEFB41212780AE6E4
:102B7F00B4BF0418E6601E78167600D2088016EFF0
:102B8F00B42212D21978127600780AE6F418666029
:102B9F0004C219D208780F7601D007D006D000D022
:042BAF00D0D0E03270
:030000000238F2D1
:0C38F200787FE4F6D8FD75817902350975
:10135700BB010689828A83E0225002E722BBFE0294
:09136700E32289828A83E49322C7
:10137000BB010CE58229F582E5833AF583E0225032
:1013800006E92582F8E622BBFE06E92582F8E2227C
:0D139000E58229F582E5833AF583E4932296
:10139D00BB010689828A83F0225002F722BBFE012F
:0213AD00F32229
:1013AF00F8BB010DE58229F582E5833AF583E8F074
:1013BF00225006E92582C8F622BBFE05E92582C820
:0213CF00F22208
:1013D100BC000BBE0029EF8DF084FFADF022E4CC00
:1013E100F875F008EF2FFFEE33FEEC33FCEE9DECC9
:1013F100984005FCEE9DFE0FD5F0E9E4CEFD22ED0F
:10140100F8F5F0EE8420D21CFEADF075F008EF2F58
:10141100FFED33FD4007985006D5F0F222C398FD49
:051421000FD5F0EA22E6
:10142600BB010A89828A83E0F5F0A3E02250068791
:10143600F009E71922BBFE07E3F5F009E319228953
:0B144600828A83E493F5F07401932286
:1014510075F008758200EF2FFFEE33FECD33CDCC52
:1014610033CCC58233C5829BED9AEC99E5829840D5
:101471000CF582EE9BFEED9AFDEC99FC0FD5F0D6B2
:10148100E4CEFBE4CDFAE4CCF9A88222B800C1B9DC
:101491000059BA002DEC8BF084CFCECDFCE5F0CB1A
:1014A100F97818EF2FFFEE33FEED33FDEC33FCEB53
:1014B10033FB10D703994004EB99FB0FD8E5E4F90E
:1014C100FA227818EF2FFFEE33FEED33FDEC33FCFB
:1014D100C933C910D7059BE99A4007EC9BFCE99AEF
:1014E100F90FD8E0E4C9FAE4CCFB2275F010EF2F34
:1014F100FFEE33FEED33FDCC33CCC833C810D70734
:101501009BEC9AE899400AED9BFDEC9AFCE899F86E
:0E1511000FD5F0DAE4CDFBE4CCFAE4C8F92201
:10151F00EB9FF5F0EA9E42F0E99D42F0E89C45F022
:01152F002299
:10153000E8600FECC313FCED13FDEE13FEEF13FF99
:03154000D8F122BD
:10154300E8600FEFC333FFEE33FEED33FDEC33FC06
:03155300D8F122AA
:10155600BB010789828A830215A55005E9F80215A1
:101566009CBBFE05E9F80215AE89828A830215B78F
:10157600D083D082F8E4937012740193700DA3A304
:1015860093F8740193F5828883E473740293686018
:06159600EFA3A3A380DF18
:09159C00E6FB08E6FA08E6F92274
:0915A500E0FBA3E0FAA3E0F92247
:0915AE00E2FB08E2FA08E2F9226E
:0C15B700E493FB740193FA740293F92290
:00000001FF
