:103A18008F388D39123AB27FCC123607AF3812364A
:0A3A280007AF39123607123B5E2289
:103903008F2C8C2D8D2E123AB27FCC123607AF2C12
:10391300123607AF2E123607E52DFF123607123B7C
:023923005E2222
:103556008F3D8B3E8A3F8940123AB27FCC123607A6
:10356600AF3D123607AB3E0540E540AA3F70020567
:103576003F14F9120BFAFF123607E54215427002A4
:0B358600154114454170DE123B5E222F
:10388E008F34E4F535123AB27FCC123607200C1481
:10389E00AF34123607123AB27FCD123607D21E124D
:0A38AE00367B8F35123B5EAF3522EA
:1034DE008F2CE4F52DF52E123AB27FCC1236072042
:1034EE000C22AF2C123607123AB27FCD123607C21B
:1034FE001E12367B752D008F2ED21E12367BEFFEDE
:0C350E00E4EE422D123B5EAE2DAF2E22EB
:10319C008E388F398B3A8A3B893CD3E5399401E5DB
:1031AC003894004008E539153970021538C21E12E2
:1031BC00367BAB3A053CE53CAA3B7002053B14F967
:1031CC00EF120C62E5391539700215381445387058
:1031DC00DCD21E12367BAB3AAA3BA93CEF120C6236
:0331EC00023B5E45
:103838008F318B328A338934123AB27FCC123607F1
:10384800AF31123607123AB27FCD123607AB32AA21
:0B38580033A934AF36AE3512319C228C
:103373008F308B318A328933123AB27FCC123607BF
:10338300AF30123607123AB27FCD123607C21E1281
:10339300367B7536008F37D3E5379535E53695346B
:1033A3004006853436853537AB31AA32A933AF377A
:0A33B300AE3612319CAE36AF372261
:103607008F43754408C296E54330E704D29580029C
:10361700C295123BB9E54325E0F543D296123BB973
:10362700D544E2C296D295120006D2961200063011
:0A3637009502D20CC2961200062282
:10367B00D295120006753E08D296E53D25E0F53D44
:10368B00309503433D01123BB9C296123BB9D53E6F
:10369B00E7201E04C2958002D295120006D2961224
:0736AB000006C296AF3D22AC
:103AB200D295D296120006C20C209502D20CC29563
:063AC200120006C296226C
:0D3B5E00C295120006D296120006D29522E2
:050006007F0ADFFE226D
:013BB90022E9
:1021DD004B434D5F504F5745525F4F4E004B434D54
:1021ED005F524541445F495251204572726F7200F2
:1021FD004B434D5F4952515F504C41595F535441D0
:10220D005445202530327800526573746F726541E4
:10221D002025303278202530327820253032780054
:10222D0053455420004B434D5F564F4C554D455F24
:10223D004354524C202564004B434D5F494E50553D
:10224D00545F534F555243452025303278004B4350
:10225D004D5F4C495354454E5F4D4F4445202530FD
:10226D00327800417070436F6D6D616E6420253062
:10227D00327820253032782025303278000105085B
:10228D000064005E01E803E40C1027001011123009
:10229D003132333420212224000110111213000297
:1022AD00030105070604191817161514131211004A
:0922BD00010203040506070809EB
:083B9600E4900058F00239FD33
:1039FD007D017F05123A187F02123BB49000597475
:0B3A0D0064F07BFF7A2179DD022C0AB7
:101DD6008F24309403021EEE7F0112388E8F25ADBC
:101DE600257F03123A18300C097BFF7A2179EA0223
:101DF6002C0AE5255401D394004003121876E525F4
:101E06005402D39400404B7F1812388E90004FEF47
:101E1600F07F1A12388E900066EFF0900059E0704D
:101E2600082015057F07123BB490004FE07003129F
:101E36003B08122DD9123BBE90004EE0FF640460B1
:101E460004EFB4050D7FA21234DE90002CEEF0A351
:101E5600EFF0E5255408D3940040031214AFE525AE
:101E66005404D3940040167F2F12388E90002BEF27
:101E7600F090003BE0B438057F38123BB4E52554BA
:101E860010D394004003123242E5255440D3940007
:101E960040247FA31234DE900056EEF0A3EFF04EFE
:101EA600600F90003BE06401600C7F16123BB4802B
:101EB600057F15123BB4E5255420D39400401D7FC1
:101EC600A512388E900029EFF07BFF7A2179FDF577
:101ED6003A122C0A900029E0FF123641E52554807B
:091EE600D394004003122396225C
:101876007B007A00792A7535007536047F40123868
:1018860038300C05E4FF023BB4E52A5403900058B7
:10189600F0900068E52CF0A3E52DF0852B28AD2807
:1018A6007F201226898F297BFF7A22791585283A8F
:1018B60085293B852B3C122C0AE529C39404400F4D
:1018C600E529D39408500890004EE52BF080069049
:1018D600004EE529F07F2012388E8F287B007A0093
:1018E600792A7535007536027F8112383890008E58
:1018F600E52BF07F2F12388E90002BEFF0E4F527C2
:10190600AD277F091226898F29E5292430FF123851
:101916008E8F28AD287F3012268974842529F5827A
:10192600E43400F583EFF00527E527C3940840D09B
:101936007F3912388E8F28E528540FFD7F391226FD
:1019460089900061EFF0E528C4540FFD7F39122617
:1019560089900062EFF07F2412388E8F28AD287FA1
:10196600241226897D507F2E123A187D467F251235
:101976003A187D467F26123A18752A12752B12756B
:101986002C30752D107B007A00792A75410075423E
:10199600047F801235561229871222C67BFF7A22CF
:1019A600798A75410075420E7F90123556E4900093
:1019B6004FF0900066F0900029F0C201C215C206F1
:1019C60090008CF0FF7E20121CB77F02123BB49071
:1019D6000059740AF0123BBE122DD97FFF12371A36
:1019E600900029E0FF123641900058E0FDE4FF1216
:0319F60036B222E4
:102B8F007BFF7A22792D12377DE4F527AD277F045D
:102B9F0012394712000E7FFF123B8D7FFF123B8DC4
:102BAF000527E527C3946440E3752902E4F52A75E8
:102BBF002B09752C09FB7A007929F5417542047FA1
:102BCF00401235567D277F2F123A18E4F527E52757
:102BDF002430FFE4FD123A180527E527C394084077
:102BEF00ED7DAB7F24123A187D017F05123A187FD5
:0B2BFF0002123BB4900059741EF0223B
:102396007B007A0079277534007535087F981233EB
:1023A600738F2FE52F64026003022459E52724F872
:1023B600607624E8602724F5604814605824FD60A0
:1023C600030224477BFF7A22793285283A122C0AA7
:1023D60090002BE528F07F38123BB480767BFF7A9D
:1023E60022794585283A122C0AAD287F20122689A3
:1023F60090004EEFF0123BAE123B6BE4FF123BB483
:1024060080517BFF7A22795B85283A122C0AAF2805
:10241600122A96803E7BFF7A22795B85283A122C17
:102426000AAF281237DD802BA206E433FFE52854D5
:1024360001B5071FE52830E21A90003B7438F0809A
:10244600127BFF7A227970852F3A85273B85283CB7
:08245600122C0A7F0102371A63
:102CF800EF24F7601E24E5602824F9600F24FB60A8
:102D08001924107059ED90229893FF22ED9022A576
:102D180093FF22ED9022AB93FF22ED9022B393FF15
:102D280022E4F53890004AE0D39400400343380188
:102D3800900048E0D394004003433802900049E0F3
:102D4800FF25E025E0423890004BE0FFC454F042F4
:102D580038A3E0FFC4333354C04238AF38227F0071
:012D68002248
:10268900E4FEEF24F7603D24E5606324F96020242B
:10269900FB60462410600302272AEE90229893B526
:1026A9000503AF06220EEEC3940D40EE7F0022EE25
:1026B9009022A593B50503AF06220EEEC3940640FA
:1026C900EE7F0122EE9022AB93B50503AF06220EF1
:1026D900EEC3940840EE7F0022EE9022B393B50535
:1026E90003AF06220EEEC3941340EE7F0022ED30B5
:1026F900E1047F0180027F00900048EFF0ED1313A1
:102709005403A3F0ED30E0047F0180027F009000C4
:102719004AEFF0EDC45403A3F0EDC413135403A31B
:04272900F07F00221B
:10374C008B3A8A3B893CEF6027AB3A053CE53CAAB7
:10375C003B7002053B14F9120BFAFEAB3D053FE53D
:10376C003FAA3E7002053E14F9EE120C621F80D681
:01377C00222A
:102000006752656D6F766554696D65722025303253
:1020100078004D656E7553656C656374412025309D
:102020003278004D4B434D5F507265656D70746939
:10203000626C653A25642025642F256400536F7512
:10204000726365573A253032782825303278292551
:1020500030327828253032782900536F75726365E5
:102060004A3A25303278206C6173743A25303278E0
:10207000004B434D5F5352435F56414C494420450A
:10208000202564202564004B434D5F5352435F5627
:10209000414C49443A2530327825303278204C6121
:1020A00073743A2530327825303278006D494E50BD
:1020B00055545F412025303278004B434D5F5352D9
:1020C000435F56414C4944203D204C6173743A258E
:1020D000303278253032780D0A00000102030020EA
:1020E0000040100040000100020004000405060842
:0320F000090A0BCF
:013BBA0022E8
:1036E8008F2490008CE0602904F0D394C840227F96
:1036F8004112388E8F257BFF7A20790085253A1272
:103708002C0AE490003BF0AF251233C6E490008CFD
:02371800F0229D
:103925008F32123B6BD219E532600D75333030069C
:103935000AC2064333028003753320AD337F080284
:023945003A182E
:10396900AD07EDC394FF500E7F09122CF8EF4410F8
:0E397900FD7F09023A18E4FD7F09123A182278
:1030EC008F358D36123BAEE536601674842535F57A
:1030FC0082E43400F583E0C394125019E004F080AC
:10310C001474842535F582E43400F583E0D39400FF
:10311C004003E014F0AD357F09122CF88F3774841E
:10312C002535F582E43400F583E0FD7F30122CF870
:0A313C00AD07E5372430FF023A1812
:0D3B6B00301509C215E4FD7F09123A182239
:063BAE00300602C20622EF
:0933BD00F582E43400F583E0FF21
:1033C6008F27900077E0542CF0900076E054F8F0C8
:1033D600A3E054FBF0123BAE123B6B90003BE0FFC8
:1033E6006003B401177BFF7A20791285273A122CE5
:1033F6000A90004EE527F0FDFF122FD87F01023B11
:01340600B411
:1032DC007BFF7A207923900027E0FF2433F582E4EA
:1032EC003400F583E0F53A8F3B90003CE0F53C125E
:1032FC002C0A90003CE0601B900027E02433123332
:10330C00BD90003CE0FF900027E004F0C39F400B11
:0C331C00E4F02290004EE0FF1233C622C5
:10303600E490003BF090005AE0FF601190003DE004
:10304600FEC39F500874332E1233BD802090005A61
:10305600E0FF90003DE0C39FFFE49400FE74DA2F8A
:10306600F58274203EF583E493FF1233C690005A2E
:10307600E02404FFE433FE90003DE004F0C39FEE3D
:0B3086006480F87480984002E4F0229F
:102FD8008F2C8D2DAD2C7F20122CF8AD077F201261
:102FE8003A18AD2C7F20122CF8C007AD2D7F201287
:102FF8002CF88F3DD03B7BFF7A20793D852C3A8594
:103008002D3C122C0AE52DD394035021AD2D7F20A1
:10301800122CF8AD077F41123A187F2012388E8F94
:0E3028003B7BFF7A20795A852C3A122C0A2223
:101CB7008E2E8F2FE4F53090008EE0B45311AF30A5
:101CC700053074332FF582E43400F5837407F0E5AB
:101CD7002F452E7003021DACE4F531E53125E024D4
:101CE700DEF582E43420F583E493F532740193F54D
:101CF70033E52E5532FEE52F55334E603DE533640F
:101D0700204532700C90002EE07002A3E070148022
:101D170029E53364404532700A90002EE07002A333
:101D2700E07017E5319020EC93FFAE300530743347
:101D37002EF582E43400F583EFF00531E5316407D1
:101D4700709990005AE06530600BE490003DF09088
:101D5700005AE530F0E4F53190005AE0FFE531C371
:101D67009F501C74332531F582E43400F583E0FE7F
:101D7700C394094006EED3940C4004053180D990F2
:101D8700003CE06531600BE4900027F090003CE5F3
:101D970030F07BFF7A20797190003CE0F53A8F3B79
:101DA700122C0A801F90003CE530F0E490005AF0B6
:101DB700900027F090003DF090002EF0A3F09000E7
:0F1DC70052F0A3F0900093E52EF0A3E52FF02249
:1014AF007F1C1234DE8E278F28900093E0FCA3E080
:1014BF00FD65287003EC65277003021682C21D7B41
:1014CF00FF7A207987E527F53B753A00F53C8528AB
:1014DF003DECF53F753E00F5408D41122C0AE4F5C9
:1014EF0029E52925E024DEF582E43420F583E49311
:1014FF00F52A740193F52BE527552AFEE528552B80
:10150F004E70030215C8900093E0552AFEA3E055D4
:10151F002B4E60030215C8D21DE52A7064E52B24FB
:10152F00F9605C24C7602E242070567FA01234DE31
:10153F0090002EEEF0A3EFF04E601174FF90004379
:10154F00F0A3F0FDFC7FA412390380357F0E123B10
:10155F00B4C21D802C7FA11234DE900052EEF0A396
:10156F00EFF04E601174FF900043F0A3F0FDFC7F8D
:10157F00A4123903800B7F0F123BB4C21D8002C22D
:10158F001D301D41E5299020EC93FF90004EE0FDAA
:10159F00122FD8E5299020EC9390004EF07BFF7A24
:1015AF002079ACF53A122C0AE490003BF07F01123F
:1015BF003BB4E490008CF0800C0529E529C3940717
:1015CF0050030214F0301D0302167BE4F529E529C0
:1015DF0025E024DEF582E43420F583E493F52A74C4
:1015EF000193F52BE527552AFEE528552B4E7070F4
:1015FF00900093E0552AFEA3E0552B4E6062E52B39
:10160F00852AF0120D5C16290020163B0040164D5E
:10161F0010001654400000001659E490002EF0A35D
:10162F00F0FF1236417F10123BB4801EE49000523F
:10163F00F0A3F0FF1236417F11123BB4800C7F12E2
:10164F00123BB480057F13123BB4E5299020EC9335
:10165F00FF90004EE0B5071490008C7401F0800CE1
:10166F000529E529C3940750030215DDAF28AE27DE
:10167F00021CB77BFF7A2079BAE527F53B753A0054
:09168F00F53C85283D122C0A22CD
:103B3F00205245534554000102040001102021304A
:013BBB0022E7
:100601008F24122B13900059E0D39400401630012F
:1006110003020B03E5245402D394005003020B039D
:10062100E014F022300125301A0BC21A7867E6B4C3
:1006310059031239FD200703020B03C207D21478B4
:1006410072E664186003020B030239FD20070302FE
:1006510006D2C207D2147872E624F8602B24F76020
:100661002214601824FE600D24EC6038241070619F
:10067100123036805C7F011231EF8055E4FF123178
:10068100EF804E1238B8804990003BE0FFC39438A8
:10069100400DEFD3943F5007E4FF123BB480321278
:1006A1003987802D90003BE0FFC394384006EFD39B
:1006B100943A40077F38123BB4801690003BE00427
:1006C100F0D3943A40037438F090003BE0FF123BC2
:1006D100B47874E6600C06E6D3943C4005E4F67801
:1006E10070F6201A03020ADDC21A7867E6120D3687
:1006F1000AD1000AD8030AB504088B0508B1060A15
:10070100BC070A9D080AA20B0A880C08450D083986
:100711000E0A0310086211083F120A0D130A6A1427
:10072100091D160A731707B71807A51908911A09A1
:10073100AB1B0ACA400AC3420AAE440885450AA750
:10074100460A96480A8F4A0A814C07BD4D0A7C4EDB
:1007510007FB510A615409CD550A5856078C5807B1
:100761006A5909895A00000ADDB2013001087F087F
:10077100123BB4020ADD7D017F05123A187F021295
:100781003BB4900059741EF0020ADD90003BE0B4C6
:1007910009047F0480027F008F25AD257F09121097
:1007A10032020ADD7BFF7A3B793F12377D12000E60
:1007B100122B8F020ADD1238DE020ADD90003BE0C7
:1007C100FFC3942E4012EFD39435500C7874760108
:1007D1007D04121032020ADD90003BE0FFC3942435
:1007E1005003020ADDEFD3942B4003020ADD787433
:1007F10076017D04121032020ADD90003BE0FFC356
:10080100942E4012EFD39435500C787476017D0309
:10081100121032020ADD90003BE0FFC39424500322
:10082100020ADDEFD3942B4003020ADD78747601CE
:0E0831007D03121032020ADD123A66020ADD61
:10083F00123A80020ADD7874760190003BE0B438FA
:10084F00047F0480027F008F25AD257F3812103280
:10085F00020ADD300603020ADD7874760190003B50
:10086F00E0B438047F0380027F008F25AD257F38E9
:10087F00121032020ADD123A32020ADD12398702F1
:10088F000ADD90003BE0FFC39446400EEFD3945037
:10089F005008E4FF123BB4020ADD7F46123BB4025C
:1008AF000ADD90003BE0FFC394465003020ADDEFE0
:1008BF00D394504003020ADDE004F0E0B4480C90FA
:1008CF000049E0700690003BE004F090003BE0B47C
:1008DF00490C90004BE0700690003BE004F0900054
:1008EF003BE0B44A0C90004CE0700690003BE004F3
:1008FF00F090003BE0D3945040037446F090003BDF
:10090F00E0FF123BB49000557432F0020ADD900004
:10091F003BE0FFC394465003020ADDEFD3945040EF
:10092F0003020ADDE014F0E0B44A0C90004CE070D2
:10093F000690003BE014F090003BE0B4490C9000AF
:10094F004BE0700690003BE014F090003BE0B448A1
:10095F000C900049E0700690003BE014F090003BD3
:10096F00E0C3944650037450F090003BE0FF123BFD
:10097F00B49000557432F0020ADD90003BE0FFC3E3
:10098F0094465003020ADDEFD394504003020ADD70
:10099F00787476017D03121032020ADD90003BE07D
:1009AF00FFC394465003020ADDEFD3945040030275
:1009BF000ADD787476017D04121032020ADD900090
:1009CF003BE0FFC3942E4006EFD39435400B123B10
:1009DF006B7F2E123BB4020ADD90003BE024D2FF66
:1009EF00122D698F26E526242EFF90003BF0123B37
:1009FF00B4020ADD7D037FA5123A18020ADD9000CA
:100A0F004EE0FF64046008EF64056003020ADD90A6
:100A1F000029E05403F526B402137D017FA5123A95
:100A2F0018900029E054FCF04401F080117D027F02
:100A3F00A5123A18900029E054FCF04402F09000FF
:100A4F0029E0FF123641020ADD7D047FA6123A1813
:100A5F00807C7D037FA6123A1880737D027FA612D9
:100A6F003A18806A7D017FA6123A1880611238B851
:100A7F00805C7F0B123BB480557F0C123BB4804ED1
:100A8F007F011231EF8047E4FF1231EF8040123BBC
:100A9F00BC803B1232DC80367F091233C6802F7F39
:100AAF000A1233C680287F0B1233C680217F0C12A7
:100ABF0033C6801A7F011233C680137F021233C6EA
:100ACF00800C7F031233C68005E4FF1233C6301C3F
:100ADF0023C21C90003BE0FFC394384012EFD39425
:100AEF003A500C3012047D0480027D030210327FD5
:050AFF0038123BB42297
:10398700B2063006047F0480027F03AD077F0A1268
:0E39970010322006057F38123BB4123B6B2223
:103A3200B21530150A7F24123BB4E4FF023969E45F
:0A3A4200FF123BB47FFF1239692226
:013BBC0022E6
:102B1300786CE6FF7008C2A0D2A1D2A28012EFB4F3
:102B23000108D2A0C2A1D2A28006D2A0D2A1C2A281
:102B3300E4FE2082010E2083034306022084034324
:102B43000604208503430608EE602EEFC454F02EDE
:102B5300FE7872E6B50616900096E004F0D394086A
:102B63004029201402D207E4900096F022C214E414
:102B7300900096F07872A60622786C06E6D394024B
:0C2B83004002E4F6C214E4900096F02238
:102C830020101830871030860D786B06E6D3940336
:102C93004004E4F6D210C20AC20B22A28730860196
:102CA300B3503A301025A2869212A212301601B305
:102CB30050057869E67002D21CA2129216786976E2
:102CC30003E4786BF6C210C20B800F300B0A7869ED
:102CD3007603E4786BF6C210D20BC20A2220871463
:102CE300208611300A0A78697603E4786BF6C210FD
:052CF300D20AC20B2211
:1031EF008F277F2B12388E8F2890003BE06403705F
:1031FF003D1238638F29E527600EE52970047F01A2
:10320F0080027F008F298018E529C394025005752D
:10321F002902800C0529E529D3940540037529025D
:10322F00E529903B4993F528FD7F2B123A18AF28DB
:03323F00022A96CA
:101698004B434D2D4E4F00202D4F46462D002048E0
:1016A800454C4C4F004D5554452020004D55544550
:1016B8002D2D00564F4C20202000564F4C20004E18
:1016C8004F4953452000465253502000434553503C
:1016D8002000535753502000535253502000424B80
:1016E800535020004C504620004C4950530046525D
:1016F800444C20004345444C20005357444C2000A0
:10170800424B444C2000536F757263653A20253074
:1017180032782025303278002020202020200050E8
:10172800434D00322F34004E49472D4F4E004E494D
:10173800472D4F46004D5033002020004657444F58
:101748004E4500465720457272004657202D0046E8
:101758004C547443455474535754744652547453F8
:1017680052547442525474424C5474534C5474003E
:10177800464C5472434554725357547246525472ED
:101788005352547242525472424C5472534C5472D3
:10179800004155582D494E4F5054494341434F41FC
:1017A8002D4431434F412D4432202D53442D2020C8
:1017B8002D5553422D202D50432D20204538434888
:1017C800202D42542D202048444D492D3148444D68
:1017D800492D3248444D492D3348444D492D410047
:1017E80020204849464920322B3143484D4F444533
:1017F800202000322F30312F30322F30332F30322B
:101808002F31332F31322F32332F32332F33332FBF
:1018180034322F33322F340053442D494E2055444F
:101828002D494E2053442D4F555455442D4F555452
:1018380050432D4F555442542D4F555448442D4F25
:1018480055540033324B34384B35364B36344B38DD
:10185800304B39364B31313231323831363031391B
:0E1868003232323432353633323033383400D7
:103B2E00E4FDFF1236B2E4FF1239E0E4900030F00B
:013B3E002264
:102521008F24300F05C20F12000EE5245402D394FC
:102531000050030225E1900030E0601514F07007AF
:102541007F0112371A800A900030E05401FF1237E0
:102551001A900059E0D3940040030225E130060BA4
:10256100900055E070057F0A123BB420015890009D
:1025710055E0605214F07024201506FF123BB48020
:102581004590003BE024DCFF122D698F25E52524D1
:1025910024FF123BB4AF25123969802A30002790FD
:1025A1000055E0FF75F00584E5F0701AEF75F00550
:1025B10084F52590003BE0FFE52530E0047D0280B5
:1025C100027D01121032200117200614201511304E
:1025D100050E90004FE0540FC39400400312309158
:0125E10022D7
:053BB400E4FD021032E7
:093B84009000557414F0C20022F7
:083B9E0090003BEFF0023B84B4
:101032008F308D31E5317003123B84C205C2A51297
:101042003A4C900076E0540FF0E530120D3610F372
:1010520000112401113602117A06118607112A089D
:10106200114B0911B10A118C0B11920C11980E112E
:10107200980F119810119811119812119813119834
:101082001411A31511A916125A24125A25125A26FE
:10109200125A27125A28125A29125A2A125A2B1253
:1010A200632E12632F1263301263311263321263A2
:1010B20033126334126335120D38126F39126F3ADC
:1010C200126F3B126F3C126F3D126F3E126F3F1256
:1010D200874612874712874812874912874A127B2E
:1010E2004B127B4C127B4D127B4E127B4F00001237
:1010F20091200C1790004EE0FF64046004EFB405E9
:101102000512245E800E12340780097BFF7A16795D
:101112009812377DE490003BF0900055F0D2050222
:1011220012911234070212917BFF7A16799F1237BD
:101132007D0212917BFF7A1679A612377D12000E7C
:10114200900055740AF0021291E531B4041D90002A
:10115200557414F0900058E004F0D394024002E475
:10116200F0900058E0FD7F40123A18900058E0FDE0
:101172007F011236B20212919000557432F0123B86
:10118200BD0212911225E2021291123591021291C0
:1011920012349A021291E53024F2FF123A9A0212A4
:1011A2009112314602129112245ED205021291E589
:1011B200316003B404089000557450F0D200E53158
:1011C200C394024005E531B4040B7BFF7A1679AD76
:1011D20012377D800EE531B402097BFF7A1679B4AD
:1011E20012377DE531B4040A7D037F08123A1802F2
:0211F200129158
:1011F400E531640360030212919000557414F07D8C
:10120400027F08123A18021291E531C39403401583
:1012140090003BE0B4380EE531B404047F01800251
:101224007F00123925E531B4020B7BFF7A1679BBB6
:1012340012377D80587BFF7A1679C212377D900071
:101244002BE0FD7F04123947E5317041900055745D
:1012540050F0D2008037AD31AF30122EB0802E1254
:101264003B6BAD31AF301228638022123B6BAD3142
:10127400AF301228FB8016123B6BAD31AF30121920
:10128400F9800A123B6BAD31AF301220F390003B72
:04129400E530F0222F
:10349A007F0912388E8F3230151390003BE0B40C3E
:1034AA000C0532E532D394074003E4F532AD327F9E
:1034BA0009123A187BFF7A1679C712377DE532244A
:1034CA0031FD7F05120DB8301509E4900031F0FF87
:0434DA001239692218
:102D6900EFB407005067902D76F8282873022D8B51
:102D7900022DA0022DAC022DAF022DC4022DD002CE
:102D89002DD3900049E060037F012290004AE06062
:102D9900037F02227F032290004AE060037F022220
:102DA9007F03227F032290004BE060037F0422907F
:102DB900004CE060037F05227F002290004CE06018
:102DC900037F05227F00227F06227F07227F0022C0
:102EB0008F328D33E533C39403401E90003BE0B561
:102EC000321724DCFFE533B404047D0180027D0069
:102ED0001230EC9000557450F074DC2532F53275E8
:102EE000F004A42457F9741735F0FA7BFF12377DEC
:102EF000E533B4020E7D207F04120DB87D207F05DE
:102F0000020DB874842532F582E43400F583E0FFC5
:062F100012380BD2002272
:102863008F328D33E533C39403401E90003BE0B5B4
:10287300321724D2FFE533B404047D0180027D00C6
:102883001230EC9000557450F074D22532F5327545
:10289300F004A42478F9741735F0FA7BFF12377D1E
:1028A300E533B4020E7D207F04120DB87D207F0531
:1028B300020DB874842532F582E43400F583E0F523
:1028C30034C3940950147D2D7F04120DB8C3743999
:1028D3009534FD7F05120DB880117D207F04120D04
:1028E300B8E5342427FD7F05120DB8E53370089051
:0828F30000557450F0D20022E0
:1019F9008F328D33900076E04450F0A3E0F09000F0
:101A0900557450F07D207F04120DB87D207F05129A
:101A19000DB8E53224B46056147003021AAE14707E
:101A290003021AE5147003021B1C147003021B53F2
:101A390024056003021B5C7BFF7A1679CE12377D81
:101A4900E533C39403401B900048E004F0D39401AC
:101A59004002E4F0E4FD7F24122CF8AD077F241244
:101A69003A18E4FF12351AAD077F05020DB87BFF5E
:101A79007A1679D412377DE533C39403401B90005D
:101A890049E004F0D394024002E4F0E4FD7F24121B
:101A99002CF8AD077F24123A187F0112351AAD07C9
:101AA9007F05020DB87BFF7A1679DA12377DE533A7
:101AB900C39403401B90004AE004F0D39401400210
:101AC900E4F0E4FD7F24122CF8AD077F24123A18C4
:101AD9007F0212351AAD077F05020DB87BFF7A1612
:101AE90079E012377DE533C39403401B90004BE046
:101AF90004F0D394024002E4F0E4FD7F24122CF8B0
:101B0900AD077F24123A187F0312351AAD077F05F6
:101B1900020DB87BFF7A1679E612377DE533C39457
:101B290003401B90004CE004F0D394024002E4F01F
:101B3900E4FD7F24122CF8AD077F24123A187F04A4
:101B490012351AAD077F05020DB87BFF7A1679ECBD
:041B590012377D22A0
:1020F3008F328D33E53224B9603A14605A14607A12
:102103001470030221A0240460030221C19000760D
:10211300E04440F0A3E0F07BFF7A1679F112377DBB
:10212300E533C3940350030221C1AD33E4FF122E00
:10213300460221C17BFF7A1679F612377D9000762D
:10214300E04450F0A3E0F0E533C394034070AD33B3
:102153007F01122E4680677BFF7A1679FC12377D4A
:10216300900076E04450F0A3E0F0E533C3940340DD
:102173004DAD337F02122E4680447BFF7A177902DE
:1021830012377D900076E04450F0A3E0F0E533C3CE
:102193009403402AAD337F03122E4680217BFF7ABE
:1021A30017790812377D900076E04450F0A3E0F0F1
:1021B300E533C394034007AD337F04122E469000EA
:1021C300557432F074F82532F582E434FFF583E078
:0A21D30075F005A4FD7F04023947F2
:1034070090004EE0FFC39404400FEFD39408500997
:10341700900077E04420F08007900077E054DFF0D9
:103427007BFF7A17790E8F3A900076E0F53BA3E0A1
:10343700F53C122C0A90004EE075F006A42499F989
:0A344700741735F0FA7BFF02377DA1
:013BBD0022E5
:10386300AE07EE543024F0601224F060112420706F
:1038730017EE30E0037F01227F00227F0222EE3029
:0B388300E0037F04227F03227F052268
:102A96008F301238638F31900077E0542CF0E53197
:102AA600C39402501BEF75F006A424E8F974173599
:102AB600F0FA7BFF12377D900077E04401F0804505
:102AC6007BFF7A1779F412377DE531242FFD7F05D8
:102AD600120DB8E53024FD601314601914601F242C
:102AE600037022900077E04402F08019900077E0AE
:102AF6004480F08010900077E04440F0800790001A
:0D2B060077E04410F0123B847F03023B9EF9
:1025E20090004FE0FF540FC394025003022685E48B
:1025F200F536EFC4540F75F003A4F5327BFF7A175A
:10260200792012377D122DD990004FE0540F24FD0E
:10261200602414604314604024FE605E24F7601658
:1026220014601324FD24FD502F241570597BFF7A6A
:1026320017792702377D74FB2532F9E43417FA7BC8
:10264200FF753D00753E00753F337F0312374C7BAB
:10265200007A00793302377D74FB2532F9E43417AE
:10266200FA7BFF753D00753E00753F337F031237DD
:102672004C7B007A00793302377D7BFF7A17792B06
:0726820002377D123407222C
:10351A00AE07EE700C900048E060037F4C227F53A8
:10352A0022BE020C90004AE060037F59227F4E229D
:10353A0074482EF582E43400F583E0FDB402037F7B
:0C354A004C22EDB401037F53227F4E227F
:103591007F2312388E8F3290003BE0B40B16E53258
:1035A100C3943250057532328003E4F532AD327F77
:1035B10023123A18E53260097BFF7A17792F023717
:0B35C1007D7BFF7A17793612377D22E0
:103A9A009000557432F0EF75F006A42420F97418DA
:083AAA0035F0FA7BFF02377DC5
:103146009000557414F0900076E054BFF07BFF7A3F
:1031560017792012377D900044E02401FD9000434A
:10316600E03400FCE4FF1227CA8F3905397D2F129F
:103176000DB890004EE0B4040D90002EE0FEA3E0E2
:10318600FFAC06FD800B900052E0FEA3E0FFAC060C
:06319600FDAF390227CA5B
:10245E00C3900057E09403900056E094005003029E
:10246E003146C3900057E09405900056E09400501A
:10247E0064900066E0FF131313541FF53290004F63
:10248E00E0540F640A704E9000557414F0E532D388
:10249E0094004041E5329410503B753D00753E006E
:1024AE00753F337BFF7A17793D7F0312374CE53248
:1024BE0075F003A42448F9741835F0FA7BFF753DC6
:1024CE0000753E00753F367F0312374C7B007A0055
:1024DE00793302377D7BFF7A17794112377D900071
:1024EE0056E0FEA3E0FF7C007D3C120C96AD077F0C
:1024FE0002123947900056E0FEA3E0FF7C007D3CBF
:10250E00120C967F04123947900076E04440F0A3F7
:03251E00E0F022C8
:102E4600EF70047C0180027C00EC146011146012A7
:102E5600146013146014240470127E13800E7E090D
:102E6600800A7E0980067E0980027E09BD042474DC
:102E76003E2FF582E43400F583E0D39E4002EEF067
:102E8600743E2FF582E43400F583E0C39E501AE0C9
:102E960004F022BD0313743E2FF582E43400F5835B
:0A2EA600E0D394004003E014F02292
:103242007B007A0079277535007536027F81123846
:1032520038E527B4640B7BFF7A17794412377D80F7
:1032620020E527B4680B7BFF7A17794B12377D80F4
:10327200107BFF7A17795212377DAD277F041239FE
:0D328200477F0D123B9E900055743CF022DA
:10380B008F35E535C3940950127D2D7F04120DB809
:10381B00C374399535FD7F05020DB87D207F0412E9
:0D382B000DB8E5352427FD7F05120DB822EC
:1039C300EF600C120BFAC39D50127401020C4012EB
:0D39D3000BFAD39400400574FF120C402243
:102F16004252494748000002070000243F000600CD
:102F2600DB00CF00E600ED00FD000700FF00EF002C
:102F3600F7128F0039120F00F900F100BD00F612EA
:102F460009001E0C70003805360936003F00F308EC
:102F56003F08F300ED1201003E243028362D000014
:102F6600EE240900C0240012C00010181C1C1E1EEE
:012F76001F3B
:10345100C2A5C2937F01123B8D7F40123AC87F0102
:10346100123B8DD2937F01123B8DC2937F01123BA0
:103471008D7FC0123AC87F01123B8DE4F524E4FF31
:10348100123AC87F01123B8D0524E524C3941040F4
:09349100ED7F0A123B8DD293225B
:1036B2008D32EFD3940040137BFF7A2F79161237A5
:1036C2007DE5322431FD7F05120DB8C2937F0112D0
:1036D2003B8DE532902F1C934488FF123AC87F013C
:0636E200123B8DD2932281
:013BBE0022E4
:102DD900900076E054F8F0A3E054FBF090004FE047
:102DE900540F24FD603514603B14603824FE6040A4
:102DF90024F7602714602424FD24FD50272415702E
:102E09003990008EE0FF64536030EF6456602B9078
:102E19000076E04404F0A3E0F0801F900077E044DE
:102E290004F08016900076E04401F0A3E0F0800AF7
:0D2E3900900076E04404F0A3E0F0D20F22F8
:10364100EF5403FE900079E054F0F0BE0106E0442F
:1036510008F0800ABF0207900079E04404F0EF54BB
:10366100C0FE6013BEC009900079E04401F08007FC
:0A367100900079E04402F0D20F222D
:10371A008F30E530B4FF117F1F12388EEF30E70487
:10372A007F0180027F008F30E530600C900076E0E8
:10373A004408F0A3E0F08007900076E054F7F0D256
:02374A000F224C
:10377D008B3A8A3B893CE4F53EAB3A053CE53CAAE5
:10378D003B7002053B14F9120BFAF53D6012AD3D8D
:10379D00AF3E120DB8053EC3E53E6480948640D918
:0137AD0022F9
:1027CA008F3A8C3B8D3CAE3BAF3C7C277D10120C84
:1027DA0096EF4E6012120DB0AE3BAF3C7C277D10D7
:1027EA00120C968C3B8D3CAE3BAF3C7C037DE812D1
:1027FA000C96EF4E6012120DB0AE3BAF3C7C037DDF
:10280A00E8120C968C3B8D3CAE3BAF3C7C007D6461
:10281A00120C96EF4E6012120DB0AE3BAF3C7C002C
:10282A007D64120C968C3B8D3CAE3BAF3C7C007DAC
:10283A000A120C96EF4E6012120DB0AE3BAF3C7C02
:10284A00007D0A120C968C3B8D3CAF3A053AE53C6A
:09285A002430FD120DB8AF3A2242
:103947008F398D3AE53A75F00A842430FD120DB8A7
:10395700E53904FFE53A75F00A84E5F02430FD0205
:023967000DB899
:080DB000EF2430FDAF3A053AD3
:100DB8008F3F8D40E53FC394034003020E83E54017
:100DC800C394304012E540D39439500B74D0254079
:100DD800F54004F541804CE540C39461400FE5407F
:100DE800D3947A5008E54024AAF5418036E540C3FB
:100DF8009441400FE540D3945A5008E54024CAF581
:100E0800418020E54024D5601224FC60092402704A
:100E18000F754125800D754126800875412780038F
:100E2800E4F541E54125E0241FF582E4342FF583FC
:100E3800E493FEE53F25E0246AF582E43400F58377
:100E4800EEF0A3E4F0E53F25E0246AF582E43400FF
:100E5800F583C083C082E0FEA3E0FFE54125E024DE
:100E680020F582E4342FF583E493FDEEEF4DFFD0B7
:100E780082D083EEF0A3EFF002102FE53FC3940673
:100E88004003020FB9E540C394304066E540D3946F
:100E980039505F74D02540F54004F54125E0241F02
:100EA800F582E4342FF583E493FEE53F25E0246AD8
:100EB800F582E43400F583EEF0A3E4F0E53F25E0A5
:100EC800246AF582E43400F583C083C082E0FEA37F
:100ED800E0FFE54125E02420F582E4342FF583E4A2
:100EE80093FDEEEF4DFFD082D083EEF0A3EFF0023A
:100EF800102FE540120D360F422D0F47410F4C427F
:100F08000F51430F56440F5B450F60460F65470F5F
:100F18006F480F6A490F744C0F794E0F7E4F0F833D
:100F2800500F88520F8D530F92540F97550F9C599D
:100F38000F88720F927400000FA17540C0805D7514
:100F480040F7805875407C8053754039804E754015
:100F5800DE80497540F980447540F1803F7540EF67
:100F6800803A75400680357540F680307540388087
:100F78002B754037802675403F80217540F3801CD3
:100F880075405080177540ED80127540F8800D75DA
:100F9800403E800875406E8003E4F540E53F25E05B
:100FA800246AF582E43400F583E4F0A3E540F08098
:100FB80076E53FD39406401AE53F940D5014E5407A
:100FC800C39401400DE540D394055006E54024261E
:100FD800F541E54125E0241FF582E4342FF583E44B
:100FE80093FEE53F25E0246AF582E43400F583EEBC
:100FF800F0A3E4F0E53F25E0246AF582E43400F547
:1010080083C083C082E0FEA3E0FFE54125E0242001
:10101800F582E4342FF583E493FDEEEF4DFFD082A3
:0A102800D083EEF0A3EFF0D20F2208
:103A4C00E4FFEF25E0247AF582E43400F583E4F01A
:0A3A5C00A3F00FEFC3940540E92228
:063B4F00131313541FFFC5
:093B5500EF5407902F6F93FF223B
:103091007B007A0079277535007536037F911238E8
:1030A10038300C03023A4CAF27123B5590007AE4BA
:1030B100F0A3EFF0E527123B4F90007CE4F0A3EF83
:1030C100F0AF28123B5590007EE4F0A3EFF0E52825
:1030D100123B4F900080E4F0A3EFF0AF29123B5573
:0B30E100900082E4F0A3EFF0D20F2279
:103B0800E4FFE490007AF0A3F00FEFC3940540F2CD
:033B1800D20F22A7
:1039E000E4FEEFFDEE25E0246AF582E43400F58381
:0D39F000E4F0A3EDF00EEEC3940D40E622CE
:10000E00E4FF74062FF582E43400F583E4F00FEF7D
:10001E00C3941040ED90006AE0FEA3E0FF30E007CD
:10002E00900014E04408F0EF30E10790000DE0443A
:10003E0008F0EF30E207900006E04408F090006B05
:10004E00E030E307900009E04408F090006AE0FE1B
:10005E00A3E0FF30E407900011E04408F0EF30E534
:10006E0007900015E04408F0EF30E60790000FE02F
:10007E004408F090006BE030E70790000CE0440875
:10008E00F090006AE0FEA3E0FFEE30E00790001370
:10009E00E04408F0EE30E107900012E04408F0EE84
:1000AE0030E20790000BE04408F090006AE0A330C5
:1000BE00E307900007E04408F090006AE0FEA3E03A
:1000CE00FFEE30E407900008E04408F0EE30E5075C
:1000DE0090000EE04408F090006CE0FEA3E0FF30CC
:1000EE00E007900014E04420F0EF30E10790000D9F
:1000FE00E04420F0EF30E207900006E04420F0905C
:10010E00006DE030E307900009E04420F090006CB1
:10011E00E0FEA3E0FF30E407900011E04420F0EF92
:10012E0030E507900015E04420F0EF30E607900030
:10013E000FE04420F090006DE030E70790000CE0F7
:10014E004420F090006CE0FEA3E0FFEE30E007905C
:10015E000013E04420F0EE30E107900012E044205E
:10016E00F0EE30E20790000BE04420F090006CE0DF
:10017E00A330E307900007E04420F090006CE0FE0F
:10018E00A3E0FFEE30E407900008E04420F0EE30EC
:10019E00E50790000EE04420F090006EE0FEA3E034
:1001AE00FF30E007900014E04410F0EF30E10790CC
:1001BE00000DE04410F0EF30E207900006E044102E
:1001CE00F090006FE030E307900009E04410F090EB
:1001DE00006EE0FEA3E0FF30E407900011E0441053
:1001EE00F0EF30E507900015E04410F0EF30E60731
:1001FE0090000FE04410F090006FE030E7079000A1
:10020E000CE04410F090006EE0FEA3E0FFEE30E054
:10021E0007900013E04410F0EE30E107900012E07A
:10022E004410F0EE30E20790000BE04410F0900026
:10023E006EE0A330E307900007E04410F090006EEC
:10024E00E0FEA3E0FFEE30E407900008E04410F07B
:10025E00EE30E50790000EE04410F0900070E0FEE6
:10026E00A3E0FF30E007900014E04404F0EF30E12B
:10027E000790000DE04404F0EF30E207900006E036
:10028E004404F0900071E030E307900009E044046C
:10029E00F0900070E0FEA3E0FF30E407900011E064
:1002AE004404F0EF30E507900015E04404F0EF3021
:1002BE00E60790000FE04404F0900072E0FEA3E029
:1002CE00FF30E007900014E04480F0EF30E107903B
:1002DE00000DE04480F0EF30E207900006E044802D
:1002EE00F0900073E030E307900009E04480F09056
:1002FE000072E0FEA3E0FF30E407900011E04480BE
:10030E00F0EF30E507900015E04480F0EF30E6079F
:10031E0090000FE04480F0900074E0FEA3E0FF3008
:10032E00E007900014E04402F0EF30E10790000D7A
:10033E00E04402F0EF30E207900006E04402F09055
:10034E000075E030E307900009E04402F09000747D
:10035E00E0FEA3E0FF30E407900011E04402F0EF6E
:10036E0030E507900015E04402F0EF30E60790000C
:10037E000FE04402F0900076E0FEA3E0FF30E007CD
:10038E00900014E04401F0EF30E10790000DE044DE
:10039E0001F0EF30E207900006E04401F0900077A4
:1003AE00E030E307900009E04401F0900076E0FEB3
:1003BE00A3E0FF30E407900011E04401F0EF30E5D8
:1003CE0007900015E04401F0EF30E60790000FE0D3
:1003DE004401F0900077E030E70790000CE0440114
:0403EE00F090007615
:1003F200E0FEA3E0FFEE30E007900013E04401F0DE
:10040200EE30E107900012E04401F0EE30E2079096
:10041200000BE04401F0900076E0A330E307900087
:1004220007E04401F0900076E0FEA3E0FFEE30E446
:1004320007900010E04420F0EE30E507900010E055
:100442004410F0EE30E607900010E04404F0900013
:1004520078E0FEA3E0FF30E00790000BE04404F0F8
:10046200EF30E107900012E04404F0EF30E2079031
:100472000013E04404F0900079E030E30790000CB0
:10048200E04404F090007AE0FEA3E0FF30E0079041
:100492000007E04480F0EF30E10790000BE0448079
:1004A200F0EF30E207900012E04480F090007BE031
:1004B20030E307900013E04480F090007BE030E4EA
:1004C2000790000CE04480F090007CE0FEA3E0FF87
:1004D20030E00790000BE04402F0EF30E1079000BB
:1004E20012E04402F0EF30E207900013E04402F021
:1004F20090007DE030E30790000CE04402F09000B1
:100502007EE0FEA3E0FF30E007900011E04440F0FF
:10051200EF30E107900009E04440F0EF30E207904D
:100522000006E04440F090007FE030E30790000DC9
:10053200E04440F090007FE030E407900014E04493
:1005420040F0900080E0FEA3E0FF30E0079000134F
:10055200E04440F0EF30E10790000CE04440F0EF5F
:1005620030E20790000FE04440F0900081E030E379
:1005720007900015E04440F0900082E0FEA3E0FF07
:1005820030E00790000EE04440F0EF30E1079000C9
:1005920008E04440F0EF30E207900007E04440F00A
:1005A200900083E030E30790000BE04440F09000BD
:1005B20083E030E407900012E04440F0C2937F01F0
:1005C200123B8D7F40123AC87F01123B8DD2937F3E
:1005D20001123B8DC2937F01123B8D7FC0123AC83C
:1005E200E4F53274062532F582E43400F583E0FF47
:0F05F200123AC80532E532C3941040E7D2932283
:103AC8007E08C290EF139291EFC313FFD2901EEEBF
:063AD800D3940050ED2222
:102F77000305C2689F0623003152007500000080D8
:102F87002F80005C00000F80002C00805A80000812
:102F97000000588000320000060080258000B40041
:102FA700000D20464C415420204551202020000987
:102FB700999FFF004D4943314D4943324543484F9F
:102FC7005245505444454C594D4241534D54524536
:012FD70000F9
:10298700E4F52F78317C007D007BFF7A2F79777E05
:10299700007F05120BD4E52F04F5307B007A007910
:1029A700307541007542067F8B12355678317C00B1
:1029B7007D007BFF7A2F797C7E007F09120BD4E4A0
:1029C700FF74312FF8E6FEE52F75F009A42485F58D
:1029D70082E4342FF583E5822FF582E43583F5838E
:1029E700E4934EF60FBF09D9E52F04F5307B007A43
:1029F70000793075410075420A7F8C123556052FD4
:0B2A0700E52FC39403500302298A222C
:1038B8007F2C12388E8F2790003BE0B40513052724
:1038C800E527D394034003E4F527AD277F2C123A6C
:0638D80018AF270237DDE6
:1037DD008F30E53060067E007F0680047E007F001E
:1037ED0074A92FF9742F3EFA7BFF12377DE53060F7
:0E37FD00082430FD7F04120DB87F05023B9EAC
:1022C600900068E0D3941240037409F0900069E02E
:1022D600D3941240037409F07F3912388E8F2EE59D
:1022E6002ED394004003D38001C3920EE52EC4542E
:1022F6000F900061F0E52E540FA3F0900061E0D33B
:10230600940940037402F0900062E0D394094003FC
:102316007402F01233287F3A12388E8F2EE52E542F
:102326000F900063F0D3940940037402F07F3B12D0
:10233600388E8F2EE52EC4540F900065F0D3940985
:1023460040037402F0E52E540F900064F0D3940914
:1023560040037402F07BFF7A2F79B675410075420F
:10236600057F8D123556752F0478307C007D007BF5
:10237600FF7A2F79777E007F05120BD47B007A00D7
:10238600792F7541007542067F8B12355602328FC2
:1038DE0090003BE0C3943950057F39023BB4900011
:1038EE003BE004F0D3943F40037439F090003BE08A
:0538FE00FF123BB422A3
:103A660090003BE0FFC39439400FEFD3943F5009D9
:0A3A7600787476017D0412103222EC
:103A800090003BE0FFC39439400FEFD3943F5009BF
:0A3A9000787476017D0312103222D3
:1028FB008F328D33E533C39403401D90003BE0B51D
:10290B003216E533B404047D0180027D00AF321230
:10291B00272D9000557450F0E53224C7F53475F02F
:10292B0004A424BBF9742F35F0FA7BFF12377D7D9D
:10293B00207F04120DB8E533B402077D207F05021A
:10294B000DB8E532C3943E501674612534F582E41C
:10295B003400F583E02430FD7F05120DB880107430
:10296B002A2532F582E43400F583E0FF12380BE5BB
:0C297B003370089000557450F0D2002218
:1037AE00AB07EBC394095015430580EBFFC37409B7
:1037BE009FFFE49400EFFEE4EE4204800DEB24F74D
:0F37CE00FFE434FFEFFEE4EE4204AE04AF052249
:10272D008F358D36123BAEE535C3943E506074281F
:10273D002535F9E43400FA7B017D09AF361239C332
:10274D00E53524C6600D14601F14602E14602B2413
:10275D00047069900061E0FFC454F0FFA3E04FFDE9
:10276D007F39123A180233287F08EFC454F0FF90D6
:10277D000063E04FFD7F3A023A18900065E0FFC418
:10278D0054F0FF900064E04FFD7F3B023A18742A2D
:10279D002535F9E43400FA7B017D12AF361239C3C9
:1027AD0012328FE535B43E0A900068E0FD7F42029B
:0D27BD003A18900069E0FD7F43123A18229F
:10328F00900068E0FF7D237C001237AE8E3B8F3CB1
:10329F00A3E0FF7D617C001237AE753704E53CF586
:1032AF0038AD07EDF539EEC4F854F0C868EFC454E3
:1032BF000F4854F0FDE53B540F4DF53A7B007A0073
:0D32CF0079377541007542047F8C02355639
:10332800900061E0C39407500EA3E0C394075007D0
:103338007D887F38023A18900062E0FF900061E0D3
:10334800FED39F4004AF0680008F37E537B40707E8
:103358007DA67F38023A18E537B408077DC47F3860
:0B336800023A187DE27F38123A18226A
:1039A500AE0753050FEDC3940A5006ED2430FFFD15
:0E39B50022EE6005ED2457FF22ED2437FF229D
:101B5D008F5E8D5F8B60E55F701FE560701BAB6105
:101B6D00AA62A9637430120C62AB61AA62A9639078
:101B7D000001E4120C747F0122E4F564FCE55E645F
:101B8D00646009E55E64756003021C39E56075F0FB
:101B9D006484F565601AFDE4FF1239A5AB61AA6294
:101BAD00A963AE040C8E82758300EF120C7480183D
:101BBD00E55FB40313AB61AA62A963AF040C8F8216
:101BCD007583007430120C74E56075F0648485F0D3
:101BDD0065E56575F00A84FD6019E4FF1239A5AB62
:101BED0061AA62A963AE040C8E82758300EF120C9C
:101BFD00748018E55FB40213AB61AA62A963AF04E8
:101C0D000C8F827583007430120C74E56575F00AC3
:101C1D0084ADF0E4FF1239A5AB61AA62A963AE04ED
:101C2D000C8E82758300EF120C74806CE56054F09D
:101C3D006028E55EB458047F0180027F00E560C432
:101C4D00540FFD1239A5AB61AA62A963AE040C8EC7
:101C5D0082758300EF120C74801CC3E55F64809461
:101C6D00824013AB61AA62A963AF040C8F827583A6
:101C7D00007430120C74E55EB458047F0180027F4D
:101C8D0000AD601239A5AB61AA62A963AE040C8EDA
:101C9D0082758300EF120C74AB61AA62A9638C820A
:0A1CAD00758300E4120C74AF0422EA
:101298008B4C8A4D894EE4F555F556AB4FAA50A9AB
:1012A80051AF55EF3395E08F82F583120C13FE642E
:1012B800256041D3E5566480949E4003AF5622EEE4
:1012C8007003AF5622AB4FAA50A951AF550555EF41
:1012D8003395E08F82F583120C13FFAB4CAA4DA90E
:1012E8004EAE560556EEFD3395E08D82F583EF122E
:1012F8000C7480A7AF55EF3395E08F82F583A3ABCD
:101308004FAA50A951120C13F55B6473706BAB5262
:10131800E554F92403F554E553FA3400F553120D56
:10132800168B588A59895A05550555E4F557AB580F
:10133800AA59A95AAF57EF3395E08F82F583120C5B
:101348001370030212A3C3E5566480949E400302FF
:1013580012A30557EF3395E08F82F583120C13FF24
:10136800AB4CAA4DA94EAE560556EEFD3395E08D11
:1013780082F583EF120C7480B5E55BB4251E055524
:101388000555AB4CAA4DA94EAF560556EF3395E01F
:101398008F82F5837425120C740212A3E55BB46383
:1013A8003205550555AB52E554F92402F554E55379
:1013B800FA3400F553120CEBFFAB4CAA4DA94EAE14
:1013C800560556EEFD3395E08D82F583EF120C74C9
:1013D8000212A3E4F55CF557AF55EF3395E0FEEF45
:1013E8002401FFE43EFEAD57ED3395E0FCED2FF50B
:1013F80082EC3EF583AB4FAA50A951120C13F55B52
:10140800C3648094B0401ED3E55B648094B95015E2
:10141800E55B24D0FFE55C75F00AA42FF55C055761
:10142800E557B403B3AF55EF3395E0FEEF2401FF62
:10143800E43EFEAD57ED3395E0FCEF2DFFEE3CFEAC
:10144800AB4FE5512FF9E5503EFA8B58F559895ABB
:10145800E55524022557F555120BFAFF249C600F19
:1014680024EF600B24FD6007242060030212A3AB65
:10147800520554E554AA537002055314F9120BFA95
:10148800F55DE556FD3395E0FCE54E2DF9E54D3C5F
:05149800854C61F562C6
:10149D008963AB5DAD5C121B5DEF2556F5560212EF
:0214AD00A32278
:103AF400E5151515700215141445146006ED120C25
:043B04006280ED22CC
:103ADE00E50F150F7002150E14450E6008120BFA45
:063AEE00120C6280EB22C5
:083BA600C2998F993099FD22AC
:102C0A008B378A388939754900754A00754B3A8B72
:102C1A004F8A508951854952854A53854B547B01C5
:102C2A007A007997121298AE070EEFFD3395E0FC01
:102C3A0074972DF58274003CF583740DF0AF060E7F
:102C4A00EFFD3395E0FC74972DF58274003CF58313
:102C5A00740AF0E4FDC3EE6480F8ED6480985018BD
:102C6A00EDFB3395E0FA74972BF58274003AF583FD
:092C7A00E0FF123BA60D80DD22F3
:1035CC00123B1B123451123B2E123BBB123BBA1254
:1035DC003B967871E6FF5401D3940040F5121DD64A
:1035EC007871E6FF1206017871E6FF1225217871D9
:0B35FC00E6FF1236E8E47871F680D795
:103B1B00758921758851759850758DFF4387807510
:033B2B00A883224A
:093B8D00EFD394034002DFFE2295
:03000B00021EEFE3
:101EEF00C0E0C0F0C083C082C0D075D000C000C0B9
:101EFF0001C002C003C004C005C006C007758A60D8
:101F0F00758CFF786E06E675F00A84E5F0600302C3
:101F1F001FA8122C83786EE675F06484E5F0703B91
:101F2F00F678717601786A06E675F00A84E5F07046
:101F3F002A7871E64402F6786AE6FF75F03284E596
:101F4F00F070187871E64404F6EF75F06484E5F0EC
:101F5F007009786AF67871E64408F630053B900010
:101F6F002AE004F0D394134006E4F0D2A5802A901F
:101F7F000058E0FF700B90002AE0B40104C2A58066
:101F8F0018EFB4010B90002AE0B40404C2A5800935
:101F9F0090002AE0B40802C2A5786DE6603806E624
:101FAF00D3949F4031200824786FE6B4021E7874D2
:101FBF00E660197870E6FFC39408500EEF5403FFE4
:101FCF00BF0302D21A7870068002D21A786F760099
:101FDF00C208786D7600D007D006D005D004D003A4
:101FEF00D002D001D000D0D0D082D083D0F0D0E0BA
:011FFF0032AF
:03000300022A12BC
:102A1200C0E0C0D075D000C000C006C00720086565
:102A2200786F06E6FFB4020C786DE6D394914055B8
:102A3200D20880517868E6FEC313F6786DE6D39427
:102A42001040067868E64480F6EF640A6004EFB44A
:102A52001A077868E618F6802CEFB412127868E646
:102A6200B4BF0418E6601E78747600D2088016EFB0
:102A7200B42212D21A787076007868E6F41866608A
:102A820004C21AD208786D7601D007D006D000D0E1
:042A9200D0D0E0328E
:03000000023B7848
:0C3B7800787FE4F6D8FD7581740235CC2E
:100B0400E709F608DFFA8046E709F208DFFA803ED3
:100B140088828C83E709F0A3DFFA8032E309F608C0
:100B2400DFFA8078E309F208DFFA807088828C8328
:100B3400E309F0A3DFFA806489828A83E0A3F608DC
:100B4400DFFA805889828A83E0A3F208DFFA804CB6
:100B540080D280FA80C680D4806980F2803380108D
:100B640080A680EA809A80A880DA80E280CA8033F6
:100B740089828A83ECFAE493A3C8C582C8CCC5836E
:100B8400CCF0A3C8C582C8CCC583CCDFE9DEE7803E
:100B94000D89828A83E493A3F608DFF9ECFAA9F0BD
:100BA400EDFB2289828A83ECFAE0A3C8C582C8CC13
:100BB400C583CCF0A3C8C582C8CCC583CCDFEADE2C
:100BC400E880DB89828A83E493A3F208DFF980CC8E
:100BD40088F0EF60010E4E60C388F0ED2402B40487
:100BE4000050B9F582EB2402B4040050AF2323452E
:060BF4008223900B5473F4
:100BFA00BB010689828A83E0225002E722BBFE02F9
:090C0A00E32289828A83E493222B
:100C1300BB010CE58229F582E5833AF583E0225096
:100C230006E92582F8E622BBFE06E92582F8E222E0
:0D0C3300E58229F582E5833AF583E49322FA
:100C4000BB010989828A83F8E028F022500327F744
:100C500022BBFE05F8E328F3228A838982F8E49315
:020C6000282248
:100C6200BB010689828A83F0225002F722BBFE0171
:020C7200F3226B
:100C7400F8BB010DE58229F582E5833AF583E8F0B6
:100C8400225006E92582C8F622BBFE05E92582C862
:020C9400F2224A
:100C9600BC000BBE0029EF8DF084FFADF022E4CC42
:100CA600F875F008EF2FFFEE33FEEC33FCEE9DEC0B
:100CB600984005FCEE9DFE0FD5F0E9E4CEFD22ED51
:100CC600F8F5F0EE8420D21CFEADF075F008EF2F9B
:100CD600FFED33FD4007985006D5F0F222C398FD8C
:050CE6000FD5F0EA2229
:100CEB00BB010A89828A83E0F5F0A3E022500687D4
:100CFB00F009E71922BBFE07E3F5F009E319228996
:0B0D0B00828A83E493F5F074019322C8
:100D1600BB010789828A83020D925005E9F8020D0C
:100D260089BBFE05E9F8020D9B89828A83020DA420
:100D3600D083D082F8E4937012740193700DA3A34C
:100D460093F8740193F5828883E473740293686060
:060D5600EFA3A3A380DF60
:100D5C00D083D082F8E4937012740193700DA3A326
:100D6C0093F8740193F5828883E473740293B5F05D
:0D0D7C00067403936860E9A3A3A3A380D8C5
:090D8900E6FB08E6FA08E6F9228F
:090D9200E0FBA3E0FAA3E0F92262
:090D9B00E2FB08E2FA08E2F92289
:0C0DA400E493FB740193FA740293F922AB
:00000001FF
