:103EB3008F3C8D3D123F327FCC1239F5AF3C123926
:0A3EC300F5AF3D1239F5123FFF2262
:103D9E008F298C2A8D2B123F327FCC1239F5AF2909
:103DAE001239F5AF2B1239F5E52AFF1239F5123F0C
:023DBE00FF22E2
:10397F008F3D8B3E8A3F8940123F327FCC1239F503
:10398F00AF3D1239F5AB3E0540E540AA3F70020549
:10399F003F14F9120BB2FF1239F5E54215427002CE
:0B39AF00154114454170DE123FFF225D
:103CDC008F33E4F534123F327FCC1239F5200C14BB
:103CEC00AF331239F5123F327FCD1239F5D21E1295
:0A3CFC003A698F34123FFFAF342203
:1038CB008F48E4F549F54A123F327FCC1239F52087
:1038DB000C22AF481239F5123F327FCD1239F5C2A7
:1038EB001E123A697549008F4AD21E123A69EFFED1
:0C38FB00E4EE4249123FFFAE49AF4A2202
:1035E3008E388F398B3A8A3B893CD3E5399401E590
:1035F3003894004008E539153970021538C21E1297
:103603003A69AB3A053CE53CAA3B7002053B14F929
:10361300EF120C1AE5391539700215381445387054
:10362300DCD21E123A69AB3AAA3BA93CEF120C1A40
:03363300023FFF54
:103C86008F318B328A338934123F327FCC1239F529
:103C9600AF311239F5123F327FCD1239F5AB32AA68
:0B3CA60033A934AF36AE351235E322EF
:10376F008F308B318A328933123F327FCC1239F549
:10377F00AF301239F5123F327FCD1239F5C21E121A
:10378F003A697536008F37D3E5379535E536953479
:10379F004006853436853537AB31AA32A933AF377A
:0A37AF00AE361235E3AE36AF372216
:1039F5008F4B754C08C296E54B30E704D295800293
:103A0500C29512406DE54B25E0F54BD29612406DFF
:103A1500D54CE2C296D295120006D2961200063017
:0A3A25009502D20CC2961200062290
:103A6900D295120006754C08D296E54B25E0F54B28
:103A7900309503434B0112406DC29612406DD54CEF
:103A8900E7201E04C2958002D295120006D2961232
:073A99000006C296AF4B22AC
:103F3200D295D296120006C20C209502D20CC295DE
:063F4200120006C29622E7
:0D3FFF00C295120006D296120006D295223D
:050006007F0ADFFE226D
:01406D002230
:102509004B434D5F504F5745525F4F4E004B434D24
:102519005F524541445F495251204572726F7200C2
:102529004B434D5F4952515F504C41595F535441A0
:102539005445202530327800526573746F726541B5
:102549002025303278202530327820253032780025
:1025590053455420004B434D5F564F4C554D455FF5
:102569004354524C202564004B434D5F494E50550E
:10257900545F534F555243452025303278004B4321
:102589004D5F4C495354454E5F4D4F4445202530CE
:10259900327800417070436F6D6D616E6420253033
:1025A900327820253032782025303278000105082C
:1025B9000064005E01E803E40C10270010111230DA
:1025C9003132333420212224000203010507060495
:1025D9001918171615141312110001020304050620
:0325E900070809D7
:08404A00E4900056F0023E98DC
:103E98007D017F05123EB37F02124068900057747F
:0B3EA80064F07BFF7A257909022F23CC
:10212D008F6430940302223D7F01123CDC8F65AD3C
:10213D00657F03123EB3300C097BFF7A25791602B9
:10214D002F23E5655401D39400400312197CE565F6
:10215D005402D39400404D7F18123CDC90004DEF9B
:10216D00F07F1A123CDC900089EFF090004CE0FFFC
:10217D0064046004EFB4050F7FA21238CB90002CDD
:10218D00EEF0A3EFF0800E900057E07008201505DB
:10219D007F0712406890004DE07003123F881230A7
:1021AD00F6124073E5655408D394004003121627C8
:1021BD00E5655404D3940040167F2F123CDC90004B
:1021CD002BEFF090003BE0B438057F38124068E506
:1021DD00655410D394004003123689E5655440D3FD
:1021ED009400401A90003BE0FF6003B401107FA300
:1021FD001238CB900054EEF0A3EFF0122421E565D8
:10220D005420D39400401D7FA5123CDC900029EF93
:10221D00F07BFF7A257929F537122F23900029E0DD
:10222D00FF123A2FE5655480D3940040031226C067
:01223D00227E
:10197C007B007A00792A7535007536047F40123C5D
:10198C0086300C05E4FF024068E52A5403900056AB
:10199C00F0900065E52CF0A3E52DF0852B28AD2803
:1019AC007F20122C9D8F297BFF7A25794185283742
:1019BC00852938852B39122F23E529C39404400F30
:1019CC00E529D39408500890004CE52BF080069044
:1019DC00004CE529F07F20123CDC8F287B007A003C
:1019EC00792A7535007536027F81123C8690008C01
:1019FC00E52BF07F2F123CDC90002BEFF0E4F52769
:101A0C00AD277F091232388F29E5292430FF123C8B
:101A1C00DC8F28AD287F30122C9D74812527F58210
:101A2C00E43400F583EFF00527E527C3940840D094
:101A3C007F39123CDC8F28E528540FFD7F39122C9E
:101A4C009D90005FEFF0E528C4540FFD7F39122CF8
:101A5C009D900060EFF07F24123CDC8F28AD287F36
:101A6C0024122C9D7D507F2E123EB37D467F251275
:101A7C003EB37D467F26123EB3752A13752B127525
:101A8C002C30752D107B007A00792A754100754237
:101A9C00047F8012397F1225EC1240747BFF7A256B
:101AAC0079B675410075420E7F9012397FE4900033
:101ABC004DF0900089F0900054F0A3F0900029F0C4
:101ACC00C201C215C20690008AF0FF7E20121EF0E1
:101ADC007F02124068900057740AF0124073123063
:101AEC00F67FFF123B08900029E0FF123A2F90007E
:091AFC0056E0FDE4FF123AA022BD
:102E2D007BFF7A257959123B6BE4F526AD267F049D
:102E3D00123DE212000E7FFF1240417FFF12404112
:102E4D000526E526C3946440E3752802E4F529754B
:102E5D002A09752B09FB7A007928F5417542047F03
:102E6D004012397F7D277F2F123EB3E4F526E526EC
:102E7D002430FFE4FD123EB30526E526C394084039
:102E8D00ED7DAB7F24123EB37D017F05123EB37FF6
:0B2E9D0002124068900057741EF022E3
:1026C0007B007A0079277534007535087F981237BA
:1026D0006F8F2FE52F64026003022783E52724F81C
:1026E000607624E8602724F5604814605824FD6073
:1026F000030227717BFF7A25795E852837122F2305
:1027000090002BE528F07F3812406880767BFF7AB6
:10271000257971852837122F23AD287F20122C9D13
:1027200090004CEFF012406212400CE4FF1240683F
:1027300080517BFF7A257987852837122F23AF2890
:10274000122DAC803E7BFF7A257987852837122FA2
:1027500023AF28123B9C802BA206E433FFE52854CC
:1027600001B5071FE52830E21A90003B7438F0806D
:10277000127BFF7A25799C852F3785273885283964
:08278000122F237F01023B0828
:10323800EF24F7601324E5601D24F4601224107055
:1032480052ED9025C493FF22ED9025D193FF22EDF6
:103258009025D993FF22E4F53C900048E0D39400F0
:103268004003433C01900046E0D394004003433CB4
:1032780002900047E0FF25E025E0423C900049E04D
:10328800FFC454F0423CA3E0FFC4333354C0423C73
:06329800AF3C227F002282
:102C9D00E4FEEF24F7602124E5604724F4602E2440
:102CAD00107072EE9025C493B50503AF06220EEE9B
:102CBD00C3940D40EE7F0022EE9025D193B5050310
:102CCD00AF06220EEEC3940840EE7F0022EE902553
:102CDD00D993B50503AF06220EEEC3941340EE7FD4
:102CED000022ED30E1047F0180027F00900046EF6D
:102CFD00F0ED13135403A3F0ED30E0047F018002D7
:102D0D007F00900048EFF0EDC45403A3F0EDC41321
:082D1D00135403A3F07F002210
:103B3A008B468A478948EF6027AB460548E548AA7D
:103B4A00477002054714F9120BB2FEAB49054BE563
:103B5A004BAA4A7002054A14F9EE120C1A1F80D6B3
:013B6A002238
:102843006752656D6F766554696D65722025303208
:1028530078004D4B434D5F507265656D70746962CE
:102863006C653A25642025642F2564004B434D5F36
:102873005352435F56414C4944204520256420254B
:1028830064004B434D5F5352435F56414C49443AB6
:102893002530327825303278204C6173743A2530F4
:1028A300327825303278006D494E5055545F4120BF
:1028B30025303278004B434D5F5352435F56414CB2
:1028C3004944203D204C6173743A253032782530D9
:1028D30032780D0A0000010203002000401000407E
:0E28E3000001000200040004050608090A0BAB
:01406E00222F
:103AD6008F2490008AE0602904F0D394C840227FA6
:103AE60041123CDC8F257BFF7A28794385253712E6
:103AF6002F23E490003BF0AF2512353FE490008A77
:023B0600F022AB
:103DC0008F3212400CD219E532600D753330300657
:103DD0000AC2064333028003753320AD337F0802E5
:023DE0003EB3F0
:103E0400AD07EDC394FF500E7F09123238EF441012
:0E3E1400FD7F09023EB3E4FD7F09123EB3229A
:1034DC008F358D36124062E536601674812535F5D0
:1034EC0082E43400F583E0C394125019E004F080B8
:1034FC001474812535F582E43400F583E0D394000F
:10350C004003E014F0AD357F091232388F377481E7
:10351C002535F582E43400F583E0FD7F3012323836
:0A352C00AD07E5372430FF023EB37F
:0D400C00301509C215E4FD7F09123EB322F4
:06406200300602C2062236
:09353600F582E43400F583E0FFA6
:10353F008F27900074E0542CF0900073E054F8F053
:10354F00A3E054FBF012406212400C90003BE0FFEE
:10355F0060046401702590004CE527F0FDFF123DDB
:10356F002F90004CE0B404077FA0123BCD800C904D
:10357F00004CE0B405057FA1123BCD7F01024068EE
:103723007BFF7A287955900027E0FF2433F582E464
:103733003400F583E0F5378F3890003CE0F539121B
:103743002F2390003CE0601B900027E024331235C8
:103753003690003CE0FF900027E004F0C39F400B4D
:0C376300E4F02290004CE0FF12353F2201
:1033CB00E490003BF0900058E0FF601190003DE06E
:1033DB00FEC39F500874332E123536802090005850
:1033EB00E0FF90003DE0C39FFFE49400FE74D82FF4
:1033FB00F58274283EF583E493FF12353F90005815
:10340B00E02404FFE433FE90003DE004F0C39FEEA4
:0B341B006480F87480984002E4F02206
:103D2F008D28AD077F20123238AD077F20123EB3AA
:103D3F00E528D39403500EAD287F20123238AD07FB
:063D4F007F41123EB32289
:101EF0008E2E8F2FE4F53090008CE0B45311AF306C
:101F0000053074332FF582E43400F5837407F0E56F
:101F10002F452E7003021FE5E4F531E53125E0245D
:101F2000DCF582E43428F583E493F532740193F50B
:101F300033E52E5532FEE52F55334E603DE53364D3
:101F4000204532700C90002EE07002A3E0701480E7
:101F500029E53364404532700A90002EE07002A3F8
:101F6000E07017E5319028EA93FFAE300530743306
:101F70002EF582E43400F583EFF00531E531640796
:101F80007099900058E06530600BE490003DF0904F
:101F90000058E530F0E4F531900058E0FFE531C33A
:101FA0009F501C74332531F582E43400F583E0FE44
:101FB000C394094006EED3940C4004053180D990B7
:101FC000003CE06531600BE4900027F090003CE5B8
:101FD00030F07BFF7A28796F90003CE0F5378F383E
:101FE000122F23801F90003CE530F0E4900058F061
:101FF000900027F090003DF090002EF0A3F09000AC
:0F20000050F0A3F0900091E52EF0A3E52FF02211
:103BCD008F281238CBE528B4A00A90002EEEF0A372
:103BDD00EFF08008900050EEF0A3EFF0EF4E600C88
:0F3BED0074FFFDFC7FA4123D9E7F01227F00220A
:101627007F1C1238CB8E168F17900091E0FCA3E039
:10163700FD65177003EC651670030217C5C21D7BA5
:10164700FF7A287985E516F538753700F539851756
:101657003AECF53C753B00F53D8D3E122F23E4F542
:1016670018E51825E024DCF582E43428F583E493B3
:10167700F519740193F51AE5165519FEE517551A6C
:101687004E700302170B900091E05519FEA3E05529
:101697001A4E7070D21DE5197032E51A24F9602AC6
:1016A70024C76015242070247FA0123BCDEF701C47
:1016B7007F0E124068C21D80137FA1123BCDEF70D1
:1016C7000B7F0F124068C21D8002C21D301D41E50D
:1016D700189028EA93FF90004CE0FD123D2FE51883
:1016E7009028EA9390004CF07BFF7A2879AAF53787
:1016F700122F23E490003BF07F01124068E4900032
:101707008AF0800C0518E518C39407500302166881
:10171700301D030217BEE4F518E51825E024DCF5B3
:1017270082E43428F583E493F519740193F51AE5F7
:10173700165519FEE517551A4E7070900091E05531
:1017470019FEA3E0551A4E6062E51A8519F0120DCD
:1017570014176C0020177E00401790100017974051
:10176700000000179CE490002EF0A3F0FF123A2F20
:101777007F10124068801EE4900050F0A3F0FF1223
:101787003A2F7F11124068800C7F12124068800543
:101797007F13124068E5189028EA93FF90004CE009
:1017A700B5071490008A7401F0800C0518E518C37A
:1017B70094075003021720AF17AE16021EF07BFFE7
:1017C7007A2879B8E516F538753700F53985173A67
:0417D700122F232288
:103D0600205245534554004D4B45595F506C6179DF
:103D16005061757365204120256420253032780076
:093D26000102040001102021300B
:01406F00222E
:100601008F67123163300125301A0BC21A786CE6FC
:10061100B42603123E98200703020ABBC207D21474
:100621007879E664186003020ABB023E982007034A
:100631000206D1C207D2147879E6120CEE068808B8
:10064100067011066912066214065D1806A42806D2
:100651007A2A06812E06755E000006D11233CB8000
:100661006F7F011236368068E4FF123636806112E0
:100671003D55805C12342680577F02123D7B8050AD
:100681007F01123D7B804990003BE0FFC3943840DD
:100691000DEFD3943F5007E4FF1240688032123EC1
:1006A10022802D90003BE0FFC394384006EFD394A5
:1006B1003A40077F38124068801690003BE004F012
:1006C100D3943A40037438F090003BE0FF12406845
:1006D100787BE6600C06E6D3943C4005E4F6787737
:1006E100F6201A03020A95C21A786CE6120CEE0A79
:1006F10089000A90030A6D0408B0060A74070A53B8
:10070100080A580B0A3E0C08380E0A0210083E125D
:10071100091C1607B6180988200769260A242A0A1F
:100721002B2E0A82400A7B420A66440884450A5FEE
:10073100460A454A0A374C07BC4D0A324E088A50D0
:100741000844510A4C5409CC550A1256078B5808D3
:10075100905A08615B07A45C0A0C5E09AA6D07FA4E
:10076100F10A1BF400000A95B2013001087F08125A
:100771004068020A957D017F05123EB37F02124057
:1007810068900057741EF0020A9590003BE0B4098E
:10079100047F0480027F008F68AD687F09120FEA31
:1007A100020A957BFF7A3D7906123B6B12000E120D
:1007B1002E2D020A95124075020A9590003BE0FF2A
:1007C100C3942E4012EFD39435500C787B76017D83
:1007D10004120FEA020A9590003BE0FFC3942450F3
:1007E10003020A95EFD3942B4003020A95787B7696
:1007F100017D04120FEA020A9590003BE0FFC394C9
:100801002E4012EFD39435500C787B76017D031284
:020811000FEAEC
:10081300020A9590003BE0FFC394245003020A951B
:10082300EFD3942B4003020A95787B76017D031264
:100833000FEA020A95124076020A95124077020ADD
:1008430095787B760190003BE0B438047F04800206
:100853007F008F68AD687F38120FEA020A95300671
:1008630003020A95787B760190003BE0B438047F5D
:100873000380027F008F68AD687F38120FEA020A97
:1008830095123ECD020A95123E22020A9590003B34
:10089300E0FFC39446400EEFD394505008E4FF1298
:1008A3004068020A957F46124068020A9590003B11
:1008B300E0FFC394465003020A95EFD394504003DC
:1008C300020A95E004F0E0B4480C900047E070069B
:1008D30090003BE004F090003BE0B4490C900049E9
:1008E300E0700690003BE004F090003BE0B44A0C5B
:1008F30090004AE0700690003BE004F090003BE07B
:10090300D3945040037446F090003BE0FF124068DC
:100913009000537432F0020A9590003BE0FFC394B9
:10092300465003020A95EFD394504003020A95E020
:1009330014F0E0B44A0C90004AE0700690003BE0EB
:1009430014F090003BE0B4490C900049E07006902D
:10095300003BE014F090003BE0B4480C900047E00B
:10096300700690003BE014F090003BE0C3944650C7
:10097300037450F090003BE0FF1240689000537402
:1009830032F0020A9590003BE0FFC3944650030205
:100993000A95EFD394504003020A95787B76017D44
:1009A30003120FEA020A9590003BE0FFC3944650FE
:1009B30003020A95EFD394504003020A95787B769D
:1009C300017D04120FEA020A9590003BE0FFC394F5
:1009D3002E4006EFD39435400B12400C7F2E12406D
:1009E30068020A9590003BE024D2FF1230868F699B
:1009F300E569242EFF90003BF0124068020A957DC2
:100A0300037FA5123EB3020A95123426020A957D8E
:100A1300047FA6123EB3807A7D037FA6123EB38085
:100A2300717F02123D7B806A7F01123D7B806312DE
:100A33003D55805E7F0B12406880577F0C124068E3
:100A430080507F011236368049E4FF1236368042E9
:100A5300124070803D7F0512353F80367F09123585
:100A63003F802F7F0A12353F80287F0B12353F804E
:100A7300217F0712353F801A7F0112353F80137F94
:100A83000212353F800C7F0312353F8005E4FF12CD
:100A9300353F301C23C21C90003BE0FFC394384019
:100AA30012EFD3943A500C3012047D0480027D037C
:090AB300020FEA7F3812406822AC
:103E2200B2063006047F0480027F03AD077F0A12C8
:0E3E32000FEA2006057F3812406812400C226D
:103ECD00B21530150A7F24124068E4FF023E04E467
:0A3EDD00FF1240687FFF123E04222E
:103426007BFF7A3D790D90004CE0F537900029E05E
:10343600F538122F2390004CE0FF64046005EF641A
:10344600057037900029E05403F526B402137D0178
:103456007FA5123EB3900029E054FCF04401F080B1
:10346600117D027FA5123EB3900029E054FCF04482
:0B34760002F0900029E0FF123A2F2224
:01407000222D
:103636008F267F2B123CDC8F2790003BE0640370C3
:103646003D123CB18F28E526600EE52870047F0107
:1036560080027F008F288018E528C39402500575E4
:103666002802800C0528E528D39405400375280216
:10367600E528903D2993F527FD7F2B123EB3AF2712
:03368600022DAC66
:101448004B434D2D4E4F00202D4F46462D00204832
:10145800454C4C4F004D5554452020004D555445A2
:101468002D2D00564F4C20202000564F4C20004E6A
:101478004F4953452000465253502000434553508E
:101488002000535753502000535253502000424BD2
:10149800535020004C504620004C495053004652AF
:1014A800444C20004345444C20005357444C2000F2
:1014B800424B444C20004D50330020200020202077
:1014C800202020004D4449505F506C6179536B696E
:1014D8007020412025640050434D00322F34004EC7
:1014E80049472D4F4E004E49472D4F460046574419
:1014F8004F4E4500465720457272004657202D0032
:10150800464C547443455474535754744652547457
:101518005352547442525474424C5474534C54743D
:1015280000464C54724345547253575472465254B1
:10153800725352547242525472424C5472534C5425
:1015480072004155582D494E4F5054494341434F1D
:10155800412D4431434F412D4432202D53442D20F9
:10156800202D5553422D202D50432D202045384302
:1015780048202D42542D202048444D492D314844BF
:101588004D492D3248444D492D3348444D492D414C
:101598000033324B34384B35364B36344B38304BBE
:1015A80039364B31313231323831363031393232E5
:1015B800323432353633323033383400202048491B
:1015C800464920322B3143484D4F444520200032B4
:1015D8002F30312F30322F30332F30322F31332FFD
:1015E80031322F32332F32332F33332F34322F33DC
:1015F800322F340053442D494E2055442D494E2056
:1016080053442D4F555455442D4F555450432D4F49
:0F161800555442542D4F555448442D4F555400AE
:103FC100E4FDFF123AA0E4FF123E7BE4900030F0E2
:013FD10022CD
:1028F1008F24300F05C20F12000EE5245402D39429
:10290100005003022997900030E0601514F0700721
:102911007F01123B08800A900030E05401FF123B16
:1029210008900057E0D394004003E4F02230060BF6
:10293100900053E070057F0A124068200158900012
:1029410053E0605214F07024201506FF1240688095
:102951004590003BE024DCFF1230868F25E52524DD
:1029610024FF124068AF25123E04802A30002790D0
:102971000053E0FF75F00584E5F0701AEF75F0057E
:1029810084F52590003BE0FFE52530E0047D0280E1
:07299100027D01120FEA2292
:05406800E4FD020FEA77
:09402F009000537414F0C2002249
:0840520090003BEFF002402F4B
:0F3FD200C205D2A5123EE7900073E0540FF02213
:100FEA008F308D31E531700312402F123FD2E53038
:100FFA00120CEE109D0010BC0110CE021112061147
:10100A001E0710C20810E30911410A11240B112A04
:10101A000C11300E11300F11301011301111301225
:10102A00113013113014113B1511EA2411EA25115C
:10103A00EA2611EA2711EA2811EA2911EA2A11EA0D
:10104A002B11F32E11F32F11F33011F33111F33267
:10105A0011F33311F33411F335119D3811FF39119E
:10106A00FF3A11FF3B11FF3C11FF3D11FF3E11FFFB
:10107A003F12174612174712174812174912174AF2
:10108A00120B4B120B4C120B4D120B4E120B4F0044
:10109A00001223200C0512242180097BFF7A14797F
:1010AA0048123B6BE490003BF0900053F0D20502EB
:1010BA00122A12242102122A7BFF7A14794F123B38
:1010CA006B02122A7BFF7A147956123B6B12000EBE
:1010DA00900053740AF002122AE531B4041D9000FC
:1010EA00537414F0900056E004F0D394024002E4E2
:1010FA00F0900056E0FD7F40123EB3900056E0FDAE
:10110A007F01123AA002122A9000537432F0124060
:10111A007202122A12299802122A1239BA02122AC1
:10112A0012384A02122AE53024F2FF123F1A02123A
:10113A002A12358F02122AE5316003B4040890009E
:10114A00537450F0D200E531C394024005E531B43E
:10115A00040B7BFF7A14795D123B6B800EE531B488
:10116A0002097BFF7A147964123B6BE531B4040AF5
:10117A007D037F08123EB302122AE531640360033D
:10118A0002122A9000537414F07D027F08123EB3B3
:10119A0002122AE531C39403401590003BE0B438AB
:0311AA000EE5311E
:1011AD00B404047F0180027F00123DC0E531B4021A
:1011BD000B7BFF7A14796B123B6B80617BFF7A148A
:1011CD007972123B6B90002BE0FD7F04123DE2E53E
:1011DD0031704A9000537450F0D2008040AD31AF61
:1011ED003012329E803712400CAD31AF30122B7958
:1011FD00802B12400CAD31AF30122C11801F1240DC
:10120D000CAD31AF30121B05801312400CAD31AF58
:10121D00301223378007AD31AF30123F0190003BC4
:04122D00E530F02296
:10384A007F09123CDC8F3230151390003BE0B40C38
:10385A000C0532E532D394074003E4F532AD327FEA
:10386A0009123EB37BFF7A147977123B6BE5322457
:10387A0031FD7F05120D70301509E4900031F0FF1B
:04388A00123E0422C4
:10308600EFB407005067903093F82828730230A8F1
:103096000230BD0230C90230CC0230E10230ED020E
:1030A60030F0900047E060037F0122900048E06026
:1030B600037F02227F0322900048E060037F022202
:1030C6007F03227F0322900049E060037F04229061
:1030D600004AE060037F05227F002290004AE060FC
:1030E600037F05227F00227F06227F07227F0022A0
:10329E008F328D33E533C39403401E90003BE0B56F
:1032AE00321724DCFFE533B404047D0180027D0077
:1032BE001234DC9000537450F074DC2532F5327504
:1032CE00F004A42408F9741535F0FA7BFF123B6B59
:1032DE00E533B4020E7D207F04120D707D207F0534
:1032EE00020D7074812532F582E43400F583E0FF1F
:0632FE00123C59D200222F
:102B79008F328D33E533C39403401E90003BE0B59B
:102B8900321724D2FFE533B404047D0180027D00AD
:102B99001234DC9000537450F074D22532F532753A
:102BA900F004A42429F9741535F0FA7BFF123B6B64
:102BB900E533B4020E7D207F04120D707D207F0560
:102BC900020D7074812532F582E43400F583E0F555
:102BD90034C3940950147D2D7F04120D70C37439C8
:102BE9009534FD7F05120D7080117D207F04120D33
:102BF90070E5342427FD7F05120D70E533700890C8
:082C090000537450F0D20022C8
:101B05008F328D33900073E04450F0A3E0F09000E5
:101B1500537450F07D207F04120D707D207F0512D7
:101B25000D70E53224B46056147003021BBA1470AC
:101B350003021BF1147003021C28147003021C5FBE
:101B450024056003021C687BFF7A14797E123B6BC7
:101B5500E533C39403401B900046E004F0D39401A1
:101B65004002E4F0E4FD7F24123238AD077F2412F1
:101B75003EB3E4FF123907AD077F05020D707BFF09
:101B85007A147984123B6BE533C39403401B9000B0
:101B950047E004F0D394024002E4F0E4FD7F241210
:101BA5003238AD077F24123EB37F01123907AD07E6
:101BB5007F05020D707BFF7A14798A123B6BE53342
:101BC500C39403401B900048E004F0D39401400205
:101BD500E4F0E4FD7F24123238AD077F24123EB3D2
:101BE5007F02123907AD077F05020D707BFF7A145E
:101BF5007990123B6BE533C39403401B900049E099
:101C050004F0D394024002E4F0E4FD7F241232385C
:101C1500AD077F24123EB37F03123907AD077F0559
:101C2500020D707BFF7A147996123B6BE533C394F2
:101C350003401B90004AE004F0D394024002E4F014
:101C4500E4FD7F24123238AD077F24123EB37F04B2
:101C5500123907AD077F05020D707BFF7A14799C59
:041C6500123B6B22A1
:102337008F328D33E53224B9603A14605A14607ACB
:102347001470030223E4240460030224059000733D
:10235700E04440F0A3E0F07BFF7A1479A1123B6BD5
:10236700E533C394035003022405AD33E4FF123170
:10237700CE0224057BFF7A1479A6123B6B9000737B
:10238700E04450F0A3E0F0E533C394034070AD336D
:102397007F011231CE80677BFF7A1479AC123B6BD9
:1023A700900073E04450F0A3E0F0E533C39403409A
:1023B7004DAD337F021231CE80447BFF7A1479B260
:1023C700123B6B900073E04450F0A3E0F0E533C399
:1023D7009403402AAD337F031231CE80217BFF7AED
:1023E7001479B8123B6B900073E04450F0A3E0F00F
:1023F700E533C394034007AD337F041231CE900019
:10240700537432F074F82532F582E434FFF583E033
:0A24170075F005A4FD7F04023DE20C
:10242100021DC3900054E0FEA3E0FFD39400EE949C
:102431000050030224F3EF9403EE9400500302359D
:102441008FC3900055E09405900054E094005064CF
:10245100900089E0FF131313541FF53790004DE0EE
:10246100540F640A704E9000537414F0E537D394FE
:10247100004041E5379410503B754900754A00759D
:102481004B387BFF7A1479BE7F03123B3AE53775EF
:10249100F003A42496F9741535F0FA7BFF75490011
:1024A100754A00754B3B7F03123B3A7B007A0079FA
:1024B10038023B6B7BFF7A1479C2123B6B9000545C
:1024C100E0FEA3E0FF7C007D3C120C4EAD077F02D5
:1024D100123DE2900054E0FEA3E0FF7C007D3C123F
:1024E1000C4E7F04123DE2900073E04440F0A3E003
:1024F100F02290004CE075F006A4244AF9741535D9
:08250100F0FA7BFF123B6B2294
:10358F007FA41238CBEF2401F547E43EF5469000B7
:10359F0073E054BFF07BFF7A1479C5123B6BAD47D4
:1035AF00AC46E4FF122AE08F4505457D2F120D70C2
:1035BF0090004CE0B4040D90002EE0FEA3E0FFACB1
:1035CF0006FD800B900050E0FEA3E0FFAC06FDAFC0
:0435DF0045022AE097
:103D7B008F26E4900054F0A3F0900089F0122421D8
:103D8B00AD267FA6123EB37BFF7A1479CC852637FE
:033D9B00022F23D1
:01407100222C
:01407200222B
:103CB100AE07EE543024F0601224F060112420701D
:103CC10017EE30E0037F01227F00227F0222EE30D7
:0B3CD100E0037F04227F03227F052216
:102DAC008F30123CB18F31123FD2900074E0542C12
:102DBC00F0E531C39402501CE53175F006A424C42F
:102DCC00F9741535F0FA7BFF123B6B900074E044FC
:102DDC0001F080457BFF7A1579D0123B6BE53124ED
:102DEC002FFD7F05120D70E53024FD601314601962
:102DFC0014601F24037022900074E04402F08019C8
:102E0C00900074E04480F08010900074E04440F036
:102E1C008007900074E04410F012402F7F030240B2
:012E2C005253
:1029980090004DE0FF540FC394025003022A3BE419
:1029A800F536EFC4540F75F003A4F5327BFF7A14A3
:1029B80079C5123B6B1230F690004DE0540F24FDA0
:1029C800602414604314604024FE605E24F760169F
:1029D80014601324FD24FD502F241570597BFF7AB1
:1029E8001479DF023B6B74D72532F9E43415FA7B8E
:1029F800FF754900754A00754B337F03123B3A7BDC
:102A0800007A007933023B6B74D72532F9E4341528
:102A1800FA7BFF754900754A00754B337F03123BFB
:102A28003A7B007A007933023B6B7BFF7A1479E3B7
:072A3800023B6B1224212276
:10390700AE07EE700C900046E060037F4C227F53B9
:1039170022BE020C900048E060037F59227F4E22AE
:1039270074462EF582E43400F583E0FDB402037F8C
:0C3937004C22EDB401037F53227F4E228E
:1039BA007F23123CDC8F3290003BE0B40B16E532D9
:1039CA00C3943250057532328003E4F532AD327F4A
:1039DA0023123EB3E53260097BFF7A1479E7023B92
:0B39EA006B7BFF7A1479EE123B6B221E
:103F1A009000537432F0EF75F006A424FCF974157E
:083F2A0035F0FA7BFF023B6B4E
:1031CE00EF70047C0180027C00EC1460111460121C
:1031DE00146013146014240470127E13800E7E0982
:1031EE00800A7E0980067E0980027E09BD04247451
:1031FE003E2FF582E43400F583E0D39E4002EEF0DC
:10320E00743E2FF582E43400F583E0C39E501AE03D
:10321E0004F022BD0313743E2FF582E43400F583CF
:0A322E00E0D394004003E014F02206
:103689007B007A0079277535007536027F81123CF7
:1036990086E527B4640B7BFF7A1479F5123B6B80BE
:1036A90020E527B4680B7BFF7A1479FC123B6B8009
:1036B900107BFF7A157903123B6BAD277F04123D0E
:0D36C900E27F0D124052900053743CF0223D
:0A40250090002BE0FD7F04023DE255
:103C59008F35E535C3940950127D2D7F04120D70FF
:103C6900C374399535FD7F05020D707D207F0412DF
:0D3C79000D70E5352427FD7F05120D70222A
:103E5E00EF600C120BB2C39D50127401020BF812DC
:0D3E6E000BB2D39400400574FF120BF82234
:10336A004252494748000002070000243F00060075
:10337A00DB00CF00E600ED00FD000700FF00EF00D4
:10338A00F7128F0039120F00F900F100BD00F61292
:10339A0009001E0C70003805360936003F00F30894
:1033AA003F08F300ED1201003E243028362D0000BC
:1033BA00EE240900C0240012C00010181C1C1E1E96
:0133CA001FE3
:1037B900D2A5C2937F011240417F40123F487F0149
:1037C900124041D2937F01124041C2937F011240BE
:1037D900417FC0123F487F01124041E4F524E4FFD4
:1037E900123F487F011240410524E524C39410404B
:0937F900ED7F0A124041D2932237
:103AA0008D32EFD3940040137BFF7A33796A123B57
:103AB0006BE5322431FD7F05120D70C2937F011238
:103AC0004041E532903370934488FF123F487F01B4
:063AD000124041D29322D6
:01407300222A
:1030F600900073E054F8F0A3E054FBF090004DE02C
:10310600540F24FD603514603B14603824FE604083
:1031160024F7602714602424FD24FD50272415700D
:103126003990008CE0FF64536030EF6456602B905A
:103136000073E04404F0A3E0F0801F900074E044C4
:1031460004F08016900073E04401F0A3E0F0800ADA
:0D315600900073E04404F0A3E0F0D20F22DB
:103A2F00EF5403FE900076E054F0F0BE0106E04440
:103A3F0008F0800ABF0207900076E04404F0EF54CC
:103A4F00C0FE6013BEC009900076E04401F080070D
:0A3A5F00900076E04402F0D20F223E
:103B08008F30E530B4FF117F1F123CDCEF30E70443
:103B18007F0180027F008F30E530600C900073E0F9
:103B28004408F0A3E0F08007900073E054F7F0D267
:023B38000F225A
:103C2B008B458A4689478D48E4F549E549C3954854
:103C3B00501BAB45AA46A947854982758300120BD9
:0E3C4B00CBFD6009AF49120D70054980DE22E5
:103B6B008B488A49894AE4F54CAB48054AE54AAA91
:103B7B00497002054914F9120BB2F54B6012AD4BAB
:103B8B00AF4C120D70054CC3E54C6480948640D944
:013B9B002207
:102AE0008F488C498D4AAE49AF4A7C277D10120C25
:102AF0004EEF4E6012120D68AE49AF4A7C277D1032
:102B0000120C4E8C498D4AAE49AF4A7C037DE812C7
:102B10000C4EEF4E6012120D68AE49AF4A7C037D39
:102B2000E8120C4E8C498D4AAE49AF4A7C007D6458
:102B3000120C4EEF4E6012120D68AE49AF4A7C0087
:102B40007D64120C4E8C498D4AAE49AF4A7C007DA3
:102B50000A120C4EEF4E6012120D68AE49AF4A7C5D
:102B6000007D0A120C4E8C498D4AAF480548E54A53
:092B70002430FD120D70AF482263
:103DE2008F458D46E54675F00A842430FD120D702C
:103DF200E54504FFE54675F00A84E5F02430FD024E
:023E02000D7041
:080D6800EF2430FDAF480548FF
:100D70008F4D8D4EE54DC394034003020E3BE54E6F
:100D8000C394304012E54ED39439500B74D0254EA5
:100D9000F54E04F54F804CE54EC39461400FE54E8F
:100DA000D3947A5008E54E24AAF54F8036E54EC319
:100DB0009441400FE54ED3945A5008E54E24CAF5AD
:100DC0004F8020E54E24D5601224FC600924027077
:100DD0000F754F25800D754F268008754F278003AE
:100DE000E4F54FE54F25E02473F582E43433F583D1
:100DF000E493FEE54D25E02467F582E43400F583B5
:100E0000EEF0A3E4F0E54D25E02467F582E434003C
:100E1000F583C083C082E0FEA3E0FFE54F25E02418
:100E200074F582E43433F583E493FDEEEF4DFFD0A7
:100E300082D083EEF0A3EFF0020FE7E54DC39406F6
:100E40004003020F71E54EC394304066E54ED394E3
:100E500039505F74D0254EF54E04F54F25E02473CC
:100E6000F582E43433F583E493FEE54D25E0246711
:100E7000F582E43400F583EEF0A3E4F0E54D25E0DF
:100E80002467F582E43400F583C083C082E0FEA3CA
:100E9000E0FFE54F25E02474F582E43433F583E484
:100EA00093FDEEEF4DFFD082D083EEF0A3EFF00282
:100EB0000FE7E54E120CEE0EFA2D0EFF410F044225
:100EC0000F09430F0E440F13450F18460F1D470F10
:100ED00027480F22490F2C4C0F314E0F364F0F3B36
:100EE000500F40520F45530F4A540F4F550F54594E
:100EF0000F40720F4A7400000F59754EC0805D7527
:100F00004EF78058754E7C8053754E39804E754E25
:100F1000DE8049754EF98044754EF1803F754EEF85
:100F2000803A754E068035754EF68030754E3880A5
:100F30002B754E378026754E3F8021754EF3801CF1
:100F4000754E508017754EED8012754EF8800D75F8
:100F50004E3E8008754E6E8003E4F54EE54D25E06B
:100F60002467F582E43400F583E4F0A3E54EF080D5
:100F700076E54DD39406401AE54D940D5014E54E98
:100F8000C39401400DE54ED394055006E54E24264A
:100F9000F54FE54F25E02473F582E43433F583E41F
:100FA00093FEE54D25E02467F582E43400F583EEF9
:100FB000F0A3E4F0E54D25E02467F582E43400F584
:100FC00083C083C082E0FEA3E0FFE54F25E02474E8
:100FD000F582E43433F583E493FDEEEF4DFFD082E8
:0A0FE000D083EEF0A3EFF0D20F2251
:103EE700E4FFEF25E02477F582E43400F583E4F07E
:0A3EF700A3F00FEFC3940540E92289
:063FE100131313541FFF2F
:093FE700EF54079033C393FF224D
:103481007B007A00791C7535007536037F91123CFB
:1034910086300C03023EE7AF1C123FE7900077E451
:1034A100F0A3EFF0E51C123FE1900079E4F0A3EF07
:1034B100F0AF1D123FE790007BE4F0A3EFF0E51DB4
:1034C100123FE190007DE4F0A3EFF0AF1E123FE761
:0B34D10090007FE4F0A3EFF0D20F2288
:103F8800E4FFE4900077F0A3F00FEFC3940540F24C
:033F9800D20F2223
:103E7B00E4FEEFFDEE25E02467F582E43400F583E4
:0D3E8B00E4F0A3EDF00EEEC3940D40E6222E
:10000E00E4FF74062FF582E43400F583E4F00FEF7D
:10001E00C3941040ED900067E0FEA3E0FF30E007D0
:10002E00900014E04408F0EF30E10790000DE0443A
:10003E0008F0EF30E207900006E04408F090006808
:10004E00E030E307900009E04408F0900067E0FE1E
:10005E00A3E0FF30E407900011E04408F0EF30E534
:10006E0007900015E04408F0EF30E60790000FE02F
:10007E004408F0900068E030E70790000CE0440878
:10008E00F0900067E0FEA3E0FFEE30E00790001373
:10009E00E04408F0EE30E107900012E04408F0EE84
:1000AE0030E20790000BE04408F0900067E0A330C8
:1000BE00E307900007E04408F0900067E0FEA3E03D
:1000CE00FFEE30E407900008E04408F0EE30E5075C
:1000DE0090000EE04408F0900069E0FEA3E0FF30CF
:1000EE00E007900014E04420F0EF30E10790000D9F
:1000FE00E04420F0EF30E207900006E04420F0905C
:10010E00006AE030E307900009E04420F0900069B7
:10011E00E0FEA3E0FF30E407900011E04420F0EF92
:10012E0030E507900015E04420F0EF30E607900030
:10013E000FE04420F090006AE030E70790000CE0FA
:10014E004420F0900069E0FEA3E0FFEE30E007905F
:10015E000013E04420F0EE30E107900012E044205E
:10016E00F0EE30E20790000BE04420F0900069E0E2
:10017E00A330E307900007E04420F0900069E0FE12
:10018E00A3E0FFEE30E407900008E04420F0EE30EC
:10019E00E50790000EE04420F090006BE0FEA3E037
:1001AE00FF30E007900014E04410F0EF30E10790CC
:1001BE00000DE04410F0EF30E207900006E044102E
:1001CE00F090006CE030E307900009E04410F090EE
:1001DE00006BE0FEA3E0FF30E407900011E0441056
:1001EE00F0EF30E507900015E04410F0EF30E60731
:1001FE0090000FE04410F090006CE030E7079000A4
:10020E000CE04410F090006BE0FEA3E0FFEE30E057
:10021E0007900013E04410F0EE30E107900012E07A
:10022E004410F0EE30E20790000BE04410F0900026
:10023E006BE0A330E307900007E04410F090006BF2
:10024E00E0FEA3E0FFEE30E407900008E04410F07B
:10025E00EE30E50790000EE04410F090006DE0FEE9
:10026E00A3E0FF30E007900014E04404F0EF30E12B
:10027E000790000DE04404F0EF30E207900006E036
:10028E004404F090006EE030E307900009E044046F
:10029E00F090006DE0FEA3E0FF30E407900011E067
:1002AE004404F0EF30E507900015E04404F0EF3021
:1002BE00E60790000FE04404F090006FE0FEA3E02C
:1002CE00FF30E007900014E04480F0EF30E107903B
:1002DE00000DE04480F0EF30E207900006E044802D
:1002EE00F0900070E030E307900009E04480F09059
:1002FE00006FE0FEA3E0FF30E407900011E04480C1
:10030E00F0EF30E507900015E04480F0EF30E6079F
:10031E0090000FE04480F0900071E0FEA3E0FF300B
:10032E00E007900014E04402F0EF30E10790000D7A
:10033E00E04402F0EF30E207900006E04402F09055
:10034E000072E030E307900009E04402F090007183
:10035E00E0FEA3E0FF30E407900011E04402F0EF6E
:10036E0030E507900015E04402F0EF30E60790000C
:10037E000FE04402F0900073E0FEA3E0FF30E007D0
:10038E00900014E04401F0EF30E10790000DE044DE
:10039E0001F0EF30E207900006E04401F0900074A7
:1003AE00E030E307900009E04401F0900073E0FEB6
:1003BE00A3E0FF30E407900011E04401F0EF30E5D8
:1003CE0007900015E04401F0EF30E60790000FE0D3
:1003DE004401F0900074E030E70790000CE0440117
:0403EE00F090007318
:1003F200E0FEA3E0FFEE30E007900013E04401F0DE
:10040200EE30E107900012E04401F0EE30E2079096
:10041200000BE04401F0900073E0A330E30790008A
:1004220007E04401F0900073E0FEA3E0FFEE30E449
:1004320007900010E04420F0EE30E507900010E055
:100442004410F0EE30E607900010E04404F0900013
:1004520075E0FEA3E0FF30E00790000BE04404F0FB
:10046200EF30E107900012E04404F0EF30E2079031
:100472000013E04404F0900076E030E30790000CB3
:10048200E04404F0900077E0FEA3E0FF30E0079044
:100492000007E04480F0EF30E10790000BE0448079
:1004A200F0EF30E207900012E04480F0900078E034
:1004B20030E307900013E04480F0900078E030E4ED
:1004C2000790000CE04480F0900079E0FEA3E0FF8A
:1004D20030E00790000BE04402F0EF30E1079000BB
:1004E20012E04402F0EF30E207900013E04402F021
:1004F20090007AE030E30790000CE04402F09000B4
:100502007BE0FEA3E0FF30E007900011E04440F002
:10051200EF30E107900009E04440F0EF30E207904D
:100522000006E04440F090007CE030E30790000DCC
:10053200E04440F090007CE030E407900014E04496
:1005420040F090007DE0FEA3E0FF30E00790001352
:10055200E04440F0EF30E10790000CE04440F0EF5F
:1005620030E20790000FE04440F090007EE030E37C
:1005720007900015E04440F090007FE0FEA3E0FF0A
:1005820030E00790000EE04440F0EF30E1079000C9
:1005920008E04440F0EF30E207900007E04440F00A
:1005A200900080E030E30790000BE04440F09000C0
:1005B20080E030E407900012E04440F0C2937F01F3
:1005C2001240417F40123F487F01124041D2937F47
:1005D20001124041C2937F011240417FC0123F4845
:1005E200E4F53274062532F582E43400F583E0FF47
:0F05F200123F480532E532C3941040E7D29322FE
:103F48007E08C290EF139291EFC313FFD2901EEE3A
:063F5800D3940050ED229D
:103304000305C2689F06243152750008058203062E
:10331400000F828C050F008C020A858800058384C7
:103324000B0D0020464C4154202045512020200004
:103334000999999F004D4943314D494332454348CA
:103344004F5245505444454C594D4241534D5452AB
:1033540045000907070705050505030306040804D6
:0633640009040A030B023C
:1025EC00E4F52F78317C007D007BFF7A3379047E13
:1025FC00007F05120B8CE52F04F5307B007A0079F7
:10260C00307541007542067F8B12397F752E01E4BF
:10261C00FFE52F75F006A4240FF582E43433F5831F
:10262C00E5822FF582E43583F583E493FEE52F757F
:10263C00F006A42410F582E43433F583E5822FF5FB
:10264C0082E43583F583E493FDEF90330993547F53
:10265C00FCEE54804CFC7430252EF8A604EFA393AA
:10266C00547FFCED54804CFC7431252EF8A604EDFF
:10267C00540FFCC454F0FCEE540F4CFC7432252E59
:10268C00F8A6047403252EF52E0F0FEFC394064005
:10269C0080E52F04F5307B007A0079307541008598
:1026AC002E427F8C12397F052FE52FC394045003E3
:0426BC000225EF22E2
:103D55007F2C123CDC8F1F90003BE0B40513051F40
:103D6500E51FD394044003E4F51FAD1F7F2C123EDD
:063D7500B3AF1F023B9CEE
:103B9C008F30123FD2E53060067E007F0680047EB7
:103BAC00007F0074272FF974333EFA7BFF123B6BB6
:103BBC00E53060082430FD7F04120D707F05024053
:013BCC0052A6
:014074002229
:014075002228
:014076002227
:014077002226
:102C11008F328D33E533C39403401D90003BE0B503
:102C21003216E533B404047D0180027D00AF321217
:102C31002A3F9000537450F0E53224C7F53475F003
:102C410004A42439F9743335F0FA7BFF123B6B7D10
:102C5100207F04120D70E533B402077D207F050249
:102C61000D70E532C3943E5016745F2534F582E44D
:102C71003400F583E02430FD7F05120D708010745F
:102C8100272532F582E43400F583E0FF123C59E553
:0C2C91003370089000537450F0D2002201
:103BFC00AB07EBC394095015430580EBFFC3740965
:103C0C009FFFE49400EFFEE4EE4204800DEB24F7FA
:0F3C1C00FFE434FFEFFEE4EE4204AE04AF0522F6
:102A3F008F358D36124062E535C3943E506474264F
:102A4F002535F9E43400FA7B017D09AF36123E5E7D
:102A5F00E53524C6600D14601F14603214602F24F6
:102A6F0004706D90005FE0FFC454F0FFA3E04FFDD2
:102A7F007F39123EB3023802900061E0FF90335667
:102A8F0093FEC454F0FEEF4EFD7F3A023EB390002A
:102A9F0063E0FFC454F0FF900062E04FFD7F3B0204
:102AAF003EB374272535F9E43400FA7B017D12AF6C
:102ABF0036123E5E1236D6E535B43E0A900065E01A
:102ACF00FD7F42023EB3900066E0FD7F43123EB3AE
:012ADF0022D4
:1036D600900065E0FF7D237C00123BFC8E3B8F3C17
:1036E600A3E0FF7D677C00123BFC753704E53CF5E3
:1036F60038AD07EDF539EEC4F854F0C868EFC45498
:103706000F4854F0FDE53B540F4DF53A7B007A0027
:0D37160079377541007542047F8C02397FC0
:1038020090005FE0C39405500EA3E0C394055007F7
:103812007D447F38023EB3900060E0FF90005FE09D
:10382200FED39F4004AF0680008F37E53724FB2587
:10383200E0F53790336093FFC454F0FFE537A3936C
:083842004FFD7F38123EB32256
:103E4000AE0753050FEDC3940A5006ED2430FFFD75
:0E3E500022EE6005ED2457FF22ED2437FF22FD
:101C69008F5B8D5C8B5DE55C701FE55D701BAB5E0A
:101C7900AA5FA9607430120C1AAB5EAA5FA96090C2
:101C89000001E4120C2C7F0122E4F561FCE55B64A0
:101C9900646009E55B64756003021D45E55D75F0E7
:101CA9006484F562601AFDE4FF123E40AB5EAA5FF0
:101CB900A960AE040C8E82758300EF120C2C80187B
:101CC900E55CB40313AB5EAA5FA960AF040C8F8215
:101CD9007583007430120C2CE55D75F0648485F011
:101CE90062E56275F00A84FD6019E4FF123E40ABBB
:101CF9005EAA5FA960AE040C8E82758300EF120C98
:101D09002C8018E55CB40213AB5EAA5FA960AF042E
:101D19000C8F827583007430120C2CE56275F00A01
:101D290084ADF0E4FF123E40AB5EAA5FA960AE0449
:101D39000C8E82758300EF120C2C806CE55D54F0DB
:101D49006028E55BB458047F0180027F00E55DC42B
:101D5900540FFD123E40AB5EAA5FA960AE040C8E23
:101D690082758300EF120C2C801CC3E55C6480949F
:101D7900824013AB5EAA5FA960AF040C8F827583A2
:101D8900007430120C2CE55BB458047F0180027F8B
:101D990000AD5D123E40AB5EAA5FA960AE040C8E39
:101DA90082758300EF120C2CAB5EAA5FA9608C824E
:0A1DB900758300E4120C2CAF042225
:101231008B498A4A894BE4F552F553AB4CAA4DA927
:101241004EAF52EF3395E08F82F583120BCBFE64E4
:10125100256041D3E5536480949E4003AF5322EE51
:101261007003AF5322AB4CAA4DA94EAF520552EFBA
:101271003395E08F82F583120BCBFFAB49AA4AA9C4
:101281004BAE530553EEFD3395E08D82F583EF129E
:101291000C2C80A7AF52EF3395E08F82F583A3AB7F
:1012A1004CAA4DA94E120BCBF5586473706BAB4F22
:1012B100E551F92403F551E550FA3400F550120CCB
:1012C100CE8B558A56895705520552E4F554AB55D4
:1012D100AA56A957AF54EF3395E08F82F583120BCD
:1012E100CB700302123CC3E5536480949E40030219
:1012F100123C0554EF3395E08F82F583120BCBFF3F
:10130100AB49AA4AA94BAE530553EEFD3395E08D87
:1013110082F583EF120C2C80B5E558B4251E0552D9
:101321000552AB49AA4AA94BAF530553EF3395E098
:101331008F82F5837425120C2C02123CE558B4639C
:101341003205520552AB4FE551F92402F551E550F2
:10135100FA3400F550120CA3FFAB49AA4AA94BAECF
:10136100530553EEFD3395E08D82F583EF120C2C7E
:1013710002123CE4F559F554AF52EF3395E0FEEF1C
:101381002401FFE43EFEAD54ED3395E0FCED2FF575
:1013910082EC3EF583AB4CAA4DA94E120BCBF5580E
:1013A100C3648094B0401ED3E558648094B950154D
:1013B100E55824D0FFE55975F00AA42FF5590554D5
:1013C100E554B403B3AF52EF3395E0FEEF2401FFD0
:1013D100E43EFEAD54ED3395E0FCEF2DFFEE3CFE17
:1013E100AB4CE54E2FF9E54D3EFA8B55F556895735
:1013F100E55224022554F552120BB2FF249C600FD2
:1014010024EF600B24FD60072420600302123CAB33
:101411004F0551E551AA507002055014F9120BB253
:10142100F55AE553FD3395E0FCE54B2DF9E54A3CD2
:0514310085495EF55F36
:101436008960AB5AAD59121C69EF2553F553021258
:021446003C2246
:103F7400E5151515700215141445146006ED120CA0
:043F84001A80ED2290
:103F5E00E50F150F7002150E14450E6008120BB208
:063F6E00120C1A80EB2288
:08405A00C2998F993099FD22F3
:102F23008B348A3589367546007547007548378B6B
:102F33004C8A4D894E85464F8547508548517B01C4
:102F43007A007995121231AE070EEFFD3395E0FC4E
:102F530074952DF58274003CF583740DF0AF060E65
:102F6300EFFD3395E0FC74952DF58274003CF583F9
:102F7300740AF0E4FDC3EE6480F8ED6480985018A1
:102F8300EDFB3395E0FA74952BF58274003AF583E3
:092F9300E0FF12405A0D80DD221E
:102EA8004D503300202000202020202020002052D8
:102EB80045534554004B434D5F524541445F495289
:102EC80051204572726F72004B434D5F4952515FFA
:102ED800504C41595F5354415445202530327800B5
:102EE8004155584F5054434F31434F325344205566
:102EF80053425553422020204254204844314844EC
:102F08003248443300090A0B0102030500085357ED
:0B2F18002043454E53555242414300F8
:101DC300300103021EEF900073E054BFF0A3E05410
:101DD300DFF090004CE0FFC394045003021ECEEFEB
:101DE300D394084003021ECE900074E04420F0EF29
:101DF30064046008EF64056003021ECE900054E0A3
:101E0300FEA3E0FFD39400EE94005003021ECEEF36
:101E13009403EE9400500302358FC3900055E09471
:101E230005900054E094005064900089E0FF131380
:101E330013541FF53E90004DE0540F640A704E900A
:101E430000537414F0E53ED394004041E53E9410F2
:101E5300503B754900754A00754B3F7BFF7A2E79DD
:101E6300A87F03123B3AE53E75F003A42496F97468
:101E73001535F0FA7BFF754900754A00754B427FB3
:101E830003123B3A7B007A00793F023B6B7BFF7A7C
:101E93002E79AC123B6B900054E0FEA3E0FF7C0074
:101EA3007D3C120C4EAD077F02123DE2900054E0E0
:101EB300FEA3E0FF7C007D3C120C4E7F04123DE24A
:101EC300900073E04440F0A3E0F02290004CE075F2
:101ED300F003A424E8F9742E35F0FA7BFF7D031296
:0D1EE3003C2B7D207F03120D701240252244
:0F3FF000E490003BF0E56A902F0D93FF02353F00
:103F9B00056AE56AC394094003E4F56AAD6A7F4498
:033FAB00023EB320
:102F9C008F388D39124062E539601674812538F509
:102FAC0082E43400F583E0C394125019E004F080FD
:102FBC001474812538F582E43400F583E0D3940051
:102FCC004003E014F0AD387F091232388F3A748127
:102FDC002538F582E43400F583E0FD7F3012323879
:102FEC008F3BE53A2430FFAD3B123EB3E538B404D9
:102FFC0007AD3B7F35023EB3E538B40607AD3B7FEA
:05300C0037123EB32263
:102788008F348D35E534B451047F028014E534B4B8
:1027980052047F01800BE534B453047F0780027F25
:1027A800068F36E535C39403401D90003BE0B534F1
:1027B80016E535B404047D0180027D00AF36122F82
:1027C8009C9000537450F0E53475F003A42423F969
:1027D800742E35F0FA7BFF123B6B7D207F03120DC0
:1027E8007074812536F582E43400F583E0F537E529
:1027F80035B4020E7D207F04120D707D207F050206
:102808000D70E537C3940950147D2D7F04120D70A7
:10281800C374399537FD7F05120D7080117D207FB7
:1028280004120D70E5372427FD7F05120D70E5357C
:0B28380070089000537450F0D2002292
:103F01008F328D33E53224AF24FC5002800A1240F7
:093F11000CAD33AF3212278822F7
:10394300D2017F081240687BFF7A2E79AF123B6B5E
:10395300D280C281900074E0542CF0900073E05444
:10396300F8F0A3E054FBF0900073E0540FF09000E4
:0C39730076E054F0F0E4FD7F05023EB366
:09403800C280D281C201023E984F
:1017DB008F24123163300125301A0BC21A786CE654
:1017EB00B4260312403820070302197BC207D21418
:1017FB007879E66418600302197B02403830071AC7
:10180B00C207D2147879E624D860092410700B1221
:10181B0039438006123F9B123FF0787BE6600C0643
:10182B00E6D3943C4005E4F67877F6201A030219C8
:10183B0055C21A786CE6120CEE18FF20186F261999
:10184B003A2A194F2D19412E18C75018875119488C
:10185B005418CD5A18A45B18755C19355E191A6D9E
:10186B00000019551239430219557BFF7A2E79B6B0
:10187B00123B6B12000E122E2D021955787B76013E
:10188B0090003BE0B438047F0480027F008F25ADCD
:10189B00257F38120FEA02195530060302195578C5
:1018AB007B760190003BE0B438047F0380027F001D
:1018BB008F25AD257F38120FEA021955123E2202F1
:1018CB00195590003BE0FFC394514021EFD3945442
:1018DB00501BE004F0E0945440037451F090003B33
:1018EB00E0FF1240689000537432F0805D7F51121C
:1018FB004068805690003BE0FFC39451404CEFD3BF
:10190B0094545046787B76017D03120FEA803B900E
:10191B00003BE0FFC394514031EFD39454502B78EC
:10192B007B76017D04120FEA8020123426801B7F08
:10193B0002123D7B80147F01123D7B800DE4FF1270
:10194B0036368006123F9B123FF0301C23C21C9090
:10195B00003BE0FFC394384012EFD3943A500C3065
:10196B0012047D0480027D03020FEA7F3812406867
:01197B002249
:10200F008F2430940302212C7F01123CDC8F25ADED
:10201F00257F03123EB3300C097BFF7A2E79BD0268
:10202F002F23E5255401D39400401C20010F1219D2
:10203F007C7F44123CDC8F6A123FF0800AE4FD7F04
:10204F0005123EB3E4F525E5255402D39400404D27
:10205F007F18123CDC90004DEFF07F1A123CDC90A1
:10206F000089EFF090004CE0FF64046004EFB405CA
:10207F000F7FA21238CB90002CEEF0A3EFF0800E62
:10208F00900057E070082015057F071240689000F8
:10209F004DE07003123F881230F6124073E525545D
:1020AF0004D3940040167F2F123CDC90002BEFF0EE
:1020BF0090003BE0B438057F38124068E525541096
:1020CF00D394004003123689E5255440D394004041
:1020DF001A90003BE0FF6003B401107FA31238CBCE
:1020EF00900054EEF0A3EFF0122421E5255420D3F5
:1020FF009400401D7FA5123CDC900029EFF07BFF80
:10210F007A2E79D0F537122F23900029E0FF123A5B
:0E211F002FE5255480D3940040031226C022E1
:10388E00123FAE1237B9123FC112406EE49000568D
:10389E00F01239437878E6FF5401D3940040F512C4
:1038AE00200F7878E6FF1217DB7878E6FF1228F102
:0D38BE007878E6FF123AD6E47878F680D7E5
:103FAE00758921758851759850758DFF4387807579
:033FBE00A88322B3
:09404100EFD394034002DFFE22DC
:103163007871E6FF7008C2A0D2A1D2A28012EFB498
:103173000108D2A0C2A1D2A28006D2A0D2A1C2A22B
:10318300E4FE2085027E08EE602EEFC454F02EFE8E
:103193007879E6B50616900094E004F0D3940840DD
:1031A30029201402D207E4900094F022C214E49080
:1031B3000094F07879A60622787106E6D39402404B
:0B31C30002E4F6C214E4900094F02235
:1030110020101830871030860D787006E6D394039F
:103021004004E4F6D210C20AC20B22A28730860104
:10303100B3503A301025A2869212A212301601B373
:103041005005786EE67002D21CA2129216786E7646
:1030510003E47870F6C210C20B800F300B0A786E51
:103061007603E47870F6C210D20BC20A22208714CC
:10307100208611300A0A786E7603E47870F6C21061
:05308100D20AC20B227F
:03000B0002223E90
:10223E00C0E0C0F0C083C082C0D075D000C000C066
:10224E0007758A60758CFF787306E675F00A84E56B
:10225E00F060030222EB1230117873E675F064849D
:10226E00E5F0703BF678787601786F06E675F00A41
:10227E0084E5F0702A7878E64402F6786FE6FF750A
:10228E00F03284E5F070187878E64404F6EF75F0D5
:10229E006484E5F07009786FF67878E64408F630D5
:1022AE00053B90002AE004F0D394134006E4F0C2FC
:1022BE00A5802A900056E0FF700B90002AE0B40132
:1022CE0004D2A58018EFB4010B90002AE0B40404E8
:1022DE00D2A5800990002AE0B40802D2A57872E651
:1022EE00603806E6D3949F40312008247875E6B412
:1022FE00021E787BE660197877E6FFC39408500ECD
:10230E00EF5403FFBF0302D21A7877068002D21A67
:10231E0078757600C20878727600D007D000D0D0DB
:09232E00D082D083D0F0D0E0325F
:03000300022D25A6
:102D2500C0E0C0D075D000C000C006C0072008684C
:102D3500787506E6FFB4020C7872E6D39491405894
:102D4500D2088054786DE6FEC313F67872E6D39404
:102D5500104006786DE64480F6EF640A6004EFB42F
:102D65001A07786DE618F6802FEFB41214786DE621
:102D7500B4DE0618E66421601F787B7600D20880F1
:102D850017EFB42213786DE6F418667007D21A7837
:102D950077F68004C21AD20878727601D007D00679
:072DA500D000D0D0D0E032D5
:03000000024019A2
:0C401900787FE4F6D8FD75817B02388EBC
:100ABC00E709F608DFFA8046E709F208DFFA803E1C
:100ACC0088828C83E709F0A3DFFA8032E309F60809
:100ADC00DFFA8078E309F208DFFA807088828C8371
:100AEC00E309F0A3DFFA806489828A83E0A3F60825
:100AFC00DFFA805889828A83E0A3F208DFFA804CFF
:100B0C0080D280FA80C680D4806980F280338010D5
:100B1C0080A680EA809A80A880DA80E280CA80333E
:100B2C0089828A83ECFAE493A3C8C582C8CCC583B6
:100B3C00CCF0A3C8C582C8CCC583CCDFE9DEE78086
:100B4C000D89828A83E493A3F608DFF9ECFAA9F005
:100B5C00EDFB2289828A83ECFAE0A3C8C582C8CC5B
:100B6C00C583CCF0A3C8C582C8CCC583CCDFEADE74
:100B7C00E880DB89828A83E493A3F208DFF980CCD6
:100B8C0088F0EF60010E4E60C388F0ED2402B404CF
:100B9C000050B9F582EB2402B4040050AF23234576
:060BAC008223900B0C7384
:100BB200BB010689828A83E0225002E722BBFE0241
:090BC200E32289828A83E4932274
:100BCB00BB010CE58229F582E5833AF583E02250DF
:100BDB0006E92582F8E622BBFE06E92582F8E22229
:0D0BEB00E58229F582E5833AF583E4932243
:100BF800BB010989828A83F8E028F022500327F78D
:100C080022BBFE05F8E328F3228A838982F8E4935D
:020C1800282290
:100C1A00BB010689828A83F0225002F722BBFE01B9
:020C2A00F322B3
:100C2C00F8BB010DE58229F582E5833AF583E8F0FE
:100C3C00225006E92582C8F622BBFE05E92582C8AA
:020C4C00F22292
:100C4E00BC000BBE0029EF8DF084FFADF022E4CC8A
:100C5E00F875F008EF2FFFEE33FEEC33FCEE9DEC53
:100C6E00984005FCEE9DFE0FD5F0E9E4CEFD22ED99
:100C7E00F8F5F0EE8420D21CFEADF075F008EF2FE3
:100C8E00FFED33FD4007985006D5F0F222C398FDD4
:050C9E000FD5F0EA2271
:100CA300BB010A89828A83E0F5F0A3E0225006871C
:100CB300F009E71922BBFE07E3F5F009E3192289DE
:0B0CC300828A83E493F5F07401932211
:100CCE00BB010789828A83020D4A5005E9F8020D9D
:100CDE0041BBFE05E9F8020D5389828A83020D5C41
:100CEE00D083D082F8E4937012740193700DA3A395
:100CFE0093F8740193F5828883E4737402936860A9
:060D0E00EFA3A3A380DFA8
:100D1400D083D082F8E4937012740193700DA3A36E
:100D240093F8740193F5828883E473740293B5F0A5
:0D0D3400067403936860E9A3A3A3A380D80D
:090D4100E6FB08E6FA08E6F922D7
:090D4A00E0FBA3E0FAA3E0F922AA
:090D5300E2FB08E2FA08E2F922D1
:0C0D5C00E493FB740193FA740293F922F3
:00000001FF
