:103AB0008F408D41123B4A7FAC1235FDAF4012352D
:0A3AC000FDAF411235FD123C0A2251
:10399B008F2D8C2E8D2F123B4A7FAC1235FDAF2D08
:1039AB001235FDAF2F1235FDE52EFF1235FD123C02
:0239BB000A22DE
:10354C008F458B468A478948123B4A7FAC1235FD22
:10355C00AF451235FDAB460548E548AA4770020554
:10356C004714F9120BB0FF1235FDE54A154A7002EB
:0B357C00154914454970DE123C0A227C
:1038B2008F3BE4F53C123B4A7FAC1235FD200C14E1
:1038C200AF3B1235FD123B4A7FAD1235FDD21E12BF
:0A38D20036718F3C123C0AAF3C2215
:1034D4008F44E4F545F546123B4A7FAC1235FD2096
:1034E4000C22AF441235FD123B4A7FAD1235FDC2AA
:1034F4001E1236717545008F46D21E123671EFFECC
:0C350400E4EE4245123C0AAE45AF462200
:102F73008E3E8F3F8B408A418942D3E53F9400E5E3
:102F83003E94004037D3E53F9401E53E940040086A
:102F9300E53F153F7002153EC21E123671AB400568
:102FA30042E542AA417002054114F9EF120C18E5FB
:102FB3003F153F7002153E14453E70DCD21E12369B
:0E2FC30071AB40AA41A942EF120C18023C0A61
:10385C008F318B328A338934123B4A7FAC1235FD5F
:10386C00AF311235FD123B4A7FAD1235FDAB32AA9A
:0B387C0033A934AF36AE35122F732293
:103496008F388B398A3A893B123B4A7FAC1235FD0D
:1034A600AF381235FD123B4A7FAD1235FDC21E12F2
:1034B60036718F3DE53DD3953C4003853C3DAF3DA0
:0E34C6007E00AB39AA3AA93B122F73AF3D220C
:1035FD008F4B754C08C296E54B30E704D29580028F
:10360D00C295123C74E54B25E0F54BD296123C74F5
:10361D00D54CE2C296D295120006D2961200063013
:0A362D009502D20CC296120006228C
:10367100D295120006754808D296E54725E0F54730
:10368100309503434701123C74C296123C74D548ED
:10369100E7201E04C2958002D295120006D296122E
:0736A1000006C296AF4722AC
:103B4A00D295D296120006C20C209502D20CC295CA
:063B5A00120006C29622D3
:0D3C0A00C295120006D296120006D2952235
:050006007F0ADFFE226D
:013C7400222D
:101DB6004B434D5F504F5745525F4F4E004B434D7F
:101DC6005F524541445F495251204572726F72001D
:101DD6004B434D5F524541445F49525120253032B5
:101DE60078004B434D5F4952515F504C41595F5308
:101DF60054415445202530327800494E5055545FA1
:101E060041202564202530327800494E5055545FD4
:101E16004220256420253032780053455420004B5B
:101E2600434D5F564F4C554D455F4354524C20250C
:101E360064004B434D5F494E5055545F534F5552C6
:101E460043452025303278004B434D5F4C4953546F
:101E5600454E5F4D4F444520253032780041707025
:101E6600436F6D6D616E64202530327820253032E7
:101E7600782025303278000105080064005E01E80C
:101E860003E40C10270010111230313233342021B4
:101E96002224000203010507060419181716151453
:0D1EA60013121100010203040506070809CC
:083C4C00E4900058F0023A95E3
:103A95007D017F05123AB07F02123C6A900059748D
:0B3AA50064F07BFF7A1D79B6022BA7AE
:101FAC008F243094030220A27F011238B28F25AD0A
:101FBC00257F03123AB0300C097BFF7A1D79C302DE
:101FCC002BA7E5256440600C7BFF7A1D79D685250F
:101FDC0042122BA7E5255401D39400400C12175B39
:101FEC0090004DE0FDFF1232943001030220A2E577
:101FFC00255402D394004003122C95E5255408D3A4
:10200C00940040031215A7E5255404D39400401600
:10201C007F2F1238B290002CEFF090003CE0B438D7
:10202C00057F38123C6AE5255410D3940040031206
:10203C003197E5255440D39400401A90003CE0FFC2
:10204C006003B401107FA31234D4900055EEF0A3BA
:10205C00EFF0121CB0E5255420D39400402C7FA542
:10206C001238B2900029EFF07BFF7A1D79E8F54227
:10207C00122BA7900029E0540370077D017FA61254
:10208C003AB0900029E0FF123637E5255480D394FE
:07209C000040031223FF22A4
:10175B007B007A00792A7535007536047F40123884
:10176B005C300C05E4FF023C6AE52A5403900058F8
:10177B00F0900067E52CF0A3E52DF07F201238B236
:10178B008F29AD297F201228A28F287BFF7A1E7903
:10179B0000852842852943122BA7E528C3940440D2
:1017AB001FE528D394085018AD2B7F201228A28F49
:1017BB00287BFF7A1E7910852842852B43122BA795
:1017CB0090004DE528F07B007A00792A753500757D
:1017DB0036027F8112385C90008EE52BF07F2F1242
:1017EB0038B290002CEFF0E4F527AD277F09122DCE
:1017FB00E08F29E5292430FF1238B28F28AD287FDE
:10180B00301228A274842527F582E43400F583EF87
:10181B00F00527E527C3940840D07F391238B28FE3
:10182B0028E528540FFD7F391228A2900061EFF0B4
:10183B00E528C4540FFD7F391228A2900062EFF007
:10184B007F241238B28F28AD287F241228A27D5016
:10185B007F2E123AB07D467F25123AB07D467F2609
:10186B00123AB0E4F52A752BFF752C30752D10FB51
:10187B007A00792AF549754A047F8012354C12217A
:10188B008D1222617BFF7A1E797D754900754A0E98
:10189B007F9012354CE490004EF0900083F0900056
:1018AB0055F0A3F0900029F0C201C215C2069000BA
:1018BB008CF0FFFE121BA97F02123C6A9000597438
:1018CB000AF0123C781229AD7FFF1236DE90002908
:1018DB00E0FF123637900058E0FDE4FF1236A822E5
:102B2C007BFF7A1E7920123741E4F527AD277F040D
:102B3C001239DF12000E7FFF123C437FFF123C4321
:102B4C000527E527C3946440E3752902E4F52A754B
:102B5C002B09752C09FB7A007929F549754A047FF4
:102B6C004012354C7D277F2F123AB0E4F527E5272C
:102B7C002430FFE4FD123AB00527E527C394084042
:102B8C00ED7DAB7F24123AB07D017F05123AB07F08
:0B2B9C0002123C6A900059741EF022E7
:1023FF007B007A007927753C087F981234968F2FCF
:10240F00E52F640260030224BFE52724F8607624D9
:10241F00E8602724F5604814605824FD6003022407
:10242F00AD7BFF7A1E7925852842122BA790002CB1
:10243F00E528F07F38123C6A80767BFF7A1E793868
:10244F00852842122BA7AD287F201228A290004D7D
:10245F00EFF0123C64123C17E4FF123C6A80517B90
:10246F00FF7A1E794E852842122BA7AF28122A2FEA
:10247F00803E7BFF7A1E794E852842122BA7AF280C
:10248F00123772802BA206E433FFE5285401B507FB
:10249F001FE52830E21A90003C7438F080127BFF61
:1024AF007A1E7963852F42852743852844122BA7EF
:0524BF007F010236DE82
:102DE000EF24F7601324E5601D24F46012241070B2
:102DF00052ED901E8B93FF22ED901E9893FF22EDD3
:102E0000901EA093FF22E4F540900049E0D3940087
:102E10004003434001900047E0D394004003434007
:102E200002900048E0FF25E025E0424090004AE0A3
:102E3000FFC454F04240A3E0FFC4333354C04240C7
:062E4000AF40227F0022DA
:1028A200E4FEEF24F7602124E5604724F4602E243F
:1028B200107072EE901E8B93B50503AF06220EEEDA
:1028C200C3940D40EE7F0022EE901E9893B505034F
:1028D200AF06220EEEC3940840EE7F0022EE901E59
:1028E200A093B50503AF06220EEEC3941340EE7F0C
:1028F2000022ED30E1047F0180027F00900047EF6B
:10290200F0ED13135403A3F0ED30E0047F018002D5
:102912007F00900049EFF0EDC45403A3F0EDC4131F
:08292200135403A3F07F00220F
:103710008B408A418942EF6027AB400542E542AACF
:10372000417002054114F9120BB0FEAB430545E5AB
:1037300045AA447002054414F9EE120C181F80D6F5
:013740002266
:1023310052656D6F76654120253032782025642005
:10234100004D4B434D5F507265656D707469626CF1
:10235100653A25642025642F256400536F757263E7
:1023610065573A2564282564292530327828253097
:1023710032782900536F757263654A3A25642025C6
:10238100303278004B434D5F5352435F56414C49C5
:10239100442045202564202564004B434D5F535262
:1023A100435F56414C49443A2530327825303278E2
:1023B100204C6173743A2530327825303278006DC3
:1023C100494E5055545F412025303278004B434DE2
:1023D1005F5352435F56414C4944203D204C617349
:1023E100743A25303278253032780000010203003A
:0E23F1002000401000400020000405060807F0
:013C7500222C
:10340E008F2490008CE0603B04F0D394C840347F4E
:10341E00411238B28F26AD267F201228A28F257B2F
:10342E00FF7A23793185264285254390004DE0F5BC
:10343E0044122BA7E490003CF0AF25123147E490E4
:04344E00008CF022DC
:1039BD008F3A123C17D219E53A600D753B3030063F
:1039CD000AC206433B028003753B20AD3B7F0802D4
:0239DD003AB0FE
:103A0100AD07EDC394FF500E7F09122DE0EF441076
:0E3A1100FD7F09023AB0E4FD7F09123AB022AF
:1030E4008F3D8D3E123C64E53E60167484253DF5AB
:1030F40082E43400F583E0C394125019E004F080B4
:10310400147484253DF582E43400F583E0D39400FF
:103114004003E014F0AD3D7F09122DE08F3F74842D
:10312400253DF582E43400F583E0FD7F30122DE087
:0A313400AD07E53F2430FF023AB07A
:0D3C1700301509C215E4FD7F09123AB022F4
:063C6400300602C2062238
:09313E00F582E43400F583E0FFA2
:103147008F27900076E0542CF0900075E054F8F04B
:10315700A3E054DBF0123C64123C1790003CE0FF04
:1031670060046401702590004DE527F0FDFF1232E1
:103177009490004DE0B404077FA01237A3800C9011
:10318700004DE0B405057FA11237A37F01023C6A19
:103331007BFF7A237942900027E0FF2434F582E471
:103341003400F583E0F5428F4390003DE0F54412EF
:103351002BA790003DE0601B900027E02434123140
:103361003E90003DE0FF900027E004F0C39F400B3A
:0C337100E4F02290004DE0FF12314722F2
:10302E00E490003CF090005AE0FF601190003EE00A
:10303E00FEC39F500874342E12313E802090005AE9
:10304E00E0FF90003EE0C39FFFE49400FE74EC2F7F
:10305E00F58274233EF583E493FF12314790005AB4
:10306E00E02404FFE433FE90003EE004F0C39FEE44
:0B307E006480F87480984002E4F022A7
:103294008F2C8D2DAD2C7F20122DE08F2EAD2D7F08
:1032A40020122DE08F2FAD2E7F20123AB07BFF7AB3
:1032B40023795C852C42852D43852E44852F451228
:1032C4002BA7E52DD394035016AD2F7F41123AB0AE
:1032D4007BFF7A237975852C42852F43122BA722F5
:101BA9008E2E8F2FE4F530E52F452E7003021C860B
:101BB900E4F531E53125E024F0F582E43423F583B9
:101BC900E493F532740193F533E52E5532FEE52F92
:101BD90055334E603DE53364204532700C90002F3B
:101BE900E07002A3E070148029E533644045327047
:101BF9000A90002FE07002A3E07017E5319023FAF4
:101C090093FFAE30053074342EF582E43400F58349
:101C1900EFF00531E5316405709990005AE06530BF
:101C2900600BE490003EF090005AE530F0E4F531A5
:101C390090005AE0FFE531C39F501C74342531F5FB
:101C490082E43400F583E0FEC394094006EED394A0
:101C59000C4004053180D990003DE06531600BE40A
:101C6900900027F090003DE530F07BFF7A237985DD
:101C790090003DE0F5428F43122BA7801F90003D55
:101C8900E530F0E490005AF0900027F090003EF023
:101C990090002FF0A3F0900051F0A3F0900093E58D
:071CA9002EF0A3E52FF0224D
:1037A3008F2C1234D4E52CB4A00A90002FEEF0A392
:1037B300EFF08008900051EEF0A3EFF0EF4E600CB5
:0F37C30074FFFDFC7FA412399B7F01227F00223F
:102C95007F181238B290004EEFF07F191238B290BB
:102CA500002AEFF07F1A1238B2900083EFF07F1BF5
:102CB5001238B2900096EFF090004DE0FF6404608A
:102CC50004EFB4051F7B007A007927753C107FA7B8
:102CD5001234968F377FA21234D490002DEEF0A3D4
:102CE500EFF0800E900059E070082015057F07125F
:102CF5003C6A90004EE07003123BB51229AD023CD0
:012D05007855
:1015A7007F1C1234D48E278F28900093E0FCA3E091
:1015B700FD65287003EC65277003021745C21D7B84
:1015C700FF7A23799BE527F543754200F544852883
:1015D70045ECF547754600F5488D49122BA7E4F50C
:1015E70029E52925E024F0F582E43423F583E49303
:1015F700F52A740193F52BE527552AFEE528552B87
:101607004E700302168B900093E0552AFEA3E05517
:101617002B4E7070D21DE52A7032E52B24F9602A13
:1016270024C76015242070247FA01237A3EF701CF5
:101637007F0E123C6AC21D80137FA11237A3EF7081
:101647000B7F0F123C6AC21D8002C21D301D41E58F
:10165700299023FA93FF90004DE0FD123294E5297B
:101667009023FA9390004DF07BFF7A2379C0F542DF
:10167700122BA7E490003CF07F01123C6AE4900033
:101687008CF0800C0529E529C3940550030215E861
:10169700301D0302173EE4F529E52925E024F0F57E
:1016A70082E43423F583E493F52A740193F52BE55B
:1016B70027552AFEE528552B4E7070900093E0556C
:1016C7002AFEA3E0552B4E6062E52B852AF0120D0A
:1016D7001216EC002016FE004017101000171740D6
:1016E700000000171CE490002FF0A3F0FF1236371C
:1016F7007F10123C6A801EE4900051F0A3F0FF12A5
:1017070036377F11123C6A800C7F12123C6A8005C3
:101717007F13123C6AE5299023FA93FF90004DE06E
:10172700B5071490008C7401F0800C0529E529C3D6
:10173700940550030216A0AF28AE27021BA97BFF12
:101747007A2379CEE527F543754200F54485284588
:04175700122BA72288
:1038DC00205245534554004D4B45595F506C61790E
:1038EC0050617573652041202564202530327800A5
:0938FC000102040001102021303A
:013C7600222B
:100601008F24122AB0300125301A0BC21A786FE6F6
:10061100B45903123A95200703020AB9C207D2144A
:10062100787CE664186003020AB9023A9520070350
:100631000206D1C207D214787CE6120CEC067501D1
:10064100067A0206810406880806701106691206F8
:100651006214065D1806A428000006D112302E800F
:100661006F7F011232418068E4FF123241806112D2
:10067100392D805C12308980577F02123978805081
:100681007F01123978804990003CE0FFC3943840E3
:100691000DEFD3943F5007E4FF123C6A8032123AC7
:1006A1001F802D90003CE0FFC394384006EFD394A7
:1006B1003A40077F38123C6A801690003CE004F013
:1006C100D3943A40037438F090003CE0FF123C6A46
:1006D100787EE6600C06E6D3943C4005E4F6787A31
:1006E100F6201A03020A93C21A786FE6120CEC0A7A
:1006F10087000A8E030A6B04088A0508B0060A728D
:10070100070A53080A580B0A3E0C08440D08380E14
:100711000A0210086111083E120A0C130A24140976
:100721001C160A2B1707B61807A41908901A09AA4C
:100731001B0A80400A79420A64440884450A5D46DE
:100741000A4C480A454A0A374C07BC4D0A324E0743
:10075100FA510A1B5409CC550A1256078B580769DE
:100761005909885A00000A93B2013001087F081222
:100771003C6A020A937D017F05123AB07F02123C66
:100781006A900059741EF0020A9390003CE0B4098B
:10079100047F0480027F008F25AD257F09120D663D
:1007A100020A937BFF7A3879DC12374112000E126C
:1007B1002B2C020A93123953020A9390003CE0FF5A
:1007C100C3942E4012EFD39435500C787E76017D80
:1007D10004120D66020A9390003CE0FFC39424507A
:1007E10003020A93EFD3942B4003020A93787E7697
:1007F100017D04120D66020A9390003CE0FFC39450
:100801002E4012EFD39435500C787E76017D031281
:020811000D6672
:10081300020A9390003CE0FFC394245003020A931E
:10082300EFD3942B4003020A93787E76017D031263
:100833000D66020A93123AFE020A93123B18020A49
:1008430093787E760190003CE0B438047F04800204
:100853007F008F25AD257F38120D66020A9330067F
:1008630003020A93787E760190003CE0B438047F5B
:100873000380027F008F25AD257F38120D66020AA3
:1008830093123ACA020A93123A1F020A9390003C47
:10089300E0FFC39446400EEFD394505008E4FF1298
:1008A3003C6A020A937F46123C6A020A9390003C18
:1008B300E0FFC394465003020A93EFD394504003DE
:1008C300020A93E004F0E0B4480C900048E070069C
:1008D30090003CE004F090003CE0B4490C90004AE6
:1008E300E0700690003CE004F090003CE0B44A0C59
:1008F30090004BE0700690003CE004F090003CE078
:10090300D3945040037446F090003CE0FF123C6ADD
:100913009000547432F0020A9390003CE0FFC394B9
:10092300465003020A93EFD394504003020A93E024
:1009330014F0E0B44A0C90004BE0700690003CE0E9
:1009430014F090003CE0B4490C90004AE07006902B
:10095300003CE014F090003CE0B4480C900048E008
:10096300700690003CE014F090003CE0C3944650C5
:10097300037450F090003CE0FF123C6A9000547402
:1009830032F0020A9390003CE0FFC3944650030206
:100993000A93EFD394504003020A93787E76017D45
:1009A30003120D66020A9390003CE0FFC394465085
:1009B30003020A93EFD394504003020A93787E769E
:1009C300017D04120D66020A9390003CE0FFC3947C
:1009D3002E4006EFD39435400B123C177F2E123C6A
:1009E3006A020A9390003CE024D2FF122D068F2660
:1009F300E526242EFF90003CF0123C6A020A937D08
:100A0300037FA5123AB0020A93123089020A937D3A
:100A1300047FA6123AB080787D037FA6123AB08095
:100A23006F7F0212397880687F01123978806112F2
:100A3300392D805C7F0B123C6A80557F0C123C6A17
:100A4300804E7F011232418047E4FF1232418040E1
:100A5300123905803B12333180367F0912314780CA
:100A63002F7F0A12314780287F0B12314780217F65
:100A730007123147801A7F0112314780137F021218
:100A83003147800C7F031231478005E4FF12314761
:100A9300301C23C21C90003CE0FFC394384012EF8B
:100AA300D3943A500C3012047D0480027D03020D6E
:070AB300667F38123C6A2245
:103A1F00B2063006047F0480027F03AD077F0A12CF
:0E3A2F000D662006057F38123C6A123C1722F5
:103ACA00B21530150A7F24123C6AE4FF023A01E477
:0A3ADA00FF123C6A7FFF123A01223E
:103089007BFF7A3879E390004DE0F542900029E022
:10309900F543122BA790004DE0FF64046005EF642F
:1030A900057037900029E05403F527B402137D0118
:1030B9007FA5123AB0900029E054FCF04401F08059
:1030C900117D027FA5123AB0900029E054FCF0442A
:0B30D90002F0900029E0FF12363722C1
:10390500900057E004F0C394034002E4F0900057A0
:10391500E0FF7401A807088002C333D8FCFD7F21AE
:08392500123AB07F06023C6A71
:103241008F277F2B1238B28F2890003CE0640370E7
:103251003D1238878F29E527600EE52970047F012B
:1032610080027F008F298018E529C39402500575DB
:103271002902800C0529E529D3940540037529020B
:10328100E5299038FF93F528FD7F2B123AB0AF283E
:03329100022A2FDF
:1013CE004B434D2D4E4F00202D4F46462D002048AD
:1013DE00454C4C4F004D5554452020004D5554451D
:1013EE002D2D00564F4C20202000564F4C20004EE5
:1013FE004F49534520004652535020004345535009
:10140E002000535753502000535253502000424B4C
:10141E00535020004C504620004C49505300465229
:10142E00444C20004345444C20005357444C20006C
:10143E00424B444C20004D503300202000202020F1
:10144E00202020004D4449505F506C6179536B69E8
:10145E007020412025640056494445302000466FD7
:10146E00726D61744120253032782025642025303C
:10147E0032780050434D00322F34004E49472D4FE5
:10148E004E004E49472D4F46005842797465204113
:10149E0031004657444F4E45004657204572720064
:1014AE004657202D00464C5474434554745357549C
:1014BE0074465254745352547442525474424C549F
:1014CE0074534C547400464C5472434554725357E3
:1014DE005472465254725352547242525472424C87
:1014EE005472534C5472004155582D494E4F50541E
:1014FE00494341434F412D4431434F412D44322006
:10150E002D53442D20202D5553422D202D50432D4B
:10151E00202045384348202D42542D202048444D4C
:10152E00492D3148444D492D3248444D492D3348BB
:10153E00444D492D410020204849464920322B3147
:10154E0043484D4F4445202000322F30312F30324A
:10155E002F30332F30322F31332F31322F32332F72
:10156E0032332F33332F34322F33322F3400534450
:10157E002D494E2055442D494E2053442D4F555440
:10158E0055442D4F555450432D4F555442542D4FC5
:09159E00555448442D4F555400EA
:103BDB00E4FDFF1236A8E4FF123A78E4900031F0CE
:013BEB0022B7
:1024C4008F24300F05C20F12000EE5245402D3945A
:1024D400005003022584900031E0601514F0700769
:1024E4007F011236DE800A900031E05401FF12367B
:1024F400DE900059E0D394004003E4F02230060B50
:10250400900054E070057F0A123C6A200158900044
:1025140054E0605214F07024201506FF123C6A80C7
:102524004590003CE024DCFF122D068F25E5252490
:1025340024FF123C6AAF25123A01802A300027900A
:102544000054E0FF75F00584E5F0701AEF75F005AE
:1025540084F52590003CE0FFE52530E0047D028011
:10256400027D01120D66200117200614201511307A
:10257400050E90004EE0540FC394004003122FD177
:012584002234
:053C6A00E4FD020D66FF
:093C3A009000547414F0C2002241
:083C540090003CEFF0023C3A45
:0F3BEC00C205D2A5123AE4900075E0540FF02202
:100D66008F388D39E5397003123C3A123BECE53881
:100D7600120CEC0E19000E38010E4A020E8E060EEB
:100D86009A070E3E080E5F090EBD0A0EA00B0EA6B0
:100D96000C0EAC0E0EAC0F0EAC100EAC110EAC124F
:100DA6000EAC130EAC140EB7150F66240F66250F86
:100DB60066260F66270F66280F66290F662A0F66B6
:100DC6002B0F6F2E0F6F2F0F6F300F6F310F6F328C
:100DD6000F6F330F6F340F6F350F19380F7B390FC5
:100DE6007B3A0F7B3B0F7B3C0F7B3D0F7B3E0F7BA4
:100DF6003F0F93460F93470F93480F93490F934A1C
:100E06000F874B0F874C0F874D0F874E0F874F006D
:100E1600000F9F200C05121CB080097BFF7A137906
:100E2600CE123741E490003CF0900054F0D2050217
:100E36000FA6121CB0020FA67BFF7A1379D51237C4
:100E460041020FA67BFF7A1379DC12374112000E9E
:100E5600900054740AF0020FA6E539B4041D900000
:100E6600547414F0900058E004F0D394024002E465
:100E7600F0900058E0FD7F40123AB0900058E0FD37
:100E86007F011236A8020FA69000547432F0123B6E
:100E96008C020FA6122585020FA6123587020FA611
:100EA600123452020FA6E53824F2FF123B32020F2B
:100EB600A61231ED020FA6E5396003B404089000CE
:100EC600547450F0D200E539C394024005E539B4B4
:100ED600040B7BFF7A1379E3123741800EE539B4B0
:100EE60002097BFF7A1379EA123741E539B4040A1D
:100EF6007D037F08123AB0020FA6E539640360034A
:100F0600020FA69000547414F07D027F08123AB0C6
:100F1600020FA6E539C39403401590003CE0B438AF
:030F26000EE5399C
:100F2900B404047F0180027F001239BDE539B4029F
:100F39000B7BFF7A1379F112374180617BFF7A13BA
:100F490079F812374190002CE0FD7F041239DFE572
:100F590039704A9000547450F0D2008040AD39AFD6
:100F690038122E468037123C17AD39AF3812277E1A
:100F7900802B123C17AD39AF38122816801F123C4E
:100F890017AD39AF381218EB8013123C17AD39AFD2
:100F9900381220A38007AD39AF38123C6F90003C5E
:040FA900E538F02215
:103452007F091238B28F3A30151390003CE0B40C59
:103462000C053AE53AD394074003E4F53AAD3A7FC6
:1034720009123AB07BFF7A1379FD123741E53A24FB
:1034820031FD7F051211CC301509E4900032F0FFB6
:04349200123A0122C7
:102D0600EFB407005067902D13F8282873022D287A
:102D1600022D3D022D49022D4C022D61022D6D0220
:102D26002D70900048E060037F0122900049E0602A
:102D3600037F02227F0322900049E060037F022284
:102D46007F03227F032290004AE060037F042290E3
:102D5600004BE060037F05227F002290004BE0607D
:102D6600037F05227F00227F06227F07227F002223
:102E46008F3A8D3BE53BC39403401E90003CE0B5B2
:102E56003A1724DCFFE53BB404047D0180027D00C3
:102E66001230E49000547450F074DC253AF53A754B
:102E7600F004A424B3F9741435F0FA7BFF12374139
:102E8600E53BB4020E7D207F041211CC7D207F0528
:102E96000211CC7484253AF582E43400F583E0FF10
:062EA60012382FD20022B9
:10277E008F3A8D3BE53BC39403401E90003CE0B581
:10278E003A1724D2FFE53BB404047D0180027D009C
:10279E001230E49000547450F074D2253AF53A7524
:1027AE00F004A424D4F9741435F0FA7BFF123741E7
:1027BE00E53BB4020E7D207F041211CC7D207F05F7
:1027CE000211CC7484253AF582E43400F583E0F5E9
:1027DE003CC3940950147D2D7F041211CCC374395F
:1027EE00953CFD7F051211CC80117D207F041211C6
:1027FE00CCE53C2427FD7F051211CCE53B700890FB
:08280E0000547450F0D20022C6
:1018EB008F3A8D3B900075E04450F0A3E0F09000F0
:1018FB00547450F07D207F041211CC7D207F051293
:10190B0011CCE53A24B460561470030219A014707C
:10191B00030219D7147003021A0E147003021A452E
:10192B0024056003021A4E7BFF7A147904123741A7
:10193B00E53BC39403401B900047E004F0D39401B4
:10194B004002E4F0E4FD7F24122DE0AD077F24126A
:10195B003AB0E4FF123510AD077F050211CC7BFFC7
:10196B007A14790A123741E53BC39403401B90006C
:10197B0048E004F0D394024002E4F0E4FD7F24122B
:10198B002DE0AD077F24123AB07F01123510AD0761
:10199B007F050211CC7BFF7A147910123741E53B9E
:1019AB00C39403401B900049E004F0D39401400220
:1019BB00E4F0E4FD7F24122DE0AD077F24123AB052
:1019CB007F02123510AD077F050211CC7BFF7A1415
:1019DB007916123741E53BC39403401B90004AE054
:1019EB0004F0D394024002E4F0E4FD7F24122DE0D6
:1019FB00AD077F24123AB07F03123510AD077F0578
:101A0B000211CC7BFF7A14791C123741E53BC3944E
:101A1B0003401B90004BE004F0D394024002E4F02F
:101A2B00E4FD7F24122DE0AD077F24123AB07F0432
:101A3B00123510AD077F050211CC7BFF7A1479228A
:041A4B0012374122EB
:1020A3008F3A8D3BE53A24B9603A14605A14607A4A
:1020B30014700302215024046003022171900075FF
:1020C300E04440F0A3E0F07BFF7A14792712374114
:1020D300E53BC394035003022171AD3BE4FF122D92
:1020E300760221717BFF7A14792C123741900075A7
:1020F300E04450F0A3E0F0E53BC394034070AD3BF4
:102103007F01122D7680677BFF7A14793212374173
:10211300900075E04450F0A3E0F0E53BC394034026
:102123004DAD3B7F02122D7680447BFF7A147938C4
:10213300123741900075E04450F0A3E0F0E53BC353
:102143009403402AAD3B7F03122D7680217BFF7AD7
:1021530014793E123741900075E04450F0A3E0F04B
:10216300E53BC394034007AD3B7F04122D769000FB
:10217300547432F074F9253AF582E434FFF583E0C0
:0A21830075F005A4FD7F040239DFAA
:101CB000900075E054BFF0A3E054DFF090004DE0D9
:101CC000FFC394045003021DA0EFD3940840030205
:101CD0001DA0900076E04420F0EF64046008EF64FB
:101CE000056003021DA0900055E0FEA3E0FFD39421
:101CF00000EE94005003021DA0EF9403EE940050F8
:101D0000030231EDC3900056E09405900055E09435
:101D100000504F900096E075F008A485F03FF54024
:101D200090004EE06407703A9000547414F07BFF0A
:101D30007A147944123741D3E5409460E53F94002A
:101D40004009AD40AC3F7F030226E57D207F0312B2
:101D500011CC7D207F051211CCAD40AC3F7F040239
:101D600026E57BFF7A147948123741900055E0FE52
:101D7000A3E0FF7C007D3C120C4CAD077F021239C2
:101D8000DF900055E0FEA3E0FF7C007D3C120C4C90
:101D90007F041239DF900075E04440F0A3E0F022A8
:101DA00090004DE075F006A424F5F9741435F0FAAE
:061DB0007BFF1237412207
:1031ED007FA41234D4EF2401F543E43EF542900060
:1031FD0075E054BFF07BFF7A14794B123741AD4324
:10320D00AC42E4FF1226E58F4105417D2F1211CC12
:10321D0090004DE0B4040D90002FE0FEA3E0FFAC54
:10322D0006FD800B900051E0FEA3E0FFAC06FDAF64
:04323D00410226E53F
:103978008F27E4900055F0A3F0900083F0121CB05C
:10398800AD277FA6123AB07BFF7A14795285274279
:03399800022BA758
:013C7700222A
:103B8C007BFF7A147965123741900057E02431FDA0
:053B9C007F050211CCC1
:10388700AE07EE543024F0601224F060112420704B
:1038970017EE30E0037F01227F00227F0222EE3005
:0B38A700E0037F04227F03227F052244
:102A2F008F301238878F31123BEC900076E0542CA8
:102A3F00F0E531C39402501CE53175F006A424442F
:102A4F00F9741535F0FA7BFF123741900076E044A8
:102A5F0001F080457BFF7A157950123741E531241B
:102A6F002FFD7F051211CCE53024FD601314601982
:102A7F0014601F24037022900076E04402F0801946
:102A8F00900076E04480F08010900076E04440F0B3
:102A9F008007900076E04410F0123C3A7F03023C2E
:012AAF0054D2
:1025850090004EE0C394015003022640E4F53E90CE
:10259500002AE0540F75F003A4F53A7BFF7A14790D
:1025A5004B1237417BFF7A14796C90004EE0F5426F
:1025B500853A4390002AE0F544122BA71229AD90E5
:1025C500004EE0120CEC25EA0125F3022615032640
:1025D500371125F31226151325F322261523261563
:1025E50033000026437BFF7A147981023741745703
:1025F500253AF9E43415FA7BFF75430075440075F7
:10260500453B7F031237107B007A00793B02374147
:102615007457253AF9E43415FA7BFF754300754480
:102625000075453B7F031237107B007A00793B022A
:0F26350037417BFF7A147985023741121CB0229E
:10351000AE07EE700C900047E060037F4C227F53B3
:1035200022BE020C900049E060037F59227F4E22A8
:1035300074472EF582E43400F583E0FDB402037F86
:0C3540004C22EDB401037F53227F4E2289
:103587007F231238B28F3A90003CE0B40B16E53A2D
:10359700C394645005753A648003E4F53AAD3A7F05
:1035A70023123AB0E53A60097BFF7A14798902372A
:0B35B700417BFF7A147990123741220B
:103B32009000547432F0EF75F006A4247CF97415E9
:083B420035F0FA7BFF02374168
:102D7600EF70047C0180027C00EC14601114601278
:102D8600146013146014240470127E13800E7E09DE
:102D9600800A7E0980067E0980027E09BD042474AD
:102DA6003F2FF582E43400F583E0D39E4002EEF037
:102DB600743F2FF582E43400F583E0C39E501AE099
:102DC60004F022BD0313743F2FF582E43400F5832B
:0A2DD600E0D394004003E014F02263
:103197007BFF7A147997122BA77B007A0079277522
:1031A70035007536027F8112385CE527B4640B7BE6
:1031B700FF7A1479A01237418020E527B4680B7B8A
:1031C700FF7A1479A712374180107BFF7A1479AE02
:1031D700123741AD277F041239DF7F0D123C54901F
:0631E7000054743CF022CC
:0A3C300090002CE0FD7F040239DF54
:10382F008F3DE53DC3940950127D2D7F041211CCBD
:10383F00C37439953DFD7F050211CC7D207F0412A5
:0D384F0011CCE53D2427FD7F051211CC2290
:103A5B00EF600C120BB0C39D50127401020BF612E7
:0D3A6B000BB0D39400400574FF120BF6223F
:102F12004252494748000002070000243F000600D1
:102F2200DB00CF00E600ED00FD000700FF00EF0030
:102F3200F7128F0039120F00F900F100BD00F612EE
:102F420009001E0C70003805360936003F00F308F0
:102F52003F08F300ED1201003E243028362D000018
:102F6200EE240900C0240012C00010181C1C1E1EF2
:012F72001F3F
:10337D00D2A5C2937F01123C437F40123B607F0177
:10338D00123C43D2937F01123C43C2937F01123C06
:10339D00437FC0123B607F01123C43E4F524E4FF00
:1033AD00123B607F01123C430524E524C394104079
:0933BD00ED7F0A123C43D2932279
:1036A8008D3AEFD3940040137BFF7A2F79121237AB
:1036B80041E53A2431FD7F051211CCC2937F0112F6
:1036C8003C43E53A902F18934488FF123B607F01F2
:0636D800123C43D29322D4
:013C78002229
:1029AD00900075E054F8F0A3E054DBF090004EE099
:1029BD00120CEC29DF012A03022A16032A22112AFE
:1029CD0003122A161329F9222A0C232A0C3300008C
:1029DD002A2C90008EE0FF64536044EF6456603FF4
:1029ED00900075E04404F0A3E0F08033900075E0B2
:1029FD004402F0A3E0F0900076E04404F0802090D3
:102A0D000075E04402F0A3E0F0900075E04401F0A1
:102A1D00A3E0F0800A900075E04404F0A3E0F0D24A
:022A2D000F2276
:10363700EF5403FE900078E054F0F0BE0106E0443A
:1036470008F0800ABF0207900078E04404F0EF54C6
:10365700C0FE6013BEC009900078E04401F0800707
:0A366700900078E04402F0D20F2238
:1036DE008F30E530B4FF117F1F1238B2EF30E704A0
:1036EE007F0180027F008F30E530600C900075E026
:1036FE004408F0A3E0F08007900075E054F7F0D294
:02370E000F2288
:103801008B168A1789188D19E4F51AE51AC39519CB
:10381100501BAB16AA17A918851A82758300120BC3
:0E382100C9FD6009AF1A1211CC051A80DE2213
:103741008B448A458946E4F548AB440546E546AADB
:10375100457002054514F9120BB0F5476012AD47EB
:10376100AF481211CC0548C3E5486480948640D91E
:013771002235
:1026E5008F448C458D46AE45AF467C277D10120C38
:1026F5004CEF4E60121211C4AE45AF467C277D10DB
:10270500120C4C8C458D46AE45AF467C037DE812D8
:102715000C4CEF4E60121211C4AE45AF467C037DE2
:10272500E8120C4C8C458D46AE45AF467C007D6469
:10273500120C4CEF4E60121211C4AE45AF467C0030
:102745007D64120C4C8C458D46AE45AF467C007DB4
:102755000A120C4CEF4E60121211C4AE45AF467C06
:10276500007D0A120C4C8C458D46AF440544E54668
:092775002430FD1211CCAF442206
:1039DF008F418D42E54275F00A842430FD1211CCDF
:1039EF00E54104FFE54275F00A84E5F02430FD025D
:0239FF0011CCE9
:0811C400EF2430FDAF440544A7
:1011CC008F498D4AE549C394034003021297E54ABF
:1011DC00C394304012E54AD39439500B74D0254A4D
:1011EC00F54A04F54B804CE54AC39461400FE54A3F
:1011FC00D3947A5008E54A24AAF54B8036E54AC3C5
:10120C009441400FE54AD3945A5008E54A24CAF554
:10121C004B8020E54A24D5601224FC60092402701E
:10122C000F754B25800D754B268008754B27800359
:10123C00E4F54BE54B25E0241BF582E4342FF583D4
:10124C00E493FEE54925E02469F582E43400F58356
:10125C00EEF0A3E4F0E54925E02469F582E43400DE
:10126C00F583C083C082E0FEA3E0FFE54B25E024BC
:10127C001CF582E4342FF583E493FDEEEF4DFFD0A3
:10128C0082D083EEF0A3EFF00213CBE549C39406B2
:10129C0040030213CBE54AC394304066E54AD3942D
:1012AC0039505F74D0254AF54A04F54B25E0241BD0
:1012BC00F582E4342FF583E493FEE54925E02469B7
:1012CC00F582E43400F583EEF0A3E4F0E54925E083
:1012DC002469F582E43400F583C083C082E0FEA368
:1012EC00E0FFE54B25E0241CF582E4342FF583E484
:1012FC0093FDEEEF4DFFD082D083EEF0A3EFF00222
:10130C0013CBE54A120CEC13562D135B41136042C0
:10131C00136543136A44136F4513744613794713CB
:10132C008348137E4913884C138D4E13924F139799
:10133C0050139C5213A15313A65413AB5513B0590D
:10134C00139C7213A674000013B5754AC0805D75AA
:10135C004AF78058754A7C8053754A39804E754AD5
:10136C00DE8049754AF98044754AF1803F754AEF31
:10137C00803A754A068035754AF68030754A388051
:10138C002B754A378026754A3F8021754AF3801C9D
:10139C00754A508017754AED8012754AF8800D75A4
:1013AC004A3E8008754A6E8003E4F54AE54925E01B
:1013BC002469F582E43400F583E4F0A3E54AF0D225
:0213CC000F22EE
:103AE400E4FFEF25E02479F582E43400F583E4F083
:0A3AF400A3F00FEFC3940540E92290
:063BFB00131313541FFF19
:093C0100EF5407902F6B93FF2292
:102FD100B2B57B007A0079277535007536037F918C
:102FE10012385C300C03023AE4AF27123C01900026
:102FF10079E4F0A3EFF0E527123BFB90007BE4F0CE
:10300100A3EFF0AF28123C0190007DE4F0A3EFF0B4
:10301100E528123BFB90007FE4F0A3EFF0AF29120B
:0D3021003C01900081E4F0A3EFF0D20F22FB
:103BB500E4FFE4900079F0A3F00FEFC3940540F221
:033BC500D20F22FA
:103A7800E4FEEFFDEE25E02469F582E43400F583E9
:0D3A8800E4F0A3EDF00EEEC3940D40E62235
:10000E00E4FF74062FF582E43400F583E4F00FEF7D
:10001E00C3941040ED900069E0FEA3E0FF30E007CE
:10002E00900014E04408F0EF30E10790000DE0443A
:10003E0008F0EF30E207900006E04408F090006A06
:10004E00E030E307900009E04408F0900069E0FE1C
:10005E00A3E0FF30E407900011E04408F0EF30E534
:10006E0007900015E04408F0EF30E60790000FE02F
:10007E004408F090006AE030E70790000CE0440876
:10008E00F0900069E0FEA3E0FFEE30E00790001371
:10009E00E04408F0EE30E107900012E04408F0EE84
:1000AE0030E20790000BE04408F0900069E0A330C6
:1000BE00E307900007E04408F0900069E0FEA3E03B
:1000CE00FFEE30E407900008E04408F0EE30E5075C
:1000DE0090000EE04408F090006BE0FEA3E0FF30CD
:1000EE00E007900014E04420F0EF30E10790000D9F
:1000FE00E04420F0EF30E207900006E04420F0905C
:10010E00006CE030E307900009E04420F090006BB3
:10011E00E0FEA3E0FF30E407900011E04420F0EF92
:10012E0030E507900015E04420F0EF30E607900030
:10013E000FE04420F090006CE030E70790000CE0F8
:10014E004420F090006BE0FEA3E0FFEE30E007905D
:10015E000013E04420F0EE30E107900012E044205E
:10016E00F0EE30E20790000BE04420F090006BE0E0
:10017E00A330E307900007E04420F090006BE0FE10
:10018E00A3E0FFEE30E407900008E04420F0EE30EC
:10019E00E50790000EE04420F090006DE0FEA3E035
:1001AE00FF30E007900014E04410F0EF30E10790CC
:1001BE00000DE04410F0EF30E207900006E044102E
:1001CE00F090006EE030E307900009E04410F090EC
:1001DE00006DE0FEA3E0FF30E407900011E0441054
:1001EE00F0EF30E507900015E04410F0EF30E60731
:1001FE0090000FE04410F090006EE030E7079000A2
:10020E000CE04410F090006DE0FEA3E0FFEE30E055
:10021E0007900013E04410F0EE30E107900012E07A
:10022E004410F0EE30E20790000BE04410F0900026
:10023E006DE0A330E307900007E04410F090006DEE
:10024E00E0FEA3E0FFEE30E407900008E04410F07B
:10025E00EE30E50790000EE04410F090006FE0FEE7
:10026E00A3E0FF30E007900014E04404F0EF30E12B
:10027E000790000DE04404F0EF30E207900006E036
:10028E004404F0900070E030E307900009E044046D
:10029E00F090006FE0FEA3E0FF30E407900011E065
:1002AE004404F0EF30E507900015E04404F0EF3021
:1002BE00E60790000FE04404F0900071E0FEA3E02A
:1002CE00FF30E007900014E04480F0EF30E107903B
:1002DE00000DE04480F0EF30E207900006E044802D
:1002EE00F0900072E030E307900009E04480F09057
:1002FE000071E0FEA3E0FF30E407900011E04480BF
:10030E00F0EF30E507900015E04480F0EF30E6079F
:10031E0090000FE04480F0900073E0FEA3E0FF3009
:10032E00E007900014E04402F0EF30E10790000D7A
:10033E00E04402F0EF30E207900006E04402F09055
:10034E000074E030E307900009E04402F09000737F
:10035E00E0FEA3E0FF30E407900011E04402F0EF6E
:10036E0030E507900015E04402F0EF30E60790000C
:10037E000FE04402F0900075E0FEA3E0FF30E007CE
:10038E00900014E04401F0EF30E10790000DE044DE
:10039E0001F0EF30E207900006E04401F0900076A5
:1003AE00E030E307900009E04401F0900075E0FEB4
:1003BE00A3E0FF30E407900011E04401F0EF30E5D8
:1003CE0007900015E04401F0EF30E60790000FE0D3
:1003DE004401F0900076E030E70790000CE0440115
:0403EE00F090007516
:1003F200E0FEA3E0FFEE30E007900013E04401F0DE
:10040200EE30E107900012E04401F0EE30E2079096
:10041200000BE04401F0900075E0A330E307900088
:1004220007E04401F0900075E0FEA3E0FFEE30E447
:1004320007900010E04420F0EE30E507900010E055
:100442004410F0EE30E607900010E04404F0900013
:1004520077E0FEA3E0FF30E00790000BE04404F0F9
:10046200EF30E107900012E04404F0EF30E2079031
:100472000013E04404F0900078E030E30790000CB1
:10048200E04404F0900079E0FEA3E0FF30E0079042
:100492000007E04480F0EF30E10790000BE0448079
:1004A200F0EF30E207900012E04480F090007AE032
:1004B20030E307900013E04480F090007AE030E4EB
:1004C2000790000CE04480F090007BE0FEA3E0FF88
:1004D20030E00790000BE04402F0EF30E1079000BB
:1004E20012E04402F0EF30E207900013E04402F021
:1004F20090007CE030E30790000CE04402F09000B2
:100502007DE0FEA3E0FF30E007900011E04440F000
:10051200EF30E107900009E04440F0EF30E207904D
:100522000006E04440F090007EE030E30790000DCA
:10053200E04440F090007EE030E407900014E04494
:1005420040F090007FE0FEA3E0FF30E00790001350
:10055200E04440F0EF30E10790000CE04440F0EF5F
:1005620030E20790000FE04440F0900080E030E37A
:1005720007900015E04440F0900081E0FEA3E0FF08
:1005820030E00790000EE04440F0EF30E1079000C9
:1005920008E04440F0EF30E207900007E04440F00A
:1005A200900082E030E30790000BE04440F09000BE
:1005B20082E030E407900012E04440F0C2937F01F1
:1005C200123C437F40123B607F01123C43D2937F37
:1005D20001123C43C2937F01123C437FC0123B6035
:1005E200E4F53A7406253AF582E43400F583E0FF37
:0F05F200123B60053AE53AC3941040E7D29322DA
:103B60007E08C290EF139291EFC313FFD2901EEE26
:063B7000D3940050ED2289
:102EAC000305C2689F06243152750008058203068B
:102EBC00000F828C050F008C020A85880005838424
:102ECC000B0D0020464C4154202045512020200061
:102EDC000999999F004D4943314D49433245434827
:102EEC004F5245505444454C594D4241534D545208
:102EFC004500090707070505050503030604080433
:062F0C0009040A030B0298
:10218D00E4F52F78317C007D007BFF7A2E79AC7ED3
:10219D00007F05120B8AE52F04F5307B007A00795C
:1021AD0030754900754A067F8B12354C752E01E44A
:1021BD00FFE52F75F006A424B7F582E4342EF583E0
:1021CD00E5822FF582E43583F583E493FEE52F75E3
:1021DD00F006A424B8F582E4342EF583E5822FF5BC
:1021ED0082E43583F583E493FDEF902EB193547F14
:1021FD00FCEE54804CFC7430252EF8A604EFA3930E
:10220D00547FFCED54804CFC7431252EF8A604ED62
:10221D00540FFCC454F0FCEE540F4CFC7432252EBC
:10222D00F8A6047403252EF52E0F0FEFC394064068
:10223D0080E52F04F5307B007A00793075490085F3
:10224D002E4A7F8C12354C052FE52FC39403500376
:04225D0002219022A8
:10392D007F2C1238B28F2790003CE0B40513052789
:10393D00E527D394034003E4F527AD277F2C123AF6
:06394D00B0AF2702377243
:103772008F30123BECE53060067E007F0680047ECF
:10378200007F0074CF2FF9742E3EFA7BFF1237416F
:10379200E53060082430FD7F041211CC7F05023C25
:0137A20054D2
:10226100900067E0D3941240037409F0900068E095
:10227100D3941240037409F07F391238B28F2EE5DE
:102281002ED394004003D38001C3920EE52EC45493
:102291000F900061F0E52E540FA3F0900061E0D3A0
:1022A100940940037402F0900062E0D39409400362
:1022B1007402F01233C67F3A1238B28F2EE52E54D3
:1022C1000F900063F0D3940940037402F07F3B1236
:1022D10038B28F2EE52EC4540F900065F0D39409C7
:1022E10040037402F0E52E540F900064F0D394097A
:1022F10040037402F07BFF7A2E79DC754900754A40
:10230100057F8D12354C752F0478307C007D007B64
:10231100FF7A2E79AC7E007F05120B8A7B007A0052
:10232100792F754900754A067F8B12354C0232E4CC
:1039530090003CE0C3943950057F39023C6A9000E3
:103963003CE004F0D3943F40037439F090003CE012
:05397300FF123C6A2276
:103AFE0090003CE0FFC39439400FEFD3943F500940
:0A3B0E00787E76017D04120D662218
:103B180090003CE0FFC39439400FEFD3943F500925
:0A3B2800787E76017D03120D6622FF
:102816008F3A8D3BE53BC39403401D90003CE0B5E9
:102826003A16E53BB404047D0180027D00AF3A12FE
:1028360026449000547450F0E53A24C7F53C75F0F0
:1028460004A424E1F9742E35F0FA7BFF1237417D9A
:10285600207F041211CCE53BB402077D207F0502E0
:1028660011CCE53AC3943E50167461253CF582E4DA
:102876003400F583E02430FD7F051211CC801074FE
:1028860029253AF582E43400F583E0FF12382FE576
:0C2896003B70089000547450F0D20022F7
:1037D200AB07EBC394095015430580EBFFC3740993
:1037E2009FFFE49400EFFEE4EE4204800DEB24F729
:0F37F200FFE434FFEFFEE4EE4204AE04AF052225
:102644008F3D8D3E123C64E53DC3943E5064742836
:10265400253DF9E43400FA7B017D09AF3E123A5B73
:10266400E53D24C6600D14601F14603214602F24ED
:1026740004706D900061E0FFC454F0FFA3E04FFDCF
:102684007F39123AB00233C6900063E0FF902EFE09
:1026940093FEC454F0FEEF4EFD7F3A023AB0900030
:1026A40065E0FFC454F0FF900064E04FFD7F3B02FF
:1026B4003AB07429253DF9E43400FA7B017D12AF68
:1026C4003E123A5B1232E4E53DB43E0A900067E004
:1026D400FD7F42023AB0900068E0FD7F43123AB0B9
:0126E40022D3
:1032E400900067E0FF7D237C001237D28E438F4429
:1032F400A3E0FF7D677C001237D2753F04E544F5F7
:1033040040AD07EDF541EEC4F854F0C868EFC4547D
:103314000F4854F0FDE543540F4DF5427B007A000D
:0D332400793F754900754A047F8C02354CD5
:1033C600900061E0C39405500EA3E0C39405500736
:1033D6007D447F38023AB0900062E0FF900061E0E1
:1033E600FED39F4004AF0680008F3FE53F24FB25B8
:1033F600E0F53F902F0893FFC454F0FFE53FA393F9
:083406004FFD7F38123AB0229D
:103A3D00AE0753050FEDC3940A5006ED2430FFFD7C
:0E3A4D0022EE6005ED2457FF22ED2437FF2204
:101A4F008F668D678B68E567701FE568701BAB69E4
:101A5F00AA6AA96B7430120C18AB69AA6AA96B90A9
:101A6F000001E4120C2A7F0122E4F56CFCE56664A8
:101A7F00646009E56664756003021B2BE56875F009
:101A8F006484F56D601AFDE4FF123A3DAB69AA6AF2
:101A9F00A96BAE040C8E82758300EF120C2A80188E
:101AAF00E567B40313AB69AA6AA96BAF040C8F8205
:101ABF007583007430120C2AE56875F0648485F024
:101ACF006DE56D75F00A84FD6019E4FF123A3DABC8
:101ADF0069AA6AA96BAE040C8E82758300EF120C93
:101AEF002A8018E567B40213AB69AA6AA96BAF0421
:101AFF000C8F827583007430120C2AE56D75F00A15
:101B0F0084ADF0E4FF123A3DAB69AA6AA96BAE044B
:101B1F000C8E82758300EF120C2A806CE56854F0EE
:101B2F006028E566B458047F0180027F00E568C431
:101B3F00540FFD123A3DAB69AA6AA96BAE040C8E25
:101B4F0082758300EF120C2A801CC3E567648094B2
:101B5F00824013AB69AA6AA96BAF040C8F8275839D
:101B6F00007430120C2AE566B458047F0180027F9E
:101B7F0000AD68123A3DAB69AA6AA96BAE040C8E30
:101B8F0082758300EF120C2AAB69AA6AA96B8C824B
:0A1B9F00758300E4120C2AAF042243
:100FAD008B548A558956E4F55DF55EAB57AA58A961
:100FBD0059AF5DEF3395E08F82F583120BC9FE6457
:100FCD00256041D3E55E6480949E4003AF5E22EEC2
:100FDD007003AF5E22AB57AA58A959AF5D055DEFFF
:100FED003395E08F82F583120BC9FFAB54AA55A937
:100FFD0056AE5E055EEEFD3395E08D82F583EF1204
:10100D000C2A80A7AF5DEF3395E08F82F583A3ABFC
:10101D0057AA58A959120BC9F5636473706BAB5A73
:10102D00E55CF92403F55CE55BFA3400F55B120C25
:10103D00CC8B608A618962055D055DE4F55FAB600F
:10104D00AA61A962AF5FEF3395E08F82F583120B32
:10105D00C97003020FB8C3E55E6480949E4003021D
:10106D000FB8055FEF3395E08F82F583120BC9FF43
:10107D00AB54AA55A956AE5E055EEEFD3395E08DD7
:10108D0082F583EF120C2A80B5E563B4251E055D4C
:10109D00055DAB54AA55A956AF5E055EEF3395E0DD
:1010AD008F82F5837425120C2A020FB8E563B463A1
:1010BD0032055D055DAB5AE55CF92402F55CE55B37
:1010CD00FA3400F55B120CA1FFAB54AA55A956AE2C
:1010DD005E055EEEFD3395E08D82F583EF120C2AF1
:1010ED00020FB8E4F564F55FAF5DEF3395E0FEEF09
:1010FD002401FFE43EFEAD5FED3395E0FCED2FF5F1
:10110D0082EC3EF583AB57AA58A959120BC9F5636A
:10111D00C3648094B0401ED3E563648094B95015C8
:10112D00E56324D0FFE56475F00AA42FF564055F2F
:10113D00E55FB403B3AF5DEF3395E0FEEF2401FF40
:10114D00E43EFEAD5FED3395E0FCEF2DFFEE3CFE92
:10115D00AB57E5592FF9E5583EFA8B60F561896279
:10116D00E55D2402255FF55D120BB0FF249C600F39
:10117D0024EF600B24FD600724206003020FB8AB41
:10118D005A055CE55CAA5B7002055B14F9120BB0A5
:10119D00F565E55EFD3395E0FCE5562DF9E5553C2D
:0511AD00855469F56A9C
:1011B200896BAB65AD64121A4FEF255EF55E020FC7
:0211C200B82251
:103BA100E5151515700215141445146006ED120C77
:043BB1001880ED2269
:103B7600E50F150F7002150E14450E6008120BB0F6
:063B8600120C1880EB2276
:083C5C00C2998F993099FD22F5
:102BA7008B3F8A4089417551007552007553428B9E
:102BB700578A58895985515A85525B85535C7B01E1
:102BC7007A007998120FADAE070EEFFD3395E0FC52
:102BD70074982DF58274003CF583740DF0AF060EE2
:102BE700EFFD3395E0FC74982DF58274003CF58376
:102BF700740AF0E4FDC3EE6480F8ED648098501821
:102C0700EDFB3395E0FA74982BF58274003AF5835F
:092C1700E0FF123C5C0D80DD229F
:1035C200123BC812337D123BDB123C76123C751261
:1035D2003C4C787BE6FF5401D3940040F5121FACBB
:1035E200787BE6FF120601787BE6FF1224C4787B23
:0B35F200E6FF12340EE4787BF680D771
:103BC800758921758851759850758DFF4387807563
:033BD800A883229D
:093C4300EFD394034002DFFE22DE
:053C6F008F3A8D3B229D
:102AB0007874E6FF7008C2A0D2A1D2A28012EFB44F
:102AC0000108D2A0C2A1D2A28006D2A0D2A1C2A2E5
:102AD000E4FE2082010E2083034306022084034388
:102AE0000604208503430608EE602EEFC454F02E42
:102AF000FE787CE6B50616900097E004F0D39408C3
:102B00004029201402D207E4900097F022C214E476
:102B1000900097F0787CA60622787406E6D394029B
:0C2B20004002E4F6C214E4900097F0229A
:102C200020101830871030860D787306E6D3940391
:102C30004004E4F6D210C20AC20B22A287308601F9
:102C4000B3503A301025A2869212A212301601B368
:102C500050057871E67002D21CA212921678717635
:102C600003E47873F6C210C20B800F300B0A787140
:102C70007603E47873F6C210D20BC20A22208714BE
:102C8000208611300A0A78717603E47873F6C21050
:052C9000D20AC20B2274
:03000B00021EB31F
:101EB300C0E0C0F0C083C082C0D075D000C000C0F5
:101EC30007758A60758CFF787606E675F00A84E5F7
:101ED300F06003021F60122C207876E675F06484AC
:101EE300E5F0703BF6787B7601787206E675F00ACA
:101EF30084E5F0702A787BE64402F67872E6FF7593
:101F0300F03284E5F07018787BE64404F6EF75F060
:101F13006484E5F070097872F6787BE64408F6305D
:101F2300053B90002BE004F0D394134006E4F0C289
:101F3300A5802A900058E0FF700B90002BE0B401BD
:101F430004D2A58018EFB4010B90002BE0B4040475
:101F5300D2A5800990002BE0B40802D2A57875E6DB
:101F6300603806E6D3949F40312008247878E6B49D
:101F7300021E787EE66019787AE6FFC39408500E55
:101F8300EF5403FFBF0302D21A787A068002D21AF3
:101F930078787600C20878757600D007D000D0D064
:091FA300D082D083D0F0D0E032EE
:0300030002292AA5
:10292A00C0E0C0D075D000C000C006C0072008644F
:10293A00787806E6FFB4020C7875E6D39491405491
:10294A00D20880507870E6FEC313F67875E6D39401
:10295A001040067870E64480F6EF640A6004EFB42B
:10296A001A077870E618F6802BEFB412127870E620
:10297A00B4BF0418E6601D787E7600D2088015EF91
:10298A00B422117870E6F418667007D21A787AF6CB
:10299A008002D20878757601D007D006D000D0D050
:0329AA00D0E03248
:03000000023C249B
:0C3C2400787FE4F6D8FD75817E0235C281
:100ABA00E709F608DFFA8046E709F208DFFA803E1E
:100ACA0088828C83E709F0A3DFFA8032E309F6080B
:100ADA00DFFA8078E309F208DFFA807088828C8373
:100AEA00E309F0A3DFFA806489828A83E0A3F60827
:100AFA00DFFA805889828A83E0A3F208DFFA804C01
:100B0A0080D280FA80C680D4806980F280338010D7
:100B1A0080A680EA809A80A880DA80E280CA803340
:100B2A0089828A83ECFAE493A3C8C582C8CCC583B8
:100B3A00CCF0A3C8C582C8CCC583CCDFE9DEE78088
:100B4A000D89828A83E493A3F608DFF9ECFAA9F007
:100B5A00EDFB2289828A83ECFAE0A3C8C582C8CC5D
:100B6A00C583CCF0A3C8C582C8CCC583CCDFEADE76
:100B7A00E880DB89828A83E493A3F208DFF980CCD8
:100B8A0088F0EF60010E4E60C388F0ED2402B404D1
:100B9A000050B9F582EB2402B4040050AF23234578
:060BAA008223900B0A7388
:100BB000BB010689828A83E0225002E722BBFE0243
:090BC000E32289828A83E4932276
:100BC900BB010CE58229F582E5833AF583E02250E1
:100BD90006E92582F8E622BBFE06E92582F8E2222B
:0D0BE900E58229F582E5833AF583E4932245
:100BF600BB010989828A83F8E028F022500327F78F
:100C060022BBFE05F8E328F3228A838982F8E4935F
:020C1600282292
:100C1800BB010689828A83F0225002F722BBFE01BB
:020C2800F322B5
:100C2A00F8BB010DE58229F582E5833AF583E8F000
:100C3A00225006E92582C8F622BBFE05E92582C8AC
:020C4A00F22294
:100C4C00BC000BBE0029EF8DF084FFADF022E4CC8C
:100C5C00F875F008EF2FFFEE33FEEC33FCEE9DEC55
:100C6C00984005FCEE9DFE0FD5F0E9E4CEFD22ED9B
:100C7C00F8F5F0EE8420D21CFEADF075F008EF2FE5
:100C8C00FFED33FD4007985006D5F0F222C398FDD6
:050C9C000FD5F0EA2273
:100CA100BB010A89828A83E0F5F0A3E0225006871E
:100CB100F009E71922BBFE07E3F5F009E3192289E0
:0B0CC100828A83E493F5F07401932213
:100CCC00BB010789828A83020D485005E9F8020DA1
:100CDC003FBBFE05E9F8020D5189828A83020D5A49
:100CEC00D083D082F8E4937012740193700DA3A397
:100CFC0093F8740193F5828883E4737402936860AB
:060D0C00EFA3A3A380DFAA
:100D1200D083D082F8E4937012740193700DA3A370
:100D220093F8740193F5828883E473740293B5F0A7
:0D0D3200067403936860E9A3A3A3A380D80F
:090D3F00E6FB08E6FA08E6F922D9
:090D4800E0FBA3E0FAA3E0F922AC
:090D5100E2FB08E2FA08E2F922D3
:0C0D5A00E493FB740193FA740293F922F5
:00000001FF
